:0400000007EF00F016
:0A0008005F825F92110026EF2AF0DC
:100E0000007265643D256620677265656E3D2566E6
:100E100020626C75653D2566206C756D3D256420EE
:100E2000636F6C6F7572313D2564200D0A00726529
:100E3000643D256420677265656E3D256420626CA3
:100E400075653D2564206C756D3D2564200D0A0097
:090E5000696E66006E616E00001F
:100E5A00000E0001726F000E736F000E746F000EA9
:100E6A00756F000E766F500E776FC30E786F470E50
:100E7A00796F000E656F040E646F20EE66F00B0E3C
:100E8A00DE6AE806FDE24BC0D9FF4CC0DAFFDECFCE
:100E9A0001F0DDCF02F0000E02BEFF0E036E046EFB
:100EAA00010E20EC1FF001C066F002C067F003C01B
:100EBA0068F004C069F020EE02F04B50D9264C507D
:100ECA00DA22DECF01F0DDCF02F0000E02BEFF0E05
:100EDA00036E046E010E20EC1FF001C06AF002C01E
:100EEA006BF003C06CF004C06DF020EE04F04B50C0
:100EFA00D9264C50DA22DECF01F0DDCF02F0000E07
:100F0A0002BEFF0E036E046E010E20EC1FF001C03C
:100F1A006EF002C06FF003C070F004C071F0000EF2
:100F2A0000017B6F000E7A6F72C02AF073C02BF03B
:100F3A0074C02CF075C02DF0660E4F6E000E506E08
:100F4A00D8907A35D96E7B35DA6ED890D936DA36BA
:100F5A004F50D9265050DA22DECF2EF0DECF2FF0B6
:100F6A00DECF30F0DECF31F0A9EC22F0D8B0C0EFFE
:100F7A0007F0C2EF07F0DFEF07F0660E4F6E000EC4
:100F8A00506ED89000017A35D96E7B35DA6ED890DA
:100F9A00D936DA364F50D9265050DA22DECF72F0DF
:100FAA00DECF73F0DECF74F0DECF75F07AC064F076
:100FBA007BC065F0660E4F6E000E506ED890000131
:100FCA007A35D96E7B35DA6ED890D936DA364F5003
:100FDA00D9265050DA22DECF2AF0DECF2BF0DECF30
:100FEA002CF0DECF2DF076C02EF077C02FF078C02F
:100FFA0030F079C031F0A9EC22F0D8B007EF08F050
:10100A0009EF08F022EF08F0660E4F6E000E506EE0
:10101A00D89000017A35D96E7B35DA6ED890D936F8
:10102A00DA364F50D9265050DA22DECF76F0DECFAC
:10103A0077F0DECF78F0DECF79F000017A4B7B2BA8
:10104A007BBF31EF08F07B5109E1030E7A5DD8A02E
:10105A0031EF08F033EF08F099EF07F076C02EF081
:10106A0077C02FF078C030F079C031F072C02AF022
:10107A0073C02BF074C02CF075C02DF04CEC2AF024
:10108A002AC032F02BC033F02CC034F02DC035F01A
:10109A00000E366E000E376E000E386E000E396E78
:1010AA000FEC24F0D8A05CEF08F05EEF08F064EFD4
:1010BA0008F0000E4C6E000E4B6E9AEF0CF0000119
:1010CA0064516511D8A46CEF08F06EEF08F0E2EFF6
:1010DA0008F076C02EF077C02FF078C030F079C0D3
:1010EA0031F072C02AF073C02BF074C02CF075C0B6
:1010FA002DF04CEC2AF02AC036F02BC037F02CC069
:10110A0038F02DC039F06EC02EF06FC02FF070C0CD
:10111A0030F071C031F06AC02AF06BC02BF06CC09D
:10112A002CF06DC02DF04CEC2AF02AC032F02BC006
:10113A0033F02CC034F02DC035F0F1EC17F032C08A
:10114A0011F033C012F034C013F035C014F0000EA1
:10115A00156E000E166E700E176E420E186EF8ECB3
:10116A0013F011C07CF012C07DF013C07EF014C0E1
:10117A007FF000017FBFC6EF08F0C4EF08F0C1EFAF
:10118A0009F07CC001F07DC002F07EC003F07FC090
:10119A0004F0000E056E000E066EB40E076E430EC6
:1011AA00086E98EC11F001C07CF002C07DF003C01B
:1011BA007EF004C07FF0C1EF09F064056511D8A480
:1011CA00E9EF08F0EBEF08F057EF09F076C02EF0E0
:1011DA0077C02FF078C030F079C031F072C02AF0B1
:1011EA0073C02BF074C02CF075C02DF04CEC2AF0B3
:1011FA002AC036F02BC037F02CC038F02DC039F099
:10120A0066C02EF067C02FF068C030F069C031F0B8
:10121A006EC02AF06FC02BF070C02CF071C02DF098
:10122A004CEC2AF02AC032F02BC033F02CC034F038
:10123A002DC035F0F1EC17F032C060F033C061F028
:10124A0034C062F035C063F0000E056E000E066E03
:10125A00000E076E400E086E60C001F061C002F019
:10126A0062C003F063C004F098EC11F001C011F001
:10127A0002C012F003C013F004C014F0000E156E81
:10128A00000E166E700E176E420E186EF8EC13F002
:10129A0011C07CF012C07DF013C07EF014C07FF044
:1012AA00C1EF09F076C02EF077C02FF078C030F089
:1012BA0079C031F072C02AF073C02BF074C02CF0E0
:1012CA0075C02DF04CEC2AF02AC036F02BC037F04E
:1012DA002CC038F02DC039F06AC02EF06BC02FF048
:1012EA006CC030F06DC031F066C02AF067C02BF0D8
:1012FA0068C02CF069C02DF04CEC2AF02AC032F0FC
:10130A002BC033F02CC034F02DC035F0F1EC17F0BF
:10131A0032C060F033C061F034C062F035C063F0AF
:10132A00000E056E000E066E800E076E400E086EE9
:10133A0060C001F061C002F062C003F063C004F053
:10134A0098EC11F001C011F002C012F003C013F0C2
:10135A0004C014F0000E156E000E166E700E176E95
:10136A00420E186EF8EC13F011C07CF012C07DF03A
:10137A0013C07EF014C07FF07CC02AF07DC02BF031
:10138A007EC02CF07FC02DF0000E2E6E000E2F6E48
:10139A00A50E306E430E316EA9EC22F0D8A0D8EF1C
:1013AA0009F0DAEF09F0F9EF09F0000E2A6E000EE3
:1013BA002B6EB40E2C6E430E2D6E7CC02EF07DC0AB
:1013CA002FF07EC030F07FC031F0A9EC22F0D8A017
:1013DA00F1EF09F0F3EF09F0F9EF09F0000E4C6EA6
:1013EA00010E4B6E9AEF0CF07CC02AF07DC02BF0F8
:1013FA007EC02CF07FC02DF0000E2E6E000E2F6ED8
:10140A00A00E306E400E316EA9EC22F0D8A010EF7B
:10141A000AF012EF0AF031EF0AF0000E2A6E000EFF
:10142A002B6E400E2C6E410E2D6E7CC02EF07DC0B0
:10143A002FF07EC030F07FC031F0A9EC22F0D8A0A6
:10144A0029EF0AF02BEF0AF031EF0AF0000E4C6E8A
:10145A00020E4B6E9AEF0CF07CC02AF07DC02BF086
:10146A007EC02CF07FC02DF0000E2E6E000E2F6E67
:10147A00A00E306E410E316EA9EC22F0D8A048EFD2
:10148A000AF04AEF0AF0CAEF0AF0000E2A6E000EBE
:10149A002B6EE80E2C6E410E2D6E7CC02EF07DC098
:1014AA002FF07EC030F07FC031F0A9EC22F0D8A036
:1014BA0061EF0AF063EF0AF0CAEF0AF04DC0D9FFF4
:1014CA004EC0DAFFDECF2AF0DECF2BF0DECF2CF0D3
:1014DA00DECF2DF0CD0E2E6ECC0E2F6E4C0E306E52
:1014EA003E0E316EA9EC22F0D8A07EEF0AF080EF12
:1014FA000AF09FEF0AF01F0E2A6E850E2B6E6B0EF6
:10150A002C6E3E0E2D6E4DC0D9FF4EC0DAFFDECFD7
:10151A002EF0DECF2FF0DECF30F0DECF31F0A9ECA7
:10152A0022F0D8A09BEF0AF09DEF0AF09FEF0AF095
:10153A005EEF08F020EE08F04D50D9264E50DA2220
:10154A00DECF2AF0DECF2BF0DECF2CF0DECF2DF06F
:10155A00290E2E6E5C0E2F6E0F0E306E3E0E316E01
:10156A00A9EC22F0D8A0BCEF0AF0BEEF0AF0C4EF53
:10157A000AF0000E4C6E040E4B6E9AEF0CF0000E41
:10158A004C6E030E4B6E9AEF0CF07CC02AF07DC0B5
:10159A002BF07EC02CF07FC02DF0000E2E6E000EB8
:1015AA002F6E340E306E420E316EA9EC22F0D8A0A6
:1015BA00E1EF0AF0E3EF0AF048EF0BF0000E2A6EB3
:1015CA00000E2B6EA00E2C6E420E2D6E7CC02EF0DD
:1015DA007DC02FF07EC030F07FC031F0A9EC22F040
:1015EA00D8A0FAEF0AF0FCEF0AF048EF0BF020EE71
:1015FA0008F04D50D9264E50DA22DECF2AF0DECF3F
:10160A002BF0DECF2CF0DECF2DF09A0E2E6E990E37
:10161A002F6E190E306E3E0E316EA9EC22F0D8A054
:10162A0019EF0BF01BEF0BF01DEF0BF0BEEF0AF0FA
:10163A0020EE08F04D50D9264E50DA22DECF2AF09D
:10164A00DECF2BF0DECF2CF0DECF2DF08F0E2E6EFC
:10165A00C20E2F6EF50E306E3D0E316EA9EC22F0E1
:10166A00D8A03AEF0BF03CEF0BF042EF0BF0000E74
:10167A004C6E060E4B6E9AEF0CF0000E4C6E050E79
:10168A004B6E9AEF0CF07CC02AF07DC02BF07EC026
:10169A002CF07FC02DF0000E2E6E000E2F6EA20EC3
:1016AA00306E420E316EA9EC22F0D8A05FEF0BF03B
:1016BA0061EF0BF09BEF0BF0000E2A6E000E2B6E03
:1016CA00E60E2C6E420E2D6E7CC02EF07DC02FF0E1
:1016DA007EC030F07FC031F0A9EC22F0D8A078EFBC
:1016EA000BF07AEF0BF09BEF0BF020EE08F04D5069
:1016FA00D9264E50DA22DECF2AF0DECF2BF0DECF0B
:10170A002CF0DECF2DF09A0E2E6E990E2F6E190E3A
:10171A00306E3E0E316EA9EC22F0D8A097EF0BF096
:10172A0099EF0BF03CEF0BF0BEEF0AF07CC02AF009
:10173A007DC02BF07EC02CF07FC02DF0000E2E6EE7
:10174A00000E2F6EF00E306E410E316EA9EC22F0B3
:10175A00D8A0B2EF0BF0B4EF0BF0CDEF0BF0000E08
:10176A002A6E000E2B6E680E2C6E420E2D6E7CC0F9
:10177A002EF07DC02FF07EC030F07FC031F0A9EC92
:10178A0022F0D8B0CBEF0BF0CDEF0BF0BEEF0AF0A2
:10179A007CC02AF07DC02BF07EC02CF07FC02DF0DB
:1017AA00000E2E6E000E2F6EF00E306E420E316E4F
:1017BA00A9EC22F0D8A0E4EF0BF0E6EF0BF001EF72
:1017CA000CF0000E2A6E000E2B6E5C0E2C6E430E71
:1017DA002D6E7CC02EF07DC02FF07EC030F07FC011
:1017EA0031F0A9EC22F0D8A0FDEF0BF0FFEF0BF0DF
:1017FA0001EF0CF0BEEF0AF07CC02AF07DC02BF09E
:10180A007EC02CF07FC02DF0000E2E6E000E2F6EC3
:10181A00600E306E410E316EA9EC22F0D8A018EF9E
:10182A000CF01AEF0CF096EF0CF0000E2A6E000E78
:10183A002B6E980E2C6E410E2D6E7CC02EF07DC044
:10184A002FF07EC030F07FC031F0A9EC22F0D8A092
:10185A0031EF0CF033EF0CF096EF0CF04DC0D9FFDE
:10186A004EC0DAFFDECF2AF0DECF2BF0DECF2CF02F
:10187A00DECF2DF0CD0E2E6ECC0E2F6E4C0E306EAE
:10188A003E0E316EA9EC22F0D8A04EEF0CF050EFCC
:10189A000CF06FEF0CF01F0E2A6E850E2B6E6B0E7E
:1018AA002C6E3E0E2D6E4DC0D9FF4EC0DAFFDECF34
:1018BA002EF0DECF2FF0DECF30F0DECF31F0A9EC04
:1018CA0022F0D8A06BEF0CF06DEF0CF06FEF0CF07C
:1018DA005EEF08F020EE08F04D50D9264E50DA227D
:1018EA00DECF2AF0DECF2BF0DECF2CF0DECF2DF0CC
:1018FA009A0E2E6E990E2F6E190E306E3E0E316EA6
:10190A00A9EC22F0D8A08CEF0CF08EEF0CF090EF3F
:10191A000CF0BEEF0AF0000E4C6E070E4B6E9AEFFB
:10192A000CF0000E4C6E0A0E4B6E1200000E0001F7
:10193A008A6F62C08DF063C08EF064C08FF065C09C
:10194A0090F090BFADEF0CF0ABEF0CF0C1EF0CF0E4
:10195A00010E8A6F8DC001F08EC002F08FC003F0B5
:10196A0090C004F032EC2BF001C08DF002C08EF072
:10197A0003C08FF004C090F0000E00018C6F000EBF
:10198A008B6FEFC07AF0F0C07BF08A51D8B4D0EFF9
:10199A000CF0D2EF0CF0E6EF0CF08A51D8A4D8EF95
:1019AA000CF0DAEF0CF0E0EF0CF0000E706F2B0E7B
:1019BA006F6FE4EF0CF0000E706F2D0E6F6F6FC03B
:1019CA008AF08DC001F08EC002F08FC003F090C083
:1019DA0004F02BEC23F001040210D8A4F7EF0CF06A
:1019EA00F9EF0CF02CEF0DF000018A51D8B400EF9A
:1019FA000DF002EF0DF00BEF0DF08AC00CF17A0733
:101A0A00D8A07B07000E8C6F010E8B6F0C0E8B25F6
:101A1A00016E010E8C21026E500E036E0E0E046EC4
:101A2A006FEC2AF00001FD0E7A27FF0E7B2360C0BF
:101A3A0011F061C012F00C0E136E010E146E7AC012
:101A4A0015F07BC016F015EC26F097EF11F08DC05B
:101A5A0001F08EC002F08FC003F090C004F02BECAE
:101A6A0023F001500210D8A43DEF0DF03FEF0DF026
:101A7A005FEF0DF000018A51D8B446EF0DF048EF40
:101A8A000DF051EF0DF08AC00CF17A07D8A07B0750
:101A9A00000E8C6F010E8B6F0C0E8B25016E010EE2
:101AAA008C21026E540E036E0E0E046E6FEC2AF039
:101ABA0017EF0DF0000E0001916F000E926F800E6D
:101ACA00936F3F0E946F000E796F000E786F8DC082
:101ADA0032F08EC033F08FC034F090C035F0000E73
:101AEA00366E000E376E000E386E000E396E0FEC31
:101AFA0024F0D8B083EF0DF085EF0DF064EF0EF00F
:101B0A0092EF0DF07CC091F07DC092F07EC093F010
:101B1A007FC094F00001784B792B91C011F092C0EC
:101B2A0012F093C013F094C014F0000E156E000E5C
:101B3A00166E200E176E410E186EF8EC13F011C0D7
:101B4A007CF012C07DF013C07EF014C07FF000015B
:101B5A007C518D5D016E7D518E59026E7E518F5979
:101B6A00036E7F519059046EC7EC26F004BEC9EF8C
:101B7A000DF004500310021009E1020E015CD8A016
:101B8A00C9EF0DF0CBEF0DF087EF0DF07CC02AF016
:101B9A007DC02BF07EC02CF07FC02DF08DC02EF0C2
:101BAA008EC02FF08FC030F090C031F0A9EC22F037
:101BBA00D8A0E2EF0DF0E4EF0DF087EF0DF0000191
:101BCA0091518D5D016E92518E59026E93518F59CA
:101BDA00036E94519059046EC7EC26F004BE03EFCD
:101BEA000EF004500310021007E1020E015CD8B097
:101BFA0001EF0EF003EF0EF04BEF0EF091C08DF0F7
:101C0A0092C08EF093C08FF094C090F064EF0EF003
:101C1A0091C032F092C033F093C034F094C035F0E2
:101C2A00000E366E000E376E200E386E410E396E7B
:101C3A00F1EC17F032C091F033C092F034C093F057
:101C4A0035C094F000017807D8A0790791518D5DCD
:101C5A00016E92518E59026E93518F59036E9451AF
:101C6A009059046EC7EC26F004BE49EF0EF00450FA
:101C7A000310021007E1020E015CD8B047EF0EF024
:101C8A0049EF0EF04BEF0EF003EF0EF08DC02AF085
:101C9A008EC02BF08FC02CF090C02DF091C02EF08A
:101CAA0092C02FF093C030F094C031F0A9EC22F02A
:101CBA00D8A062EF0EF064EF0EF00DEF0EF066C0E2
:101CCA0072F072C073F00001F2BF6EEF0EF070EFA7
:101CDA000EF076EF0EF0F1C06BF0F2C06CF07AEF16
:101CEA000EF0000E6C6F060E6B6F6BC076F06CC058
:101CFA0077F0764B772B660E7319D8A487EF0EF020
:101D0A0089EF0EF0A9EF0EF079BF90EF0EF08EEF8B
:101D1A000EF09CEF0EF0000E916F000E926F800E87
:101D2A00936F3F0E946F000E796F000E786F670EF7
:101D3A007219D8B4A3EF0EF0A5EF0EF0A9EF0EF0CA
:101D4A007851762779517723000E816F000E806FC4
:101D5A008DC082F08EC083F08FC084F090C085F071
:101D6A0091C07CF092C07DF093C07EF094C07FF069
:101D7A003AEF0FF082C032F083C033F084C034F0FF
:101D8A0085C035F091C036F092C037F093C038F074
:101D9A0094C039F0F1EC17F032C04BF033C04CF07C
:101DAA0034C04DF035C04EF017EC1EF04BC086F033
:101DBA004CC087F04DC088F04EC089F086C001F053
:101DCA0087C002F088C003F089C004F026EC22F034
:101DDA0001C074F002C075F082C02AF083C02BF0F3
:101DEA0084C02CF085C02DF086C015F087C016F08F
:101DFA0088C017F089C018F091C011F092C012F093
:101E0A0093C013F094C014F0F8EC13F011C02EF044
:101E1A0012C02FF013C030F014C031F04CEC2AF08D
:101E2A002AC082F02BC083F02CC084F02DC085F02C
:101E3A0091C032F092C033F093C034F094C035F0C0
:101E4A00000E366E000E376E200E386E410E396E59
:101E5A00F1EC17F032C091F033C092F034C093F035
:101E6A0035C094F00001804B812B7651805D815101
:101E7A00800A676F7751800A6759D8A047EF0FF039
:101E8A0049EF0FF0BFEF0EF091C011F092C012F0BF
:101E9A0093C013F094C014F0000E156E000E166E67
:101EAA00A00E176E400E186EF8EC13F011C086F0F3
:101EBA0012C087F013C088F014C089F082C02AF0DB
:101ECA0083C02BF084C02CF085C02DF086C02EF084
:101EDA0087C02FF088C030F089C031F0A9EC22F019
:101EEA00D8B07AEF0FF07CEF0FF087EF0FF0000E0B
:101EFA000001866F000E876F000E886F000E896FD3
:101F0A00B0EF0FF082C032F083C033F084C034F0F7
:101F1A0085C035F086C036F087C037F088C038F003
:101F2A0089C039F00FEC24F0D8A09EEF0FF0A0EF93
:101F3A000FF0B0EF0FF0000174B1A6EF0FF0A8EFA9
:101F4A000FF0B0EF0FF0000E866F000E876F000ED5
:101F5A00886F000E896F8DC001F08EC002F08FC0AD
:101F6A0003F090C004F086C005F087C006F088C070
:101F7A0007F089C008F098EC11F001C082F002C0A5
:101F8A0083F003C084F004C085F082C02AF083C0C5
:101F9A002BF084C02CF085C02DF0000E156E000EBB
:101FAA00166E200E176E410E186E7CC011F07DC0A1
:101FBA0012F07EC013F07FC014F0F8EC13F011C0D9
:101FCA002EF012C02FF013C030F014C031F0A9EC7B
:101FDA0022F0D8A0F3EF0FF0F5EF0FF01EEF10F09C
:101FEA000001784B792B7CC011F07DC012F07EC0C5
:101FFA0013F07FC014F0000E156E000E166E200E40
:10200A00176E410E186EF8EC13F011C07CF012C076
:10201A007DF013C07EF014C07FF0660E00017319C4
:10202A00D8A41AEF10F01CEF10F01EEF10F0764B48
:10203A00772B7CC091F07DC092F07EC093F07FC078
:10204A0094F078C069F079C06AF0000E0001716FEF
:10205A00000E6E6F000E6D6F000E816F000E806FA6
:10206A001CEF11F082C032F083C033F084C034F028
:10207A0085C035F091C036F092C037F093C038F081
:10208A0094C039F0F1EC17F032C04BF033C04CF089
:10209A0034C04DF035C04EF017EC1EF04BC086F040
:1020AA004CC087F04DC088F04EC089F086C001F060
:1020BA0087C002F088C003F089C004F026EC22F041
:1020CA0002BE73EF10F0025007E10A0E015CD8B0AD
:1020DA0071EF10F073EF10F083EF10F086C001F08B
:1020EA0087C002F088C003F089C004F026EC22F011
:1020FA0001C074F002C075F088EF10F0000E000104
:10210A00756F090E746F00017151D8A48FEF10F02A
:10211A0091EF10F0B9EF10F06ABF98EF10F096EF58
:10212A0010F0B9EF10F00C0E8B25D96E010E8C2130
:10213A00DA6E2E0EDF6E8B4B8C2B7A07D8A07B07BC
:10214A00010E716FB9EF10F00C0E8B25D96E010ECE
:10215A008C21DA6E300EDF6E8B4B8C2B7A07D8A06F
:10216A007B076D07D8A06E076D516E11D8A4C0EF1A
:10217A0010F0C2EF10F0A9EF10F00C0E8B25D96EFB
:10218A00010E8C21DA6E7451300FDF6E8B4B8C2B63
:10219A007A07D8A07B0782C02AF083C02BF084C0BC
:1021AA002CF085C02DF086C015F087C016F088C0C7
:1021BA0017F089C018F091C011F092C012F093C0C4
:1021CA0013F094C014F0F8EC13F011C02EF012C002
:1021DA002FF013C030F014C031F04CEC2AF02AC0B2
:1021EA0082F02BC083F02CC084F02DC085F091C002
:1021FA0032F092C033F093C034F094C035F0000E40
:10220A00366E000E376E200E386E410E396EF1ECC6
:10221A0017F032C091F033C092F034C093F035C059
:10222A0094F000016907D8A06A07804B812B765188
:10223A00805D8151800A676F7751800A6759D8B0EB
:10224A0029EF11F02BEF11F039EF11F08CBF37EFB6
:10225A0011F08C5109E14B0E8B5DD8A037EF11F0CC
:10226A0039EF11F037EF10F0000E816F4F0E806FCB
:10227A000C0E8025D96E010E8121DA6E000EDF6EFA
:10228A000C0E676F010E686F8B51675F8C51685B2C
:10229A0080516725016E81516821026E0C0E036E12
:1022AA00010E046E8BC005F08CC006F05EEC29F0BE
:1022BA0000018B51805D8B6F8C5181598C6F8A51D3
:1022CA00D8A46AEF11F06DEF11F0010E6EEF11F064
:1022DA00000E806F816B8A51D8B476EF11F078EFD7
:1022EA0011F083EF11F08B07D8A08C070C0E8B2509
:1022FA00D96E010E8C21DA6E8AC0DFFF80517A5FB7
:10230A0081517B5B60C011F061C012F00C0E8B250D
:10231A00136E010E8C21146E7AC015F07BC016F074
:10232A0015EC26F012000450800B0D6E04500424A4
:10233A000F6E03AEA3EF11F0A5EF11F0A6EF11F0A7
:10234A000F800F50D8B4ACEF11F0AEEF11F0C3EF1D
:10235A0011F00F28D8A4B4EF11F0B6EF11F0BEEFC8
:10236A0011F0000E016E000E026E000E036E000EDA
:10237A00046E038E000E046ECBEF11F0000E016E98
:10238A00000E026E000E036E000E046E0850800BE3
:10239A000E6E0D500E18D8B4D5EF11F0D7EF11F01C
:1023AA00D8EF11F00D8C085008240E6E07AEE0EF3E
:1023BA0011F0E2EF11F0E3EF11F00E800E50D8B4F5
:1023CA00E9EF11F0EBEF11F000EF12F00E28D8A4AC
:1023DA00F1EF11F0F3EF11F0FBEF11F0000E056EC3
:1023EA00000E066E000E076E000E086E078E000EB7
:1023FA00086E08EF12F0000E056E000E066E000E53
:10240A00076E000E086E0F500E5CD8B00FEF12F078
:10241A0011EF12F038EF12F00DAC16EF12F018EFC0
:10242A0012F01AEF12F0800E0D1A0FC010F00EC043
:10243A000FF010C00EF001C010F005C001F010C07E
:10244A0005F002C010F006C002F010C006F003C08A
:10245A0010F007C003F010C007F004C010F008C065
:10246A0004F010C008F0000E106E0F500EC009F0F4
:10247A000A6A095E000E0A5A0ABE4DEF12F00A50A5
:10248A0009E11A0E095CD8A04DEF12F04FEF12F0D5
:10249A0086EF12F00150021003100410D8A458EF6E
:1024AA0012F05BEF12F0010E5CEF12F0000E106EEC
:1024BA00000E016E000E026E000E036E000E046E18
:1024CA000EC00FF08FEF12F010A06EEF12F070EF47
:1024DA0012F076EF12F0D89010300109106E78EFF2
:1024EA0012F0D890103201A07DEF12F07FEF12F0B7
:1024FA0080EF12F0108E04340432033202320132B9
:10250A000F2A0E500F5CD8A08DEF12F08FEF12F049
:10251A0069EF12F00DBC94EF12F096EF12F0D6EFBD
:10252A0012F00F50D8A49CEF12F09EEF12F0A8EF11
:10253A0012F0000E016E000E026E000E036E000E07
:10254A00046EF7EF13F005500126065002220750D9
:10255A0003220850042204A0B5EF12F0B7EF12F0DC
:10256A0063EF13F010A0BCEF12F0BEEF12F0C4EF4D
:10257A0012F0D89010300109106EC6EF12F0D89000
:10258A00103201A0CBEF12F0CDEF12F0CEEF12F025
:10259A00108E043404320332023201320F2A63EFFE
:1025AA0013F00550015C06500258075003580450B6
:1025BA00800A096E0850800A0958D8B0E7EF12F06D
:1025CA00E9EF12F014EF13F00150055C096E0250A6
:1025DA0006580A6E035007580B6E045008580C6EC2
:1025EA00FF0E0924016EFF0E0A20026EFF0E0B2059
:1025FA00036EFF0E0C20046E800E0D1A106C105024
:10260A00D8A40AEF13F00CEF13F01CEF13F0010E2D
:10261A000126000E0222032204221CEF13F00550A9
:10262A00015E0650025A0750035A0850045A0150D4
:10263A00021003100410D8A425EF13F027EF13F0AB
:10264A005CEF13F01050D8A42DEF13F02FEF13F016
:10265A005CEF13F0000E016E000E026E000E036EA8
:10266A00000E046EF7EF13F0D890013602360336E7
:10267A00043610AE43EF13F045EF13F046EF13F0B4
:10268A00018010A04BEF13F04DEF13F051EF13F050
:10269A00D880103653EF13F0D89010360F50D8B4B4
:1026AA0059EF13F05BEF13F05CEF13F00F0603AE74
:1026BA0061EF13F063EF13F039EF13F0000E0E6EB3
:1026CA0010AE6AEF13F06CEF13F084EF13F010C042
:1026DA0009F07F0E0916D8B475EF13F077EF13F0EF
:1026EA007BEF13F0010E0E6E84EF13F001A080EF62
:1026FA0013F082EF13F084EF13F077EF13F00E501C
:10270A00D8B48AEF13F08CEF13F0B7EF13F0010E81
:10271A000126000E02220322042204A097EF13F0DE
:10272A0099EF13F0B7EF13F001C009F002C00AF0F5
:10273A0003C00BF004C00CF00C340C320B320A321A
:10274A00093209C001F00AC002F00BC003F00CC044
:10275A0004F00F28D8B4B4EF13F0B6EF13F0B7EFC4
:10276A0013F00F2A0F28D8B4BDEF13F0BFEF13F000
:10277A00C7EF13F00F50D8A4C5EF13F0C7EF13F04B
:10278A00D9EF13F0000E016E000E026E000E036EFA
:10279A00000E046E0F50D8A4D5EF13F0D7EF13F044
:1027AA00D9EF13F0000E0D6E0FA0DEEF13F0E0EF7D
:1027BA0013F0E3EF13F0038EE4EF13F0039ED890C7
:1027CA000F30046E0DAEECEF13F0EEEF13F0EFEFF7
:1027DA0013F0048E01C001F002C002F003C003F03E
:1027EA0004C004F012001450800B1D6E14501424FF
:1027FA00236E13AE03EF14F005EF14F006EF14F096
:10280A0023802350D8B40CEF14F00EEF14F021EF0C
:10281A0014F02328D8A414EF14F016EF14F01EEFC6
:10282A0014F0000E116E000E126E000E136E000EE2
:10283A00146E138E29EF14F0000E116E000E126E34
:10284A00000E136E000E146E1850800B1D1A1850CD
:10285A001824226E17AE34EF14F036EF14F037EF67
:10286A0014F022802250D8B43DEF14F03FEF14F058
:10287A0052EF14F02228D8A445EF14F047EF14F0D1
:10288A004FEF14F0000E156E000E166E000E176E46
:10289A00000E186E178E5AEF14F0000E156E000E09
:1028AA00166E000E176E000E186E2250D8B460EF26
:1028BA0014F062EF14F06AEF14F02350D8A468EF12
:1028CA0014F06AEF14F074EF14F0000E116E000E9B
:1028DA00126E000E136E000E146E0CEF16F01750E7
:1028EA001102F3CF28F0F4CF29F028501E6E1F6A88
:1028FA00206A216A2950246E256A266A276A165098
:10290A001202F3CF28F0F4CF29F028501E26000E29
:10291A001F222022212229502426000E2522262287
:10292A00272215501302F3CF28F0F4CF29F02850AC
:10293A001E26000E1F222022212229502426000EA4
:10294A0025222622272220C021F01FC020F01EC0E7
:10295A001FF01E6A15501202F3CF28F0F4CF29F0A7
:10296A0028501E2629501F22000E2022000E212246
:10297A0016501102F3CF28F0F4CF29F028501E2662
:10298A0029501F22000E2022000E212220C021F0F1
:10299A001FC020F01EC01FF01E6A15501102F3CF8F
:1029AA0028F0F4CF29F028501E2629501F22000EA5
:1029BA002022000E212217501202F3CF28F0F4CF62
:1029CA0029F02850242629502522000E2622000EFE
:1029DA00272216501302F3CF28F0F4CF29F02850FB
:1029EA00242629502522000E2622000E27221750BF
:1029FA001302F3CF28F0F4CF29F02850196E29508A
:102A0A001A6E1B6A1C6A1BC01CF01AC01BF019C084
:102A1A001AF0196A195024261A5025221B50262208
:102A2A001C5027221EC019F01FC01AF020C01BF02C
:102A3A0021C01CF0190E27EF15F0D8901C321B325A
:102A4A001A321932E82E22EF15F0195024261A509C
:102A5A0025221B5026221C50272220C021F01FC0ED
:102A6A0020F01EC01FF01E6A225023C019F01A6AF5
:102A7A001926000E1A22820E1924286EFF0E1A2019
:102A8A00296E5DEF15F0D89024362536263627367E
:102A9A0021AE52EF15F054EF15F055EF15F02480E2
:102AAA00D8901E361F36203621362806D8A0290689
:102ABA0026AE62EF15F064EF15F048EF15F0000E40
:102ACA00226E21AE6BEF15F06DEF15F091EF15F058
:102ADA00FF0E1E14196EFF0E1F141A6EFF0E20141D
:102AEA001B6E7F0E21141C6E19501A101B101C101D
:102AFA00D8B482EF15F084EF15F088EF15F0010EC7
:102B0A00226E91EF15F024A08DEF15F08FEF15F0DE
:102B1A0091EF15F084EF15F02250D8B497EF15F025
:102B2A0099EF15F0BDEF15F0010E2426000E2522AF
:102B3A002622272227A0A4EF15F0A6EF15F0BDEF55
:102B4A0015F024C019F025C01AF026C01BF027C0C2
:102B5A001CF01C341C321B321A32193219C024F0F0
:102B6A001AC025F01BC026F01CC027F0284A292AC3
:102B7A0029BEC8EF15F0295008E12828D8A0C8EFC7
:102B8A0015F0CAEF15F0D4EF15F0000E246E000E02
:102B9A00256E800E266E7F0E276E02EF16F029BE76
:102BAA00E1EF15F0295006E12804D8B0DFEF15F05F
:102BBA00E1EF15F0EDEF15F0000E246E000E256E14
:102BCA00000E266E000E276E000E1D6E02EF16F026
:102BDA0028C023F0FF0E2416FF0E25167F0E261698
:102BEA00000E271623A0FCEF15F0FEEF15F0FFEFFD
:102BFA0015F0268ED8902330276E1D50271224C038
:102C0A0011F025C012F026C013F027C014F01200EC
:102C1A00B2EC2BF0E5EC2BF091EC28F066EC2BF003
:102C2A00000E026EC80E016E90EC25F08792819814
:102C3A00869E86840E01B4957F8279887E8E000EE8
:102C4A000101716F010E726F010E736FAA0E766F1A
:102C5A000F0E776FA60E786F0F0E796F000E756FD5
:102C6A00C80E746F000E686F010E696F010E6A6FED
:102C7A00250E6D6F0F0E6E6F210E6F6F0F0E706F38
:102C8A00000E6C6FC80E6B6F000EE76F000EE66FDA
:102C9A00000EEB6F000EEA6F8EB456EF16F058EF87
:102CAA0016F051EF16F0710E196E010E1A6E680EBB
:102CBA001B6E010E1C6EB6EC27F07A0E0C6E010E1E
:102CCA000D6E2DEC27F07A0E4B6E010E4C6E5C0EDB
:102CDA004D6E010E4E6EBEEC19F0010181BF7FEF01
:102CEA0016F0980E805D080E8159D8A07FEF16F075
:102CFA0081EF16F0CCEF17F0710E196E010E1A6EF5
:102D0A00680E1B6E010E1C6EB6EC27F0710E146E67
:102D1A00010E156E680E166E010E176E52EC26F035
:102D2A00110E0001D26F3C0ED16FCB0EE82EFED7EA
:102D3A00D12FFCD7D22FFAD7D6EF16F07A0E4B6ED8
:102D4A00010E4C6E5C0E4D6E010E4E6E2DEC07F0B0
:102D5A004BC0E8F14CC0E9F10101EA51E81907E179
:102D6A00EB51E919D8A4BCEF16F0BEEF16F0C2EF8A
:102D7A0016F0E64BE72BC6EF16F0000EE76F000ED3
:102D8A00E66FE8C1EAF1E9C1EBF1050E0001D26F85
:102D9A000F0ED16FF10EE82EFED7D12FFCD7D22F0E
:102DAA00FAD70101E7BFE3EF16F0E75109E1140E84
:102DBA00E65DD8A0E3EF16F0E5EF16F0A3EF16F004
:102DCA00000EE76F000EE66F820E0001B06F010E73
:102DDA00B16F010EB26F0E0EB36F5CC1B4F05DC17C
:102DEA00B5F05EC1B6F05FC1B7F060C1B8F061C1BD
:102DFA00B9F062C1BAF063C1BBF064C1BCF065C18D
:102E0A00BDF066C1BEF067C1BFF080C1C0F081C12C
:102E1A00C1F0EAC1C2F0EBC1C3F068EC28F0820E3F
:102E2A00026E010E036E4EEC2BF00101EA05EB1166
:102E3A00D8A422EF17F024EF17F030EF17F0710E35
:102E4A001F6E010E206E680E216E010E226EF4ECCA
:102E5A002AF058EF16F0020EEA19EB11D8A438EF4F
:102E6A0017F03AEF17F046EF17F0710E1F6E010ECA
:102E7A00206E680E216E010E226E0CEC29F058EFBE
:102E8A0016F0030EEA19EB11D8A44EEF17F050EF23
:102E9A0017F05CEF17F0710E1F6E010E206E680EB0
:102EAA00216E010E226EBAEC28F058EF16F0040ECD
:102EBA00EA19EB11D8A464EF17F066EF17F072EF76
:102ECA0017F0710E1F6E010E206E680E216E010E34
:102EDA00226EFAEC26F058EF16F0050EEA19EB11FD
:102EEA00D8A47AEF17F07CEF17F088EF17F0710E7D
:102EFA001F6E010E206E680E216E010E226E13ECFB
:102F0A002BF058EF16F0060EEA19EB11D8A490EF41
:102F1A0017F092EF17F09EEF17F0710E1F6E010E69
:102F2A00206E680E216E010E226E35EC29F058EFE4
:102F3A0016F0070EEA19EB11D8A4A6EF17F0A8EFBE
:102F4A0017F0B4EF17F0710E1F6E010E206E680EA7
:102F5A00216E010E226EE3EC28F058EF16F00A0EED
:102F6A00EA19EB11D8A4BCEF17F0BEEF17F0CAEFBD
:102F7A0017F0710E196E010E1A6E680E1B6E010E95
:102F8A001C6ED4EC25F058EF16F058EF16F0820EAE
:102F9A000001B06F010EB16F2E0EB26F0E0EB36F3D
:102FAA007AC1B4F07BC1B5F07CC1B6F07DC1B7F08F
:102FBA007EC1B8F07FC1B9F080C1BAF081C1BBF05F
:102FCA0068EC28F0820E026E010E036E4EEC2BF0B6
:102FDA0058EF16F007EF00F03550800B426E35506F
:102FEA003524496E34AEFCEF17F0FEEF17F0FFEF11
:102FFA0017F049804950D8B405EF18F007EF18F0D8
:10300A001CEF18F04928D8A40DEF18F00FEF18F0AC
:10301A0017EF18F0000E326E000E336E000E346E8B
:10302A00000E356E348E000E356E24EF18F0000E49
:10303A00326E000E336E000E346E000E356E39504D
:10304A00800B421A395039244A6E38AE2FEF18F0E5
:10305A0031EF18F032EF18F04A804A50D8B438EFFE
:10306A0018F03AEF18F04FEF18F04A28D8A440EFBA
:10307A0018F042EF18F04AEF18F0000E366E000E04
:10308A00376E000E386E000E396E388E000E396EAD
:10309A0057EF18F0000E366E000E376E000E386EBF
:1030AA00000E396E3650371038103910D8A460EF38
:1030BA0018F062EF18F07AEF18F0000E326E000E78
:1030CA00336E000E346E000E356E800E34127F0E93
:1030DA0035124250351232C032F033C033F034C0A8
:1030EA0034F035C035F0BDEF19F04950D8A480EF5F
:1030FA0018F082EF18F08CEF18F0000E326E000E06
:10310A00336E000E346E000E356EBDEF19F04A5064
:10311A0049C03AF03B6A3A5E000E3B5A7F0E3A24A7
:10312A00436E000E3B20446E32C03EF033C03FF087
:10313A0034C040F035C041F0000E326E000E336EDE
:10314A00000E346E000E356E000E456E000E466E91
:10315A00000E476E000E486E000E4A6EEDEF18F034
:10316A004A50D8B4BBEF18F0BDEF18F0D4EF18F0FE
:10317A00D8903E363F3640364136D89032363336CE
:10318A003436353648AECCEF18F0CEEF18F0CFEF24
:10319A0018F03280D890453646364736483636508B
:1031AA003E5C37503F583850405839504158D8A0A3
:1031BA00E1EF18F0E3EF18F0ECEF18F0488C365016
:1031CA003E5E37503F5A3850405A3950415A4A2A7F
:1031DA00190E4A64F3EF18F0F5EF18F0B5EF18F08E
:1031EA003E503F1040104110D8B4FEEF18F000EFE7
:1031FA0019F018EF19F0458018EF19F0D890323607
:10320A0033363436353648AE0DEF19F00FEF19F074
:10321A0010EF19F03280D890453646364736483690
:10322A004306D8A0440634AE1DEF19F01FEF19F07B
:10323A0003EF19F0000E4A6E48AE26EF19F028EF98
:10324A0019F04CEF19F0FF0E45143A6EFF0E4614B2
:10325A003B6EFF0E47143C6E7F0E48143D6E3A508B
:10326A003B103C103D10D8B43DEF19F03FEF19F078
:10327A0043EF19F0010E4A6E4CEF19F032A048EFF5
:10328A0019F04AEF19F04CEF19F03FEF19F04A50D4
:10329A00D8B452EF19F054EF19F078EF19F0010E83
:1032AA003226000E33223422352235A05FEF19F080
:1032BA0061EF19F078EF19F032C03AF033C03BF001
:1032CA0034C03CF035C03DF03D343D323C323B32F7
:1032DA003A323AC032F03BC033F03CC034F03DC021
:1032EA0035F0434A442A44BE83EF19F0445008E1BA
:1032FA004328D8A083EF19F085EF19F090EF19F061
:10330A00000E446E4368000E326E000E336E000EDD
:10331A00346E000E356E44BE9DEF19F0445006E13E
:10332A004304D8B09BEF19F09DEF19F0ABEF19F0F9
:10333A00000E446E000E436E000E326E000E336EA7
:10334A00000E346E000E356E000E426E43C049F018
:10335A0049A0B2EF19F0B4EF19F0B7EF19F0348EB3
:10336A00B8EF19F0349ED8904930356E6EEF18F0E8
:10337A0012004BC0D9FF4CC0DAFFDECF01F0DDCF1F
:10338A0002F0000E02BEFF0E036E046E010E20EC68
:10339A001FF001C06CF002C06DF003C06EF004C0F3
:1033AA006FF020EE02F04B50D9264C50DA22DECFD5
:1033BA0001F0DDCF02F0000E02BEFF0E036E046EB6
:1033CA00010E20EC1FF001C070F002C071F003C0C2
:1033DA0072F004C073F020EE04F04B50D9264C5022
:1033EA00DA22DECF01F0DDCF02F0000E02BEFF0EC0
:1033FA00036E046E010E20EC1FF001C074F002C0CF
:10340A0075F003C076F004C077F020EE06F04B505A
:10341A00D9264C50DA22DECF01F0DDCF02F0000EC1
:10342A0002BEFF0E036E046E010E20EC1FF001C0F7
:10343A0060F002C061F003C062F004C063F070C0C3
:10344A0005F071C006F072C007F073C008F06CC0D6
:10345A0001F06DC002F06EC003F06FC004F098EC8A
:10346A0011F001C064F002C065F003C066F004C048
:10347A0067F074C005F075C006F076C007F077C033
:10348A0008F064C001F065C002F066C003F067C0CE
:10349A0004F098EC11F001C068F002C069F003C0B2
:1034AA006AF004C06BF06CC032F06DC033F06EC0CD
:1034BA0034F06FC035F060C005F061C006F062C03C
:1034CA0007F063C008F068C001F069C002F06AC082
:1034DA0003F06BC004F098EC11F001C036F002C0A2
:1034EA0037F003C038F004C039F0F1EC17F04DC0E2
:1034FA00D9FF4EC0DAFF32C0DEFF33C0DEFF34C070
:10350A00DEFF35C0DEFF70C005F071C006F072C084
:10351A0007F073C008F06CC001F06DC002F06EC015
:10352A0003F06FC004F098EC11F001C064F002C01F
:10353A0065F003C066F004C067F074C005F075C09A
:10354A0006F076C007F077C008F064C001F065C0E5
:10355A0002F066C003F067C004F098EC11F001C0F5
:10356A0068F002C069F003C06AF004C06BF074C06E
:10357A0032F075C033F076C034F077C035F060C0F1
:10358A0005F061C006F062C007F063C008F068C0C9
:10359A0001F069C002F06AC003F06BC004F098EC55
:1035AA0011F001C036F002C037F003C038F004C091
:1035BA0039F0F1EC17F020EE08F04D50D9264E50B4
:1035CA00DA2232C0DEFF33C0DEFF34C0DEFF35C090
:1035DA00DEFF70C005F071C006F072C007F073C05C
:1035EA0008F06CC001F06DC002F06EC003F06FC04D
:1035FA0004F098EC11F001C064F002C065F003C059
:10360A0066F004C067F074C005F075C006F076C0B5
:10361A0007F077C008F064C001F065C002F066C028
:10362A0003F067C004F098EC11F001C068F002C022
:10363A0069F003C06AF004C06BF070C032F071C068
:10364A0033F072C034F073C035F060C005F061C069
:10365A0006F062C007F063C008F068C001F069C0F4
:10366A0002F06AC003F06BC004F098EC11F001C0DC
:10367A0036F002C037F003C038F004C039F0F1EC7C
:10368A0017F020EE04F04D50D9264E50DA2232C0FF
:10369A00DEFF33C0DEFF34C0DEFF35C0DEFF1200BE
:1036AA0097C0D9FF98C0DAFFDECFF6FFDDCFF7FF6C
:1036BA00000EF86E0800F550250AD8A467EF1BF033
:1036CA0069EF1BF0C1EF1CF097C0D9FF98C0DAFF71
:1036DA00DE2A000EDD22000E0001F06F000EEF6FF1
:1036EA00EFC0F5F0F169F26997C0D9FF98C0DAFF27
:1036FA00DECFA6F0DDCFA7F0A6C0F6FFA7C0F7FF82
:10370A00000EF86E0800F550640AD8B48FEF1BF06B
:10371A0091EF1BF0A1EF1BF0A6C0F6FFA7C0F7FFC1
:10372A00000EF86E0800F550690AD8A49FEF1BF046
:10373A00A1EF1BF0E4EF1BF099C0D9FF9AC0DAFFA2
:10374A00DFCF9BF0020EDE26DFCF9CF0000EDD22DB
:10375A009BC0D9FF9CC0DAFFDECF9DF0DDCF9EF083
:10376A00000E9EBFFF0E9F6FA06FA16FA26FA36F87
:10377A00A46F010EA6259B6F000EA7219C6F97C010
:10378A00D9FF98C0DAFF9BC0DEFF9CC0DDFF95C061
:10379A001CF096C01DF09DC01EF09EC01FF09FC079
:1037AA0020F0A0C021F0A1C022F0A2C023F0A3C043
:1037BA0024F0A4C025F0D8EC1CF0D7EF1CF097C079
:1037CA00D9FF98C0DAFFDECFA6F0DDCFA7F0A6C0FA
:1037DA00F6FFA7C0F7FF000EF86E0800F5CFA5F0B8
:1037EA0003EF1CF0A64BA72B1CEF1CF06C0EA56F69
:1037FA001CEF1CF0000EA56F1CEF1CF0A5519B6F6F
:10380A009C6B9C51000AD8B40DEF1CF0FFEF1BF023
:10381A009B514C0AD8B4F7EF1BF02A0AD8B4FBEF35
:10382A001BF00A0AD8B4F7EF1BF0FFEF1BF0A6C093
:10383A00F6FFA7C0F7FF000EF86E0800F550660AFB
:10384A00D8A42AEF1CF02CEF1CF0B8EF1CF062EFA2
:10385A001CF099C0D9FF9AC0DAFFDFCF9BF0040EA3
:10386A00DE26DFCF9CF0000EDD229BC0D9FF9CC074
:10387A00DAFFDECF9DF0DECF9EF0DECF9FF0DECF07
:10388A00A0F077EF1CF099C0D9FF9AC0DAFFDFCF1A
:10389A009BF0040EDE26DFCF9CF0000EDD229BC0DB
:1038AA00D9FF9CC0DAFFDECF9DF0DECF9EF0DECFDF
:1038BA009FF0DECFA0F077EF1CF0A5519B6F9C6BB9
:1038CA009C51000AD8B46CEF1CF077EF1CF09B51A6
:1038DA004C0AD8B448EF1CF0200AD8B42EEF1CF0DA
:1038EA0077EF1CF0010EA6259B6F000EA7219C6F97
:1038FA0097C0D9FF98C0DAFF9BC0DEFF9CC0DDFFEE
:10390A00A0EF1CF095C060F096C061F09DC062F017
:10391A009EC063F09FC064F0A0C065F0A6C0F6FF29
:10392A00A7C0F7FF000EF86E0800F5CF66F09BEC13
:10393A000CF0D7EF1CF0A6C0F6FFA7C0F7FF000EE9
:10394A00F86E0800F5509B6F9C6B9C51000AD8B426
:10395A00B1EF1CF0B8EF1CF09B51660AD8B487EFA0
:10396A001CF0B8EF1CF097C0D9FF98C0DAFFDE2A26
:10397A00000EDD22D7EF1CF097C0D9FF98C0DAFFFE
:10398A00DECFF6FFDDCFF7FF000EF86E0800F55028
:10399A00016E026A95C003F096C004F0AAEC23F007
:1039AA00B8EF1CF012001EC034F01FC035F020C062
:1039BA0036F021C037F022C038F023C039F024C0D5
:1039CA003AF025C03BF03BBEEDEF1CF0F0EF1CF0E7
:1039DA00010EF1EF1CF0000E3E6E3E50D8B4F8EF27
:1039EA001CF0FAEF1CF00AEF1DF03B1E3A1E391EBE
:1039FA00381E371E361E351E346C000E352236220E
:103A0A003722382239223A223B220001F2BF18EF2C
:103A1A001DF0F25106E1F105D8B016EF1DF018EFCE
:103A2A001DF01EEF1DF0000E316E010E306E22EFFA
:103A3A001DF0F1C030F0F2C031F0EFC032F0F0C04A
:103A4A0033F03E50D8B42CEF1DF02EEF1DF045EFA9
:103A5A001DF03206D8A033063E50D8A437EF1DF029
:103A6A0039EF1DF03FEF1DF0000E2F6E2B0E2E6E5C
:103A7A0043EF1DF0000E2F6E2D0E2E6E2EC03EF05F
:103A8A00000E3D6E4F0E3C6E000E01015B6FCAEFD9
:103A9A001DF03C06D8A03D060C0E3C24D96E010E42
:103AAA003D20DA6E34C001F035C002F036C003F0B2
:103ABA0037C004F038C005F039C006F03AC007F044
:103ACA003BC008F00A0E096E000E0A6E000E0B6E5D
:103ADA00000E0C6E000E0D6E000E0E6E000E0F6EB6
:103AEA00000E106E74EC21F001C026F002C027F01F
:103AFA0003C028F004C029F005C02AF006C02BF044
:103B0A0007C02CF008C02DF026C013F027C014F00F
:103B1A00D4EC2AF01350300FDF6E3006D8A03106ED
:103B2A003206D8A0330634C001F035C002F036C0E0
:103B3A0003F037C004F038C005F039C006F03AC0C7
:103B4A0007F03BC008F00A0E096E000E0A6E000E5E
:103B5A000B6E000E0C6E000E0D6E000E0E6E000E39
:103B6A000F6E000E106EFAEC1FF001C034F002C0A6
:103B7A0035F003C036F004C037F005C038F006C08F
:103B8A0039F007C03AF008C03BF03DBED5EF1DF052
:103B9A003D5008E13C04D8A0D5EF1DF0D7EF1DF049
:103BAA00F3EF1DF034503510361037103810391035
:103BBA003A103B10D8A4E4EF1DF0E6EF1DF04EEFEB
:103BCA001DF031BEF3EF1DF0315006E13004D8B0DC
:103BDA00F1EF1DF0F3EF1DF04EEF1DF03E50D8B49B
:103BEA00F9EF1DF0FBEF1DF006EF1EF03C06D8A022
:103BFA003D060C0E3C24D96E010E3D20DA6E3EC005
:103C0A00DFFF1CC011F01DC012F00C0E3C24136E15
:103C1A00010E3D20146E32C015F033C016F015ECBB
:103C2A0026F01200E7C05BF0E8C05CF0E9C05DF086
:103C3A00EAC05EF04BC05BF04CC05CF04DC05DF07A
:103C4A004EC05EF0810E4F6EFF0E506E5BC051F09B
:103C5A005CC052F05DC053F05EC054F0180E3BEFEA
:103C6A001EF0D8905432533252325132E82E36EF87
:103C7A001EF051504F24596E000E50205A6E5ABEF3
:103C8A0050EF1EF05A5009E1170E595CD8A050EFB8
:103C9A001EF052EF1EF05CEF1EF04BC04BF04CC012
:103CAA004CF04DC04DF04EC04EF01FEF1FF05ABE03
:103CBA0061EF1EF063EF1EF0D3EF1EF059C04FF014
:103CCA00FF0E506EFF0E516E7F0E526E000E536E37
:103CDA004F6672EF1EF07AEF1EF0533453325232AF
:103CEA00513250324F2E6DEF1EF050C055F051C078
:103CFA0056F052C057F053C058F055505B144F6EEF
:103D0A0056505C14506E57505D14516E58505E14E4
:103D1A00526E4F50501051105210D8A497EF1EF007
:103D2A0099EF1EF09BEF1EF052EF1EF05BC04FF0B2
:103D3A005CC050F05DC051F05EC052F0200EABEF97
:103D4A001EF0D8905232513250324F32E82EA6EF3E
:103D5A001EF04F50501051105210D8B4B7EF1EF049
:103D6A00B9EF1EF0C1EF1EF055505B2656505C228B
:103D7A0057505D2258505E22551C4F6E561C506E8D
:103D8A00571C516E581C526E4F505B1650505C16A1
:103D9A0051505D1652505E1617EF1FF05BC04FF080
:103DAA005CC050F05DC051F05EC052F0200EE3EFEF
:103DBA001EF0D8905232513250324F32E82EDEEF96
:103DCA001EF04F50501051105210D8A4EFEF1EF0B1
:103DDA00F1EF1EF0FBEF1EF0000E5B6E000E5C6E44
:103DEA00000E5D6E000E5E6E17EF1FF0D8905B340A
:103DFA004F6E5C34506E5D34516E5E34526E4F506D
:103E0A00501051105210D8B40DEF1FF00FEF1FF0E1
:103E1A0017EF1FF0000E5B6E000E5C6E800E5D6E7B
:103E2A00BF0E5E6E5BC04BF05CC04CF05DC04DF0E7
:103E3A005EC04EF01200096E0950D8B427EF1FF089
:103E4A0029EF1FF04BEF1FF004BE30EF1FF02EEFEB
:103E5A001FF04BEF1FF001C005F002C006F003C0CF
:103E6A0007F004C008F0051E061E071E081E052AD4
:103E7A00000E06220722082205C00BF006C00CF02D
:103E8A0007C00DF008C00EF053EF1FF001C00BF091
:103E9A0002C00CF003C00DF004C00EF00150021075
:103EAA0003100410D8A45CEF1FF05EEF1FF068EF58
:103EBA001FF0000E016E000E026E000E036E000E61
:103ECA00046EF9EF1FF0960E0A6E72EF1FF00A2ABF
:103EDA00D8900E320D320C320B32000E0B14056ED6
:103EEA00000E0C14066E000E0D14076EFE0E0E1454
:103EFA00086E0550061007100810D8A487EF1FF0A7
:103F0A0089EF1FF06CEF1FF097EF1FF00A2A010EDE
:103F1A000B26000E0C220D220E22D8900E320D32E4
:103F2A000C320B32000E0B14056E000E0C14066ECA
:103F3A00000E0D14076EFF0E0E14086E05500610C3
:103F4A0007100810D8A4ACEF1FF0AEEF1FF08BEFEC
:103F5A001FF0B6EF1FF00A06D8900B360C360D3656
:103F6A000E360DBEBBEF1FF0BDEF1FF0C5EF1FF001
:103F7A00020E0A60C3EF1FF0C5EF1FF0B0EF1FF08B
:103F8A000AB0CAEF1FF0CCEF1FF0CDEF1FF00D9E65
:103F9A00D8900A320AC005F0066A076A086A05C09C
:103FAA0008F0076A066A056A05500B1206500C12D9
:103FBA0007500D1208500E120950D8B4E7EF1FF03F
:103FCA00E9EF1FF0F1EF1FF004BEF0EF1FF0EEEF84
:103FDA001FF0F1EF1FF00E8E0BC001F00CC002F0C3
:103FEA000DC003F00EC004F01200000E126E10BED7
:103FFA0003EF20F001EF20F015EF20F0101E0F1E46
:10400A000E1E0D1E0C1E0B1E0A1E096C000E0A2225
:10401A000B220C220D220E220F221022010E126EEA
:10402A0008BE1CEF20F01AEF20F02EEF20F0081E39
:10403A00071E061E051E041E031E021E016C000E2C
:10404A000222032204220522062207220822010E46
:10405A00121A20EE13F0070EDE6AE806FDE2095096
:10406A000A100B100C100D100E100F101010D8B4EF
:10407A0041EF20F043EF20F095EF20F0010E116E92
:10408A0051EF20F0D89009360A360B360C360D3629
:10409A000E360F361036112A10AE56EF20F058EFB2
:1040AA0020F047EF20F0D89013361436153616361E
:1040BA001736183619361A360950015C0A50025852
:1040CA000B5003580C5004580D5005580E50065802
:1040DA000F50075810500858D8A076EF20F078EF04
:1040EA0020F089EF20F00950015E0A50025A0B5065
:1040FA00035A0C50045A0D50055A0E50065A0F50C6
:10410A00075A1050085A1380D89010320F320E32C4
:10411A000D320C320B320A320932112E58EF20F0CE
:10412A001250D8B49BEF20F09DEF20F0ADEF20F0B5
:10413A001A1E191E181E171E161E151E141E136C83
:10414A00000E1422152216221722182219221A22C8
:10415A0013C001F014C002F015C003F016C004F039
:10416A0017C005F018C006F019C007F01AC008F009
:10417A00120020EE02F00E50D9260F50DA22DF503C
:10418A00D8B4CAEF20F0CCEF20F000EF21F00EC037
:10419A00D9FF0FC0DAFFDF50106E1050016E026AAD
:1041AA0020EE03F00E50D9260F50DA22DECF03F0AC
:1041BA00DDCF04F08FEC2BF001C007F002C008F04D
:1041CA00000E0A6E640E096E8DEC26F020EE03F0E6
:1041DA000E50D9260F50DA22DF50116E0750115CAB
:1041EA00126E20EE03F00E50D9260F50DA22DF505D
:1041FA00136E23EF21F0000E126E0EC0D9FF0FC00E
:10420A00DAFFDF50106E1050016E026A20EE03F0E2
:10421A000E50D9260F50DA22DECF03F0DDCF04F09C
:10422A008FEC2BF001C007F002C008F0000E0A6EF6
:10423A00640E096E8DEC26F00750136E20EE01F025
:10424A000E50D9260F50DA22DF50D8B42FEF21F0C2
:10425A0031EF21F053EF21F020EE05F00E50D92670
:10426A000F50DA22DECF10F0DDCF11F010C0D9FFE7
:10427A0011C0DAFF12C0DFFF20EE07F00E50D92678
:10428A000F50DA22DECF10F0DDCF11F010C0D9FFC7
:10429A0011C0DAFF13C0DFFF73EF21F020EE05F043
:1042AA000E50D9260F50DA22DECF10F0DDCF11F0F2
:1042BA0010C0D9FF11C0DAFF13C0DFFF20EE07F0EC
:1042CA000E50D9260F50DA22DECF10F0DDCF11F0D2
:1042DA0010C0D9FF11C0DAFF12C0DFFF1200000EB2
:1042EA00126E08BE7DEF21F07BEF21F08FEF21F0F7
:1042FA00081E071E061E051E041E031E021E016C52
:10430A00000E022203220422052206220722082284
:10431A00010E126E10BE96EF21F094EF21F0A6EF77
:10432A0021F0101E0F1E0E1E0D1E0C1E0B1E0A1E45
:10433A00096C000E0A220B220C220D220E220F22D9
:10434A00102209500A100B100C100D100E100F102D
:10435A001010D8B4B3EF21F0B5EF21F0FDEF21F042
:10436A00010E116EC3EF21F0D89009360A360B36CA
:10437A000C360D360E360F361036112A10AEC8EF2F
:10438A0021F0CAEF21F0B9EF21F00950015C0A507F
:10439A0002580B5003580C5004580D5005580E5033
:1043AA0006580F50075810500858D8A0DFEF21F0D0
:1043BA00E1EF21F0F1EF21F00950015E0A50025AB3
:1043CA000B50035A0C50045A0D50055A0E50065AF7
:1043DA000F50075A1050085AD89010320F320E3226
:1043EA000D320C320B320A320932112ECAEF21F089
:1043FA001250D8B403EF22F005EF22F015EF22F0A5
:10440A00081E071E061E051E041E031E021E016C40
:10441A00000E022203220422052206220722082273
:10442A0001C001F002C002F003C003F004C004F0AE
:10443A0005C005F006C006F007C007F008C008F07E
:10444A001200033404340A6E0A50D8A42FEF22F063
:10445A0031EF22F03BEF22F0000E016E000E026EE9
:10446A00000E036E000E046EA8EF22F001C005F0E4
:10447A0002C006F003C007F004C008F0200E4BEF9C
:10448A0022F0D8900832073206320532E82E46EF7B
:10449A0022F00550096E038EFF0E0116FF0E02165A
:1044AA00FF0E0316000E0416960E0A5E0ABE62EF8F
:1044BA0022F060EF22F078EF22F00A50800A970F7C
:1044CA00D8B06AEF22F06CEF22F06EEF22F031EFF3
:1044DA0022F0D89004320332023201320A3E6EEFE1
:1044EA0022F090EF22F01F0E0A647EEF22F080EF96
:1044FA0022F088EF22F031EF22F0D890013602360E
:10450A00033604360A060A50D8A48EEF22F090EF3A
:10451A0022F082EF22F00950D8B496EF22F098EFF9
:10452A0022F0A0EF22F0041E031E021E016C000EF0
:10453A0002220322042201C001F002C002F003C0D9
:10454A0003F004C004F01200000E2A14326E000EAA
:10455A002B14336E800E2C14346E7F0E2D14356E90
:10456A003250331034103510D8A4BEEF22F0C0EF09
:10457A0022F0C8EF22F0000E2A6E000E2B6E000EFB
:10458A002C6E000E2D6E000E2E14326E000E2F149D
:10459A00336E800E3014346E7F0E3114356E325005
:1045AA00331034103510D8A4DDEF22F0DFEF22F0FB
:1045BA00E7EF22F0000E2E6E000E2F6E000E306E08
:1045CA00000E316E2DAEECEF22F0EEEF22F0F7EF97
:1045DA0022F02A6C2B1ED8B02B2A2C1ED8B02C2ADB
:1045EA00800E2D5631AEFCEF22F0FEEF22F007EFDF
:1045FA0023F02E6C2F1ED8B02F2A301ED8B0302AA6
:10460A00800E3156000E2A1A000E2B1A000E2C1A92
:10461A00800E2D1A000E2E1A000E2F1A000E301AB6
:10462A00800E311A2E502A5C2F502B5830502C589D
:10463A0031502D58D8B024EF23F026EF23F029EF7C
:10464A0023F0D8902AEF23F0D8801200EBC00BF0A9
:10465A00ECC00CF0EDC00DF0EEC00EF001C00BF096
:10466A0002C00CF003C00DF004C00EF00BC005F040
:10467A000CC006F00DC007F00EC008F0180E4BEF84
:10468A0023F0D8900832073206320532E82E46EF78
:10469A0023F00550096E0A6A09500A10D8A458EF87
:1046AA0023F05AEF23F07AEF23F0D8900B34056EFB
:1046BA000C34066E0D34076E0E34086E0550061063
:1046CA0007100810D8A46CEF23F06EEF23F074EFF4
:1046DA0023F0000E026E020E016EA9EF23F0000E07
:1046EA00026E030E016EA9EF23F009280A10D8A45E
:1046FA0081EF23F083EF23F0A5EF23F00BC005F041
:10470A000CC006F00DC007F00EC008F0090ED890D4
:10471A000536063607360836E82E8CEF23F00550A4
:10472A00061007100810D8B49DEF23F0A0EF23F06D
:10473A00010EA1EF23F0000E016E026AA9EF23F029
:10474A00000E026E040E016E120003500410D8B45B
:10475A00B1EF23F0B3EF23F0BCEF23F003500410C2
:10476A00D8A4BAEF23F0BCEF23F0C1EF23F0015035
:10477A00E4EC2BF00EEF24F020EE09F00350D926DA
:10478A000450DA22DE50DE10D8B4CEEF23F0D0EF98
:10479A0023F0EBEF23F020EE09F00350D926045062
:1047AA00DA2210EE03F00350E1260450E222DE5032
:1047BA00E65CE650800A096EDE50800A0958D8B0D5
:1047CA00E9EF23F0EBEF23F00EEF24F020EE03F0F5
:1047DA000350D9260450DA22DECF05F0DDCF06F0E9
:1047EA0003C0D9FF04C0DAFFDECF07F0DDCF08F03F
:1047FA0005500724D96E06500820DA6E01C0DFFF83
:10480A0020EE03F00350D9260450DA22DE2A000EE5
:10481A00DD221200000E32143A6E000E33143B6E83
:10482A00800E34143C6E7F0E35143D6E3A503B10A8
:10483A003C103D10D8A424EF24F026EF24F02EEFEC
:10484A0024F0000E326E000E336E000E346E000E2F
:10485A00356E000E36143A6E000E37143B6E800E1B
:10486A0038143C6E7F0E39143D6E3A503B103C10A2
:10487A003D10D8A443EF24F045EF24F04DEF24F087
:10488A00000E366E000E376E000E386E000E396E50
:10489A00365032180FE1375033180CE138503418BB
:1048AA0009E139503518D8B45DEF24F05FEF24F0F0
:1048BA0062EF24F0D89063EF24F0D880120020EE43
:1048CA0001F01450D9261550DA22000EDF6E20EEC0
:1048DA0001F01650D9261750DA22010EDF6E96EF34
:1048EA0024F014C0D9FF15C0DAFF0A0EDF2616C05D
:1048FA00D9FF17C0DAFF0A0EDF2614C00EF015C062
:10490A000FF0BEEC20F016C00EF017C00FF0BEEC90
:10491A0020F0150E186EC60EE82EFED7182EFCD7FC
:10492A0000D014C0D9FF15C0DAFF460EDF60A0EF31
:10493A0024F0A2EF24F0AEEF24F016C0D9FF17C07E
:10494A00DAFF450EDF64ACEF24F0AEEF24F076EF29
:10495A0024F0120020EE01F01450D9261550DA2264
:10496A00010EDF6E20EE01F01650D9261750DA221A
:10497A00010EDF6EE1EF24F014C0D9FF15C0DAFF93
:10498A000A0EDF2616C0D9FF17C0DAFF0A0EDF2685
:10499A0014C00EF015C00FF0BEEC20F016C00EF0D9
:1049AA0017C00FF0BEEC20F0150E186EC60EE82EDA
:1049BA00FED7182EFCD700D014C0D9FF15C0DAFFD5
:1049CA00320EDF60EBEF24F0EDEF24F0F9EF24F084
:1049DA0016C0D9FF17C0DAFF310EDF64F7EF24F0F3
:1049EA00F9EF24F0C1EF24F0120020EE01F0145088
:1049FA00D9261550DA22010EDF6E20EE01F016508C
:104A0A00D9261750DA22000EDF6E2CEF25F014C0DB
:104A1A00D9FF15C0DAFF0A0EDF2616C0D9FF17C064
:104A2A00DAFF0A0EDF2614C00EF015C00FF0BEEC36
:104A3A0020F016C00EF017C00FF0BEEC20F0150ED5
:104A4A00186EC60EE82EFED7182EFCD700D014C05A
:104A5A00D9FF15C0DAFF460EDF6036EF25F038EFD2
:104A6A0025F044EF25F016C0D9FF17C0DAFF450E2E
:104A7A00DF6442EF25F044EF25F00CEF25F0120039
:104A8A0020EE01F01450D9261550DA22000EDF6EFE
:104A9A0020EE01F01650D9261750DA22000EDF6EEA
:104AAA0077EF25F014C0D9FF15C0DAFF0A0EDF260A
:104ABA0016C0D9FF17C0DAFF0A0EDF2614C00EF09F
:104ACA0015C00FF0BEEC20F016C00EF017C00FF0A4
:104ADA00BEEC20F0150E186EC60EE82EFED7182E64
:104AEA00FCD700D014C0D9FF15C0DAFF320EDF6040
:104AFA0081EF25F083EF25F08FEF25F016C0D9FF5F
:104B0A0017C0DAFF310EDF648DEF25F08FEF25F045
:104B1A0057EF25F01200050E0E01746F060E766F20
:104B2A00070E696F080E886F85948598839E879C07
:104B3A00BD508F0B3009BD6EE00EBE16BF50F00B94
:104B4A000109BF6E01C0BCFFBD8E000EAA6E000E29
:104B5A00A66E000E0F01256F000E216FFC0EAD161A
:104B6A00F30EAD16CF0EAD163F0EAD16AB88AB5099
:104B7A00F00B0C09AB6EAB8EA788A750F00B0C0993
:104B8A00A76EA78E26892651F00B0C09266F268F51
:104B9A0022892251F00B0C09226F228F120019C0B0
:104BAA0014F01AC015F01BC016F01CC017F045EC23
:104BBA0025F0290E1E6E960E1D6E7F0EE82EFED76C
:104BCA001D2EFCD71E2EFAD700F0710E146E010EA0
:104BDA00156E680E166E010E176E52EC26F019C08D
:104BEA0014F01AC015F01BC016F01CC017F0AFEC79
:104BFA0024F0290E1E6E960E1D6E7F0EE82EFED72D
:104C0A001D2EFCD71E2EFAD700F0710E146E010E5F
:104C1A00156E680E166E010E176E52EC26F0120013
:104C2A0016BE1AEF26F01CEF26F022EF26F015C06A
:104C3A001AF016C01BF026EF26F0000E1B6E000EAF
:104C4A001A6E000E196E000E186E38EF26F0000E5E
:104C5A00026E200E016E11C003F012C004F0AAEC1D
:104C6A0023F0184A192A1A50185C1950800A176E2C
:104C7A001B50800A1758D8A045EF26F047EF26F0B8
:104C8A002CEF26F013C00AF014C00BF011C00CF080
:104C9A0012C00DF091EC2AF0120074EF26F014C045
:104CAA00D9FF15C0DAFF0A0EDF5E16C0D9FF17C09A
:104CBA00DAFF0A0EDF5E14C00EF015C00FF0BEEC6C
:104CCA0020F016C00EF017C00FF0BEEC20F0150E43
:104CDA00186EC60EE82EFED7182EFCD700D014C0C8
:104CEA00D9FF15C0DAFFDF50D8A47EEF26F080EF97
:104CFA0026F054EF26F016C0D9FF17C0DAFFDF50AE
:104D0A00D8A48AEF26F08CEF26F054EF26F0120092
:104D1A00000E0C6E000E0B6E09500A10D8B498EFF4
:104D2A0026F09AEF26F0C2EF26F0010E0D6EA2EFE2
:104D3A0026F0D89009360A360D2A0AAEA7EF26F0D1
:104D4A00A9EF26F09EEF26F0D8900B360C360950C4
:104D5A00075C0A500858D8A0B5EF26F0B7EF26F03E
:104D6A00BCEF26F00950075E0A50085A0B80D8900B
:104D7A000A3209320D2EA9EF26F00BC007F00CC03B
:104D8A0008F0120004BED6EF26F0045003100210F9
:104D9A0006E10104D8B0D4EF26F0D6EF26F0F1EF01
:104DAA0026F001C005F002C006F003C007F004C0F7
:104DBA0008F0051E061E071E081E052A000E0622FA
:104DCA000722082205C001F006C002F007C003F05E
:104DDA0008C004F0F9EF26F001C001F002C002F0A9
:104DEA0003C003F004C004F01200710E196E010E24
:104DFA001A6E680E1B6E010E1C6E10EC28F0710EF6
:104E0A00196E010E1A6E680E1B6E010E1C6EE3EC13
:104E1A0027F0710E196E010E1A6E680E1B6E010EC6
:104E2A001C6EE3EC27F0710E196E010E1A6E680EF5
:104E3A001B6E010E1C6EE3EC27F0710E196E010E4B
:104E4A001A6E680E1B6E010E1C6EE3EC27F0120040
:104E5A00AEEC29F00CC0D9FF0DC0DAFF05C0DEFFA9
:104E6A0006C0DDFFFEEC29F020EE04F00C50D92636
:104E7A000D50DA2205C0DEFF06C0DDFFD6EC29F0B0
:104E8A0020EE02F00C50D9260D50DA2205C0DEFFC2
:104E9A0006C0DDFF86EC29F020EE06F00C50D9267C
:104EAA000D50DA2205C0DEFF06C0DDFF120019C070
:104EBA0014F01AC015F01BC016F01CC017F045EC10
:104ECA0025F0520E1E6E2B0E1D6E000EE82EFED71A
:104EDA001D2EFCD71E2EFAD700D0710E146E010EAD
:104EEA00156E680E166E010E176E52EC26F0520EF3
:104EFA001E6E2B0E1D6E000EE82EFED71D2EFCD741
:104F0A001E2EFAD700D0120019C014F01AC015F0DC
:104F1A001BC016F01CC017F064EC24F00B0E1E6EBA
:104F2A008E0E1D6E430EE82EFED71D2EFCD71E2EAA
:104F3A00FAD700F0710E146E010E156E680E166E19
:104F4A00010E176E52EC26F0520E1E6E2B0E1D6EBF
:104F5A00000EE82EFED71D2EFCD71E2EFAD700D043
:104F6A00120019C014F01AC015F01BC016F01CC0AC
:104F7A0017F0AFEC24F0290E1E6E960E1D6E7F0EF2
:104F8A00E82EFED71D2EFCD71E2EFAD700F0710E82
:104F9A00146E010E156E680E166E010E176E52EC27
:104FAA0026F0520E1E6E2B0E1D6E000EE82EFED738
:104FBA001D2EFCD71E2EFAD700D0120019C014F0ED
:104FCA001AC015F01BC016F01CC017F0FAEC24F03A
:104FDA000B0E1E6E8E0E1D6E430EE82EFED71D2E74
:104FEA00FCD71E2EFAD700F0710E146E010E156E44
:104FFA00680E166E010E176E52EC26F0520E1E6ED9
:10500A002B0E1D6E000EE82EFED71D2EFCD71E2E6F
:10501A00FAD700D0120019C014F01AC015F01BC03C
:10502A0016F01CC017F045EC25F0110E1E6E3C0E52
:10503A001D6ECB0EE82EFED71D2EFCD71E2EFAD7DC
:10504A0000F0710E146E010E156E680E166E010ECA
:10505A00176E52EC26F0520E1E6E2B0E1D6E000EAF
:10506A00E82EFED71D2EFCD71E2EFAD700D012002E
:10507A00AAC0AEF0ABC0AFF052EF28F0A8C095F0CE
:10508A00A9C096F0AE0E0001976F000E986FACC0E3
:10509A0099F0ADC09AF055EC1BF0AEC0F6FFAFC068
:1050AA00F7FF000EF86E0800F5500009D8A460EF6B
:1050BA0028F062EF28F043EF28F0000E0001A96FF4
:1050CA00000EA86F1200B40E0001C46F000EC56F67
:1050DA00B0C0C6F0B1C0C7F0000ECA6F000EC96FEB
:1050EA00000ED06F000ECF6FC60EA86F000EA96F0C
:1050FA00B2C0AAF0B3C0ABF0C40EAC6F000EAD6F75
:10510A003DEC28F00001C951B025D96ECA51B12130
:10511A00DA6E000EDF6E120066EC2BF0010E036EE3
:10512A00000EA2EC2BF03F0E056E550EE82EFED7B0
:10513A00052EFCD700F0030E036E000EA2EC2BF036
:10514A00D50E036E010EA2EC2BF0000E036E0F0EAD
:10515A00A2EC2BF087928198869E849684987F92FF
:10516A007E9E79987C967C981200710E196E010EBB
:10517A001A6E680E1B6E010E1C6E10EC28F0710E72
:10518A00196E010E1A6E680E1B6E010E1C6E5CEC17
:10519A0027F0710E196E010E1A6E680E1B6E010E43
:1051AA001C6EE3EC27F0710E196E010E1A6E680E72
:1051BA001B6E010E1C6EE3EC27F01200710E196EC5
:1051CA00010E1A6E680E1B6E010E1C6E10EC28F092
:1051DA00710E196E010E1A6E680E1B6E010E1C6E90
:1051EA005CEC27F0710E196E010E1A6E680E1B6EBA
:1051FA00010E1C6E89EC27F0710E196E010E1A6EE3
:10520A00680E1B6E010E1C6E89EC27F01200710EDF
:10521A00196E010E1A6E680E1B6E010E1C6E10ECD2
:10522A0028F0710E196E010E1A6E680E1B6E010EB1
:10523A001C6EE3EC27F0710E196E010E1A6E680EE1
:10524A001B6E010E1C6EE3EC27F0710E196E010E37
:10525A001A6E680E1B6E010E1C6EE3EC27F012002C
:10526A00710E196E010E1A6E680E1B6E010E1C6EFF
:10527A0010EC28F0710E196E010E1A6E680E1B6E74
:10528A00010E1C6E89EC27F0710E196E010E1A6E52
:10529A00680E1B6E010E1C6E89EC27F0710E196EDA
:1052AA00010E1A6E680E1B6E010E1C6E89EC27F039
:1052BA00120003C009F004C00AF001C007F002C0DE
:1052CA0008F078EF29F009C0D9FF0AC0DAFFDF50E9
:1052DA000B6E094A0A2A07C0D9FF08C0DAFF0BC0B9
:1052EA00DFFF074A082A0506D8A00606052806E1B0
:1052FA000628D8A483EF29F085EF29F068EF29F072
:10530A001200DDEC2BF0520ECDEC2BF0B40ECDECEE
:10531A002BF0D3EC2BF0530ECDEC2BF0010EB3ECAB
:10532A002AF0076E07500A6E0B6A000EB3EC2AF0D9
:10533A00076E0750096E086A0A5008100A6E0B5069
:10534A0009100B6ED8EC2BF00AC005F00BC006F062
:10535A001200DDEC2BF0520ECDEC2BF0B60ECDEC9C
:10536A002BF0D3EC2BF0530ECDEC2BF0010EB3EC5B
:10537A002AF0076E07500A6E0B6A000EB3EC2AF089
:10538A00076E0750096E086A0A5008100A6E0B5019
:10539A0009100B6ED8EC2BF00AC005F00BC006F012
:1053AA001200DDEC2BF0520ECDEC2BF0B80ECDEC4A
:1053BA002BF0D3EC2BF0530ECDEC2BF0010EB3EC0B
:1053CA002AF0076E07500A6E0B6A000EB3EC2AF039
:1053DA00076E0750096E086A0A5008100A6E0B50C9
:1053EA0009100B6ED8EC2BF00AC005F00BC006F0C2
:1053FA001200DDEC2BF0520ECDEC2BF0BA0ECDECF8
:10540A002BF0D3EC2BF0530ECDEC2BF0010EB3ECBA
:10541A002AF0076E07500A6E0B6A000EB3EC2AF0E8
:10542A00076E0750096E086A0A5008100A6E0B5078
:10543A0009100B6ED8EC2BF00AC005F00BC006F071
:10544A001200C40EF66E570EF76E000EF86E0900C3
:10545A00F5CFFAF00900F5CFFBF00900F5CFFCF023
:10546A0002EE00F03C0EEE6AE806FDE101EE00F005
:10547A00820EEE6AE806FDE100EED3F0270EEE6A30
:10548A00E806FDE15F905F9200010DEF16F0000E55
:10549A002E1A000E2F1A000E301A800E311A2AC048
:1054AA0001F02BC002F02CC003F02DC004F02EC076
:1054BA0005F02FC006F030C007F031C008F098ECB4
:1054CA0011F001C02AF002C02BF003C02CF004C076
:1054DA002DF0120003C005F004C006F001C007F069
:1054EA0002C008F005C0F6FF06C0F7FF054A062A03
:1054FA00000EF86E07C0D9FF08C0DAFF074A082A6B
:10550A000800F5CFDFFFDF50D8A48EEF2AF090EF26
:10551A002AF077EF2AF01200000E106E000E0F6EBE
:10552A00A2EF2AF00EC001F0026A0CC003F00DC00F
:10553A0004F0AAEC23F00F4A102A0F500A24D96E5D
:10554A0010500B20DA6EDF500E6E0E50D8A4B0EF5A
:10555A002AF0B2EF2AF097EF2AF01200036E7BECE2
:10556A002BF00E01DA877BEC2BF0D5CE04F07BEC26
:10557A002BF00350D8B4C4EF2AF0C8EF2AF0026A1D
:10558A00022AC9EF2AF0026A023A02460E01DA51E9
:10559A000218DF0B0218DA6FDA890450120014BEFF
:1055AA00E1EF2AF0145006E11304D8B0DFEF2AF035
:1055BA00E1EF2AF0EFEF2AF013C015F014C016F04D
:1055CA00151E161E154A162A15C013F016C014F019
:1055DA00F3EF2AF013C013F014C014F01200710E86
:1055EA00196E010E1A6E680E1B6E010E1C6E10ECFF
:1055FA0028F0710E196E010E1A6E680E1B6E010EDE
:10560A001C6EE3EC27F0710E196E010E1A6E680E0D
:10561A001B6E010E1C6EE3EC27F01200710E196E60
:10562A00010E1A6E680E1B6E010E1C6E10EC28F02D
:10563A00710E196E010E1A6E680E1B6E010E1C6E2B
:10564A0089EC27F0710E196E010E1A6E680E1B6E28
:10565A00010E1C6E89EC27F0120001500210031093
:10566A000410D8B43BEF2BF03DEF2BF045EF2BF0B5
:10567A00000E011A000E021A000E031A800E041AF6
:10568A0001C001F002C002F003C003F004C004F03C
:10569A00120059EF2BF002C0D9FF03C0DAFFDF5026
:1056AA00C1EC2BF0024A032A02C0D9FF03C0DAFF79
:1056BA00DF50D8A463EF2BF065EF2BF050EF2BF0FF
:1056CA0012000E01D951F00B0809D96FD98B9F0E20
:1056DA00D66F848A848CA79BA79D1D0E1D6F1E0EF4
:1056EA001C6F1C0E6F6F1B0E706F12000E01D8B567
:1056FA0081EF2BF083EF2BF07BEF2BF0DACE01F06A
:10570A001F0E0116D8A48CEF2BF08EEF2BF07BEF37
:10571A002BF0120001500302F3CF05F0F4CF06F08C
:10572A0001500402F350062602500302F3500626E3
:10573A0005C001F006C002F01200046EDDEC2BF089
:10574A00520ECDEC2BF004508009CDEC2BF0035017
:10575A00CDEC2BF0D8EC2BF01200120E0E01626F7A
:10576A00110E156FE997E895330EE56F000EE66F97
:10577A00E789E88BE78F1200016E0E0137A5C8EFA3
:10578A002BF0CAEF2BF0C2EF2BF001C0E4FE12009F
:10579A00026E7BEC2BF002C0D5FE12007BEC2BF0E4
:1057AA000E01DA8312007BEC2BF00E01DA8512006F
:0D57BA007BEC2BF00E01DA811200E80301F8
:0457C80012001200B9
:020000040020DA
:10000000FF0FFF0FFF0FFF0FFF0FFF0FFF0FFF0F80
:020000040030CA
:0C000000AAFFFFFF9FFFFFFFFFFFFFFFB5
:00000001FF
