:040000001AEF00F003
:100008005F820E0133AB0BEF00F00DEF00F018EF3D
:1000180000F0000ED46E000ED36E000E0101196FB1
:10002800010E186F0E01339B5F921100BFEF2DF088
:100E0000007265643D256620677265656E3D2566E6
:100E100020626C75653D2566206C756D3D256420EE
:100E200061637475616C5F636F6C6F75723D25648F
:0D0E3000200D0A00696E66006E616E000004
:100E3E00000E0001726F000E736F000E746F000EC5
:100E4E00756F000E766F500E776FC30E786F470E6C
:100E5E00796F000E656F040E646F20EE66F00B0E58
:100E6E00DE6AE806FDE24BC0D9FF4CC0DAFFDECFEA
:100E7E0001F0DDCF02F0000E02BEFF0E036E046E17
:100E8E00010ED3EC21F001C066F002C067F003C082
:100E9E0068F004C069F020EE02F04B50D9264C5099
:100EAE00DA22DECF01F0DDCF02F0000E02BEFF0E21
:100EBE00036E046E010ED3EC21F001C06AF002C085
:100ECE006BF003C06CF004C06DF020EE04F04B50DC
:100EDE00D9264C50DA22DECF01F0DDCF02F0000E23
:100EEE0002BEFF0E036E046E010ED3EC21F001C0A4
:100EFE006EF002C06FF003C070F004C071F0000E0F
:100F0E0000017B6F000E7A6F72C02AF073C02BF057
:100F1E0074C02CF075C02DF0660E4F6E000E506E24
:100F2E00D8907A35D96E7B35DA6ED890D936DA36D6
:100F3E004F50D9265050DA22DECF2EF0DECF2FF0D2
:100F4E00DECF30F0DECF31F05CEC25F0D8B0B2EF72
:100F5E0007F0B4EF07F0D1EF07F0660E4F6E000EFC
:100F6E00506ED89000017A35D96E7B35DA6ED890F6
:100F7E00D936DA364F50D9265050DA22DECF72F0FB
:100F8E00DECF73F0DECF74F0DECF75F07AC064F092
:100F9E007BC065F0660E4F6E000E506ED89000014D
:100FAE007A35D96E7B35DA6ED890D936DA364F501F
:100FBE00D9265050DA22DECF2AF0DECF2BF0DECF4C
:100FCE002CF0DECF2DF076C02EF077C02FF078C04B
:100FDE0030F079C031F05CEC25F0D8B0F9EF07F0C5
:100FEE00FBEF07F014EF08F0660E4F6E000E506E1A
:100FFE00D89000017A35D96E7B35DA6ED890D93615
:10100E00DA364F50D9265050DA22DECF76F0DECFC8
:10101E0077F0DECF78F0DECF79F000017A4B7B2BC4
:10102E007BBF23EF08F07B5109E1030E7A5DD8A058
:10103E0023EF08F025EF08F08BEF07F076C02EF0C7
:10104E0077C02FF078C030F079C031F072C02AF03E
:10105E0073C02BF074C02CF075C02DF034EC2EF054
:10106E002AC032F02BC033F02CC034F02DC035F036
:10107E00000E366E000E376E000E386E000E396E94
:10108E00CDEC27F0D8A04EEF08F050EF08F056EF59
:10109E0008F0000E4C6E000E4B6E39EF0CF0000196
:1010AE0064516511D8A45EEF08F060EF08F0D4EF3C
:1010BE0008F076C02EF077C02FF078C030F079C0EF
:1010CE0031F072C02AF073C02BF074C02CF075C0D2
:1010DE002DF034EC2EF02AC036F02BC037F02CC099
:1010EE0038F02DC039F06EC02EF06FC02FF070C0EA
:1010FE0030F071C031F06AC02AF06BC02BF06CC0BA
:10110E002CF06DC02DF034EC2EF02AC032F02BC036
:10111E0033F02CC034F02DC035F044EC18F032C052
:10112E0011F033C012F034C013F035C014F0000EBD
:10113E00156E000E166E700E176E420E186E2FEC98
:10114E0016F011C07CF012C07DF013C07EF014C0FA
:10115E007FF000017FBFB8EF08F0B6EF08F0B3EFF5
:10116E0009F07CC001F07DC002F07EC003F07FC0AC
:10117E0004F0000E056E000E066EB40E076E430EE2
:10118E00086ECFEC13F001C07CF002C07DF003C0FE
:10119E007EF004C07FF0B3EF09F064056511D8A4AA
:1011AE00DBEF08F0DDEF08F049EF09F076C02EF026
:1011BE0077C02FF078C030F079C031F072C02AF0CD
:1011CE0073C02BF074C02CF075C02DF034EC2EF0E3
:1011DE002AC036F02BC037F02CC038F02DC039F0B5
:1011EE0066C02EF067C02FF068C030F069C031F0D5
:1011FE006EC02AF06FC02BF070C02CF071C02DF0B5
:10120E0034EC2EF02AC032F02BC033F02CC034F068
:10121E002DC035F044EC18F032C060F033C061F0F0
:10122E0034C062F035C063F0000E056E000E066E1F
:10123E00000E076E400E086E60C001F061C002F035
:10124E0062C003F063C004F0CFEC13F001C011F0E4
:10125E0002C012F003C013F004C014F0000E156E9D
:10126E00000E166E700E176E420E186E2FEC16F0E4
:10127E0011C07CF012C07DF013C07EF014C07FF060
:10128E00B3EF09F076C02EF077C02FF078C030F0B3
:10129E0079C031F072C02AF073C02BF074C02CF0FC
:1012AE0075C02DF034EC2EF02AC036F02BC037F07E
:1012BE002CC038F02DC039F06AC02EF06BC02FF064
:1012CE006CC030F06DC031F066C02AF067C02BF0F4
:1012DE0068C02CF069C02DF034EC2EF02AC032F02C
:1012EE002BC033F02CC034F02DC035F044EC18F088
:1012FE0032C060F033C061F034C062F035C063F0CC
:10130E00000E056E000E066E800E076E400E086E05
:10131E0060C001F061C002F062C003F063C004F06F
:10132E00CFEC13F001C011F002C012F003C013F0A5
:10133E0004C014F0000E156E000E166E700E176EB1
:10134E00420E186E2FEC16F011C07CF012C07DF01C
:10135E0013C07EF014C07FF07CC02AF07DC02BF04D
:10136E007EC02CF07FC02DF0000E2E6E000E2F6E64
:10137E00A50E306E430E316E5CEC25F0D8A0CAEF90
:10138E0009F0CCEF09F0EBEF09F0000E2A6E000E1B
:10139E002B6EB40E2C6E430E2D6E7CC02EF07DC0C7
:1013AE002FF07EC030F07FC031F05CEC25F0D8A07D
:1013BE00E3EF09F0E5EF09F0EBEF09F0000E4C6EEC
:1013CE00010E4B6E39EF0CF07CC02AF07DC02BF075
:1013DE007EC02CF07FC02DF0000E2E6E000E2F6EF4
:1013EE00A00E306E400E316E5CEC25F0D8A002EFF0
:1013FE000AF004EF0AF023EF0AF0000E2A6E000E38
:10140E002B6E300E2C6E410E2D6E7CC02EF07DC0DC
:10141E002FF07EC030F07FC031F05CEC25F0D8A00C
:10142E001BEF0AF01DEF0AF023EF0AF0000E4C6ED0
:10143E00020E4B6E39EF0CF07CC02AF07DC02BF003
:10144E007EC02CF07FC02DF0000E2E6E000E2F6E83
:10145E00900E306E410E316E5CEC25F0D8A03AEF56
:10146E000AF03CEF0AF0DBEF0AF0000E2A6E000ED7
:10147E002B6EC80E2C6E410E2D6E7CC02EF07DC0D4
:10148E002FF07EC030F07FC031F05CEC25F0D8A09C
:10149E0053EF0AF055EF0AF0DBEF0AF0B80E2A6EA2
:1014AE001E0E2B6E850E2C6E3E0E2D6E4DC0D9FF70
:1014BE004EC0DAFFDECF2EF0DECF2FF0DECF30F0D3
:1014CE00DECF31F05CEC25F0D8A070EF0AF072EFB1
:1014DE000AF093EF0AF0CD0E2A6ECC0E2B6ECC0EC8
:1014EE002C6E3D0E2D6E20EE08F04D50D9264E502E
:1014FE00DA22DECF2EF0DECF2FF0DECF30F0DECFD1
:10150E0031F05CEC25F0D8B08FEF0AF091EF0AF0D5
:10151E0093EF0AF050EF08F04DC0D9FF4EC0DAFF3E
:10152E00DECF2AF0DECF2BF0DECF2CF0DECF2DF08B
:10153E00B80E2E6E1E0E2F6E850E306E3E0E316E56
:10154E005CEC25F0D8A0AEEF0AF0B0EF0AF0D5EFC4
:10155E000AF020EE08F04D50D9264E50DA22DECF9A
:10156E002AF0DECF2BF0DECF2CF0DECF2DF0CD0E1D
:10157E002E6ECC0E2F6ECC0E306E3D0E316E5CECA0
:10158E0025F0D8B0CDEF0AF0CFEF0AF0D5EF0AF084
:10159E00000E4C6E030E4B6E39EF0CF0000E4C6EBF
:1015AE000A0E4B6E39EF0CF07CC02AF07DC02BF08A
:1015BE007EC02CF07FC02DF0000E2E6E000E2F6E12
:1015CE00AA0E306E420E316E5CEC25F0D8A0F2EF12
:1015DE000AF0F4EF0AF013EF0BF0000E2A6E000E75
:1015EE002B6E200E2C6E430E2D6E7CC02EF07DC009
:1015FE002FF07EC030F07FC031F05CEC25F0D8A02B
:10160E000BEF0BF00DEF0BF013EF0BF0000E4C6E1B
:10161E00040E4B6E39EF0CF07CC02AF07DC02BF01F
:10162E007EC02CF07FC02DF0000E2E6E000E2F6EA1
:10163E00700E306E420E316E5CEC25F0D8A02AEFA3
:10164E000BF02CEF0BF0CDEF0BF0000E2A6E000E10
:10165E002B6E9A0E2C6E420E2D6E7CC02EF07DC01F
:10166E002FF07EC030F07FC031F05CEC25F0D8A0BA
:10167E0043EF0BF045EF0BF0CDEF0BF020EE08F043
:10168E004D50D9264E50DA22DECF2AF0DECF2BF087
:10169E00DECF2CF0DECF2DF08F0E2E6EC20E2F6E03
:1016AE00F50E306E3D0E316E5CEC25F0D8A062EF7B
:1016BE000BF064EF0BF089EF0BF020EE04F04D50C1
:1016CE00D9264E50DA22DECF2AF0DECF2BF0DECF37
:1016DE002CF0DECF2DF03D0E2E6E0A0E2F6E570E15
:1016EE00306E3E0E316E5CEC25F0D8B081EF0BF013
:1016FE0083EF0BF089EF0BF0000E4C6E060E4B6E67
:10170E0039EF0CF020EE08F04D50D9264E50DA226B
:10171E00DECF2AF0DECF2BF0DECF2CF0DECF2DF099
:10172E008F0E2E6EC20E2F6EF50E306E3D0E316E7A
:10173E005CEC25F0D8B0A6EF0BF0A8EF0BF0D5EFD0
:10174E000AF03D0E2A6E0A0E2B6E570E2C6E3E0EB2
:10175E002D6E20EE04F04D50D9264E50DA22DECFFB
:10176E002EF0DECF2FF0DECF30F0DECF31F05CEC9E
:10177E0025F0D8B0C5EF0BF0C7EF0BF0D5EF0AF0A0
:10178E00000E4C6E050E4B6E39EF0CF07CC02AF03D
:10179E007DC02BF07EC02CF07FC02DF0000E2E6E83
:1017AE00000E2F6E400E306E410E316E5CEC25F049
:1017BE00D8A0E4EF0BF0E6EF0BF005EF0CF0000E07
:1017CE002A6E000E2B6E880E2C6E410E2D6E7CC076
:1017DE002EF07DC02FF07EC030F07FC031F05CEC7B
:1017EE0025F0D8A0FDEF0BF0FFEF0BF005EF0CF09E
:1017FE00000E4C6E070E4B6E39EF0CF07CC02AF0CB
:10180E007DC02BF07EC02CF07FC02DF0000E2E6E12
:10181E00000E2F6EB00E306E410E316E5CEC25F068
:10182E00D8A01CEF0CF01EEF0CF0D5EF0AF0000E56
:10183E002A6E000E2B6EC00E2C6E410E2D6E7CC0CD
:10184E002EF07DC02FF07EC030F07FC031F05CEC0A
:10185E0025F0D8A035EF0CF037EF0CF0D5EF0AF0ED
:10186E0050EF08F01200000E00018A6F62C08DF07A
:10187E0063C08EF064C08FF065C090F090BF4CEFE7
:10188E000CF04AEF0CF060EF0CF0010E8A6F8DC079
:10189E0001F08EC002F08FC003F090C004F01AEC7D
:1018AE002FF001C08DF002C08EF003C08FF004C087
:1018BE0090F0000E00018C6F000E8B6FE7C07AF077
:1018CE00E8C07BF08A51D8B46FEF0CF071EF0CF0DA
:1018DE0085EF0CF08A51D8A477EF0CF079EF0CF06D
:1018EE007FEF0CF0000E706F2B0E6F6F83EF0CF00E
:1018FE00000E706F2D0E6F6F6FC08AF08DC001F0ED
:10190E008EC002F08FC003F090C004F0DEEC25F024
:10191E0001040210D8A496EF0CF098EF0CF0CBEF68
:10192E000CF000018A51D8B49FEF0CF0A1EF0CF02F
:10193E00AAEF0CF08AC0A0F27A07D8A07B07000E9F
:10194E008C6F010E8B6FA00E8B25016E020E8C21FB
:10195E00026E340E036E0E0E046E57EC2EF0000166
:10196E00FD0E7A27FF0E7B2360C011F061C012F0CE
:10197E00A00E136E020E146E7AC015F07BC016F018
:10198E00E1EC29F036EF11F08DC001F08EC002F0BF
:10199E008FC003F090C004F0DEEC25F00150021071
:1019AE00D8A4DCEF0CF0DEEF0CF0FEEF0CF0000133
:1019BE008A51D8B4E5EF0CF0E7EF0CF0F0EF0CF035
:1019CE008AC0A0F27A07D8A07B07000E8C6F010E9A
:1019DE008B6FA00E8B25016E020E8C21026E380EBF
:1019EE00036E0E0E046E57EC2EF0B6EF0CF0000EDA
:1019FE000001916F000E926F800E936F3F0E946FE9
:101A0E00000E796F000E786F8DC032F08EC033F0FD
:101A1E008FC034F090C035F0000E366E000E376E6B
:101A2E00000E386E000E396ECDEC27F0D8B022EFD6
:101A3E000DF024EF0DF003EF0EF031EF0DF07CC042
:101A4E0091F07DC092F07EC093F07FC094F00001C3
:101A5E00784B792B91C011F092C012F093C013F015
:101A6E0094C014F0000E156E000E166E200E176E3A
:101A7E00410E186E2FEC16F011C07CF012C07DF0E6
:101A8E0013C07EF014C07FF000017C518D5D016E9D
:101A9E007D518E59026E7E518F59036E7F51905932
:101AAE00046E8DEC2AF004BE68EF0DF004500310A6
:101ABE00021009E1020E015CD8A068EF0DF06AEF8A
:101ACE000DF026EF0DF07CC02AF07DC02BF07EC00D
:101ADE002CF07FC02DF08DC02EF08EC02FF08FC059
:101AEE0030F090C031F05CEC25F0D8A081EF0DF015
:101AFE0083EF0DF026EF0DF0000191518D5D016E1B
:101B0E0092518E59026E93518F59036E9451905982
:101B1E00046E8DEC2AF004BEA2EF0DF004500310FB
:101B2E00021007E1020E015CD8B0A0EF0DF0A2EF9B
:101B3E000DF0EAEF0DF091C08DF092C08EF093C0D3
:101B4E008FF094C090F003EF0EF091C032F092C07F
:101B5E0033F093C034F094C035F0000E366E000EA4
:101B6E00376E200E386E410E396E44EC18F032C0CE
:101B7E0091F033C092F034C093F035C094F0000170
:101B8E007807D8A0790791518D5D016E92518E59CB
:101B9E00026E93518F59036E94519059046E8DECD1
:101BAE002AF004BEE8EF0DF004500310021007E116
:101BBE00020E015CD8B0E6EF0DF0E8EF0DF0EAEFA3
:101BCE000DF0A2EF0DF08DC02AF08EC02BF08FC05D
:101BDE002CF090C02DF091C02EF092C02FF093C03B
:101BEE0030F094C031F05CEC25F0D8A001EF0EF08F
:101BFE0003EF0EF0ACEF0DF066C072F072C073F032
:101C0E000001EABF0DEF0EF00FEF0EF015EF0EF024
:101C1E00E9C06BF0EAC06CF019EF0EF0000E6C6FBD
:101C2E00060E6B6F6BC076F06CC077F0764B772B31
:101C3E00660E7319D8A426EF0EF028EF0EF048EFBB
:101C4E000EF079BF2FEF0EF02DEF0EF03BEF0EF0F2
:101C5E00000E916F000E926F800E936F3F0E946F79
:101C6E00000E796F000E786F670E7219D8B442EFBE
:101C7E000EF044EF0EF048EF0EF0785176277951C2
:101C8E007723000E816F000E806F8DC082F08EC0A4
:101C9E0083F08FC084F090C085F091C07CF092C02C
:101CAE007DF093C07EF094C07FF0D9EF0EF082C02D
:101CBE0032F083C033F084C034F085C035F091C06B
:101CCE0036F092C037F093C038F094C039F044EC3F
:101CDE0018F032C04BF033C04CF034C04DF035C06C
:101CEE004EF0DAEC1FF04BC086F04CC087F04DC0C2
:101CFE0088F04EC089F086C001F087C002F088C01F
:101D0E0003F089C004F0D9EC24F001C074F002C0D5
:101D1E0075F082C02AF083C02BF084C02CF085C0F1
:101D2E002DF086C015F087C016F088C017F089C058
:101D3E0018F091C011F092C012F093C013F094C03D
:101D4E0014F02FEC16F011C02EF012C02FF013C0AD
:101D5E0030F014C031F034EC2EF02AC082F02BC0DB
:101D6E0083F02CC084F02DC085F091C032F092C06B
:101D7E0033F093C034F094C035F0000E366E000E82
:101D8E00376E200E386E410E396E44EC18F032C0AC
:101D9E0091F033C092F034C093F035C094F000014E
:101DAE00804B812B7651805D8151800A676F775110
:101DBE00800A6759D8A0E6EF0EF0E8EF0EF05EEF5E
:101DCE000EF091C011F092C012F093C013F094C0B7
:101DDE0014F0000E156E000E166EA00E176E400E4D
:101DEE00186E2FEC16F011C086F012C087F013C0DB
:101DFE0088F014C089F082C02AF083C02BF084C012
:101E0E002CF085C02DF086C02EF087C02FF088C034
:101E1E0030F089C031F05CEC25F0D8B019EF0FF03E
:101E2E001BEF0FF026EF0FF0000E0001866F000E75
:101E3E00876F000E886F000E896F4FEF0FF082C014
:101E4E0032F083C033F084C034F085C035F086C0E4
:101E5E0036F087C037F088C038F089C039F0CDEC45
:101E6E0027F0D8A03DEF0FF03FEF0FF04FEF0FF040
:101E7E00000174B145EF0FF047EF0FF04FEF0FF089
:101E8E00000E866F000E876F000E886F000E896F32
:101E9E008DC001F08EC002F08FC003F090C004F030
:101EAE0086C005F087C006F088C007F089C008F02C
:101EBE00CFEC13F001C082F002C083F003C084F0B7
:101ECE0004C085F082C02AF083C02BF084C02CF0B1
:101EDE0085C02DF0000E156E000E166E200E176EBC
:101EEE00410E186E7CC011F07DC012F07EC013F052
:101EFE007FC014F02FEC16F011C02EF012C02FF090
:101F0E0013C030F014C031F05CEC25F0D8A092EF85
:101F1E000FF094EF0FF0BDEF0FF00001784B792B1F
:101F2E007CC011F07DC012F07EC013F07FC014F0A3
:101F3E00000E156E000E166E200E176E410E186EE8
:101F4E002FEC16F011C07CF012C07DF013C07EF0A5
:101F5E0014C07FF0660E00017319D8A4B9EF0FF00C
:101F6E00BBEF0FF0BDEF0FF0764B772B7CC091F0EF
:101F7E007DC092F07EC093F07FC094F078C069F07F
:101F8E0079C06AF0000E0001716F000E6E6F000EC8
:101F9E006D6F000E816F000E806FBBEF10F082C070
:101FAE0032F083C033F084C034F085C035F091C078
:101FBE0036F092C037F093C038F094C039F044EC4C
:101FCE0018F032C04BF033C04CF034C04DF035C079
:101FDE004EF0DAEC1FF04BC086F04CC087F04DC0CF
:101FEE0088F04EC089F086C001F087C002F088C02C
:101FFE0003F089C004F0D9EC24F002BE12EF10F009
:10200E00025007E10A0E015CD8B010EF10F012EF8B
:10201E0010F022EF10F086C001F087C002F088C0E9
:10202E0003F089C004F0D9EC24F001C074F002C0B2
:10203E0075F027EF10F0000E0001756F090E746F2A
:10204E0000017151D8A42EEF10F030EF10F058EFC0
:10205E0010F06ABF37EF10F035EF10F058EF10F0B8
:10206E00A00E8B25D96E020E8C21DA6E2E0EDF6E2F
:10207E008B4B8C2B7A07D8A07B07010E716F58EF14
:10208E0010F0A00E8B25D96E020E8C21DA6E300E5A
:10209E00DF6E8B4B8C2B7A07D8A07B076D07D8A0F1
:1020AE006E076D516E11D8A45FEF10F061EF10F056
:1020BE0048EF10F0A00E8B25D96E020E8C21DA6E31
:1020CE007451300FDF6E8B4B8C2B7A07D8A07B07A9
:1020DE0082C02AF083C02BF084C02CF085C02DF076
:1020EE0086C015F087C016F088C017F089C018F0AA
:1020FE0091C011F092C012F093C013F094C014F07E
:10210E002FEC16F011C02EF012C02FF013C030F0CD
:10211E0014C031F034EC2EF02AC082F02BC083F0C4
:10212E002CC084F02DC085F091C032F092C033F0F7
:10213E0093C034F094C035F0000E366E000E376E3C
:10214E00200E386E410E396E44EC18F032C091F00C
:10215E0033C092F034C093F035C094F0000169079B
:10216E00D8A06A07804B812B7651805D8151800A01
:10217E00676F7751800A6759D8B0C8EF10F0CAEF71
:10218E0010F0D8EF10F08CBFD6EF10F08C5109E1A3
:10219E004B0E8B5DD8A0D6EF10F0D8EF10F0D6EF27
:1021AE000FF0000E816F4F0E806FA00E8025D96E3E
:1021BE00020E8121DA6E000EDF6EA00E676F020E28
:1021CE00686F8B51675F8C51685B80516725016E1C
:1021DE0081516821026EA00E036E020E046E8BC03A
:1021EE0005F08CC006F0F7EC2CF000018B51805DF1
:1021FE008B6F8C5181598C6F8A51D8A409EF11F0D5
:10220E000CEF11F0010E0DEF11F0000E806F816BCF
:10221E008A51D8B415EF11F017EF11F022EF11F02B
:10222E008B07D8A08C07A00E8B25D96E020E8C21A1
:10223E00DA6E8AC0DFFF80517A5F81517B5B60C0AE
:10224E0011F061C012F0A00E8B25136E020E8C21C0
:10225E00146E7AC015F07BC016F0E1EC29F0120076
:10226E00F4EC2FF015EC30F07CEC2CF085EC2FF02C
:10227E00000E026EC80E016E5EEC29F0E4EC2FF03B
:10228E0087928198869E86840E01B4958686B49731
:10229E007F8279887E8E7C9E849E809688968090A2
:1022AE0088907E9086907C9884987C968496000E7A
:1022BE000101616F010E626F010E636FAA0E666FF0
:1022CE000F0E676FA60E686F0F0E696F000E656FAB
:1022DE00C80E646F000E586F010E596F010E5A6FC3
:1022EE00250E5D6F0F0E5E6F210E5F6F0F0E606F0E
:1022FE00000E5C6FC80E5B6F000EDB6F000EDA6FA8
:10230E00000E176F010E166F14691569610E206E9F
:10231E00010E216E580E226E010E236EE3EC20F09C
:10232E007E90520E0001D26F2B0ED16F000EE82E52
:10233E00FED7D12FFCD7D22FFAD700F08EB4AAEF4A
:10234E0011F0ACEF11F0A5EF11F0520E0001D26FAB
:10235E002B0ED16F000EE82EFED7D12FFCD7D22F29
:10236E00FAD700F0D58EC3EF13F0000ED76F000E24
:10237E00D66F610E146E010E156E580E166E010E8E
:10238E00176E0FEC29F06A0E0C6E010E0D6EF3EC4B
:10239E002AF06A0E4B6E010E4C6E4C0E4D6E010EF7
:1023AE004E6E11EC1AF0010171BFE7EF11F0F40E51
:1023BE00705D010E7159D8A0E7EF11F0E9EF11F041
:1023CE00A9EF13F0144B152BAEEC2FF0610E1A6E15
:1023DE00010E1B6E580E1C6E010E1D6EA9EC2BF01D
:1023EE00610E146E010E156E580E166E010E176EDE
:1023FE00A2EC29F047EF12F0090E0001D26F1E0E6B
:10240E00D16FE40EE82EFED7D12FFCD7D22FFAD7FC
:10241E0000F06A0E0C6E010E0D6EF3EC2AF06A0ED1
:10242E004B6E010E4C6E4C0E4D6E010E4E6E11EC3F
:10243E001AF06A0E4B6E010E4C6E4C0E4D6E010E66
:10244E004E6E1FEC07F04BC0D8F14CC0D9F1010114
:10245E00DA51D81907E1DB51D919D8A439EF12F0A6
:10246E003BEF12F03FEF12F0D64BD72B43EF12F0AB
:10247E00000ED76F000ED66FD8C1DAF1D9C1DBF1DD
:10248E000101D7BF54EF12F0D75109E1140ED65DFA
:10249E00D8A054EF12F056EF12F003EF12F0720EB6
:1024AE000001B06F010EB16F010EB26F0E0EB36F61
:1024BE004CC1B4F04DC1B5F04EC1B6F04FC1B7F03E
:1024CE0050C1B8F051C1B9F052C1BAF053C1BBF00E
:1024DE0054C1BCF055C1BDF056C1BEF057C1BFF0DE
:1024EE0070C1C0F071C1C1F0DAC1C2F0DBC1C3F07E
:1024FE0001EC2CF0720E026E010E036E6DEC2FF0DD
:10250E000101DA05DB11D8A48FEF12F091EF12F072
:10251E00AAEF12F0610E206E010E216E580E226E81
:10252E00010E236EDCEC2EF0000ED46E000ED36E78
:10253E001A0E01011425D96E010E1521DA6E010E47
:10254E00DF6EC3EF13F0020EDA19DB11D8A4B2EF6F
:10255E0012F0B4EF12F0CDEF12F0610E206E010EFC
:10256E00216E580E226E010E236E2AEC2CF0000EF8
:10257E00D46E000ED36E1A0E01011425D96E010E03
:10258E001521DA6E020EDF6EC3EF13F0030EDA19A9
:10259E00DB11D8A4D5EF12F0D7EF12F0F0EF12F056
:1025AE00610E206E010E216E580E226E010E236EEC
:1025BE00A5EC2CF0000ED46E000ED36E1A0E010197
:1025CE001425D96E010E1521DA6E030EDF6EC3EFE0
:1025DE0013F0040EDA19DB11D8A4F8EF12F0FAEFAB
:1025EE0012F013EF13F0610E206E010E216E580ED5
:1025FE00226E010E236EC0EC2AF0000ED46E000E79
:10260E00D36E1A0E01011425D96E010E1521DA6E44
:10261E00040EDF6EC3EF13F0050EDA19DB11D8A42A
:10262E001BEF13F01DEF13F036EF13F0610E206E5B
:10263E00010E216E580E226E010E236EFBEC2EF053
:10264E00000ED46E000ED36E1A0E01011425D96E33
:10265E00010E1521DA6E050EDF6EC3EF13F0060EB6
:10266E00DA19DB11D8A43EEF13F040EF13F059EF57
:10267E0013F0610E206E010E216E580E226E010EA9
:10268E00236E53EC2CF0000ED46E000ED36E1A0E89
:10269E0001011425D96E010E1521DA6E060EDF6EBC
:1026AE00C3EF13F0070EDA19DB11D8A461EF13F0A4
:1026BE0063EF13F07CEF13F0610E206E010E216EAE
:1026CE00580E226E010E236ECEEC2CF0000ED46E40
:1026DE00000ED36E1A0E01011425D96E010E1521AE
:1026EE00DA6E070EDF6EC3EF13F00A0EDA19DB1186
:1026FE00D8A484EF13F086EF13F092EF13F0610E6F
:10270E00206E010E216E580E226E010E236E58ECB5
:10271E002AF0C3EF13F0DA51DB11D8A499EF13F0BE
:10272E009BEF13F0A7EF13F01A0E246E010E256E19
:10273E003C0E266E020E276E2BEC1DF0C3EF13F02F
:10274E00C3EF13F018511911D8B4B0EF13F0B2EF64
:10275E0013F0C3EF13F0144B152BD8901435D96E1C
:10276E001535DA6E3C0ED926020EDA22FF0EDE6E1B
:10277E00FF0EDD6E9BEF13F0010116511711D8A459
:10278E00CBEF13F0CDEF13F0BCEF11F01AEF00F01A
:10279E000450800B0D6E045004240F6E03AEDAEF5E
:1027AE0013F0DCEF13F0DDEF13F00F800F50D8B401
:1027BE00E3EF13F0E5EF13F0FAEF13F00F28D8A4C0
:1027CE00EBEF13F0EDEF13F0F5EF13F0000E016EDB
:1027DE00000E026E000E036E000E046E038E000ECF
:1027EE00046E02EF14F0000E016E000E026E000E6B
:1027FE00036E000E046E0850800B0E6E0D500E18F8
:10280E00D8B40CEF14F00EEF14F00FEF14F00D8C93
:10281E00085008240E6E07AE17EF14F019EF14F0DF
:10282E001AEF14F00E800E50D8B420EF14F022EFF1
:10283E0014F037EF14F00E28D8A428EF14F02AEF76
:10284E0014F032EF14F0000E056E000E066E000E40
:10285E00076E000E086E078E000E086E3FEF14F026
:10286E00000E056E000E066E000E076E000E086E50
:10287E000F500E5CD8B046EF14F048EF14F06FEF27
:10288E0014F00DAC4DEF14F04FEF14F051EF14F0B7
:10289E00800E0D1A0FC010F00EC00FF010C00EF00B
:1028AE0001C010F005C001F010C005F002C010F01C
:1028BE0006C002F010C006F003C010F007C003F00F
:1028CE0010C007F004C010F008C004F010C008F0EB
:1028DE00000E106E0F500EC009F00A6A095E000E4F
:1028EE000A5A0ABE84EF14F00A5009E11A0E095C66
:1028FE00D8A084EF14F086EF14F0BDEF14F0015061
:10290E00021003100410D8A48FEF14F092EF14F0FD
:10291E00010E93EF14F0000E106E000E016E000EFD
:10292E00026E000E036E000E046E0EC00FF0C6EFA8
:10293E0014F010A0A5EF14F0A7EF14F0ADEF14F003
:10294E00D89010300109106EAFEF14F0D8901032FD
:10295E0001A0B4EF14F0B6EF14F0B7EF14F0108E30
:10296E00043404320332023201320F2A0E500F5C4D
:10297E00D8A0C4EF14F0C6EF14F0A0EF14F00DBC05
:10298E00CBEF14F0CDEF14F00DEF15F00F50D8A4DF
:10299E00D3EF14F0D5EF14F0DFEF14F0000E016E4C
:1029AE00000E026E000E036E000E046E2EEF16F079
:1029BE000550012606500222075003220850042219
:1029CE0004A0ECEF14F0EEEF14F09AEF15F010A057
:1029DE00F3EF14F0F5EF14F0FBEF14F0D890103085
:1029EE000109106EFDEF14F0D890103201A002EF25
:1029FE0015F004EF15F005EF15F0108E04340432C7
:102A0E000332023201320F2A9AEF15F00550015CA3
:102A1E0006500258075003580450800A096E085099
:102A2E00800A0958D8B01EEF15F020EF15F04BEFC5
:102A3E0015F00150055C096E025006580A6E0350DF
:102A4E0007580B6E045008580C6EFF0E0924016EC9
:102A5E00FF0E0A20026EFF0E0B20036EFF0E0C20DF
:102A6E00046E800E0D1A106C1050D8A441EF15F0A4
:102A7E0043EF15F053EF15F0010E0126000E022262
:102A8E000322042253EF15F00550015E0650025A40
:102A9E000750035A0850045A015002100310041034
:102AAE00D8A45CEF15F05EEF15F093EF15F0105013
:102ABE00D8A464EF15F066EF15F093EF15F0000E45
:102ACE00016E000E026E000E036E000E046E2EEFEF
:102ADE0016F0D890013602360336043610AE7AEF71
:102AEE0015F07CEF15F07DEF15F0018010A082EF50
:102AFE0015F084EF15F088EF15F0D88010368AEFB8
:102B0E0015F0D89010360F50D8B490EF15F092EF14
:102B1E0015F093EF15F00F0603AE98EF15F09AEF40
:102B2E0015F070EF15F0000E0E6E10AEA1EF15F051
:102B3E00A3EF15F0BBEF15F010C009F07F0E0916CC
:102B4E00D8B4ACEF15F0AEEF15F0B2EF15F0010EF4
:102B5E000E6EBBEF15F001A0B7EF15F0B9EF15F043
:102B6E00BBEF15F0AEEF15F00E50D8B4C1EF15F067
:102B7E00C3EF15F0EEEF15F0010E0126000E022246
:102B8E000322042204A0CEEF15F0D0EF15F0EEEFE5
:102B9E0015F001C009F002C00AF003C00BF004C02A
:102BAE000CF00C340C320B320A32093209C001F02F
:102BBE000AC002F00BC003F00CC004F00F28D8B40A
:102BCE00EBEF15F0EDEF15F0EEEF15F00F2A0F28E5
:102BDE00D8B4F4EF15F0F6EF15F0FEEF15F00F5038
:102BEE00D8A4FCEF15F0FEEF15F010EF16F0000E66
:102BFE00016E000E026E000E036E000E046E0F507C
:102C0E00D8A40CEF16F00EEF16F010EF16F0000E23
:102C1E000D6E0FA015EF16F017EF16F01AEF16F057
:102C2E00038E1BEF16F0039ED8900F30046E0DAE80
:102C3E0023EF16F025EF16F026EF16F0048E01C0E6
:102C4E0001F002C002F003C003F004C004F0120051
:102C5E001450800B1D6E14501424236E13AE3AEFD5
:102C6E0016F03CEF16F03DEF16F023802350D8B44B
:102C7E0043EF16F045EF16F058EF16F02328D8A4C0
:102C8E004BEF16F04DEF16F055EF16F0000E116EDD
:102C9E00000E126E000E136E000E146E138E60EF89
:102CAE0016F0000E116E000E126E000E136E000E58
:102CBE00146E1850800B1D1A18501824226E17AE61
:102CCE006BEF16F06DEF16F06EEF16F022802250BD
:102CDE00D8B474EF16F076EF16F089EF16F02228BE
:102CEE00D8A47CEF16F07EEF16F086EF16F0000EED
:102CFE00156E000E166E000E176E000E186E178EE5
:102D0E0091EF16F0000E156E000E166E000E176E79
:102D1E00000E186E2250D8B497EF16F099EF16F0F9
:102D2E00A1EF16F02350D8A49FEF16F0A1EF16F0E6
:102D3E00ABEF16F0000E116E000E126E000E136E3B
:102D4E00000E146E43EF18F017501102F3CF28F057
:102D5E00F4CF29F028501E6E1F6A206A216A29506E
:102D6E00246E256A266A276A16501202F3CF28F0BF
:102D7E00F4CF29F028501E26000E1F2220222122D9
:102D8E0029502426000E2522262227221550130212
:102D9E00F3CF28F0F4CF29F028501E26000E1F2264
:102DAE002022212229502426000E252226222722E7
:102DBE0020C021F01FC020F01EC01FF01E6A15504B
:102DCE001202F3CF28F0F4CF29F028501E262950F6
:102DDE001F22000E2022000E212216501102F3CFC8
:102DEE0028F0F4CF29F028501E2629501F22000E5D
:102DFE002022000E212220C021F01FC020F01EC074
:102E0E001FF01E6A15501102F3CF28F0F4CF29F0EF
:102E1E0028501E2629501F22000E2022000E21228D
:102E2E0017501202F3CF28F0F4CF29F028502426A1
:102E3E0029502522000E2622000E2722165013029C
:102E4E00F3CF28F0F4CF29F028502426295025223C
:102E5E00000E2622000E272217501302F3CF28F061
:102E6E00F4CF29F02850196E29501A6E1B6A1C6A6D
:102E7E001BC01CF01AC01BF019C01AF0196A1950A9
:102E8E0024261A5025221B5026221C5027221EC0F3
:102E9E0019F01FC01AF020C01BF021C01CF0190E33
:102EAE005EEF17F0D8901C321B321A321932E82E10
:102EBE0059EF17F0195024261A5025221B5026229E
:102ECE001C50272220C021F01FC020F01EC01FF072
:102EDE001E6A225023C019F01A6A1926000E1A22F1
:102EEE00820E1924286EFF0E1A20296E94EF17F009
:102EFE00D890243625362636273621AE89EF17F0A0
:102F0E008BEF17F08CEF17F02480D8901E361F36FB
:102F1E00203621362806D8A0290626AE99EF17F0BE
:102F2E009BEF17F07FEF17F0000E226E21AEA2EF8F
:102F3E0017F0A4EF17F0C8EF17F0FF0E1E14196E5E
:102F4E00FF0E1F141A6EFF0E20141B6E7F0E21141F
:102F5E001C6E19501A101B101C10D8B4B9EF17F0B4
:102F6E00BBEF17F0BFEF17F0010E226EC8EF17F090
:102F7E0024A0C4EF17F0C6EF17F0C8EF17F0BBEFA1
:102F8E0017F02250D8B4CEEF17F0D0EF17F0F4EFC1
:102F9E0017F0010E2426000E25222622272227A016
:102FAE00DBEF17F0DDEF17F0F4EF17F024C019F098
:102FBE0025C01AF026C01BF027C01CF01C341C3292
:102FCE001B321A32193219C024F01AC025F01BC058
:102FDE0026F01CC027F0284A292A29BEFFEF17F039
:102FEE00295008E12828D8A0FFEF17F001EF18F0BC
:102FFE000BEF18F0000E246E000E256E800E266E5E
:10300E007F0E276E39EF18F029BE18EF18F02950F1
:10301E0006E12804D8B016EF18F018EF18F024EFD8
:10302E0018F0000E246E000E256E000E266E000E99
:10303E00276E000E1D6E39EF18F028C023F0FF0E1C
:10304E002416FF0E25167F0E2616000E271623A019
:10305E0033EF18F035EF18F036EF18F0268ED890C3
:10306E002330276E1D50271224C011F025C012F0F8
:10307E0026C013F027C014F012003550800B426E9C
:10308E0035503524496E34AE4FEF18F051EF18F02D
:10309E0052EF18F049804950D8B458EF18F05AEF53
:1030AE0018F06FEF18F04928D8A460EF18F062EF0F
:1030BE0018F06AEF18F0000E326E000E336E000E2E
:1030CE00346E000E356E348E000E356E77EF18F0BE
:1030DE00000E326E000E336E000E346E000E356E24
:1030EE003950800B421A395039244A6E38AE82EF6D
:1030FE0018F084EF18F085EF18F04A804A50D8B4D3
:10310E008BEF18F08DEF18F0A2EF18F04A28D8A424
:10311E0093EF18F095EF18F09DEF18F0000E366E45
:10312E00000E376E000E386E000E396E388E000EA1
:10313E00396EAAEF18F0000E366E000E376E000EC6
:10314E00386E000E396E3650371038103910D8A43C
:10315E00B3EF18F0B5EF18F0CDEF18F0000E326E99
:10316E00000E336E000E346E000E356E800E34126D
:10317E007F0E35124250351232C032F033C033F06A
:10318E0034C034F035C035F010EF1AF04950D8A4E1
:10319E00D3EF18F0D5EF18F0DFEF18F0000E326E07
:1031AE00000E336E000E346E000E356E10EF1AF0F8
:1031BE004A5049C03AF03B6A3A5E000E3B5A7F0EC7
:1031CE003A24436E000E3B20446E32C03EF033C0B4
:1031DE003FF034C040F035C041F0000E326E000EAC
:1031EE00336E000E346E000E356E000E456E000E00
:1031FE00466E000E476E000E486E000E4A6E40EF91
:10320E0019F04A50D8B40EEF19F010EF19F027EF5D
:10321E0019F0D8903E363F3640364136D890323689
:10322E0033363436353648AE1FEF19F021EF19F02C
:10323E0022EF19F03280D89045364636473648365A
:10324E0036503E5C37503F583850405839504158F0
:10325E00D8A034EF19F036EF19F03FEF19F0488C83
:10326E0036503E5E37503F5A3850405A3950415AC8
:10327E004A2A190E4A6446EF19F048EF19F008EF82
:10328E0019F03E503F1040104110D8B451EF19F0D4
:10329E0053EF19F06BEF19F045806BEF19F0D890E2
:1032AE00323633363436353648AE60EF19F062EFCB
:1032BE0019F063EF19F03280D8904536463647360E
:1032CE0048364306D8A0440634AE70EF19F072EFBC
:1032DE0019F056EF19F0000E4A6E48AE79EF19F05C
:1032EE007BEF19F09FEF19F0FF0E45143A6EFF0EAB
:1032FE0046143B6EFF0E47143C6E7F0E48143D6E17
:10330E003A503B103C103D10D8B490EF19F092EFAC
:10331E0019F096EF19F0010E4A6E9FEF19F032A0D8
:10332E009BEF19F09DEF19F09FEF19F092EF19F046
:10333E004A50D8B4A5EF19F0A7EF19F0CBEF19F05A
:10334E00010E3226000E33223422352235A0B2EF82
:10335E0019F0B4EF19F0CBEF19F032C03AF033C0D8
:10336E003BF034C03CF035C03DF03D343D323C3294
:10337E003B323A323AC032F03BC033F03CC034F00C
:10338E003DC035F0434A442A44BED6EF19F04450AE
:10339E0008E14328D8A0D6EF19F0D8EF19F0E3EFE3
:1033AE0019F0000E446E4368000E326E000E336E3E
:1033BE00000E346E000E356E44BEF0EF19F0445020
:1033CE0006E14304D8B0EEEF19F0F0EF19F0FEEF7E
:1033DE0019F0000E446E000E436E000E326E000E9B
:1033EE00336E000E346E000E356E000E426E43C00C
:1033FE0049F049A005EF1AF007EF1AF00AEF1AF09C
:10340E00348E0BEF1AF0349ED8904930356EC1EFE2
:10341E0018F012004BC0D9FF4CC0DAFFDECF01F01E
:10342E00DDCF02F0000E02BEFF0E036E046E010E23
:10343E00D3EC21F001C06CF002C06DF003C06EF051
:10344E0004C06FF020EE02F04B50D9264C50DA2219
:10345E00DECF01F0DDCF02F0000E02BEFF0E036ED6
:10346E00046E010ED3EC21F001C070F002C071F0B9
:10347E0003C072F004C073F020EE04F04B50D92656
:10348E004C50DA22DECF01F0DDCF02F0000E02BE8C
:10349E00FF0E036E046E010ED3EC21F001C074F02A
:1034AE0002C075F003C076F004C077F020EE06F08F
:1034BE004B50D9264C50DA22DECF01F0DDCF02F090
:1034CE00000E02BEFF0E036E046E010ED3EC21F051
:1034DE0001C060F002C061F003C062F004C063F08E
:1034EE0070C005F071C006F072C007F073C008F02E
:1034FE006CC001F06DC002F06EC003F06FC004F03E
:10350E00CFEC13F001C064F002C065F003C066F0AA
:10351E0004C067F074C005F075C006F076C007F001
:10352E0077C008F064C001F065C002F066C003F019
:10353E0067C004F0CFEC13F001C068F002C069F070
:10354E0003C06AF004C06BF06CC032F06DC033F093
:10355E006EC034F06FC035F060C005F061C006F08B
:10356E0062C007F063C008F068C001F069C002F0E5
:10357E006AC003F06BC004F0CFEC13F001C036F05C
:10358E0002C037F003C038F004C039F044EC18F034
:10359E004DC0D9FF4EC0DAFF32C0DEFF33C0DEFFB2
:1035AE0034C0DEFF35C0DEFF70C005F071C006F01E
:1035BE0072C007F073C008F06CC001F06DC002F06D
:1035CE006EC003F06FC004F0CFEC13F001C064F0D6
:1035DE0002C065F003C066F004C067F074C005F069
:1035EE0075C006F076C007F077C008F064C001F031
:1035FE0065C002F066C003F067C004F0CFEC13F0B4
:10360E0001C068F002C069F003C06AF004C06BF03C
:10361E0074C032F075C033F076C034F077C035F038
:10362E0060C005F061C006F062C007F063C008F02C
:10363E0068C001F069C002F06AC003F06BC004F00C
:10364E00CFEC13F001C036F002C037F003C038F0F3
:10365E0004C039F044EC18F020EE08F04D50D92695
:10366E004E50DA2232C0DEFF33C0DEFF34C0DEFF42
:10367E0035C0DEFF70C005F071C006F072C007F0F5
:10368E0073C008F06CC001F06DC002F06EC003F0A4
:10369E006FC004F0CFEC13F001C064F002C065F00F
:1036AE0003C066F004C067F074C005F075C006F084
:1036BE0076C007F077C008F064C001F065C002F074
:1036CE0066C003F067C004F0CFEC13F001C068F0E1
:1036DE0002C069F003C06AF004C06BF070C032F033
:1036EE0071C033F072C034F073C035F060C005F0B5
:1036FE0061C006F062C007F063C008F068C001F058
:10370E0069C002F06AC003F06BC004F0CFEC13F096
:10371E0001C036F002C037F003C038F004C039F0F3
:10372E0044EC18F020EE04F04D50D9264E50DA221B
:10373E0032C0DEFF33C0DEFF34C0DEFF35C0DEFF39
:10374E00120097C0D9FF98C0DAFFDECFF6FFDDCFAB
:10375E00F7FF000EF86E0800F550250AD8A4BAEF50
:10376E001BF0BCEF1BF014EF1DF097C0D9FF98C0F3
:10377E00DAFFDE2A000EDD22000E0001E86F000ED9
:10378E00E76FE7C0EBF0E969EA6997C0D9FF98C027
:10379E00DAFFDECFA6F0DDCFA7F0A6C0F6FFA7C0FA
:1037AE00F7FF000EF86E0800F550640AD8B4E2EF89
:1037BE001BF0E4EF1BF0F4EF1BF0A6C0F6FFA7C062
:1037CE00F7FF000EF86E0800F550690AD8A4F2EF64
:1037DE001BF0F4EF1BF037EF1CF099C0D9FF9AC025
:1037EE00DAFFDFCF9BF0020EDE26DFCF9CF0000E5D
:1037FE00DD229BC0D9FF9CC0DAFFDECF9DF0DDCF6E
:10380E009EF0000E9EBFFF0E9F6FA06FA16FA26F66
:10381E00A36FA46F010EA6259B6F000EA7219C6FB0
:10382E0097C0D9FF98C0DAFF9BC0DEFF9CC0DDFFBA
:10383E0095C01CF096C01DF09DC01EF09EC01FF0DE
:10384E009FC020F0A0C021F0A1C022F0A2C023F0A2
:10385E00A3C024F0A4C025F09BEC1EF02AEF1DF0AF
:10386E0097C0D9FF98C0DAFFDECFA6F0DDCFA7F064
:10387E00A6C0F6FFA7C0F7FF000EF86E0800F5CF42
:10388E00A5F056EF1CF0A64BA72B6FEF1CF06C0E9D
:10389E00A56F6FEF1CF0000EA56F6FEF1CF0A5511A
:1038AE009B6F9C6B9C51000AD8B460EF1CF052EFDA
:1038BE001CF09B514C0AD8B44AEF1CF02A0AD8B41B
:1038CE004EEF1CF00A0AD8B44AEF1CF052EF1CF06F
:1038DE00A6C0F6FFA7C0F7FF000EF86E0800F55061
:1038EE00660AD8A47DEF1CF07FEF1CF00BEF1DF0E5
:1038FE00B5EF1CF099C0D9FF9AC0DAFFDFCF9BF06D
:10390E00040EDE26DFCF9CF0000EDD229BC0D9FF19
:10391E009CC0DAFFDECF9DF0DECF9EF0DECF9FF0B3
:10392E00DECFA0F0CAEF1CF099C0D9FF9AC0DAFF23
:10393E00DFCF9BF0040EDE26DFCF9CF0000EDD22E3
:10394E009BC0D9FF9CC0DAFFDECF9DF0DECF9EF08C
:10395E00DECF9FF0DECFA0F0CAEF1CF0A5519B6F1B
:10396E009C6B9C51000AD8B4BFEF1CF0CAEF1CF040
:10397E009B514C0AD8B49BEF1CF0200AD8B481EFAF
:10398E001CF0CAEF1CF0010EA6259B6F000EA7219E
:10399E009C6F97C0D9FF98C0DAFF9BC0DEFF9CC01A
:1039AE00DDFFF3EF1CF095C060F096C061F09DC096
:1039BE0062F09EC063F09FC064F0A0C065F0A6C028
:1039CE00F6FFA7C0F7FF000EF86E0800F5CF66F001
:1039DE003AEC0CF02AEF1DF0A6C0F6FFA7C0F7FFD9
:1039EE00000EF86E0800F5509B6F9C6B9C51000A00
:1039FE00D8B404EF1DF00BEF1DF09B51660AD8B43E
:103A0E00DAEF1CF00BEF1DF097C0D9FF98C0DAFF6C
:103A1E00DE2A000EDD222AEF1DF097C0D9FF98C0D6
:103A2E00DAFFDECFF6FFDDCFF7FF000EF86E0800EF
:103A3E00F550016E026A95C003F096C004F05DEC7D
:103A4E0026F00BEF1DF01200610E206E010E216E9E
:103A5E00580E226E010E236EC0EC2AF0D59E14C1B4
:103A6E002BF015C12CF02CBE41EF1DF03FEF1DF0D9
:103A7E0043EF1DF09AEF1EF0610E146E010E156EDF
:103A8E00580E166E010E176ED8902B34D96E2C343C
:103A9E00DA6E2650D9262750DA22DECF18F0DDCF87
:103AAE0019F078EC27F02B502424286E2C5025206A
:103ABE00296EFF0E2824D96EFF0E2920DA6EDE0441
:103ACE00D8A46CEF1DF06EEF1DF084EF1DF0610EAB
:103ADE001A6E010E1B6E580E1C6E010E1D6E7CECC6
:103AEE002BF0610E206E010E216E580E226E010E0D
:103AFE00236EFBEC2EF086EF1EF02B502424286E46
:103B0E002C502520296EFF0E2824D96EFF0E292059
:103B1E00DA6E020EDE18D8A497EF1DF099EF1DF0A5
:103B2E00AFEF1DF0610E1A6E010E1B6E580E1C6E5D
:103B3E00010E1D6E7CEC2BF0610E206E010E216EBF
:103B4E00580E226E010E236E53EC2CF086EF1EF0F3
:103B5E002B502424286E2C502520296EFF0E28244D
:103B6E00D96EFF0E2920DA6E030EDE18D8A4C2EF2E
:103B7E001DF0C4EF1DF0DAEF1DF0610E1A6E010E8E
:103B8E001B6E580E1C6E010E1D6E7CEC2BF0610E22
:103B9E00206E010E216E580E226E010E236EC2ECA7
:103BAE0026F086EF1EF02B502424286E2C50252054
:103BBE00296EFF0E2824D96EFF0E2920DA6E040E10
:103BCE00DE18D8A4EDEF1DF0EFEF1DF005EF1EF09F
:103BDE00610E1A6E010E1B6E580E1C6E010E1D6EBE
:103BEE007CEC2BF0610E206E010E216E580E226EB3
:103BFE00010E236EC0EC2AF086EF1EF02B5024240B
:103C0E00286E2C502520296EFF0E2824D96EFF0E0B
:103C1E002920DA6E050EDE18D8A418EF1EF01AEF62
:103C2E001EF030EF1EF0610E1A6E010E1B6E580E56
:103C3E001C6E010E1D6E7CEC2BF0610E206E010EC3
:103C4E00216E580E226E010E236EDCEC2EF086EFE6
:103C5E001EF02B502424286E2C502520296EFF0E8A
:103C6E002824D96EFF0E2920DA6E060EDE18D8A48F
:103C7E0043EF1EF045EF1EF05BEF1EF0610E1A6E65
:103C8E00010E1B6E580E1C6E010E1D6E7CEC2BF081
:103C9E00610E206E010E216E580E226E010E236EE5
:103CAE002AEC2CF086EF1EF02B502424286E2C507C
:103CBE002520296EFF0E2824D96EFF0E2920DA6EDC
:103CCE00070EDE18D8A46EEF1EF070EF1EF086EF12
:103CDE001EF0610E1A6E010E1B6E580E1C6E010E3A
:103CEE001D6E7CEC2BF0610E206E010E216E580EB7
:103CFE00226E010E236E1DEC27F086EF1EF0610E74
:103D0E00146E010E156E580E166E010E176EA2EC85
:103D1E0029F0000E0101176F000E166F2B06D8A0AA
:103D2E002C063AEF1DF012001EC034F01FC035F005
:103D3E0020C036F021C037F022C038F023C039F051
:103D4E0024C03AF025C03BF03BBEB0EF1EF0B3EFFF
:103D5E001EF0010EB4EF1EF0000E3E6E3E50D8B4B3
:103D6E00BBEF1EF0BDEF1EF0CDEF1EF03B1E3A1E58
:103D7E00391E381E371E361E351E346C000E352287
:103D8E0036223722382239223A223B220001EABF5C
:103D9E00DBEF1EF0EA5106E1E905D8B0D9EF1EF0CF
:103DAE00DBEF1EF0E1EF1EF0000E316E010E306EF5
:103DBE00E5EF1EF0E9C030F0EAC031F0E7C032F0B6
:103DCE00E8C033F03E50D8B4EFEF1EF0F1EF1EF026
:103DDE0008EF1FF03206D8A033063E50D8A4FAEFF3
:103DEE001EF0FCEF1EF002EF1FF0000E2F6E2B0EDA
:103DFE002E6E06EF1FF0000E2F6E2D0E2E6E2EC0A5
:103E0E003EF0000E3D6E4F0E3C6E000E0201EF6F47
:103E1E008DEF1FF03C06D8A03D06A00E3C24D96EB7
:103E2E00020E3D20DA6E34C001F035C002F036C00D
:103E3E0003F037C004F038C005F039C006F03AC0C0
:103E4E0007F03BC008F00A0E096E000E0A6E000E57
:103E5E000B6E000E0C6E000E0D6E000E0E6E000E32
:103E6E000F6E000E106E27EC24F001C026F002C07B
:103E7E0027F003C028F004C029F005C02AF006C0C0
:103E8E002BF007C02CF008C02DF026C013F027C071
:103E9E0014F0BCEC2EF01350300FDF6E3006D8A0AD
:103EAE0031063206D8A0330634C001F035C002F018
:103EBE0036C003F037C004F038C005F039C006F044
:103ECE003AC007F03BC008F00A0E096E000E0A6EEB
:103EDE00000E0B6E000E0C6E000E0D6E000E0E6EB2
:103EEE00000E0F6E000E106EADEC22F001C034F01D
:103EFE0002C035F003C036F004C037F005C038F00C
:103F0E0006C039F007C03AF008C03BF03DBE98EF4E
:103F1E001FF03D5008E13C04D8A098EF1FF09AEF37
:103F2E001FF0B6EF1FF03450351036103710381022
:103F3E0039103A103B10D8A4A7EF1FF0A9EF1FF0CD
:103F4E0011EF1FF031BEB6EF1FF0315006E1300415
:103F5E00D8B0B4EF1FF0B6EF1FF011EF1FF03E50C8
:103F6E00D8B4BCEF1FF0BEEF1FF0C9EF1FF03C0638
:103F7E00D8A03D06A00E3C24D96E020E3D20DA6E6E
:103F8E003EC0DFFF1CC011F01DC012F0A00E3C247D
:103F9E00136E020E3D20146E32C015F033C016F0B3
:103FAE00E1EC29F01200DFC05BF0E0C05CF0E1C094
:103FBE005DF0E2C05EF04BC05BF04CC05CF04DC0FB
:103FCE005DF04EC05EF0810E4F6EFF0E506E5BC008
:103FDE0051F05CC052F05DC053F05EC054F0180E4C
:103FEE00FEEF1FF0D8905432533252325132E82E37
:103FFE00F9EF1FF051504F24596E000E50205A6E9B
:10400E005ABE13EF20F05A5009E1170E595CD8A092
:10401E0013EF20F015EF20F01FEF20F04BC04BF008
:10402E004CC04CF04DC04DF04EC04EF0E2EF20F0C3
:10403E005ABE24EF20F026EF20F096EF20F059C064
:10404E004FF0FF0E506EFF0E516E7F0E526E000E31
:10405E00536E4F6635EF20F03DEF20F05334533260
:10406E005232513250324F2E30EF20F050C055F0B8
:10407E0051C056F052C057F053C058F055505B1413
:10408E004F6E56505C14506E57505D14516E585012
:10409E005E14526E4F50501051105210D8A45AEF59
:1040AE0020F05CEF20F05EEF20F015EF20F05BC00B
:1040BE004FF05CC050F05DC051F05EC052F0200E6B
:1040CE006EEF20F0D8905232513250324F32E82EED
:1040DE0069EF20F04F50501051105210D8B47AEFB3
:1040EE0020F07CEF20F084EF20F055505B265650E8
:1040FE005C2257505D2258505E22551C4F6E561C46
:10410E00506E571C516E581C526E4F505B165050CD
:10411E005C1651505D1652505E16DAEF20F05BC001
:10412E004FF05CC050F05DC051F05EC052F0200EFA
:10413E00A6EF20F0D8905232513250324F32E82E44
:10414E00A1EF20F04F50501051105210D8A4B2EFE2
:10415E0020F0B4EF20F0BEEF20F0000E5B6E000EEC
:10416E005C6E000E5D6E000E5E6EDAEF20F0D89083
:10417E005B344F6E5C34506E5D34516E5E34526EF5
:10418E004F50501051105210D8B4D0EF20F0D2EF43
:10419E0020F0DAEF20F0000E5B6E000E5C6E800EEB
:1041AE005D6EBF0E5E6E5BC04BF05CC04CF05DC0D2
:1041BE004DF05EC04EF012007E80520E256E2B0E1C
:1041CE00246E000EE82EFED7242EFCD7252EFAD70D
:1041DE0000D0AAEF21F07C86610E1A6E010E1B6EC6
:1041EE00580E1C6E010E1D6E0DEC2EF0610E1A6E29
:1041FE00010E1B6E580E1C6E010E1D6E0DEC2EF078
:10420E00610E1A6E010E1B6E580E1C6E010E1D6E87
:10421E000DEC2EF0610E1A6E010E1B6E580E1C6EFA
:10422E00010E1D6E0DEC2EF08FEF21F07C88A30E8B
:10423E00256E570E246E020EE82EFED7242EFCD7C6
:10424E00252EFAD700D08EA42FEF21F032EF21F0D9
:10425E00010E33EF21F0000E246E8EA639EF21F001
:10426E003CEF21F0010E3DEF21F0000E2414E8A0EA
:10427E0043EF21F045EF21F057EF21F080867C8E41
:10428E00520E256E2B0E246E000EE82EFED7242E17
:10429E00FCD7252EFAD700D080967C9E8FEF21F08A
:1042AE008EB65CEF21F05EEF21F073EF21F00A0E77
:1042BE000001F227000EF3238086520E256E2B0E80
:1042CE00246E000EE82EFED7242EFCD7252EFAD70C
:1042DE0000D080968FEF21F08EB478EF21F07AEF38
:1042EE0021F08FEF21F00001F60EF227FF0EF323DF
:1042FE007C8E520E256E2B0E246E000EE82EFED7EF
:10430E00242EFCD7252EFAD700D07C9E8FEF21F0DD
:10431E008EA494EF21F096EF21F09DEF21F08EB652
:10432E009BEF21F09DEF21F01DEF21F07C98A30E65
:10433E00256E570E246E020EE82EFED7242EFCD7C5
:10434E00252EFAD700D08EA6AFEF21F0B2EF21F0D6
:10435E00010EB3EF21F0000E246E8EA4B9EF21F002
:10436E00BCEF21F0010EBDEF21F0000E2414E8A0E9
:10437E00C3EF21F0C5EF21F0F2EF20F07C96A30EF3
:10438E00256E570E246E020EE82EFED7242EFCD775
:10439E00252EFAD700D01200096E0950D8B4DAEFE4
:1043AE0021F0DCEF21F0FEEF21F004BEE3EF21F06F
:1043BE00E1EF21F0FEEF21F001C005F002C006F0A2
:1043CE0003C007F004C008F0051E061E071E081ED7
:1043DE00052A000E06220722082205C00BF006C091
:1043EE000CF007C00DF008C00EF006EF22F001C071
:1043FE000BF002C00CF003C00DF004C00EF0015023
:10440E00021003100410D8A40FEF22F011EF22F0C7
:10441E001BEF22F0000E016E000E026E000E036EF8
:10442E00000E046EACEF22F0960E0A6E25EF22F00F
:10443E000A2AD8900E320D320C320B32000E0B14AB
:10444E00056E000E0C14066E000E0D14076EFE0E99
:10445E000E14086E0550061007100810D8A43AEF77
:10446E0022F03CEF22F01FEF22F04AEF22F00A2A50
:10447E00010E0B26000E0C220D220E22D8900E32AB
:10448E000D320C320B32000E0B14056E000E0C1496
:10449E00066E000E0D14076EFF0E0E14086E0550FC
:1044AE00061007100810D8A45FEF22F061EF22F07B
:1044BE003EEF22F069EF22F00A06D8900B360C364A
:1044CE000D360E360DBE6EEF22F070EF22F078EF45
:1044DE0022F0020E0A6076EF22F078EF22F063EF00
:1044EE0022F00AB07DEF22F07FEF22F080EF22F073
:1044FE000D9ED8900A320AC005F0066A076A086A4D
:10450E0005C008F0076A066A056A05500B120650C8
:10451E000C1207500D1208500E120950D8B49AEF13
:10452E0022F09CEF22F0A4EF22F004BEA3EF22F0C3
:10453E00A1EF22F0A4EF22F00E8E0BC001F00CC002
:10454E0002F00DC003F00EC004F01200000E126E49
:10455E0010BEB6EF22F0B4EF22F0C8EF22F0101E1C
:10456E000F1E0E1E0D1E0C1E0B1E0A1E096C000EBB
:10457E000A220B220C220D220E220F221022010ED5
:10458E00126E08BECFEF22F0CDEF22F0E1EF22F057
:10459E00081E071E061E051E041E031E021E016CAB
:1045AE00000E0222032204220522062207220822DE
:1045BE00010E121A20EE13F0070EDE6AE806FDE277
:1045CE0009500A100B100C100D100E100F101010B9
:1045DE00D8B4F4EF22F0F6EF22F048EF23F0010EFC
:1045EE00116E04EF23F0D89009360A360B360C36CE
:1045FE000D360E360F361036112A10AE09EF23F097
:10460E000BEF23F0FAEF22F0D8901336143615364E
:10461E0016361736183619361A360950015C0A50F6
:10462E0002580B5003580C5004580D5005580E509C
:10463E0006580F50075810500858D8A029EF23F0ED
:10464E002BEF23F03CEF23F00950015E0A50025A83
:10465E000B50035A0C50045A0D50055A0E50065A60
:10466E000F50075A1050085A1380D89010320F323C
:10467E000E320D320C320B320A320932112E0BEF82
:10468E0023F01250D8B44EEF23F050EF23F060EF2A
:10469E0023F01A1E191E181E171E161E151E141E86
:1046AE00136C000E1422152216221722182219221C
:1046BE001A2213C001F014C002F015C003F016C088
:1046CE0004F017C005F018C006F019C007F01AC0A4
:1046DE0008F0120020EE02F00E50D9260F50DA220A
:1046EE00DF50D8B47DEF23F07FEF23F0B3EF23F04C
:1046FE000EC0D9FF0FC0DAFFDF50106E1050016EE2
:10470E00026A20EE03F00E50D9260F50DA22DECFC9
:10471E0003F0DDCF04F0C1EC2FF001C007F002C0B2
:10472E0008F0000E0A6E640E096E1EEC2AF020EEE2
:10473E0003F00E50D9260F50DA22DF50116E0750BB
:10474E00115C126E20EE03F00E50D9260F50DA22B5
:10475E00DF50136ED6EF23F0000E126E0EC0D9FF8F
:10476E000FC0DAFFDF50106E1050016E026A20EE9D
:10477E0003F00E50D9260F50DA22DECF03F0DDCF34
:10478E0004F0C1EC2FF001C007F002C008F0000EDB
:10479E000A6E640E096E1EEC2AF00750136E20EEA0
:1047AE0001F00E50D9260F50DA22DF50D8B4E2EFC6
:1047BE0023F0E4EF23F006EF24F020EE05F00E5088
:1047CE00D9260F50DA22DECF10F0DDCF11F010C057
:1047DE00D9FF11C0DAFF12C0DFFF20EE07F00E5036
:1047EE00D9260F50DA22DECF10F0DDCF11F010C037
:1047FE00D9FF11C0DAFF13C0DFFF26EF24F020EE41
:10480E0005F00E50D9260F50DA22DECF10F0DDCF94
:10481E0011F010C0D9FF11C0DAFF13C0DFFF20EE78
:10482E0007F00E50D9260F50DA22DECF10F0DDCF72
:10483E0011F010C0D9FF11C0DAFF12C0DFFF120055
:10484E00000E126E08BE30EF24F02EEF24F042EF71
:10485E0024F0081E071E061E051E041E031E021E41
:10486E00016C000E022203220422052206220722D8
:10487E000822010E126E10BE49EF24F047EF24F00D
:10488E0059EF24F0101E0F1E0E1E0D1E0C1E0B1EB9
:10489E000A1E096C000E0A220B220C220D220E2279
:1048AE000F22102209500A100B100C100D100E10B2
:1048BE000F101010D8B466EF24F068EF24F0B0EFAC
:1048CE0024F0010E116E76EF24F0D89009360A36D8
:1048DE000B360C360D360E360F361036112A10AE3C
:1048EE007BEF24F07DEF24F06CEF24F00950015C97
:1048FE000A5002580B5003580C5004580D500558CE
:10490E000E5006580F50075810500858D8A092EF66
:10491E0024F094EF24F0A4EF24F00950015E0A5025
:10492E00025A0B50035A0C50045A0D50055A0E5091
:10493E00065A0F50075A1050085AD89010320F329C
:10494E000E320D320C320B320A320932112E7DEF3D
:10495E0024F01250D8B4B6EF24F0B8EF24F0C8EF1C
:10496E0024F0081E071E061E051E041E031E021E30
:10497E00016C000E022203220422052206220722C7
:10498E00082201C001F002C002F003C003F004C00F
:10499E0004F005C005F006C006F007C007F008C019
:1049AE0008F01200033404340A6E0A50D8A4E2EF61
:1049BE0024F0E4EF24F0EEEF24F0000E016E000E72
:1049CE00026E000E036E000E046E5BEF25F001C04A
:1049DE0005F002C006F003C007F004C008F0200E78
:1049EE00FEEF24F0D8900832073206320532E82E58
:1049FE00F9EF24F00550096E038EFF0E0116FF0E1F
:104A0E000216FF0E0316000E0416960E0A5E0ABE5E
:104A1E0015EF25F013EF25F02BEF25F00A50800A45
:104A2E00970FD8B01DEF25F01FEF25F021EF25F0E1
:104A3E00E4EF24F0D89004320332023201320A3EFF
:104A4E0021EF25F043EF25F01F0E0A6431EF25F01C
:104A5E0033EF25F03BEF25F0E4EF24F0D89001364C
:104A6E000236033604360A060A50D8A441EF25F062
:104A7E0043EF25F035EF25F00950D8B449EF25F076
:104A8E004BEF25F053EF25F0041E031E021E016CA2
:104A9E00000E02220322042201C001F002C002F025
:104AAE0003C003F004C004F01200000E2A14326E8C
:104ABE00000E2B14336E800E2C14346E7F0E2D14BC
:104ACE00356E3250331034103510D8A471EF25F0F6
:104ADE0073EF25F07BEF25F0000E2A6E000E2B6E85
:104AEE00000E2C6E000E2D6E000E2E14326E000E69
:104AFE002F14336E800E3014346E7F0E3114356EDB
:104B0E003250331034103510D8A490EF25F092EFB8
:104B1E0025F09AEF25F0000E2E6E000E2F6E000E71
:104B2E00306E000E316E2DAE9FEF25F0A1EF25F009
:104B3E00AAEF25F02A6C2B1ED8B02B2A2C1ED8B02B
:104B4E002C2A800E2D5631AEAFEF25F0B1EF25F0A9
:104B5E00BAEF25F02E6C2F1ED8B02F2A301ED8B0EB
:104B6E00302A800E3156000E2A1A000E2B1A000E15
:104B7E002C1A800E2D1A000E2E1A000E2F1A000E51
:104B8E00301A800E311A2E502A5C2F502B5830506E
:104B9E002C5831502D58D8B0D7EF25F0D9EF25F03D
:104BAE00DCEF25F0D890DDEF25F0D8801200E3C0C1
:104BBE000BF0E4C00CF0E5C00DF0E6C00EF001C045
:104BCE000BF002C00CF003C00DF004C00EF00BC0D1
:104BDE0005F00CC006F00DC007F00EC008F0180E60
:104BEE00FEEF25F0D8900832073206320532E82E55
:104BFE00F9EF25F00550096E0A6A09500A10D8A47B
:104C0E000BEF26F00DEF26F02DEF26F0D8900B349B
:104C1E00056E0C34066E0D34076E0E34086E05509C
:104C2E00061007100810D8A41FEF26F021EF26F06B
:104C3E0027EF26F0000E026E020E016E5CEF26F0DC
:104C4E00000E026E030E016E5CEF26F009280A10AC
:104C5E00D8A434EF26F036EF26F058EF26F00BC02E
:104C6E0005F00CC006F00DC007F00EC008F0090EDE
:104C7E00D8900536063607360836E82E3FEF26F072
:104C8E000550061007100810D8B450EF26F053EF59
:104C9E0026F0010E54EF26F0000E016E026A5CEF54
:104CAE0026F0000E026E040E016E12000350041068
:104CBE00D8B464EF26F066EF26F06FEF26F00350BF
:104CCE000410D8A46DEF26F06FEF26F074EF26F0E7
:104CDE0001502DEC30F0C1EF26F020EE09F003501C
:104CEE00D9260450DA22DE50DE10D8B481EF26F039
:104CFE0083EF26F09EEF26F020EE09F00350D92622
:104D0E000450DA2210EE03F00350E1260450E222A2
:104D1E00DE50E65CE650800A096EDE50800A0958C5
:104D2E00D8B09CEF26F09EEF26F0C1EF26F020EED5
:104D3E0003F00350D9260450DA22DECF05F0DDCF82
:104D4E0006F003C0D9FF04C0DAFFDECF07F0DDCFD7
:104D5E0008F005500724D96E06500820DA6E01C0FF
:104D6E00DFFF20EE03F00350D9260450DA22DE2AAC
:104D7E00000EDD221200610E1A6E010E1B6E580E11
:104D8E001C6E010E1D6E7CEC2BF0610E1A6E010E68
:104D9E001B6E580E1C6E010E1D6EE6EC2DF0610E94
:104DAE001A6E010E1B6E580E1C6E010E1D6EE6EC79
:104DBE002DF0610E1A6E010E1B6E580E1C6E010E3A
:104DCE001D6E22EC2BF0610E1A6E010E1B6E580E2C
:104DDE001C6E010E1D6E7CEC2BF0610E1A6E010E18
:104DEE001B6E580E1C6E010E1D6EE6EC2DF0610E44
:104DFE001A6E010E1B6E580E1C6E010E1D6EE6EC29
:104E0E002DF0610E1A6E010E1B6E580E1C6E010EE9
:104E1E001D6EE6EC2DF0610E1A6E010E1B6E580E15
:104E2E001C6E010E1D6EE6EC2DF01200610E1A6E58
:104E3E00010E1B6E580E1C6E010E1D6E7CEC2BF0BF
:104E4E00610E1A6E010E1B6E580E1C6E010E1D6E3B
:104E5E000DEC2EF0610E1A6E010E1B6E580E1C6EAE
:104E6E00010E1D6E0DEC2EF0610E1A6E010E1B6EF4
:104E7E00580E1C6E010E1D6E22EC2BF0610E1A6E7A
:104E8E00010E1B6E580E1C6E010E1D6E7CEC2BF06F
:104E9E00610E1A6E010E1B6E580E1C6E010E1D6EEB
:104EAE000DEC2EF0610E1A6E010E1B6E580E1C6E5E
:104EBE00010E1D6E0DEC2EF0610E1A6E010E1B6EA4
:104ECE00580E1C6E010E1D6E0DEC2EF0610E1A6E3C
:104EDE00010E1B6E580E1C6E010E1D6E0DEC2EF08B
:104EEE00120020EE01F01450D9261550DA22010ED0
:104EFE00DF6E20EE01F01650D9261750DA22010E81
:104F0E00DF6EAEEF27F014C0D9FF15C0DAFF0A0E20
:104F1E00DF2616C0D9FF17C0DAFF0A0EDF2614C02F
:104F2E000EF015C00FF071EC23F016C00EF017C086
:104F3E000FF071EC23F0020E1B6EA00E1A6E920E85
:104F4E00E82EFED71A2EFCD71B2EFAD700D014C08F
:104F5E00D9FF15C0DAFF1E0EDF60B8EF27F0BAEFEB
:104F6E0027F0C6EF27F016C0D9FF17C0DAFF1D0EC7
:104F7E00DF64C4EF27F0C6EF27F08AEF27F018C0E2
:104F8E0001F019C002F036EC2FF01200000E3214B0
:104F9E003A6E000E33143B6E800E34143C6E7F0E50
:104FAE0035143D6E3A503B103C103D10D8A4E2EF44
:104FBE0027F0E4EF27F0ECEF27F0000E326E000E34
:104FCE00336E000E346E000E356E000E36143A6ED1
:104FDE00000E37143B6E800E38143C6E7F0E391463
:104FEE003D6E3A503B103C103D10D8A401EF28F016
:104FFE0003EF28F00BEF28F0000E366E000E376E22
:10500E00000E386E000E396E365032180FE13750E2
:10501E0033180CE13850341809E139503518D8B42A
:10502E001BEF28F01DEF28F020EF28F0D89021EF8D
:10503E0028F0D880120020EE01F01450D926155019
:10504E00DA22010EDF6E20EE01F01650D92617502F
:10505E00DA22000EDF6E58EF28F014C0D9FF15C00B
:10506E00DAFF0A0EDF2616C0D9FF17C0DAFF0A0EC6
:10507E00DF2614C00EF015C00FF071EC23F016C031
:10508E000EF017C00FF071EC23F0020E196EA00E89
:10509E00186E920EE82EFED7182EFCD7192EFAD7C0
:1050AE0000D014C0D9FF15C0DAFF1E0EDF6062EF0C
:1050BE0028F064EF28F070EF28F016C0D9FF17C063
:1050CE00DAFF1D0EDF646EEF28F070EF28F034EF7C
:1050DE0028F0120020EE01F01450D9261550DA22D5
:1050EE00000EDF6E20EE01F01650D9261750DA2290
:1050FE00010EDF6EA7EF28F014C0D9FF15C0DAFF3E
:10510E000A0EDF2616C0D9FF17C0DAFF0A0EDF26F9
:10511E0014C00EF015C00FF071EC23F016C00EF097
:10512E0017C00FF071EC23F0020E196EA00E186E60
:10513E00920EE82EFED7182EFCD7192EFAD700D0D5
:10514E0014C0D9FF15C0DAFF1E0EDF60B1EF28F0D4
:10515E00B3EF28F0BFEF28F016C0D9FF17C0DAFF63
:10516E001D0EDF64BDEF28F0BFEF28F083EF28F0AF
:10517E00120020EE01F01450D9261550DA22000E3E
:10518E00DF6E20EE01F01650D9261750DA22000EEF
:10519E00DF6EF6EF28F014C0D9FF15C0DAFF0A0E45
:1051AE00DF2616C0D9FF17C0DAFF0A0EDF2614C09D
:1051BE000EF015C00FF071EC23F016C00EF017C0F4
:1051CE000FF071EC23F0020E196EA00E186E920EF7
:1051DE00E82EFED7182EFCD7192EFAD700D014C001
:1051EE00D9FF15C0DAFF1E0EDF6000EF29F002EFC7
:1051FE0029F00EEF29F016C0D9FF17C0DAFF1D0EE9
:10520E00DF640CEF29F00EEF29F0D2EF28F0120038
:10521E0020EE01F01450D9261550DA22010EDF6E61
:10522E0020EE01F01650D9261750DA22010EDF6E4D
:10523E0045EF29F014C0D9FF15C0DAFF0A0EDF269C
:10524E0016C0D9FF17C0DAFF0A0EDF2614C00EF003
:10525E0015C00FF071EC23F016C00EF017C00FF052
:10526E0071EC23F0020E196EA00E186E920EE82E3F
:10527E00FED7182EFCD7192EFAD700D014C0D9FF9E
:10528E0015C0DAFF1E0EDF604FEF29F051EF29F047
:10529E005DEF29F016C0D9FF17C0DAFF1D0EDF64CF
:1052AE005BEF29F05DEF29F021EF29F01200050EDA
:1052BE000E01746F060E766F070E696F080E886FFB
:1052CE0085948598839E879CBD508F0B3009BD6E4B
:1052DE00E00EBE16BF50F00B0109BF6E01C0BCFF41
:1052EE00BD8E000EAA6E000EA66E000E0F01256F6B
:1052FE00000E216FFC0EAD16F30EAD16CF0EAD16D1
:10530E003F0EAD16AB88AB50F00B0C09AB6EAB8EEF
:10531E00A788A750F00B0C09A76EA78E26892651D9
:10532E00F00B0C09266F268F22892251F00B0C09E7
:10533E00226F228F1200C8EF29F014C0D9FF15C0BA
:10534E00DAFF0A0EDF5E16C0D9FF17C0DAFF0A0EAB
:10535E00DF5E14C00EF015C00FF071EC23F016C016
:10536E000EF017C00FF071EC23F0020E196EA00EA6
:10537E00186E920EE82EFED7182EFCD7192EFAD7DD
:10538E0000D014C0D9FF15C0DAFFDF50D8A4D2EF79
:10539E0029F0D4EF29F0A4EF29F016C0D9FF17C0D9
:1053AE00DAFFDF50D8A4DEEF29F0E0EF29F0A4EF0A
:1053BE0029F0120016BEE6EF29F0E8EF29F0EEEF25
:1053CE0029F015C01AF016C01BF0F2EF29F0000EEE
:1053DE001B6E000E1A6E000E196E000E186E04EF84
:1053EE002AF0000E026E200E016E11C003F012C0E4
:1053FE0004F05DEC26F0184A192A1A50185C195060
:10540E00800A176E1B50800A1758D8A011EF2AF089
:10541E0013EF2AF0F8EF29F013C00AF014C00BF0C6
:10542E0011C00CF012C00DF079EC2EF01200000E2F
:10543E000C6E000E0B6E09500A10D8B429EF2AF02C
:10544E002BEF2AF053EF2AF0010E0D6E33EF2AF0F8
:10545E00D89009360A360D2A0AAE38EF2AF03AEFFE
:10546E002AF02FEF2AF0D8900B360C360950075C35
:10547E000A500858D8A046EF2AF048EF2AF04DEF10
:10548E002AF00950075E0A50085A0B80D8900A324B
:10549E0009320D2E3AEF2AF00BC007F00CC008F0BF
:1054AE001200610E1A6E010E1B6E580E1C6E010E4E
:1054BE001D6E7CEC2BF0610E146E010E156E580EE7
:1054CE00166E010E176EA2EC29F020C014F021C04A
:1054DE0015F022C016F023C017F00FEC29F0290E9C
:1054EE00256E960E246E7F0EE82EFED7242EFCD748
:1054FE00252EFAD700F0610E146E010E156E580EA1
:10550E00166E010E176EA2EC29F0120004BE9CEF6F
:10551E002AF004500310021006E10104D8B09AEFED
:10552E002AF09CEF2AF0B7EF2AF001C005F002C076
:10553E0006F003C007F004C008F0051E061E071E85
:10554E00081E052A000E06220722082205C001F0B9
:10555E0006C002F007C003F008C004F0BFEF2AF047
:10556E0001C001F002C002F003C003F004C004F059
:10557E001200610E1A6E010E1B6E580E1C6E010E7D
:10558E001D6E7CEC2BF0610E1A6E010E1B6E580E0A
:10559E001C6E010E1D6EE6EC2DF0610E1A6E010EE4
:1055AE001B6E580E1C6E010E1D6EE6EC2DF0610E7C
:1055BE001A6E010E1B6E580E1C6E010E1D6EE6EC61
:1055CE002DF0610E1A6E010E1B6E580E1C6E010E22
:1055DE001D6EE6EC2DF0120047EC2DF00CC0D9FF3D
:1055EE000DC0DAFF05C0DEFF06C0DDFF97EC2DF023
:1055FE0020EE04F00C50D9260D50DA2205C0DEFF45
:10560E0006C0DDFF6FEC2DF020EE02F00C50D92617
:10561E000D50DA2205C0DEFF06C0DDFF1FEC2DF0B7
:10562E0020EE06F00C50D9260D50DA2205C0DEFF12
:10563E0006C0DDFF12001AC014F01BC015F01CC00E
:10564E0016F01DC017F00FEC29F0A30E1F6E570EAB
:10565E001E6E020EE82EFED71E2EFCD71F2EFAD778
:10566E0000D0610E146E010E156E580E166E010EE0
:10567E00176EA2EC29F0050E1F6E0F0E1E6EF10EA8
:10568E00E82EFED71E2EFCD71F2EFAD700F01200E2
:10569E001AC014F01BC015F01CC016F01DC017F078
:1056AE00C0EC28F0A30E1F6E570E1E6E020EE82ED3
:1056BE00FED71E2EFCD71F2EFAD700D0610E146E09
:1056CE00010E156E580E166E010E176EA2EC29F015
:1056DE00050E1F6E0F0E1E6EF10EE82EFED71E2E3D
:1056EE00FCD71F2EFAD700F012001AC014F01BC000
:1056FE0015F01CC016F01DC017F0C0EC28F0110EEE
:10570E001F6E3C0E1E6ECB0EE82EFED71E2EFCD745
:10571E001F2EFAD700F0610E146E010E156E580E84
:10572E00166E010E176EA2EC29F0050E1F6E0F0EEF
:10573E001E6EF10EE82EFED71E2EFCD71F2EFAD7A8
:10574E0000F012001AC014F01BC015F01CC016F0A9
:10575E001DC017F00FEC29F0520E1F6E2B0E1E6E91
:10576E00000EE82EFED71E2EFCD71F2EFAD700D025
:10577E00610E146E010E156E580E166E010E176E1A
:10578E00A2EC29F0050E1F6E0F0E1E6EF10EE82E06
:10579E00FED71E2EFCD71F2EFAD700F01200AAC07D
:1057AE00AEF0ABC0AFF0EBEF2BF0A8C095F0A9C0F8
:1057BE0096F0AE0E0001976F000E986FACC099F088
:1057CE00ADC09AF0A8EC1BF0AEC0F6FFAFC0F7FF6D
:1057DE00000EF86E0800F5500009D8A4F9EF2BF072
:1057EE00FBEF2BF0DCEF2BF0000E0001A96F000E8B
:1057FE00A86F1200B40E0001C46F000EC56FB0C0CA
:10580E00C6F0B1C0C7F0000ECA6F000EC96F000E11
:10581E00D06F000ECF6FC60EA86F000EA96FB2C06C
:10582E00AAF0B3C0ABF0C40EAC6F000EAD6FD6ECE9
:10583E002BF00001C951B025D96ECA51B121DA6ED3
:10584E00000EDF6E1200610E1A6E010E1B6E580EE8
:10585E001C6E010E1D6E7CEC2BF0610E1A6E010E8D
:10586E001B6E580E1C6E010E1D6EE6EC2DF0610EB9
:10587E001A6E010E1B6E580E1C6E010E1D6EE6EC9E
:10588E002DF0610E1A6E010E1B6E580E1C6E010E5F
:10589E001D6EE6EC2DF01200610E1A6E010E1B6EDF
:1058AE00580E1C6E010E1D6E7CEC2BF0610E1A6EE6
:1058BE00010E1B6E580E1C6E010E1D6E0DEC2EF0A1
:1058CE00610E1A6E010E1B6E580E1C6E010E1D6EB1
:1058DE000DEC2EF0610E1A6E010E1B6E580E1C6E24
:1058EE00010E1D6E0DEC2EF0120085EC2FF0010E48
:1058FE00036E000ED4EC2FF03F0E056E550EE82E03
:10590E00FED7052EFCD700F0030E036E000ED4EC6E
:10591E002FF0D50E036E010ED4EC2FF0000E036E99
:10592E000F0ED4EC2FF087928198869E84968498E1
:10593E007F927E9E79987C967C981200610E1A6EEC
:10594E00010E1B6E580E1C6E010E1D6E7CEC2BF0A4
:10595E00610E1A6E010E1B6E580E1C6E010E1D6E20
:10596E004FEC2BF0610E1A6E010E1B6E580E1C6E54
:10597E00010E1D6EE6EC2DF0610E1A6E010E1B6E01
:10598E00580E1C6E010E1D6EE6EC2DF01200610E0F
:10599E001A6E010E1B6E580E1C6E010E1D6E7CECE7
:1059AE002BF0610E1A6E010E1B6E580E1C6E010E40
:1059BE001D6E4FEC2BF0610E1A6E010E1B6E580E03
:1059CE001C6E010E1D6E0DEC2EF0610E1A6E010E88
:1059DE001B6E580E1C6E010E1D6E0DEC2EF012007D
:1059EE0003C009F004C00AF001C007F002C008F0BD
:1059FE0011EF2DF009C0D9FF0AC0DAFFDF500B6E90
:105A0E00094A0A2A07C0D9FF08C0DAFF0BC0DFFF18
:105A1E00074A082A0506D8A00606052806E1062824
:105A2E00D8A41CEF2DF01EEF2DF001EF2DF012007B
:105A3E0025EC30F0520E0FEC30F0B40E0FEC30F0CF
:105A4E001BEC30F0530E0FEC30F0010E9BEC2EF0F1
:105A5E00076E07500A6E0B6A000E9BEC2EF0076E57
:105A6E000750096E086A0A5008100A6E0B5009108A
:105A7E000B6E20EC30F00AC005F00BC006F01200E1
:105A8E0025EC30F0520E0FEC30F0B60E0FEC30F07D
:105A9E001BEC30F0530E0FEC30F0010E9BEC2EF0A1
:105AAE00076E07500A6E0B6A000E9BEC2EF0076E07
:105ABE000750096E086A0A5008100A6E0B5009103A
:105ACE000B6E20EC30F00AC005F00BC006F0120091
:105ADE0025EC30F0520E0FEC30F0B80E0FEC30F02B
:105AEE001BEC30F0530E0FEC30F0010E9BEC2EF051
:105AFE00076E07500A6E0B6A000E9BEC2EF0076EB7
:105B0E000750096E086A0A5008100A6E0B500910E9
:105B1E000B6E20EC30F00AC005F00BC006F0120040
:105B2E0025EC30F0520E0FEC30F0BA0E0FEC30F0D8
:105B3E001BEC30F0530E0FEC30F0010E9BEC2EF000
:105B4E00076E07500A6E0B6A000E9BEC2EF0076E66
:105B5E000750096E086A0A5008100A6E0B50091099
:105B6E000B6E20EC30F00AC005F00BC006F01200F0
:105B7E00540EF66E600EF76E000EF86E00EEF0F03C
:105B8E0010EE06F00900F5CFEEFFE550E150FAE118
:105B9E0002EE00F0F00EEE6AE806FDE101EE00F016
:105BAE00720EEE6AE806FDE100EED3F01D0EEE6A0F
:105BBE00E806FDE15F905F92000137EF11F01AC029
:105BCE0014F01BC015F01CC016F01DC017F022EC0F
:105BDE0028F0F2C001F0F3C002F052EC2FF0610E8B
:105BEE00146E010E156E580E166E010E176EA2EC87
:105BFE0029F0050E1F6E0F0E1E6EF10EE82EFED74B
:105C0E001E2EFCD71F2EFAD700F012001AC014F069
:105C1E001BC015F01CC016F01DC017F071EC28F05B
:105C2E00F2C001F0F3C002F052EC2FF0610E146ED0
:105C3E00010E156E580E166E010E176EA2EC29F09F
:105C4E00050E1F6E0F0E1E6EF10EE82EFED71E2EC7
:105C5E00FCD71F2EFAD700F01200000E2E1A000EDF
:105C6E002F1A000E301A800E311A2AC001F02BC0E6
:105C7E0002F02CC003F02DC004F02EC005F02FC092
:105C8E0006F030C007F031C008F0CFEC13F001C0C1
:105C9E002AF002C02BF003C02CF004C02DF012002D
:105CAE0003C005F004C006F001C007F002C008F002
:105CBE0005C0F6FF06C0F7FF054A062A000EF86E6D
:105CCE0007C0D9FF08C0DAFF074A082A0800F5CF37
:105CDE00DFFFDF50D8A476EF2EF078EF2EF05FEFD7
:105CEE002EF01200000E106E000E0F6E8AEF2EF0C8
:105CFE000EC001F0026A0CC003F00DC004F05DECA2
:105D0E0026F00F4A102A0F500A24D96E10500B207D
:105D1E00DA6EDF500E6E0E50D8A498EF2EF09AEF7A
:105D2E002EF07FEF2EF01200036E9AEC2FF00E0184
:105D3E00DA879AEC2FF0D5CE04F09AEC2FF00350C0
:105D4E00D8B4ACEF2EF0B0EF2EF0026A022AB1EF0B
:105D5E002EF0026A023A02460E01DA510218DF0BE9
:105D6E000218DA6FDA890450120014BEC9EF2EF051
:105D7E00145006E11304D8B0C7EF2EF0C9EF2EF081
:105D8E00D7EF2EF013C015F014C016F0151E161E08
:105D9E00154A162A15C013F016C014F0DBEF2EF0BC
:105DAE0013C013F014C014F01200610E1A6E010E1F
:105DBE001B6E580E1C6E010E1D6E7CEC2BF0610ED0
:105DCE001A6E010E1B6E580E1C6E010E1D6EE6EC49
:105DDE002DF0610E1A6E010E1B6E580E1C6E010E0A
:105DEE001D6EE6EC2DF01200610E1A6E010E1B6E8A
:105DFE00580E1C6E010E1D6E7CEC2BF0610E1A6E91
:105E0E00010E1B6E580E1C6E010E1D6E0DEC2EF04B
:105E1E00610E1A6E010E1B6E580E1C6E010E1D6E5B
:105E2E000DEC2EF012000150021003100410D8B425
:105E3E0023EF2FF025EF2FF02DEF2FF0000E011A8C
:105E4E00000E021A000E031A800E041A01C001F091
:105E5E0002C002F003C003F004C004F01200000EF2
:105E6E00056E000E046E46EF2FF00B0E036E620EE3
:105E7E00E82EFED7032EFCD700D0044A052A015087
:105E8E00045C02500558D8A04FEF2FF051EF2FF0C1
:105E9E003CEF2FF012005FEF2FF0150E036EC60EC3
:105EAE00E82EFED7032EFCD700D00106D8A002069E
:105EBE0002BE6CEF2FF0025006E10104D8B06AEF7B
:105ECE002FF06CEF2FF054EF2FF0120078EF2FF031
:105EDE0002C0D9FF03C0DAFFDF5003EC30F0024AF4
:105EEE00032A02C0D9FF03C0DAFFDF50D8A482EF25
:105EFE002FF084EF2FF06FEF2FF012000E01D9511B
:105F0E00F00B0809D96FD98B9F0ED66F848A848CBB
:105F1E00A79BA79D1D0E1D6F1E0E1C6F1C0E6F6F77
:105F2E001B0E706F12000E01D8B5A0EF2FF0A2EF6E
:105F3E002FF09AEF2FF0DACE01F01F0E0116D8A433
:105F4E00ABEF2FF0ADEF2FF09AEF2FF01200D350F2
:105F5E00D450026E016AD89001011435D96E1535F0
:105F6E00DA6E3C0ED926020EDA2201C0DEFF02C026
:105F7E00DDFF120001500302F3CF05F0F4CF06F05F
:105F8E0001500402F350062602500302F350062677
:105F9E0005C001F006C002F01200046E25EC30F0D0
:105FAE00520E0FEC30F0045080090FEC30F003501D
:105FBE000FEC30F020EC30F01200D6501F0B4009E1
:105FCE00D66ED688D650F00B0D09D66ED588000E3B
:105FDE00D46E000ED36ED59E1200120E0E01626F9D
:105FEE00110E156FE997E895330EE56F000EE66F0B
:105FFE00E789E88BE78F1200016E0E0137A50AEFD5
:10600E0030F00CEF30F004EF30F001C0E4FE12007F
:10601E00026E9AEC2FF002C0D5FE1200F29AF29C9C
:10602E00F28E0E01298B12009AEC2FF00E01DA83FC
:10603E0012009AEC2FF00E01DA8512009AEC2FF076
:0E604E000E01DA811200D007DC001E001200E5
:020000040020DA
:10000000FF0FFF0FFF0FFF0FFF0FFF0FFF0FFF0F80
:020000040030CA
:0C000000AAFFFFFF9FFFFFFFFFFFFFFFB5
:00000001FF
