:0400000014EF00F009
:100008005D820E0133A30BEF00F00DEF00F012EF4D
:1000180000F0B0EC1FF07C8E0E0133935D9211005E
:04002800E3EF1DF0F5
:100E0000007265643D256620677265656E3D2566E6
:100E100020626C75653D2566206C756D3D25640D01
:0B0E20000A00696E66006E616E000043
:100E2C00000E0001816F32C084F033C085F034C0F5
:100E3C0086F035C087F087BF28EF07F026EF07F064
:100E4C003CEF07F0010E816F84C003F085C004F005
:100E5C0086C005F087C006F0B1EC1EF003C084F02C
:100E6C0004C085F005C086F006C087F0000E0001B6
:100E7C00836F000E826FEDC071F0EEC072F0815185
:100E8C00D8B44BEF07F04DEF07F061EF07F081514D
:100E9C00D8A453EF07F055EF07F05BEF07F0000E07
:100EAC00676F2B0E666F5FEF07F0000E676F2D0EEE
:100EBC00666F66C081F084C003F085C004F086C004
:100ECC0005F087C006F0C7EC1AF003040410D8A490
:100EDC0072EF07F074EF07F0A7EF07F000018151F4
:100EEC00D8B47BEF07F07DEF07F086EF07F081C0F9
:100EFC0050F17107D8A07207000E836F010E826F3C
:100F0C00500E8225036E010E8321046E220E056E97
:100F1C000E0E066E2CEC1EF00001FD0E7127FF0E5E
:100F2C00722330C013F031C014F0500E156E010E48
:100F3C00166E71C017F072C018F000EC1CF013EFB5
:100F4C000CF084C003F085C004F086C005F087C0A7
:100F5C0006F0C7EC1AF003500410D8A4B8EF07F051
:100F6C00BAEF07F0DAEF07F000018151D8B4C1EF06
:100F7C0007F0C3EF07F0CCEF07F081C050F1710719
:100F8C00D8A07207000E836F010E826F500E82255F
:100F9C00036E010E8321046E260E056E0E0E066E78
:100FAC002CEC1EF092EF07F0000E0001886F000E83
:100FBC00896F800E8A6F3F0E8B6F000E706F000E64
:100FCC006F6F84C003F085C004F086C005F087C045
:100FDC0006F0000E076E000E086E000E096E000E75
:100FEC000A6EABEC1BF0D8B0FEEF07F000EF08F088
:100FFC00DFEF08F00DEF08F073C088F074C089F0D3
:10100C0075C08AF076C08BF000016F4B702B88C0D6
:10101C0003F089C004F08AC005F08BC006F0000E06
:10102C00076E000E086E200E096E410E0A6E74ECEF
:10103C000EF003C073F004C074F005C075F006C068
:10104C0076F000017351845D036E74518559046E02
:10105C0075518659056E76518759066E3DEC1CF01C
:10106C0006BE44EF08F006500510041009E1020E0C
:10107C00035CD8A044EF08F046EF08F002EF08F04C
:10108C0073C01CF074C01DF075C01EF076C01FF04C
:10109C0084C020F085C021F086C022F087C023F0E8
:1010AC0045EC1AF0D8A05DEF08F05FEF08F002EF06
:1010BC0008F000018851845D036E89518559046ED6
:1010CC008A518659056E8B518759066E3DEC1CF082
:1010DC0006BE7EEF08F006500510041007E1020E64
:1010EC00035CD8B07CEF08F07EEF08F0C6EF08F098
:1010FC0088C084F089C085F08AC086F08BC087F0E8
:10110C00DFEF08F088C003F089C004F08AC005F056
:10111C008BC006F0000E076E000E086E200E096ED6
:10112C00410E0A6E89EC10F003C088F004C089F0FF
:10113C0005C08AF006C08BF000016F07D8A07007BD
:10114C008851845D036E89518559046E8A51865984
:10115C00056E8B518759066E3DEC1CF006BEC4EF34
:10116C0008F006500510041007E1020E035CD8B01D
:10117C00C2EF08F0C4EF08F0C6EF08F07EEF08F0FD
:10118C0084C01CF085C01DF086C01EF087C01FF007
:10119C0088C020F089C021F08AC022F08BC023F0D7
:1011AC0045EC1AF0D8A0DDEF08F0DFEF08F088EF7F
:1011BC0008F036C069F069C06AF057BEE8EF08F075
:1011CC00EAEF08F0F0EF08F056C062F057C063F099
:1011DC00F5EF08F0000E0001636F060E626F62C03F
:1011EC006DF063C06EF000016D4B6E2B660E6A19CC
:1011FC00D8A403EF09F005EF09F025EF09F070BF53
:10120C000CEF09F00AEF09F018EF09F0000E886FE7
:10121C00000E896F800E8A6F3F0E8B6F000E706F01
:10122C00000E6F6F670E6919D8B41FEF09F021EF2C
:10123C0009F025EF09F06F516D2770516E23000EE8
:10124C00786F000E776F84C079F085C07AF086C015
:10125C007BF087C07CF088C073F089C074F08AC0C2
:10126C0075F08BC076F0B6EF09F079C003F07AC058
:10127C0004F07BC005F07CC006F088C007F089C084
:10128C0008F08AC009F08BC00AF089EC10F003C09A
:10129C001CF004C01DF005C01EF006C01FF017ECBA
:1012AC0015F01CC07DF01DC07EF01EC07FF01FC06D
:1012BC0080F07DC003F07EC004F07FC005F080C0DC
:1012CC0006F0C2EC19F003C06BF004C06CF079C0EE
:1012DC001CF07AC01DF07BC01EF07CC01FF07DC0DE
:1012EC0007F07EC008F07FC009F080C00AF088C00B
:1012FC0003F089C004F08AC005F08BC006F074ECD2
:10130C000EF003C020F004C021F005C022F006C08E
:10131C0023F009EC1EF01CC079F01DC07AF01EC041
:10132C007BF01FC07CF088C003F089C004F08AC039
:10133C0005F08BC006F0000E076E000E086E200E36
:10134C00096E410E0A6E89EC10F003C088F004C0DF
:10135C0089F005C08AF006C08BF00001774B782B22
:10136C006D51775D7851800A376E6E51800A37580F
:10137C00D8A0C3EF09F0C5EF09F03BEF09F088C026
:10138C0003F089C004F08AC005F08BC006F0000E93
:10139C00076E000E086EA00E096E400E0A6E74ECFD
:1013AC000EF003C07DF004C07EF005C07FF006C0D7
:1013BC0080F079C01CF07AC01DF07BC01EF07CC0A0
:1013CC001FF07DC020F07EC021F07FC022F080C0D5
:1013DC0023F045EC1AF0D8B0F6EF09F0F8EF09F06D
:1013EC0003EF0AF0000E00017D6F000E7E6F000E01
:1013FC007F6F000E806F2CEF0AF079C003F07AC07B
:10140C0004F07BC005F07CC006F07DC007F07EC008
:10141C0008F07FC009F080C00AF0ABEC1BF0D8A03C
:10142C001AEF0AF01CEF0AF02CEF0AF000016BB176
:10143C0022EF0AF024EF0AF02CEF0AF0000E7D6F79
:10144C00000E7E6F000E7F6F000E806F84C003F065
:10145C0085C004F086C005F087C006F07DC007F09B
:10146C007EC008F07FC009F080C00AF014EC0CF0CC
:10147C0003C079F004C07AF005C07BF006C07CF0A4
:10148C0079C01CF07AC01DF07BC01EF07CC01FF030
:10149C00000E076E000E086E200E096E410E0A6ECD
:1014AC0073C003F074C004F075C005F076C006F08C
:1014BC0074EC0EF003C020F004C021F005C022F043
:1014CC0006C023F045EC1AF0D8A06FEF0AF071EFCC
:1014DC000AF09AEF0AF000016F4B702B73C003F007
:1014EC0074C004F075C005F076C006F0000E076EEF
:1014FC00000E086E200E096E410E0A6E74EC0EF092
:10150C0003C073F004C074F005C075F006C076F02B
:10151C00660E00016A19D8A496EF0AF098EF0AF04B
:10152C009AEF0AF06D4B6E2B73C088F074C089F083
:10153C0075C08AF076C08BF06FC060F070C061F03F
:10154C00000E0001686F000E656F000E646F000ED8
:10155C00786F000E776F98EF0BF079C003F07AC0BC
:10156C0004F07BC005F07CC006F088C007F089C091
:10157C0008F08AC009F08BC00AF089EC10F003C0A7
:10158C001CF004C01DF005C01EF006C01FF017ECC7
:10159C0015F01CC07DF01DC07EF01EC07FF01FC07A
:1015AC0080F07DC003F07EC004F07FC005F080C0E9
:1015BC0006F0C2EC19F004BEEFEF0AF0045007E19C
:1015CC000A0E035CD8B0EDEF0AF0EFEF0AF0FFEF74
:1015DC000AF07DC003F07EC004F07FC005F080C02F
:1015EC0006F0C2EC19F003C06BF004C06CF004EF11
:1015FC000BF0000E00016C6F090E6B6F000168514F
:10160C00D8A40BEF0BF00DEF0BF035EF0BF061BF27
:10161C0014EF0BF012EF0BF035EF0BF0500E8225A0
:10162C00D96E010E8321DA6E2E0EDF6E824B832B68
:10163C007107D8A07207010E686F35EF0BF0500ED2
:10164C008225D96E010E8321DA6E300EDF6E824B4D
:10165C00832B7107D8A072076407D8A06507645163
:10166C006511D8A43CEF0BF03EEF0BF025EF0BF01F
:10167C00500E8225D96E010E8321DA6E6B51300F1C
:10168C00DF6E824B832B7107D8A0720779C01CF0D8
:10169C007AC01DF07BC01EF07CC01FF07DC007F02F
:1016AC007EC008F07FC009F080C00AF088C003F04B
:1016BC0089C004F08AC005F08BC006F074EC0EF003
:1016CC0003C020F004C021F005C022F006C023F0B6
:1016DC0009EC1EF01CC079F01DC07AF01EC07BF026
:1016EC001FC07CF088C003F089C004F08AC005F0EC
:1016FC008BC006F0000E076E000E086E200E096EF1
:10170C00410E0A6E89EC10F003C088F004C089F019
:10171C0005C08AF006C08BF000016007D8A06107F5
:10172C00774B782B6D51775D7851800A376E6E51FF
:10173C00800A3758D8B0A5EF0BF0A7EF0BF0B5EF38
:10174C000BF083BFB3EF0BF0835109E14B0E825DBD
:10175C00D8A0B3EF0BF0B5EF0BF0B3EF0AF0000E1F
:10176C00786F4F0E776F500E7725D96E010E78215A
:10177C00DA6E000EDF6E500E376E010E386E82512F
:10178C00375E8351385A77513724036E785138209D
:10179C00046E500E056E010E066E82C007F083C0FB
:1017AC0008F01BEC1DF000018251775D826F8351B4
:1017BC007859836F8151D8A4E6EF0BF0E9EF0BF069
:1017CC00010EEAEF0BF0000E776F786B8151D8B4F5
:1017DC00F2EF0BF0F4EF0BF0FFEF0BF08207D8A059
:1017EC008307500E8225D96E010E8321DA6E81C0DB
:1017FC00DFFF7751715F7851725B30C013F031C0ED
:10180C0014F0500E8225156E010E8321166E71C0D8
:10181C0017F072C018F000EC1CF012000650800B90
:10182C000F6E06500624116E05AE1FEF0CF021EF63
:10183C000CF022EF0CF011801150D8B428EF0CF002
:10184C002AEF0CF03FEF0CF01128D8A430EF0CF07D
:10185C0032EF0CF03AEF0CF0000E036E000E046E3B
:10186C00000E056E000E066E058E000E066E47EF1E
:10187C000CF0000E036E000E046E000E056E000ED2
:10188C00066E0A50800B106E0F501018D8B451EF22
:10189C000CF053EF0CF054EF0CF00F8C0A500A24A0
:1018AC00106E09AE5CEF0CF05EEF0CF05FEF0CF01D
:1018BC0010801050D8B465EF0CF067EF0CF07CEF93
:1018CC000CF01028D8A46DEF0CF06FEF0CF077EF44
:1018DC000CF0000E076E000E086E000E096E000E66
:1018EC000A6E098E000E0A6E84EF0CF0000E076E65
:1018FC00000E086E000E096E000E0A6E1150105C80
:10190C00D8B08BEF0CF08DEF0CF0B4EF0CF00FACFB
:10191C0092EF0CF094EF0CF096EF0CF0800E0F1A87
:10192C0011C012F010C011F012C010F003C012F070
:10193C0007C003F012C007F004C012F008C004F096
:10194C0012C008F005C012F009C005F012C009F071
:10195C0006C012F00AC006F012C00AF0000E126E99
:10196C00115010C00BF00C6A0B5E000E0C5A0CBE22
:10197C00C9EF0CF00C5009E11A0E0B5CD8A0C9EFA2
:10198C000CF0CBEF0CF002EF0DF00350041005102F
:10199C000610D8A4D4EF0CF0D7EF0CF0010ED8EF52
:1019AC000CF0000E126E000E036E000E046E000E94
:1019BC00056E000E066E10C011F00BEF0DF012A0AC
:1019CC00EAEF0CF0ECEF0CF0F2EF0CF0D8901230D8
:1019DC000109126EF4EF0CF0D890123203A0F9EF5B
:1019EC000CF0FBEF0CF0FCEF0CF0128E0634063210
:1019FC00053204320332112A1050115CD8A009EFC1
:101A0C000DF00BEF0DF0E5EF0CF00FBC10EF0DF03F
:101A1C0012EF0DF052EF0DF01150D8A418EF0DF09D
:101A2C001AEF0DF024EF0DF0000E036E000E046E95
:101A3C00000E056E000E066E73EF0EF007500326B7
:101A4C0008500422095005220A50062206A031EF44
:101A5C000DF033EF0DF0DFEF0DF012A038EF0DF0BD
:101A6C003AEF0DF040EF0DF0D89012300109126EE4
:101A7C0042EF0DF0D890123203A047EF0DF049EF72
:101A8C000DF04AEF0DF0128E063406320532043298
:101A9C000332112ADFEF0DF00750035C0850045895
:101AAC00095005580650800A0B6E0A50800A0B58D4
:101ABC00D8B063EF0DF065EF0DF090EF0DF0035023
:101ACC00075C0B6E045008580C6E055009580D6ECF
:101ADC0006500A580E6EFF0E0B24036EFF0E0C20E0
:101AEC00046EFF0E0D20056EFF0E0E20066E800E8E
:101AFC000F1A126C1250D8A486EF0DF088EF0DF06F
:101B0C0098EF0DF0010E0326000E0422052206228A
:101B1C0098EF0DF00750035E0850045A0950055A0F
:101B2C000A50065A0350041005100610D8A4A1EF51
:101B3C000DF0A3EF0DF0D8EF0DF01250D8A4A9EFD3
:101B4C000DF0ABEF0DF0D8EF0DF0000E036E000EA4
:101B5C00046E000E056E000E066E73EF0EF0D8903C
:101B6C00033604360536063612AEBFEF0DF0C1EF64
:101B7C000DF0C2EF0DF0038012A0C7EF0DF0C9EF0E
:101B8C000DF0CDEF0DF0D8801236CFEF0DF0D890D0
:101B9C0012361150D8B4D5EF0DF0D7EF0DF0D8EFB9
:101BAC000DF0110605AEDDEF0DF0DFEF0DF0B5EF2A
:101BBC000DF0000E106E12AEE6EF0DF0E8EF0DF02A
:101BCC0000EF0EF012C00BF07F0E0B16D8B4F1EF35
:101BDC000DF0F3EF0DF0F7EF0DF0010E106E00EFBE
:101BEC000EF003A0FCEF0DF0FEEF0DF000EF0EF089
:101BFC00F3EF0DF01050D8B406EF0EF008EF0EF026
:101C0C0033EF0EF0010E0326000E042205220622ED
:101C1C0006A013EF0EF015EF0EF033EF0EF003C02D
:101C2C000BF004C00CF005C00DF006C00EF00E3425
:101C3C000E320D320C320B320BC003F00CC004F020
:101C4C000DC005F00EC006F01128D8B430EF0EF020
:101C5C0032EF0EF033EF0EF0112A1128D8B439EF11
:101C6C000EF03BEF0EF043EF0EF01150D8A441EF05
:101C7C000EF043EF0EF055EF0EF0000E036E000E5B
:101C8C00046E000E056E000E066E1150D8A451EFB6
:101C9C000EF053EF0EF055EF0EF0000E0F6E11A07C
:101CAC005AEF0EF05CEF0EF05FEF0EF0058E60EF6A
:101CBC000EF0059ED8901130066E0FAE68EF0EF048
:101CCC006AEF0EF06BEF0EF0068E03C003F004C04B
:101CDC0004F005C005F006C006F012000650800B9B
:101CEC000F6E06500624156E05AE7FEF0EF081EFD9
:101CFC000EF082EF0EF015801550D8B488EF0EF070
:101D0C008AEF0EF09DEF0EF01528D8A490EF0EF090
:101D1C0092EF0EF09AEF0EF0000E036E000E046EB2
:101D2C00000E056E000E066E058EA5EF0EF0000E71
:101D3C00036E000E046E000E056E000E066E0A5049
:101D4C00800B0F1A0A500A24146E09AEB0EF0EF075
:101D5C00B2EF0EF0B3EF0EF014801450D8B4B9EF0C
:101D6C000EF0BBEF0EF0CEEF0EF01428D8A4C1EF9E
:101D7C000EF0C3EF0EF0CBEF0EF0000E076E000E60
:101D8C00086E000E096E000E0A6E098ED6EF0EF06C
:101D9C00000E076E000E086E000E096E000E0A6E25
:101DAC001450D8B4DCEF0EF0DEEF0EF0E6EF0EF0D0
:101DBC001550D8A4E4EF0EF0E6EF0EF0F0EF0EF0B5
:101DCC00000E036E000E046E000E056E000E066E05
:101DDC0088EF10F009500302F3CF1AF0F4CF1BF088
:101DEC001A50106E116A126A136A1B50166E176A1B
:101DFC00186A196A08500402F3CF1AF0F4CF1BF0DA
:101E0C001A501026000E1122122213221B501626D5
:101E1C00000E17221822192207500502F3CF1AF0D0
:101E2C00F4CF1BF01A501026000E1122122213228E
:101E3C001B501626000E17221822192212C013F05E
:101E4C0011C012F010C011F0106A07500402F3CF49
:101E5C001AF0F4CF1BF01A5010261B501122000E52
:101E6C001222000E132208500302F3CF1AF0F4CF03
:101E7C001BF01A5010261B501122000E1222000EBD
:101E8C00132212C013F011C012F010C011F0106A1E
:101E9C0007500302F3CF1AF0F4CF1BF01A501026A0
:101EAC001B501122000E1222000E132209500402A4
:101EBC00F3CF1AF0F4CF1BF01A5016261B50172232
:101ECC00000E1822000E192208500502F3CF1AF04A
:101EDC00F4CF1BF01A5016261B501722000E182296
:101EEC00000E192209500502F3CF1AF0F4CF1BF0A3
:101EFC001A500B6E1B500C6E0D6A0E6A0DC00EF054
:101F0C000CC00DF00BC00CF00B6A0B5016260C50CD
:101F1C0017220D5018220E50192210C00BF011C0B0
:101F2C000CF012C00DF013C00EF0190EA3EF0FF051
:101F3C00D8900E320D320C320B32E82E9EEF0FF091
:101F4C000B5016260C5017220D5018220E50192229
:101F5C0012C013F011C012F010C011F0106A14501E
:101F6C0015C00BF00C6A0B26000E0C22820E0B24F3
:101F7C001A6EFF0E0C201B6ED9EF0FF0D890163690
:101F8C0017361836193613AECEEF0FF0D0EF0FF020
:101F9C00D1EF0FF01680D89010361136123613365A
:101FAC001A06D8A01B0618AEDEEF0FF0E0EF0FF00C
:101FBC00C4EF0FF0000E146E13AEE7EF0FF0E9EF65
:101FCC000FF00DEF10F0FF0E10140B6EFF0E11142E
:101FDC000C6EFF0E12140D6E7F0E13140E6E0B5042
:101FEC000C100D100E10D8B4FEEF0FF000EF10F027
:101FFC0004EF10F0010E146E0DEF10F016A009EFA7
:10200C0010F00BEF10F00DEF10F000EF10F014507B
:10201C00D8B413EF10F015EF10F039EF10F0010EEB
:10202C001626000E17221822192219A020EF10F0E4
:10203C0022EF10F039EF10F016C00BF017C00CF0B7
:10204C0018C00DF019C00EF00E340E320D320C32D9
:10205C000B320BC016F00CC017F00DC018F00EC0F0
:10206C0019F01A4A1B2A1BBE44EF10F01B5008E152
:10207C001A28D8A044EF10F046EF10F050EF10F0F3
:10208C00000E166E000E176E800E186E7F0E196EF7
:10209C007EEF10F01BBE5DEF10F01B5006E11A0432
:1020AC00D8B05BEF10F05DEF10F069EF10F0000EA0
:1020BC00166E000E176E000E186E000E196E000EC6
:1020CC000F6E7EEF10F01AC015F0FF0E1616FF0EF5
:1020DC0017167F0E1816000E191615A078EF10F0B3
:1020EC007AEF10F07BEF10F0188ED8901530196E37
:1020FC000F50191216C003F017C004F018C005F0E9
:10210C0019C006F012000650800B136E0650062400
:10211C001A6E05AE94EF10F096EF10F097EF10F0EA
:10212C001A801A50D8B49DEF10F09FEF10F0B4EF56
:10213C0010F01A28D8A4A5EF10F0A7EF10F0AFEF0D
:10214C0010F0000E036E000E046E000E056E000EF5
:10215C00066E058E000E066EBCEF10F0000E036EC0
:10216C00000E046E000E056E000E066E0A50800BFB
:10217C00131A0A500A241B6E09AEC7EF10F0C9EFF0
:10218C0010F0CAEF10F01B801B50D8B4D0EF10F039
:10219C00D2EF10F0E7EF10F01B28D8A4D8EF10F016
:1021AC00DAEF10F0E2EF10F0000E076E000E086E82
:1021BC00000E096E000E0A6E098E000E0A6EEFEF0D
:1021CC0010F0000E076E000E086E000E096E000E69
:1021DC000A6E0750081009100A10D8A4F8EF10F076
:1021EC00FAEF10F012EF11F0000E036E000E046EF9
:1021FC00000E056E000E066E800E05127F0E061286
:10220C001350061203C003F004C004F005C005F01F
:10221C0006C006F055EF12F01A50D8A418EF11F0C2
:10222C001AEF11F024EF11F0000E036E000E046E85
:10223C00000E056E000E066E55EF12F01B501AC004
:10224C000BF00C6A0B5E000E0C5A7F0E0B24146EF6
:10225C00000E0C20156E03C00FF004C010F005C06A
:10226C0011F006C012F0000E036E000E046E000E8C
:10227C00056E000E066E000E166E000E176E000E2A
:10228C00186E000E196E000E1B6E85EF11F01B50B0
:10229C00D8B453EF11F055EF11F06CEF11F0D8905A
:1022AC000F36103611361236D890033604360536F2
:1022BC00063619AE64EF11F066EF11F067EF11F00E
:1022CC000380D890163617361836193607500F5C1F
:1022DC0008501058095011580A501258D8A079EFCC
:1022EC0011F07BEF11F084EF11F0198C07500F5E99
:1022FC000850105A0950115A0A50125A1B2A190E1A
:10230C001B648BEF11F08DEF11F04DEF11F00F50AE
:10231C00101011101210D8B496EF11F098EF11F0B4
:10232C00B0EF11F01680B0EF11F0D89003360436F0
:10233C000536063619AEA5EF11F0A7EF11F0A8EF90
:10234C0011F00380D8901636173618361936140645
:10235C00D8A0150605AEB5EF11F0B7EF11F09BEF55
:10236C0011F0000E1B6E19AEBEEF11F0C0EF11F0A4
:10237C00E4EF11F0FF0E16140B6EFF0E17140C6E1B
:10238C00FF0E18140D6E7F0E19140E6E0B500C10E0
:10239C000D100E10D8B4D5EF11F0D7EF11F0DBEF14
:1023AC0011F0010E1B6EE4EF11F003A0E0EF11F041
:1023BC00E2EF11F0E4EF11F0D7EF11F01B50D8B4AD
:1023CC00EAEF11F0ECEF11F010EF12F0010E032612
:1023DC00000E04220522062206A0F7EF11F0F9EFF9
:1023EC0011F010EF12F003C00BF004C00CF005C09C
:1023FC000DF006C00EF00E340E320D320C320B32D4
:10240C000BC003F00CC004F00DC005F00EC006F0BC
:10241C00144A152A15BE1BEF12F0155008E11428AA
:10242C00D8A01BEF12F01DEF12F028EF12F0000EE7
:10243C00156E1468000E036E000E046E000E056E11
:10244C00000E066E15BE35EF12F0155006E11404A1
:10245C00D8B033EF12F035EF12F043EF12F0000E5C
:10246C00156E000E146E000E036E000E046E000E40
:10247C00056E000E066E000E136E14C01AF01AA034
:10248C004AEF12F04CEF12F04FEF12F0058E50EFB6
:10249C0012F0059ED8901A30066E06EF11F012005D
:1024AC0043C0D9FF44C0DAFFDECFF6FFDDCFF7FF24
:1024BC00000EF86E0800F550250AD8A468EF12F04B
:1024CC006AEF12F0C2EF13F043C0D9FF44C0DAFF39
:1024DC00DE2A000EDD22000E0001EE6F000EED6F05
:1024EC00EDC058F05668576843C0D9FF44C0DAFFB6
:1024FC00DECF52F0DDCF53F052C0F6FF53C0F7FFE2
:10250C00000EF86E0800F550640AD8B490EF12F083
:10251C0092EF12F0A2EF12F052C0F6FF53C0F7FF89
:10252C00000EF86E0800F550690AD8A4A0EF12F05E
:10253C00A2EF12F0E5EF12F045C0D9FF46C0DAFF6A
:10254C00DFCF47F0020EDE26DFCF48F0000EDD2293
:10255C0047C0D9FF48C0DAFFDECF49F0DDCF4AF0E3
:10256C00000E4ABEFF0E4B6E4C6E4D6E4E6E4F6E95
:10257C00506E010E5224476E000E5320486E43C01D
:10258C00D9FF44C0DAFF47C0DEFF48C0DDFF41C0C1
:10259C001EF042C01FF049C020F04AC021F04BC0D1
:1025AC0022F04CC023F04DC024F04EC025F04FC09B
:1025BC0026F050C027F0D9EC13F0D8EF13F043C03D
:1025CC00D9FF44C0DAFFDECF52F0DDCF53F052C05A
:1025DC00F6FF53C0F7FF000EF86E0800F5CF51F070
:1025EC0004EF13F0524A532A1DEF13F06C0E516E88
:1025FC001DEF13F0000E516E1DEF13F05150476E8E
:10260C00486A4850000AD8B40EEF13F000EF13F0EC
:10261C0047504C0AD8B4F8EF12F02A0AD8B4FCEFA1
:10262C0012F00A0AD8B4F8EF12F000EF13F052C00F
:10263C00F6FF53C0F7FF000EF86E0800F550660A5F
:10264C00D8A42BEF13F02DEF13F0B9EF13F063EFC9
:10265C0013F045C0D9FF46C0DAFFDFCF47F0040EB8
:10266C00DE26DFCF48F0000EDD2247C0D9FF48C080
:10267C00DAFFDECF49F0DECF4AF0DECF4BF0DECF13
:10268C004CF078EF13F045C0D9FF46C0DAFFDFCF2E
:10269C0047F0040EDE26DFCF48F0000EDD2247C0E7
:1026AC00D9FF48C0DAFFDECF49F0DECF4AF0DECFEB
:1026BC004BF0DECF4CF078EF13F05150476E486A78
:1026CC004850000AD8B46DEF13F078EF13F0475070
:1026DC004C0AD8B449EF13F0200AD8B42FEF13F0FA
:1026EC0078EF13F0010E5224476E000E5320486E03
:1026FC0043C0D9FF44C0DAFF47C0DEFF48C0DDFF4E
:10270C00A1EF13F041C030F042C031F049C032F0BB
:10271C004AC033F04BC034F04CC035F052C0F6FF19
:10272C0053C0F7FF000EF86E0800F5CF36F016EC2C
:10273C0007F0D8EF13F052C0F6FF53C0F7FF000EAE
:10274C00F86E0800F550476E486A4850000AD8B435
:10275C00B2EF13F0B9EF13F04750660AD8B488EF14
:10276C0013F0B9EF13F043C0D9FF44C0DAFFDE2AEF
:10277C00000EDD22D8EF13F043C0D9FF44C0DAFFBE
:10278C00DECFF6FFDDCFF7FF000EF86E0800F55038
:10279C00036E046A41C005F042C006F046EC1BF023
:1027AC00B9EF13F0120020C036F021C037F022C070
:1027BC0038F023C039F024C03AF025C03BF026C0D5
:1027CC003CF027C03DF03DBEEEEF13F0F1EF13F0FF
:1027DC00010EF2EF13F0000E406E4050D8B4F9EF3A
:1027EC0013F0FBEF13F00BEF14F03D1E3C1E3B1EE1
:1027FC003A1E391E381E371E366C000E3722382210
:10280C0039223A223B223C223D2257BE18EF14F0CB
:10281C00575006E15604D8B016EF14F018EF14F028
:10282C001EEF14F0000E336E010E326E22EF14F018
:10283C0056C032F057C033F0EDC034F0EEC035F076
:10284C004050D8B42CEF14F02EEF14F045EF14F0E8
:10285C003406D8A035064050D8A437EF14F039EF21
:10286C0014F03FEF14F0000E316E2B0E306E43EF70
:10287C0014F0000E316E2D0E306E30C040F0000E94
:10288C003F6E4F0E3E6E000E01019F6FCAEF14F0AB
:10289C003E06D8A03F06500E3E24D96E010E3F20B6
:1028AC00DA6E36C003F037C004F038C005F039C01A
:1028BC0006F03AC007F03BC008F03CC009F03DC040
:1028CC000AF00A0E0B6E000E0C6E000E0D6E000E52
:1028DC000E6E000E0F6E000E106E000E116E000EBE
:1028EC00126E83EC18F003C028F004C029F005C068
:1028FC002AF006C02BF007C02CF008C02DF009C040
:10290C002EF00AC02FF028C015F029C016F091EC5B
:10291C001EF01550300FDF6E3206D8A03306340689
:10292C00D8A0350636C003F037C004F038C005F027
:10293C0039C006F03AC007F03BC008F03CC009F0C3
:10294C003DC00AF00A0E0B6E000E0C6E000E0D6EE2
:10295C00000E0E6E000E0F6E000E106E000E116E3D
:10296C00000E126EBFEC17F003C036F004C037F047
:10297C0005C038F006C039F007C03AF008C03BF08B
:10298C0009C03CF00AC03DF03FBED5EF14F03F50FB
:10299C0008E13E04D8A0D5EF14F0D7EF14F0F3EF14
:1029AC0014F036503710381039103A103B103C10D8
:1029BC003D10D8A4E4EF14F0E6EF14F04EEF14F051
:1029CC0033BEF3EF14F0335006E13204D8B0F1EF1C
:1029DC0014F0F3EF14F04EEF14F04050D8B4F9EFBC
:1029EC0014F0FBEF14F006EF15F03E06D8A03F06EE
:1029FC00500E3E24D96E010E3F20DA6E40C0DFFF30
:102A0C001EC013F01FC014F0500E3E24156E010EA4
:102A1C003F20166E34C017F035C018F000EC1CF0D7
:102A2C001200E5C02CF0E6C02DF0E7C02EF0E8C097
:102A3C002FF01CC02CF01DC02DF01EC02EF01FC09E
:102A4C002FF0810E206EFF0E216E2CC022F02DC0B7
:102A5C0023F02EC024F02FC025F0180E3BEF15F0FC
:102A6C00D8902532243223322232E82E36EF15F05C
:102A7C00225020242A6E000E21202B6E2BBE50EFEC
:102A8C0015F02B5009E1170E2A5CD8A050EF15F069
:102A9C0052EF15F05CEF15F01CC01CF01DC01DF0C2
:102AAC001EC01EF01FC01FF01FEF16F02BBE61EFF3
:102ABC0015F063EF15F0D3EF15F02AC020F0FF0EE0
:102ACC00216EFF0E226E7F0E236E000E246E20668A
:102ADC0072EF15F07AEF15F02434243223322232BF
:102AEC002132202E6DEF15F021C026F022C027F0E8
:102AFC0023C028F024C029F026502C14206E275017
:102B0C002D14216E28502E14226E29502F14236E52
:102B1C002050211022102310D8A497EF15F099EF14
:102B2C0015F09BEF15F052EF15F02CC020F02DC0D6
:102B3C0021F02EC022F02FC023F0200EABEF15F0A9
:102B4C00D8902332223221322032E82EA6EF15F013
:102B5C002050211022102310D8B4B7EF15F0B9EF84
:102B6C0015F0C1EF15F026502C2627502D22285099
:102B7C002E2229502F22261C206E271C216E281C49
:102B8C00226E291C236E20502C1621502D162250FB
:102B9C002E1623502F1617EF16F02CC020F02DC038
:102BAC0021F02EC022F02FC023F0200EE3EF15F001
:102BBC00D8902332223221322032E82EDEEF15F06B
:102BCC002050211022102310D8A4EFEF15F0F1EFB4
:102BDC0015F0FBEF15F0000E2C6E000E2D6E000E96
:102BEC002E6E000E2F6E17EF16F0D8902C34206E30
:102BFC002D34216E2E34226E2F34236E2050211052
:102C0C0022102310D8B40DEF16F00FEF16F017EFBB
:102C1C0016F0000E2C6E000E2D6E800E2E6EBF0E5A
:102C2C002F6E2CC01CF02DC01DF02EC01EF02FC01E
:102C3C001FF012000B6E0B50D8B427EF16F029EFD3
:102C4C0016F04BEF16F006BE30EF16F02EEF16F026
:102C5C004BEF16F003C007F004C008F005C009F0F4
:102C6C0006C00AF0071E081E091E0A1E072A000EBF
:102C7C00082209220A2207C00DF008C00EF009C074
:102C8C000FF00AC010F053EF16F003C00DF004C0A3
:102C9C000EF005C00FF006C010F003500410051024
:102CAC000610D8A45CEF16F05EEF16F068EF16F085
:102CBC00000E036E000E046E000E056E000E066E06
:102CCC00F9EF16F0960E0C6E72EF16F00C2AD890E7
:102CDC0010320F320E320D32000E0D14076E000E34
:102CEC000E14086E000E0F14096EFE0E10140A6EF0
:102CFC000750081009100A10D8A487EF16F089EFB6
:102D0C0016F06CEF16F097EF16F00C2A010E0D264C
:102D1C00000E0E220F221022D89010320F320E32DB
:102D2C000D32000E0D14076E000E0E14086E000E00
:102D3C000F14096EFF0E10140A6E075008100910BC
:102D4C000A10D8A4ACEF16F0AEEF16F08BEF16F01D
:102D5C00B6EF16F00C06D8900D360E360F36103630
:102D6C000FBEBBEF16F0BDEF16F0C5EF16F0020E5E
:102D7C000C60C3EF16F0C5EF16F0B0EF16F00CB008
:102D8C00CAEF16F0CCEF16F0CDEF16F00F9ED890E0
:102D9C000C320CC007F0086A096A0A6A07C00AF00C
:102DAC00096A086A076A07500D1208500E1209507A
:102DBC000F120A5010120B50D8B4E7EF16F0E9EFCF
:102DCC0016F0F1EF16F006BEF0EF16F0EEEF16F07F
:102DDC00F1EF16F0108E0DC003F00EC004F00FC012
:102DEC0005F010C006F012001CC0D9FF1DC0DAFFA0
:102DFC00DECF03F0DDCF04F0000E04BEFF0E056E37
:102E0C00066E010E20EC16F003C020F004C021F079
:102E1C0005C022F006C023F020EE02F01C50D9268B
:102E2C001D50DA22DECF03F0DDCF04F0000E04BE1D
:102E3C00FF0E056E066E010E20EC16F003C024F09A
:102E4C0004C025F005C026F006C027F020EE04F0E3
:102E5C001C50D9261D50DA22DECF03F0DDCF04F052
:102E6C00000E04BEFF0E056E066E010E20EC16F071
:102E7C0003C028F004C029F005C02AF006C02BF0CE
:102E8C0020EE06F01C50D9261D50DA22DECF03F0BE
:102E9C00DDCF04F0000E04BEFF0E056E066E010EB3
:102EAC0020EC16F003C02CF004C02DF005C02EF061
:102EBC0006C02FF020C003F021C004F022C005F0A2
:102ECC0023C006F02CC007F02DC008F02EC009F06E
:102EDC002FC00AF089EC10F01EC0D9FF1FC0DAFF1A
:102EEC0003C0DEFF04C0DEFF05C0DEFF06C0DEFF50
:102EFC0028C003F029C004F02AC005F02BC006F04E
:102F0C002CC007F02DC008F02EC009F02FC00AF01D
:102F1C0089EC10F020EE08F01E50D9261F50DA2252
:102F2C0003C0DEFF04C0DEFF05C0DEFF06C0DEFF0F
:102F3C0024C003F025C004F026C005F027C006F01D
:102F4C002CC007F02DC008F02EC009F02FC00AF0DD
:102F5C0089EC10F020EE04F01E50D9261F50DA2216
:102F6C0003C0DEFF04C0DEFF05C0DEFF06C0DEFFCF
:102F7C001200000E146E12BEC8EF17F0C6EF17F059
:102F8C00DAEF17F0121E111E101E0F1E0E1E0D1E54
:102F9C000C1E0B6C000E0C220D220E220F22102286
:102FAC0011221222010E146E0ABEE1EF17F0DFEFB0
:102FBC0017F0F3EF17F00A1E091E081E071E061E57
:102FCC00051E041E036C000E042205220622072295
:102FDC00082209220A22010E141A20EE15F0070EFF
:102FEC00DE6AE806FDE20B500C100D100E100F10EF
:102FFC00101011101210D8B406EF18F008EF18F0DA
:10300C005AEF18F0010E136E16EF18F0D8900B361D
:10301C000C360D360E360F36103611361236132A84
:10302C0012AE1BEF18F01DEF18F00CEF18F0D89043
:10303C00153616361736183619361A361B361C3610
:10304C000B50035C0C5004580D5005580E5006588C
:10305C000F500758105008581150095812500A5860
:10306C00D8A03BEF18F03DEF18F04EEF18F00B50D6
:10307C00035E0C50045A0D50055A0E50065A0F5050
:10308C00075A1050085A1150095A12500A5A1580F2
:10309C00D8901232113210320F320E320D320C32F5
:1030AC000B32132E1DEF18F01450D8B460EF18F03B
:1030BC0062EF18F072EF18F01C1E1B1E1A1E191E60
:1030CC00181E171E161E156C000E1622172218221B
:1030DC0019221A221B221C2215C003F016C004F060
:1030EC0017C005F018C006F019C007F01AC008F098
:1030FC001BC009F01CC00AF01200000E146E0ABEB0
:10310C008CEF18F08AEF18F09EEF18F00A1E091ECB
:10311C00081E071E061E051E041E036C000E04224C
:10312C00052206220722082209220A22010E146E09
:10313C0012BEA5EF18F0A3EF18F0B5EF18F0121EA1
:10314C00111E101E0F1E0E1E0D1E0C1E0B6C000EE3
:10315C000C220D220E220F221022112212220B50B1
:10316C000C100D100E100F10101011101210D8B4EE
:10317C00C2EF18F0C4EF18F00CEF19F0010E136E3B
:10318C00D2EF18F0D8900B360C360D360E360F36B3
:10319C00103611361236132A12AED7EF18F0D9EFBB
:1031AC0018F0C8EF18F00B50035C0C5004580D507D
:1031BC0005580E5006580F5007581050085811500B
:1031CC00095812500A58D8A0EEEF18F0F0EF18F08A
:1031DC0000EF19F00B50035E0C50045A0D50055AB9
:1031EC000E50065A0F50075A1050085A1150095ACF
:1031FC0012500A5AD8901232113210320F320E324B
:10320C000D320C320B32132ED9EF18F01450D8B4F7
:10321C0012EF19F014EF19F024EF19F00A1E091E21
:10322C00081E071E061E051E041E036C000E04223B
:10323C00052206220722082209220A2203C003F0D3
:10324C0004C004F005C005F006C006F007C007F086
:10325C0008C008F009C009F00AC00AF012008AEC94
:10326C001FF03EEC1FF0CDEC1EF014EC1FF0010E25
:10327C00056E000E7AEC1FF087928198869E849ED4
:10328C007C8E7F9279987E9E7F82520E0001B26F67
:10329C002B0EB16F000EE82EFED7B12FFCD7B22F3C
:1032AC00FAD700F07988520E0001B26F2B0EB16F75
:1032BC00000EE82EFED7B12FFCD7B22FFAD700F0B4
:1032CC007E8E520E0001B26F2B0EB16F000EE82EE7
:1032DC00FED7B12FFCD7B22FFAD700F0F10E0E6E3D
:1032EC00000E0F6E70EC1CF0F10E1C6E000E1D6EBD
:1032FC00A00E1E6E010E1F6EFAEC16F0B30E00013E
:10330C00926F000E936F010E946F0E0E956FA0C10D
:10331C0096F0A1C197F0A2C198F0A3C199F0A4C1F5
:10332C009AF0A5C19BF0A6C19CF0A7C19DF0A8C1C5
:10333C009EF0A9C19FF0AAC1A0F0ABC1A1F0F7C04B
:10334C00A2F0F8C0A3F0C9EC1CF0B30E046E000E92
:10335C00056EE7EC1EF0B5EF19F0FFEC1EF0000166
:10336C00FB51D8A4BCEF19F0BEEF19F0B3EF19F074
:10337C0074EF19F014EF00F0053406340C6E0C5099
:10338C00D8A4CBEF19F0CDEF19F0D7EF19F0000E50
:10339C00036E000E046E000E056E000E066E44EFFA
:1033AC001AF003C007F004C008F005C009F006C00D
:1033BC000AF0200EE7EF19F0D8900A3209320832E1
:1033CC000732E82EE2EF19F007500B6E058EFF0E58
:1033DC000316FF0E0416FF0E0516000E0616960EAB
:1033EC000C5E0CBEFEEF19F0FCEF19F014EF1AF0A6
:1033FC000C50800A970FD8B006EF1AF008EF1AF0AD
:10340C000AEF1AF0CDEF19F0D890063205320432DB
:10341C0003320C3E0AEF1AF02CEF1AF01F0E0C645C
:10342C001AEF1AF01CEF1AF024EF1AF0CDEF19F086
:10343C00D89003360436053606360C060C50D8A444
:10344C002AEF1AF02CEF1AF01EEF1AF00B50D8B42A
:10345C0032EF1AF034EF1AF03CEF1AF0061E051E8C
:10346C00041E036C000E04220522062203C003F086
:10347C0004C004F005C005F006C006F01200000EF2
:10348C001C14246E000E1D14256E800E1E14266E48
:10349C007F0E1F14276E2450251026102710D8A439
:1034AC005AEF1AF05CEF1AF064EF1AF0000E1C6E73
:1034BC00000E1D6E000E1E6E000E1F6E000E2014F0
:1034CC00246E000E2114256E800E2214266E7F0EA3
:1034DC002314276E2450251026102710D8A479EF1A
:1034EC001AF07BEF1AF083EF1AF0000E206E000E2C
:1034FC00216E000E226E000E236E1FAE88EF1AF0A6
:10350C008AEF1AF093EF1AF01C6C1D1ED8B01D2A0E
:10351C001E1ED8B01E2A800E1F5623AE98EF1AF02E
:10352C009AEF1AF0A3EF1AF0206C211ED8B0212AC2
:10353C00221ED8B0222A800E2356000E1C1A000E12
:10354C001D1A000E1E1A800E1F1A000E201A000ED5
:10355C00211A000E221A800E231A20501C5C2150B6
:10356C001D5822501E5823501F58D8B0C0EF1AF0C7
:10357C00C2EF1AF0C5EF1AF0D890C6EF1AF0D88047
:10358C001200E9C00DF0EAC00EF0EBC00FF0ECC079
:10359C0010F003C00DF004C00EF005C00FF006C013
:1035AC0010F00DC007F00EC008F00FC009F010C0ED
:1035BC000AF0180EE7EF1AF0D8900A3209320832E6
:1035CC000732E82EE2EF1AF007500B6E0C6A0B5024
:1035DC000C10D8A4F4EF1AF0F6EF1AF016EF1BF05B
:1035EC00D8900D34076E0E34086E0F34096E1034FB
:1035FC000A6E0750081009100A10D8A408EF1BF027
:10360C000AEF1BF010EF1BF0000E046E020E036E9F
:10361C0045EF1BF0000E046E030E036E45EF1BF01E
:10362C000B280C10D8A41DEF1BF01FEF1BF041EF63
:10363C001BF00DC007F00EC008F00FC009F010C051
:10364C000AF0090ED8900736083609360A36E82EE5
:10365C0028EF1BF00750081009100A10D8B439EFE6
:10366C001BF03CEF1BF0010E3DEF1BF0000E036E48
:10367C00046A45EF1BF0000E046E040E036E12007C
:10368C0005500610D8B44DEF1BF04FEF1BF058EF60
:10369C001BF005500610D8A456EF1BF058EF1BF08A
:1036AC005DEF1BF00350E2EC1FF0AAEF1BF020EED5
:1036BC0009F00550D9260650DA22DE50DE10D8B4B7
:1036CC006AEF1BF06CEF1BF087EF1BF020EE09F09C
:1036DC000550D9260650DA2210EE03F00550E126EB
:1036EC000650E222DE50E65CE650800A0B6EDE509D
:1036FC00800A0B58D8B085EF1BF087EF1BF0AAEFB0
:10370C001BF020EE03F00550D9260650DA22DECF4E
:10371C0007F0DDCF08F005C0D9FF06C0DAFFDECF19
:10372C0009F0DDCF0AF007500924D96E08500A20A1
:10373C00DA6E03C0DFFF20EE03F00550D9260650E9
:10374C00DA22DE2A000EDD221200000E03140B6EAC
:10375C00000E04140C6E800E05140D6E7F0E0614F4
:10376C000E6E0B500C100D100E10D8A4C0EF1BF0E9
:10377C00C2EF1BF0CAEF1BF0000E036E000E046EBE
:10378C00000E056E000E066E000E07140B6E000E7A
:10379C0008140C6E800E09140D6E7F0E0A140E6E3A
:1037AC000B500C100D100E10D8A4DFEF1BF0E1EF36
:1037BC001BF0E9EF1BF0000E076E000E086E000EFA
:1037CC00096E000E0A6E075003180FE1085004181A
:1037DC000CE10950051809E10A500618D8B4F9EFA4
:1037EC001BF0FBEF1BF0FEEF1BF0D890FFEF1BF074
:1037FC00D880120018BE05EF1CF007EF1CF00DEF7F
:10380C001CF017C01CF018C01DF011EF1CF0000EBE
:10381C001D6E000E1C6E000E1B6E000E1A6E23EF3A
:10382C001CF0000E046E200E036E13C005F014C0C5
:10383C0006F046EC1BF01A4A1B2A1C501A5C1B5053
:10384C00800A196E1D50800A1958D8A030EF1CF050
:10385C0032EF1CF017EF1CF015C00CF016C00DF079
:10386C0013C00EF014C00FF04EEC1EF0120006BE8A
:10387C004CEF1CF006500510041006E10304D8B000
:10388C004AEF1CF04CEF1CF067EF1CF003C007F084
:10389C0004C008F005C009F006C00AF0071E081E97
:1038AC00091E0A1E072A000E082209220A2207C036
:1038BC0003F008C004F009C005F00AC006F06FEF71
:1038CC001CF003C003F004C004F005C005F006C0F2
:1038DC0006F012006BEC1DF00EC0D9FF0FC0DAFF22
:1038EC0007C0DEFF08C0DDFFBBEC1DF020EE04F0CE
:1038FC000E50D9260F50DA2207C0DEFF08C0DDFFBC
:10390C0093EC1DF020EE02F00E50D9260F50DA2267
:10391C0007C0DEFF08C0DDFF43EC1DF020EE06F013
:10392C000E50D9260F50DA2207C0DEFF08C0DDFF8B
:10393C0012008EC054F08FC055F0B3EF1CF08CC049
:10394C0041F08DC042F0540E436E000E446E90C098
:10395C0045F091C046F056EC12F054C0F6FF55C03D
:10396C00F7FF000EF86E0800F5500009D8A4C1EF5F
:10397C001CF0C3EF1CF0A5EF1CF0000E00018D6FC6
:10398C00000E8C6F1200960E0001A46F000EA56F36
:10399C0092C0A6F093C0A7F0000EAA6F000EA96FFC
:1039AC00000EB06F000EAF6FA60E8C6F000E8D6FF9
:1039BC0094C08EF095C08FF0A40E906F000E916F96
:1039CC009FEC1CF00001A9519225D96EAA519321AC
:1039DC00DA6E000EDF6E1200A5EC1FF0130E056EF2
:1039EC00000E7AEC1FF03F0E076E550EE82EFED738
:1039FC00072EFCD700F0000E056E040E7AEC1FF0BB
:103A0C00000E056E050E7AEC1FF0E80E056E060E24
:103A1C007AEC1FF0030E056E070E7AEC1FF0040E05
:103A2C00056E0C0E7AEC1FF0120005C00BF006C0F0
:103A3C000CF003C009F004C00AF035EF1DF00BC008
:103A4C00D9FF0CC0DAFFDF500D6E0B4A0C2A09C0EF
:103A5C00D9FF0AC0DAFF0DC0DFFF094A0A2A0706A0
:103A6C00D8A00806072806E10828D8A440EF1DF0C6
:103A7C0042EF1DF025EF1DF01200D1EC1FF0520E9D
:103A8C00BBEC1FF0B40EBBEC1FF0C7EC1FF0530ED9
:103A9C00BBEC1FF0010E70EC1EF0096E09500C6EA1
:103AAC000D6A000E70EC1EF0096E09500B6E0A6A5E
:103ABC000C500A100C6E0D500B100D6ECCEC1FF050
:103ACC000CC007F00DC008F01200D1EC1FF0520E24
:103ADC00BBEC1FF0B60EBBEC1FF0C7EC1FF0530E87
:103AEC00BBEC1FF0010E70EC1EF0096E09500C6E51
:103AFC000D6A000E70EC1EF0096E09500B6E0A6A0E
:103B0C000C500A100C6E0D500B100D6ECCEC1FF0FF
:103B1C000CC007F00DC008F01200D1EC1FF0520ED3
:103B2C00BBEC1FF0B60EBBEC1FF0C7EC1FF0530E36
:103B3C00BBEC1FF0010E70EC1EF0096E09500C6E00
:103B4C000D6A000E70EC1EF0096E09500B6E0A6ABD
:103B5C000C500A100C6E0D500B100D6ECCEC1FF0AF
:103B6C000CC007F00DC008F01200D1EC1FF0520E83
:103B7C00BBEC1FF0BA0EBBEC1FF0C7EC1FF0530EE2
:103B8C00BBEC1FF0010E70EC1EF0096E09500C6EB0
:103B9C000D6A000E70EC1EF0096E09500B6E0A6A6D
:103BAC000C500A100C6E0D500B100D6ECCEC1FF05F
:103BBC000CC007F00DC008F01200C00EF66E3F0EE0
:103BCC00F76E000EF86E0900F5CFF9F00900F5CF8D
:103BDC00FAF00900F5CFFBF001EE00F0B00EEE6A42
:103BEC00E806FDE100EEE5F0140EEE6AE806FDE1F4
:103BFC0000EE56F0070EEE6AE806FDE15D905D9270
:103C0C00000135EF19F0000E201A000E211A000EDB
:103C1C00221A800E231A1CC003F01DC004F01EC013
:103C2C0005F01FC006F020C007F021C008F022C02C
:103C3C0009F023C00AF014EC0CF003C01CF004C013
:103C4C001DF005C01EF006C01FF0120005C007F0E5
:103C5C0006C008F003C009F004C00AF007C0F6FF64
:103C6C0008C0F7FF074A082A000EF86E09C0D9FFF2
:103C7C000AC0DAFF094A0A2A0800F5CFDFFFDF5035
:103C8C00D8A44BEF1EF04DEF1EF034EF1EF01200D7
:103C9C00000E126E000E116E5FEF1EF010C003F0DE
:103CAC00046A0EC005F00FC006F046EC1BF0114A7A
:103CBC00122A11500C24D96E12500D20DA6EDF50DE
:103CCC00106E1050D8A46DEF1EF06FEF1EF054EF75
:103CDC001EF01200056E52EC1FF00E01DA8752EC4A
:103CEC001FF0D5CE06F052EC1FF00550D8B481EF82
:103CFC001EF085EF1EF0046A042A86EF1EF0046A9B
:103D0C00043A04460E01DA510418DF0B0418DA6F7A
:103D1C00DA890650120016BE9EEF1EF0165006E110
:103D2C001504D8B09CEF1EF09EEF1EF0ACEF1EF009
:103D3C0015C017F016C018F0171E181E174A182AAF
:103D4C0017C015F018C016F0B0EF1EF015C015F026
:103D5C0016C016F012000350041005100610D8B44B
:103D6C00BAEF1EF0BCEF1EF0C4EF1EF0000E031AEB
:103D7C00000E041A000E051A800E061A03C003F07A
:103D8C0004C004F005C005F006C006F0120014ECE7
:103D9C001FF0010E056E000E7AEC1FF03F0E076E41
:103DAC00550EE82EFED7072EFCD700F0030E056E3D
:103DBC00000E7AEC1FF0D50E056E010E7AEC1FF09A
:103DCC001200F2EF1EF004C0D9FF05C0DAFFDF507D
:103DDC0029EC1FF0044A052A04C0D9FF05C0DAFFFC
:103DEC00DF50D8A4FCEF1EF0FEEF1EF0E9EF1EF042
:103DFC00120099EC1FF00009D8B407EF1FF009EF7F
:103E0C001FF010EF1FF00E012D85010E0001FB6F4E
:103E1C0013EF1FF0000E0001FB6F12000E01D951C1
:103E2C00F00B0809D96FD98B9F0ED66F848A848CBE
:103E3C00A79BA79D1D0E1D6F1E0E1C6F1C0E6F6F7A
:103E4C001B0E706F1200036E3B0E5A6430EF1FF0A6
:103E5C0032EF1FF034EF1FF0000E5A6E000E5A2492
:103E6C00D96EDA6A010EDA2203C0DFFF5A2A120079
:103E7C0082820E019A93090E0D01F16F0E012983B6
:103E8C0033931F83F290F2EC1CF0F28A0E012B811B
:103E9C00F28CF28E2D8712000E01D8B558EF1FF060
:103EAC005AEF1FF052EF1FF0DACE03F01F0E03167D
:103EBC00D8A463EF1FF065EF1FF052EF1FF0120054
:103ECC000E01D8B56CEF1FF06EEF1FF066EF1FF010
:103EDC00DACE01F01F0E0116D8A477EF1FF079EFA0
:103EEC001FF066EF1FF01200066ED1EC1FF0520EA1
:103EFC00BBEC1FF006508009BBEC1FF00550BBEC6F
:103F0C001FF0CCEC1FF01200120E0E01626F110E9E
:103F1C00156FE997E895330EE56F000EE66FE789AC
:103F2C00E88BE78F120059505A18D8A4A0EF1FF055
:103F3C00A3EF1FF0010EA4EF1FF0000E1200D1EC46
:103F4C001FF0520EBBEC1FF0E60EBBEC1FF0CCECDE
:103F5C001FF01200DBEC1FF0520EC1EC1FF0E60E4E
:103F6C00C1EC1FF0D6EC1FF01200046E52EC1FF0E7
:103F7C0004C0D5FE1200026E66EC1FF002C0D5FE26
:103F8C00120052EC1FF00E01DA83120052EC1FF0FB
:103F9C000E01DA85120052EC1FF00E01DA811200CC
:103FAC0066EC1FF00E01DA85120066EC1FF00E01B4
:073FBC00DA811200E80301A5
:023FC4001200E9
:020000040020DA
:10000000FF0FFF0FFF0FFF0FFF0FFF0FFF0FFF0F80
:020000040030CA
:0C000000AAFFFFFF9FFFFFFFFFFFFFFFB5
:00000001FF
