:040000001AEF00F003
:100008005F820E0133AB0BEF00F00DEF00F018EF3D
:1000180000F0000ED46E000ED36E000E0101156FB5
:10002800010E146F0E01339B5F9211006EEF2AF0E0
:100E0000007265643D256620677265656E3D2566E6
:100E100020626C75653D2566206C756D3D256420EE
:100E200061637475616C5F636F6C6F75723D25648F
:0D0E3000200D0A00696E66006E616E000004
:100E3E00000E0001726F000E736F000E746F000EC5
:100E4E00756F000E766F500E776FC30E786F470E6C
:100E5E00796F000E656F040E646F20EE66F00B0E58
:100E6E00DE6AE806FDE24BC0D9FF4CC0DAFFDECFEA
:100E7E0001F0DDCF02F0000E02BEFF0E036E046E17
:100E8E00010EBAEC20F001C066F002C067F003C09C
:100E9E0068F004C069F020EE02F04B50D9264C5099
:100EAE00DA22DECF01F0DDCF02F0000E02BEFF0E21
:100EBE00036E046E010EBAEC20F001C06AF002C09F
:100ECE006BF003C06CF004C06DF020EE04F04B50DC
:100EDE00D9264C50DA22DECF01F0DDCF02F0000E23
:100EEE0002BEFF0E036E046E010EBAEC20F001C0BE
:100EFE006EF002C06FF003C070F004C071F0000E0F
:100F0E0000017B6F000E7A6F72C02AF073C02BF057
:100F1E0074C02CF075C02DF0660E4F6E000E506E24
:100F2E00D8907A35D96E7B35DA6ED890D936DA36D6
:100F3E004F50D9265050DA22DECF2EF0DECF2FF0D2
:100F4E00DECF30F0DECF31F019EC25F0D8B0B2EFB5
:100F5E0007F0B4EF07F0D1EF07F0660E4F6E000EFC
:100F6E00506ED89000017A35D96E7B35DA6ED890F6
:100F7E00D936DA364F50D9265050DA22DECF72F0FB
:100F8E00DECF73F0DECF74F0DECF75F07AC064F092
:100F9E007BC065F0660E4F6E000E506ED89000014D
:100FAE007A35D96E7B35DA6ED890D936DA364F501F
:100FBE00D9265050DA22DECF2AF0DECF2BF0DECF4C
:100FCE002CF0DECF2DF076C02EF077C02FF078C04B
:100FDE0030F079C031F019EC25F0D8B0F9EF07F008
:100FEE00FBEF07F014EF08F0660E4F6E000E506E1A
:100FFE00D89000017A35D96E7B35DA6ED890D93615
:10100E00DA364F50D9265050DA22DECF76F0DECFC8
:10101E0077F0DECF78F0DECF79F000017A4B7B2BC4
:10102E007BBF23EF08F07B5109E1030E7A5DD8A058
:10103E0023EF08F025EF08F08BEF07F076C02EF0C7
:10104E0077C02FF078C030F079C031F072C02AF03E
:10105E0073C02BF074C02CF075C02DF089EC2EF0FF
:10106E002AC032F02BC033F02CC034F02DC035F036
:10107E00000E366E000E376E000E386E000E396E94
:10108E008EEC27F0D8A04EEF08F050EF08F056EF98
:10109E0008F0000E4C6E000E4B6E4EEF0CF0000181
:1010AE0064516511D8A45EEF08F060EF08F0D4EF3C
:1010BE0008F076C02EF077C02FF078C030F079C0EF
:1010CE0031F072C02AF073C02BF074C02CF075C0D2
:1010DE002DF089EC2EF02AC036F02BC037F02CC044
:1010EE0038F02DC039F06EC02EF06FC02FF070C0EA
:1010FE0030F071C031F06AC02AF06BC02BF06CC0BA
:10110E002CF06DC02DF089EC2EF02AC032F02BC0E1
:10111E0033F02CC034F02DC035F0C1EC15F032C0D8
:10112E0011F033C012F034C013F035C014F0000EBD
:10113E00156E000E166E700E176E420E186EACEC1B
:10114E0013F011C07CF012C07DF013C07EF014C0FD
:10115E007FF000017FBFB8EF08F0B6EF08F0B3EFF5
:10116E0009F07CC001F07DC002F07EC003F07FC0AC
:10117E0004F0000E056E000E066EB40E076E430EE2
:10118E00086E4CEC11F001C07CF002C07DF003C083
:10119E007EF004C07FF0B3EF09F064056511D8A4AA
:1011AE00DBEF08F0DDEF08F049EF09F076C02EF026
:1011BE0077C02FF078C030F079C031F072C02AF0CD
:1011CE0073C02BF074C02CF075C02DF089EC2EF08E
:1011DE002AC036F02BC037F02CC038F02DC039F0B5
:1011EE0066C02EF067C02FF068C030F069C031F0D5
:1011FE006EC02AF06FC02BF070C02CF071C02DF0B5
:10120E0089EC2EF02AC032F02BC033F02CC034F013
:10121E002DC035F0C1EC15F032C060F033C061F076
:10122E0034C062F035C063F0000E056E000E066E1F
:10123E00000E076E400E086E60C001F061C002F035
:10124E0062C003F063C004F04CEC11F001C011F069
:10125E0002C012F003C013F004C014F0000E156E9D
:10126E00000E166E700E176E420E186EACEC13F06A
:10127E0011C07CF012C07DF013C07EF014C07FF060
:10128E00B3EF09F076C02EF077C02FF078C030F0B3
:10129E0079C031F072C02AF073C02BF074C02CF0FC
:1012AE0075C02DF089EC2EF02AC036F02BC037F029
:1012BE002CC038F02DC039F06AC02EF06BC02FF064
:1012CE006CC030F06DC031F066C02AF067C02BF0F4
:1012DE0068C02CF069C02DF089EC2EF02AC032F0D7
:1012EE002BC033F02CC034F02DC035F0C1EC15F00E
:1012FE0032C060F033C061F034C062F035C063F0CC
:10130E00000E056E000E066E800E076E400E086E05
:10131E0060C001F061C002F062C003F063C004F06F
:10132E004CEC11F001C011F002C012F003C013F02A
:10133E0004C014F0000E156E000E166E700E176EB1
:10134E00420E186EACEC13F011C07CF012C07DF0A2
:10135E0013C07EF014C07FF07CC02AF07DC02BF04D
:10136E007EC02CF07FC02DF0000E2E6E000E2F6E64
:10137E00A50E306E430E316E19EC25F0D8A0CAEFD3
:10138E0009F0CCEF09F0EBEF09F0000E2A6E000E1B
:10139E002B6EB40E2C6E430E2D6E7CC02EF07DC0C7
:1013AE002FF07EC030F07FC031F019EC25F0D8A0C0
:1013BE00E3EF09F0E5EF09F0EBEF09F0000E4C6EEC
:1013CE00010E4B6E4EEF0CF07CC02AF07DC02BF060
:1013DE007EC02CF07FC02DF0000E2E6E000E2F6EF4
:1013EE00A00E306E400E316E19EC25F0D8A002EF33
:1013FE000AF004EF0AF023EF0AF0000E2A6E000E38
:10140E002B6E300E2C6E410E2D6E7CC02EF07DC0DC
:10141E002FF07EC030F07FC031F019EC25F0D8A04F
:10142E001BEF0AF01DEF0AF023EF0AF0000E4C6ED0
:10143E00020E4B6E4EEF0CF07CC02AF07DC02BF0EE
:10144E007EC02CF07FC02DF0000E2E6E000E2F6E83
:10145E00900E306E410E316E19EC25F0D8A03AEF99
:10146E000AF03CEF0AF0F0EF0AF0000E2A6E000EC2
:10147E002B6EC80E2C6E410E2D6E7CC02EF07DC0D4
:10148E002FF07EC030F07FC031F019EC25F0D8A0DF
:10149E0053EF0AF055EF0AF0F0EF0AF0B80E2A6E8D
:1014AE001E0E2B6E850E2C6E3E0E2D6E4DC0D9FF70
:1014BE004EC0DAFFDECF2EF0DECF2FF0DECF30F0D3
:1014CE00DECF31F019EC25F0D8A070EF0AF072EFF4
:1014DE000AF0A8EF0AF0CD0E2A6ECC0E2B6ECC0EB3
:1014EE002C6E3D0E2D6E20EE08F04D50D9264E502E
:1014FE00DA22DECF2EF0DECF2FF0DECF30F0DECFD1
:10150E0031F019EC25F0D8B08FEF0AF091EF0AF018
:10151E00A8EF0AF020EE06F04B50D9264C50DA22F6
:10152E00010EDBBEA4EF0AF0E90EDE5C030EDE5800
:10153E00D8A0A4EF0AF0A6EF0AF0A8EF0AF050EF39
:10154E0008F04DC0D9FF4EC0DAFFDECF2AF0DECF55
:10155E002BF0DECF2CF0DECF2DF0B80E2E6E1E0E41
:10156E002F6E850E306E3E0E316E19EC25F0D8A022
:10157E00C3EF0AF0C5EF0AF0EAEF0AF020EE08F02A
:10158E004D50D9264E50DA22DECF2AF0DECF2BF088
:10159E00DECF2CF0DECF2DF0CD0E2E6ECC0E2F6EBC
:1015AE00CC0E306E3D0E316E19EC25F0D8B0E2EF58
:1015BE000AF0E4EF0AF0EAEF0AF0000E4C6E030EAA
:1015CE004B6E4EEF0CF0000E4C6E0A0E4B6E4EEF45
:1015DE000CF07CC02AF07DC02BF07EC02CF07FC0BA
:1015EE002DF0000E2E6E000E2F6EAA0E306E420ED5
:1015FE00316E19EC25F0D8A007EF0BF009EF0BF0C8
:10160E0028EF0BF0000E2A6E000E2B6E200E2C6EA5
:10161E00430E2D6E7CC02EF07DC02FF07EC030F0BC
:10162E007FC031F019EC25F0D8A020EF0BF022EF9F
:10163E000BF028EF0BF0000E4C6E040E4B6E4EEFBF
:10164E000CF07CC02AF07DC02BF07EC02CF07FC049
:10165E002DF0000E2E6E000E2F6E700E306E420E9E
:10166E00316E19EC25F0D8A03FEF0BF041EF0BF0E7
:10167E00E2EF0BF0000E2A6E000E2B6E9A0E2C6E01
:10168E00420E2D6E7CC02EF07DC02FF07EC030F04D
:10169E007FC031F019EC25F0D8A058EF0BF05AEFBF
:1016AE000BF0E2EF0BF020EE08F04D50D9264E5025
:1016BE00DA22DECF2AF0DECF2BF0DECF2CF0DECF1B
:1016CE002DF08F0E2E6EC20E2F6EF50E306E3D0E5D
:1016DE00316E19EC25F0D8A077EF0BF079EF0BF007
:1016EE009EEF0BF020EE04F04D50D9264E50DA222C
:1016FE00DECF2AF0DECF2BF0DECF2CF0DECF2DF0BA
:10170E003D0E2E6E0A0E2F6E570E306E3E0E316E41
:10171E0019EC25F0D8B096EF0BF098EF0BF09EEF8A
:10172E000BF0000E4C6E060E4B6E4EEF0CF020EED4
:10173E0008F04D50D9264E50DA22DECF2AF0DECFF9
:10174E002BF0DECF2CF0DECF2DF08F0E2E6EC20ED4
:10175E002F6EF50E306E3D0E316E19EC25F0D8B0B1
:10176E00BBEF0BF0BDEF0BF0EAEF0AF03D0E2A6E69
:10177E000A0E2B6E570E2C6E3E0E2D6E20EE04F0C2
:10178E004D50D9264E50DA22DECF2EF0DECF2FF07E
:10179E00DECF30F0DECF31F019EC25F0D8B0DAEF35
:1017AE000BF0DCEF0BF0EAEF0AF0000E4C6E050EBC
:1017BE004B6E4EEF0CF07CC02AF07DC02BF07EC03D
:1017CE002CF07FC02DF0000E2E6E000E2F6E400EF0
:1017DE00306E410E316E19EC25F0D8A0F9EF0BF0FA
:1017EE00FBEF0BF01AEF0CF0000E2A6E000E2B6EB4
:1017FE00880E2C6E410E2D6E7CC02EF07DC02FF00B
:10180E007EC030F07FC031F019EC25F0D8A012EF79
:10181E000CF014EF0CF01AEF0CF0000E4C6E070EDD
:10182E004B6E4EEF0CF07CC02AF07DC02BF07EC0CC
:10183E002CF07FC02DF0000E2E6E000E2F6EB00E0F
:10184E00306E410E316E19EC25F0D8A031EF0CF050
:10185E0033EF0CF0EAEF0AF0000E2A6E000E2B6E3C
:10186E00C00E2C6E410E2D6E7CC02EF07DC02FF062
:10187E007EC030F07FC031F019EC25F0D8A04AEFD1
:10188E000CF04CEF0CF0EAEF0AF050EF08F01200FB
:10189E00000E00018A6F62C08DF063C08EF064C0CE
:1018AE008FF065C090F090BF61EF0CF05FEF0CF021
:1018BE0075EF0CF0010E8A6F8DC001F08EC002F034
:1018CE008FC003F090C004F06FEC2FF001C08DF0CC
:1018DE0002C08EF003C08FF004C090F0000E000125
:1018EE008C6F000E8B6FE7C07AF0E8C07BF08A51E8
:1018FE00D8B484EF0CF086EF0CF09AEF0CF08A510E
:10190E00D8A48CEF0CF08EEF0CF094EF0CF0000ED0
:10191E00706F2B0E6F6F98EF0CF0000E706F2D0E18
:10192E006F6F6FC08AF08DC001F08EC002F08FC055
:10193E0003F090C004F09BEC25F001040210D8A433
:10194E00ABEF0CF0ADEF0CF0E0EF0CF000018A51B4
:10195E00D8B4B4EF0CF0B6EF0CF0BFEF0CF08AC0B9
:10196E00A0F27A07D8A07B07000E8C6F010E8B6F4A
:10197E00A00E8B25016E020E8C21026E340E036EAC
:10198E000E0E046EACEC2EF00001FD0E7A27FF0E4B
:10199E007B2360C011F061C012F0A00E136E020E18
:1019AE00146E7AC015F07BC016F0F7EC29F04BEFF1
:1019BE0011F08DC001F08EC002F08FC003F090C008
:1019CE0004F09BEC25F001500210D8A4F1EF0CF0BE
:1019DE00F3EF0CF013EF0DF000018A51D8B4FAEFCB
:1019EE000CF0FCEF0CF005EF0DF08AC0A0F27A07B8
:1019FE00D8A07B07000E8C6F010E8B6FA00E8B256F
:101A0E00016E020E8C21026E380E036E0E0E046EE7
:101A1E00ACEC2EF0CBEF0CF0000E0001916F000E2F
:101A2E00926F800E936F3F0E946F000E796F000EC3
:101A3E00786F8DC032F08EC033F08FC034F090C00E
:101A4E0035F0000E366E000E376E000E386E000E3C
:101A5E00396E8EEC27F0D8B037EF0DF039EF0DF070
:101A6E0018EF0EF046EF0DF07CC091F07DC092F0B5
:101A7E007EC093F07FC094F00001784B792B91C01B
:101A8E0011F092C012F093C013F094C014F0000E37
:101A9E00156E000E166E200E176E410E186EACEC03
:101AAE0013F011C07CF012C07DF013C07EF014C094
:101ABE007FF000017C518D5D016E7D518E59026E5D
:101ACE007E518F59036E7F519059046EDAEC2AF0D5
:101ADE0004BE7DEF0DF004500310021009E1020E5A
:101AEE00015CD8A07DEF0DF07FEF0DF03BEF0DF018
:101AFE007CC02AF07DC02BF07EC02CF07FC02DF074
:101B0E008DC02EF08EC02FF08FC030F090C031F00F
:101B1E0019EC25F0D8A096EF0DF098EF0DF03BEFF5
:101B2E000DF0000191518D5D016E92518E59026E34
:101B3E0093518F59036E94519059046EDAEC2AF03A
:101B4E0004BEB7EF0DF004500310021007E1020EB1
:101B5E00015CD8B0B5EF0DF0B7EF0DF0FFEF0DF063
:101B6E0091C08DF092C08EF093C08FF094C090F023
:101B7E0018EF0EF091C032F092C033F093C034F0F3
:101B8E0094C035F0000E366E000E376E200E386E95
:101B9E00410E396EC1EC15F032C091F033C092F0A7
:101BAE0034C093F035C094F000017807D8A07907BF
:101BBE0091518D5D016E92518E59026E93518F59D6
:101BCE00036E94519059046EDAEC2AF004BEFDEFC8
:101BDE000DF004500310021007E1020E015CD8B0A4
:101BEE00FBEF0DF0FDEF0DF0FFEF0DF0B7EF0DF089
:101BFE008DC02AF08EC02BF08FC02CF090C02DF02F
:101C0E0091C02EF092C02FF093C030F094C031F0FE
:101C1E0019EC25F0D8A016EF0EF018EF0EF0C1EF6C
:101C2E000DF066C072F072C073F00001EABF22EFD1
:101C3E000EF024EF0EF02AEF0EF0E9C06BF0EAC0C2
:101C4E006CF02EEF0EF0000E6C6F060E6B6F6BC00D
:101C5E0076F06CC077F0764B772B660E7319D8A49E
:101C6E003BEF0EF03DEF0EF05DEF0EF079BF44EF5F
:101C7E000EF042EF0EF050EF0EF0000E916F000ED0
:101C8E00926F800E936F3F0E946F000E796F000E61
:101C9E00786F670E7219D8B457EF0EF059EF0EF039
:101CAE005DEF0EF07851762779517723000E816F14
:101CBE00000E806F8DC082F08EC083F08FC084F0D6
:101CCE0090C085F091C07CF092C07DF093C07EF004
:101CDE0094C07FF0EEEF0EF082C032F083C033F08E
:101CEE0084C034F085C035F091C036F092C037F024
:101CFE0093C038F094C039F0C1EC15F032C04BF0FF
:101D0E0033C04CF034C04DF035C04EF0B1EC1FF086
:101D1E004BC086F04CC087F04DC088F04EC089F0A5
:101D2E0086C001F087C002F088C003F089C004F0BD
:101D3E0096EC24F001C074F002C075F082C02AF057
:101D4E0083C02BF084C02CF085C02DF086C015F01A
:101D5E0087C016F088C017F089C018F091C011F036
:101D6E0092C012F093C013F094C014F0ACEC13F0C8
:101D7E0011C02EF012C02FF013C030F014C031F08D
:101D8E0089EC2EF02AC082F02BC083F02CC084F098
:101D9E002DC085F091C032F092C033F093C034F074
:101DAE0094C035F0000E366E000E376E200E386E73
:101DBE00410E396EC1EC15F032C091F033C092F085
:101DCE0034C093F035C094F00001804B812B7651D6
:101DDE00805D8151800A676F7751800A6759D8A05C
:101DEE00FBEF0EF0FDEF0EF073EF0EF091C011F061
:101DFE0092C012F093C013F094C014F0000E156E42
:101E0E00000E166EA00E176E400E186EACEC13F090
:101E1E0011C086F012C087F013C088F014C089F08C
:101E2E0082C02AF083C02BF084C02CF085C02DF028
:101E3E0086C02EF087C02FF088C030F089C031F0F8
:101E4E0019EC25F0D8B02EEF0FF030EF0FF03BEF7E
:101E5E000FF0000E0001866F000E876F000E886F68
:101E6E00000E896F64EF0FF082C032F083C033F042
:101E7E0084C034F085C035F086C036F087C037F0A8
:101E8E0088C038F089C039F08EEC27F0D8A052EF18
:101E9E000FF054EF0FF064EF0FF0000174B15AEF32
:101EAE000FF05CEF0FF064EF0FF0000E866F000E78
:101EBE00876F000E886F000E896F8DC001F08EC087
:101ECE0002F08FC003F090C004F086C005F087C00A
:101EDE0006F088C007F089C008F04CEC11F001C084
:101EEE0082F002C083F003C084F004C085F082C08B
:101EFE002AF083C02BF084C02CF085C02DF0000E8C
:101F0E00156E000E166E200E176E410E186E7CC0EA
:101F1E0011F07DC012F07EC013F07FC014F0ACEC57
:101F2E0013F011C02EF012C02FF013C030F014C0F9
:101F3E0031F019EC25F0D8A0A7EF0FF0A9EF0FF0B4
:101F4E00D2EF0FF00001784B792B7CC011F07DC0E1
:101F5E0012F07EC013F07FC014F0000E156E000E4E
:101F6E00166E200E176E410E186EACEC13F011C0EB
:101F7E007CF012C07DF013C07EF014C07FF0660EB0
:101F8E0000017319D8A4CEEF0FF0D0EF0FF0D2EFFF
:101F9E000FF0764B772B7CC091F07DC092F07EC017
:101FAE0093F07FC094F078C069F079C06AF0000EAB
:101FBE000001716F000E6E6F000E6D6F000E816F5F
:101FCE00000E806FD0EF10F082C032F083C033F07D
:101FDE0084C034F085C035F091C036F092C037F031
:101FEE0093C038F094C039F0C1EC15F032C04BF00C
:101FFE0033C04CF034C04DF035C04EF0B1EC1FF094
:10200E004BC086F04CC087F04DC088F04EC089F0B2
:10201E0086C001F087C002F088C003F089C004F0CA
:10202E0096EC24F002BE27EF10F0025007E10A0EE4
:10203E00015CD8B025EF10F027EF10F037EF10F05D
:10204E0086C001F087C002F088C003F089C004F09A
:10205E0096EC24F001C074F002C075F03CEF10F065
:10206E00000E0001756F090E746F00017151D8A436
:10207E0043EF10F045EF10F06DEF10F06ABF4CEF2C
:10208E0010F04AEF10F06DEF10F0A00E8B25D96E08
:10209E00020E8C21DA6E2E0EDF6E8B4B8C2B7A0796
:1020AE00D8A07B07010E716F6DEF10F0A00E8B257F
:1020BE00D96E020E8C21DA6E300EDF6E8B4B8C2BAE
:1020CE007A07D8A07B076D07D8A06E076D516E11E9
:1020DE00D8A474EF10F076EF10F05DEF10F0A00EB4
:1020EE008B25D96E020E8C21DA6E7451300FDF6E95
:1020FE008B4B8C2B7A07D8A07B0782C02AF083C02B
:10210E002BF084C02CF085C02DF086C015F087C052
:10211E0016F088C017F089C018F091C011F092C067
:10212E0012F093C013F094C014F0ACEC13F011C085
:10213E002EF012C02FF013C030F014C031F089EC25
:10214E002EF02AC082F02BC083F02CC084F02DC05C
:10215E0085F091C032F092C033F093C034F094C049
:10216E0035F0000E366E000E376E200E386E410EB4
:10217E00396EC1EC15F032C091F033C092F034C01C
:10218E0093F035C094F000016907D8A06A07804B20
:10219E00812B7651805D8151800A676F7751800A5D
:1021AE006759D8B0DDEF10F0DFEF10F0EDEF10F063
:1021BE008CBFEBEF10F08C5109E14B0E8B5DD8A06C
:1021CE00EBEF10F0EDEF10F0EBEF0FF0000E816F74
:1021DE004F0E806FA00E8025D96E020E8121DA6E11
:1021EE00000EDF6EA00E676F020E686F8B51675F79
:1021FE008C51685B80516725016E81516821026E9A
:10220E00A00E036E020E046E8BC005F08CC006F09D
:10221E0073EC2DF000018B51805D8B6F8C518159C9
:10222E008C6F8A51D8A41EEF11F021EF11F0010E20
:10223E0022EF11F0000E806F816B8A51D8B42AEF15
:10224E0011F02CEF11F037EF11F08B07D8A08C079F
:10225E00A00E8B25D96E020E8C21DA6E8AC0DFFF9E
:10226E0080517A5F81517B5B60C011F061C012F0CA
:10227E00A00E8B25136E020E8C21146E7AC015F0F3
:10228E007BC016F0F7EC29F012000450800B0D6E97
:10229E00045004240F6E03AE57EF11F059EF11F0F6
:1022AE005AEF11F00F800F50D8B460EF11F062EFBB
:1022BE0011F077EF11F00F28D8A468EF11F06AEF44
:1022CE0011F072EF11F0000E016E000E026E000E94
:1022DE00036E000E046E038E000E046E7FEF11F07F
:1022EE00000E016E000E026E000E036E000E046EE6
:1022FE000850800B0E6E0D500E18D8B489EF11F0E9
:10230E008BEF11F08CEF11F00D8C085008240E6E2F
:10231E0007AE94EF11F096EF11F097EF11F00E80DB
:10232E000E50D8B49DEF11F09FEF11F0B4EF11F0F5
:10233E000E28D8A4A5EF11F0A7EF11F0AFEF11F012
:10234E00000E056E000E066E000E076E000E086E75
:10235E00078E000E086EBCEF11F0000E056E000E1B
:10236E00066E000E076E000E086E0F500E5CD8B093
:10237E00C3EF11F0C5EF11F0ECEF11F00DACCAEF99
:10238E0011F0CCEF11F0CEEF11F0800E0D1A0FC040
:10239E0010F00EC00FF010C00EF001C010F005C00E
:1023AE0001F010C005F002C010F006C002F010C01F
:1023BE0006F003C010F007C003F010C007F004C011
:1023CE0010F008C004F010C008F0000E106E0F5090
:1023DE000EC009F00A6A095E000E0A5A0ABE01EF23
:1023EE0012F00A5009E11A0E095CD8A001EF12F0A2
:1023FE0003EF12F03AEF12F0015002100310041026
:10240E00D8A40CEF12F00FEF12F0010E10EF12F035
:10241E00000E106E000E016E000E026E000E036EA8
:10242E00000E046E0EC00FF043EF12F010A022EF5C
:10243E0012F024EF12F02AEF12F0D89010300109AA
:10244E00106E2CEF12F0D890103201A031EF12F076
:10245E0033EF12F034EF12F0108E043404320332E4
:10246E00023201320F2A0E500F5CD8A041EF12F04B
:10247E0043EF12F01DEF12F00DBC48EF12F04AEFD1
:10248E0012F08AEF12F00F50D8A450EF12F052EF64
:10249E0012F05CEF12F0000E016E000E026E000ED6
:1024AE00036E000E046EABEF13F0055001260650BE
:1024BE000222075003220850042204A069EF12F0F2
:1024CE006BEF12F017EF13F010A070EF12F072EF27
:1024DE0012F078EF12F0D89010300109106E7AEFEA
:1024EE0012F0D890103201A07FEF12F081EF12F0AF
:1024FE0082EF12F0108E04340432033202320132B3
:10250E000F2A17EF13F00550015C065002580750C2
:10251E0003580450800A096E0850800A0958D8B032
:10252E009BEF12F09DEF12F0C8EF12F00150055C18
:10253E00096E025006580A6E035007580B6E04506F
:10254E0008580C6EFF0E0924016EFF0E0A20026E53
:10255E00FF0E0B20036EFF0E0C20046E800E0D1A64
:10256E00106C1050D8A4BEEF12F0C0EF12F0D0EFE6
:10257E0012F0010E0126000E022203220422D0EFD9
:10258E0012F00550015E0650025A0750035A0850C9
:10259E00045A0150021003100410D8A4D9EF12F0FF
:1025AE00DBEF12F010EF13F01050D8A4E1EF12F0A1
:1025BE00E3EF12F010EF13F0000E016E000E026E3C
:1025CE00000E036E000E046EABEF13F0D8900136C2
:1025DE0002360336043610AEF7EF12F0F9EF12F0B2
:1025EE00FAEF12F0018010A0FFEF12F001EF13F0DE
:1025FE0005EF13F0D880103607EF13F0D890103691
:10260E000F50D8B40DEF13F00FEF13F010EF13F0CF
:10261E000F0603AE15EF13F017EF13F0EDEF12F0F8
:10262E00000E0E6E10AE1EEF13F020EF13F038EF0B
:10263E0013F010C009F07F0E0916D8B429EF13F06D
:10264E002BEF13F02FEF13F0010E0E6E38EF13F089
:10265E0001A034EF13F036EF13F038EF13F02BEF39
:10266E0013F00E50D8B43EEF13F040EF13F06BEFB3
:10267E0013F0010E0126000E02220322042204A0F2
:10268E004BEF13F04DEF13F06BEF13F001C009F0A9
:10269E0002C00AF003C00BF004C00CF00C340C3274
:1026AE000B320A32093209C001F00AC002F00BC027
:1026BE0003F00CC004F00F28D8B468EF13F06AEFE3
:1026CE0013F06BEF13F00F2A0F28D8B471EF13F03D
:1026DE0073EF13F07BEF13F00F50D8A479EF13F0D4
:1026EE007BEF13F08DEF13F0000E016E000E026EF5
:1026FE00000E036E000E046E0F50D8A489EF13F077
:10270E008BEF13F08DEF13F0000E0D6E0FA092EF06
:10271E0013F094EF13F097EF13F0038E98EF13F07E
:10272E00039ED8900F30046E0DAEA0EF13F0A2EF03
:10273E0013F0A3EF13F0048E01C001F002C002F0FB
:10274E0003C003F004C004F012001450800B1D6E81
:10275E0014501424236E13AEB7EF13F0B9EF13F029
:10276E00BAEF13F023802350D8B4C0EF13F0C2EFAA
:10277E0013F0D5EF13F02328D8A4C8EF13F0CAEF47
:10278E0013F0D2EF13F0000E116E000E126E000E4B
:10279E00136E000E146E138EDDEF13F0000E116E1D
:1027AE00000E126E000E136E000E146E1850800B7B
:1027BE001D1A18501824226E17AEE8EF13F0EAEF28
:1027CE0013F0EBEF13F022802250D8B4F1EF13F098
:1027DE00F3EF13F006EF14F02228D8A4F9EF13F05C
:1027EE00FBEF13F003EF14F0000E156E000E166ED5
:1027FE00000E176E000E186E178E0EEF14F0000EF0
:10280E00156E000E166E000E176E000E186E22500C
:10281E00D8B414EF14F016EF14F01EEF14F023508A
:10282E00D8A41CEF14F01EEF14F028EF14F0000ED5
:10283E00116E000E126E000E136E000E146EC0EFAF
:10284E0015F017501102F3CF28F0F4CF29F02850CD
:10285E001E6E1F6A206A216A2950246E256A266A16
:10286E00276A16501202F3CF28F0F4CF29F0285021
:10287E001E26000E1F222022212229502426000E61
:10288E0025222622272215501302F3CF28F0F4CF4B
:10289E0029F028501E26000E1F2220222122295008
:1028AE002426000E25222622272220C021F01FC01A
:1028BE0020F01EC01FF01E6A15501202F3CF28F032
:1028CE00F4CF29F028501E2629501F22000E202258
:1028DE00000E212216501102F3CF28F0F4CF29F06A
:1028EE0028501E2629501F22000E2022000E2122C3
:1028FE0020C021F01FC020F01EC01FF01E6A155010
:10290E001102F3CF28F0F4CF29F028501E262950BB
:10291E001F22000E2022000E212217501202F3CF8A
:10292E0028F0F4CF29F02850242629502522000E15
:10293E002622000E272216501302F3CF28F0F4CFD2
:10294E0029F02850242629502522000E2622000E7A
:10295E00272217501302F3CF28F0F4CF29F0285076
:10296E00196E29501A6E1B6A1C6A1BC01CF01AC005
:10297E001BF019C01AF0196A195024261A50252274
:10298E001B5026221C5027221EC019F01FC01AF001
:10299E0020C01BF021C01CF0190EDBEF14F0D890F4
:1029AE001C321B321A321932E82ED6EF14F019509F
:1029BE0024261A5025221B5026221C50272220C0C6
:1029CE0021F01FC020F01EC01FF01E6A225023C02F
:1029DE0019F01A6A1926000E1A22820E1924286E70
:1029EE00FF0E1A20296E11EF15F0D89024362536D9
:1029FE002636273621AE06EF15F008EF15F009EF53
:102A0E0015F02480D8901E361F3620362136280623
:102A1E00D8A0290626AE16EF15F018EF15F0FCEF2C
:102A2E0014F0000E226E21AE1FEF15F021EF15F0FF
:102A3E0045EF15F0FF0E1E14196EFF0E1F141A6EC1
:102A4E00FF0E20141B6E7F0E21141C6E19501A10CF
:102A5E001B101C10D8B436EF15F038EF15F03CEF04
:102A6E0015F0010E226E45EF15F024A041EF15F082
:102A7E0043EF15F045EF15F038EF15F02250D8B4AE
:102A8E004BEF15F04DEF15F071EF15F0010E2426FA
:102A9E00000E25222622272227A058EF15F05AEFE6
:102AAE0015F071EF15F024C019F025C01AF026C0EC
:102ABE001BF027C01CF01C341C321B321A32193288
:102ACE0019C024F01AC025F01BC026F01CC027F038
:102ADE00284A292A29BE7CEF15F0295008E128281A
:102AEE00D8A07CEF15F07EEF15F088EF15F0000EF4
:102AFE00246E000E256E800E266E7F0E276EB6EFAC
:102B0E0015F029BE95EF15F0295006E12804D8B02E
:102B1E0093EF15F095EF15F0A1EF15F0000E246E62
:102B2E00000E256E000E266E000E276E000E1D6E18
:102B3E00B6EF15F028C023F0FF0E2416FF0E251653
:102B4E007F0E2616000E271623A0B0EF15F0B2EF5B
:102B5E0015F0B3EF15F0268ED8902330276E1D504A
:102B6E00271224C011F025C012F026C013F027C082
:102B7E0014F012003550800B426E35503524496EDC
:102B8E0034AECCEF15F0CEEF15F0CFEF15F0498047
:102B9E004950D8B4D5EF15F0D7EF15F0ECEF15F08E
:102BAE004928D8A4DDEF15F0DFEF15F0E7EF15F0AB
:102BBE00000E326E000E336E000E346E000E356E49
:102BCE00348E000E356EF4EF15F0000E326E000EE0
:102BDE00336E000E346E000E356E3950800B421A75
:102BEE00395039244A6E38AEFFEF15F001EF16F06A
:102BFE0002EF16F04A804A50D8B408EF16F00AEFEA
:102C0E0016F01FEF16F04A28D8A410EF16F012EFA8
:102C1E0016F01AEF16F0000E366E000E376E000E1E
:102C2E00386E000E396E388E000E396E27EF16F0A4
:102C3E00000E366E000E376E000E386E000E396EB8
:102C4E003650371038103910D8A430EF16F032EF56
:102C5E0016F04AEF16F0000E326E000E336E000EB6
:102C6E00346E000E356E800E34127F0E35124250C9
:102C7E00351232C032F033C033F034C034F035C0C8
:102C8E0035F08DEF17F04950D8A450EF16F052EFF3
:102C9E0016F05CEF16F0000E326E000E336E000E64
:102CAE00346E000E356E8DEF17F04A5049C03AF073
:102CBE003B6A3A5E000E3B5A7F0E3A24436E000E7C
:102CCE003B20446E32C03EF033C03FF034C040F083
:102CDE0035C041F0000E326E000E336E000E346EB3
:102CEE00000E356E000E456E000E466E000E476EDF
:102CFE00000E486E000E4A6EBDEF16F04A50D8B464
:102D0E008BEF16F08DEF16F0A4EF16F0D8903E363E
:102D1E003F3640364136D890323633363436353635
:102D2E0048AE9CEF16F09EEF16F09FEF16F0328035
:102D3E00D890453646364736483636503E5C375084
:102D4E003F583850405839504158D8A0B1EF16F07E
:102D5E00B3EF16F0BCEF16F0488C36503E5E37508F
:102D6E003F5A3850405A3950415A4A2A190E4A642D
:102D7E00C3EF16F0C5EF16F085EF16F03E503F107C
:102D8E0040104110D8B4CEEF16F0D0EF16F0E8EFA9
:102D9E0016F04580E8EF16F0D890323633363436DA
:102DAE00353648AEDDEF16F0DFEF16F0E0EF16F039
:102DBE003280D89045364636473648364306D8A038
:102DCE00440634AEEDEF16F0EFEF16F0D3EF16F03B
:102DDE00000E4A6E48AEF6EF16F0F8EF16F01CEF46
:102DEE0017F0FF0E45143A6EFF0E46143B6EFF0EA3
:102DFE0047143C6E7F0E48143D6E3A503B103C100B
:102E0E003D10D8B40DEF17F00FEF17F013EF17F0CA
:102E1E00010E4A6E1CEF17F032A018EF17F01AEFE2
:102E2E0017F01CEF17F00FEF17F04A50D8B422EF3F
:102E3E0017F024EF17F048EF17F0010E3226000EB0
:102E4E0033223422352235A02FEF17F031EF17F051
:102E5E0048EF17F032C03AF033C03BF034C03CF0CC
:102E6E0035C03DF03D343D323C323B323A323AC011
:102E7E0032F03BC033F03CC034F03DC035F0434A35
:102E8E00442A44BE53EF17F0445008E14328D8A01B
:102E9E0053EF17F055EF17F060EF17F0000E446E7A
:102EAE004368000E326E000E336E000E346E000E4E
:102EBE00356E44BE6DEF17F0445006E14304D8B0B2
:102ECE006BEF17F06DEF17F07BEF17F0000E446EFF
:102EDE00000E436E000E326E000E336E000E346E18
:102EEE00000E356E000E426E43C049F049A082EFCF
:102EFE0017F084EF17F087EF17F0348E88EF17F086
:102F0E00349ED8904930356E3EEF16F012004BC00D
:102F1E00D9FF4CC0DAFFDECF01F0DDCF02F0000E9C
:102F2E0002BEFF0E036E046E010EBAEC20F001C05D
:102F3E006CF002C06DF003C06EF004C06FF020EEB6
:102F4E0002F04B50D9264C50DA22DECF01F0DDCF05
:102F5E0002F0000E02BEFF0E036E046E010EBAECFE
:102F6E0020F001C070F002C071F003C072F004C016
:102F7E0073F020EE04F04B50D9264C50DA22DECFFF
:102F8E0001F0DDCF02F0000E02BEFF0E036E046EE6
:102F9E00010EBAEC20F001C074F002C075F003C04F
:102FAE0076F004C077F020EE06F04B50D9264C5048
:102FBE00DA22DECF01F0DDCF02F0000E02BEFF0EF0
:102FCE00036E046E010EBAEC20F001C060F002C078
:102FDE0061F003C062F004C063F070C005F071C010
:102FEE0006F072C007F073C008F06CC001F06DC03F
:102FFE0002F06EC003F06FC004F04CEC11F001C093
:10300E0064F002C065F003C066F004C067F074C0DF
:10301E0005F075C006F076C007F077C008F064C002
:10302E0001F065C002F066C003F067C004F04CEC1E
:10303E0011F001C068F002C069F003C06AF004C06C
:10304E006BF06CC032F06DC033F06EC034F06FC0F8
:10305E0035F060C005F061C006F062C007F063C0D5
:10306E0008F068C001F069C002F06AC003F06BC0DE
:10307E0004F04CEC11F001C036F002C037F003C082
:10308E0038F004C039F0C1EC15F04DC0D9FF4EC078
:10309E00DAFF32C0DEFF33C0DEFF34C0DEFF35C0E4
:1030AE00DEFF70C005F071C006F072C007F073C08D
:1030BE0008F06CC001F06DC002F06EC003F06FC07E
:1030CE0004F04CEC11F001C064F002C065F003C0D6
:1030DE0066F004C067F074C005F075C006F076C0E7
:1030EE0007F077C008F064C001F065C002F066C05A
:1030FE0003F067C004F04CEC11F001C068F002C0A0
:10310E0069F003C06AF004C06BF074C032F075C091
:10311E0033F076C034F077C035F060C005F061C092
:10312E0006F062C007F063C008F068C001F069C025
:10313E0002F06AC003F06BC004F04CEC11F001C059
:10314E0036F002C037F003C038F004C039F0C1ECDD
:10315E0015F020EE08F04D50D9264E50DA2232C02E
:10316E00DEFF33C0DEFF34C0DEFF35C0DEFF70C0D1
:10317E0005F071C006F072C007F073C008F06CC0A5
:10318E0001F06DC002F06EC003F06FC004F04CECA5
:10319E0011F001C064F002C065F003C066F004C017
:1031AE0067F074C005F075C006F076C007F077C002
:1031BE0008F064C001F065C002F066C003F067C09D
:1031CE0004F04CEC11F001C068F002C069F003C0CD
:1031DE006AF004C06BF070C032F071C033F072C090
:1031EE0034F073C035F060C005F061C006F062C007
:1031FE0007F063C008F068C001F069C002F06AC051
:10320E0003F06BC004F04CEC11F001C036F002C0BC
:10321E0037F003C038F004C039F0C1EC15F020EEE1
:10322E0004F04D50D9264E50DA2232C0DEFF33C0A4
:10323E00DEFF34C0DEFF35C0DEFF120097C0D9FFBF
:10324E0098C0DAFFDECFF6FFDDCFF7FF000EF86E87
:10325E000800F550250AD8A437EF19F039EF19F008
:10326E0091EF1AF097C0D9FF98C0DAFFDE2A000E50
:10327E00DD22000E0001E86F000EE76FE7C0F1F0EF
:10328E00E969EA6997C0D9FF98C0DAFFDECFA6F0E8
:10329E00DDCFA7F0A6C0F6FFA7C0F7FF000EF86EB1
:1032AE000800F550640AD8B45FEF19F061EF19F019
:1032BE0071EF19F0A6C0F6FFA7C0F7FF000EF86E6B
:1032CE000800F550690AD8A46FEF19F071EF19F0E4
:1032DE00B4EF19F099C0D9FF9AC0DAFFDFCF9BF097
:1032EE00020EDE26DFCF9CF0000EDD229BC0D9FF42
:1032FE009CC0DAFFDECF9DF0DDCF9EF0000E9EBFAC
:10330E00FF0E9F6FA06FA16FA26FA36FA46F010E30
:10331E00A6259B6F000EA7219C6F97C0D9FF98C062
:10332E00DAFF9BC0DEFF9CC0DDFF95C01CF096C08F
:10333E001DF09DC01EF09EC01FF09FC020F0A0C0CB
:10334E0021F0A1C022F0A2C023F0A3C024F0A4C09B
:10335E0025F018EC1CF0A7EF1AF097C0D9FF98C013
:10336E00DAFFDECFA6F0DDCFA7F0A6C0F6FFA7C02E
:10337E00F7FF000EF86E0800F5CFA5F0D3EF19F0A9
:10338E00A64BA72BECEF19F06C0EA56FECEF19F016
:10339E00000EA56FECEF19F0A5519B6F9C6B9C5125
:1033AE00000AD8B4DDEF19F0CFEF19F09B514C0A9B
:1033BE00D8B4C7EF19F02A0AD8B4CBEF19F00A0A1D
:1033CE00D8B4C7EF19F0CFEF19F0A6C0F6FFA7C01B
:1033DE00F7FF000EF86E0800F550660AD8A4FAEF53
:1033EE0019F0FCEF19F088EF1AF032EF1AF099C0CD
:1033FE00D9FF9AC0DAFFDFCF9BF0040EDE26DFCFB7
:10340E009CF0000EDD229BC0D9FF9CC0DAFFDECF00
:10341E009DF0DECF9EF0DECF9FF0DECFA0F047EF27
:10342E001AF099C0D9FF9AC0DAFFDFCF9BF0040ED5
:10343E00DE26DFCF9CF0000EDD229BC0D9FF9CC0A4
:10344E00DAFFDECF9DF0DECF9EF0DECF9FF0DECF37
:10345E00A0F047EF1AF0A5519B6F9C6B9C51000A90
:10346E00D8B43CEF1AF047EF1AF09B514C0AD8B47F
:10347E0018EF1AF0200AD8B4FEEF19F047EF1AF041
:10348E00010EA6259B6F000EA7219C6F97C0D9FF3A
:10349E0098C0DAFF9BC0DEFF9CC0DDFF70EF1AF014
:1034AE0095C060F096C061F09DC062F09EC063F062
:1034BE009FC064F0A0C065F0A6C0F6FFA7C0F7FFDE
:1034CE00000EF86E0800F5CF66F04FEC0CF0A7EF8B
:1034DE001AF0A6C0F6FFA7C0F7FF000EF86E0800A0
:1034EE00F5509B6F9C6B9C51000AD8B481EF1AF07B
:1034FE0088EF1AF09B51660AD8B457EF1AF088EF8E
:10350E001AF097C0D9FF98C0DAFFDE2A000EDD222E
:10351E00A7EF1AF097C0D9FF98C0DAFFDECFF6FFFB
:10352E00DDCFF7FF000EF86E0800F550016E026A4F
:10353E0095C003F096C004F01AEC26F088EF1AF04E
:10354E0012005D0E206E010E216E540E226E010EC3
:10355E00236E0DEC2BF0D59ED6C12BF0D7C12CF0DF
:10356E002CBEBEEF1AF0BCEF1AF0C0EF1AF017EF38
:10357E001CF05D0E146E010E156E540E166E010EBD
:10358E00176ED8902B34D96E2C34DA6E2650D9267D
:10359E002750DA22DECF18F0DDCF19F0E3EC27F05A
:1035AE002B502424286E2C502520296EFF0E282403
:1035BE00D96EFF0E2920DA6EDE04D8A4E9EF1AF0D8
:1035CE00EBEF1AF001EF1BF05D0E1A6E010E1B6E83
:1035DE00540E1C6E010E1D6EA0EC2BF05D0E206EB7
:1035EE00010E216E540E226E010E236E50EC2FF042
:1035FE0003EF1CF02B502424286E2C502520296E0E
:10360E00FF0E2824D96EFF0E2920DA6E020EDE1868
:10361E00D8A414EF1BF016EF1BF02CEF1BF05D0E71
:10362E001A6E010E1B6E540E1C6E010E1D6EA0EC5A
:10363E002BF05D0E206E010E216E540E226E010EC9
:10364E00236ECFEC2CF003EF1CF02B502424286EAD
:10365E002C502520296EFF0E2824D96EFF0E29200E
:10366E00DA6E030EDE18D8A43FEF1BF041EF1BF00D
:10367E0057EF1BF05D0E1A6E010E1B6E540E1C6E74
:10368E00010E1D6EA0EC2BF05D0E206E010E216E54
:10369E00540E226E010E236E7FEC26F003EF1CF00B
:1036AE002B502424286E2C502520296EFF0E282402
:1036BE00D96EFF0E2920DA6E040EDE18D8A46AEF3A
:1036CE001BF06CEF1BF082EF1BF05D0E1A6E010EFD
:1036DE001B6E540E1C6E010E1D6EA0EC2BF05D0EBB
:1036EE00206E010E216E540E226E010E236E0DEC15
:1036FE002BF003EF1CF02B502424286E2C50252089
:10370E00296EFF0E2824D96EFF0E2920DA6E050EC3
:10371E00DE18D8A495EF1BF097EF1BF0ADEF1BF062
:10372E005D0E1A6E010E1B6E540E1C6E010E1D6E7A
:10373E00A0EC2BF05D0E206E010E216E540E226E4B
:10374E00010E236E31EC2FF003EF1CF02B502424CE
:10375E00286E2C502520296EFF0E2824D96EFF0EC0
:10376E002920DA6E060EDE18D8A4C0EF1BF0C2EFC9
:10377E001BF0D8EF1BF05D0E1A6E010E1B6E540E71
:10378E001C6E010E1D6EA0EC2BF05D0E206E010E58
:10379E00216E540E226E010E236EA6EC2CF003EF5A
:1037AE001CF02B502424286E2C502520296EFF0E41
:1037BE002824D96EFF0E2920DA6E070EDE18D8A443
:1037CE00EBEF1BF0EDEF1BF003EF1CF05D0E1A6E2E
:1037DE00010E1B6E540E1C6E010E1D6EA0EC2BF016
:1037EE005D0E206E010E216E540E226E010E236EA2
:1037FE00DAEC26F003EF1CF05D0E146E010E156E62
:10380E00540E166E010E176EB8EC29F0000E010163
:10381E00D56F000ED46F2B06D8A02C06B7EF1AF07A
:10382E0012001EC034F01FC035F020C036F021C08B
:10383E0037F022C038F023C039F024C03AF025C04A
:10384E003BF03BBE2DEF1CF030EF1CF0010E31EFC4
:10385E001CF0000E3E6E3E50D8B438EF1CF03AEF1E
:10386E001CF04AEF1CF03B1E3A1E391E381E371E46
:10387E00361E351E346C000E352236223722382283
:10388E0039223A223B220001EABF58EF1CF0EA51DE
:10389E0006E1E905D8B056EF1CF058EF1CF05EEFCC
:1038AE001CF0000E316E010E306E62EF1CF0E9C09E
:1038BE0030F0EAC031F0E7C032F0E8C033F03E50ED
:1038CE00D8B46CEF1CF06EEF1CF085EF1CF03206D6
:1038DE00D8A033063E50D8A477EF1CF079EF1CF039
:1038EE007FEF1CF0000E2F6E2B0E2E6E83EF1CF052
:1038FE00000E2F6E2D0E2E6E2EC03EF0000E3D6E63
:10390E004F0E3C6E000E0201EF6F0AEF1DF03C06EB
:10391E00D8A03D06A00E3C24D96E020E3D20DA6ED4
:10392E0034C001F035C002F036C003F037C004F0E9
:10393E0038C005F039C006F03AC007F03BC008F0B9
:10394E000A0E096E000E0A6E000E0B6E000E0C6E45
:10395E00000E0D6E000E0E6E000E0F6E000E106E2F
:10396E00E4EC23F001C026F002C027F003C028F0DB
:10397E0004C029F005C02AF006C02BF007C02CF0B9
:10398E0008C02DF026C013F027C014F011EC2FF054
:10399E001350300FDF6E3006D8A031063206D8A095
:1039AE00330634C001F035C002F036C003F037C024
:1039BE0004F038C005F039C006F03AC007F03BC03D
:1039CE0008F00A0E096E000E0A6E000E0B6E000E47
:1039DE000C6E000E0D6E000E0E6E000E0F6E000EB3
:1039EE00106E6AEC22F001C034F002C035F003C054
:1039FE0036F004C037F005C038F006C039F007C005
:103A0E003AF008C03BF03DBE15EF1DF03D5008E109
:103A1E003C04D8A015EF1DF017EF1DF033EF1DF08D
:103A2E003450351036103710381039103A103B100C
:103A3E00D8A424EF1DF026EF1DF08EEF1CF031BE42
:103A4E0033EF1DF0315006E13004D8B031EF1DF0E8
:103A5E0033EF1DF08EEF1CF03E50D8B439EF1DF051
:103A6E003BEF1DF046EF1DF03C06D8A03D06A00E24
:103A7E003C24D96E020E3D20DA6E3EC0DFFF1CC024
:103A8E0011F01DC012F0A00E3C24136E020E3D204C
:103A9E00146E32C015F033C016F0F7EC29F0120098
:103AAE002D042E10D8A45EEF1DF060EF1DF07EEFFA
:103ABE001DF05D0E206E010E216E540E226E010E53
:103ACE00236E31EC2FF0000ED46E000ED36E160E58
:103ADE000101D625D96E010ED721DA6E010EDF6EE9
:103AEE00000E0001EC6F000EEB6F92EF1EF0020E57
:103AFE002D182E10D8A486EF1DF088EF1DF0A1EF23
:103B0E001DF05D0E206E010E216E540E226E010E02
:103B1E00236EA6EC2CF0000ED46E000ED36E160E95
:103B2E000101D625D96E010ED721DA6E020EDF6E97
:103B3E0077EF1DF0030E2D182E10D8A4A9EF1DF04F
:103B4E00ABEF1DF0C4EF1DF05D0E206E010E216E69
:103B5E00540E226E010E236EF8EC2CF0000ED46E75
:103B6E00000ED36E160E0101D625D96E010ED72189
:103B7E00DA6E030EDF6E77EF1DF0040E2D182E1089
:103B8E00D8A4CCEF1DF0CEEF1DF0E7EF1DF05D0ECB
:103B9E00206E010E216E540E226E010E236E0DEC60
:103BAE002BF0000ED46E000ED36E160E0101D6252C
:103BBE00D96E010ED721DA6E040EDF6E77EF1DF08F
:103BCE00050E2D182E10D8A4EFEF1DF0F1EF1DF0FD
:103BDE000AEF1EF05D0E206E010E216E540E226E47
:103BEE00010E236E50EC2FF0000ED46E000ED36E2D
:103BFE00160E0101D625D96E010ED721DA6E050EED
:103C0E00DF6E77EF1DF0060E2D182E10D8A412EFD2
:103C1E001EF014EF1EF02DEF1EF05D0E206E010E45
:103C2E00216E540E226E010E236ECFEC2CF0000E80
:103C3E00D46E000ED36E160E0101D625D96E010E6E
:103C4E00D721DA6E060EDF6E77EF1DF0070E2D18F8
:103C5E002E10D8A435EF1EF037EF1EF050EF1EF0E9
:103C6E005D0E206E010E216E540E226E010E236E1D
:103C7E0021EC2DF0000ED46E000ED36E160E010147
:103C8E00D625D96E010ED721DA6E070EDF6E77EFCD
:103C9E001DF00A0E2D182E10D8A458EF1EF05AEF54
:103CAE001EF087EF1EF00001EB4BEC2BECBF69EF23
:103CBE001EF0EC5109E1030EEB5DD8A069EF1EF08A
:103CCE006BEF1EF077EF1EF0160E246E010E256EB2
:103CDE003C0E266E020E276EA8EC1AF092EF1EF026
:103CEE005D0E206E010E216E540E226E010E236E9D
:103CFE00A5EC2AF0000ED46E000ED36E92EF1EF0DD
:103D0E002D502E10D8A48EEF1EF090EF1EF092EFD5
:103D1E001EF06BEF1EF0120049EC30F06AEC30F042
:103D2E004AEC2DF0DAEC2FF003EC30F070EC30F0C2
:103D3E00000E026EC80E016E74EC29F039EC30F0F4
:103D4E00000E01015D6F010E5E6F010E5F6FAA0E18
:103D5E00626F0F0E636FA60E646F0F0E656F000E0F
:103D6E00616FC80E606F000E546F010E556F010E1D
:103D7E00566F250E596F0F0E5A6F210E5B6F0F0E79
:103D8E005C6F000E586FC80E576F5D0E206E010EE1
:103D9E00216E540E226E010E236E94EC21F07E9055
:103DAE00520E0001D26F2B0ED16F000EE82EFED7F1
:103DBE00D12FFCD7D22FFAD700F08EB4E9EF1EF038
:103DCE00EBEF1EF0E4EF1EF0520E0001D26F2B0E41
:103DDE00D16F000EE82EFED7D12FFCD7D22FFAD7F7
:103DEE0000F0D58EA5EF1FF05D0E146E010E156E50
:103DFE00540E166E010E176E25EC29F0660E0C6E23
:103E0E00010E0D6E71EC2BF0660E4B6E010E4C6EAC
:103E1E00480E4D6E010E4E6E8EEC17F001016DBF09
:103E2E0022EF1FF0F40E6C5D010E6D59D8A022EF3B
:103E3E001FF024EF1FF083EF1FF0D64BD72B40EC73
:103E4E002BF05D0E1A6E010E1B6E540E1C6E010EC3
:103E5E001D6ECDEC2BF05D0E146E010E156E540E14
:103E6E00166E010E176EB8EC29F0660E516E010E2D
:103E7E00526E480E536E010E546E35EC27F051C043
:103E8E00D2F152C0D3F16E0E0001B06F010EB16FC0
:103E9E00010EB26F0E0EB36F48C1B4F049C1B5F04A
:103EAE004AC1B6F04BC1B7F04CC1B8F04DC1B9F034
:103EBE004EC1BAF04FC1BBF050C1BCF051C1BDF004
:103ECE0052C1BEF053C1BFF06CC1C0F06DC1C1F0A4
:103EDE00EFC0C2F0F0C0C3F07DEC2CF06E0E026E9F
:103EEE00010E036EC2EC2FF0D2C12DF0D3C12EF015
:103EFE0057EC1DF0A5EF1FF014511511D8B48AEF31
:103F0E001FF08CEF1FF0A5EF1FF0D64BD72BD890DC
:103F1E00D635D96ED735DA6E3C0ED926020EDA2298
:103F2E00FF0EDE6EFF0EDD6E160E246E010E256E7A
:103F3E003C0E266E020E276EA8EC1AF00101D4512B
:103F4E00D511D8A4ADEF1FF0AFEF1FF0FBEF1EF0B1
:103F5E001AEF00F0DFC05BF0E0C05CF0E1C05DF096
:103F6E00E2C05EF04BC05BF04CC05CF04DC05DF04B
:103F7E004EC05EF0810E4F6EFF0E506E5BC051F064
:103F8E005CC052F05DC053F05EC054F0180ED5EF19
:103F9E001FF0D8905432533252325132E82ED0EFB5
:103FAE001FF051504F24596E000E50205A6E5ABEBB
:103FBE00EAEF1FF05A5009E1170E595CD8A0EAEF4C
:103FCE001FF0ECEF1FF0F6EF1FF04BC04BF04CC0A4
:103FDE004CF04DC04DF04EC04EF0B9EF20F05ABE31
:103FEE00FBEF1FF0FDEF1FF06DEF20F059C04FF00B
:103FFE00FF0E506EFF0E516E7F0E526E000E536E00
:10400E004F660CEF20F014EF20F05334533252323F
:10401E00513250324F2E07EF20F050C055F051C0A4
:10402E0056F052C057F053C058F055505B144F6EB7
:10403E0056505C14506E57505D14516E58505E14AD
:10404E00526E4F50501051105210D8A431EF20F034
:10405E0033EF20F035EF20F0ECEF1FF05BC04FF0A8
:10406E005CC050F05DC051F05EC052F0200E45EFC6
:10407E0020F0D8905232513250324F32E82E40EF6B
:10408E0020F04F50501051105210D8B451EF20F074
:10409E0053EF20F05BEF20F055505B2656505C221C
:1040AE0057505D2258505E22551C4F6E561C506E56
:1040BE00571C516E581C526E4F505B1650505C166A
:1040CE0051505D1652505E16B1EF20F05BC04FF0AE
:1040DE005CC050F05DC051F05EC052F0200E7DEF1E
:1040EE0020F0D8905232513250324F32E82E78EFC3
:1040FE0020F04F50501051105210D8A489EF20F0DC
:10410E008BEF20F095EF20F0000E5B6E000E5C6ED4
:10411E00000E5D6E000E5E6EB1EF20F0D8905B3437
:10412E004F6E5C34506E5D34516E5E34526E4F5035
:10413E00501051105210D8B4A7EF20F0A9EF20F074
:10414E00B1EF20F0000E5B6E000E5C6E800E5D6EA9
:10415E00BF0E5E6E5BC04BF05CC04CF05DC04DF0B0
:10416E005EC04EF01200096E0950D8B4C1EF20F0B7
:10417E00C3EF20F0E5EF20F004BECAEF20F0C8EF49
:10418E0020F0E5EF20F001C005F002C006F003C0FC
:10419E0007F004C008F0051E061E071E081E052A9D
:1041AE00000E06220722082205C00BF006C00CF0F6
:1041BE0007C00DF008C00EF0EDEF20F001C00BF0BF
:1041CE0002C00CF003C00DF004C00EF0015002103E
:1041DE0003100410D8A4F6EF20F0F8EF20F002EF51
:1041EE0021F0000E016E000E026E000E036E000E28
:1041FE00046E93EF21F0960E0A6E0CEF21F00A2A50
:10420E00D8900E320D320C320B32000E0B14056E9E
:10421E00000E0C14066E000E0D14076EFE0E0E141C
:10422E00086E0550061007100810D8A421EF21F0D3
:10423E0023EF21F006EF21F031EF21F00A2A010ED3
:10424E000B26000E0C220D220E22D8900E320D32AD
:10425E000C320B32000E0B14056E000E0C14066E93
:10426E00000E0D14076EFF0E0E14086E055006108C
:10427E0007100810D8A446EF21F048EF21F025EFE3
:10428E0021F050EF21F00A06D8900B360C360D3681
:10429E000E360DBE55EF21F057EF21F05FEF21F0F6
:1042AE00020E0A605DEF21F05FEF21F04AEF21F080
:1042BE000AB064EF21F066EF21F067EF21F00D9E5A
:1042CE00D8900A320AC005F0066A076A086A05C065
:1042DE0008F0076A066A056A05500B1206500C12A2
:1042EE0007500D1208500E120950D8B481EF21F06C
:1042FE0083EF21F08BEF21F004BE8AEF21F088EFDF
:10430E0021F08BEF21F00E8E0BC001F00CC002F0ED
:10431E000DC003F00EC004F012007E80520E256E0A
:10432E002B0E246E000EE82EFED7242EFCD7252E43
:10433E00FAD700D04EEF22F07C865D0E1A6E010E7B
:10434E001B6E540E1C6E010E1D6E62EC2EF05D0E79
:10435E001A6E010E1B6E540E1C6E010E1D6E62EC5B
:10436E002EF05D0E1A6E010E1B6E540E1C6E010E9B
:10437E001D6E62EC2EF05D0E1A6E010E1B6E540E4B
:10438E001C6E010E1D6E62EC2EF033EF22F07C8857
:10439E00A30E256E570E246E020EE82EFED7242E87
:1043AE00FCD7252EFAD700D08EB6E0EF21F0E2EF43
:1043BE0021F0FBEF21F08EB4E7EF21F0E9EF21F0D1
:1043CE00FBEF21F080867C8E520E256E2B0E246E16
:1043DE00000EE82EFED7242EFCD7252EFAD700D0BD
:1043EE0080967C9E33EF22F08EB600EF22F002EF25
:1043FE0022F017EF22F00A0E0001F827000EF92323
:10440E008086520E256E2B0E246E000EE82EFED7E1
:10441E00242EFCD7252EFAD700D0809633EF22F02B
:10442E008EB41CEF22F01EEF22F033EF22F00001CB
:10443E00F60EF827FF0EF9237C8E520E256E2B0EEC
:10444E00246E000EE82EFED7242EFCD7252EFAD78A
:10445E0000D07C9E33EF22F08EA438EF22F03AEF9C
:10446E0022F041EF22F08EB63FEF22F041EF22F024
:10447E00CEEF21F07C98A30E256E570E246E020E01
:10448E00E82EFED7242EFCD7252EFAD700D08EB4D8
:10449E0053EF22F055EF22F0A3EF21F08EB65AEF34
:1044AE0022F05CEF22F0A3EF21F07C96A30E256E96
:1044BE00570E246E020EE82EFED7242EFCD7252E84
:1044CE00FAD700D01200000E126E10BE73EF22F05B
:1044DE0071EF22F085EF22F0101E0F1E0E1E0D1E24
:1044EE000C1E0B1E0A1E096C000E0A220B220C2239
:1044FE000D220E220F221022010E126E08BE8CEF1C
:10450E0022F08AEF22F09EEF22F0081E071E061EF2
:10451E00051E041E031E021E016C000E0222032243
:10452E0004220522062207220822010E121A20EE6C
:10453E0013F0070EDE6AE806FDE209500A100B10B2
:10454E000C100D100E100F101010D8B4B1EF22F089
:10455E00B3EF22F005EF23F0010E116EC1EF22F042
:10456E00D89009360A360B360C360D360E360F3607
:10457E001036112A10AEC6EF22F0C8EF22F0B7EFB8
:10458E0022F0D890133614361536163617361836DE
:10459E0019361A360950015C0A5002580B5003584E
:1045AE000C5004580D5005580E5006580F50075811
:1045BE0010500858D8A0E6EF22F0E8EF22F0F9EFFD
:1045CE0022F00950015E0A50025A0B50035A0C5049
:1045DE00045A0D50055A0E50065A0F50075A1050D5
:1045EE00085A1380D89010320F320E320D320C3220
:1045FE000B320A320932112EC8EF22F01250D8B403
:10460E000BEF23F00DEF23F01DEF23F01A1E191EF2
:10461E00181E171E161E151E141E136C000E1422C5
:10462E00152216221722182219221A2213C001F05F
:10463E0014C002F015C003F016C004F017C005F048
:10464E0018C006F019C007F01AC008F0120020EECC
:10465E0002F00E50D9260F50DA22DF50D8B43AEFBE
:10466E0023F03CEF23F070EF23F00EC0D9FF0FC004
:10467E00DAFFDF50106E1050016E026A20EE03F06A
:10468E000E50D9260F50DA22DECF03F0DDCF04F024
:10469E0016EC30F001C007F002C008F0000E0A6EF2
:1046AE00640E096E34EC2AF020EE03F00E50D9267B
:1046BE000F50DA22DF50116E0750115C126E20EE91
:1046CE0003F00E50D9260F50DA22DF50136E93EFFF
:1046DE0023F0000E126E0EC0D9FF0FC0DAFFDF50AE
:1046EE00106E1050016E026A20EE03F00E50D926A5
:1046FE000F50DA22DECF03F0DDCF04F016EC30F0EF
:10470E0001C007F002C008F0000E0A6E640E096EBA
:10471E0034EC2AF00750136E20EE01F00E50D9261D
:10472E000F50DA22DF50D8B49FEF23F0A1EF23F021
:10473E00C3EF23F020EE05F00E50D9260F50DA22EB
:10474E00DECF10F0DDCF11F010C0D9FF11C0DAFFAF
:10475E0013C0DFFF20EE07F00E50D9260F50DA22DD
:10476E00DECF10F0DDCF11F010C0D9FF11C0DAFF8F
:10477E0012C0DFFFE3EF23F020EE05F00E50D92636
:10478E000F50DA22DECF10F0DDCF11F010C0D9FFBE
:10479E0011C0DAFF12C0DFFF20EE07F00E50D9264F
:1047AE000F50DA22DECF10F0DDCF11F010C0D9FF9E
:1047BE0011C0DAFF13C0DFFF1200000E126E08BE2A
:1047CE00EDEF23F0EBEF23F0FFEF23F0081E071EB3
:1047DE00061E051E041E031E021E016C000E022282
:1047EE00032204220522062207220822010E126E3F
:1047FE0010BE06EF24F004EF24F016EF24F0101E86
:10480E000F1E0E1E0D1E0C1E0B1E0A1E096C000E18
:10481E000A220B220C220D220E220F2210220950E8
:10482E000A100B100C100D100E100F101010D8B423
:10483E0023EF24F025EF24F06DEF24F0010E116E1E
:10484E0033EF24F0D89009360A360B360C360D3677
:10485E000E360F361036112A10AE38EF24F03AEF1E
:10486E0024F029EF24F00950015C0A5002580B5035
:10487E0003580C5004580D5005580E5006580F5042
:10488E00075810500858D8A04FEF24F051EF24F0DD
:10489E0061EF24F00950015E0A50025A0B50035A80
:1048AE000C50045A0D50055A0E50065A0F50075A06
:1048BE001050085AD89010320F320E320D320C3280
:1048CE000B320A320932112E3AEF24F01250D8B4BC
:1048DE0073EF24F075EF24F085EF24F0081E071E09
:1048EE00061E051E041E031E021E016C000E022271
:1048FE0003220422052206220722082201C001F00B
:10490E0002C002F003C003F004C004F005C005F0BD
:10491E0006C006F007C007F008C008F01200033406
:10492E0004340A6E0A50D8A49FEF24F0A1EF24F0AD
:10493E00ABEF24F0000E016E000E026E000E036E41
:10494E00000E046E18EF25F001C005F002C006F04F
:10495E0003C007F004C008F0200EBBEF24F0D8907F
:10496E000832073206320532E82EB6EF24F0055033
:10497E00096E038EFF0E0116FF0E0216FF0E0316B2
:10498E00000E0416960E0A5E0ABED2EF24F0D0EF89
:10499E0024F0E8EF24F00A50800A970FD8B0DAEF2F
:1049AE0024F0DCEF24F0DEEF24F0A1EF24F0D89019
:1049BE0004320332023201320A3EDEEF24F000EFFF
:1049CE0025F01F0E0A64EEEF24F0F0EF24F0F8EF5E
:1049DE0024F0A1EF24F0D8900136023603360436C7
:1049EE000A060A50D8A4FEEF24F000EF25F0F2EFED
:1049FE0024F00950D8B406EF25F008EF25F010EF9B
:104A0E0025F0041E031E021E016C000E022203225C
:104A1E00042201C001F002C002F003C003F004C082
:104A2E0004F01200000E2A14326E000E2B14336E98
:104A3E00800E2C14346E7F0E2D14356E32503310C2
:104A4E0034103510D8A42EEF25F030EF25F038EFC6
:104A5E0025F0000E2A6E000E2B6E000E2C6E000E30
:104A6E002D6E000E2E14326E000E2F14336E800E2D
:104A7E003014346E7F0E3114356E325033103410C4
:104A8E003510D8A44DEF25F04FEF25F057EF25F058
:104A9E00000E2E6E000E2F6E000E306E000E316E5A
:104AAE002DAE5CEF25F05EEF25F067EF25F02A6C5A
:104ABE002B1ED8B02B2A2C1ED8B02C2A800E2D5689
:104ACE0031AE6CEF25F06EEF25F077EF25F02E6C02
:104ADE002F1ED8B02F2A301ED8B0302A800E315655
:104AEE00000E2A1A000E2B1A000E2C1A800E2D1AEA
:104AFE00000E2E1A000E2F1A000E301A800E311ACA
:104B0E002E502A5C2F502B5830502C5831502D5887
:104B1E00D8B094EF25F096EF25F099EF25F0D890C8
:104B2E009AEF25F0D8801200E3C00BF0E4C00CF031
:104B3E00E5C00DF0E6C00EF001C00BF002C00CF0A7
:104B4E0003C00DF004C00EF00BC005F00CC006F053
:104B5E000DC007F00EC008F0180EBBEF25F0D89070
:104B6E000832073206320532E82EB6EF25F0055030
:104B7E00096E0A6A09500A10D8A4C8EF25F0CAEFC8
:104B8E0025F0EAEF25F0D8900B34056E0C34066E46
:104B9E000D34076E0E34086E0550061007100810FF
:104BAE00D8A4DCEF25F0DEEF25F0E4EF25F0000EC3
:104BBE00026E020E016E19EF26F0000E026E030E4B
:104BCE00016E19EF26F009280A10D8A4F1EF25F08E
:104BDE00F3EF25F015EF26F00BC005F00CC006F034
:104BEE000DC007F00EC008F0090ED8900536063637
:104BFE0007360836E82EFCEF25F005500610071094
:104C0E000810D8B40DEF26F010EF26F0010E11EFBC
:104C1E0026F0000E016E026A19EF26F0000E026EEB
:104C2E00040E016E120003500410D8B421EF26F0CA
:104C3E0023EF26F02CEF26F003500410D8A42AEF11
:104C4E0026F02CEF26F031EF26F001508AEC30F0F2
:104C5E007EEF26F020EE09F00350D9260450DA221A
:104C6E00DE50DE10D8B43EEF26F040EF26F05BEFBC
:104C7E0026F020EE09F00350D9260450DA2210EE69
:104C8E0003F00350E1260450E222DE50E65CE650CB
:104C9E00800A096EDE50800A0958D8B059EF26F006
:104CAE005BEF26F07EEF26F020EE03F00350D926C0
:104CBE000450DA22DECF05F0DDCF06F003C0D9FFB7
:104CCE0004C0DAFFDECF07F0DDCF08F00550072471
:104CDE00D96E06500820DA6E01C0DFFF20EE03F019
:104CEE000350D9260450DA22DE2A000EDD221200ED
:104CFE005D0E1A6E010E1B6E540E1C6E010E1D6E95
:104D0E00A0EC2BF05D0E1A6E010E1B6E540E1C6E77
:104D1E00010E1D6E3BEC2EF05D0E1A6E010E1B6E1B
:104D2E00540E1C6E010E1D6E3BEC2EF05D0E1A6EB7
:104D3E00010E1B6E540E1C6E010E1D6EFAEC2BF046
:104D4E005D0E1A6E010E1B6E540E1C6E010E1D6E44
:104D5E00A0EC2BF05D0E1A6E010E1B6E540E1C6E27
:104D6E00010E1D6E3BEC2EF05D0E1A6E010E1B6ECB
:104D7E00540E1C6E010E1D6E3BEC2EF05D0E1A6E67
:104D8E00010E1B6E540E1C6E010E1D6E3BEC2EF0B2
:104D9E005D0E1A6E010E1B6E540E1C6E010E1D6EF4
:104DAE003BEC2EF012005D0E1A6E010E1B6E540EB1
:104DBE001C6E010E1D6EA0EC2BF05D0E1A6E010E18
:104DCE001B6E540E1C6E010E1D6E62EC2EF05D0EEF
:104DDE001A6E010E1B6E540E1C6E010E1D6E62ECD1
:104DEE002EF05D0E1A6E010E1B6E540E1C6E010E11
:104DFE001D6EFAEC2BF05D0E1A6E010E1B6E540E2C
:104E0E001C6E010E1D6EA0EC2BF05D0E1A6E010EC7
:104E1E001B6E540E1C6E010E1D6E62EC2EF05D0E9E
:104E2E001A6E010E1B6E540E1C6E010E1D6E62EC80
:104E3E002EF05D0E1A6E010E1B6E540E1C6E010EC0
:104E4E001D6E62EC2EF05D0E1A6E010E1B6E540E70
:104E5E001C6E010E1D6E62EC2EF012007AEF27F022
:104E6E00090E566E1E0E556EE40EE82EFED7552E0A
:104E7E00FCD7562EFAD700D0510E0C6E000E0D6ECA
:104E8E0071EC2BF0510E4B6E000E4C6E530E4D6EA0
:104E9E00000E4E6E8EEC17F0510E4B6E000E4C6ED9
:104EAE00530E4D6E000E4E6E1FEC07F04BC057F0BA
:104EBE004CC058F00001EF51571807E1F051581847
:104ECE00D8A46CEF27F06EEF27F072EF27F0ED4BC2
:104EDE00EE2B76EF27F0000EEE6F000EED6F57C043
:104EEE00EFF058C0F0F00001EEBF87EF27F0EE5163
:104EFE0009E1140EED5DD8A087EF27F089EF27F0BA
:104F0E0037EF27F0EFC051F0F0C052F01200000E54
:104F1E0032143A6E000E33143B6E800E34143C6E17
:104F2E007F0E35143D6E3A503B103C103D10D8A408
:104F3E00A3EF27F0A5EF27F0ADEF27F0000E326EAE
:104F4E00000E336E000E346E000E356E000E3614EB
:104F5E003A6E000E37143B6E800E38143C6E7F0E88
:104F6E0039143D6E3A503B103C103D10D8A4C2EFA0
:104F7E0027F0C4EF27F0CCEF27F0000E366E000EB0
:104F8E00376E000E386E000E396E365032180FE145
:104F9E00375033180CE13850341809E139503518B0
:104FAE00D8B4DCEF27F0DEEF27F0E1EF27F0D89052
:104FBE00E2EF27F0D880120020EE01F01450D9262F
:104FCE001550DA22010EDF6E20EE01F01650D926B2
:104FDE001750DA22010EDF6E19EF28F014C0D9FF38
:104FEE0015C0DAFF0A0EDF2616C0D9FF17C0DAFF8A
:104FFE000A0EDF2614C00EF015C00FF02EEC23F0B3
:10500E0016C00EF017C00FF02EEC23F0020E1B6E22
:10501E00A00E1A6E920EE82EFED71A2EFCD71B2E5D
:10502E00FAD700D014C0D9FF15C0DAFF320EDF60F8
:10503E0023EF28F025EF28F031EF28F016C0D9FF26
:10504E0017C0DAFF310EDF642FEF28F031EF28F0B2
:10505E00F5EF27F018C001F019C002F08BEC2FF01D
:10506E00120020EE01F01450D9261550DA22010E4E
:10507E00DF6E20EE01F01650D9261750DA22000E00
:10508E00DF6E6EEF28F014C0D9FF15C0DAFF0A0EDE
:10509E00DF2616C0D9FF17C0DAFF0A0EDF2614C0AE
:1050AE000EF015C00FF02EEC23F016C00EF017C048
:1050BE000FF02EEC23F0020E196EA00E186E920E4B
:1050CE00E82EFED7182EFCD7192EFAD700D014C012
:1050DE00D9FF15C0DAFF320EDF6078EF28F07AEFD5
:1050EE0028F086EF28F016C0D9FF17C0DAFF310E70
:1050FE00DF6484EF28F086EF28F04AEF28F01200E4
:10510E0020EE01F01450D9261550DA22000EDF6E73
:10511E0020EE01F01650D9261750DA22010EDF6E5E
:10512E00BDEF28F014C0D9FF15C0DAFF0A0EDF2636
:10513E0016C0D9FF17C0DAFF0A0EDF2614C00EF014
:10514E0015C00FF02EEC23F016C00EF017C00FF0A6
:10515E002EEC23F0020E196EA00E186E920EE82E93
:10516E00FED7182EFCD7192EFAD700D014C0D9FFAF
:10517E0015C0DAFF320EDF60C7EF28F0C9EF28F056
:10518E00D5EF28F016C0D9FF17C0DAFF310EDF6455
:10519E00D3EF28F0D5EF28F099EF28F0120020EE8B
:1051AE0001F01450D9261550DA22000EDF6E20EED3
:1051BE0001F01650D9261750DA22000EDF6E0CEFD2
:1051CE0029F014C0D9FF15C0DAFF0A0EDF2616C06B
:1051DE00D9FF17C0DAFF0A0EDF2614C00EF015C075
:1051EE000FF02EEC23F016C00EF017C00FF02EECC1
:1051FE0023F0020E196EA00E186E920EE82EFED738
:10520E00182EFCD7192EFAD700D014C0D9FF15C00E
:10521E00DAFF320EDF6016EF29F018EF29F024EFD7
:10522E0029F016C0D9FF17C0DAFF310EDF6422EF66
:10523E0029F024EF29F0E8EF28F0120020EE01F01B
:10524E001450D9261550DA22010EDF6E20EE01F031
:10525E001650D9261750DA22010EDF6E5BEF29F0B9
:10526E0014C0D9FF15C0DAFF0A0EDF2616C0D9FF0B
:10527E0017C0DAFF0A0EDF2614C00EF015C00FF0AD
:10528E002EEC23F016C00EF017C00FF02EEC23F00C
:10529E00020E196EA00E186E920EE82EFED7182E64
:1052AE00FCD7192EFAD700D014C0D9FF15C0DAFFDB
:1052BE00320EDF6065EF29F067EF29F073EF29F00A
:1052CE0016C0D9FF17C0DAFF310EDF6471EF29F077
:1052DE0073EF29F037EF29F01200050E0E01746FEF
:1052EE00060E766F070E696F080E886F8594859887
:1052FE00839E879CBD508F0B3009BD6EE00EBE168F
:10530E00BF50F00B0109BF6E01C0BCFFBD8E000E79
:10531E00AA6E000EA66E000E0F01256F000E216FF5
:10532E00FC0EAD16F30EAD16CF0EAD163F0EAD162E
:10533E00AB88AB50F00B0C09AB6EAB8EA788A750A9
:10534E00F00B0C09A76EA78E26892651F00B0C09BF
:10535E00266F268F22892251F00B0C09226F228F85
:10536E001200DEEF29F014C0D9FF15C0DAFF0A0EC5
:10537E00DF5E16C0D9FF17C0DAFF0A0EDF5E14C05B
:10538E000EF015C00FF02EEC23F016C00EF017C065
:10539E000FF02EEC23F0020E196EA00E186E920E68
:1053AE00E82EFED7182EFCD7192EFAD700D014C02F
:1053BE00D9FF15C0DAFFDF50D8A4E8EF29F0EAEFE5
:1053CE0029F0BAEF29F016C0D9FF17C0DAFFDF5067
:1053DE00D8A4F4EF29F0F6EF29F0BAEF29F0120075
:1053EE0016BEFCEF29F0FEEF29F004EF2AF015C0EF
:1053FE001AF016C01BF008EF2AF0000E1B6E000EFE
:10540E001A6E000E196E000E186E1AEF2AF0000EAC
:10541E00026E200E016E11C003F012C004F01AECE1
:10542E0026F0184A192A1A50185C1950800A176E5D
:10543E001B50800A1758D8A027EF2AF029EF2AF020
:10544E000EEF2AF013C00AF014C00BF011C00CF0CE
:10545E0012C00DF0CEEC2EF01200000E0C6E000EEF
:10546E000B6E09500A10D8B43FEF2AF041EF2AF024
:10547E0069EF2AF0010E0D6E49EF2AF0D890093629
:10548E000A360D2A0AAE4EEF2AF050EF2AF045EFFB
:10549E002AF0D8900B360C360950075C0A50085883
:1054AE00D8A05CEF2AF05EEF2AF063EF2AF00950E5
:1054BE00075E0A50085A0B80D8900A3209320D2E18
:1054CE0050EF2AF00BC007F00CC008F01200100EBF
:1054DE00F66E610EF76E000EF86E01EED4F010EE61
:1054EE0004F00900F5CFEEFFE550E150FAE10A0EA7
:1054FE00F66E610EF76E000EF86E00EEF6F010EE20
:10550E0006F00900F5CFEEFFE550E150FAE102EEAC
:10551E0000F0F00EEE6AE806FDE101EE00F06E0E10
:10552E00EE6AE806FDE100EED3F0230EEE6AE80621
:10553E00FDE15F905F92000193EF1EF05D0E1A6E1B
:10554E00010E1B6E540E1C6E010E1D6EA0EC2BF088
:10555E005D0E146E010E156E540E166E010E176E44
:10556E00B8EC29F020C014F021C015F022C016F0BE
:10557E0023C017F025EC29F0290E256E960E246E09
:10558E007F0EE82EFED7242EFCD7252EFAD700F05C
:10559E005D0E146E010E156E540E166E010E176E04
:1055AE00B8EC29F0120004BEE9EF2AF00450031003
:1055BE00021006E10104D8B0E7EF2AF0E9EF2AF075
:1055CE0004EF2BF001C005F002C006F003C007F097
:1055DE0004C008F0051E061E071E081E052A000E32
:1055EE0006220722082205C001F006C002F007C0FD
:1055FE0003F008C004F00CEF2BF001C001F002C064
:10560E0002F003C003F004C004F012005D0E1A6E27
:10561E00010E1B6E540E1C6E010E1D6EA0EC2BF0B7
:10562E005D0E1A6E010E1B6E540E1C6E010E1D6E5B
:10563E003BEC2EF05D0E1A6E010E1B6E540E1C6EA0
:10564E00010E1D6E3BEC2EF05D0E1A6E010E1B6EE2
:10565E00540E1C6E010E1D6E3BEC2EF05D0E1A6E7E
:10566E00010E1B6E540E1C6E010E1D6E3BEC2EF0C9
:10567E001200D3CF03F0046A0350D4CF01F0026AB4
:10568E0001C002F0016A0110056E0250066E06BEE0
:10569E005AEF2BF0BD0E055C020E0658D8A05AEF3D
:1056AE002BF05CEF2BF062EF2BF0440E0524056E11
:1056BE00FD0E0620066ED8900101D635D96ED7356F
:1056CE00DA6E3C0ED926020EDA2205C0DEFF06C0C7
:1056DE00DDFF1200C3EC2DF00CC0D9FF0DC0DAFFB8
:1056EE0005C0DEFF06C0DDFF13EC2EF020EE04F049
:1056FE000C50D9260D50DA2205C0DEFF06C0DDFFA4
:10570E00EBEC2DF020EE02F00C50D9260D50DA22E3
:10571E0005C0DEFF06C0DDFF9BEC2DF020EE06F08F
:10572E000C50D9260D50DA2205C0DEFF06C0DDFF73
:10573E0012001AC014F01BC015F01CC016F01DC0CC
:10574E0017F0D6EC28F0110E1F6E3C0E1E6ECB0E0F
:10575E00E82EFED71E2EFCD71F2EFAD700F05D0EB8
:10576E00146E010E156E540E166E010E176EB8ECF9
:10577E0029F0050E1F6E0F0E1E6EF10EE82EFED7CF
:10578E001E2EFCD71F2EFAD700F012001AC014F0EE
:10579E001BC015F01CC016F01DC017F025EC29F02B
:1057AE002B0E1F6E9D0E1E6EF90EE82EFED71E2EB0
:1057BE00FCD71F2EFAD700F05D0E146E010E156E7B
:1057CE00540E166E010E176EB8EC29F0050E1F6EF4
:1057DE000F0E1E6EF10EE82EFED71E2EFCD71F2EBC
:1057EE00FAD700F012001AC014F01BC015F01CC03E
:1057FE0016F01DC017F025EC29F0560E1F6E3A0E4E
:10580E001E6EF40EE82EFED71E2EFCD71F2EFAD7D4
:10581E005D0E146E010E156E540E166E010E176E81
:10582E00B8EC29F0050E1F6E0F0E1E6EF10EE82E4F
:10583E00FED71E2EFCD71F2EFAD700F012001AC06C
:10584E0014F01BC015F01CC016F01DC017F0D6ECDE
:10585E0028F0560E1F6E3A0E1E6EF40EE82EFED770
:10586E001E2EFCD71F2EFAD75D0E146E010E156E6E
:10587E00540E166E010E176EB8EC29F0050E1F6E43
:10588E000F0E1E6EF10EE82EFED71E2EFCD71F2E0B
:10589E00FAD700F01200AAC0AEF0ABC0AFF067EFBF
:1058AE002CF0A8C095F0A9C096F0AE0E0001976F2F
:1058BE00000E986FACC099F0ADC09AF025EC19F0BF
:1058CE00AEC0F6FFAFC0F7FF000EF86E0800F55041
:1058DE000009D8A475EF2CF077EF2CF058EF2CF0D0
:1058EE00000E0001A96F000EA86F1200B40E000189
:1058FE00C46F000EC56FB0C0C6F0B1C0C7F0000EC9
:10590E00CA6F000EC96F000ED06F000ECF6FC60E9D
:10591E00A86F000EA96FB2C0AAF0B3C0ABF0C40E50
:10592E00AC6F000EAD6F52EC2CF00001C951B025DA
:10593E00D96ECA51B121DA6E000EDF6E12005D0E05
:10594E001A6E010E1B6E540E1C6E010E1D6EA0EC17
:10595E002BF05D0E1A6E010E1B6E540E1C6E010E98
:10596E001D6E3BEC2EF05D0E1A6E010E1B6E540E6C
:10597E001C6E010E1D6E3BEC2EF05D0E1A6E010EAE
:10598E001B6E540E1C6E010E1D6E3BEC2EF01200A3
:10599E005D0E1A6E010E1B6E540E1C6E010E1D6EE8
:1059AE00A0EC2BF05D0E1A6E010E1B6E540E1C6ECB
:1059BE00010E1D6E62EC2EF05D0E1A6E010E1B6E48
:1059CE00540E1C6E010E1D6E62EC2EF05D0E1A6EE4
:1059DE00010E1B6E540E1C6E010E1D6E62EC2EF02F
:1059EE0012005D0E1A6E010E1B6E540E1C6E010E11
:1059FE001D6EA0EC2BF05D0E1A6E010E1B6E540E7A
:105A0E001C6E010E1D6E26EC2CF05D0E1A6E010E34
:105A1E001B6E540E1C6E010E1D6E3BEC2EF05D0EB9
:105A2E001A6E010E1B6E540E1C6E010E1D6E3BEC9B
:105A3E002EF012005D0E1A6E010E1B6E540E1C6EB1
:105A4E00010E1D6EA0EC2BF05D0E1A6E010E1B6E7C
:105A5E00540E1C6E010E1D6E26EC2CF05D0E1A6E91
:105A6E00010E1B6E540E1C6E010E1D6E62EC2EF09E
:105A7E005D0E1A6E010E1B6E540E1C6E010E1D6E07
:105A8E0062EC2EF01200DAEC2FF0010E036E000E17
:105A9E0029EC30F03F0E056E550EE82EFED7052E82
:105AAE00FCD700F0030E036E000E29EC30F0D50E7D
:105ABE00036E010E29EC30F0000E036E0F0E29EC72
:105ACE0030F087928198869E849684987F927E9EEF
:105ADE0079987C967C98120003C009F004C00AF0F5
:105AEE0001C007F002C008F08DEF2DF009C0D9FFFC
:105AFE000AC0DAFFDF500B6E094A0A2A07C0D9FF27
:105B0E0008C0DAFF0BC0DFFF074A082A0506D8A037
:105B1E000606052806E10628D8A498EF2DF09AEF80
:105B2E002DF07DEF2DF0120080EC30F0520E64EC73
:105B3E0030F0B40E64EC30F076EC30F0530E64ECD2
:105B4E0030F0010EF0EC2EF0076E07500A6E0B6A65
:105B5E00000EF0EC2EF0076E0750096E086A0A5020
:105B6E0008100A6E0B5009100B6E7BEC30F00AC059
:105B7E0005F00BC006F0120080EC30F0520E64EC13
:105B8E0030F0B60E64EC30F076EC30F0530E64EC80
:105B9E0030F0010EF0EC2EF0076E07500A6E0B6A15
:105BAE00000EF0EC2EF0076E0750096E086A0A50D0
:105BBE0008100A6E0B5009100B6E7BEC30F00AC009
:105BCE0005F00BC006F0120080EC30F0520E64ECC3
:105BDE0030F0B80E64EC30F076EC30F0530E64EC2E
:105BEE0030F0010EF0EC2EF0076E07500A6E0B6AC5
:105BFE00000EF0EC2EF0076E0750096E086A0A5080
:105C0E0008100A6E0B5009100B6E7BEC30F00AC0B8
:105C1E0005F00BC006F0120080EC30F0520E64EC72
:105C2E0030F0BA0E64EC30F076EC30F0530E64ECDB
:105C3E0030F0010EF0EC2EF0076E07500A6E0B6A74
:105C4E00000EF0EC2EF0076E0750096E086A0A502F
:105C5E0008100A6E0B5009100B6E7BEC30F00AC068
:105C6E0005F00BC006F012001AC014F01BC015F0A0
:105C7E001CC016F01DC017F038EC28F0F8C001F06B
:105C8E00F9C002F0A7EC2FF05D0E146E010E156E2A
:105C9E00540E166E010E176EB8EC29F0050E1F6E1F
:105CAE000F0E1E6EF10EE82EFED71E2EFCD71F2EE7
:105CBE00FAD700F012001AC014F01BC015F01CC069
:105CCE0016F01DC017F087EC28F0F8C001F0F9C0EF
:105CDE0002F0A7EC2FF05D0E146E010E156E540E31
:105CEE00166E010E176EB8EC29F0050E1F6E0F0E14
:105CFE001E6EF10EE82EFED71E2EFCD71F2EFAD7E3
:105D0E0000F01200000E2E1A000E2F1A000E301A7E
:105D1E00800E311A2AC001F02BC002F02CC003F005
:105D2E002DC004F02EC005F02FC006F030C007F0D5
:105D3E0031C008F04CEC11F001C02AF002C02BF07B
:105D4E0003C02CF004C02DF0120003C005F004C0F7
:105D5E0006F001C007F002C008F005C0F6FF06C04D
:105D6E00F7FF054A062A000EF86E07C0D9FF08C0D5
:105D7E00DAFF074A082A0800F5CFDFFFDF50D8A464
:105D8E00CBEF2EF0CDEF2EF0B4EF2EF01200000E72
:105D9E00106E000E0F6EDFEF2EF00EC001F0026AD5
:105DAE000CC003F00DC004F01AEC26F00F4A102AB6
:105DBE000F500A24D96E10500B20DA6EDF500E6E83
:105DCE000E50D8A4EDEF2EF0EFEF2EF0D4EF2EF014
:105DDE001200036EEFEC2FF00E01DA87EFEC2FF0CE
:105DEE00D5CE04F0EFEC2FF00350D8B401EF2FF026
:105DFE0005EF2FF0026A022A06EF2FF0026A023A2E
:105E0E0002460E01DA510218DF0B0218DA6FDA8938
:105E1E000450120014BE1EEF2FF0145006E11304AE
:105E2E00D8B01CEF2FF01EEF2FF02CEF2FF013C079
:105E3E0015F014C016F0151E161E154A162A15C09A
:105E4E0013F016C014F030EF2FF013C013F014C07F
:105E5E0014F012005D0E1A6E010E1B6E540E1C6EA7
:105E6E00010E1D6EA0EC2BF05D0E1A6E010E1B6E58
:105E7E00540E1C6E010E1D6E3BEC2EF05D0E1A6E56
:105E8E00010E1B6E540E1C6E010E1D6E3BEC2EF0A1
:105E9E0012005D0E1A6E010E1B6E540E1C6E010E5C
:105EAE001D6EA0EC2BF05D0E1A6E010E1B6E540EC5
:105EBE001C6E010E1D6E62EC2EF05D0E1A6E010E42
:105ECE001B6E540E1C6E010E1D6E62EC2EF0120037
:105EDE000150021003100410D8B478EF2FF07AEFAF
:105EEE002FF082EF2FF0000E011A000E021A000E94
:105EFE00031A800E041A01C001F002C002F003C0A2
:105F0E0003F004C004F01200000E056E000E046EC5
:105F1E009BEF2FF00B0E036E620EE82EFED7032EB4
:105F2E00FCD700D0044A052A0150045C02500558E3
:105F3E00D8A0A4EF2FF0A6EF2FF091EF2FF01200C4
:105F4E00B4EF2FF0150E036EC60EE82EFED7032EFD
:105F5E00FCD700D00106D8A0020602BEC1EF2FF07A
:105F6E00025006E10104D8B0BFEF2FF0C1EF2FF0C1
:105F7E00A9EF2FF01200CDEF2FF002C0D9FF03C012
:105F8E00DAFFDF5058EC30F0024A032A02C0D9FF84
:105F9E0003C0DAFFDF50D8A4D7EF2FF0D9EF2FF0E0
:105FAE00C4EF2FF012000E01D951F00B0809D96F72
:105FBE00D98B9F0ED66F848A848CA79BA79D1D0EAE
:105FCE001D6F1E0E1C6F1C0E6F6F1B0E706F12005E
:105FDE000E01D8B5F5EF2FF0F7EF2FF0EFEF2FF012
:105FEE00DACE01F01F0E0116D8A400EF30F002EF4A
:105FFE0030F0EFEF2FF0120087928198869E7F820D
:10600E0079887E8E7C9E849E8096889680908890DD
:10601E007E9086907C9884987C968496120001508F
:10602E000302F3CF05F0F4CF06F001500402F35053
:10603E00062602500302F350062605C001F006C0E4
:10604E0002F01200046E80EC30F0520E64EC30F070
:10605E000450800964EC30F0035064EC30F07BECBB
:10606E0030F01200D6501F0B4009D66ED688D6508F
:10607E00F00B0D09D66ED588000ED46E000ED36EC1
:10608E00D59E1200120E0E01626F110E156FE9975A
:10609E00E895330EE56F000EE66FE789E88BE78F24
:1060AE001200016E0E0137A55FEF30F061EF30F098
:1060BE0059EF30F001C0E4FE1200026EEFEC2FF04B
:1060CE0002C0D5FE1200F29AF29CF28E0E01298BBE
:1060DE00120086840E01B4958686B4971200EFECFA
:1060EE002FF00E01DA831200EFEC2FF00E01DA859D
:1060FE001200EFEC2FF00E01DA8112001A043C00B0
:08610E0032000100FFFF120046
:020000040020DA
:10000000FF0FFF0FFF0FFF0FFF0FFF0FFF0FFF0F80
:020000040030CA
:0C000000AAFFFFFF9FFFFFFFFFFFFFFFB5
:00000001FF
