:0400000007EF00F016
:0A0008005F825F92110070EF1AF0A2
:100E0000007265643D256420677265656E3D2564EA
:100E100020626C75653D2564206C756D3D256420F0
:100E2000636F6C6F75723D2564200D0A00726564F6
:100E30003D256420677265656E3D256420626C7592
:100E4000653D2564206C756D3D2564200D0A00000C
:100E5000000E0001726F000E736F000E746F000EB3
:100E6000756F000E766F500E776FC30E786F470E5A
:100E7000796F000E656F040E646F20EE66F00B0E46
:100E8000DE6AE806FDE24BC0D9FF4CC0DAFFDECFD8
:100E900001F0DDCF02F0000E02BEFF0E036E046E05
:100EA000010E83EC15F001C066F002C067F003C0CC
:100EB00068F004C069F020EE02F04B50D9264C5087
:100EC000DA22DECF01F0DDCF02F0000E02BEFF0E0F
:100ED000036E046E010E83EC15F001C06AF002C0CF
:100EE0006BF003C06CF004C06DF020EE04F04B50CA
:100EF000D9264C50DA22DECF01F0DDCF02F0000E11
:100F000002BEFF0E036E046E010E83EC15F001C0ED
:100F10006EF002C06FF003C070F004C071F0000EFC
:100F200000017B6F000E7A6F72C001F073C002F097
:100F300074C003F075C004F0660E4F6E000E506E64
:100F4000D8907A35D96E7B35DA6ED890D936DA36C4
:100F50004F50D9265050DA22DECF05F0DECF06F012
:100F6000DECF07F0DECF08F07AEC18F0D8B0BBEF98
:100F700007F0BDEF07F0DAEF07F0660E4F6E000ED8
:100F8000506ED89000017A35D96E7B35DA6ED890E4
:100F9000D936DA364F50D9265050DA22DECF72F0E9
:100FA000DECF73F0DECF74F0DECF75F07AC064F080
:100FB0007BC065F0660E4F6E000E506ED89000013B
:100FC0007A35D96E7B35DA6ED890D936DA364F500D
:100FD000D9265050DA22DECF01F0DECF02F0DECF8C
:100FE00003F0DECF04F076C005F077C006F078C0DD
:100FF00007F079C008F07AEC18F0D8B002EF08F0EA
:1010000004EF08F01DEF08F0660E4F6E000E506EF4
:10101000D89000017A35D96E7B35DA6ED890D93602
:10102000DA364F50D9265050DA22DECF76F0DECFB6
:1010300077F0DECF78F0DECF79F000017A4B7B2BB2
:101040007BBF2CEF08F07B5109E1030E7A5DD8A03D
:101050002CEF08F02EEF08F094EF07F076C015F0B3
:1010600077C016F078C017F079C018F072C011F090
:1010700073C012F074C013F075C014F0E7EC1BF0ED
:1010800011C019F012C01AF013C01BF014C01CF0EC
:10109000000E1D6E000E1E6E000E1F6E000E206EE6
:1010A000DEEC19F0D8A057EF08F059EF08F05FEF29
:1010B00008F0000E4C6E000E4B6E6AEF0CF0000153
:1010C00064516511D8A467EF08F069EF08F0DDEF0F
:1010D00008F076C015F077C016F078C017F079C028
:1010E00018F072C011F073C012F074C013F075C024
:1010F00014F0E7EC1BF011C01DF012C01EF013C07D
:101100001FF014C020F06EC015F06FC016F070C054
:1011100017F071C018F06AC011F06BC012F06CC00B
:1011200013F06DC014F0E7EC1BF011C019F012C001
:101130001AF013C01BF014C01CF0E0EC10F019C042
:1011400032F01AC033F01BC034F01CC035F0000E72
:10115000366E000E376E700E386E420E396ECBEC66
:101160000EF032C07CF033C07DF034C07EF035C06C
:101170007FF000017FBFC1EF08F0BFEF08F0BCEFC8
:1011800009F07CC001F07DC002F07EC003F07FC09A
:1011900004F0000E056E000E066EB40E076E430ED0
:1011A000086E6BEC0CF001C07CF002C07DF003C057
:1011B0007EF004C07FF0BCEF09F064056511D8A48F
:1011C000E4EF08F0E6EF08F052EF09F076C015F012
:1011D00077C016F078C017F079C018F072C011F01F
:1011E00073C012F074C013F075C014F0E7EC1BF07C
:1011F00011C01DF012C01EF013C01FF014C020F06B
:1012000066C015F067C016F068C017F069C018F026
:101210006EC011F06FC012F070C013F071C014F006
:10122000E7EC1BF011C019F012C01AF013C01BF04C
:1012300014C01CF0E0EC10F019C060F01AC061F0AE
:101240001BC062F01CC063F0000E056E000E066E3F
:10125000000E076E400E086E60C001F061C002F023
:1012600062C003F063C004F06BEC0CF001C032F01C
:1012700002C033F003C034F004C035F0000E366E07
:10128000000E376E700E386E420E396ECBEC0EF0DB
:1012900032C07CF033C07DF034C07EF035C07FF0CA
:1012A000BCEF09F076C015F077C016F078C017F0E3
:1012B00079C018F072C011F073C012F074C013F04E
:1012C00075C014F0E7EC1BF011C01DF012C01EF049
:1012D00013C01FF014C020F06AC015F06BC016F0E8
:1012E0006CC017F06DC018F066C011F067C012F046
:1012F00068C013F069C014F0E7EC1BF011C019F0DE
:1013000012C01AF013C01BF014C01CF0E0EC10F077
:1013100019C060F01AC061F01BC062F01CC063F01D
:10132000000E056E000E066E800E076E400E086EF3
:1013300060C001F061C002F062C003F063C004F05D
:101340006BEC0CF001C032F002C033F003C034F09B
:1013500004C035F0000E366E000E376E700E386E1B
:10136000420E396ECBEC0EF032C07CF033C07DF013
:1013700034C07EF035C07FF07CC001F07DC002F04B
:101380007EC003F07FC004F0000E056E000E066EF6
:10139000A50E076E430E086E7AEC18F0D8A0D3EFB6
:1013A00009F0D5EF09F0F4EF09F0000E016E000E20
:1013B000026EB40E036E430E046E7CC005F07DC059
:1013C00006F07EC007F07FC008F07AEC18F0D8A0D5
:1013D000ECEF09F0EEEF09F0F4EF09F0000E4C6EBF
:1013E000010E4B6E6AEF0CF07CC001F07DC002F084
:1013F0007EC003F07FC004F0000E056E000E066E86
:10140000A00E076E400E086E7AEC18F0D8A00BEF15
:101410000AF00DEF0AF02CEF0AF0000E016E000E3C
:10142000026E400E036E410E046E7CC005F07DC05E
:1014300006F07EC007F07FC008F07AEC18F0D8A064
:1014400024EF0AF026EF0AF02CEF0AF0000E4C6EA3
:10145000020E4B6E6AEF0CF07CC001F07DC002F012
:101460007EC003F07FC004F0000E056E000E066E15
:10147000A00E076E410E086E7AEC18F0D8A043EF6C
:101480000AF045EF0AF0B9EF0AF0000E016E000E07
:10149000026EE80E036E410E046E7CC005F07DC046
:1014A00006F07EC007F07FC008F07AEC18F0D8A0F4
:1014B0005CEF0AF05EEF0AF0B9EF0AF04DC0D9FF19
:1014C0004EC0DAFFDECF01F0DECF02F0DECF03F058
:1014D000DECF04F0CD0E056ECC0E066E4C0E076E00
:1014E0003E0E086E7AEC18F0D8A079EF0AF07BEF88
:1014F0000AF09AEF0AF01F0E016E850E026E6B0E57
:10150000036E3E0E046E4DC0D9FF4EC0DAFFDECF33
:1015100005F0DECF06F0DECF07F0DECF08F07AEC84
:1015200018F0D8A096EF0AF098EF0AF09AEF0AF0B8
:1015300059EF08F04BC0D9FF4CC0DAFF010EDBBEFB
:10154000ABEF0AF0D00EDE5C070EDE58D8A0ABEF92
:101550000AF0ADEF0AF0B3EF0AF0000E4C6E030E86
:101560004B6E6AEF0CF0000E4C6E040E4B6E6AEF81
:101570000CF07CC001F07DC002F07EC003F07FC0A3
:1015800004F0000E056E000E066E700E076E420E21
:10159000086E7AEC18F0D8A0D0EF0AF0D2EF0AF07B
:1015A00012EF0BF0000E016E000E026E9E0E036E27
:1015B000420E046E7CC005F07DC006F07EC007F0D0
:1015C0007FC008F07AEC18F0D8A0E9EF0AF0EBEF52
:1015D0000AF012EF0BF020EE08F04D50D9264E50D5
:1015E000DA22DECF01F0DECF02F0DECF03F0DECF75
:1015F00004F09A0E056E990E066E190E076E3E0ED9
:10160000086E7AEC18F0D8A008EF0BF00AEF0BF098
:101610000CEF0BF0B3EF0AF0000E4C6E050E4B6EA4
:101620006AEF0CF07CC001F07DC002F07EC003F0D8
:101630007FC004F0000E056E000E066EA00E076E51
:10164000420E086E7AEC18F0D8A029EF0BF02BEFC1
:101650000BF06BEF0BF0000E016E000E026EE60E4B
:10166000036E420E046E7CC005F07DC006F07EC0A5
:1016700007F07FC008F07AEC18F0D8A042EF0BF02A
:1016800044EF0BF06BEF0BF020EE08F04D50D92635
:101690004E50DA22DECF01F0DECF02F0DECF03F0D3
:1016A000DECF04F09A0E056E990E066E190E076EC7
:1016B0003E0E086E7AEC18F0D8A061EF0BF063EFE5
:1016C0000BF065EF0BF0B3EF0AF0000E4C6E060E58
:1016D0004B6E6AEF0CF07CC001F07DC002F07EC062
:1016E00003F07FC004F0000E056E000E066EF00ED3
:1016F000076E410E086E7AEC18F0D8A082EF0BF05E
:1017000084EF0BF09DEF0BF0000E016E000E026EE9
:10171000680E036E420E046E7CC005F07DC006F0BC
:101720007EC007F07FC008F07AEC18F0D8B09BEFCD
:101730000BF09DEF0BF0B3EF0AF07CC001F07DC021
:1017400002F07EC003F07FC004F0000E056E000EB4
:10175000066EF00E076E420E086E7AEC18F0D8A0F6
:10176000B4EF0BF0B6EF0BF0D1EF0BF0000E016E03
:10177000000E026E5C0E036E430E046E7CC005F01C
:101780007DC006F07EC007F07FC008F07AEC18F04C
:10179000D8A0CDEF0BF0CFEF0BF0D1EF0BF0B3EF04
:1017A0000AF07CC001F07DC002F07EC003F07FC073
:1017B00004F0000E056E000E066E600E076E410E00
:1017C000086E7AEC18F0D8A0E8EF0BF0EAEF0BF017
:1017D00066EF0CF0000E016E000E026E980E036EA6
:1017E000410E046E7CC005F07DC006F07EC007F09F
:1017F0007FC008F07AEC18F0D8A001EF0CF003EFEE
:101800000CF066EF0CF04DC0D9FF4EC0DAFFDECF12
:1018100001F0DECF02F0DECF03F0DECF04F0CD0E1C
:10182000056ECC0E066E4C0E076E3E0E086E7AEC00
:1018300018F0D8A01EEF0CF020EF0CF03FEF0CF0EA
:101840001F0E016E850E026E6B0E036E3E0E046E51
:101850004DC0D9FF4EC0DAFFDECF05F0DECF06F077
:10186000DECF07F0DECF08F07AEC18F0D8A03BEF1F
:101870000CF03DEF0CF03FEF0CF059EF08F020EECC
:1018800008F04D50D9264E50DA22DECF01F0DECFDF
:1018900002F0DECF03F0DECF04F09A0E056E990E53
:1018A000066E190E076E3E0E086E7AEC18F0D8A080
:1018B0005CEF0CF05EEF0CF060EF0CF0B3EF0AF0B1
:1018C000000E4C6E070E4B6E6AEF0CF0000E4C6E65
:1018D0000A0E4B6E12000450800B0D6E045004244F
:1018E0000F6E03AE76EF0CF078EF0CF079EF0CF0A2
:1018F0000F800F50D8B47FEF0CF081EF0CF096EF13
:101900000CF00F28D8A487EF0CF089EF0CF091EFC2
:101910000CF0000E016E000E026E000E036E000E43
:10192000046E038E000E046E9EEF0CF0000E016E2E
:10193000000E026E000E036E000E046E0850800B47
:101940000E6E0D500E18D8B4A8EF0CF0AAEF0CF0E4
:10195000ABEF0CF00D8C085008240E6E07AEB3EF01
:101960000CF0B5EF0CF0B6EF0CF00E800E50D8B4C2
:10197000BCEF0CF0BEEF0CF0D3EF0CF00E28D8A4A7
:10198000C4EF0CF0C6EF0CF0CEEF0CF0000E056EBD
:10199000000E066E000E076E000E086E078E000E1B
:1019A000086EDBEF0CF0000E056E000E066E000EEA
:1019B000076E000E086E0F500E5CD8B0E2EF0CF010
:1019C000E4EF0CF00BEF0DF00DACE9EF0CF0EBEFEA
:1019D0000CF0EDEF0CF0800E0D1A0FC010F00EC0E1
:1019E0000FF010C00EF001C010F005C001F010C0E3
:1019F00005F002C010F006C002F010C006F003C0EF
:101A000010F007C003F010C007F004C010F008C0C9
:101A100004F010C008F0000E106E0F500EC009F058
:101A20000A6A095E000E0A5A0ABE20EF0DF00A503B
:101A300009E11A0E095CD8A020EF0DF022EF0DF09D
:101A400059EF0DF00150021003100410D8A42BEF31
:101A50000DF02EEF0DF0010E2FEF0DF0000E106EB9
:101A6000000E016E000E026E000E036E000E046E7C
:101A70000EC00FF062EF0DF010A041EF0DF043EF3C
:101A80000DF049EF0DF0D89010300109106E4BEFBA
:101A90000DF0D890103201A050EF0DF052EF0DF084
:101AA00053EF0DF0108E043404320332023201324F
:101AB0000F2A0E500F5CD8A060EF0DF062EF0DF012
:101AC0003CEF0DF00DBC67EF0DF069EF0DF0A9EFE5
:101AD0000DF00F50D8A46FEF0DF071EF0DF07BEF0C
:101AE0000DF0000E016E000E026E000E036E000E71
:101AF000046ECAEF0EF00550012606500222075070
:101B000003220850042204A088EF0DF08AEF0DF0A4
:101B100036EF0EF010A08FEF0DF091EF0DF097EF74
:101B20000DF0D89010300109106E99EF0DF0D8909B
:101B3000103201A09EEF0DF0A0EF0DF0A1EF0DF01F
:101B4000108E043404320332023201320F2A36EF8F
:101B50000EF00550015C065002580750035804501F
:101B6000800A096E0850800A0958D8B0BAEF0DF003
:101B7000BCEF0DF0E7EF0DF00150055C096E02506F
:101B800006580A6E035007580B6E045008580C6E26
:101B9000FF0E0924016EFF0E0A20026EFF0E0B20BD
:101BA000036EFF0E0C20046E800E0D1A106C105088
:101BB000D8A4DDEF0DF0DFEF0DF0EFEF0DF0010E2B
:101BC0000126000E022203220422EFEF0DF0055041
:101BD000015E0650025A0750035A0850045A015039
:101BE000021003100410D8A4F8EF0DF0FAEF0DF076
:101BF0002FEF0EF01050D8A400EF0EF002EF0EF011
:101C00002FEF0EF0000E016E000E026E000E036E3E
:101C1000000E046ECAEF0EF0D8900136023603367D
:101C2000043610AE16EF0EF018EF0EF019EF0EF0AE
:101C3000018010A01EEF0EF020EF0EF024EF0EF04A
:101C4000D880103626EF0EF0D89010360F50D8B44A
:101C50002CEF0EF02EEF0EF02FEF0EF00F0603AE6E
:101C600034EF0EF036EF0EF00CEF0EF0000E0E6EAD
:101C700010AE3DEF0EF03FEF0EF057EF0EF010C03C
:101C800009F07F0E0916D8B448EF0EF04AEF0EF0B7
:101C90004EEF0EF0010E0E6E57EF0EF001A053EF57
:101CA0000EF055EF0EF057EF0EF04AEF0EF00E501B
:101CB000D8B45DEF0EF05FEF0EF08AEF0EF0010E7C
:101CC0000126000E02220322042204A06AEF0EF075
:101CD0006CEF0EF08AEF0EF001C009F002C00AF0BE
:101CE00003C00BF004C00CF00C340C320B320A327F
:101CF000093209C001F00AC002F00BC003F00CC0A9
:101D000004F00F28D8B487EF0EF089EF0EF08AEFB9
:101D10000EF00F2A0F28D8B490EF0EF092EF0EF0CD
:101D20009AEF0EF00F50D8A498EF0EF09AEF0EF045
:101D3000ACEF0EF0000E016E000E026E000E036E90
:101D4000000E046E0F50D8A4A8EF0EF0AAEF0EF00C
:101D5000ACEF0EF0000E0D6E0FA0B1EF0EF0B3EF72
:101D60000EF0B6EF0EF0038EB7EF0EF0039ED89094
:101D70000F30046E0DAEBFEF0EF0C1EF0EF0C2EFEC
:101D80000EF0048E01C001F002C002F003C003F0A7
:101D900004C004F012003550800B3E6E35503524DF
:101DA000446E34AED6EF0EF0D8EF0EF0D9EF0EF051
:101DB00044804450D8B4DFEF0EF0E1EF0EF0F4EFC2
:101DC0000EF04428D8A4E7EF0EF0E9EF0EF0F1EFA3
:101DD0000EF0000E326E000E336E000E346E000EEA
:101DE000356E348EFCEF0EF0000E326E000E336E48
:101DF000000E346E000E356E3950800B3E1A39508D
:101E00003924436E38AE07EF0FF009EF0FF00AEFF9
:101E10000FF043804350D8B410EF0FF012EF0FF0E3
:101E200025EF0FF04328D8A418EF0FF01AEF0FF0AA
:101E300022EF0FF0000E366E000E376E000E386E79
:101E4000000E396E388E2DEF0FF0000E366E000E3C
:101E5000376E000E386E000E396E4350D8B433EF33
:101E60000FF035EF0FF03DEF0FF04450D8A43BEFEB
:101E70000FF03DEF0FF047EF0FF0000E326E000E47
:101E8000336E000E346E000E356EDFEF10F03850FA
:101E90003202F3CF49F0F4CF4AF049503F6E406A26
:101EA000416A426A4A50456E466A476A486A3750F4
:101EB0003302F3CF49F0F4CF4AF049503F26000EE9
:101EC0004022412242224A504526000E4622472205
:101ED000482236503402F3CF49F0F4CF4AF049504B
:101EE0003F26000E4022412242224A504526000E43
:101EF00046224722482241C042F040C041F03FC044
:101F000040F03F6A36503302F3CF49F0F4CF4AF045
:101F100049503F264A504022000E4122000E4222E4
:101F200037503202F3CF49F0F4CF4AF049503F2600
:101F30004A504022000E4122000E422241C042F08F
:101F400040C041F03FC040F03F6A36503202F3CF0C
:101F500049F0F4CF4AF049503F264A504022000E43
:101F60004122000E422238503302F3CF49F0F4CF21
:101F70004AF0495045264A504622000E4722000E9C
:101F8000482237503402F3CF49F0F4CF4AF0495099
:101F900045264A504622000E4722000E482238505D
:101FA0003402F3CF49F0F4CF4AF049503A6E4A5028
:101FB0003B6E3C6A3D6A3CC03DF03BC03CF03AC0E1
:101FC0003BF03A6A3A5045263B5046223C50472265
:101FD0003D5048223FC03AF040C03BF041C03CF089
:101FE00042C03DF0190EFAEF0FF0D8903D323C326E
:101FF0003B323A32E82EF5EF0FF03A5045263B508F
:1020000046223C5047223D50482241C042F040C049
:1020100041F03FC040F03F6A435044C03AF03B6A51
:102020003A26000E3B22820E3A24496EFF0E3B20D8
:102030004A6E30EF10F0D89045364636473648366F
:1020400042AE25EF10F027EF10F028EF10F045809A
:10205000D8903F364036413642364906D8A04A0627
:1020600047AE35EF10F037EF10F01BEF10F0000E19
:10207000436E42AE3EEF10F040EF10F064EF10F010
:10208000FF0E3F143A6EFF0E40143B6EFF0E4114DC
:102090003C6E7F0E42143D6E3A503B103C103D109A
:1020A000D8B455EF10F057EF10F05BEF10F0010EC1
:1020B000436E64EF10F045A060EF10F062EF10F097
:1020C00064EF10F057EF10F04350D8B46AEF10F0FF
:1020D0006CEF10F090EF10F0010E4526000E462236
:1020E0004722482248A077EF10F079EF10F090EFE8
:1020F00010F045C03AF046C03BF047C03CF048C045
:102100003DF03D343D323C323B323A323AC045F04C
:102110003BC046F03CC047F03DC048F0494A4A2A1F
:102120004ABE9BEF10F04A5008E14928D8A09BEF27
:1021300010F09DEF10F0A7EF10F0000E456E000EAE
:10214000466E800E476E7F0E486ED5EF10F04ABE89
:10215000B4EF10F04A5006E14904D8B0B2EF10F0E5
:10216000B4EF10F0C0EF10F0000E456E000E466E9A
:10217000000E476E000E486E000E3E6ED5EF10F05A
:1021800049C044F0FF0E4516FF0E46167F0E471657
:10219000000E481644A0CFEF10F0D1EF10F0D2EFB0
:1021A00010F0478ED8904430486E3E50481245C0DB
:1021B00032F046C033F047C034F048C035F012006A
:1021C0001C50800B296E1C501C24306E1BAEEBEF94
:1021D00010F0EDEF10F0EEEF10F030803050D8B48A
:1021E000F4EF10F0F6EF10F00BEF11F03028D8A458
:1021F000FCEF10F0FEEF10F006EF11F0000E196E7C
:10220000000E1A6E000E1B6E000E1C6E1B8E000E52
:102210001C6E13EF11F0000E196E000E1A6E000EF8
:102220001B6E000E1C6E2050800B291A205020249B
:10223000316E1FAE1EEF11F020EF11F021EF11F003
:1022400031803150D8B427EF11F029EF11F03EEF73
:1022500011F03128D8A42FEF11F031EF11F039EF40
:1022600011F0000E1D6E000E1E6E000E1F6E000E91
:10227000206E1F8E000E206E46EF11F0000E1D6EB8
:10228000000E1E6E000E1F6E000E206E1D501E10E2
:102290001F102010D8A44FEF11F051EF11F069EF8B
:1022A00011F0000E196E000E1A6E000E1B6E000E5D
:1022B0001C6E800E1B127F0E1C1229501C1219C09E
:1022C00019F01AC01AF01BC01BF01CC01CF0ACEFB8
:1022D00012F03050D8A46FEF11F071EF11F07BEFD6
:1022E00011F0000E196E000E1A6E000E1B6E000E1D
:1022F0001C6EACEF12F0315030C021F0226A215E2A
:10230000000E225A7F0E21242A6E000E22202B6EF0
:1023100019C025F01AC026F01BC027F01CC028F0F9
:10232000000E196E000E1A6E000E1B6E000E1C6E53
:10233000000E2C6E000E2D6E000E2E6E000E2F6EF7
:10234000000E316EDCEF11F03150D8B4AAEF11F06D
:10235000ACEF11F0C3EF11F0D890253626362736B2
:102360002836D89019361A361B361C362FAEBBEFDE
:1023700011F0BDEF11F0BEEF11F01980D8902C369E
:102380002D362E362F361D50255C1E5026581F50D8
:10239000275820502858D8A0D0EF11F0D2EF11F0D4
:1023A000DBEF11F02F8C1D50255E1E50265A1F505A
:1023B000275A2050285A312A190E3164E2EF11F0C1
:1023C000E4EF11F0A4EF11F025502610271028108B
:1023D000D8B4EDEF11F0EFEF11F007EF12F02C8011
:1023E00007EF12F0D89019361A361B361C362FAE6E
:1023F000FCEF11F0FEEF11F0FFEF11F01980D89013
:102400002C362D362E362F362A06D8A02B061BAE9C
:102410000CEF12F00EEF12F0F2EF11F0000E316E31
:102420002FAE15EF12F017EF12F03BEF12F0FF0E88
:102430002C14216EFF0E2D14226EFF0E2E14236E0F
:102440007F0E2F14246E2150221023102410D8B494
:102450002CEF12F02EEF12F032EF12F0010E316E6F
:102460003BEF12F019A037EF12F039EF12F03BEF0B
:1024700012F02EEF12F03150D8B441EF12F043EFCA
:1024800012F067EF12F0010E1926000E1A221B221D
:102490001C221CA04EEF12F050EF12F067EF12F06A
:1024A00019C021F01AC022F01BC023F01CC024F078
:1024B0002434243223322232213221C019F022C0A6
:1024C0001AF023C01BF024C01CF02A4A2B2A2BBE72
:1024D00072EF12F02B5008E12A28D8A072EF12F008
:1024E00074EF12F07FEF12F0000E2B6E2A68000ED0
:1024F000196E000E1A6E000E1B6E000E1C6E2BBEA7
:102500008CEF12F02B5006E12A04D8B08AEF12F0BB
:102510008CEF12F09AEF12F0000E2B6E000E2A6E66
:10252000000E196E000E1A6E000E1B6E000E1C6E51
:10253000000E296E2AC030F030A0A1EF12F0A3EFF8
:1025400012F0A6EF12F01B8EA7EF12F01B9ED89090
:1025500030301C6E5DEF11F0120032C0D9FF33C075
:10256000DAFFDECF01F0DDCF02F0000E02BEFF0E7B
:10257000036E046E010E83EC15F001C042F002C040
:1025800043F003C044F004C045F020EE02F03250A6
:10259000D9263350DA22DECF01F0DDCF02F0000E73
:1025A00002BEFF0E036E046E010E83EC15F001C037
:1025B00046F002C047F003C048F004C049F020EEE6
:1025C00004F03250D9263350DA22DECF01F0DDCFCD
:1025D00002F0000E02BEFF0E036E046E010E83ECCD
:1025E00015F001C04AF002C04BF003C04CF004C02B
:1025F0004DF020EE06F03250D9263350DA22DECFED
:1026000001F0DDCF02F0000E02BEFF0E036E046E7D
:10261000010E83EC15F001C036F002C037F003C0A4
:1026200038F004C039F046C005F047C006F048C095
:1026300007F049C008F042C001F043C002F044C0B6
:1026400003F045C004F06BEC0CF001C03AF002C09E
:102650003BF003C03CF004C03DF04AC005F04BC065
:1026600006F04CC007F04DC008F03AC001F03BC086
:1026700002F03CC003F03DC004F06BEC0CF001C074
:102680003EF002C03FF003C040F004C041F042C041
:1026900019F043C01AF044C01BF045C01CF036C00E
:1026A00005F037C006F038C007F039C008F03EC06A
:1026B00001F03FC002F040C003F041C004F06BECF9
:1026C0000CF001C01DF002C01EF003C01FF004C0DA
:1026D00020F0E0EC10F034C0D9FF35C0DAFF19C0AB
:1026E000DEFF1AC0DEFF1BC0DEFF1CC0DEFF46C0DF
:1026F00005F047C006F048C007F049C008F042C0E6
:1027000001F043C002F044C003F045C004F06BEC9C
:102710000CF001C03AF002C03BF003C03CF004C032
:102720003DF04AC005F04BC006F04CC007F04DC06C
:1027300008F03AC001F03BC002F03CC003F03DC0DD
:1027400004F06BEC0CF001C03EF002C03FF003C09F
:1027500040F004C041F04AC019F04BC01AF04CC020
:102760001BF04DC01CF036C005F037C006F038C075
:1027700007F039C008F03EC001F03FC002F040C091
:1027800003F041C004F06BEC0CF001C01DF002C07E
:102790001EF003C01FF004C020F0E0EC10F020EEAB
:1027A00008F03450D9263550DA2219C0DEFF1AC09D
:1027B000DEFF1BC0DEFF1CC0DEFF46C005F047C0C9
:1027C00006F048C007F049C008F042C001F043C01D
:1027D00002F044C003F045C004F06BEC0CF001C003
:1027E0003AF002C03BF003C03CF004C03DF04AC0E8
:1027F00005F04BC006F04CC007F04DC008F03AC0E1
:1028000001F03BC002F03CC003F03DC004F06BECB3
:102810000CF001C03EF002C03FF003C040F004C025
:1028200041F046C019F047C01AF048C01BF049C03B
:102830001CF036C005F037C006F038C007F039C0CC
:1028400008F03EC001F03FC002F040C003F041C0BC
:1028500004F06BEC0CF001C01DF002C01EF003C0D0
:102860001FF004C020F0E0EC10F020EE04F0345033
:10287000D9263550DA2219C0DEFF1AC0DEFF1BC090
:10288000DEFF1CC0DEFF12001EC034F01FC035F09A
:1028900020C036F021C037F022C038F023C039F014
:1028A00024C03AF025C03BF03BBE59EF14F05CEF7A
:1028B00014F0010E5DEF14F0000E3E6E3E50D8B4E1
:1028C00064EF14F066EF14F076EF14F03B1E3A1E3E
:1028D000391E381E371E361E351E346C000E35224A
:1028E00036223722382239223A223B220001E9BF20
:1028F00084EF14F0E95106E1E805D8B082EF14F056
:1029000084EF14F08AEF14F0000E316E010E306E79
:102910008EEF14F0E8C030F0E9C031F0E6C032F0DC
:10292000E7C033F03E50D8B498EF14F09AEF14F0AB
:10293000B1EF14F03206D8A033063E50D8A4A3EF6E
:1029400014F0A5EF14F0ABEF14F0000E2F6E2B0E69
:102950002E6EAFEF14F0000E2F6E2D0E2E6E2EC0C9
:102960003EF0000E3D6E1F0E3C6E000E01017B6FAF
:1029700036EF15F03C06D8A03D065C0E3C24D96E1F
:10298000010E3D20DA6E34C001F035C002F036C0D1
:1029900003F037C004F038C005F039C006F03AC083
:1029A00007F03BC008F00A0E096E000E0A6E000E1A
:1029B0000B6E000E0C6E000E0D6E000E0E6E000EF5
:1029C0000F6E000E106E21EC17F001C026F002C051
:1029D00027F003C028F004C029F005C02AF006C083
:1029E0002BF007C02CF008C02DF026C013F027C034
:1029F00014F04DEC1CF01350300FDF6E3006D8A0F1
:102A000031063206D8A0330634C001F035C002F0DA
:102A100036C003F037C004F038C005F039C006F006
:102A20003AC007F03BC008F00A0E096E000E0A6EAD
:102A3000000E0B6E000E0C6E000E0D6E000E0E6E74
:102A4000000E0F6E000E106E5DEC16F001C034F03B
:102A500002C035F003C036F004C037F005C038F0CE
:102A600006C039F007C03AF008C03BF03DBE41EF68
:102A700015F03D5008E13C04D8A041EF15F043EFBC
:102A800015F05FEF15F03450351036103710381050
:102A900039103A103B10D8A450EF15F052EF15F052
:102AA000BAEF14F031BE5FEF15F0315006E130049B
:102AB000D8B05DEF15F05FEF15F0BAEF14F03E50AF
:102AC000D8B465EF15F067EF15F072EF15F03C061E
:102AD000D8A03D065C0E3C24D96E010E3D20DA6E76
:102AE0003EC0DFFF1CC011F01DC012F05C0E3C2484
:102AF000136E010E3D20146E32C015F033C016F077
:102B000033EC1AF01200096E0950D8B48AEF15F0B0
:102B10008CEF15F0AEEF15F004BE93EF15F091EFCA
:102B200015F0AEEF15F001C005F002C006F003C0CD
:102B300007F004C008F0051E061E071E081E052A21
:102B4000000E06220722082205C00BF006C00CF07A
:102B500007C00DF008C00EF0B6EF15F001C00BF085
:102B600002C00CF003C00DF004C00EF001500210C2
:102B700003100410D8A4BFEF15F0C1EF15F0CBEF90
:102B800015F0000E016E000E026E000E036E000EB8
:102B9000046E5CEF16F0960E0A6ED5EF15F00A2A59
:102BA000D8900E320D320C320B32000E0B14056E23
:102BB000000E0C14066E000E0D14076EFE0E0E14A1
:102BC000086E0550061007100810D8A4EAEF15F09B
:102BD000ECEF15F0CFEF15F0FAEF15F00A2A010E21
:102BE0000B26000E0C220D220E22D8900E320D3232
:102BF0000C320B32000E0B14056E000E0C14066E18
:102C0000000E0D14076EFF0E0E14086E0550061010
:102C100007100810D8A40FEF16F011EF16F0EEEF22
:102C200015F019EF16F00A06D8900B360C360D3653
:102C30000E360DBE1EEF16F020EF16F028EF16F040
:102C4000020E0A6026EF16F028EF16F013EF16F0CA
:102C50000AB02DEF16F02FEF16F030EF16F00D9EA4
:102C6000D8900A320AC005F0066A076A086A05C0E9
:102C700008F0076A066A056A05500B1206500C1226
:102C800007500D1208500E120950D8B44AEF16F032
:102C90004CEF16F054EF16F004BE53EF16F051EF60
:102CA00016F054EF16F00E8E0BC001F00CC002F0BF
:102CB0000DC003F00EC004F01200000E126E10BE24
:102CC00066EF16F064EF16F078EF16F0101E0F1E88
:102CD0000E1E0D1E0C1E0B1E0A1E096C000E0A2273
:102CE0000B220C220D220E220F221022010E126E38
:102CF00008BE7FEF16F07DEF16F091EF16F0081E7C
:102D0000071E061E051E041E031E021E016C000E79
:102D10000222032204220522062207220822010E93
:102D2000121A20EE13F0070EDE6AE806FDE20950E3
:102D30000A100B100C100D100E100F101010D8B43C
:102D4000A4EF16F0A6EF16F0F8EF16F0010E116ED4
:102D5000B4EF16F0D89009360A360B360C360D361D
:102D60000E360F361036112A10AEB9EF16F0BBEF43
:102D700016F0AAEF16F0D89013361436153616361C
:102D80001736183619361A360950015C0A5002589F
:102D90000B5003580C5004580D5005580E5006584F
:102DA0000F50075810500858D8A0D9EF16F0DBEF95
:102DB00016F0ECEF16F00950015E0A50025A0B5063
:102DC000035A0C50045A0D50055A0E50065A0F5013
:102DD000075A1050085A1380D89010320F320E3212
:102DE0000D320C320B320A320932112EBBEF16F0C3
:102DF0001250D8B4FEEF16F000EF17F010EF17F0F6
:102E00001A1E191E181E171E161E151E141E136CD0
:102E1000000E1422152216221722182219221A2215
:102E200013C001F014C002F015C003F016C004F086
:102E300017C005F018C006F019C007F01AC008F056
:102E40001200000E126E08BE2AEF17F028EF17F0DE
:102E50003CEF17F0081E071E061E051E041E031E6B
:102E6000021E016C000E0222032204220522062209
:102E700007220822010E126E10BE43EF17F041EF39
:102E800017F053EF17F0101E0F1E0E1E0D1E0C1E16
:102E90000B1E0A1E096C000E0A220B220C220D22A8
:102EA0000E220F22102209500A100B100C100D10C8
:102EB0000E100F101010D8B460EF17F062EF17F07B
:102EC000AAEF17F0010E116E70EF17F0D8900936C7
:102ED0000A360B360C360D360E360F361036112AE2
:102EE00010AE75EF17F077EF17F066EF17F0095097
:102EF000015C0A5002580B5003580C5004580D50F6
:102F000005580E5006580F50075810500858D8A0B2
:102F10008CEF17F08EEF17F09EEF17F00950015E5F
:102F20000A50025A0B50035A0C50045A0D50055ABD
:102F30000E50065A0F50075A1050085AD8901032A7
:102F40000F320E320D320C320B320A320932112E90
:102F500077EF17F01250D8B4B0EF17F0B2EF17F0C8
:102F6000C2EF17F0081E071E061E051E041E031ED4
:102F7000021E016C000E02220322042205220622F8
:102F80000722082201C001F002C002F003C003F0D2
:102F900004C004F005C005F006C006F007C007F045
:102FA00008C008F0120041C0D9FF42C0DAFFDECFEE
:102FB000F6FFDDCFF7FF0800F550250AD8A4E3EFB0
:102FC00017F0E5EF17F065EF18F041C0D9FF42C0E8
:102FD000DAFFDE2A000EDD22000E0001E76F000E90
:102FE000E66FE6C0ECF0E869E96941C0D9FF42C08C
:102FF000DAFFDECF4FF0DDCF50F04FC0F6FF50C00C
:10300000F7FF0800F550640AD8B409EF18F00BEF89
:1030100018F019EF18F04FC0F6FF50C0F7FF080086
:10302000F550690AD8A417EF18F019EF18F05CEF03
:1030300018F043C0D9FF44C0DAFFDFCF45F0020EDD
:10304000DE26DFCF46F0000EDD2245C0D9FF46C0A8
:10305000DAFFDECF47F0DDCF48F0000E48BEFF0EAE
:10306000496E4A6E4B6E4C6E4D6E4E6E010E4F2485
:10307000456E000E5020466E41C0D9FF42C0DAFFB7
:1030800045C0DEFF46C0DDFF3FC01CF040C01DF064
:1030900047C01EF048C01FF049C020F04AC021F0D0
:1030A0004BC022F04CC023F04DC024F04EC025F0A0
:1030B00044EC14F079EF18F041C0D9FF42C0DAFFB8
:1030C000DE2A000EDD2279EF18F041C0D9FF42C0A0
:1030D000DAFFDECFF6FFDDCFF7FF0800F550016E17
:1030E000026A3FC003F040C004F079EC19F05CEFD5
:1030F00018F01200000E0114096E000E02140A6E80
:10310000800E03140B6E7F0E04140C6E09500A100F
:103110000B100C10D8A48FEF18F091EF18F099EF66
:1031200018F0000E016E000E026E000E036E000E0F
:10313000046E000E0514096E000E06140A6E800E51
:1031400007140B6E7F0E08140C6E09500A100B103A
:103150000C10D8A4AEEF18F0B0EF18F0B8EF18F0DC
:10316000000E056E000E066E000E076E000E086E55
:1031700004AEBDEF18F0BFEF18F0C8EF18F0016C07
:10318000021ED8B0022A031ED8B0032A800E0456AD
:1031900008AECDEF18F0CFEF18F0D8EF18F0056CAF
:1031A000061ED8B0062A071ED8B0072A800E085679
:1031B000000E011A000E021A000E031A800E041AE5
:1031C000000E051A000E061A000E071A800E081AC5
:1031D0000550015C06500258075003580850045827
:1031E000D8B0F5EF18F0F7EF18F0FAEF18F0D89024
:1031F000FBEF18F0D8801200BEEC1CF0F0EC1CF0D5
:10320000F7EC1AF085EC1CF07F8279887E8EED0E4B
:103210000C6E000E0D6E9FEC1AF0ED0E326E000E6D
:10322000336E7C0E346E010E356EADEC12F0000183
:10323000F4BF24EF19F0980EF35D080EF459D8A0EE
:1032400024EF19F026EF19F055EF19F0ED0E4B6E43
:10325000000E4C6E7C0E4D6E010E4E6E28EC07F08B
:103260004BC0E4F04CC0E5F0800E0001606F000E32
:10327000616F010E626F0E0E636FEDC064F0EEC001
:1032800065F0EFC066F0F0C067F0F1C068F0F2C022
:1032900069F0F3C06AF0F4C06BF0E4C06CF0E5C014
:1032A0006DF0CEEC1AF06FEF19F0800E606F000E2B
:1032B000616F2D0E626F0E0E636FEDC064F0EEC095
:1032C00065F0EFC066F0F0C067F0F1C068F0F2C0E2
:1032D00069F0F3C06AF0F4C06BF0CEEC1AF0800E27
:1032E000026E000E036E6DEC1CF007EF19F007EF95
:1032F00000F003500410D8B480EF19F082EF19F0F9
:103300008BEF19F003500410D8A489EF19F08BEF5C
:1033100019F090EF19F00150EFEC1CF0DDEF19F00F
:1033200020EE09F00350D9260450DA22DE50DE10D8
:10333000D8B49DEF19F09FEF19F0BAEF19F020EE15
:1033400009F00350D9260450DA2210EE03F003509E
:10335000E1260450E222DE50E65CE650800A096E67
:10336000DE50800A0958D8B0B8EF19F0BAEF19F05A
:10337000DDEF19F020EE03F00350D9260450DA22D5
:10338000DECF05F0DDCF06F003C0D9FF04C0DAFFC1
:10339000DECF07F0DDCF08F005500724D96E0650C8
:1033A0000820DA6E01C0DFFF20EE03F00350D926BB
:1033B0000450DA22DE2A000EDD221200000E19145B
:1033C000216E000E1A14226E800E1B14236E7F0EC7
:1033D0001C14246E2150221023102410D8A4F3EFC3
:1033E00019F0F5EF19F0FDEF19F0000E196E000E4F
:1033F0001A6E000E1B6E000E1C6E000E1D14216E48
:10340000000E1E14226E800E1F14236E7F0E2014D9
:10341000246E2150221023102410D8A412EF1AF089
:1034200014EF1AF01CEF1AF0000E1D6E000E1E6E47
:10343000000E1F6E000E206E1D5019180FE11E5059
:103440001A180CE11F501B1809E120501C18D8B4A1
:103450002CEF1AF02EEF1AF031EF1AF0D89032EF6D
:103460001AF0D880120016BE38EF1AF03AEF1AF0B0
:1034700040EF1AF015C01AF016C01BF044EF1AF016
:10348000000E1B6E000E1A6E000E196E000E186EE6
:1034900056EF1AF0000E026E200E016E11C003F0FE
:1034A00012C004F079EC19F0184A192A1A50185C65
:1034B0001950800A176E1B50800A1758D8A063EF66
:1034C0001AF065EF1AF04AEF1AF013C00AF014C0B0
:1034D0000BF011C00CF012C00DF00AEC1CF0120041
:1034E000DC0EF66E390EF76E000EF86E0900F5CFA1
:1034F000F5F00900F5CFF6F0E20EF66E390EF76E34
:10350000000EF86E0900F5CF5EF001EE00F0880EB7
:10351000EE6AE806FDE100EEE6F00F0EEE6AE80660
:10352000FDE15D6A5C6A5B6A5A6A596A5F905F9204
:10353000000EF86E0E0EF76E0001FCEF18F048EC6E
:103540001BF00CC0D9FF0DC0DAFF05C0DEFF06C0BE
:10355000DDFF98EC1BF020EE04F00C50D9260D5046
:10356000DA2205C0DEFF06C0DDFF70EC1BF020EEA6
:1035700002F00C50D9260D50DA2205C0DEFF06C03D
:10358000DDFF20EC1BF020EE06F00C50D9260D508C
:10359000DA2205C0DEFF06C0DDFF1200640E000166
:1035A0006E6F000E6F6F60C070F061C071F0000E42
:1035B000746F000E736F000E7A6F000E796F700ECD
:1035C000516E000E526E62C053F063C054F06E0E26
:1035D000556E000E566EC0EC1BF000017351602555
:1035E000D96E74516121DA6E000EDF6E120085EC27
:1035F0001CF0010E036E000EAEEC1CF03F0E056ECB
:10360000550EE82EFED7052EFCD700F0030E036EF4
:10361000000EAEEC1CF0D50E036E010EAEEC1CF0ED
:10362000000E036E0F0EAEEC1CF087928198869E02
:10363000849684987F927E9E79987C967C981200DE
:10364000E9EC1CF0520ED9EC1CF0B40ED9EC1CF0D5
:10365000DFEC1CF0530ED9EC1CF0010E2CEC1CF02E
:10366000076E07500A6E0B6A000E2CEC1CF0076EFA
:103670000750096E086A0A5008100A6E0B500910AC
:103680000B6EE4EC1CF00AC005F00BC006F0120053
:10369000E9EC1CF0520ED9EC1CF0B60ED9EC1CF083
:1036A000DFEC1CF0530ED9EC1CF0010E2CEC1CF0DE
:1036B000076E07500A6E0B6A000E2CEC1CF0076EAA
:1036C0000750096E086A0A5008100A6E0B5009105C
:1036D0000B6EE4EC1CF00AC005F00BC006F0120003
:1036E000E9EC1CF0520ED9EC1CF0B80ED9EC1CF031
:1036F000DFEC1CF0530ED9EC1CF0010E2CEC1CF08E
:10370000076E07500A6E0B6A000E2CEC1CF0076E59
:103710000750096E086A0A5008100A6E0B5009100B
:103720000B6EE4EC1CF00AC005F00BC006F01200B2
:10373000E9EC1CF0520ED9EC1CF0BA0ED9EC1CF0DE
:10374000DFEC1CF0530ED9EC1CF0010E2CEC1CF03D
:10375000076E07500A6E0B6A000E2CEC1CF0076E09
:103760000750096E086A0A5008100A6E0B500910BB
:103770000B6EE4EC1CF00AC005F00BC006F0120062
:1037800053C057F054C058F0D4EF1BF051C03FF075
:1037900052C040F0570E416E000E426E55C043F0CD
:1037A00056C044F0D3EC17F057C0F6FF58C0F7FFEF
:1037B0000800F5500009D8A4E0EF1BF0E2EF1BF081
:1037C000C6EF1BF0000E526E000E516E1200000E7E
:1037D000151A000E161A000E171A800E181A11C0AC
:1037E00001F012C002F013C003F014C004F015C0C1
:1037F00005F016C006F017C007F018C008F06BEC13
:103800000CF001C011F002C012F003C013F004C0AC
:1038100014F01200000E106E000E0F6E1BEF1CF065
:103820000EC001F0026A0CC003F00DC004F079EC88
:1038300019F00F4A102A0F500A24D96E10500B208D
:10384000DA6EDF500E6E0E50D8A429EF1CF02BEF6D
:103850001CF010EF1CF01200036E9AEC1CF00E012D
:10386000DA879AEC1CF0D5CE04F09AEC1CF00350E9
:10387000D8B43DEF1CF041EF1CF0026A022A42EF7F
:103880001CF0026A023A02460E01DA510218DF0BFE
:103890000218DA6FDA890450120014BE5AEF1CF0D5
:1038A000145006E11304D8B058EF1CF05AEF1CF086
:1038B00068EF1CF013C015F014C016F0151E161E8C
:1038C000154A162A15C013F016C014F06CEF1CF040
:1038D00013C013F014C014F0120078EF1CF002C0F3
:1038E000D9FF03C0DAFFDF50CDEC1CF0024A032AF7
:1038F00002C0D9FF03C0DAFFDF50D8A482EF1CF06A
:1039000084EF1CF06FEF1CF012000E01D951F00B88
:103910000809D96FD98B9F0ED66F848A848CA79B98
:10392000A79D1D0E1D6F1E0E1C6F1C0E6F6F1B0EB4
:10393000706F12000E01D8B5A0EF1CF0A2EF1CF0C2
:103940009AEF1CF0DACE01F01F0E0116D8A4ABEFEF
:103950001CF0ADEF1CF09AEF1CF01200046EE9ECC5
:103960001CF0520ED9EC1CF004508009D9EC1CF06C
:103970000350D9EC1CF0E4EC1CF01200120E0E0106
:10398000626F110E156FE997E895330EE56F000E23
:10399000E66FE789E88BE78F1200016E0E0137A50D
:1039A000D4EF1CF0D6EF1CF0CEEF1CF001C0E4FE0B
:1039B0001200026E9AEC1CF002C0D5FE12009AECC6
:1039C0001CF00E01DA8312009AEC1CF00E01DA856D
:1039D00012009AEC1CF00E01DA811200E8031200CA
:0339E000120001D1
:020000040020DA
:10000000FF0FFF0FFF0FFF0FFF0FFF0FFF0FFF0F80
:020000040030CA
:0C000000AAFFFFFF9FFFFFFFFFFFFFFFB5
:00000001FF
