:0400000025EF00F0F8
:100008005B82D9CF03F0DACF04F00E0137A50FEFEA
:1000180000F011EF00F015EF00F0A9EC1EF00E0152
:10002800E46F37A71AEF00F01CEF00F01FEF00F0A5
:10003800E351FEEC1EF004C0DAFF03C0D9FF5B9267
:0600480011003CEF1EF068
:100E0000007265643D256620677265656E3D2566E6
:100E100020626C75653D2566206C756D3D25640D01
:0B0E20000A00696E66006E616E000043
:100E2C00000E0001816F34C082F035C083F036C0F3
:100E3C0084F037C085F085BF28EF07F026EF07F068
:100E4C003CEF07F0010E816F82C005F083C006F005
:100E5C0084C007F085C008F05BEC1EF005C082F082
:100E6C0006C083F007C084F008C085F0000E0001B6
:100E7C00876F000E866FEFC071F0F0C072F0815179
:100E8C00D8B44BEF07F04DEF07F061EF07F081514D
:100E9C00D8A453EF07F055EF07F05BEF07F0000E07
:100EAC00676F2B0E666F5FEF07F0000E676F2D0EEE
:100EBC00666F66C081F082C005F083C006F084C006
:100ECC0007F085C008F03AEC1AF005040610D8A417
:100EDC0072EF07F074EF07F0A7EF07F000018151F4
:100EEC00D8B47BEF07F07DEF07F086EF07F081C0F9
:100EFC0050F17107D8A07207000E876F010E866F34
:100F0C00500E8625056E010E8721066E220E076E89
:100F1C000E0E086EB7EC1DF00001FD0E7127FF0ED2
:100F2C00722332C015F033C016F0500E176E010E3E
:100F3C00186E71C019F072C01AF0DAEC1BF012EFD7
:100F4C000CF082C005F083C006F084C007F085C0A9
:100F5C0008F03AEC1AF005500610D8A4B8EF07F0D8
:100F6C00BAEF07F0DAEF07F000018151D8B4C1EF06
:100F7C0007F0C3EF07F0CCEF07F081C050F1710719
:100F8C00D8A07207000E876F010E866F500E862553
:100F9C00056E010E8721066E260E076E0E0E086E6C
:100FAC00B7EC1DF092EF07F0000E0001886F000EF9
:100FBC00896F800E8A6F3F0E8B6F000E706F000E64
:100FCC006F6F82C005F083C006F084C007F085C047
:100FDC0008F0000E096E000E0A6E000E0B6E000E6D
:100FEC000C6E85EC1BF0D8B0FEEF07F000EF08F0AC
:100FFC00DFEF08F00DEF08F073C088F074C089F0D3
:10100C0075C08AF076C08BF000016F4B702B88C0D6
:10101C0005F089C006F08AC007F08BC008F0000EFE
:10102C00096E000E0A6E200E0B6E410E0C6E73ECE8
:10103C000EF005C073F006C074F007C075F008C060
:10104C0076F000017351825D056E74518359066E02
:10105C0075518459076E76518559086E17EC1CF042
:10106C0008BE44EF08F008500710061009E1020E04
:10107C00055CD8A044EF08F046EF08F002EF08F04A
:10108C0073C01EF074C01FF075C020F076C021F044
:10109C0082C022F083C023F084C024F085C025F0E8
:1010AC00B8EC19F0D8A05DEF08F05FEF08F002EF94
:1010BC0008F000018851825D056E89518359066ED6
:1010CC008A518459076E8B518559086E17EC1CF0A8
:1010DC0008BE7EEF08F008500710061007E1020E5C
:1010EC00055CD8B07CEF08F07EEF08F0C6EF08F096
:1010FC0088C082F089C083F08AC084F08BC085F0F0
:10110C00DFEF08F088C005F089C006F08AC007F050
:10111C008BC008F0000E096E000E0A6E200E0B6ECE
:10112C00410E0C6E88EC10F005C088F006C089F0FA
:10113C0007C08AF008C08BF000016F07D8A07007B9
:10114C008851825D056E89518359066E8A51845986
:10115C00076E8B518559086E17EC1CF008BEC4EF56
:10116C0008F008500710061007E1020E055CD8B015
:10117C00C2EF08F0C4EF08F0C6EF08F07EEF08F0FD
:10118C0082C01EF083C01FF084C020F085C021F007
:10119C0088C022F089C023F08AC024F08BC025F0CF
:1011AC00B8EC19F0D8A0DDEF08F0DFEF08F088EF0D
:1011BC0008F038C069F069C06AF00001F2BFE9EFCD
:1011CC0008F0EBEF08F0F1EF08F0F1C062F0F2C0BC
:1011DC0063F0F5EF08F0000E636F060E626F62C0ED
:1011EC006DF063C06EF06D4B6E2B660E6A19D8A451
:1011FC0002EF09F004EF09F024EF09F070BF0BEFD8
:10120C0009F009EF09F017EF09F0000E886F000ED6
:10121C00896F800E8A6F3F0E8B6F000E706F000E01
:10122C006F6F670E6919D8B41EEF09F020EF09F043
:10123C0024EF09F06F516D2770516E23000E786FFB
:10124C00000E776F82C079F083C07AF084C07BF097
:10125C0085C07CF088C073F089C074F08AC075F0CA
:10126C008BC076F0B5EF09F079C005F07AC006F0C6
:10127C007BC007F07CC008F088C009F089C00AF078
:10128C008AC00BF08BC00CF088EC10F005C01EF07F
:10129C0006C01FF007C020F008C021F017EC15F0B5
:1012AC001EC07DF01FC07EF020C07FF021C080F0FA
:1012BC007DC005F07EC006F07FC007F080C008F04E
:1012CC0035EC19F005C06BF006C06CF079C01EF05F
:1012DC007AC01FF07BC020F07CC021F07DC009F0EB
:1012EC007EC00AF07FC00BF080C00CF088C005F007
:1012FC0089C006F08AC007F08BC008F073EC0EF0C2
:10130C0005C022F006C023F007C024F008C025F069
:10131C0094EC1DF01EC079F01FC07AF020C07BF059
:10132C0021C07CF088C005F089C006F08AC007F0A7
:10133C008BC008F0000E096E000E0A6E200E0B6EAC
:10134C00410E0C6E88EC10F005C088F006C089F0D8
:10135C0007C08AF008C08BF00001774B782B6D51D9
:10136C00775D7851800A396E6E51800A3958D8A051
:10137C00C2EF09F0C4EF09F03AEF09F088C005F0AC
:10138C0089C006F08AC007F08BC008F0000E096E09
:10139C00000E0A6EA00E0B6E400E0C6E73EC0EF06F
:1013AC0005C07DF006C07EF007C07FF008C080F05D
:1013BC0079C01EF07AC01FF07BC020F07CC021F0F9
:1013CC007DC022F07EC023F07FC024F080C025F0C9
:1013DC00B8EC19F0D8B0F5EF09F0F7EF09F002EF1F
:1013EC000AF0000E00017D6F000E7E6F000E7F6F05
:1013FC00000E806F2BEF0AF079C005F07AC006F072
:10140C007BC007F07CC008F07DC009F07EC00AF0FC
:10141C007FC00BF080C00CF085EC1BF0D8A019EF4E
:10142C000AF01BEF0AF02BEF0AF000016BB121EF71
:10143C000AF023EF0AF02BEF0AF0000E7D6F000E7E
:10144C007E6F000E7F6F000E806F82C005F083C030
:10145C0006F084C007F085C008F07DC009F07EC09E
:10146C000AF07FC00BF080C00CF013EC0CF005C040
:10147C0079F006C07AF007C07BF008C07CF079C028
:10148C001EF07AC01FF07BC020F07CC021F0000E53
:10149C00096E000E0A6E200E0B6E410E0C6E73C0A0
:1014AC0005F074C006F075C007F076C008F073EC58
:1014BC000EF005C022F006C023F007C024F008C0CF
:1014CC0025F0B8EC19F0D8A06EEF0AF070EF0AF026
:1014DC0099EF0AF000016F4B702B73C005F074C0CC
:1014EC0006F075C007F076C008F0000E096E000E0D
:1014FC000A6E200E0B6E410E0C6E73EC0EF005C0D6
:10150C0073F006C074F007C075F008C076F0660E74
:10151C0000016A19D8A495EF0AF097EF0AF099EF39
:10152C000AF06D4B6E2B73C088F074C089F075C0D7
:10153C008AF076C08BF06FC060F070C061F0000E66
:10154C000001686F000E656F000E646F000E786FFF
:10155C00000E776F97EF0BF079C005F07AC006F0AC
:10156C007BC007F07CC008F088C009F089C00AF085
:10157C008AC00BF08BC00CF088EC10F005C01EF08C
:10158C0006C01FF007C020F008C021F017EC15F0C2
:10159C001EC07DF01FC07EF020C07FF021C080F007
:1015AC007DC005F07EC006F07FC007F080C008F05B
:1015BC0035EC19F006BEEEEF0AF0065007E10A0E04
:1015CC00055CD8B0ECEF0AF0EEEF0AF0FEEF0AF093
:1015DC007DC005F07EC006F07FC007F080C008F02B
:1015EC0035EC19F005C06BF006C06CF003EF0BF096
:1015FC00000E00016C6F090E6B6F00016851D8A4CE
:10160C000AEF0BF00CEF0BF034EF0BF061BF13EFA4
:10161C000BF011EF0BF034EF0BF0500E8625D96E5A
:10162C00010E8721DA6E2E0EDF6E864B872B71072B
:10163C00D8A07207010E686F34EF0BF0500E8625A0
:10164C00D96E010E8721DA6E300EDF6E864B872B3A
:10165C007107D8A072076407D8A06507645165119B
:10166C00D8A43BEF0BF03DEF0BF024EF0BF0500E3A
:10167C008625D96E010E8721DA6E6B51300FDF6E25
:10168C00864B872B7107D8A0720779C01EF07AC0E1
:10169C001FF07BC020F07CC021F07DC009F07EC023
:1016AC000AF07FC00BF080C00CF088C005F089C038
:1016BC0006F08AC007F08BC008F073EC0EF005C082
:1016CC0022F006C023F007C024F008C025F094ECEB
:1016DC001DF01EC079F01FC07AF020C07BF021C035
:1016EC007CF088C005F089C006F08AC007F08BC07A
:1016FC0008F0000E096E000E0A6E200E0B6E410EE5
:10170C000C6E88EC10F005C088F006C089F007C09C
:10171C008AF008C08BF000016007D8A06107774BF6
:10172C00782B6D51775D7851800A396E6E51800A35
:10173C003958D8B0A4EF0BF0A6EF0BF0B4EF0BF0C8
:10174C0087BFB2EF0BF0875109E14B0E865DD8A035
:10175C00B2EF0BF0B4EF0BF0B2EF0AF0000E786FB3
:10176C004F0E776F500E7725D96E010E7821DA6EF9
:10177C00000EDF6E500E396E010E3A6E8651395ED8
:10178C0087513A5A77513924056E78513A20066EB2
:10179C00500E076E010E086E86C009F087C00AF065
:1017AC00CCEC1CF000018651775D866F875178591F
:1017BC00876F8151D8A4E5EF0BF0E8EF0BF0010E29
:1017CC00E9EF0BF0000E776F786B8151D8B4F1EF25
:1017DC000BF0F3EF0BF0FEEF0BF08607D8A08707AA
:1017EC00500E8625D96E010E8721DA6E81C0DFFF7F
:1017FC007751715F7851725B32C015F033C016F0BF
:10180C00500E8625176E010E8721186E71C019F0C7
:10181C0072C01AF0DAEC1BF012000850800B116E3B
:10182C0008500824136E07AE1EEF0CF020EF0CF0DE
:10183C0021EF0CF013801350D8B427EF0CF029EFE4
:10184C000CF03EEF0CF01328D8A42FEF0CF031EF76
:10185C000CF039EF0CF0000E056E000E066E000E4B
:10186C00076E000E086E078E000E086E46EF0CF029
:10187C00000E056E000E066E000E076E000E086E52
:10188C000C50800B126E11501218D8B450EF0CF093
:10189C0052EF0CF053EF0CF0118C0C500C24126E18
:1018AC000BAE5BEF0CF05DEF0CF05EEF0CF012800A
:1018BC001250D8B464EF0CF066EF0CF07BEF0CF028
:1018CC001228D8A46CEF0CF06EEF0CF076EF0CF045
:1018DC00000E096E000E0A6E000E0B6E000E0C6EE2
:1018EC000B8E000E0C6E83EF0CF0000E096E000ECA
:1018FC000A6E000E0B6E000E0C6E1350125CD8B0FC
:10190C008AEF0CF08CEF0CF0B3EF0CF011AC91EF04
:10191C000CF093EF0CF095EF0CF0800E111A13C035
:10192C0014F012C013F014C012F005C014F009C06A
:10193C0005F014C009F006C014F00AC006F014C07B
:10194C000AF007C014F00BC007F014C00BF008C06D
:10195C0014F00CC008F014C00CF0000E146E1350F0
:10196C0012C00DF00E6A0D5E000E0E5A0EBEC8EFC0
:10197C000CF00E5009E11A0E0D5CD8A0C8EF0CF05B
:10198C00CAEF0CF001EF0DF005500610071008100F
:10199C00D8A4D3EF0CF0D6EF0CF0010ED7EF0CF06F
:1019AC00000E146E000E056E000E066E000E076E15
:1019BC00000E086E12C013F00AEF0DF014A0E9EF40
:1019CC000CF0EBEF0CF0F1EF0CF0D89014300109A7
:1019DC00146EF3EF0CF0D890143205A0F8EF0CF065
:1019EC00FAEF0CF0FBEF0CF0148E083408320732CF
:1019FC0006320532132A1250135CD8A008EF0DF0F2
:101A0C000AEF0DF0E4EF0CF011BC0FEF0DF011EF3D
:101A1C000DF051EF0DF01350D8A417EF0DF019EF96
:101A2C000DF023EF0DF0000E056E000E066E000E8D
:101A3C00076E000E086E72EF0EF0095005260A5064
:101A4C0006220B5007220C50082208A030EF0DF094
:101A5C0032EF0DF0DEEF0DF014A037EF0DF039EF93
:101A6C000DF03FEF0DF0D89014300109146E41EFDA
:101A7C000DF0D890143205A046EF0DF048EF0DF0A4
:101A8C0049EF0DF0148E0834083207320632053255
:101A9C00132ADEEF0DF00950055C0A5006580B5066
:101AAC0007580850800A0D6E0C50800A0D58D8B09B
:101ABC0062EF0DF064EF0DF08FEF0DF00550095C47
:101ACC000D6E06500A580E6E07500B580F6E0850CC
:101ADC000C58106EFF0E0D24056EFF0E0E20066EB8
:101AEC00FF0E0F20076EFF0E1020086E800E111ACD
:101AFC00146C1450D8A485EF0DF087EF0DF097EF10
:101B0C000DF0010E0526000E06220722082297EF83
:101B1C000DF00950055E0A50065A0B50075A0C502E
:101B2C00085A0550061007100810D8A4A0EF0DF0A5
:101B3C00A2EF0DF0D7EF0DF01450D8A4A8EF0DF0D4
:101B4C00AAEF0DF0D7EF0DF0000E056E000E066E2D
:101B5C00000E076E000E086E72EF0EF0D890053670
:101B6C0006360736083614AEBEEF0DF0C0EF0DF09A
:101B7C00C1EF0DF0058014A0C6EF0DF0C8EF0DF00D
:101B8C00CCEF0DF0D8801436CEEF0DF0D890143683
:101B9C001350D8B4D4EF0DF0D6EF0DF0D7EF0DF005
:101BAC00130607AEDCEF0DF0DEEF0DF0B4EF0DF029
:101BBC00000E126E14AEE5EF0DF0E7EF0DF0FFEF37
:101BCC000DF014C00DF07F0E0D16D8B4F0EF0DF023
:101BDC00F2EF0DF0F6EF0DF0010E126EFFEF0DF0BF
:101BEC0005A0FBEF0DF0FDEF0DF0FFEF0DF0F2EFA8
:101BFC000DF01250D8B405EF0EF007EF0EF032EFE7
:101C0C000EF0010E0526000E06220722082208A05F
:101C1C0012EF0EF014EF0EF032EF0EF005C00DF0D7
:101C2C0006C00EF007C00FF008C010F010341032D0
:101C3C000F320E320D320DC005F00EC006F00FC083
:101C4C0007F010C008F01328D8B42FEF0EF031EFC6
:101C5C000EF032EF0EF0132A1328D8B438EF0EF032
:101C6C003AEF0EF042EF0EF01350D8A440EF0EF006
:101C7C0042EF0EF054EF0EF0000E056E000E066EE5
:101C8C00000E076E000E086E1350D8A450EF0EF025
:101C9C0052EF0EF054EF0EF0000E116E13A059EF30
:101CAC000EF05BEF0EF05EEF0EF0078E5FEF0EF0B6
:101CBC00079ED8901330086E11AE67EF0EF069EFE7
:101CCC000EF06AEF0EF0088E05C005F006C006F0A7
:101CDC0007C007F008C008F012000850800B116E06
:101CEC0008500824176E07AE7EEF0EF080EF0EF052
:101CFC0081EF0EF017801750D8B487EF0EF089EFF4
:101D0C000EF09CEF0EF01728D8A48FEF0EF091EF89
:101D1C000EF099EF0EF0000E056E000E066E000E22
:101D2C00076E000E086E078EA4EF0EF0000E056E07
:101D3C00000E066E000E076E000E086E0C50800B27
:101D4C00111A0C500C24126E0BAEAFEF0EF0B1EF5B
:101D5C000EF0B2EF0EF012801250D8B4B8EF0EF0B5
:101D6C00BAEF0EF0CDEF0EF01228D8A4C0EF0EF0A3
:101D7C00C2EF0EF0CAEF0EF0000E096E000E0A6EE6
:101D8C00000E0B6E000E0C6E0B8ED5EF0EF0000ECF
:101D9C00096E000E0A6E000E0B6E000E0C6E1250C9
:101DAC00D8B4DBEF0EF0DDEF0EF0E5EF0EF01750D0
:101DBC00D8A4E3EF0EF0E5EF0EF0EFEF0EF0000E0F
:101DCC00056E000E066E000E076E000E086E87EF95
:101DDC0010F00B500502F3CF1CF0F4CF1DF01C508B
:101DEC00136E146A156A166A1D50186E196A1A6AEF
:101DFC001B6A0A500602F3CF1CF0F4CF1DF01C50E6
:101E0C001326000E1422152216221D501826000E21
:101E1C0019221A221B2209500702F3CF1CF0F4CF0F
:101E2C001DF01C501326000E1422152216221D50D4
:101E3C001826000E19221A221B2215C016F014C0E7
:101E4C0015F013C014F0136A09500602F3CF1CF0FE
:101E5C00F4CF1DF01C5013261D501422000E152219
:101E6C00000E16220A500502F3CF1CF0F4CF1DF021
:101E7C001C5013261D501422000E1522000E162283
:101E8C0015C016F014C015F013C014F0136A0950E5
:101E9C000502F3CF1CF0F4CF1DF01C5013261D507F
:101EAC001422000E1522000E16220B500602F3CF40
:101EBC001CF0F4CF1DF01C5018261D501922000EDA
:101ECC001A22000E1B220A500702F3CF1CF0F4CF8B
:101EDC001DF01C5018261D501922000E1A22000E3F
:101EEC001B220B500702F3CF1CF0F4CF1DF01C503B
:101EFC000D6E1D500E6E0F6A106A0FC010F00EC0E2
:101F0C000FF00DC00EF00D6A0D5018260E50192250
:101F1C000F501A2210501B2213C00DF014C00EF0DB
:101F2C0015C00FF016C010F0190EA2EF0FF0D890DC
:101F3C0010320F320E320D32E82E9DEF0FF00D5095
:101F4C0018260E5019220F501A2210501B2215C0A1
:101F5C0016F014C015F013C014F0136A125017C009
:101F6C000DF00E6A0D26000E0E22820E0D241C6E34
:101F7C00FF0E0E201D6ED8EF0FF0D89018361936C4
:101F8C001A361B3616AECDEF0FF0CFEF0FF0D0EFA9
:101F9C000FF01880D89013361436153616361C06EA
:101FAC00D8A01D061AAEDDEF0FF0DFEF0FF0C3EF78
:101FBC000FF0000E126E16AEE6EF0FF0E8EF0FF01A
:101FCC000CEF10F0FF0E13140D6EFF0E14140E6EAA
:101FDC00FF0E15140F6E7F0E1614106E0D500E1092
:101FEC000F101010D8B4FDEF0FF0FFEF0FF003EF50
:101FFC0010F0010E126E0CEF10F018A008EF10F09C
:10200C000AEF10F00CEF10F0FFEF0FF01250D8B4F5
:10201C0012EF10F014EF10F038EF10F0010E18263C
:10202C00000E19221A221B221BA01FEF10F021EF09
:10203C0010F038EF10F018C00DF019C00EF01AC0E7
:10204C000FF01BC010F0103410320F320E320D3264
:10205C000DC018F00EC019F00FC01AF010C01BF014
:10206C001C4A1D2A1DBE43EF10F01D5008E11C2810
:10207C00D8A043EF10F045EF10F04FEF10F0000E2A
:10208C00186E000E196E800E1A6E7F0E1B6E7DEF91
:10209C0010F01DBE5CEF10F01D5006E11C04D8B012
:1020AC005AEF10F05CEF10F068EF10F0000E186EA5
:1020BC00000E196E000E1A6E000E1B6E000E116EC5
:1020CC007DEF10F01CC017F0FF0E1816FF0E19163E
:1020DC007F0E1A16000E1B1617A077EF10F079EF73
:1020EC0010F07AEF10F01A8ED89017301B6E11503A
:1020FC001B1218C005F019C006F01AC007F01BC05F
:10210C0008F012000850800B156E085008241C6E45
:10211C0007AE93EF10F095EF10F096EF10F01C80D7
:10212C001C50D8B49CEF10F09EEF10F0B3EF10F0F1
:10213C001C28D8A4A4EF10F0A6EF10F0AEEF10F00E
:10214C00000E056E000E066E000E076E000E086E79
:10215C00078E000E086EBBEF10F0000E056E000E21
:10216C00066E000E076E000E086E0C50800B151AD2
:10217C000C500C241D6E0BAEC6EF10F0C8EF10F017
:10218C00C9EF10F01D801D50D8B4CFEF10F0D1EF77
:10219C0010F0E6EF10F01D28D8A4D7EF10F0D9EF0F
:1021AC0010F0E1EF10F0000E096E000E0A6E000E3A
:1021BC000B6E000E0C6E0B8E000E0C6EEEEF10F014
:1021CC00000E096E000E0A6E000E0B6E000E0C6EE9
:1021DC0009500A100B100C10D8A4F7EF10F0F9EFFF
:1021EC0010F011EF11F0000E056E000E066E000ED1
:1021FC00076E000E086E800E07127F0E0812155027
:10220C00081205C005F006C006F007C007F008C0AC
:10221C0008F054EF12F01C50D8A417EF11F019EF7E
:10222C0011F023EF11F0000E056E000E066E000E7D
:10223C00076E000E086E54EF12F01D501CC00DF00E
:10224C000E6A0D5E000E0E5A7F0E0D24166E000ED9
:10225C000E20176E05C011F006C012F007C013F067
:10226C0008C014F0000E056E000E066E000E076E10
:10227C00000E086E000E186E000E196E000E1A6E0F
:10228C00000E1B6E000E1D6E84EF11F01D50D8B4A5
:10229C0052EF11F054EF11F06BEF11F0D8901136A2
:1022AC00123613361436D8900536063607360836ED
:1022BC001BAE63EF11F065EF11F066EF11F00580C6
:1022CC00D890183619361A361B360950115C0A503C
:1022DC0012580B5013580C501458D8A078EF11F01A
:1022EC007AEF11F083EF11F01B8C0950115E0A503C
:1022FC00125A0B50135A0C50145A1D2A190E1D64E5
:10230C008AEF11F08CEF11F04CEF11F0115012100C
:10231C0013101410D8B495EF11F097EF11F0AFEF34
:10232C0011F01880AFEF11F0D8900536063607364D
:10233C0008361BAEA4EF11F0A6EF11F0A7EF11F0C9
:10234C000580D890183619361A361B361606D8A0C2
:10235C00170607AEB4EF11F0B6EF11F09AEF11F0CB
:10236C00000E1D6E1BAEBDEF11F0BFEF11F0E3EFD1
:10237C0011F0FF0E18140D6EFF0E19140E6EFF0ED9
:10238C001A140F6E7F0E1B14106E0D500E100F10C2
:10239C001010D8B4D4EF11F0D6EF11F0DAEF11F031
:1023AC00010E1D6EE3EF11F005A0DFEF11F0E1EF70
:1023BC0011F0E3EF11F0D6EF11F01D50D8B4E9EFA6
:1023CC0011F0EBEF11F00FEF12F0010E0526000EDD
:1023DC0006220722082208A0F6EF11F0F8EF11F000
:1023EC000FEF12F005C00DF006C00EF007C00FF095
:1023FC0008C010F0103410320F320E320D320DC0F6
:10240C0005F00EC006F00FC007F010C008F0164A19
:10241C00172A17BE1AEF12F0175008E11628D8A089
:10242C001AEF12F01CEF12F027EF12F0000E176EDD
:10243C001668000E056E000E066E000E076E000E7E
:10244C00086E17BE34EF12F0175006E11604D8B020
:10245C0032EF12F034EF12F042EF12F0000E176E62
:10246C00000E166E000E056E000E066E000E076E48
:10247C00000E086E000E156E16C01CF01CA049EF65
:10248C0012F04BEF12F04EEF12F0078E4FEF12F0EE
:10249C00079ED8901C30086E05EF11F0120045C055
:1024AC00D9FF46C0DAFFDECFF6FFDDCFF7FF000E17
:1024BC00F86E0800F550250AD8A467EF12F069EF02
:1024CC0012F0C1EF13F045C0D9FF46C0DAFFDE2A87
:1024DC00000EDD22000E0001F06F000EEF6FEFC05A
:1024EC0056F0F169F26945C0D9FF46C0DAFFDECF7C
:1024FC0054F0DDCF55F054C0F6FF55C0F7FF000E79
:10250C00F86E0800F550640AD8B48FEF12F091EF12
:10251C0012F0A1EF12F054C0F6FF55C0F7FF000EF9
:10252C00F86E0800F550690AD8A49FEF12F0A1EFDD
:10253C0012F0E4EF12F047C0D9FF48C0DAFFDFCF4A
:10254C0049F0020EDE26DFCF4AF0000EDD2249C034
:10255C00D9FF4AC0DAFFDECF4BF0DDCF4CF0000ED6
:10256C004CBEFF0E4D6E4E6E4F6E506E516E526ED7
:10257C00010E5424496E000E55204A6E45C0D9FFF9
:10258C0046C0DAFF49C0DEFF4AC0DDFF43C020F081
:10259C0044C021F04BC022F04CC023F04DC024F0BD
:1025AC004EC025F04FC026F050C027F051C028F087
:1025BC0052C029F0D8EC13F0D7EF13F045C0D9FF77
:1025CC0046C0DAFFDECF54F0DDCF55F054C0F6FF35
:1025DC0055C0F7FF000EF86E0800F5CF53F003EF6F
:1025EC0013F0544A552A1CEF13F06C0E536E1CEF6B
:1025FC0013F0000E536E1CEF13F05350496E4A6AE1
:10260C004A50000AD8B40DEF13F0FFEF12F0495006
:10261C004C0AD8B4F7EF12F02A0AD8B4FBEF12F038
:10262C000A0AD8B4F7EF12F0FFEF12F054C0F6FF1D
:10263C0055C0F7FF000EF86E0800F550660AD8A4D6
:10264C002AEF13F02CEF13F0B8EF13F062EF13F046
:10265C0047C0D9FF48C0DAFFDFCF49F0040EDE26B1
:10266C00DFCF4AF0000EDD2249C0D9FF4AC0DAFFA5
:10267C00DECF4BF0DECF4CF0DECF4DF0DECF4EF0A8
:10268C0077EF13F047C0D9FF48C0DAFFDFCF49F02E
:10269C00040EDE26DFCF4AF0000EDD2249C0D9FF42
:1026AC004AC0DAFFDECF4BF0DECF4CF0DECF4DF080
:1026BC00DECF4EF077EF13F05350496E4A6A4A5012
:1026CC00000AD8B46CEF13F077EF13F049504C0AB2
:1026DC00D8B448EF13F0200AD8B42EEF13F077EFEC
:1026EC0013F0010E5424496E000E55204A6E45C05D
:1026FC00D9FF46C0DAFF49C0DEFF4AC0DDFFA0EFBC
:10270C0013F043C032F044C033F04BC034F04CC033
:10271C0035F04DC036F04EC037F054C0F6FF55C002
:10272C00F7FF000EF86E0800F5CF38F016EC07F046
:10273C00D7EF13F054C0F6FF55C0F7FF000EF86E3C
:10274C000800F550496E4A6A4A50000AD8B4B1EFF5
:10275C0013F0B8EF13F04950660AD8B487EF13F0B2
:10276C00B8EF13F045C0D9FF46C0DAFFDE2A000EE1
:10277C00DD22D7EF13F045C0D9FF46C0DAFFDECF1C
:10278C00F6FFDDCFF7FF000EF86E0800F550056E72
:10279C00066A43C007F044C008F020EC1BF0B8EF09
:1027AC0013F0120022C038F023C039F024C03AF0E4
:1027BC0025C03BF026C03CF027C03DF028C03EF0C1
:1027CC0029C03FF03FBEEDEF13F0F0EF13F0010E18
:1027DC00F1EF13F0000E406E4050D8B4F8EF13F048
:1027EC00FAEF13F00AEF14F03F1E3E1E3D1E3C1E86
:1027FC003B1E3A1E391E386C000E39223A223B22FF
:10280C003C223D223E223F220001F2BF18EF14F081
:10281C00F25106E1F105D8B016EF14F018EF14F0F0
:10282C001EEF14F0000E356E010E346E22EF14F014
:10283C00F1C034F0F2C035F0EFC036F0F0C037F034
:10284C004050D8B42CEF14F02EEF14F045EF14F0E8
:10285C003606D8A037064050D8A437EF14F039EF1D
:10286C0014F03FEF14F0000E336E2B0E326E43EF6C
:10287C0014F0000E336E2D0E326E32C040F0000E8E
:10288C00426E4F0E416E000E01019F6FCAEF14F0A5
:10289C004106D8A04206500E4124D96E010E4220AA
:1028AC00DA6E38C005F039C006F03AC007F03BC00C
:1028BC0008F03CC009F03DC00AF03EC00BF03FC030
:1028CC000CF00A0E0D6E000E0E6E000E0F6E000E4A
:1028DC00106E000E116E000E126E000E136E000EB6
:1028EC00146E83EC18F005C02AF006C02BF007C05C
:1028FC002CF008C02DF009C02EF00AC02FF00BC030
:10290C0030F00CC031F02AC017F02BC018F01CECC2
:10291C001EF01750300FDF6E3406D8A03506360681
:10292C00D8A0370638C005F039C006F03AC007F019
:10293C003BC008F03CC009F03DC00AF03EC00BF0B3
:10294C003FC00CF00A0E0D6E000E0E6E000E0F6ED8
:10295C00000E106E000E116E000E126E000E136E35
:10296C00000E146EBFEC17F005C038F006C039F03D
:10297C0007C03AF008C03BF009C03CF00AC03DF07B
:10298C000BC03EF00CC03FF042BED5EF14F04250ED
:10299C0008E14104D8A0D5EF14F0D7EF14F0F3EF11
:1029AC0014F0385039103A103B103C103D103E10CA
:1029BC003F10D8A4E4EF14F0E6EF14F04EEF14F04F
:1029CC0035BEF3EF14F0355006E13404D8B0F1EF16
:1029DC0014F0F3EF14F04EEF14F04050D8B4F9EFBC
:1029EC0014F0FBEF14F006EF15F04106D8A04206E8
:1029FC00500E4124D96E010E4220DA6E40C0DFFF2A
:102A0C0020C015F021C016F0500E4124176E010E97
:102A1C004220186E36C019F037C01AF0DAEC1BF0F1
:102A2C001200E7C02EF0E8C02FF0E9C030F0EAC089
:102A3C0031F01EC02EF01FC02FF020C030F021C08E
:102A4C0031F0810E226EFF0E236E2EC024F02FC0AB
:102A5C0025F030C026F031C027F0180E3BEF15F0F2
:102A6C00D8902732263225322432E82E36EF15F054
:102A7C00245022242C6E000E23202D6E2DBE50EFE0
:102A8C0015F02D5009E1170E2C5CD8A050EF15F065
:102A9C0052EF15F05CEF15F01EC01EF01FC01FF0BA
:102AAC0020C020F021C021F01FEF16F02DBE61EFE9
:102ABC0015F063EF15F0D3EF15F02CC022F0FF0EDC
:102ACC00236EFF0E246E7F0E256E000E266E226680
:102ADC0072EF15F07AEF15F02634263225322432B7
:102AEC002332222E6DEF15F023C028F024C029F0DC
:102AFC0025C02AF026C02BF028502E14226E295007
:102B0C002F14236E2A503014246E2B503114256E42
:102B1C002250231024102510D8A497EF15F099EF0C
:102B2C0015F09BEF15F052EF15F02EC022F02FC0D0
:102B3C0023F030C024F031C025F0200EABEF15F09F
:102B4C00D8902532243223322232E82EA6EF15F00B
:102B5C002250231024102510D8B4B7EF15F0B9EF7C
:102B6C0015F0C1EF15F028502E2629502F222A508F
:102B7C0030222B503122281C226E291C236E2A1C39
:102B8C00246E2B1C256E22502E1623502F162450EB
:102B9C0030162550311617EF16F02EC022F02FC02C
:102BAC0023F030C024F031C025F0200EE3EF15F0F7
:102BBC00D8902532243223322232E82EDEEF15F063
:102BCC002250231024102510D8A4EFEF15F0F1EFAC
:102BDC0015F0FBEF15F0000E2E6E000E2F6E000E92
:102BEC00306E000E316E17EF16F0D8902E34226E28
:102BFC002F34236E3034246E3134256E2250231042
:102C0C0024102510D8B40DEF16F00FEF16F017EFB7
:102C1C0016F0000E2E6E000E2F6E800E306EBF0E54
:102C2C00316E2EC01EF02FC01FF030C020F031C00E
:102C3C0021F012000D6E0D50D8B427EF16F029EFCD
:102C4C0016F04BEF16F008BE30EF16F02EEF16F024
:102C5C004BEF16F005C009F006C00AF007C00BF0E8
:102C6C0008C00CF0091E0A1E0B1E0C1E092A000EB1
:102C7C000A220B220C2209C00FF00AC010F00BC064
:102C8C0011F00CC012F053EF16F005C00FF006C097
:102C9C0010F007C011F008C012F005500610071014
:102CAC000810D8A45CEF16F05EEF16F068EF16F083
:102CBC00000E056E000E066E000E076E000E086EFE
:102CCC00F9EF16F0960E0E6E72EF16F00E2AD890E3
:102CDC001232113210320F32000E0F14096E000E28
:102CEC0010140A6E000E11140B6EFE0E12140C6EE4
:102CFC0009500A100B100C10D8A487EF16F089EFAE
:102D0C0016F06CEF16F097EF16F00E2A010E0F2648
:102D1C00000E102211221222D890123211321032CF
:102D2C000F32000E0F14096E000E10140A6E000EF6
:102D3C0011140B6EFF0E12140C6E09500A100B10AE
:102D4C000C10D8A4ACEF16F0AEEF16F08BEF16F01B
:102D5C00B6EF16F00E06D8900F3610361136123626
:102D6C0011BEBBEF16F0BDEF16F0C5EF16F0020E5C
:102D7C000E60C3EF16F0C5EF16F0B0EF16F00EB004
:102D8C00CAEF16F0CCEF16F0CDEF16F0119ED890DE
:102D9C000E320EC009F00A6A0B6A0C6A09C00CF0FC
:102DAC000B6A0A6A096A09500F120A5010120B506A
:102DBC0011120C5012120D50D8B4E7EF16F0E9EFC7
:102DCC0016F0F1EF16F008BEF0EF16F0EEEF16F07D
:102DDC00F1EF16F0128E0FC005F010C006F011C006
:102DEC0007F012C008F012001EC0D9FF1FC0DAFF96
:102DFC00DECF05F0DDCF06F0000E06BEFF0E076E2F
:102E0C00086E010E20EC16F005C022F006C023F06F
:102E1C0007C024F008C025F020EE02F01E50D92681
:102E2C001F50DA22DECF05F0DDCF06F0000E06BE15
:102E3C00FF0E076E086E010E20EC16F005C026F092
:102E4C0006C027F007C028F008C029F020EE04F0D7
:102E5C001E50D9261F50DA22DECF05F0DDCF06F04A
:102E6C00000E06BEFF0E076E086E010E20EC16F06B
:102E7C0005C02AF006C02BF007C02CF008C02DF0BE
:102E8C0020EE06F01E50D9261F50DA22DECF05F0B8
:102E9C00DDCF06F0000E06BEFF0E076E086E010EAB
:102EAC0020EC16F005C02EF006C02FF007C030F055
:102EBC0008C031F022C005F023C006F024C007F092
:102ECC0025C008F02EC009F02FC00AF030C00BF05E
:102EDC0031C00CF088EC10F020C0D9FF21C0DAFF13
:102EEC0005C0DEFF06C0DEFF07C0DEFF08C0DEFF48
:102EFC002AC005F02BC006F02CC007F02DC008F03E
:102F0C002EC009F02FC00AF030C00BF031C00CF00D
:102F1C0088EC10F020EE08F02050D9262150DA224F
:102F2C0005C0DEFF06C0DEFF07C0DEFF08C0DEFF07
:102F3C0026C005F027C006F028C007F029C008F00D
:102F4C002EC009F02FC00AF030C00BF031C00CF0CD
:102F5C0088EC10F020EE04F02050D9262150DA2213
:102F6C0005C0DEFF06C0DEFF07C0DEFF08C0DEFFC7
:102F7C001200000E166E14BEC8EF17F0C6EF17F055
:102F8C00DAEF17F0141E131E121E111E101E0F1E48
:102F9C000E1E0D6C000E0E220F2210221122122278
:102FAC0013221422010E166E0CBEE1EF17F0DFEFA8
:102FBC0017F0F3EF17F00C1E0B1E0A1E091E081E4D
:102FCC00071E061E056C000E062207220822092287
:102FDC000A220B220C22010E161A20EE17F0070EF5
:102FEC00DE6AE806FDE20D500E100F1010101110E5
:102FFC00121013101410D8B406EF18F008EF18F0D4
:10300C005AEF18F0010E156E16EF18F0D8900D3619
:10301C000E360F3610361136123613361436152A74
:10302C0014AE1BEF18F01DEF18F00CEF18F0D89041
:10303C001736183619361A361B361C361D361E3600
:10304C000D50055C0E5006580F500758105008587C
:10305C001150095812500A5813500B5814500C5850
:10306C00D8A03BEF18F03DEF18F04EEF18F00D50D4
:10307C00055E0E50065A0F50075A1050085A115040
:10308C00095A12500A5A13500B5A14500C5A1780E2
:10309C00D890143213321232113210320F320E32E7
:1030AC000D32152E1DEF18F01650D8B460EF18F035
:1030BC0062EF18F072EF18F01E1E1D1E1C1E1B1E58
:1030CC001A1E191E181E176C000E182219221A220D
:1030DC001B221C221D221E2217C005F018C006F050
:1030EC0019C007F01AC008F01BC009F01CC00AF088
:1030FC001DC00BF01EC00CF01200000E166E0CBEA4
:10310C008CEF18F08AEF18F09EEF18F00C1E0B1EC7
:10311C000A1E091E081E071E061E056C000E06223E
:10312C000722082209220A220B220C22010E166EFB
:10313C0014BEA5EF18F0A3EF18F0B5EF18F0141E9D
:10314C00131E121E111E101E0F1E0E1E0D6C000ED5
:10315C000E220F22102211221222132214220D50A1
:10316C000E100F1010101110121013101410D8B4E0
:10317C00C2EF18F0C4EF18F00CEF19F0010E156E39
:10318C00D2EF18F0D8900D360E360F3610361136A9
:10319C00123613361436152A14AED7EF18F0D9EFB1
:1031AC0018F0C8EF18F00D50055C0E5006580F5073
:1031BC000758105008581150095812500A581350FB
:1031CC000B5814500C58D8A0EEEF18F0F0EF18F084
:1031DC0000EF19F00D50055E0E50065A0F50075AAD
:1031EC001050085A1150095A12500A5A13500B5ABF
:1031FC0014500C5AD890143213321232113210323D
:10320C000F320E320D32152ED9EF18F01650D8B4ED
:10321C0012EF19F014EF19F024EF19F00C1E0B1E1D
:10322C000A1E091E081E071E061E056C000E06222D
:10323C000722082209220A220B220C2205C005F0C3
:10324C0006C006F007C007F008C008F009C009F076
:10325C000AC00AF00BC00BF00CC00CF012000734C3
:10326C0008340E6E0E50D8A43EEF19F040EF19F052
:10327C004AEF19F0000E056E000E066E000E076E7A
:10328C00000E086EB7EF19F005C009F006C00AF081
:10329C0007C00BF008C00CF0200E5AEF19F0D890B4
:1032AC000C320B320A320932E82E55EF19F0095064
:1032BC000D6E078EFF0E0516FF0E0616FF0E071677
:1032CC00000E0816960E0E5E0EBE71EF19F06FEF23
:1032DC0019F087EF19F00E50800A970FD8B079EFDC
:1032EC0019F07BEF19F07DEF19F040EF19F0D89041
:1032FC0008320732063205320E3E7DEF19F09FEF91
:10330C0019F01F0E0E648DEF19F08FEF19F097EF77
:10331C0019F040EF19F0D890053606360736083606
:10332C000E060E50D8A49DEF19F09FEF19F091EFF7
:10333C0019F00D50D8B4A5EF19F0A7EF19F0AFEFB5
:10334C0019F0081E071E061E056C000E0622072229
:10335C00082205C005F006C006F007C007F008C03B
:10336C0008F01200000E1E14266E000E1F14276E9D
:10337C00800E2014286E7F0E2114296E26502710E3
:10338C0028102910D8A4CDEF19F0CFEF19F0D7EFF2
:10339C0019F0000E1E6E000E1F6E000E206E000E39
:1033AC00216E000E2214266E000E2314276E800E42
:1033BC002414286E7F0E2514296E265027102810F1
:1033CC002910D8A4ECEF19F0EEEF19F0F6EF19F084
:1033DC00000E226E000E236E000E246E000E256E63
:1033EC0021AEFBEF19F0FDEF19F006EF1AF01E6C91
:1033FC001F1ED8B01F2A201ED8B0202A800E21569E
:10340C0025AE0BEF1AF00DEF1AF016EF1AF0226C36
:10341C00231ED8B0232A241ED8B0242A800E255669
:10342C00000E1E1A000E1F1A000E201A800E211AF2
:10343C00000E221A000E231A000E241A800E251AD2
:10344C0022501E5C23501F582450205825502158C0
:10345C00D8B033EF1AF035EF1AF038EF1AF0D890E5
:10346C0039EF1AF0D8801200EBC00FF0ECC010F05E
:10347C00EDC011F0EEC012F005C00FF006C010F058
:10348C0007C011F008C012F00FC009F010C00AF00C
:10349C0011C00BF012C00CF0180E5AEF1AF0D890A5
:1034AC000C320B320A320932E82E55EF1AF0095061
:1034BC000D6E0E6A0D500E10D8A467EF1AF069EF5E
:1034CC001AF089EF1AF0D8900F34096E10340A6E86
:1034DC0011340B6E12340C6E09500A100B100C10B8
:1034EC00D8A47BEF1AF07DEF1AF083EF1AF0000EE0
:1034FC00066E020E056EB8EF1AF0000E066E030E85
:10350C00056EB8EF1AF00D280E10D8A490EF1AF033
:10351C0092EF1AF0B4EF1AF00FC009F010C00AF0D5
:10352C0011C00BF012C00CF0090ED89009360A36F7
:10353C000B360C36E82E9BEF1AF009500A100B10C4
:10354C000C10D8B4ACEF1AF0AFEF1AF0010EB0EFCC
:10355C001AF0000E056E066AB8EF1AF0000E066E31
:10356C00040E056E120037EC1FF052EC1FF077ECD6
:10357C001EF0D4EC1EF087927F8281987988090E18
:10358C000001B46F1E0EB36FE40EE82EFED7B32FFE
:10359C00FCD7B42FFAD700F0F30E106E000E116E9C
:1035AC004AEC1CF0F30E1E6E000E1F6EA00E206E69
:1035BC00010E216EFAEC16F0B50E0001946F000EA0
:1035CC00956F010E966F0E0E976FA0C198F0A1C16A
:1035DC0099F0A2C19AF0A3C19BF0A4C19CF0A5C123
:1035EC009DF0A6C19EF0A7C19FF0A8C1A0F0A9C1F3
:1035FC00A1F0AAC1A2F0ABC1A3F0F9C0A4F0FAC02B
:10360C00A5F0A3EC1CF0B50E066E000E076E91EC47
:10361C001EF013EF1BF0BFEC1EF00001FB51D8A401
:10362C001AEF1BF01CEF1BF011EF1BF0D2EF1AF08E
:10363C0025EF00F007500810D8B427EF1BF029EF46
:10364C001BF032EF1BF007500810D8A430EF1BF022
:10365C0032EF1BF037EF1BF005506EEC1FF084EFD0
:10366C001BF020EE09F00750D9260850DA22DE5064
:10367C00DE10D8B444EF1BF046EF1BF061EF1BF0EB
:10368C0020EE09F00750D9260850DA2210EE03F08C
:10369C000750E1260850E222DE50E65CE650800A34
:1036AC000D6EDE50800A0D58D8B05FEF1BF061EF45
:1036BC001BF084EF1BF020EE03F00750D9260850C6
:1036CC00DA22DECF09F0DDCF0AF007C0D9FF08C03F
:1036DC00DAFFDECF0BF0DDCF0CF009500B24D96EE6
:1036EC000A500C20DA6E05C0DFFF20EE03F0075005
:1036FC00D9260850DA22DE2A000EDD221200000E36
:10370C0005140D6E000E06140E6E800E07140F6E4F
:10371C007F0E0814106E0D500E100F101010D8A440
:10372C009AEF1BF09CEF1BF0A4EF1BF0000E056E44
:10373C00000E066E000E076E000E086E000E0914C9
:10374C000D6E000E0A140E6E800E0B140F6E7F0E93
:10375C000C14106E0D500E100F101010D8A4B9EFE1
:10376C001BF0BBEF1BF0C3EF1BF0000E096E000E3D
:10377C000A6E000E0B6E000E0C6E095005180FE150
:10378C000A5006180CE10B50071809E10C500818E8
:10379C00D8B4D3EF1BF0D5EF1BF0D8EF1BF0D890BB
:1037AC00D9EF1BF0D88012001ABEDFEF1BF0E1EF4F
:1037BC001BF0E7EF1BF019C01EF01AC01FF0EBEF67
:1037CC001BF0000E1F6E000E1E6E000E1D6E000E06
:1037DC001C6EFDEF1BF0000E066E200E056E15C064
:1037EC0007F016C008F020EC1BF01C4A1D2A1E50D6
:1037FC001C5C1D50800A1B6E1F50800A1B58D8A0E1
:10380C000AEF1CF00CEF1CF0F1EF1BF017C00EF0E0
:10381C0018C00FF015C010F016C011F0D9EC1DF047
:10382C00120008BE26EF1CF008500710061006E127
:10383C000504D8B024EF1CF026EF1CF041EF1CF06F
:10384C0005C009F006C00AF007C00BF008C00CF068
:10385C00091E0A1E0B1E0C1E092A000E0A220B2220
:10386C000C2209C005F00AC006F00BC007F00CC012
:10387C0008F049EF1CF005C005F006C006F007C0C3
:10388C0007F008C008F012001CEC1DF010C0D9FFA6
:10389C0011C0DAFF09C0DEFF0AC0DDFF6CEC1DF0C1
:1038AC0020EE04F01050D9261150DA2209C0DEFFA8
:1038BC000AC0DDFF44EC1DF020EE02F01050D926BA
:1038CC001150DA2209C0DEFF0AC0DDFFF4EC1CF057
:1038DC0020EE06F01050D9261150DA2209C0DEFF76
:1038EC000AC0DDFF12008EC092F08FC093F08DEFF6
:1038FC001CF08CC043F08DC044F0920E456E000E4F
:10390C00466E90C047F091C048F055EC12F092C052
:10391C00F6FF93C0F7FF000EF86E0800F550000993
:10392C00D8A49BEF1CF09DEF1CF07FEF1CF0000E59
:10393C0000018D6F000E8C6F1200980E0001A66FA7
:10394C00000EA76F94C0A8F095C0A9F0000EAC6F44
:10395C00000EAB6F000EB26F000EB16FA80E8C6F25
:10396C00000E8D6F96C08EF097C08FF0A60E906FE4
:10397C00000E916F79EC1CF00001AB519425D96EBF
:10398C00AC519521DA6E000EDF6E120007C00EF0FE
:10399C0008C00FF005C00CF006C00DF0E6EF1CF0EF
:1039AC000EC0D9FF0FC0DAFFDF500B6E0E4A0F2A84
:1039BC000CC0D9FF0DC0DAFF0BC0DFFF0C4A0D2A7B
:1039CC000906D8A00A06092806E10A28D8A4F1EFAE
:1039DC001CF0F3EF1CF0D6EF1CF0120069EC1FF09A
:1039EC00520E59EC1FF0B40E59EC1FF05FEC1FF0A7
:1039FC00530E59EC1FF0010EFBEC1DF00B6E0B502F
:103A0C000E6E0F6A000EFBEC1DF00B6E0B500D6E64
:103A1C000C6A0E500C100E6E0F500D100F6E64ECE5
:103A2C001FF00EC009F00FC00AF0120069EC1FF075
:103A3C00520E59EC1FF0B60E59EC1FF05FEC1FF054
:103A4C00530E59EC1FF0010EFBEC1DF00B6E0B50DE
:103A5C000E6E0F6A000EFBEC1DF00B6E0B500D6E14
:103A6C000C6A0E500C100E6E0F500D100F6E64EC95
:103A7C001FF00EC009F00FC00AF0120069EC1FF025
:103A8C00520E59EC1FF0B60E59EC1FF05FEC1FF004
:103A9C00530E59EC1FF0010EFBEC1DF00B6E0B508E
:103AAC000E6E0F6A000EFBEC1DF00B6E0B500D6EC4
:103ABC000C6A0E500C100E6E0F500D100F6E64EC45
:103ACC001FF00EC009F00FC00AF0120069EC1FF0D5
:103ADC00520E59EC1FF0BA0E59EC1FF05FEC1FF0B0
:103AEC00530E59EC1FF0010EFBEC1DF00B6E0B503E
:103AFC000E6E0F6A000EFBEC1DF00B6E0B500D6E74
:103B0C000C6A0E500C100E6E0F500D100F6E64ECF4
:103B1C001FF00EC009F00FC00AF01200000E221A9E
:103B2C00000E231A000E241A800E251A1EC005F052
:103B3C001FC006F020C007F021C008F022C009F019
:103B4C0023C00AF024C00BF025C00CF013EC0CF0D1
:103B5C0005C01EF006C01FF007C020F008C021F001
:103B6C00120007C009F008C00AF005C00BF006C02F
:103B7C000CF009C0F6FF0AC0F7FF094A0A2A000E2A
:103B8C00F86E0BC0D9FF0CC0DAFF0B4A0C2A0800E8
:103B9C00F5CFDFFFDF50D8A4D6EF1DF0D8EF1DF026
:103BAC00BFEF1DF01200000E146E000E136EEAEF44
:103BBC001DF012C005F0066A10C007F011C008F025
:103BCC0020EC1BF0134A142A13500E24D96E1450F7
:103BDC000F20DA6EDF50126E1250D8A4F8EF1DF0E1
:103BEC00FAEF1DF0DFEF1DF01200076E13EC1FF063
:103BFC000E01DA8713EC1FF0D5CE08F013EC1FF092
:103C0C000750D8B40CEF1EF010EF1EF0066A062A0F
:103C1C0011EF1EF0066A063A06460E01DA51061836
:103C2C00DF0B0618DA6FDA890850120018BE29EF7C
:103C3C001EF0185006E11704D8B027EF1EF029EF3C
:103C4C001EF037EF1EF017C019F018C01AF0191E2D
:103C5C001A1E194A1A2A19C017F01AC018F03BEF8D
:103C6C001EF017C017F018C018F01200DE0EF66E1A
:103C7C003E0EF76E000EF86E0900F5CFFBF001EE6C
:103C8C0000F0B00EEE6AE806FDE100EEE7F0140E6F
:103C9C00EE6AE806FDE15A6A596A586A576A566A2A
:103CAC005B905B920001B9EF1AF0055006100710FB
:103CBC000810D8B464EF1EF066EF1EF06EEF1EF025
:103CCC00000E051A000E061A000E071A800E081AAE
:103CDC0005C005F006C006F007C007F008C008F0E4
:103CEC001200D4EC1EF0010E076E000E27EC1FF034
:103CFC003F0E096E550EE82EFED7092EFCD700F0AC
:103D0C00030E076E000E27EC1FF0D50E076E010E8A
:103D1C0027EC1FF012009CEF1EF006C0D9FF07C065
:103D2C00DAFFDF50E9EC1EF0064A072A06C0D9FF7D
:103D3C0007C0DAFFDF50D8A4A6EF1EF0A8EF1EF0E4
:103D4C0093EF1EF012003B0E5764AFEF1EF0B1EF75
:103D5C001EF0B3EF1EF0000E576E572A5704016E7B
:103D6C00026A000E0124D96E010E0220DA6EDF50B9
:103D7C00120046EC1FF00009D8B4C7EF1EF0C9EFD3
:103D8C001EF0D0EF1EF00E012D85010E0001FB6F11
:103D9C00D3EF1EF0000E0001FB6F12000E01D95183
:103DAC00F00B0809D96FD98B9F0ED66F848A848C3F
:103DBC00A79BA79D1D0E1D6F1E0E1C6F1C0E6F6FFB
:103DCC001B0E706F1200056E3B0E5864F0EF1EF068
:103DDC00F2EF1EF0F4EF1EF0000E586E000E582499
:103DEC00D96EDA6A010EDA2205C0DFFF582A1200FA
:103DFC00016E130E5A6405EF1FF007EF1FF009EF69
:103E0C001FF0000E5A6E3C0E5A24D96EDA6A010E5F
:103E1C00DA2201C0DFFF5A2A12000E01D8B519EFC1
:103E2C001FF01BEF1FF013EF1FF0DACE05F01F0E83
:103E3C000516D8A424EF1FF026EF1FF013EF1FF088
:103E4C001200086E69EC1FF0520E59EC1FF008506E
:103E5C00800959EC1FF0075059EC1FF064EC1FF06F
:103E6C001200120E0E01626F110E156FE997E89594
:103E7C00330EE56F000EE66FE789E88BE78F1200D3
:103E8C0057505818D8A44DEF1FF050EF1FF0010EEB
:103E9C0051EF1FF0000E1200F29A0E012B81F28CE2
:103EAC00F28E2D871200066E13EC1FF006C0D5FEA5
:103EBC00120013EC1FF00E01DA83120013EC1FF04A
:103ECC000E01DA85120013EC1FF00E01DA811200DC
:033EDC00120001D0
:020000040020DA
:10000000FF0FFF0FFF0FFF0FFF0FFF0FFF0FFF0F80
:020000040030CA
:0C000000AAFFFFFF9FFFFFFFFFFFFFFFB5
:00000001FF
