:0400000025EF00F0F8
:100008005B82D9CF03F0DACF04F00E0137A50FEFEA
:1000180000F011EF00F015EF00F026EC0DF00E01E6
:10002800E46F37A71AEF00F01CEF00F01FEF00F0A5
:10003800E3517BEC0DF004C0DAFF03C0D9FF5B92FB
:0600480011006FEF0CF047
:100E0000007265643D256420677265656E3D2564EA
:100E100020626C75653D2564206C756D3D25640D03
:030E20000A0000C5
:100E240022C038F023C039F024C03AF025C03BF08A
:100E340026C03CF027C03DF028C03EF029C03FF05A
:100E44003FBE27EF07F02AEF07F0010E2BEF07F064
:100E5400000E406E4050D8B432EF07F034EF07F084
:100E640044EF07F03F1E3E1E3D1E3C1E3B1E3A1E35
:100E7400391E386C000E39223A223B223C223D2294
:100E84003E223F220001C8BF52EF07F0C85106E1DD
:100E9400C705D8B050EF07F052EF07F058EF07F04E
:100EA400000E356E010E346E5CEF07F0C7C034F0EF
:100EB400C8C035F0C5C036F0C6C037F04050D8B40D
:100EC40066EF07F068EF07F07FEF07F03606D8A06B
:100ED40037064050D8A471EF07F073EF07F079EFAD
:100EE40007F0000E336E2B0E326E7DEF07F0000E0E
:100EF400336E2D0E326E32C040F0000E426E1F0E65
:100F0400416E000EE96F03EF08F04106D8A04206D7
:100F1400CA0E4124D96E000E4220DA6E38C005F0A4
:100F240039C006F03AC007F03BC008F03CC009F0F5
:100F34003DC00AF03EC00BF03FC00CF00A0E0D6E2F
:100F4400000E0E6E000E0F6E000E106E000E116E6F
:100F5400000E126E000E136E000E146E14EC09F0E7
:100F640005C02AF006C02BF007C02CF008C02DF0F5
:100F740009C02EF00AC02FF00BC030F00CC031F0C5
:100F84002AC017F02BC018F0D4EC0CF01750300F17
:100F9400DF6E3406D8A035063606D8A0370638C02A
:100FA40005F039C006F03AC007F03BC008F03CC079
:100FB40009F03DC00AF03EC00BF03FC00CF00A0E31
:100FC4000D6E000E0E6E000E0F6E000E106E000EF3
:100FD400116E000E126E000E136E000E146E50ECA5
:100FE40008F005C038F006C039F007C03AF008C070
:100FF4003BF009C03CF00AC03DF00BC03EF00CC011
:101004003FF042BE0EEF08F0425008E14104D8A080
:101014000EEF08F010EF08F02CEF08F038503910FC
:101024003A103B103C103D103E103F10D8A41DEF69
:1010340008F01FEF08F087EF07F035BE2CEF08F03B
:10104400355006E13404D8B02AEF08F02CEF08F04C
:1010540087EF07F04050D8B432EF08F034EF08F0CF
:101064003FEF08F04106D8A04206CA0E4124D96ECB
:10107400000E4220DA6E40C0DFFF20C015F021C010
:1010840016F0CA0E4124176E000E4220186E36C0A8
:1010940019F037C01AF012EC0BF01200000E166EA5
:1010A40014BE59EF08F057EF08F06BEF08F0141E68
:1010B400131E121E111E101E0F1E0E1E0D6C000E8E
:1010C4000E220F2210221122122213221422010EA8
:1010D400166E0CBE72EF08F070EF08F084EF08F0A3
:1010E4000C1E0B1E0A1E091E081E071E061E056C7A
:1010F400000E06220722082209220A220B220C22B1
:10110400010E161A20EE17F0070EDE6AE806FDE25D
:101114000D500E100F101010111012101310141087
:10112400D8B497EF08F099EF08F0EBEF08F0010E50
:10113400156EA7EF08F0D8900D360E360F36103620
:101144001136123613361436152A14AEACEF08F0E5
:10115400AEEF08F09DEF08F0D89017361836193620
:101164001A361B361C361D361E360D50055C0E50C5
:1011740006580F500758105008581150095812506B
:101184000A5813500B5814500C58D8A0CCEF08F040
:10119400CEEF08F0DFEF08F00D50055E0E50065A52
:1011A4000F50075A1050085A1150095A12500A5A2F
:1011B40013500B5A14500C5A1780D890143213320F
:1011C4001232113210320F320E320D32152EAEEFB2
:1011D40008F01650D8B4F1EF08F0F3EF08F003EF7D
:1011E40009F01E1E1D1E1C1E1B1E1A1E191E181E73
:1011F400176C000E182219221A221B221C221D22EF
:101204001E2217C005F018C006F019C007F01AC056
:1012140008F01BC009F01CC00AF01DC00BF01EC072
:101224000CF01200000E166E0CBE1DEF09F01BEF41
:1012340009F02FEF09F00C1E0B1E0A1E091E081ED2
:10124400071E061E056C000E06220722082209222C
:101254000A220B220C22010E166E14BE36EF09F080
:1012640034EF09F046EF09F0141E131E121E111E6E
:10127400101E0F1E0E1E0D6C000E0E220F221022C9
:1012840011221222132214220D500E100F101010CE
:101294001110121013101410D8B453EF09F055EFB5
:1012A40009F09DEF09F0010E156E63EF09F0D89077
:1012B4000D360E360F3610361136123613361436F6
:1012C400152A14AE68EF09F06AEF09F059EF09F036
:1012D4000D50055C0E5006580F5007581050085812
:1012E4001150095812500A5813500B5814500C58E6
:1012F400D8A07FEF09F081EF09F091EF09F00D50CC
:10130400055E0E50065A0F50075A1050085A1150D5
:10131400095A12500A5A13500B5A14500C5AD890A6
:10132400143213321232113210320F320E320D32A5
:10133400152E6AEF09F01650D8B4A3EF09F0A5EF03
:1013440009F0B5EF09F00C1E0B1E0A1E091E081E3B
:10135400071E061E056C000E06220722082209221B
:101364000A220B220C2205C005F006C006F007C0B5
:1013740007F008C008F009C009F00AC00AF00BC061
:101384000BF00CC00CF0120045C0D9FF46C0DAFFC8
:10139400DECFF6FFDDCFF7FF0800F550250AD8A40D
:1013A400D6EF09F0D8EF09F058EF0AF045C0D9FF9D
:1013B40046C0DAFFDE2A000EDD22000E0001C66FF1
:1013C400000EC56FC5C0C9F0C769C86945C0D9FF5B
:1013D40046C0DAFFDECF53F0DDCF54F053C0F6FF42
:1013E40054C0F7FF0800F550640AD8B4FCEF09F0C4
:1013F400FEEF09F00CEF0AF053C0F6FF54C0F7FFFC
:101404000800F550690AD8A40AEF0AF00CEF0AF0B4
:101414004FEF0AF047C0D9FF48C0DAFFDFCF49F0E9
:10142400020EDE26DFCF4AF0000EDD2249C0D9FFCE
:101434004AC0DAFFDECF4BF0DDCF4CF0000E4CBEDD
:10144400FF0E4D6E4E6E4F6E506E516E526E010E0B
:101454005324496E000E54204A6E45C0D9FF46C03D
:10146400DAFF49C0DEFF4AC0DDFF43C020F044C0BC
:1014740021F04BC022F04CC023F04DC024F04EC0EC
:1014840025F04FC026F050C027F051C028F052C0BC
:1014940029F012EC07F06CEF0AF045C0D9FF46C002
:1014A400DAFFDE2A000EDD226CEF0AF045C0D9FF18
:1014B40046C0DAFFDECFF6FFDDCFF7FF0800F550B8
:1014C400056E066A43C007F044C008F06DEC0AF0EC
:1014D4004FEF0AF0120007500810D8B474EF0AF066
:1014E40076EF0AF07FEF0AF007500810D8A47DEFDA
:1014F4000AF07FEF0AF084EF0AF00550EBEC0DF0F0
:10150400D1EF0AF020EE09F00750D9260850DA226C
:10151400DE50DE10D8B491EF0AF093EF0AF0AEEF8C
:101524000AF020EE09F00750D9260850DA2210EE0E
:1015340003F00750E1260850E222DE50E65CE65054
:10154400800A0D6EDE50800A0D58D8B0ACEF0AF058
:10155400AEEF0AF0D1EF0AF020EE03F00750D926DF
:101564000850DA22DECF09F0DDCF0AF007C0D9FF38
:1015740008C0DAFFDECF0BF0DDCF0CF009500B24EE
:10158400D96E0A500C20DA6E05C0DFFF20EE03F09E
:101594000750D9260850DA22DE2A000EDD22120076
:1015A400B4EC0DF0CFEC0DF0F4EC0CF051EC0DF0CC
:1015B400EA0E106E000E116E4FEC0BF07F0E000160
:1015C400666F000E676F010E686F0E0E696FEAC0DA
:1015D4006AF0EBC06BF0ECC06CF0EDC06DF0EEC0E7
:1015E4006EF0EFC06FF0F0C070F0F1C071F07EECFF
:1015F4000BF07F0E066E000E076E0EEC0DF005EF7D
:101604000BF03CEC0DF00001F251D8A40CEF0BF000
:101614000EEF0BF003EF0BF0DAEF0AF025EF00F01A
:101624001ABE17EF0BF019EF0BF01FEF0BF019C0F8
:101634001EF01AC01FF023EF0BF0000E1F6E000EF9
:101644001E6E000E1D6E000E1C6E35EF0BF0000EAC
:10165400066E200E056E15C007F016C008F06DEC7E
:101664000AF01C4A1D2A1E501C5C1D50800A1B6E69
:101674001F50800A1B58D8A042EF0BF044EF0BF028
:1016840029EF0BF017C00EF018C00FF015C010F0C2
:1016940016C011F091EC0CF01200F7EC0BF010C036
:1016A400D9FF11C0DAFF09C0DEFF0AC0DDFF47EC35
:1016B4000CF020EE04F01050D9261150DA2209C0A3
:1016C400DEFF0AC0DDFF1FEC0CF020EE02F010502C
:1016D400D9261150DA2209C0DEFF0AC0DDFFCFECA3
:1016E4000BF020EE06F01050D9261150DA2209C072
:1016F400DEFF0AC0DDFF12006A0E0001726F000EE9
:10170400736F66C074F067C075F0000E786F000EDA
:10171400776F000E7E6F000E7D6F740E606F000E8B
:10172400616F68C062F069C063F0720E646F000E8E
:10173400656FA7EC0BF0000177516625D96E7851DF
:101744006721DA6E000EDF6E120062C055F063C0CE
:1017540056F0BBEF0BF060C043F061C044F0550E8F
:10176400456E000E466E64C047F065C048F0C6EC96
:1017740009F055C0F6FF56C0F7FF0800F550000900
:10178400D8A4C7EF0BF0C9EF0BF0ADEF0BF0000ED0
:101794000001616F000E606F1200E6EC0DF0520E56
:1017A400D6EC0DF0B40ED6EC0DF0DCEC0DF0530ECF
:1017B400D6EC0DF0010EB3EC0CF00B6E0B500E6E6C
:1017C4000F6A000EB3EC0CF00B6E0B500D6E0C6A2E
:1017D4000E500C100E6E0F500D100F6EE1EC0DF04C
:1017E4000EC009F00FC00AF01200E6EC0DF0520E24
:1017F400D6EC0DF0B60ED6EC0DF0DCEC0DF0530E7D
:10180400D6EC0DF0010EB3EC0CF00B6E0B500E6E1B
:101814000F6A000EB3EC0CF00B6E0B500D6E0C6ADD
:101824000E500C100E6E0F500D100F6EE1EC0DF0FB
:101834000EC009F00FC00AF01200E6EC0DF0520ED3
:10184400D6EC0DF0B60ED6EC0DF0DCEC0DF0530E2C
:10185400D6EC0DF0010EB3EC0CF00B6E0B500E6ECB
:101864000F6A000EB3EC0CF00B6E0B500D6E0C6A8D
:101874000E500C100E6E0F500D100F6EE1EC0DF0AB
:101884000EC009F00FC00AF01200E6EC0DF0520E83
:10189400D6EC0DF0BA0ED6EC0DF0DCEC0DF0530ED8
:1018A400D6EC0DF0010EB3EC0CF00B6E0B500E6E7B
:1018B4000F6A000EB3EC0CF00B6E0B500D6E0C6A3D
:1018C4000E500C100E6E0F500D100F6EE1EC0DF05B
:1018D4000EC009F00FC00AF01200D80EF66E1B0EEF
:1018E400F76E000EF86E0900F5CFF2F001EE00F08D
:1018F4003C0EEE6AE806FDE100EEB1F0410EEE6A40
:10190400E806FDE15A6A596A586A576A5B905B9225
:10191400000EF86E0E0EF76E0001D2EF0AF0000E04
:10192400146E000E136EA2EF0CF012C005F0066ADE
:1019340010C007F011C008F06DEC0AF0134A142A25
:1019440013500E24D96E14500F20DA6EDF50126E2D
:101954001250D8A4B0EF0CF0B2EF0CF097EF0CF0EB
:101964001200076E90EC0DF00E01DA8790EC0DF08A
:10197400D5CE08F090EC0DF00750D8B4C4EF0CF0BD
:10198400C8EF0CF0066A062AC9EF0CF0066A063A9C
:1019940006460E01DA510618DF0B0618DA6FDA89EB
:1019A4000850120018BEE1EF0CF0185006E11704BD
:1019B400D8B0DFEF0CF0E1EF0CF0EFEF0CF017C054
:1019C40019F018C01AF0191E1A1E194A1A2A19C039
:1019D40017F01AC018F0F3EF0CF017C017F018C086
:1019E40018F0120051EC0DF0010E076E000EA4EC7D
:1019F4000DF03F0E096E550EE82EFED7092EFCD7CA
:101A040000F0030E076E000EA4EC0DF0D50E076E69
:101A1400010EA4EC0DF0120019EF0DF006C0D9FF71
:101A240007C0DAFFDF5066EC0DF0064A072A06C04D
:101A3400D9FF07C0DAFFDF50D8A423EF0DF025EF5C
:101A44000DF010EF0DF012003B0E57642CEF0DF06B
:101A54002EEF0DF030EF0DF0000E576E572A57049D
:101A6400016E026A000E0124D96E010E0220DA6EA4
:101A7400DF501200C3EC0DF00009D8B444EF0DF0B0
:101A840046EF0DF04DEF0DF00E012D85010E000116
:101A9400F26F50EF0DF0000E0001F26F12000E0114
:101AA400D951F00B0809D96FD98B9F0ED66F848A50
:101AB400848CA79BA79D1D0E1D6F1E0E1C6F1C0EF4
:101AC4006F6F1B0E706F1200056E3B0E58646DEF46
:101AD4000DF06FEF0DF071EF0DF0000E586E000E6B
:101AE4005824D96EDA6A010EDA2205C0DFFF582ABB
:101AF4001200016E130E5A6482EF0DF084EF0DF0A4
:101B040086EF0DF0000E5A6EB10E5A24D96EDA6AC1
:101B1400000EDA2201C0DFFF5A2A12000E01D8B5E6
:101B240096EF0DF098EF0DF090EF0DF0DACE05F092
:101B34001F0E0516D8A4A1EF0DF0A3EF0DF090EF42
:101B44000DF01200086EE6EC0DF0520ED6EC0DF01E
:101B540008508009D6EC0DF00750D6EC0DF0E1ECFE
:101B64000DF01200120E0E01626F110E156FE9973F
:101B7400E895330EE56F000EE66FE789E88BE78F93
:101B8400120057505818D8A4CAEF0DF0CDEF0DF03D
:101B9400010ECEEF0DF0000E1200F29A0E012B8111
:101BA400F28CF28E2D871200066E90EC0DF006C0BA
:101BB400D5FE120090EC0DF00E01DA83120090ECC9
:101BC4000DF00E01DA85120090EC0DF00E01DA81B1
:051BD4001200120001E7
:020000040020DA
:10000000FF0FFF0FFF0FFF0FFF0FFF0FFF0FFF0F80
:020000040030CA
:0C000000AAFFFFFF9FFFFFFFFFFFFFFFB5
:00000001FF
