:04000000F6EF24F003
:100E0000007265643D256620677265656E3D2566E6
:100E100020626C75653D2566206C756D3D256420EE
:100E2000636F6C6F75723D2564200D0A00726564F6
:100E30003D256620677265656E3D256620626C758E
:100E4000653D2566206C756D3D256420200D0A00EA
:090E5000696E66006E616E00001F
:100E5A00000E00018A6F62C08DF063C08EF064C01C
:100E6A008FF065C090F090BF3FEF07F03DEF07F0BD
:100E7A0053EF07F0010E8A6F8DC001F08EC002F0A9
:100E8A008FC003F090C004F0C4EC25F001C08DF0CF
:100E9A0002C08EF003C08FF004C090F0000E000173
:100EAA008C6F000E8B6FEFC07AF0F0C07BF08A5126
:100EBA00D8B462EF07F064EF07F078EF07F08A51D1
:100ECA00D8A46AEF07F06CEF07F072EF07F0000E94
:100EDA00706F2B0E6F6F76EF07F0000E706F2D0E8E
:100EEA006F6F6FC08AF08DC001F08EC002F08FC0A4
:100EFA0003F090C004F0A6EC20F001040210D8A47C
:100F0A0089EF07F08BEF07F0BEEF07F000018A5177
:100F1A00D8B492EF07F094EF07F09DEF07F08AC07C
:100F2A0010F17A07D8A07B07000E8C6F010E8B6F29
:100F3A00100E8B25016E010E8C21026E500E036E6F
:100F4A000E0E046E3FEC25F00001FD0E7A27FF0E0F
:100F5A007B2360C011F061C012F0100E136E010EF7
:100F6A00146E7AC015F07BC016F0B1EC22F029EFAE
:100F7A000CF08DC001F08EC002F08FC003F090C05B
:100F8A0004F0A6EC20F001500210D8A4CFEF07F02D
:100F9A00D1EF07F0F1EF07F000018A51D8B4D8EF8A
:100FAA0007F0DAEF07F0E3EF07F08AC010F17A07EB
:100FBA00D8A07B07000E8C6F010E8B6F100E8B254D
:100FCA00016E010E8C21026E540E036E0E0E046E1B
:100FDA003FEC25F0A9EF07F0000E0001916F000E1B
:100FEA00926F800E936F3F0E946F000E796F000E12
:100FFA00786F8DC032F08EC033F08FC034F090C05D
:10100A0035F0000E366E000E376E000E386E000E8A
:10101A00396E8AEC21F0D8B015EF08F017EF08F016
:10102A00F6EF08F024EF08F07CC091F07DC092F052
:10103A007EC093F07FC094F00001784B792B91C069
:10104A0011F092C012F093C013F094C014F0000E85
:10105A00156E000E166E200E176E410E186E2DECD0
:10106A0011F011C07CF012C07DF013C07EF014C0E4
:10107A007FF000017C518D5D016E7D518E59026EAB
:10108A007E518F59036E7F519059046E28EC23F0DC
:10109A0004BE5BEF08F004500310021009E1020ECF
:1010AA00015CD8A05BEF08F05DEF08F019EF08F0DB
:1010BA007CC02AF07DC02BF07EC02CF07FC02DF0C2
:1010CA008DC02EF08EC02FF08FC030F090C031F05E
:1010DA0024EC20F0D8A074EF08F076EF08F019EFAE
:1010EA0008F0000191518D5D016E92518E59026E88
:1010FA0093518F59036E94519059046E28EC23F042
:10110A0004BE95EF08F004500310021007E1020E26
:10111A00015CD8B093EF08F095EF08F0DDEF08F026
:10112A0091C08DF092C08EF093C08FF094C090F071
:10113A00F6EF08F091C032F092C033F093C034F069
:10114A0094C035F0000E366E000E376E200E386EE3
:10115A00410E396E42EC13F032C091F033C092F076
:10116A0034C093F035C094F000017807D8A079070D
:10117A0091518D5D016E92518E59026E93518F5924
:10118A00036E94519059046E28EC23F004BEDBEFF1
:10119A0008F004500310021007E1020E015CD8B0F7
:1011AA00D9EF08F0DBEF08F0DDEF08F095EF08F073
:1011BA008DC02AF08EC02BF08FC02CF090C02DF07D
:1011CA0091C02EF092C02FF093C030F094C031F04D
:1011DA0024EC20F0D8A0F4EF08F0F6EF08F09FEF27
:1011EA0008F066C072F072C073F00001F2BF00EF3F
:1011FA0009F002EF09F008EF09F0F1C06BF0F2C054
:10120A006CF00CEF09F0000E6C6F060E6B6F6BC082
:10121A0076F06CC077F0764B772B660E7319D8A4EC
:10122A0019EF09F01BEF09F03BEF09F079BF22EF44
:10123A0009F020EF09F02EEF09F0000E916F000E71
:10124A00926F800E936F3F0E946F000E796F000EAF
:10125A00786F670E7219D8B435EF09F037EF09F0D5
:10126A003BEF09F07851762779517723000E816F89
:10127A00000E806F8DC082F08EC083F08FC084F024
:10128A0090C085F091C07CF092C07DF093C07EF052
:10129A0094C07FF0CCEF09F082C032F083C033F003
:1012AA0084C034F085C035F091C036F092C037F072
:1012BA0093C038F094C039F042EC13F032C04BF0CE
:1012CA0033C04CF034C04DF035C04EF0A2EC1AF0E9
:1012DA004BC086F04CC087F04DC088F04EC089F0F4
:1012EA0086C001F087C002F088C003F089C004F00C
:1012FA00A1EC1FF001C074F002C075F082C02AF0A0
:10130A0083C02BF084C02CF085C02DF086C015F068
:10131A0087C016F088C017F089C018F091C011F084
:10132A0092C012F093C013F094C014F02DEC11F097
:10133A0011C02EF012C02FF013C030F014C031F0DB
:10134A001CEC25F02AC082F02BC083F02CC084F05C
:10135A002DC085F091C032F092C033F093C034F0C2
:10136A0094C035F0000E366E000E376E200E386EC1
:10137A00410E396E42EC13F032C091F033C092F054
:10138A0034C093F035C094F00001804B812B765124
:10139A00805D8151800A676F7751800A6759D8A0AA
:1013AA00D9EF09F0DBEF09F051EF09F091C011F024
:1013BA0092C012F093C013F094C014F0000E156E90
:1013CA00000E166EA00E176E400E186E2DEC11F060
:1013DA0011C086F012C087F013C088F014C089F0DB
:1013EA0082C02AF083C02BF084C02CF085C02DF077
:1013FA0086C02EF087C02FF088C030F089C031F047
:10140A0024EC20F0D8B00CEF0AF00EEF0AF019EF36
:10141A000AF0000E0001866F000E876F000E886FBB
:10142A00000E896F42EF0AF082C032F083C033F0B7
:10143A0084C034F085C035F086C036F087C037F0F6
:10144A0088C038F089C039F08AEC21F0D8A030EF92
:10145A000AF032EF0AF042EF0AF0000174B138EFF5
:10146A000AF03AEF0AF042EF0AF0000E866F000E19
:10147A00876F000E886F000E896F8DC001F08EC0D5
:10148A0002F08FC003F090C004F086C005F087C058
:10149A0006F088C007F089C008F0CDEC0EF001C054
:1014AA0082F002C083F003C084F004C085F082C0D9
:1014BA002AF083C02BF084C02CF085C02DF0000EDA
:1014CA00156E000E166E200E176E410E186E7CC039
:1014DA0011F07DC012F07EC013F07FC014F02DEC25
:1014EA0011F011C02EF012C02FF013C030F014C04A
:1014FA0031F024EC20F0D8A085EF0AF087EF0AF04B
:10150A00B0EF0AF00001784B792B7CC011F07DC056
:10151A0012F07EC013F07FC014F0000E156E000E9C
:10152A00166E200E176E410E186E2DEC11F011C0BA
:10153A007CF012C07DF013C07EF014C07FF0660EFE
:10154A0000017319D8A4ACEF0AF0AEEF0AF0B0EFBD
:10155A000AF0764B772B7CC091F07DC092F07EC06A
:10156A0093F07FC094F078C069F079C06AF0000EF9
:10157A000001716F000E6E6F000E6D6F000E816FAD
:10158A00000E806FAEEF0BF082C032F083C033F0F2
:10159A0084C034F085C035F091C036F092C037F07F
:1015AA0093C038F094C039F042EC13F032C04BF0DB
:1015BA0033C04CF034C04DF035C04EF0A2EC1AF0F6
:1015CA004BC086F04CC087F04DC088F04EC089F001
:1015DA0086C001F087C002F088C003F089C004F019
:1015EA00A1EC1FF002BE05EF0BF0025007E10A0E54
:1015FA00015CD8B003EF0BF005EF0BF015EF0BF021
:10160A0086C001F087C002F088C003F089C004F0E8
:10161A00A1EC1FF001C074F002C075F01AEF0BF0D4
:10162A00000E0001756F090E746F00017151D8A484
:10163A0021EF0BF023EF0BF04BEF0BF06ABF2AEF11
:10164A000BF028EF0BF04BEF0BF0100E8B25D96E39
:10165A00010E8C21DA6E2E0EDF6E8B4B8C2B7A07E5
:10166A00D8A07B07010E716F4BEF0BF0100E8B2584
:10167A00D96E010E8C21DA6E300EDF6E8B4B8C2BFD
:10168A007A07D8A07B076D07D8A06E076D516E1137
:10169A00D8A452EF0BF054EF0BF03BEF0BF0100E07
:1016AA008B25D96E010E8C21DA6E7451300FDF6EE4
:1016BA008B4B8C2B7A07D8A07B0782C02AF083C079
:1016CA002BF084C02CF085C02DF086C015F087C0A1
:1016DA0016F088C017F089C018F091C011F092C0B6
:1016EA0012F093C013F094C014F02DEC11F011C055
:1016FA002EF012C02FF013C030F014C031F01CECE1
:10170A0025F02AC082F02BC083F02CC084F02DC0B3
:10171A0085F091C032F092C033F093C034F094C097
:10172A0035F0000E366E000E376E200E386E410E02
:10173A00396E42EC13F032C091F033C092F034C0EB
:10174A0093F035C094F000016907D8A06A07804B6E
:10175A00812B7651805D8151800A676F7751800AAB
:10176A006759D8B0BBEF0BF0BDEF0BF0CBEF0BF026
:10177A008CBFC9EF0BF08C5109E14B0E8B5DD8A0E1
:10178A00C9EF0BF0CBEF0BF0C9EF0AF0000E816F37
:10179A004F0E806F100E8025D96E010E8121DA6EF0
:1017AA00000EDF6E100E676F010E686F8B51675F58
:1017BA008C51685B80516725016E81516821026EE8
:1017CA00100E036E010E046E8BC005F08CC006F07D
:1017DA0007EC24F000018B51805D8B6F8C5181598D
:1017EA008C6F8A51D8A4FCEF0BF0FFEF0BF0010EBF
:1017FA0000EF0CF0000E806F816B8A51D8B408EFAD
:10180A000CF00AEF0CF015EF0CF08B07D8A08C0740
:10181A00100E8B25D96E010E8C21DA6E8AC0DFFF7D
:10182A0080517A5F81517B5B60C011F061C012F018
:10183A00100E8B25136E010E8C21146E7AC015F0D2
:10184A007BC016F0B1EC22F01200000E0001726F9C
:10185A00000E736F000E746F000E756F000E766FB8
:10186A00500E776FC30E786F470E796F000E656F53
:10187A00040E646F20EE66F00B0EDE6AE806FDE2E7
:10188A004BC0D9FF4CC0DAFFDECF01F0DDCF02F04A
:10189A00000E02BEFF0E036E046E010E9BEC1CF0DE
:1018AA0001C066F002C067F003C068F004C069F0C6
:1018BA0020EE02F04B50D9264C50DA22DECF01F04E
:1018CA00DDCF02F0000E02BEFF0E036E046E010EA3
:1018DA009BEC1CF001C06AF002C06BF003C06CF014
:1018EA0004C06DF020EE04F04B50D9264C50DA2299
:1018FA00DECF01F0DDCF02F0000E02BEFF0E036E56
:10190A00046E010E9BEC1CF001C06EF002C06FF079
:10191A0003C070F004C071F0000E00017B6F000E6E
:10192A007A6F72C02AF073C02BF074C02CF075C0A5
:10193A002DF0660E4F6E000E506ED8907A35D96E25
:10194A007B35DA6ED890D936DA364F50D9265050D0
:10195A00DA22DECF2EF0DECF2FF0DECF30F0DECF70
:10196A0031F024EC20F0D8B0BDEF0CF0BFEF0CF052
:10197A00DCEF0CF0660E4F6E000E506ED890000130
:10198A007A35D96E7B35DA6ED890D936DA364F5039
:10199A00D9265050DA22DECF72F0DECF73F0DECFD6
:1019AA0074F0DECF75F07AC064F07BC065F0660E25
:1019BA004F6E000E506ED89000017A35D96E7B3585
:1019CA00DA6ED890D936DA364F50D9265050DA2204
:1019DA00DECF2AF0DECF2BF0DECF2CF0DECF2DF0DB
:1019EA0076C02EF077C02FF078C030F079C031F091
:1019FA0024EC20F0D8B004EF0DF006EF0DF01FEF45
:101A0A000DF0660E4F6E000E506ED89000017A35BA
:101A1A00D96E7B35DA6ED890D936DA364F50D92658
:101A2A005050DA22DECF76F0DECF77F0DECF78F0D4
:101A3A00DECF79F000017A4B7B2B7BBF2EEF0DF0C6
:101A4A007B5109E1030E7A5DD8A02EEF0DF030EF3D
:101A5A000DF096EF0CF076C02EF077C02FF078C01C
:101A6A0030F079C031F072C02AF073C02BF074C024
:101A7A002CF075C02DF01CEC25F02AC032F02BC0DA
:101A8A0033F02CC034F02DC035F0000E366E000E47
:101A9A00376E000E386E000E396E8AEC21F0D8A02F
:101AAA0059EF0DF05BEF0DF061EF0DF0000E4C6E8B
:101ABA00000E4B6ECCEF0EF0000164516511D8A4F4
:101ACA0069EF0DF06BEF0DF0DFEF0DF076C02EF041
:101ADA0077C02FF078C030F079C031F072C02AF0A8
:101AEA0073C02BF074C02CF075C02DF01CEC25F0DF
:101AFA002AC036F02BC037F02CC038F02DC039F090
:101B0A006EC02EF06FC02FF070C030F071C031F08F
:101B1A006AC02AF06BC02BF06CC02CF06DC02DF09F
:101B2A001CEC25F02AC032F02BC033F02CC034F064
:101B3A002DC035F042EC13F032C011F033C012F070
:101B4A0034C013F035C014F0000E156E000E166E78
:101B5A00700E176E420E186E2DEC11F011C07CF04B
:101B6A0012C07DF013C07EF014C07FF000017FBF69
:101B7A00C3EF0DF0C1EF0DF0BEEF0EF07CC001F027
:101B8A007DC002F07EC003F07FC004F0000E056E37
:101B9A00000E066EB40E076E430E086ECDEC0EF004
:101BAA0001C07CF002C07DF003C07EF004C07FF06B
:101BBA00BEEF0EF064056511D8A4E6EF0DF0E8EF6C
:101BCA000DF054EF0EF076C02EF077C02FF078C0EB
:101BDA0030F079C031F072C02AF073C02BF074C0B3
:101BEA002CF075C02DF01CEC25F02AC036F02BC065
:101BFA0037F02CC038F02DC039F066C02EF067C01F
:101C0A002FF068C030F069C031F06EC02AF06FC0A2
:101C1A002BF070C02CF071C02DF01CEC25F02AC0FE
:101C2A0032F02BC033F02CC034F02DC035F042EC2A
:101C3A0013F032C060F033C061F034C062F035C0D6
:101C4A0063F0000E056E000E066E000E076E400E63
:101C5A00086E60C001F061C002F062C003F063C0A8
:101C6A0004F0CDEC0EF001C011F002C012F003C076
:101C7A0013F004C014F0000E156E000E166E700EEE
:101C8A00176E420E186E2DEC11F011C07CF012C0C6
:101C9A007DF013C07EF014C07FF0BEEF0EF076C068
:101CAA002EF077C02FF078C030F079C031F072C0D2
:101CBA002AF073C02BF074C02CF075C02DF01CEC08
:101CCA0025F02AC036F02BC037F02CC038F02DC0D2
:101CDA0039F06AC02EF06BC02FF06CC030F06DC0C6
:101CEA0031F066C02AF067C02BF068C02CF069C0DA
:101CFA002DF01CEC25F02AC032F02BC033F02CC09A
:101D0A0034F02DC035F042EC13F032C060F033C02D
:101D1A0061F034C062F035C063F0000E056E000E4B
:101D2A00066E800E076E400E086E60C001F061C03C
:101D3A0002F062C003F063C004F0CDEC0EF001C003
:101D4A0011F002C012F003C013F004C014F0000E28
:101D5A00156E000E166E700E176E420E186E2DEC72
:101D6A0011F011C07CF012C07DF013C07EF014C0D7
:101D7A007FF07CC001F07DC002F07EC003F07FC01E
:101D8A0004F0A1EC1FF001C04BF002C04CF01200AD
:101D9A000450800B0D6E045004240F6E03AED8EF6E
:101DAA000EF0DAEF0EF0DBEF0EF00F800F50D8B422
:101DBA00E1EF0EF0E3EF0EF0F8EF0EF00F28D8A4E3
:101DCA00E9EF0EF0EBEF0EF0F3EF0EF0000E016EFE
:101DDA00000E026E000E036E000E046E038E000EDD
:101DEA00046E00EF0FF0000E016E000E026E000E80
:101DFA00036E000E046E0850800B0E6E0D500E1806
:101E0A00D8B40AEF0FF00CEF0FF00DEF0FF00D8CB6
:101E1A00085008240E6E07AE15EF0FF017EF0FF0FB
:101E2A0018EF0FF00E800E50D8B41EEF0FF020EF0F
:101E3A000FF035EF0FF00E28D8A426EF0FF028EF99
:101E4A000FF030EF0FF0000E056E000E066E000E5A
:101E5A00076E000E086E078E000E086E3DEF0FF03B
:101E6A00000E056E000E066E000E076E000E086E5E
:101E7A000F500E5CD8B044EF0FF046EF0FF06DEF45
:101E8A000FF00DAC4BEF0FF04DEF0FF04FEF0FF0DF
:101E9A00800E0D1A0FC010F00EC00FF010C00EF019
:101EAA0001C010F005C001F010C005F002C010F02A
:101EBA0006C002F010C006F003C010F007C003F01D
:101ECA0010C007F004C010F008C004F010C008F0F9
:101EDA00000E106E0F500EC009F00A6A095E000E5D
:101EEA000A5A0ABE82EF0FF00A5009E11A0E095C7B
:101EFA00D8A082EF0FF084EF0FF0BBEF0FF0015084
:101F0A00021003100410D8A48DEF0FF090EF0FF019
:101F1A00010E91EF0FF0000E106E000E016E000E12
:101F2A00026E000E036E000E046E0EC00FF0C4EFB8
:101F3A000FF010A0A3EF0FF0A5EF0FF0ABEF0FF02B
:101F4A00D89010300109106EADEF0FF0D890103212
:101F5A0001A0B2EF0FF0B4EF0FF0B5EF0FF0108E53
:101F6A00043404320332023201320F2A0E500F5C5B
:101F7A00D8A0C2EF0FF0C4EF0FF09EEF0FF00DBC28
:101F8A00C9EF0FF0CBEF0FF00BEF10F00F50D8A402
:101F9A00D1EF0FF0D3EF0FF0DDEF0FF0000E016E6F
:101FAA00000E026E000E036E000E046E2CEF11F08E
:101FBA000550012606500222075003220850042227
:101FCA0004A0EAEF0FF0ECEF0FF098EF10F010A07A
:101FDA00F1EF0FF0F3EF0FF0F9EF0FF0D8901030A8
:101FEA000109106EFBEF0FF0D890103201A000EF3C
:101FFA0010F002EF10F003EF10F0108E04340432E8
:10200A000332023201320F2A98EF10F00550015CB8
:10201A0006500258075003580450800A096E0850A7
:10202A00800A0958D8B01CEF10F01EEF10F049EFE3
:10203A0010F00150055C096E025006580A6E0350F2
:10204A0007580B6E045008580C6EFF0E0924016ED7
:10205A00FF0E0A20026EFF0E0B20036EFF0E0C20ED
:10206A00046E800E0D1A106C1050D8A43FEF10F0B9
:10207A0041EF10F051EF10F0010E0126000E02227E
:10208A000322042251EF10F00550015E0650025A55
:10209A000750035A0850045A015002100310041042
:1020AA00D8A45AEF10F05CEF10F091EF10F0105036
:1020BA00D8A462EF10F064EF10F091EF10F0000E68
:1020CA00016E000E026E000E036E000E046E2CEFFF
:1020DA0011F0D890013602360336043610AE78EF86
:1020EA0010F07AEF10F07BEF10F0018010A080EF73
:1020FA0010F082EF10F086EF10F0D880103688EFDB
:10210A0010F0D89010360F50D8B48EEF10F090EF30
:10211A0010F091EF10F00F0603AE96EF10F098EF63
:10212A0010F06EEF10F0000E0E6E10AE9FEF10F072
:10213A00A1EF10F0B9EF10F010C009F07F0E0916E8
:10214A00D8B4AAEF10F0ACEF10F0B0EF10F0010E17
:10215A000E6EB9EF10F001A0B5EF10F0B7EF10F066
:10216A00B9EF10F0ACEF10F00E50D8B4BFEF10F08A
:10217A00C1EF10F0ECEF10F0010E0126000E022262
:10218A000322042204A0CCEF10F0CEEF10F0ECEF03
:10219A0010F001C009F002C00AF003C00BF004C03D
:1021AA000CF00C340C320B320A32093209C001F03D
:1021BA000AC002F00BC003F00CC004F00F28D8B418
:1021CA00E9EF10F0EBEF10F0ECEF10F00F2A0F2808
:1021DA00D8B4F2EF10F0F4EF10F0FCEF10F00F505B
:1021EA00D8A4FAEF10F0FCEF10F00EEF11F0000E89
:1021FA00016E000E026E000E036E000E046E0F508A
:10220A00D8A40AEF11F00CEF11F00EEF11F0000E46
:10221A000D6E0FA013EF11F015EF11F018EF11F07A
:10222A00038E19EF11F0039ED8900F30046E0DAE95
:10223A0021EF11F023EF11F024EF11F0048E01C009
:10224A0001F002C002F003C003F004C004F012005F
:10225A001450800B1D6E14501424236E13AE38EFE5
:10226A0011F03AEF11F03BEF11F023802350D8B46C
:10227A0041EF11F043EF11F056EF11F02328D8A4E3
:10228A0049EF11F04BEF11F053EF11F0000E116E00
:10229A00000E126E000E136E000E146E138E5EEF99
:1022AA0011F0000E116E000E126E000E136E000E6B
:1022BA00146E1850800B1D1A18501824226E17AE6F
:1022CA0069EF11F06BEF11F06CEF11F022802250E0
:1022DA00D8B472EF11F074EF11F087EF11F02228E1
:1022EA00D8A47AEF11F07CEF11F084EF11F0000E10
:1022FA00156E000E166E000E176E000E186E178EF3
:10230A008FEF11F0000E156E000E166E000E176E8E
:10231A00000E186E2250D8B495EF11F097EF11F015
:10232A009FEF11F02350D8A49DEF11F09FEF11F009
:10233A00A9EF11F0000E116E000E126E000E136E50
:10234A00000E146E41EF13F017501102F3CF28F06C
:10235A00F4CF29F028501E6E1F6A206A216A29507C
:10236A00246E256A266A276A16501202F3CF28F0CD
:10237A00F4CF29F028501E26000E1F2220222122E7
:10238A0029502426000E2522262227221550130220
:10239A00F3CF28F0F4CF29F028501E26000E1F2272
:1023AA002022212229502426000E252226222722F5
:1023BA0020C021F01FC020F01EC01FF01E6A155059
:1023CA001202F3CF28F0F4CF29F028501E26295004
:1023DA001F22000E2022000E212216501102F3CFD6
:1023EA0028F0F4CF29F028501E2629501F22000E6B
:1023FA002022000E212220C021F01FC020F01EC082
:10240A001FF01E6A15501102F3CF28F0F4CF29F0FD
:10241A0028501E2629501F22000E2022000E21229B
:10242A0017501202F3CF28F0F4CF29F028502426AF
:10243A0029502522000E2622000E272216501302AA
:10244A00F3CF28F0F4CF29F028502426295025224A
:10245A00000E2622000E272217501302F3CF28F06F
:10246A00F4CF29F02850196E29501A6E1B6A1C6A7B
:10247A001BC01CF01AC01BF019C01AF0196A1950B7
:10248A0024261A5025221B5026221C5027221EC001
:10249A0019F01FC01AF020C01BF021C01CF0190E41
:1024AA005CEF12F0D8901C321B321A321932E82E25
:1024BA0057EF12F0195024261A5025221B502622B3
:1024CA001C50272220C021F01FC020F01EC01FF080
:1024DA001E6A225023C019F01A6A1926000E1A22FF
:1024EA00820E1924286EFF0E1A20296E92EF12F01E
:1024FA00D890243625362636273621AE87EF12F0B5
:10250A0089EF12F08AEF12F02480D8901E361F3617
:10251A00203621362806D8A0290626AE97EF12F0D3
:10252A0099EF12F07DEF12F0000E226E21AEA0EFAD
:10253A0012F0A2EF12F0C6EF12F0FF0E1E14196E7F
:10254A00FF0E1F141A6EFF0E20141B6E7F0E21142D
:10255A001C6E19501A101B101C10D8B4B7EF12F0C9
:10256A00B9EF12F0BDEF12F0010E226EC6EF12F0B3
:10257A0024A0C2EF12F0C4EF12F0C6EF12F0B9EFC6
:10258A0012F02250D8B4CCEF12F0CEEF12F0F2EFE4
:10259A0012F0010E2426000E25222622272227A029
:1025AA00D9EF12F0DBEF12F0F2EF12F024C019F0BB
:1025BA0025C01AF026C01BF027C01CF01C341C32A0
:1025CA001B321A32193219C024F01AC025F01BC066
:1025DA0026F01CC027F0284A292A29BEFDEF12F04E
:1025EA00295008E12828D8A0FDEF12F0FFEF12F0D9
:1025FA0009EF13F0000E246E000E256E800E266E73
:10260A007F0E276E37EF13F029BE16EF13F029500D
:10261A0006E12804D8B014EF13F016EF13F022EFF6
:10262A0013F0000E246E000E256E000E266E000EAC
:10263A00276E000E1D6E37EF13F028C023F0FF0E31
:10264A002416FF0E25167F0E2616000E271623A027
:10265A0031EF13F033EF13F034EF13F0268ED890E6
:10266A002330276E1D50271224C011F025C012F006
:10267A0026C013F027C014F012003550800B426EAA
:10268A0035503524496E34AE4DEF13F04FEF13F049
:10269A0050EF13F049804950D8B456EF13F058EF71
:1026AA0013F06DEF13F04928D8A45EEF13F060EF32
:1026BA0013F068EF13F0000E326E000E336E000E48
:1026CA00346E000E356E348E000E356E75EF13F0D3
:1026DA00000E326E000E336E000E346E000E356E32
:1026EA003950800B421A395039244A6E38AE80EF7D
:1026FA0013F082EF13F083EF13F04A804A50D8B4F4
:10270A0089EF13F08BEF13F0A0EF13F04A28D8A447
:10271A0091EF13F093EF13F09BEF13F0000E366E68
:10272A00000E376E000E386E000E396E388E000EAF
:10273A00396EA8EF13F0000E366E000E376E000EDB
:10274A00386E000E396E3650371038103910D8A44A
:10275A00B1EF13F0B3EF13F0CBEF13F0000E326EBC
:10276A00000E336E000E346E000E356E800E34127B
:10277A007F0E35124250351232C032F033C033F078
:10278A0034C034F035C035F00EEF15F04950D8A4F6
:10279A00D1EF13F0D3EF13F0DDEF13F0000E326E2A
:1027AA00000E336E000E346E000E356E0EEF15F00D
:1027BA004A5049C03AF03B6A3A5E000E3B5A7F0ED5
:1027CA003A24436E000E3B20446E32C03EF033C0C2
:1027DA003FF034C040F035C041F0000E326E000EBA
:1027EA00336E000E346E000E356E000E456E000E0E
:1027FA00466E000E476E000E486E000E4A6E3EEFA1
:10280A0014F04A50D8B40CEF14F00EEF14F025EF80
:10281A0014F0D8903E363F3640364136D89032369C
:10282A0033363436353648AE1DEF14F01FEF14F048
:10283A0020EF14F03280D89045364636473648366F
:10284A0036503E5C37503F583850405839504158FE
:10285A00D8A032EF14F034EF14F03DEF14F0488CA6
:10286A0036503E5E37503F5A3850405A3950415AD6
:10287A004A2A190E4A6444EF14F046EF14F006EFA0
:10288A0014F03E503F1040104110D8B44FEF14F0EE
:10289A0051EF14F069EF14F0458069EF14F0D89005
:1028AA00323633363436353648AE5EEF14F060EFE2
:1028BA0014F061EF14F03280D89045364636473628
:1028CA0048364306D8A0440634AE6EEF14F070EFD3
:1028DA0014F054EF14F0000E4A6E48AE77EF14F07D
:1028EA0079EF14F09DEF14F0FF0E45143A6EFF0EC7
:1028FA0046143B6EFF0E47143C6E7F0E48143D6E25
:10290A003A503B103C103D10D8B48EEF14F090EFC3
:10291A0014F094EF14F0010E4A6E9DEF14F032A0F9
:10292A0099EF14F09BEF14F09DEF14F090EF14F070
:10293A004A50D8B4A3EF14F0A5EF14F0C9EF14F07D
:10294A00010E3226000E33223422352235A0B0EF92
:10295A0014F0B2EF14F0C9EF14F032C03AF033C0F9
:10296A003BF034C03CF035C03DF03D343D323C32A2
:10297A003B323A323AC032F03BC033F03CC034F01A
:10298A003DC035F0434A442A44BED4EF14F04450C3
:10299A0008E14328D8A0D4EF14F0D6EF14F0E1EF01
:1029AA0014F0000E446E4368000E326E000E336E51
:1029BA00000E346E000E356E44BEEEEF14F0445035
:1029CA0006E14304D8B0ECEF14F0EEEF14F0FCEF9C
:1029DA0014F0000E446E000E436E000E326E000EAE
:1029EA00336E000E346E000E356E000E426E43C01A
:1029FA0049F049A003EF15F005EF15F008EF15F0BF
:102A0A00348E09EF15F0349ED8904930356EBFEFF9
:102A1A0013F012004BC0D9FF4CC0DAFFDECF01F031
:102A2A00DDCF02F0000E02BEFF0E036E046E010E31
:102A3A009BEC1CF001C06CF002C06DF003C06EF09C
:102A4A0004C06FF020EE02F04B50D9264C50DA2227
:102A5A00DECF01F0DDCF02F0000E02BEFF0E036EE4
:102A6A00046E010E9BEC1CF001C070F002C071F004
:102A7A0003C072F004C073F020EE04F04B50D92664
:102A8A004C50DA22DECF01F0DDCF02F0000E02BE9A
:102A9A00FF0E036E046E010E9BEC1CF001C074F075
:102AAA0002C075F003C076F004C077F020EE06F09D
:102ABA004B50D9264C50DA22DECF01F0DDCF02F09E
:102ACA00000E02BEFF0E036E046E010E9BEC1CF09C
:102ADA0001C060F002C061F003C062F004C063F09C
:102AEA0070C005F071C006F072C007F073C008F03C
:102AFA006CC001F06DC002F06EC003F06FC004F04C
:102B0A00CDEC0EF001C064F002C065F003C066F0BF
:102B1A0004C067F074C005F075C006F076C007F00F
:102B2A0077C008F064C001F065C002F066C003F027
:102B3A0067C004F0CDEC0EF001C068F002C069F085
:102B4A0003C06AF004C06BF06CC032F06DC033F0A1
:102B5A006EC034F06FC035F060C005F061C006F099
:102B6A0062C007F063C008F068C001F069C002F0F3
:102B7A006AC003F06BC004F0CDEC0EF001C036F071
:102B8A0002C037F003C038F004C039F042EC13F049
:102B9A004DC0D9FF4EC0DAFF32C0DEFF33C0DEFFC0
:102BAA0034C0DEFF35C0DEFF70C005F071C006F02C
:102BBA0072C007F073C008F06CC001F06DC002F07B
:102BCA006EC003F06FC004F0CDEC0EF001C064F0EB
:102BDA0002C065F003C066F004C067F074C005F077
:102BEA0075C006F076C007F077C008F064C001F03F
:102BFA0065C002F066C003F067C004F0CDEC0EF0C9
:102C0A0001C068F002C069F003C06AF004C06BF04A
:102C1A0074C032F075C033F076C034F077C035F046
:102C2A0060C005F061C006F062C007F063C008F03A
:102C3A0068C001F069C002F06AC003F06BC004F01A
:102C4A00CDEC0EF001C036F002C037F003C038F008
:102C5A0004C039F042EC13F020EE08F04D50D926AA
:102C6A004E50DA2232C0DEFF33C0DEFF34C0DEFF50
:102C7A0035C0DEFF70C005F071C006F072C007F003
:102C8A0073C008F06CC001F06DC002F06EC003F0B2
:102C9A006FC004F0CDEC0EF001C064F002C065F024
:102CAA0003C066F004C067F074C005F075C006F092
:102CBA0076C007F077C008F064C001F065C002F082
:102CCA0066C003F067C004F0CDEC0EF001C068F0F6
:102CDA0002C069F003C06AF004C06BF070C032F041
:102CEA0071C033F072C034F073C035F060C005F0C3
:102CFA0061C006F062C007F063C008F068C001F066
:102D0A0069C002F06AC003F06BC004F0CDEC0EF0AB
:102D1A0001C036F002C037F003C038F004C039F001
:102D2A0042EC13F020EE04F04D50D9264E50DA2230
:102D3A0032C0DEFF33C0DEFF34C0DEFF35C0DEFF47
:102D4A00120097C0D9FF98C0DAFFDECFF6FFDDCFB9
:102D5A00F7FF000EF86E0800F550250AD8A4B8EF60
:102D6A0016F0BAEF16F012EF18F097C0D9FF98C014
:102D7A00DAFFDE2A000EDD22000E0001F06F000EDF
:102D8A00EF6FEFC0F5F0F169F26997C0D9FF98C00B
:102D9A00DAFFDECFA6F0DDCFA7F0A6C0F6FFA7C008
:102DAA00F7FF000EF86E0800F550640AD8B4E0EF99
:102DBA0016F0E2EF16F0F2EF16F0A6C0F6FFA7C083
:102DCA00F7FF000EF86E0800F550690AD8A4F0EF74
:102DDA0016F0F2EF16F035EF17F099C0D9FF9AC046
:102DEA00DAFFDFCF9BF0020EDE26DFCF9CF0000E6B
:102DFA00DD229BC0D9FF9CC0DAFFDECF9DF0DDCF7C
:102E0A009EF0000E9EBFFF0E9F6FA06FA16FA26F74
:102E1A00A36FA46F010EA6259B6F000EA7219C6FBE
:102E2A0097C0D9FF98C0DAFF9BC0DEFF9CC0DDFFC8
:102E3A0095C01CF096C01DF09DC01EF09EC01FF0EC
:102E4A009FC020F0A0C021F0A1C022F0A2C023F0B0
:102E5A00A3C024F0A4C025F029EC18F028EF18F03C
:102E6A0097C0D9FF98C0DAFFDECFA6F0DDCFA7F072
:102E7A00A6C0F6FFA7C0F7FF000EF86E0800F5CF50
:102E8A00A5F054EF17F0A64BA72B6DEF17F06C0EB9
:102E9A00A56F6DEF17F0000EA56F6DEF17F0A55136
:102EAA009B6F9C6B9C51000AD8B45EEF17F050EFF1
:102EBA0017F09B514C0AD8B448EF17F02A0AD8B435
:102ECA004CEF17F00A0AD8B448EF17F050EF17F092
:102EDA00A6C0F6FFA7C0F7FF000EF86E0800F5506F
:102EEA00660AD8A47BEF17F07DEF17F009EF18F008
:102EFA00B3EF17F099C0D9FF9AC0DAFFDFCF9BF082
:102F0A00040EDE26DFCF9CF0000EDD229BC0D9FF27
:102F1A009CC0DAFFDECF9DF0DECF9EF0DECF9FF0C1
:102F2A00DECFA0F0C8EF17F099C0D9FF9AC0DAFF38
:102F3A00DFCF9BF0040EDE26DFCF9CF0000EDD22F1
:102F4A009BC0D9FF9CC0DAFFDECF9DF0DECF9EF09A
:102F5A00DECF9FF0DECFA0F0C8EF17F0A5519B6F30
:102F6A009C6B9C51000AD8B4BDEF17F0C8EF17F05C
:102F7A009B514C0AD8B499EF17F0200AD8B47FEFC6
:102F8A0017F0C8EF17F0010EA6259B6F000EA721B8
:102F9A009C6F97C0D9FF98C0DAFF9BC0DEFF9CC028
:102FAA00DDFFF1EF17F095C060F096C061F09DC0AB
:102FBA0062F09EC063F09FC064F0A0C065F0A6C036
:102FCA00F6FFA7C0F7FF000EF86E0800F5CF66F00F
:102FDA002DEC07F028EF18F0A6C0F6FFA7C0F7FF00
:102FEA00000EF86E0800F5509B6F9C6B9C51000A0E
:102FFA00D8B402EF18F009EF18F09B51660AD8B45A
:10300A00D8EF17F009EF18F097C0D9FF98C0DAFF88
:10301A00DE2A000EDD2228EF18F097C0D9FF98C0EB
:10302A00DAFFDECFF6FFDDCFF7FF000EF86E0800FD
:10303A00F550016E026A95C003F096C004F025ECC3
:10304A0021F009EF18F012001EC034F01FC035F04D
:10305A0020C036F021C037F022C038F023C039F042
:10306A0024C03AF025C03BF03BBE3EEF18F041EFDA
:10307A0018F0010E42EF18F0000E3E6E3E50D8B422
:10308A0049EF18F04BEF18F05BEF18F03B1E3A1EB1
:10309A00391E381E371E361E351E346C000E352278
:1030AA0036223722382239223A223B220001F2BF45
:1030BA0069EF18F0F25106E1F105D8B067EF18F0A0
:1030CA0069EF18F06FEF18F0000E316E010E306ED6
:1030DA0073EF18F0F1C030F0F2C031F0EFC032F007
:1030EA00F0C033F03E50D8B47DEF18F07FEF18F0FF
:1030FA0096EF18F03206D8A033063E50D8A488EFCF
:10310A0018F08AEF18F090EF18F0000E2F6E2B0EC1
:10311A002E6E94EF18F0000E2F6E2D0E2E6E2EC00E
:10312A003EF0000E3D6E4F0E3C6E000E01015F6FC9
:10313A001BEF19F03C06D8A03D06100E3C24D96EB0
:10314A00010E3D20DA6E34C001F035C002F036C0FF
:10315A0003F037C004F038C005F039C006F03AC0B1
:10316A0007F03BC008F00A0E096E000E0A6E000E48
:10317A000B6E000E0C6E000E0D6E000E0E6E000E23
:10318A000F6E000E106EEFEC1EF001C026F002C0AA
:10319A0027F003C028F004C029F005C02AF006C0B1
:1031AA002BF007C02CF008C02DF026C013F027C062
:1031BA0014F0A4EC25F01350300FDF6E3006D8A0BF
:1031CA0031063206D8A0330634C001F035C002F009
:1031DA0036C003F037C004F038C005F039C006F035
:1031EA003AC007F03BC008F00A0E096E000E0A6EDC
:1031FA00000E0B6E000E0C6E000E0D6E000E0E6EA3
:10320A00000E0F6E000E106E75EC1DF001C034F04A
:10321A0002C035F003C036F004C037F005C038F0FC
:10322A0006C039F007C03AF008C03BF03DBE26EFB1
:10323A0019F03D5008E13C04D8A026EF19F028EF18
:10324A0019F044EF19F03450351036103710381091
:10325A0039103A103B10D8A435EF19F037EF19F0AE
:10326A009FEF18F031BE44EF19F0315006E13004F7
:10327A00D8B042EF19F044EF19F09FEF18F03E5022
:10328A00D8B44AEF19F04CEF19F057EF19F03C0691
:10329A00D8A03D06100E3C24D96E010E3D20DA6EF0
:1032AA003EC0DFFF1CC011F01DC012F0100E3C24FE
:1032BA00136E010E3D20146E32C015F033C016F0A5
:1032CA00B1EC22F0120082EC26F0B7EC26F0DEEC2C
:1032DA0023F013EC26F0000E026EC80E016E2EECDF
:1032EA0022F072EC26F087928198869E86840E01DF
:1032FA00B4958686B4977F8279887E8E7C9E849EDA
:10330A0080968896809088907E9086907C98849803
:10331A007C968496000E0101756F010E766F010E80
:10332A00776FAA0E7A6F0F0E7B6FA60E7C6F0F0E49
:10333A007D6F000E796FC80E786F000E6C6F010EEC
:10334A006D6F010E6E6F250E716F0F0E726F210E6B
:10335A00736F0F0E746F000E706FC80E6F6F000ED2
:10336A000F6F010E0E6F0C690D69750E206E010E3E
:10337A00216E6C0E226E010E236EABEC1BF07E905A
:10338A00520E0001D26F2B0ED16F000EE82EFED71F
:10339A00D12FFCD7D22FFAD700F08EB4D7EF19F07D
:1033AA00D9EF19F0D2EF19F0520E0001D26F2B0E9D
:1033BA00D16F000EE82EFED7D12FFCD7D22FFAD725
:1033CA0000F0D58E96EF1AF07E0E0C6E010E0D6E81
:1033DA005BEC23F07E0E4B6E010E4C6E600E4D6E52
:1033EA00010E4E6E0FEC15F0010185BF06EF1AF0C3
:1033FA00F40E845D010E8559D8A006EF1AF008EF85
:10340A001AF063EF1AF00C4B0D2B4FEC26F0750EE9
:10341A00146E010E156E6C0E166E010E176E72EC9E
:10342A0022F0110E0001D26F3C0ED16FCB0EE82EA6
:10343A00FED7D12FFCD7D22FFAD77E0E4B6E010EB4
:10344A004C6E600E4D6E010E4E6E2AEC0CF04BC0A7
:10345A00EAF14CC0EBF1860E0001B06F010EB16FBC
:10346A00010EB26F0E0EB36F60C1B4F061C1B5F058
:10347A0062C1B6F063C1B7F064C1B8F065C1B9F012
:10348A0066C1BAF067C1BBF068C1BCF069C1BDF0E2
:10349A006AC1BEF06BC1BFF084C1C0F085C1C1F082
:1034AA00EAC1C2F0EBC1C3F0B5EC23F0860E026E9E
:1034BA00010E036EFBEC25F096EF1AF07E0E4B6EB2
:1034CA00010E4C6E600E4D6E010E4E6E2AEC0CF023
:1034DA00860E0001B06F010EB16F2D0EB26F0E0E87
:1034EA00B36F60C1B4F061C1B5F062C1B6F063C137
:1034FA00B7F064C1B8F065C1B9F066C1BAF067C186
:10350A00BBF068C1BCF069C1BDF06AC1BEF06BC155
:10351A00BFF084C1C0F085C1C1F0B5EC23F05BEF08
:10352A001AF001010E510F11D8A49EEF1AF0A0EF64
:10353A001AF0E9EF19F000EF00F0E7C05BF0E8C01D
:10354A005CF0E9C05DF0EAC05EF04BC05BF04CC0D5
:10355A005CF04DC05DF04EC05EF0810E4F6EFF0E06
:10356A00506E5BC051F05CC052F05DC053F05EC05B
:10357A0054F0180EC6EF1AF0D89054325332523221
:10358A005132E82EC1EF1AF051504F24596E000EF5
:10359A0050205A6E5ABEDBEF1AF05A5009E1170E44
:1035AA00595CD8A0DBEF1AF0DDEF1AF0E7EF1AF05A
:1035BA004BC04BF04CC04CF04DC04DF04EC04EF0DD
:1035CA00AAEF1BF05ABEECEF1AF0EEEF1AF05EEF1C
:1035DA001BF059C04FF0FF0E506EFF0E516E7F0E5A
:1035EA00526E000E536E4F66FDEF1AF005EF1BF098
:1035FA00533453325232513250324F2EF8EF1AF0BE
:10360A0050C055F051C056F052C057F053C058F050
:10361A0055505B144F6E56505C14506E57505D14E3
:10362A00516E58505E14526E4F5050105110521035
:10363A00D8A422EF1BF024EF1BF026EF1BF0DDEFDE
:10364A001AF05BC04FF05CC050F05DC051F05EC034
:10365A0052F0200E36EF1BF0D890523251325032CF
:10366A004F32E82E31EF1BF04F50501051105210CC
:10367A00D8B442EF1BF044EF1BF04CEF1BF055504F
:10368A005B2656505C2257505D2258505E22551CCC
:10369A004F6E561C506E571C516E581C526E4F502E
:1036AA005B1650505C1651505D1652505E16A2EFD2
:1036BA001BF05BC04FF05CC050F05DC051F05EC0C3
:1036CA0052F0200E6EEF1BF0D89052325132503227
:1036DA004F32E82E69EF1BF04F5050105110521024
:1036EA00D8A47AEF1BF07CEF1BF086EF1BF0000EDC
:1036FA005B6E000E5C6E000E5D6E000E5E6EA2EFDB
:10370A001BF0D8905B344F6E5C34506E5D34516E52
:10371A005E34526E4F50501051105210D8B498EF78
:10372A001BF09AEF1BF0A2EF1BF0000E5B6E000E6F
:10373A005C6E800E5D6EBF0E5E6E5BC04BF05CC051
:10374A004CF05DC04DF05EC04EF012007E80520E0D
:10375A00256E2B0E246E000EE82EFED7242EFCD7E3
:10376A00252EFAD700D072EF1CF07C86750E1A6EE1
:10377A00010E1B6E6C0E1C6E010E1D6ECFEC24F03A
:10378A00750E1A6E010E1B6E6C0E1C6E010E1D6EEE
:10379A00CFEC24F0750E1A6E010E1B6E6C0E1C6EA9
:1037AA00010E1D6ECFEC24F0750E1A6E010E1B6E03
:1037BA006C0E1C6E010E1D6ECFEC24F057EF1CF040
:1037CA007C88A30E256E570E246E020EE82EFED7B5
:1037DA00242EFCD7252EFAD700D08EA4F7EF1BF0A3
:1037EA00FAEF1BF0010EFBEF1BF0000E246E8EA603
:1037FA0001EF1CF004EF1CF0010E05EF1CF0000EA7
:10380A002414E8A00BEF1CF00DEF1CF01FEF1CF0C6
:10381A0080867C8E520E256E2B0E246E000EE82EAC
:10382A00FED7242EFCD7252EFAD700D080967C9E70
:10383A0057EF1CF08EB624EF1CF026EF1CF03BEF7E
:10384A001CF00A0E0001FB27000EFC238086520E94
:10385A00256E2B0E246E000EE82EFED7242EFCD7E2
:10386A00252EFAD700D0809657EF1CF08EB440EF81
:10387A001CF042EF1CF057EF1CF00001F60EFB277C
:10388A00FF0EFC237C8E520E256E2B0E246E000E2C
:10389A00E82EFED7242EFCD7252EFAD700D07C9E00
:1038AA0057EF1CF08EA45CEF1CF05EEF1CF065EF86
:1038BA001CF08EB663EF1CF065EF1CF0E5EF1BF011
:1038CA007C98A30E256E570E246E020EE82EFED7A4
:1038DA00242EFCD7252EFAD700D08EA677EF1CF01F
:1038EA007AEF1CF0010E7BEF1CF0000E246E8EA402
:1038FA0081EF1CF084EF1CF0010E85EF1CF0000E26
:10390A002414E8A08BEF1CF08DEF1CF0BAEF1BF02B
:10391A007C96A30E256E570E246E020EE82EFED755
:10392A00242EFCD7252EFAD700D01200096E095092
:10393A00D8B4A2EF1CF0A4EF1CF0C6EF1CF004BE32
:10394A00ABEF1CF0A9EF1CF0C6EF1CF001C005F0AC
:10395A0002C006F003C007F004C008F0051E061EE8
:10396A00071E081E052A000E06220722082205C085
:10397A000BF006C00CF007C00DF008C00EF0CEEF39
:10398A001CF001C00BF002C00CF003C00DF004C023
:10399A000EF00150021003100410D8A4D7EF1CF047
:1039AA00D9EF1CF0E3EF1CF0000E016E000E026E60
:1039BA00000E036E000E046E74EF1DF0960E0A6E72
:1039CA00EDEF1CF00A2AD8900E320D320C320B326F
:1039DA00000E0B14056E000E0C14066E000E0D146C
:1039EA00076EFE0E0E14086E05500610071008101A
:1039FA00D8A402EF1DF004EF1DF0E7EF1CF012EF60
:103A0A001DF00A2A010E0B26000E0C220D220E2290
:103A1A00D8900E320D320C320B32000E0B14056E9A
:103A2A00000E0C14066E000E0D14076EFF0E0E1417
:103A3A00086E0550061007100810D8A427EF1DF0CD
:103A4A0029EF1DF006EF1DF031EF1DF00A06D890A0
:103A5A000B360C360D360E360DBE36EF1DF038EF2E
:103A6A001DF040EF1DF0020E0A603EEF1DF040EF20
:103A7A001DF02BEF1DF00AB045EF1DF047EF1DF0CA
:103A8A0048EF1DF00D9ED8900A320AC005F0066A6A
:103A9A00076A086A05C008F0076A066A056A0550D7
:103AAA000B1206500C1207500D1208500E12095034
:103ABA00D8B462EF1DF064EF1DF06CEF1DF004BE88
:103ACA006BEF1DF069EF1DF06CEF1DF00E8E0BC051
:103ADA0001F00CC002F00DC003F00EC004F0120099
:103AEA00000E126E10BE7EEF1DF07CEF1DF090EFFF
:103AFA001DF0101E0F1E0E1E0D1E0C1E0B1E0A1E82
:103B0A00096C000E0A220B220C220D220E220F2211
:103B1A001022010E126E08BE97EF1DF095EF1DF0F0
:103B2A00A9EF1DF0081E071E061E051E041E031E11
:103B3A00021E016C000E0222032204220522062222
:103B4A0007220822010E121A20EE13F0070EDE6A6F
:103B5A00E806FDE209500A100B100C100D100E10A9
:103B6A000F101010D8B4BCEF1DF0BEEF1DF010EF0F
:103B7A001EF0010E116ECCEF1DF0D89009360A36F0
:103B8A000B360C360D360E360F361036112A10AE9D
:103B9A00D1EF1DF0D3EF1DF0C2EF1DF0D890133610
:103BAA001436153616361736183619361A36095097
:103BBA00015C0A5002580B5003580C5004580D501F
:103BCA0005580E5006580F50075810500858D8A0DC
:103BDA00F1EF1DF0F3EF1DF004EF1EF00950015E46
:103BEA000A50025A0B50035A0C50045A0D50055AE7
:103BFA000E50065A0F50075A1050085A1380D89080
:103C0A0010320F320E320D320C320B320A320932B6
:103C1A00112ED3EF1DF01250D8B416EF1EF018EF84
:103C2A001EF028EF1EF01A1E191E181E171E161E49
:103C3A00151E141E136C000E1422152216221722AA
:103C4A00182219221A2213C001F014C002F015C05A
:103C5A0003F016C004F017C005F018C006F019C02A
:103C6A0007F01AC008F0120020EE02F00E50D92612
:103C7A000F50DA22DF50D8B445EF1EF047EF1EF09E
:103C8A007BEF1EF00EC0D9FF0FC0DAFFDF50106EB7
:103C9A001050016E026A20EE03F00E50D9260F5022
:103CAA00DA22DECF03F0DDCF04F03CEC26F001C0CF
:103CBA0007F002C008F0000E0A6E640E096EEEEC00
:103CCA0022F020EE03F00E50D9260F50DA22DF50F0
:103CDA00116E0750115C126E20EE03F00E50D926B9
:103CEA000F50DA22DF50136E9EEF1EF0000E126E96
:103CFA000EC0D9FF0FC0DAFFDF50106E1050016EF0
:103D0A00026A20EE03F00E50D9260F50DA22DECFD7
:103D1A0003F0DDCF04F03CEC26F001C007F002C04E
:103D2A0008F0000E0A6E640E096EEEEC22F00750DF
:103D3A00136E20EE01F00E50D9260F50DA22DF5012
:103D4A00D8B4AAEF1EF0ACEF1EF0CEEF1EF020EEB4
:103D5A0005F00E50D9260F50DA22DECF10F0DDCF53
:103D6A0011F010C0D9FF11C0DAFF12C0DFFF20EE38
:103D7A0007F00E50D9260F50DA22DECF10F0DDCF31
:103D8A0011F010C0D9FF11C0DAFF13C0DFFFEEEF48
:103D9A001EF020EE05F00E50D9260F50DA22DECFA3
:103DAA0010F0DDCF11F010C0D9FF11C0DAFF13C037
:103DBA00DFFF20EE07F00E50D9260F50DA22DECFB1
:103DCA0010F0DDCF11F010C0D9FF11C0DAFF12C018
:103DDA00DFFF1200000E126E08BEF8EF1EF0F6EFBB
:103DEA001EF00AEF1FF0081E071E061E051E041EFF
:103DFA00031E021E016C000E022203220422052267
:103E0A00062207220822010E126E10BE11EF1FF0C1
:103E1A000FEF1FF021EF1FF0101E0F1E0E1E0D1EBA
:103E2A000C1E0B1E0A1E096C000E0A220B220C2203
:103E3A000D220E220F22102209500A100B100C100C
:103E4A000D100E100F101010D8B42EEF1FF030EF17
:103E5A001FF078EF1FF0010E116E3EEF1FF0D890A1
:103E6A0009360A360B360C360D360E360F36103634
:103E7A00112A10AE43EF1FF045EF1FF034EF1FF089
:103E8A000950015C0A5002580B5003580C50045850
:103E9A000D5005580E5006580F5007581050085824
:103EAA00D8A05AEF1FF05CEF1FF06CEF1FF009501B
:103EBA00015E0A50025A0B50035A0C50045A0D5014
:103ECA00055A0E50065A0F50075A1050085AD890E1
:103EDA0010320F320E320D320C320B320A320932E4
:103EEA00112E45EF1FF01250D8B47EEF1FF080EF6D
:103EFA001FF090EF1FF0081E071E061E051E041E67
:103F0A00031E021E016C000E022203220422052255
:103F1A0006220722082201C001F002C002F003C0F3
:103F2A0003F004C004F005C005F006C006F007C09F
:103F3A0007F008C008F01200033404340A6E0A506D
:103F4A00D8A4AAEF1FF0ACEF1FF0B6EF1FF0000ED7
:103F5A00016E000E026E000E036E000E046E23EF59
:103F6A0020F001C005F002C006F003C007F004C04B
:103F7A0008F0200EC6EF1FF0D8900832073206323A
:103F8A000532E82EC1EF1FF00550096E038EFF0EB1
:103F9A000116FF0E0216FF0E0316000E0416960EE9
:103FAA000A5E0ABEDDEF1FF0DBEF1FF0F3EF1FF032
:103FBA000A50800A970FD8B0E5EF1FF0E7EF1FF01D
:103FCA00E9EF1FF0ACEF1FF0D8900432033202324F
:103FDA0001320A3EE9EF1FF00BEF20F01F0E0A64D0
:103FEA00F9EF1FF0FBEF1FF003EF20F0ACEF1FF02B
:103FFA00D89001360236033604360A060A50D8A487
:10400A0009EF20F00BEF20F0FDEF1FF00950D8B4B4
:10401A0011EF20F013EF20F01BEF20F0041E031E17
:10402A00021E016C000E02220322042201C001F0CA
:10403A0002C002F003C003F004C004F01200000E34
:10404A002A14326E000E2B14336E800E2C14346E2A
:10405A007F0E2D14356E3250331034103510D8A41B
:10406A0039EF20F03BEF20F043EF20F0000E2A6EEC
:10407A00000E2B6E000E2C6E000E2D6E000E2E14EE
:10408A00326E000E2F14336E800E3014346E7F0E93
:10409A003114356E3250331034103510D8A458EF1D
:1040AA0020F05AEF20F062EF20F0000E2E6E000E84
:1040BA002F6E000E306E000E316E2DAE67EF20F0BF
:1040CA0069EF20F072EF20F02A6C2B1ED8B02B2A51
:1040DA002C1ED8B02C2A800E2D5631AE77EF20F048
:1040EA0079EF20F082EF20F02E6C2F1ED8B02F2A05
:1040FA00301ED8B0302A800E3156000E2A1A000E11
:10410A002B1A000E2C1A800E2D1A000E2E1A000ED3
:10411A002F1A000E301A800E311A2E502A5C2F5098
:10412A002B5830502C5831502D58D8B09FEF20F0D2
:10413A00A1EF20F0A4EF20F0D890A5EF20F0D880CE
:10414A001200EBC00BF0ECC00CF0EDC00DF0EEC0AD
:10415A000EF001C00BF002C00CF003C00DF004C059
:10416A000EF00BC005F00CC006F00DC007F00EC033
:10417A0008F0180EC6EF20F0D8900832073206323F
:10418A000532E82EC1EF20F00550096E0A6A09507F
:10419A000A10D8A4D3EF20F0D5EF20F0F5EF20F0E5
:1041AA00D8900B34056E0C34066E0D34076E0E343F
:1041BA00086E0550061007100810D8A4E7EF20F083
:1041CA00E9EF20F0EFEF20F0000E026E020E016E12
:1041DA0024EF21F0000E026E030E016E24EF21F08F
:1041EA0009280A10D8A4FCEF20F0FEEF20F020EFF7
:1041FA0021F00BC005F00CC006F00DC007F00EC090
:10420A0008F0090ED8900536063607360836E82E25
:10421A0007EF21F00550061007100810D8B418EF60
:10422A0021F01BEF21F0010E1CEF21F0000E016EB0
:10423A00026A24EF21F0000E026E040E016E1200D3
:10424A0003500410D8B42CEF21F02EEF21F037EFF1
:10425A0021F003500410D8A435EF21F037EF21F0F4
:10426A003CEF21F00150B6EC26F089EF21F020EE68
:10427A0009F00350D9260450DA22DE50DE10D8B4F1
:10428A0049EF21F04BEF21F066EF21F020EE09F023
:10429A000350D9260450DA2210EE03F00350E12627
:1042AA000450E222DE50E65CE650800A096EDE50D7
:1042BA00800A0958D8B064EF21F066EF21F089EF3F
:1042CA0021F020EE03F00350D9260450DA22DECF83
:1042DA0005F0DDCF06F003C0D9FF04C0DAFFDECF58
:1042EA0007F0DDCF08F005500724D96E06500820E4
:1042FA00DA6E01C0DFFF20EE03F00350D926045026
:10430A00DA22DE2A000EDD221200000E32143A6E84
:10431A00000E33143B6E800E34143C6E7F0E35143F
:10432A003D6E3A503B103C103D10D8A49FEF21F04F
:10433A00A1EF21F0A9EF21F0000E326E000E336ECC
:10434A00000E346E000E356E000E36143A6E000EF4
:10435A0037143B6E800E38143C6E7F0E39143D6E56
:10436A003A503B103C103D10D8A4BEEF21F0C0EFEC
:10437A0021F0C8EF21F0000E366E000E376E000EE7
:10438A00386E000E396E365032180FE13750331836
:10439A000CE13850341809E139503518D8B4D8EF3F
:1043AA0021F0DAEF21F0DDEF21F0D890DEEF21F0F5
:1043BA00D880120020EE01F01450D9261550DA22C6
:1043CA00000EDF6E20EE01F01650D9261750DA22C1
:1043DA00010EDF6E15EF22F014C0D9FF15C0DAFF07
:1043EA000A0EDF2616C0D9FF17C0DAFF0A0EDF262B
:1043FA0014C00EF015C00FF039EC1EF016C00EF006
:10440A0017C00FF039EC1EF0020E196EA00E186ECE
:10441A00920EE82EFED7182EFCD7192EFAD700D006
:10442A0014C0D9FF15C0DAFF1E0EDF601FEF22F09D
:10443A0021EF22F02DEF22F016C0D9FF17C0DAFFC4
:10444A001D0EDF642BEF22F02DEF22F0F1EF21F0A9
:10445A001200050E0E01746F060E766F070E696F55
:10446A00080E886F85948598839E879CBD508F0B14
:10447A003009BD6EE00EBE16BF50F00B0109BF6ECB
:10448A0001C0BCFFBD8E000EAA6E000EA66E000E05
:10449A000F01256F000E216FFC0EAD16F30EAD163F
:1044AA00CF0EAD163F0EAD16AB88AB50F00B0C0914
:1044BA00AB6EAB8EA788A750F00B0C09A76EA78E20
:1044CA0026892651F00B0C09266F268F2289225144
:1044DA00F00B0C09226F228F120098EF22F014C001
:1044EA00D9FF15C0DAFF0A0EDF5E16C0D9FF17C062
:1044FA00DAFF0A0EDF5E14C00EF015C00FF039ECB9
:10450A001EF016C00EF017C00FF039EC1EF0020EA6
:10451A00196EA00E186E920EE82EFED7182EFCD732
:10452A00192EFAD700D014C0D9FF15C0DAFFDF5010
:10453A00D8A4A2EF22F0A4EF22F074EF22F016C062
:10454A00D9FF17C0DAFFDF50D8A4AEEF22F0B0EFE0
:10455A0022F074EF22F0120016BEB6EF22F0B8EF86
:10456A0022F0BEEF22F015C01AF016C01BF0C2EFFF
:10457A0022F0000E1B6E000E1A6E000E196E000E4F
:10458A00186ED4EF22F0000E026E200E016E11C0DA
:10459A0003F012C004F025EC21F0184A192A1A5027
:1045AA00185C1950800A176E1B50800A1758D8A039
:1045BA00E1EF22F0E3EF22F0C8EF22F013C00AF095
:1045CA0014C00BF011C00CF012C00DF061EC25F014
:1045DA001200000E0C6E000E0B6E09500A10D8B4B1
:1045EA00F9EF22F0FBEF22F023EF23F0010E0D6E1C
:1045FA0003EF23F0D89009360A360D2A0AAE08EFDF
:10460A0023F00AEF23F0FFEF22F0D8900B360C3696
:10461A000950075C0A500858D8A016EF23F018EF83
:10462A0023F01DEF23F00950075E0A50085A0B8049
:10463A00D8900A3209320D2E0AEF23F00BC007F088
:10464A000CC008F0120004BE37EF23F00450031028
:10465A00021006E10104D8B035EF23F037EF23F05A
:10466A0052EF23F001C005F002C006F003C007F0C4
:10467A0004C008F0051E061E071E081E052A000EA5
:10468A0006220722082205C001F006C002F007C070
:10469A0003F008C004F05AEF23F001C001F002C091
:1046AA0002F003C003F004C004F0120057EC24F037
:1046BA000CC0D9FF0DC0DAFF05C0DEFF06C0DDFF62
:1046CA00A7EC24F020EE04F00C50D9260D50DA2283
:1046DA0005C0DEFF06C0DDFF7FEC24F020EE02F00D
:1046EA000C50D9260D50DA2205C0DEFF06C0DDFFC8
:1046FA002FEC24F020EE06F00C50D9260D50DA22C9
:10470A0005C0DEFF06C0DDFF1200AAC0AEF0ABC0D6
:10471A00AFF09FEF23F0A8C095F0A9C096F0AE0EB7
:10472A000001976F000E986FACC099F0ADC09AF077
:10473A00A6EC16F0AEC0F6FFAFC0F7FF000EF86E9B
:10474A000800F5500009D8A4ADEF23F0AFEF23F02D
:10475A0090EF23F0000E0001A96F000EA86F12005F
:10476A00B40E0001C46F000EC56FB0C0C6F0B1C070
:10477A00C7F0000ECA6F000EC96F000ED06F000E90
:10478A00CF6FC60EA86F000EA96FB2C0AAF0B3C051
:10479A00ABF0C40EAC6F000EAD6F8AEC23F00001D3
:1047AA00C951B025D96ECA51B121DA6E000EDF6E39
:1047BA00120013EC26F0010E036E000E62EC26F0D6
:1047CA003F0E056E550EE82EFED7052EFCD700F0DB
:1047DA00030E036E000E62EC26F0D50E036E010E78
:1047EA0062EC26F0000E036E0F0E62EC26F0879242
:1047FA008198869E849684987F927E9E79987C96EC
:10480A007C98120003C009F004C00AF001C007F046
:10481A0002C008F021EF24F009C0D9FF0AC0DAFF6C
:10482A00DF500B6E094A0A2A07C0D9FF08C0DAFF0F
:10483A000BC0DFFF074A082A0506D8A00606052886
:10484A0006E10628D8A42CEF24F02EEF24F011EF6D
:10485A0024F01200ADEC26F0520E9DEC26F0B40EB8
:10486A009DEC26F0A3EC26F0530E9DEC26F0010EEB
:10487A0083EC25F0076E07500A6E0B6A000E83EC74
:10488A0025F0076E0750096E086A0A5008100A6E6A
:10489A000B5009100B6EA8EC26F00AC005F00BC0ED
:1048AA0006F01200ADEC26F0520E9DEC26F0B60E84
:1048BA009DEC26F0A3EC26F0530E9DEC26F0010E9B
:1048CA0083EC25F0076E07500A6E0B6A000E83EC24
:1048DA0025F0076E0750096E086A0A5008100A6E1A
:1048EA000B5009100B6EA8EC26F00AC005F00BC09D
:1048FA0006F01200ADEC26F0520E9DEC26F0B80E32
:10490A009DEC26F0A3EC26F0530E9DEC26F0010E4A
:10491A0083EC25F0076E07500A6E0B6A000E83ECD3
:10492A0025F0076E0750096E086A0A5008100A6EC9
:10493A000B5009100B6EA8EC26F00AC005F00BC04C
:10494A0006F01200ADEC26F0520E9DEC26F0BA0EDF
:10495A009DEC26F0A3EC26F0530E9DEC26F0010EFA
:10496A0083EC25F0076E07500A6E0B6A000E83EC83
:10497A0025F0076E0750096E086A0A5008100A6E79
:10498A000B5009100B6EA8EC26F00AC005F00BC0FC
:10499A0006F012001AC014F01BC015F01CC016F065
:1049AA001DC017F0DFEC21F0FBC001F0FCC002F0E3
:1049BA00E0EC25F0750E146E010E156E6C0E166E77
:1049CA00010E176E72EC22F0050E1F6E0F0E1E6E90
:1049DA00F10EE82EFED71E2EFCD71F2EFAD700F0B6
:1049EA001200640EF66E4D0EF76E000EF86E00EEB3
:1049FA00F9F010EE07F00900F5CFEEFFE550E150AF
:104A0A00FAE102EE00F0D20EEE6AE806FDE101EEEE
:104A1A0000F0860EEE6AE806FDE100EED3F0260EFF
:104A2A00EE6AE806FDE15F6A000168EF19F0000E20
:104A3A002E1A000E2F1A000E301A800E311A2AC0B2
:104A4A0001F02BC002F02CC003F02DC004F02EC0E0
:104A5A0005F02FC006F030C007F031C008F0CDECE9
:104A6A000EF001C02AF002C02BF003C02CF004C0E3
:104A7A002DF0120003C005F004C006F001C007F0D3
:104A8A0002C008F005C0F6FF06C0F7FF054A062A6D
:104A9A00000EF86E07C0D9FF08C0DAFF074A082AD5
:104AAA000800F5CFDFFFDF50D8A45EEF25F060EFF6
:104ABA0025F047EF25F01200000E106E000E0F6E63
:104ACA0072EF25F00EC001F0026A0CC003F00DC0AF
:104ADA0004F025EC21F00F4A102A0F500A24D96E4F
:104AEA0010500B20DA6EDF500E6E0E50D8A480EFF5
:104AFA0025F082EF25F067EF25F01200036E28EC0F
:104B0A0026F00E01DA8728EC26F0D5CE04F028EC40
:104B1A0026F00350D8B494EF25F098EF25F0026AF6
:104B2A00022A99EF25F0026A023A02460E01DA5188
:104B3A000218DF0B0218DA6FDA890450120014BE69
:104B4A00B1EF25F0145006E11304D8B0AFEF25F009
:104B5A00B1EF25F0BFEF25F013C015F014C016F021
:104B6A00151E161E154A162A15C013F016C014F083
:104B7A00C3EF25F013C013F014C014F01200015053
:104B8A00021003100410D8B4CDEF25F0CFEF25F0B2
:104B9A00D7EF25F0000E011A000E021A000E031AB2
:104BAA00800E041A01C001F002C002F003C003F033
:104BBA0004C004F01200EDEF25F0150E036EC60EC8
:104BCA00E82EFED7032EFCD700D00106D8A0020695
:104BDA0002BEFAEF25F0025006E10104D8B0F8EF60
:104BEA0025F0FAEF25F0E2EF25F0120006EF26F0A5
:104BFA0002C0D9FF03C0DAFFDF5091EC26F0024A67
:104C0A00032A02C0D9FF03C0DAFFDF50D8A410EF8D
:104C1A0026F012EF26F0FDEF25F012000E01D95111
:104C2A00F00B0809D96FD98B9F0ED66F848A848CB2
:104C3A00A79BA79D1D0E1D6F1E0E1C6F1C0E6F6F6E
:104C4A001B0E706F12000E01D8B52EEF26F030EF52
:104C5A0026F028EF26F0DACE01F01F0E0116D8A4AE
:104C6A0039EF26F03BEF26F028EF26F0120001502C
:104C7A000302F3CF05F0F4CF06F001500402F3501B
:104C8A00062602500302F350062605C001F006C0AC
:104C9A0002F01200D350D450026E016AD89001017A
:104CAA000C35D96E0D35DA6E000ED926020EDA22CF
:104CBA0001C0DEFF02C0DDFF1200046EADEC26F07B
:104CCA00520E9DEC26F0045080099DEC26F003500C
:104CDA009DEC26F0A8EC26F01200D6501F0B4009D6
:104CEA00D66ED688D650F00B0E09D66ED588000E31
:104CFA00D46E000ED36ED59E1200120E0E01626F94
:104D0A00110E156FE997E895330EE56F000EE66F01
:104D1A00E789E88BE78F1200016E0E0137A598EF3D
:104D2A0026F09AEF26F092EF26F001C0E4FE120078
:104D3A00026E28EC26F002C0D5FE120028EC26F0FE
:104D4A000E01DA83120028EC26F00E01DA85120031
:104D5A0028EC26F00E01DA811200D007DC001E00D2
:014D6A000147
:044D6C00120012001F
:020000040020DA
:10000000FF0FFF0FFF0FFF0FFF0FFF0FFF0FFF0F80
:020000040030CA
:0C000000AAFFFFFF9FFFFFFFFFFFFFFFB5
:00000001FF
