:040000001AEF00F003
:100008005F820E0133AB0BEF00F00DEF00F018EF3D
:1000180000F0000ED46E000ED36E000E0101156FB5
:10002800010E146F0E01339B5F92110078EF2AF0D6
:100E0000007265643D256620677265656E3D2566E6
:100E100020626C75653D2566206C756D3D256420EE
:100E200061637475616C5F636F6C6F75723D25648F
:0D0E3000200D0A00696E66006E616E000004
:100E3E00000E00018A6F62C08DF063C08EF064C038
:100E4E008FF065C090F090BF31EF07F02FEF07F0F5
:100E5E0045EF07F0010E8A6F8DC001F08EC002F0D3
:100E6E008FC003F090C004F09BEC2FF001C08DF00A
:100E7E0002C08EF003C08FF004C090F0000E00018F
:100E8E008C6F000E8B6FE7C07AF0E8C07BF08A5152
:100E9E00D8B454EF07F056EF07F06AEF07F08A5117
:100EAE00D8A45CEF07F05EEF07F064EF07F0000EDA
:100EBE00706F2B0E6F6F68EF07F0000E706F2D0EB8
:100ECE006F6F6FC08AF08DC001F08EC002F08FC0C0
:100EDE0003F090C004F0C1EC25F001040210D8A478
:100EEE007BEF07F07DEF07F0B0EF07F000018A51BE
:100EFE00D8B484EF07F086EF07F08FEF07F08AC0C3
:100F0E00A0F27A07D8A07B07000E8C6F010E8B6FB4
:100F1E00A00E8B25016E020E8C21026E340E036E16
:100F2E000E0E046ED8EC2EF00001FD0E7A27FF0E89
:100F3E007B2360C011F061C012F0A00E136E020E82
:100F4E00146E7AC015F07BC016F0C4EC29F01BEFBE
:100F5E000CF08DC001F08EC002F08FC003F090C077
:100F6E0004F0C1EC25F001500210D8A4C1EF07F037
:100F7E00C3EF07F0E3EF07F000018A51D8B4CAEFD0
:100F8E0007F0CCEF07F0D5EF07F08AC0A0F27A0792
:100F9E00D8A07B07000E8C6F010E8B6FA00E8B25D9
:100FAE00016E020E8C21026E380E036E0E0E046E52
:100FBE00D8EC2EF09BEF07F0000E0001916F000EA3
:100FCE00926F800E936F3F0E946F000E796F000E2E
:100FDE00786F8DC032F08EC033F08FC034F090C079
:100FEE0035F0000E366E000E376E000E386E000EA7
:100FFE00396EB0EC27F0D8B007EF08F009EF08F023
:10100E00E8EF08F016EF08F07CC091F07DC092F08A
:10101E007EC093F07FC094F00001784B792B91C085
:10102E0011F092C012F093C013F094C014F0000EA1
:10103E00156E000E166E200E176E410E186E76ECA3
:10104E0013F011C07CF012C07DF013C07EF014C0FE
:10105E007FF000017C518D5D016E7D518E59026EC7
:10106E007E518F59036E7F519059046EE4EC2AF035
:10107E0004BE4DEF08F004500310021009E1020EF9
:10108E00015CD8A04DEF08F04FEF08F00BEF08F021
:10109E007CC02AF07DC02BF07EC02CF07FC02DF0DE
:1010AE008DC02EF08EC02FF08FC030F090C031F07A
:1010BE003FEC25F0D8A066EF08F068EF08F00BEFD4
:1010CE0008F0000191518D5D016E92518E59026EA4
:1010DE0093518F59036E94519059046EE4EC2AF09B
:1010EE0004BE87EF08F004500310021007E1020E51
:1010FE00015CD8B085EF08F087EF08F0CFEF08F06D
:10110E0091C08DF092C08EF093C08FF094C090F08D
:10111E00E8EF08F091C032F092C033F093C034F093
:10112E0094C035F0000E366E000E376E200E386EFF
:10113E00410E396E8BEC15F032C091F033C092F047
:10114E0034C093F035C094F000017807D8A0790729
:10115E0091518D5D016E92518E59026E93518F5940
:10116E00036E94519059046EE4EC2AF004BECDEF58
:10117E0008F004500310021007E1020E015CD8B013
:10118E00CBEF08F0CDEF08F0CFEF08F087EF08F0C7
:10119E008DC02AF08EC02BF08FC02CF090C02DF099
:1011AE0091C02EF092C02FF093C030F094C031F069
:1011BE003FEC25F0D8A0E6EF08F0E8EF08F091EF4D
:1011CE0008F066C072F072C073F00001EABFF2EF71
:1011DE0008F0F4EF08F0FAEF08F0E9C06BF0EAC09F
:1011EE006CF0FEEF08F0000E6C6F060E6B6F6BC0AE
:1011FE0076F06CC077F0764B772B660E7319D8A409
:10120E000BEF09F00DEF09F02DEF09F079BF14EF98
:10121E0009F012EF09F020EF09F0000E916F000EA9
:10122E00926F800E936F3F0E946F000E796F000ECB
:10123E00786F670E7219D8B427EF09F029EF09F00D
:10124E002DEF09F07851762779517723000E816FB3
:10125E00000E806F8DC082F08EC083F08FC084F040
:10126E0090C085F091C07CF092C07DF093C07EF06E
:10127E0094C07FF0BEEF09F082C032F083C033F02D
:10128E0084C034F085C035F091C036F092C037F08E
:10129E0093C038F094C039F08BEC15F032C04BF09F
:1012AE0033C04CF034C04DF035C04EF0D7EC1FF0CB
:1012BE004BC086F04CC087F04DC088F04EC089F010
:1012CE0086C001F087C002F088C003F089C004F028
:1012DE00BCEC24F001C074F002C075F082C02AF09C
:1012EE0083C02BF084C02CF085C02DF086C015F085
:1012FE0087C016F088C017F089C018F091C011F0A1
:10130E0092C012F093C013F094C014F076EC13F068
:10131E0011C02EF012C02FF013C030F014C031F0F7
:10132E00B5EC2EF02AC082F02BC083F02CC084F0D6
:10133E002DC085F091C032F092C033F093C034F0DE
:10134E0094C035F0000E366E000E376E200E386EDD
:10135E00410E396E8BEC15F032C091F033C092F025
:10136E0034C093F035C094F00001804B812B765140
:10137E00805D8151800A676F7751800A6759D8A0C6
:10138E00CBEF09F0CDEF09F043EF09F091C011F06A
:10139E0092C012F093C013F094C014F0000E156EAC
:1013AE00000E166EA00E176E400E186E76EC13F031
:1013BE0011C086F012C087F013C088F014C089F0F7
:1013CE0082C02AF083C02BF084C02CF085C02DF093
:1013DE0086C02EF087C02FF088C030F089C031F063
:1013EE003FEC25F0D8B0FEEF09F000EF0AF00BEF5E
:1013FE000AF0000E0001866F000E876F000E886FD8
:10140E00000E896F34EF0AF082C032F083C033F0E1
:10141E0084C034F085C035F086C036F087C037F012
:10142E0088C038F089C039F0B0EC27F0D8A022EF90
:10143E000AF024EF0AF034EF0AF0000174B12AEF3B
:10144E000AF02CEF0AF034EF0AF0000E866F000E51
:10145E00876F000E886F000E896F8DC001F08EC0F1
:10146E0002F08FC003F090C004F086C005F087C074
:10147E0006F088C007F089C008F016EC11F001C024
:10148E0082F002C083F003C084F004C085F082C0F5
:10149E002AF083C02BF084C02CF085C02DF0000EF6
:1014AE00156E000E166E200E176E410E186E7CC055
:1014BE0011F07DC012F07EC013F07FC014F076ECF8
:1014CE0013F011C02EF012C02FF013C030F014C064
:1014DE0031F03FEC25F0D8A077EF0AF079EF0AF063
:1014EE00A2EF0AF00001784B792B7CC011F07DC081
:1014FE0012F07EC013F07FC014F0000E156E000EB9
:10150E00166E200E176E410E186E76EC13F011C08B
:10151E007CF012C07DF013C07EF014C07FF0660E1A
:10152E0000017319D8A49EEF0AF0A0EF0AF0A2EF03
:10153E000AF0764B772B7CC091F07DC092F07EC086
:10154E0093F07FC094F078C069F079C06AF0000E15
:10155E000001716F000E6E6F000E6D6F000E816FC9
:10156E00000E806FA0EF0BF082C032F083C033F01C
:10157E0084C034F085C035F091C036F092C037F09B
:10158E0093C038F094C039F08BEC15F032C04BF0AC
:10159E0033C04CF034C04DF035C04EF0D7EC1FF0D8
:1015AE004BC086F04CC087F04DC088F04EC089F01D
:1015BE0086C001F087C002F088C003F089C004F035
:1015CE00BCEC24F002BEF7EF0AF0025007E10A0E5F
:1015DE00015CD8B0F5EF0AF0F7EF0AF007EF0BF069
:1015EE0086C001F087C002F088C003F089C004F005
:1015FE00BCEC24F001C074F002C075F00CEF0BF0DF
:10160E00000E0001756F090E746F00017151D8A4A0
:10161E0013EF0BF015EF0BF03DEF0BF06ABF1CEF65
:10162E000BF01AEF0BF03DEF0BF0A00E8B25D96EE1
:10163E00020E8C21DA6E2E0EDF6E8B4B8C2B7A0700
:10164E00D8A07B07010E716F3DEF0BF0A00E8B251E
:10165E00D96E020E8C21DA6E300EDF6E8B4B8C2B18
:10166E007A07D8A07B076D07D8A06E076D516E1153
:10167E00D8A444EF0BF046EF0BF02DEF0BF0A00EBD
:10168E008B25D96E020E8C21DA6E7451300FDF6EFF
:10169E008B4B8C2B7A07D8A07B0782C02AF083C095
:1016AE002BF084C02CF085C02DF086C015F087C0BD
:1016BE0016F088C017F089C018F091C011F092C0D2
:1016CE0012F093C013F094C014F076EC13F011C026
:1016DE002EF012C02FF013C030F014C031F0B5EC64
:1016EE002EF02AC082F02BC083F02CC084F02DC0C7
:1016FE0085F091C032F092C033F093C034F094C0B4
:10170E0035F0000E366E000E376E200E386E410E1E
:10171E00396E8BEC15F032C091F033C092F034C0BC
:10172E0093F035C094F000016907D8A06A07804B8A
:10173E00812B7651805D8151800A676F7751800AC7
:10174E006759D8B0ADEF0BF0AFEF0BF0BDEF0BF06C
:10175E008CBFBBEF0BF08C5109E14B0E8B5DD8A00B
:10176E00BBEF0BF0BDEF0BF0BBEF0AF0000E816F7D
:10177E004F0E806FA00E8025D96E020E8121DA6E7B
:10178E00000EDF6EA00E676F020E686F8B51675FE3
:10179E008C51685B80516725016E81516821026E04
:1017AE00A00E036E020E046E8BC005F08CC006F008
:1017BE0077EC2DF000018B51805D8B6F8C51815930
:1017CE008C6F8A51D8A4EEEF0BF0F1EF0BF0010EF7
:1017DE00F2EF0BF0000E806F816B8A51D8B4FAEFE6
:1017EE000BF0FCEF0BF007EF0CF08B07D8A08C077B
:1017FE00A00E8B25D96E020E8C21DA6E8AC0DFFF09
:10180E0080517A5F81517B5B60C011F061C012F034
:10181E00A00E8B25136E020E8C21146E7AC015F05D
:10182E007BC016F0C4EC29F01200000E0001726F9E
:10183E00000E736F000E746F000E756F000E766FD4
:10184E00500E776FC30E786F470E796F000E656F6F
:10185E00040E646F20EE66F00B0EDE6AE806FDE203
:10186E004BC0D9FF4CC0DAFFDECF01F0DDCF02F066
:10187E00000E02BEFF0E036E046E010EE0EC20F0B1
:10188E0001C066F002C067F003C068F004C069F0E2
:10189E0020EE02F04B50D9264C50DA22DECF01F06A
:1018AE00DDCF02F0000E02BEFF0E036E046E010EBF
:1018BE00E0EC20F001C06AF002C06BF003C06CF0E7
:1018CE0004C06DF020EE04F04B50D9264C50DA22B5
:1018DE00DECF01F0DDCF02F0000E02BEFF0E036E72
:1018EE00046E010EE0EC20F001C06EF002C06FF04D
:1018FE0003C070F004C071F0000E00017B6F000E8B
:10190E007A6F72C02AF073C02BF074C02CF075C0C1
:10191E002DF0660E4F6E000E506ED8907A35D96E41
:10192E007B35DA6ED890D936DA364F50D9265050EC
:10193E00DA22DECF2EF0DECF2FF0DECF30F0DECF8C
:10194E0031F03FEC25F0D8B0AFEF0CF0B1EF0CF06A
:10195E00CEEF0CF0660E4F6E000E506ED89000015A
:10196E007A35D96E7B35DA6ED890D936DA364F5055
:10197E00D9265050DA22DECF72F0DECF73F0DECFF2
:10198E0074F0DECF75F07AC064F07BC065F0660E41
:10199E004F6E000E506ED89000017A35D96E7B35A1
:1019AE00DA6ED890D936DA364F50D9265050DA2220
:1019BE00DECF2AF0DECF2BF0DECF2CF0DECF2DF0F7
:1019CE0076C02EF077C02FF078C030F079C031F0AD
:1019DE003FEC25F0D8B0F6EF0CF0F8EF0CF011EF6D
:1019EE000DF0660E4F6E000E506ED89000017A35D7
:1019FE00D96E7B35DA6ED890D936DA364F50D92675
:101A0E005050DA22DECF76F0DECF77F0DECF78F0F0
:101A1E00DECF79F000017A4B7B2B7BBF20EF0DF0F0
:101A2E007B5109E1030E7A5DD8A020EF0DF022EF75
:101A3E000DF088EF0CF076C02EF077C02FF078C046
:101A4E0030F079C031F072C02AF073C02BF074C040
:101A5E002CF075C02DF0B5EC2EF02AC032F02BC054
:101A6E0033F02CC034F02DC035F0000E366E000E63
:101A7E00376E000E386E000E396EB0EC27F0D8A01F
:101A8E004BEF0DF04DEF0DF053EF0DF0000E4C6ED1
:101A9E00000E4B6E15EF11F0000164516511D8A4C4
:101AAE005BEF0DF05DEF0DF0D1EF0DF076C02EF087
:101ABE0077C02FF078C030F079C031F072C02AF0C4
:101ACE0073C02BF074C02CF075C02DF0B5EC2EF059
:101ADE002AC036F02BC037F02CC038F02DC039F0AC
:101AEE006EC02EF06FC02FF070C030F071C031F0AC
:101AFE006AC02AF06BC02BF06CC02CF06DC02DF0BC
:101B0E00B5EC2EF02AC032F02BC033F02CC034F0DE
:101B1E002DC035F08BEC15F032C011F033C012F041
:101B2E0034C013F035C014F0000E156E000E166E94
:101B3E00700E176E420E186E76EC13F011C07CF01C
:101B4E0012C07DF013C07EF014C07FF000017FBF85
:101B5E00B5EF0DF0B3EF0DF0B0EF0EF07CC001F06D
:101B6E007DC002F07EC003F07FC004F0000E056E53
:101B7E00000E066EB40E076E430E086E16EC11F0D4
:101B8E0001C07CF002C07DF003C07EF004C07FF087
:101B9E00B0EF0EF064056511D8A4D8EF0DF0DAEFB2
:101BAE000DF046EF0EF076C02EF077C02FF078C015
:101BBE0030F079C031F072C02AF073C02BF074C0CF
:101BCE002CF075C02DF0B5EC2EF02AC036F02BC0DF
:101BDE0037F02CC038F02DC039F066C02EF067C03B
:101BEE002FF068C030F069C031F06EC02AF06FC0BF
:101BFE002BF070C02CF071C02DF0B5EC2EF02AC079
:101C0E0032F02BC033F02CC034F02DC035F08BECFD
:101C1E0015F032C060F033C061F034C062F035C0F0
:101C2E0063F0000E056E000E066E000E076E400E7F
:101C3E00086E60C001F061C002F062C003F063C0C4
:101C4E0004F016EC11F001C011F002C012F003C046
:101C5E0013F004C014F0000E156E000E166E700E0A
:101C6E00176E420E186E76EC13F011C07CF012C097
:101C7E007DF013C07EF014C07FF0B0EF0EF076C092
:101C8E002EF077C02FF078C030F079C031F072C0EE
:101C9E002AF073C02BF074C02CF075C02DF0B5EC8B
:101CAE002EF02AC036F02BC037F02CC038F02DC0E5
:101CBE0039F06AC02EF06BC02FF06CC030F06DC0E2
:101CCE0031F066C02AF067C02BF068C02CF069C0F6
:101CDE002DF0B5EC2EF02AC032F02BC033F02CC014
:101CEE0034F02DC035F08BEC15F032C060F033C0FF
:101CFE0061F034C062F035C063F0000E056E000E68
:101D0E00066E800E076E400E086E60C001F061C058
:101D1E0002F062C003F063C004F016EC11F001C0D3
:101D2E0011F002C012F003C013F004C014F0000E44
:101D3E00156E000E166E700E176E420E186E76EC45
:101D4E0013F011C07CF012C07DF013C07EF014C0F1
:101D5E007FF07CC02AF07DC02BF07EC02CF07FC0BF
:101D6E002DF0000E2E6E000E2F6EA50E306E430E51
:101D7E00316E3FEC25F0D8A0C7EF0EF0C9EF0EF094
:101D8E00E8EF0EF0000E2A6E000E2B6EB40E2C6EC7
:101D9E00430E2D6E7CC02EF07DC02FF07EC030F035
:101DAE007FC031F03FEC25F0D8A0E0EF0EF0E2EF6F
:101DBE000EF0E8EF0EF0000E4C6E010E4B6E15EFAE
:101DCE0011F07CC02AF07DC02BF07EC02CF07FC0BD
:101DDE002DF0000E2E6E000E2F6EA00E306E400EE9
:101DEE00316E3FEC25F0D8A0FFEF0EF001EF0FF0B3
:101DFE0020EF0FF0000E2A6E000E2B6E300E2C6EA2
:101E0E00410E2D6E7CC02EF07DC02FF07EC030F0C6
:101E1E007FC031F03FEC25F0D8A018EF0FF01AEF8D
:101E2E000FF020EF0FF0000E4C6E020E4B6E15EF02
:101E3E0011F07CC02AF07DC02BF07EC02CF07FC04C
:101E4E002DF0000E2E6E000E2F6E900E306E410E87
:101E5E00316E3FEC25F0D8A037EF0FF039EF0FF0D1
:101E6E00EDEF0FF0000E2A6E000E2B6EC80E2C6ECC
:101E7E00410E2D6E7CC02EF07DC02FF07EC030F056
:101E8E007FC031F03FEC25F0D8A050EF0FF052EFAD
:101E9E000FF0EDEF0FF0B80E2A6E1E0E2B6E850EA4
:101EAE002C6E3E0E2D6E4DC0D9FF4EC0DAFFDECF2A
:101EBE002EF0DECF2FF0DECF30F0DECF31F03FEC64
:101ECE0025F0D8A06DEF0FF06FEF0FF0A5EF0FF02C
:101EDE00CD0E2A6ECC0E2B6ECC0E2C6E3D0E2D6EB4
:101EEE0020EE08F04D50D9264E50DA22DECF2EF0DD
:101EFE00DECF2FF0DECF30F0DECF31F03FEC25F02D
:101F0E00D8B08CEF0FF08EEF0FF0A5EF0FF020EEA4
:101F1E0006F04B50D9264C50DA22010EDBBEA1EF53
:101F2E000FF0E90EDE5C030EDE58D8A0A1EF0FF025
:101F3E00A3EF0FF0A5EF0FF04DEF0DF04DC0D9FF51
:101F4E004EC0DAFFDECF2AF0DECF2BF0DECF2CF044
:101F5E00DECF2DF0B80E2E6E1E0E2F6E850E306E4D
:101F6E003E0E316E3FEC25F0D8A0C0EF0FF0C2EF61
:101F7E000FF0E7EF0FF020EE08F04D50D9264E503F
:101F8E00DA22DECF2AF0DECF2BF0DECF2CF0DECF42
:101F9E002DF0CD0E2E6ECC0E2F6ECC0E306E3D0E65
:101FAE00316E3FEC25F0D8B0DFEF0FF0E1EF0FF020
:101FBE00E7EF0FF0000E4C6E030E4B6E15EF11F0A7
:101FCE00000E4C6E0A0E4B6E15EF11F07CC02AF00F
:101FDE007DC02BF07EC02CF07FC02DF0000E2E6E3B
:101FEE00000E2F6EAA0E306E420E316E3FEC25F0B3
:101FFE00D8A004EF10F006EF10F025EF10F0000E51
:10200E002A6E000E2B6E200E2C6E430E2D6E7CC093
:10201E002EF07DC02FF07EC030F07FC031F03FEC4F
:10202E0025F0D8A01DEF10F01FEF10F025EF10F0E7
:10203E00000E4C6E040E4B6E15EF11F07CC02AF0A4
:10204E007DC02BF07EC02CF07FC02DF0000E2E6ECA
:10205E00000E2F6E700E306E420E316E3FEC25F07C
:10206E00D8A03CEF10F03EEF10F0DFEF10F0000EB6
:10207E002A6E000E2B6E9A0E2C6E420E2D6E7CC0AA
:10208E002EF07DC02FF07EC030F07FC031F03FECDF
:10209E0025F0D8A055EF10F057EF10F0DFEF10F04D
:1020AE0020EE08F04D50D9264E50DA22DECF2AF01F
:1020BE00DECF2BF0DECF2CF0DECF2DF08F0E2E6E7E
:1020CE00C20E2F6EF50E306E3D0E316E3FEC25F0CA
:1020DE00D8A074EF10F076EF10F09BEF10F020EE1A
:1020EE0004F04D50D9264E50DA22DECF2AF0DECF44
:1020FE002BF0DECF2CF0DECF2DF03D0E2E6E0A0E25
:10210E002F6E570E306E3E0E316E3FEC25F0D8B06E
:10211E0093EF10F095EF10F09BEF10F0000E4C6E59
:10212E00060E4B6E15EF11F020EE08F04D50D9262D
:10213E004E50DA22DECF2AF0DECF2BF0DECF2CF09F
:10214E00DECF2DF08F0E2E6EC20E2F6EF50E306E70
:10215E003D0E316E3FEC25F0D8B0B8EF10F0BAEF6F
:10216E0010F0E7EF0FF03D0E2A6E0A0E2B6E570E93
:10217E002C6E3E0E2D6E20EE04F04D50D9264E5094
:10218E00DA22DECF2EF0DECF2FF0DECF30F0DECF34
:10219E0031F03FEC25F0D8B0D7EF10F0D9EF10F0BA
:1021AE00E7EF0FF0000E4C6E050E4B6E15EF11F0B3
:1021BE007CC02AF07DC02BF07EC02CF07FC02DF0AD
:1021CE00000E2E6E000E2F6E400E306E410E316ED2
:1021DE003FEC25F0D8A0F6EF10F0F8EF10F0E7EF97
:1021EE000FF0000E2A6E000E2B6E880E2C6E410E16
:1021FE002D6E7CC02EF07DC02FF07EC030F07FC0E3
:10220E0031F03FEC25F0D8A00FEF11F011EF11F0E7
:10221E00E7EF0FF0000E4C6E070E4B6E12000450DF
:10222E00800B0D6E045004240F6E03AE21EF11F0DF
:10223E0023EF11F024EF11F00F800F50D8B42AEFD6
:10224E0011F02CEF11F041EF11F00F28D8A432EF5E
:10225E0011F034EF11F03CEF11F0000E016E000E94
:10226E00026E000E036E000E046E038E000E046EE0
:10227E0049EF11F0000E016E000E026E000E036E9D
:10228E00000E046E0850800B0E6E0D500E18D8B452
:10229E0053EF11F055EF11F056EF11F00D8C085071
:1022AE0008240E6E07AE5EEF11F060EF11F061EFD5
:1022BE0011F00E800E50D8B467EF11F069EF11F0E7
:1022CE007EEF11F00E28D8A46FEF11F071EF11F020
:1022DE0079EF11F0000E056E000E066E000E076E01
:1022EE00000E086E078E000E086E86EF11F0000EBF
:1022FE00056E000E066E000E076E000E086E0F5075
:10230E000E5CD8B08DEF11F08FEF11F0B6EF11F02B
:10231E000DAC94EF11F096EF11F098EF11F0800ED6
:10232E000D1A0FC010F00EC00FF010C00EF001C04D
:10233E0010F005C001F010C005F002C010F006C08C
:10234E0002F010C006F003C010F007C003F010C07A
:10235E0007F004C010F008C004F010C008F0000E22
:10236E00106E0F500EC009F00A6A095E000E0A5A6E
:10237E000ABECBEF11F00A5009E11A0E095CD8A083
:10238E00CBEF11F0CDEF11F004EF12F0015002106F
:10239E0003100410D8A4D6EF11F0D9EF11F0010EEE
:1023AE00DAEF11F0000E106E000E016E000E026ECE
:1023BE00000E036E000E046E0EC00FF00DEF12F045
:1023CE0010A0ECEF11F0EEEF11F0F4EF11F0D89049
:1023DE0010300109106EF6EF11F0D890103201A0F6
:1023EE00FBEF11F0FDEF11F0FEEF11F0108E043443
:1023FE0004320332023201320F2A0E500F5CD8A083
:10240E000BEF12F00DEF12F0E7EF11F00DBC12EF23
:10241E0012F014EF12F054EF12F00F50D8A41AEF7E
:10242E0012F01CEF12F026EF12F0000E016E000EED
:10243E00026E000E036E000E046E75EF13F0055063
:10244E00012606500222075003220850042204A03F
:10245E0033EF12F035EF12F0E1EF12F010A03AEF79
:10246E0012F03CEF12F042EF12F0D890103001094A
:10247E00106E44EF12F0D890103201A049EF12F016
:10248E004BEF12F04CEF12F0108E04340432033284
:10249E00023201320F2AE1EF12F00550015C0650B4
:1024AE000258075003580450800A096E0850800ADB
:1024BE000958D8B065EF12F067EF12F092EF12F0F4
:1024CE000150055C096E025006580A6E03500758FB
:1024DE000B6E045008580C6EFF0E0924016EFF0E91
:1024EE000A20026EFF0E0B20036EFF0E0C20046EF0
:1024FE00800E0D1A106C1050D8A488EF12F08AEFCF
:10250E0012F09AEF12F0010E0126000E02220322A3
:10251E0004229AEF12F00550015E0650025A07503F
:10252E00035A0850045A0150021003100410D8A484
:10253E00A3EF12F0A5EF12F0DAEF12F01050D8A4BC
:10254E00ABEF12F0ADEF12F0DAEF12F0000E016EFB
:10255E00000E026E000E036E000E046E75EF13F089
:10256E00D890013602360336043610AEC1EF12F0A3
:10257E00C3EF12F0C4EF12F0018010A0C9EF12F0F9
:10258E00CBEF12F0CFEF12F0D8801036D1EF12F061
:10259E00D89010360F50D8B4D7EF12F0D9EF12F002
:1025AE00DAEF12F00F0603AEDFEF12F0E1EF12F0EA
:1025BE00B7EF12F0000E0E6E10AEE8EF12F0EAEF6B
:1025CE0012F002EF13F010C009F07F0E0916D8B406
:1025DE00F3EF12F0F5EF12F0F9EF12F0010E0E6EAE
:1025EE0002EF13F001A0FEEF12F000EF13F002EF76
:1025FE0013F0F5EF12F00E50D8B408EF13F00AEF07
:10260E0013F035EF13F0010E0126000E0222032205
:10261E00042204A015EF13F017EF13F035EF13F0AB
:10262E0001C009F002C00AF003C00BF004C00CF0A8
:10263E000C340C320B320A32093209C001F00AC0D6
:10264E0002F00BC003F00CC004F00F28D8B432EF28
:10265E0013F034EF13F035EF13F00F2A0F28D8B420
:10266E003BEF13F03DEF13F045EF13F00F50D8A4EE
:10267E0043EF13F045EF13F057EF13F0000E016E1A
:10268E00000E026E000E036E000E046E0F50D8A4E4
:10269E0053EF13F055EF13F057EF13F0000E0D6ECE
:1026AE000FA05CEF13F05EEF13F061EF13F0038EEB
:1026BE0062EF13F0039ED8900F30046E0DAE6AEFEA
:1026CE0013F06CEF13F06DEF13F0048E01C001F0F8
:1026DE0002C002F003C003F004C004F01200145054
:1026EE00800B1D6E14501424236E13AE81EF13F065
:1026FE0083EF13F084EF13F023802350D8B48AEFC6
:10270E0013F08CEF13F09FEF13F02328D8A492EF61
:10271E0013F094EF13F09CEF13F0000E116E000EF9
:10272E00126E000E136E000E146E138EA7EF13F0C2
:10273E00000E116E000E126E000E136E000E146E51
:10274E001850800B1D1A18501824226E17AEB2EFB7
:10275E0013F0B4EF13F0B5EF13F022802250D8B47B
:10276E00BBEF13F0BDEF13F0D0EF13F02228D8A477
:10277E00C3EF13F0C5EF13F0CDEF13F0000E156E8F
:10278E00000E166E000E176E000E186E178ED8EF16
:10279E0013F0000E156E000E166E000E176E000E64
:1027AE00186E2250D8B4DEEF13F0E0EF13F0E8EF1E
:1027BE0013F02350D8A4E6EF13F0E8EF13F0F2EF86
:1027CE0013F0000E116E000E126E000E136E000E40
:1027DE00146E8AEF15F017501102F3CF28F0F4CFD4
:1027EE0029F028501E6E1F6A206A216A2950246E15
:1027FE00256A266A276A16501202F3CF28F0F4CF04
:10280E0029F028501E26000E1F2220222122295098
:10281E002426000E25222622272215501302F3CF3E
:10282E0028F0F4CF29F028501E26000E1F22202259
:10283E00212229502426000E25222622272220C0BE
:10284E0021F01FC020F01EC01FF01E6A155012028C
:10285E00F3CF28F0F4CF29F028501E2629501F223E
:10286E00000E2022000E212216501102F3CF28F066
:10287E00F4CF29F028501E2629501F22000E2022A8
:10288E00000E212220C021F01FC020F01EC01FF01C
:10289E001E6A15501102F3CF28F0F4CF29F02850FC
:1028AE001E2629501F22000E2022000E2122175014
:1028BE001202F3CF28F0F4CF29F028502426295005
:1028CE002522000E2622000E272216501302F3CFC9
:1028DE0028F0F4CF29F02850242629502522000E66
:1028EE002622000E272217501302F3CF28F0F4CF22
:1028FE0029F02850196E29501A6E1B6A1C6A1BC0CB
:10290E001CF01AC01BF019C01AF0196A19502426AF
:10291E001A5025221B5026221C5027221EC019F0A9
:10292E001FC01AF020C01BF021C01CF0190EA5EF1D
:10293E0014F0D8901C321B321A321932E82EA0EF46
:10294E0014F0195024261A5025221B5026221C50F2
:10295E00272220C021F01FC020F01EC01FF01E6ACB
:10296E00225023C019F01A6A1926000E1A22820E5E
:10297E001924286EFF0E1A20296EDBEF14F0D89062
:10298E00243625362636273621AED0EF14F0D2EF78
:10299E0014F0D3EF14F02480D8901E361F36203654
:1029AE0021362806D8A0290626AEE0EF14F0E2EF75
:1029BE0014F0C6EF14F0000E226E21AEE9EF14F003
:1029CE00EBEF14F00FEF15F0FF0E1E14196EFF0E45
:1029DE001F141A6EFF0E20141B6E7F0E21141C6E18
:1029EE0019501A101B101C10D8B400EF15F002EF7E
:1029FE0015F006EF15F0010E226E0FEF15F024A064
:102A0E000BEF15F00DEF15F00FEF15F002EF15F0BF
:102A1E002250D8B415EF15F017EF15F03BEF15F067
:102A2E00010E2426000E25222622272227A022EF81
:102A3E0015F024EF15F03BEF15F024C019F025C06A
:102A4E001AF026C01BF027C01CF01C341C321B329F
:102A5E001A32193219C024F01AC025F01BC026F004
:102A6E001CC027F0284A292A29BE46EF15F0295006
:102A7E0008E12828D8A046EF15F048EF15F052EFE0
:102A8E0015F0000E246E000E256E800E266E7F0E43
:102A9E00276E80EF15F029BE5FEF15F0295006E185
:102AAE002804D8B05DEF15F05FEF15F06BEF15F061
:102ABE00000E246E000E256E000E266E000E276E82
:102ACE00000E1D6E80EF15F028C023F0FF0E2416A9
:102ADE00FF0E25167F0E2616000E271623A07AEF60
:102AEE0015F07CEF15F07DEF15F0268ED890233083
:102AFE00276E1D50271224C011F025C012F026C0DB
:102B0E0013F027C014F012003550800B426E355072
:102B1E003524496E34AE96EF15F098EF15F099EF17
:102B2E0015F049804950D8B49FEF15F0A1EF15F07C
:102B3E00B6EF15F04928D8A4A7EF15F0A9EF15F0B8
:102B4E00B1EF15F0000E326E000E336E000E346EC5
:102B5E00000E356E348E000E356EBEEF15F0000E83
:102B6E00326E000E336E000E346E000E356E39501E
:102B7E00800B421A395039244A6E38AEC9EF15F01F
:102B8E00CBEF15F0CCEF15F04A804A50D8B4D2EF07
:102B9E0015F0D4EF15F0E9EF15F04A28D8A4DAEFC6
:102BAE0015F0DCEF15F0E4EF15F0000E366E000EAA
:102BBE00376E000E386E000E396E388E000E396E7E
:102BCE00F1EF15F0000E366E000E376E000E386EF9
:102BDE00000E396E3650371038103910D8A4FAEF6F
:102BEE0015F0FCEF15F014EF16F0000E326E000E1D
:102BFE00336E000E346E000E356E800E34127F0E64
:102C0E0035124250351232C032F033C033F034C078
:102C1E0034F035C035F057EF17F04950D8A41AEFFD
:102C2E0016F01CEF16F026EF16F0000E326E000EA8
:102C3E00336E000E346E000E356E57EF17F04A509D
:102C4E0049C03AF03B6A3A5E000E3B5A7F0E3A2478
:102C5E00436E000E3B20446E32C03EF033C03FF058
:102C6E0034C040F035C041F0000E326E000E336EAF
:102C7E00000E346E000E356E000E456E000E466E62
:102C8E00000E476E000E486E000E4A6E87EF16F06D
:102C9E004A50D8B455EF16F057EF16F06EEF16F007
:102CAE00D8903E363F3640364136D890323633369F
:102CBE003436353648AE66EF16F068EF16F069EF2B
:102CCE0016F03280D890453646364736483636505E
:102CDE003E5C37503F583850405839504158D8A074
:102CEE007BEF16F07DEF16F086EF16F0488C36501F
:102CFE003E5E37503F5A3850405A3950415A4A2A50
:102D0E00190E4A648DEF16F08FEF16F04FEF16F096
:102D1E003E503F1040104110D8B498EF16F09AEF85
:102D2E0016F0B2EF16F04580B2EF16F0D8903236AC
:102D3E0033363436353648AEA7EF16F0A9EF16F017
:102D4E00AAEF16F03280D8904536463647364836CA
:102D5E004306D8A0440634AEB7EF16F0B9EF16F01E
:102D6E009DEF16F0000E4A6E48AEC0EF16F0C2EFA1
:102D7E0016F0E6EF16F0FF0E45143A6EFF0E4614EF
:102D8E003B6EFF0E47143C6E7F0E48143D6E3A505C
:102D9E003B103C103D10D8B4D7EF16F0D9EF16F01B
:102DAE00DDEF16F0010E4A6EE6EF16F032A0E2EFFE
:102DBE0016F0E4EF16F0E6EF16F0D9EF16F04A50E3
:102DCE00D8B4ECEF16F0EEEF16F012EF17F0010E8E
:102DDE003226000E33223422352235A0F9EF16F0BA
:102DEE00FBEF16F012EF17F032C03AF033C03BF0A3
:102DFE0034C03CF035C03DF03D343D323C323B32C8
:102E0E003A323AC032F03BC033F03CC034F03DC0F1
:102E1E0035F0434A442A44BE1DEF17F0445008E1F2
:102E2E004328D8A01DEF17F01FEF17F02AEF17F069
:102E3E00000E446E4368000E326E000E336E000EAE
:102E4E00346E000E356E44BE37EF17F0445006E177
:102E5E004304D8B035EF17F037EF17F045EF17F002
:102E6E00000E446E000E436E000E326E000E336E78
:102E7E00000E346E000E356E000E426E43C049F0E9
:102E8E0049A04CEF17F04EEF17F051EF17F0348EBC
:102E9E0052EF17F0349ED8904930356E08EF16F089
:102EAE0012004BC0D9FF4CC0DAFFDECF01F0DDCFF0
:102EBE0002F0000E02BEFF0E036E046E010EE0EC79
:102ECE0020F001C06CF002C06DF003C06EF004C0C3
:102EDE006FF020EE02F04B50D9264C50DA22DECFA6
:102EEE0001F0DDCF02F0000E02BEFF0E036E046E87
:102EFE00010EE0EC20F001C070F002C071F003C0D2
:102F0E0072F004C073F020EE04F04B50D9264C50F2
:102F1E00DA22DECF01F0DDCF02F0000E02BEFF0E90
:102F2E00036E046E010EE0EC20F001C074F002C0DE
:102F3E0075F003C076F004C077F020EE06F04B502B
:102F4E00D9264C50DA22DECF01F0DDCF02F0000E92
:102F5E0002BEFF0E036E046E010EE0EC20F001C007
:102F6E0060F002C061F003C062F004C063F070C094
:102F7E0005F071C006F072C007F073C008F06CC0A7
:102F8E0001F06DC002F06EC003F06FC004F016ECDD
:102F9E0011F001C064F002C065F003C066F004C019
:102FAE0067F074C005F075C006F076C007F077C004
:102FBE0008F064C001F065C002F066C003F067C09F
:102FCE0004F016EC11F001C068F002C069F003C005
:102FDE006AF004C06BF06CC032F06DC033F06EC09E
:102FEE0034F06FC035F060C005F061C006F062C00D
:102FFE0007F063C008F068C001F069C002F06AC053
:10300E0003F06BC004F016EC11F001C036F002C0F4
:10301E0037F003C038F004C039F08BEC15F04DC01A
:10302E00D9FF4EC0DAFF32C0DEFF33C0DEFF34C040
:10303E00DEFF35C0DEFF70C005F071C006F072C055
:10304E0007F073C008F06CC001F06DC002F06EC0E6
:10305E0003F06FC004F016EC11F001C064F002C072
:10306E0065F003C066F004C067F074C005F075C06B
:10307E0006F076C007F077C008F064C001F065C0B6
:10308E0002F066C003F067C004F016EC11F001C048
:10309E0068F002C069F003C06AF004C06BF074C03F
:1030AE0032F075C033F076C034F077C035F060C0C2
:1030BE0005F061C006F062C007F063C008F068C09A
:1030CE0001F069C002F06AC003F06BC004F016ECA8
:1030DE0011F001C036F002C037F003C038F004C062
:1030EE0039F08BEC15F020EE08F04D50D9264E50ED
:1030FE00DA2232C0DEFF33C0DEFF34C0DEFF35C061
:10310E00DEFF70C005F071C006F072C007F073C02C
:10311E0008F06CC001F06DC002F06EC003F06FC01D
:10312E0004F016EC11F001C064F002C065F003C0AB
:10313E0066F004C067F074C005F075C006F076C086
:10314E0007F077C008F064C001F065C002F066C0F9
:10315E0003F067C004F016EC11F001C068F002C075
:10316E0069F003C06AF004C06BF070C032F071C039
:10317E0033F072C034F073C035F060C005F061C03A
:10318E0006F062C007F063C008F068C001F069C0C5
:10319E0002F06AC003F06BC004F016EC11F001C02F
:1031AE0036F002C037F003C038F004C039F08BECB3
:1031BE0015F020EE04F04D50D9264E50DA2232C0D2
:1031CE00DEFF33C0DEFF34C0DEFF35C0DEFF12008F
:1031DE0097C0D9FF98C0DAFFDECFF6FFDDCFF7FF3D
:1031EE00000EF86E0800F550250AD8A401EF19F06C
:1031FE0003EF19F05BEF1AF097C0D9FF98C0DAFF12
:10320E00DE2A000EDD22000E0001E86F000EE76FD1
:10321E00E7C0EDF0E969EA6997C0D9FF98C0DAFF17
:10322E00DECFA6F0DDCFA7F0A6C0F6FFA7C0F7FF52
:10323E00000EF86E0800F550640AD8B429EF19F0A4
:10324E002BEF19F03BEF19F0A6C0F6FFA7C0F7FF62
:10325E00000EF86E0800F550690AD8A439EF19F07F
:10326E003BEF19F07EEF19F099C0D9FF9AC0DAFF43
:10327E00DFCF9BF0020EDE26DFCF9CF0000EDD22AC
:10328E009BC0D9FF9CC0DAFFDECF9DF0DDCF9EF054
:10329E00000E9EBFFF0E9F6FA06FA16FA26FA36F58
:1032AE00A46F010EA6259B6F000EA7219C6F97C0E1
:1032BE00D9FF98C0DAFF9BC0DEFF9CC0DDFF95C032
:1032CE001CF096C01DF09DC01EF09EC01FF09FC04A
:1032DE0020F0A0C021F0A1C022F0A2C023F0A3C014
:1032EE0024F0A4C025F05CEC1DF071EF1AF097C02D
:1032FE00D9FF98C0DAFFDECFA6F0DDCFA7F0A6C0CB
:10330E00F6FFA7C0F7FF000EF86E0800F5CFA5F088
:10331E009DEF19F0A64BA72BB6EF19F06C0EA56F0B
:10332E00B6EF19F0000EA56FB6EF19F0A5519B6F11
:10333E009C6B9C51000AD8B4A7EF19F099EF19F0C5
:10334E009B514C0AD8B491EF19F02A0AD8B495EFD4
:10335E0019F00A0AD8B491EF19F099EF19F0A6C036
:10336E00F6FFA7C0F7FF000EF86E0800F550660ACC
:10337E00D8A4C4EF19F0C6EF19F052EF1AF0FCEF13
:10338E0019F099C0D9FF9AC0DAFFDFCF9BF0040E77
:10339E00DE26DFCF9CF0000EDD229BC0D9FF9CC045
:1033AE00DAFFDECF9DF0DECF9EF0DECF9FF0DECFD8
:1033BE00A0F011EF1AF099C0D9FF9AC0DAFFDFCF53
:1033CE009BF0040EDE26DFCF9CF0000EDD229BC0AC
:1033DE00D9FF9CC0DAFFDECF9DF0DECF9EF0DECFB0
:1033EE009FF0DECFA0F011EF1AF0A5519B6F9C6BF2
:1033FE009C51000AD8B406EF1AF011EF1AF09B5147
:10340E004C0AD8B4E2EF19F0200AD8B4C8EF19F07C
:10341E0011EF1AF0010EA6259B6F000EA7219C6FCF
:10342E0097C0D9FF98C0DAFF9BC0DEFF9CC0DDFFBE
:10343E003AEF1AF095C060F096C061F09DC062F050
:10344E009EC063F09FC064F0A0C065F0A6C0F6FFFA
:10345E00A7C0F7FF000EF86E0800F5CF66F01FEC60
:10346E0007F071EF1AF0A6C0F6FFA7C0F7FF000E27
:10347E00F86E0800F5509B6F9C6B9C51000AD8B4F7
:10348E004BEF1AF052EF1AF09B51660AD8B421EFA7
:10349E001AF052EF1AF097C0D9FF98C0DAFFDE2A61
:1034AE00000EDD2271EF1AF097C0D9FF98C0DAFF37
:1034BE00DECFF6FFDDCFF7FF000EF86E0800F550F9
:1034CE00016E026A95C003F096C004F040EC26F03F
:1034DE0052EF1AF0120075EC30F096EC30F04EEC24
:1034EE002DF006EC30F02FEC30F09CEC30F0000EAE
:1034FE00026EC80E016E41EC29F065EC30F0000E44
:10350E000101616F010E626F010E636FAA0E666F8D
:10351E000F0E676FA60E686F0F0E696F000E656F48
:10352E00C80E646F000E586F010E596F010E5A6F60
:10353E00250E5D6F0F0E5E6F210E5F6F0F0E606FAB
:10354E00000E5C6FC80E5B6F610E206E010E216E59
:10355E00580E226E010E236EBAEC21F07E90520EA2
:10356E000001D26F2B0ED16F000EE82EFED7D12F99
:10357E00FCD7D22FFAD700F08EB4C8EF1AF0CAEFEC
:10358E001AF0C3EF1AF0520E0001D26F2B0ED16F4C
:10359E00000EE82EFED7D12FFCD7D22FFAD700F08F
:1035AE00D58EE0EF1BF0000E176F000E166F610E3A
:1035BE00146E010E156E580E166E010E176EF2EC8D
:1035CE0028F06A0E0C6E010E0D6E48EC2BF06A0E92
:1035DE004B6E010E4C6E4C0E4D6E010E4E6E58EC37
:1035EE0017F0010171BF05EF1BF0F40E705D010EB7
:1035FE007159D8A005EF1BF007EF1BF0C6EF1BF0BB
:10360E00DA4BDB2BDB5109E1630EDA5DD8A012EF4A
:10361E001BF014EF1BF022EF1BF017EC2BF01A0E21
:10362E00246E010E256E3C0E266E020E276EECECFD
:10363E001BF0E0EF1BF017EC2BF0610E1A6E010E73
:10364E001B6E580E1C6E010E1D6ED1EC2BF0610E12
:10365E00146E010E156E580E166E010E176E85EC59
:10366E0029F07EEF1BF0090E0001D26F1E0ED16FF6
:10367E00E40EE82EFED7D12FFCD7D22FFAD700F0CA
:10368E006A0E0C6E010E0D6E48EC2BF06A0E4B6E30
:10369E00010E4C6E4C0E4D6E010E4E6E58EC17F028
:1036AE006A0E4B6E010E4C6E4C0E4D6E010E4E6E32
:1036BE001CEC0CF04BC0D6F14CC0D7F101011851E7
:1036CE00D61907E11951D719D8A470EF1BF072EF74
:1036DE001BF076EF1BF0164B172B7AEF1BF0000E3C
:1036EE00176F000E166FD6C118F1D7C119F101016F
:1036FE0017BF8BEF1BF0175109E1140E165DD8A002
:10370E008BEF1BF08DEF1BF03AEF1BF0720E0001EA
:10371E00B06F010EB16F010EB26F0E0EB36F4CC1D2
:10372E00B4F04DC1B5F04EC1B6F04FC1B7F050C1B7
:10373E00B8F051C1B9F052C1BAF053C1BBF054C187
:10374E00BCF055C1BDF056C1BEF057C1BFF070C13F
:10375E00C0F071C1C1F018C1C2F019C1C3F081EC43
:10376E002CF0720E026E010E036EEEEC2FF018C1ED
:10377E002DF019C12EF09BEC1EF0E0EF1BF0145152
:10378E001511D8B4CDEF1BF0CFEF1BF0E0EF1BF00F
:10379E00DA4BDB2BD890DA35D96EDB35DA6E3C0E90
:1037AE00D926020EDA22FF0EDE6EFF0EDD6E16EF4A
:1037BE001BF00101D851D911D8A4E8EF1BF0EAEFA4
:1037CE001BF0DAEF1AF01AEF00F0610E206E010E08
:1037DE00216E580E226E010E236E01EC2AF0D59E3C
:1037EE00DAC12BF0DBC12CF02CBE02EF1CF000EF87
:1037FE001CF004EF1CF05BEF1DF0610E146E010E59
:10380E00156E580E166E010E176ED8902B34D96E9B
:10381E002C34DA6E2650D9262750DA22DECF18F055
:10382E00DDCF19F05BEC27F02B502424286E2C50A2
:10383E002520296EFF0E2824D96EFF0E2920DA6E60
:10384E00DE04D8A42DEF1CF02FEF1CF045EF1CF07A
:10385E00610E1A6E010E1B6E580E1C6E010E1D6E41
:10386E003FEC2EF0610E206E010E216E580E226E70
:10387E00010E236E7CEC2FF047EF1DF02B5024240D
:10388E00286E2C502520296EFF0E2824D96EFF0E8F
:10389E002920DA6E020EDE18D8A458EF1CF05AEF6B
:1038AE001CF070EF1CF0610E1A6E010E1B6E580E9E
:1038BE001C6E010E1D6E3FEC2EF0610E206E010E81
:1038CE00216E580E226E010E236ED3EC2CF047EFB4
:1038DE001DF02B502424286E2C502520296EFF0E0F
:1038EE002824D96EFF0E2920DA6E030EDE18D8A416
:1038FE0083EF1CF085EF1CF09BEF1CF0610E1A6E2F
:10390E00010E1B6E580E1C6E010E1D6E3FEC2EF03E
:10391E00610E206E010E216E580E226E010E236E68
:10392E00A5EC26F047EF1DF02B502424286E2C50CA
:10393E002520296EFF0E2824D96EFF0E2920DA6E5F
:10394E00040EDE18D8A4AEEF1CF0B0EF1CF0C6EFDC
:10395E001CF0610E1A6E010E1B6E580E1C6E010EBF
:10396E001D6E3FEC2EF0610E206E010E216E580E74
:10397E00226E010E236E01EC2AF047EF1DF02B5044
:10398E002424286E2C502520296EFF0E2824D96E53
:10399E00FF0E2920DA6E050EDE18D8A4D9EF1CF022
:1039AE00DBEF1CF0F1EF1CF0610E1A6E010E1B6EB8
:1039BE00580E1C6E010E1D6E3FEC2EF0610E206E29
:1039CE00010E216E580E226E010E236E5DEC2FF04D
:1039DE0047EF1DF02B502424286E2C502520296EE5
:1039EE00FF0E2824D96EFF0E2920DA6E060EDE1881
:1039FE00D8A404EF1DF006EF1DF01CEF1DF0610EB4
:103A0E001A6E010E1B6E580E1C6E010E1D6E3FECD3
:103A1E002EF0610E206E010E216E580E226E010EDA
:103A2E00236EAAEC2CF047EF1DF02B502424286EA9
:103A3E002C502520296EFF0E2824D96EFF0E29202A
:103A4E00DA6E070EDE18D8A42FEF1DF031EF1DF041
:103A5E0047EF1DF0610E1A6E010E1B6E580E1C6E96
:103A6E00010E1D6E3FEC2EF0610E206E010E216ECA
:103A7E00580E226E010E236E00EC27F047EF1DF05C
:103A8E00610E146E010E156E580E166E010E176E27
:103A9E0085EC29F0000E0101D96F000ED86F2B06B0
:103AAE00D8A02C06FBEF1BF012001EC034F01FC076
:103ABE0035F020C036F021C037F022C038F023C0D8
:103ACE0039F024C03AF025C03BF03BBE71EF1DF03B
:103ADE0074EF1DF0010E75EF1DF0000E3E6E3E50A0
:103AEE00D8B47CEF1DF07EEF1DF08EEF1DF03B1E67
:103AFE003A1E391E381E371E361E351E346C000E09
:103B0E00352236223722382239223A223B22000130
:103B1E00EABF9CEF1DF0EA5106E1E905D8B09AEF35
:103B2E001DF09CEF1DF0A2EF1DF0000E316E010E88
:103B3E00306EA6EF1DF0E9C030F0EAC031F0E7C0FC
:103B4E0032F0E8C033F03E50D8B4B0EF1DF0B2EF13
:103B5E001DF0C9EF1DF03206D8A033063E50D8A492
:103B6E00BBEF1DF0BDEF1DF0C3EF1DF0000E2F6E6D
:103B7E002B0E2E6EC7EF1DF0000E2F6E2D0E2E6E1D
:103B8E002EC03EF0000E3D6E4F0E3C6E000E02013A
:103B9E00EF6F4EEF1EF03C06D8A03D06A00E3C2463
:103BAE00D96E020E3D20DA6E34C001F035C002F03F
:103BBE0036C003F037C004F038C005F039C006F047
:103BCE003AC007F03BC008F00A0E096E000E0A6EEE
:103BDE00000E0B6E000E0C6E000E0D6E000E0E6EB5
:103BEE00000E0F6E000E106E0AEC24F001C026F0CF
:103BFE0002C027F003C028F004C029F005C02AF047
:103C0E0006C02BF007C02CF008C02DF026C013F014
:103C1E0027C014F03DEC2FF01350300FDF6E30063E
:103C2E00D8A031063206D8A0330634C001F035C014
:103C3E0002F036C003F037C004F038C005F039C0CA
:103C4E0006F03AC007F03BC008F00A0E096E000EEF
:103C5E000A6E000E0B6E000E0C6E000E0D6E000E38
:103C6E000E6E000E0F6E000E106E90EC22F001C064
:103C7E0034F002C035F003C036F004C037F005C092
:103C8E0038F006C039F007C03AF008C03BF03DBE30
:103C9E0059EF1EF03D5008E13C04D8A059EF1EF03C
:103CAE005BEF1EF077EF1EF03450351036103710E4
:103CBE00381039103A103B10D8A468EF1EF06AEF96
:103CCE001EF0D2EF1DF031BE77EF1EF0315006E13F
:103CDE003004D8B075EF1EF077EF1EF0D2EF1DF066
:103CEE003E50D8B47DEF1EF07FEF1EF08AEF1EF02F
:103CFE003C06D8A03D06A00E3C24D96E020E3D20F7
:103D0E00DA6E3EC0DFFF1CC011F01DC012F0A00E17
:103D1E003C24136E020E3D20146E32C015F033C0DB
:103D2E0016F0C4EC29F012002D042E10D8A4A2EF28
:103D3E001EF0A4EF1EF0C2EF1EF0610E206E010EFB
:103D4E00216E580E226E010E236E5DEC2FF0000ECA
:103D5E00D46E000ED36E1A0E0101DA25D96E010E45
:103D6E00DB21DA6E010EDF6E000E0001EC6F000E2D
:103D7E00EB6FD6EF1FF0020E2D182E10D8A4CAEF3F
:103D8E001EF0CCEF1EF0E5EF1EF0610E206E010E60
:103D9E00216E580E226E010E236EAAEC2CF0000E30
:103DAE00D46E000ED36E1A0E0101DA25D96E010EF5
:103DBE00DB21DA6E020EDF6EBBEF1EF0030E2D1846
:103DCE002E10D8A4EDEF1EF0EFEF1EF008EF1FF04F
:103DDE00610E206E010E216E580E226E010E236EA4
:103DEE00FCEC2CF0000ED46E000ED36E1A0E0101F8
:103DFE00DA25D96E010EDB21DA6E030EDF6EBBEF14
:103E0E001EF0040E2D182E10D8A410EF1FF012EF76
:103E1E001FF02BEF1FF0610E206E010E216E580E5B
:103E2E00226E010E236E01EC2AF0000ED46E000EEF
:103E3E00D36E1A0E0101DA25D96E010EDB21DA6E70
:103E4E00040EDF6EBBEF1EF0050E2D182E10D8A43B
:103E5E0033EF1FF035EF1FF04EEF1FF0610E206EA7
:103E6E00010E216E580E226E010E236E7CEC2FF089
:103E7E00000ED46E000ED36E1A0E0101DA25D96E25
:103E8E00010EDB21DA6E050EDF6EBBEF1EF0060EA5
:103E9E002D182E10D8A456EF1FF058EF1FF071EF0B
:103EAE001FF0610E206E010E216E580E226E010E55
:103EBE00236ED3EC2CF0000ED46E000ED36E1A0EC1
:103ECE000101DA25D96E010EDB21DA6E060EDF6EE8
:103EDE00BBEF1EF0070E2D182E10D8A479EF1FF091
:103EEE007BEF1FF094EF1FF0610E206E010E216E1E
:103EFE00580E226E010E236E25EC2DF0000ED46EA0
:103F0E00000ED36E1A0E0101DA25D96E010EDB21D9
:103F1E00DA6E070EDF6EBBEF1EF00A0E2D182E1096
:103F2E00D8A49CEF1FF09EEF1FF0CBEF1FF0000107
:103F3E00EB4BEC2BECBFADEF1FF0EC5109E1030E98
:103F4E00EB5DD8A0ADEF1FF0AFEF1FF0BBEF1FF092
:103F5E001A0E246E010E256E3C0E266E020E276E74
:103F6E00ECEC1BF0D6EF1FF0610E206E010E216EF1
:103F7E00580E226E010E236EAFEC2AF0000ED46E98
:103F8E00000ED36ED6EF1FF02D502E10D8A4D2EF08
:103F9E001FF0D4EF1FF0D6EF1FF0AFEF1FF012009F
:103FAE00DFC05BF0E0C05CF0E1C05DF0E2C05EF04F
:103FBE004BC05BF04CC05CF04DC05DF04EC05EF08F
:103FCE00810E4F6EFF0E506E5BC051F05CC052F012
:103FDE005DC053F05EC054F0180EFBEF1FF0D8908A
:103FEE005432533252325132E82EF6EF1FF0515006
:103FFE004F24596E000E50205A6E5ABE10EF20F00C
:10400E005A5009E1170E595CD8A010EF20F012EFAC
:10401E0020F01CEF20F04BC04BF04CC04CF04DC0CC
:10402E004DF04EC04EF0DFEF20F05ABE21EF20F0E3
:10403E0023EF20F093EF20F059C04FF0FF0E506E9B
:10404E00FF0E516E7F0E526E000E536E4F6632EFA4
:10405E0020F03AEF20F05334533252325132503274
:10406E004F2E2DEF20F050C055F051C056F052C0DB
:10407E0057F053C058F055505B144F6E56505C14A9
:10408E00506E57505D14516E58505E14526E4F5014
:10409E00501051105210D8A457EF20F059EF20F0C5
:1040AE005BEF20F012EF20F05BC04FF05CC050F0E1
:1040BE005DC051F05EC052F0200E6BEF20F0D89034
:1040CE005232513250324F32E82E66EF20F04F50BE
:1040DE00501051105210D8B477EF20F079EF20F035
:1040EE0081EF20F055505B2656505C2257505D22D2
:1040FE0058505E22551C4F6E561C506E571C516EFA
:10410E00581C526E4F505B1650505C1651505D1637
:10411E0052505E16D7EF20F05BC04FF05CC050F0EF
:10412E005DC051F05EC052F0200EA3EF20F0D8908B
:10413E005232513250324F32E82E9EEF20F04F5015
:10414E00501051105210D8A4AFEF20F0B1EF20F064
:10415E00BBEF20F0000E5B6E000E5C6E000E5D6E0F
:10416E00000E5E6ED7EF20F0D8905B344F6E5C344D
:10417E00506E5D34516E5E34526E4F505010511071
:10418E005210D8B4CDEF20F0CFEF20F0D7EF20F0C3
:10419E00000E5B6E000E5C6E800E5D6EBF0E5E6E70
:1041AE005BC04BF05CC04CF05DC04DF05EC04EF09D
:1041BE001200096E0950D8B4E7EF20F0E9EF20F0B5
:1041CE000BEF21F004BEF0EF20F0EEEF20F00BEF3E
:1041DE0021F001C005F002C006F003C007F004C0D4
:1041EE0008F0051E061E071E081E052A000E0622D2
:1041FE000722082205C00BF006C00CF007C00DF018
:10420E0008C00EF013EF21F001C00BF002C00CF04D
:10421E0003C00DF004C00EF0015002100310041084
:10422E00D8A41CEF21F01EEF21F028EF21F0000E94
:10423E00016E000E026E000E036E000E046EB9EFDC
:10424E0021F0960E0A6E32EF21F00A2AD8900E3225
:10425E000D320C320B32000E0B14056E000E0C14C8
:10426E00066E000E0D14076EFE0E0E14086E05502F
:10427E00061007100810D8A447EF21F049EF21F0DF
:10428E002CEF21F057EF21F00A2A010E0B26000E1B
:10429E000C220D220E22D8900E320D320C320B3221
:1042AE00000E0B14056E000E0C14066E000E0D148F
:1042BE00076EFF0E0E14086E05500610071008103C
:1042CE00D8A46CEF21F06EEF21F04BEF21F076EFDA
:1042DE0021F00A06D8900B360C360D360E360DBE72
:1042EE007BEF21F07DEF21F085EF21F0020E0A60C9
:1042FE0083EF21F085EF21F070EF21F00AB08AEF05
:10430E0021F08CEF21F08DEF21F00D9ED8900A3226
:10431E000AC005F0066A076A086A05C008F0076A4F
:10432E00066A056A05500B1206500C1207500D1244
:10433E0008500E120950D8B4A7EF21F0A9EF21F0C2
:10434E00B1EF21F004BEB0EF21F0AEEF21F0B1EFEE
:10435E0021F00E8E0BC001F00CC002F00DC003F068
:10436E000EC004F012007E80520E256E2B0E246EAF
:10437E00000EE82EFED7242EFCD7252EFAD700D01D
:10438E0074EF22F07C86610E1A6E010E1B6E580EB3
:10439E001C6E010E1D6E8EEC2EF0610E1A6E010E4D
:1043AE001B6E580E1C6E010E1D6E8EEC2EF0610EE5
:1043BE001A6E010E1B6E580E1C6E010E1D6E8EECCB
:1043CE002EF0610E1A6E010E1B6E580E1C6E010E33
:1043DE001D6E8EEC2EF059EF22F07C88A30E256E0A
:1043EE00570E246E020EE82EFED7242EFCD7252E55
:1043FE00FAD700D08EB606EF22F008EF22F021EFAA
:10440E0022F08EB40DEF22F00FEF22F021EF22F00A
:10441E0080867C8E520E256E2B0E246E000EE82E9C
:10442E00FED7242EFCD7252EFAD700D080967C9E60
:10443E0059EF22F08EB626EF22F028EF22F03DEF54
:10444E0022F00A0E0001F427000EF5238086520E8C
:10445E00256E2B0E246E000EE82EFED7242EFCD7D2
:10446E00252EFAD700D0809659EF22F08EB442EF67
:10447E0022F044EF22F059EF22F00001F60EF4275D
:10448E00FF0EF5237C8E520E256E2B0E246E000E23
:10449E00E82EFED7242EFCD7252EFAD700D07C9EF0
:1044AE0059EF22F08EA45EEF22F060EF22F067EF5C
:1044BE0022F08EB665EF22F067EF22F0F4EF21F0D6
:1044CE007C98A30E256E570E246E020EE82EFED794
:1044DE00242EFCD7252EFAD700D08EB479EF22F0F9
:1044EE007BEF22F0C9EF21F08EB680EF22F082EF43
:1044FE0022F0C9EF21F07C96A30E256E570E246E86
:10450E00020EE82EFED7242EFCD7252EFAD700D089
:10451E001200000E126E10BE99EF22F097EF22F0ED
:10452E00ABEF22F0101E0F1E0E1E0D1E0C1E0B1ECC
:10453E000A1E096C000E0A220B220C220D220E22DC
:10454E000F221022010E126E08BEB2EF22F0B0EF53
:10455E0022F0C4EF22F0081E071E061E051E041EC2
:10456E00031E021E016C000E0222032204220522EB
:10457E00062207220822010E121A20EE13F0070E51
:10458E00DE6AE806FDE209500A100B100C100D1041
:10459E000E100F101010D8B4D7EF22F0D9EF22F072
:1045AE002BEF23F0010E116EE7EF22F0D8900936B3
:1045BE000A360B360C360D360E360F361036112ADD
:1045CE0010AEECEF22F0EEEF22F0DDEF22F0D890FD
:1045DE0013361436153616361736183619361A3669
:1045EE000950015C0A5002580B5003580C500458E5
:1045FE000D5005580E5006580F50075810500858B9
:10460E00D8A00CEF23F00EEF23F01FEF23F009508C
:10461E00015E0A50025A0B50035A0C50045A0D50A8
:10462E00055A0E50065A0F50075A1050085A13804A
:10463E00D89010320F320E320D320C320B320A324B
:10464E000932112EEEEF22F01250D8B431EF23F0D2
:10465E0033EF23F043EF23F01A1E191E181E171EF8
:10466E00161E151E141E136C000E14221522162271
:10467E001722182219221A2213C001F014C002F0B8
:10468E0015C003F016C004F017C005F018C006F0F0
:10469E0019C007F01AC008F0120020EE02F00E50FA
:1046AE00D9260F50DA22DF50D8B460EF23F062EF34
:1046BE0023F096EF23F00EC0D9FF0FC0DAFFDF50C4
:1046CE00106E1050016E026A20EE03F00E50D926C5
:1046DE000F50DA22DECF03F0DDCF04F042EC30F0E3
:1046EE0001C007F002C008F0000E0A6E640E096EDB
:1046FE003EEC2AF020EE03F00E50D9260F50DA22AF
:10470E00DF50116E0750115C126E20EE03F00E504A
:10471E00D9260F50DA22DF50136EB9EF23F0000EB8
:10472E00126E0EC0D9FF0FC0DAFFDF50106E1050A0
:10473E00016E026A20EE03F00E50D9260F50DA22D7
:10474E00DECF03F0DDCF04F042EC30F001C007F015
:10475E0002C008F0000E0A6E640E096E3EEC2AF0DE
:10476E000750136E20EE01F00E50D9260F50DA22AC
:10477E00DF50D8B4C5EF23F0C7EF23F0E9EF23F0F5
:10478E0020EE05F00E50D9260F50DA22DECF10F0B3
:10479E00DDCF11F010C0D9FF11C0DAFF12C0DFFF5C
:1047AE0020EE07F00E50D9260F50DA22DECF10F091
:1047BE00DDCF11F010C0D9FF11C0DAFF13C0DFFF3B
:1047CE0009EF24F020EE05F00E50D9260F50DA2214
:1047DE00DECF10F0DDCF11F010C0D9FF11C0DAFF1F
:1047EE0013C0DFFF20EE07F00E50D9260F50DA224D
:1047FE00DECF10F0DDCF11F010C0D9FF11C0DAFFFF
:10480E0012C0DFFF1200000E126E08BE13EF24F06E
:10481E0011EF24F025EF24F0081E071E061E051EBC
:10482E00041E031E021E016C000E0222032204222D
:10483E000522062207220822010E126E10BE2CEF50
:10484E0024F02AEF24F03CEF24F0101E0F1E0E1E53
:10485E000D1E0C1E0B1E0A1E096C000E0A220B22C8
:10486E000C220D220E220F22102209500A100B10BC
:10487E000C100D100E100F101010D8B449EF24F0BC
:10488E004BEF24F093EF24F0010E116E59EF24F04C
:10489E00D89009360A360B360C360D360E360F36D4
:1048AE001036112A10AE5EEF24F060EF24F04FEFB9
:1048BE0024F00950015C0A5002580B5003580C505A
:1048CE0004580D5005580E5006580F5007581050EA
:1048DE000858D8A075EF24F077EF24F087EF24F076
:1048EE000950015E0A50025A0B50035A0C50045ADA
:1048FE000D50055A0E50065A0F50075A1050085AAE
:10490E00D89010320F320E320D320C320B320A3278
:10491E000932112E60EF24F01250D8B499EF24F022
:10492E009BEF24F0ABEF24F0081E071E061E051E9B
:10493E00041E031E021E016C000E0222032204221C
:10494E00052206220722082201C001F002C002F051
:10495E0003C003F004C004F005C005F006C006F065
:10496E0007C007F008C008F01200033404340A6EC2
:10497E000A50D8A4C5EF24F0C7EF24F0D1EF24F0ED
:10498E00000E016E000E026E000E036E000E046E1F
:10499E003EEF25F001C005F002C006F003C007F09F
:1049AE0004C008F0200EE1EF24F0D8900832073250
:1049BE0006320532E82EDCEF24F00550096E038E28
:1049CE00FF0E0116FF0E0216FF0E0316000E041642
:1049DE00960E0A5E0ABEF8EF24F0F6EF24F00EEF04
:1049EE0025F00A50800A970FD8B000EF25F002EF9D
:1049FE0025F004EF25F0C7EF24F0D89004320332EF
:104A0E00023201320A3E04EF25F026EF25F01F0E8A
:104A1E000A6414EF25F016EF25F01EEF25F0C7EF10
:104A2E0024F0D89001360236033604360A060A50B0
:104A3E00D8A424EF25F026EF25F018EF25F0095025
:104A4E00D8B42CEF25F02EEF25F036EF25F0041E0E
:104A5E00031E021E016C000E02220322042201C05C
:104A6E0001F002C002F003C003F004C004F0120013
:104A7E00000E2A14326E000E2B14336E800E2C1480
:104A8E00346E7F0E2D14356E3250331034103510B7
:104A9E00D8A454EF25F056EF25F05EEF25F0000E6A
:104AAE002A6E000E2B6E000E2C6E000E2D6E000E5A
:104ABE002E14326E000E2F14336E800E3014346EA0
:104ACE007F0E3114356E3250331034103510D8A499
:104ADE0073EF25F075EF25F07DEF25F0000E2E6EAD
:104AEE00000E2F6E000E306E000E316E2DAE82EF68
:104AFE0025F084EF25F08DEF25F02A6C2B1ED8B013
:104B0E002B2A2C1ED8B02C2A800E2D5631AE92EFA9
:104B1E0025F094EF25F09DEF25F02E6C2F1ED8B0CA
:104B2E002F2A301ED8B0302A800E3156000E2A1A87
:104B3E00000E2B1A000E2C1A800E2D1A000E2E1A95
:104B4E00000E2F1A000E301A800E311A2E502A5CCB
:104B5E002F502B5830502C5831502D58D8B0BAEF0A
:104B6E0025F0BCEF25F0BFEF25F0D890C0EF25F073
:104B7E00D8801200E3C00BF0E4C00CF0E5C00DF0DD
:104B8E00E6C00EF001C00BF002C00CF003C00DF039
:104B9E0004C00EF00BC005F00CC006F00DC007F0FF
:104BAE000EC008F0180EE1EF25F0D890083207324B
:104BBE0006320532E82EDCEF25F00550096E0A6A42
:104BCE0009500A10D8A4EEEF25F0F0EF25F010EF03
:104BDE0026F0D8900B34056E0C34066E0D34076E2D
:104BEE000E34086E0550061007100810D8A402EFF8
:104BFE0026F004EF26F00AEF26F0000E026E020EEB
:104C0E00016E3FEF26F0000E026E030E016E3FEFB7
:104C1E0026F009280A10D8A417EF26F019EF26F06F
:104C2E003BEF26F00BC005F00CC006F00DC007F0F0
:104C3E000EC008F0090ED89005360636073608362F
:104C4E00E82E22EF26F00550061007100810D8B4F3
:104C5E0033EF26F036EF26F0010E37EF26F0000E7A
:104C6E00016E026A3FEF26F0000E026E040E016E18
:104C7E00120003500410D8B447EF26F049EF26F087
:104C8E0052EF26F003500410D8A450EF26F052EF46
:104C9E0026F057EF26F00150B6EC30F0A4EF26F0D8
:104CAE0020EE09F00350D9260450DA22DE50DE1031
:104CBE00D8B464EF26F066EF26F081EF26F020EEF2
:104CCE0009F00350D9260450DA2210EE03F00350F7
:104CDE00E1260450E222DE50E65CE650800A096EC0
:104CEE00DE50800A0958D8B07FEF26F081EF26F00B
:104CFE00A4EF26F020EE03F00350D9260450DA225A
:104D0E00DECF05F0DDCF06F003C0D9FF04C0DAFF19
:104D1E00DECF07F0DDCF08F005500724D96E065020
:104D2E000820DA6E01C0DFFF20EE03F00350D92613
:104D3E000450DA22DE2A000EDD221200610E1A6EF7
:104D4E00010E1B6E580E1C6E010E1D6EA4EC2BF088
:104D5E00610E1A6E010E1B6E580E1C6E010E1D6E2C
:104D6E0067EC2EF0610E1A6E010E1B6E580E1C6E45
:104D7E00010E1D6E67EC2EF0610E1A6E010E1B6E8B
:104D8E00580E1C6E010E1D6EFEEC2BF0610E1A6E8F
:104D9E00010E1B6E580E1C6E010E1D6EA4EC2BF038
:104DAE00610E1A6E010E1B6E580E1C6E010E1D6EDC
:104DBE0067EC2EF0610E1A6E010E1B6E580E1C6EF5
:104DCE00010E1D6E67EC2EF0610E1A6E010E1B6E3B
:104DDE00580E1C6E010E1D6E67EC2EF0610E1A6ED3
:104DEE00010E1B6E580E1C6E010E1D6E67EC2EF022
:104DFE001200610E1A6E010E1B6E580E1C6E010E05
:104E0E001D6EA4EC2BF0610E1A6E010E1B6E580E69
:104E1E001C6E010E1D6E8EEC2EF0610E1A6E010EC2
:104E2E001B6E580E1C6E010E1D6E8EEC2EF0610E5A
:104E3E001A6E010E1B6E580E1C6E010E1D6EFEECD0
:104E4E002BF0610E1A6E010E1B6E580E1C6E010EAB
:104E5E001D6EA4EC2BF0610E1A6E010E1B6E580E19
:104E6E001C6E010E1D6E8EEC2EF0610E1A6E010E72
:104E7E001B6E580E1C6E010E1D6E8EEC2EF0610E0A
:104E8E001A6E010E1B6E580E1C6E010E1D6E8EECF0
:104E9E002EF0610E1A6E010E1B6E580E1C6E010E58
:104EAE001D6E8EEC2EF0120020EE01F01450D9265D
:104EBE001550DA22010EDF6E20EE01F01650D926C3
:104ECE001750DA22010EDF6E91EF27F014C0D9FFD2
:104EDE0015C0DAFF0A0EDF2616C0D9FF17C0DAFF9B
:104EEE000A0EDF2614C00EF015C00FF054EC23F09E
:104EFE0016C00EF017C00FF054EC23F0020E1B6E0E
:104F0E00A00E1A6E920EE82EFED71A2EFCD71B2E6E
:104F1E00FAD700D014C0D9FF15C0DAFF320EDF6009
:104F2E009BEF27F09DEF27F0A9EF27F016C0D9FFD2
:104F3E0017C0DAFF310EDF64A7EF27F0A9EF27F0D5
:104F4E006DEF27F018C001F019C002F0B7EC2FF08A
:104F5E001200000E32143A6E000E33143B6E800EA9
:104F6E0034143C6E7F0E35143D6E3A503B103C109F
:104F7E003D10D8A4C5EF27F0C7EF27F0CFEF27F0ED
:104F8E00000E326E000E336E000E346E000E356E55
:104F9E00000E36143A6E000E37143B6E800E381427
:104FAE003C6E7F0E39143D6E3A503B103C103D1056
:104FBE00D8A4E4EF27F0E6EF27F0EEEF27F0000E8F
:104FCE00366E000E376E000E386E000E396E36508D
:104FDE0032180FE1375033180CE13850341809E10C
:104FEE0039503518D8B4FEEF27F000EF28F003EF54
:104FFE0028F0D89004EF28F0D880120020EE01F0AF
:10500E001450D9261550DA22010EDF6E20EE01F073
:10501E001650D9261750DA22000EDF6E3BEF28F01D
:10502E0014C0D9FF15C0DAFF0A0EDF2616C0D9FF4D
:10503E0017C0DAFF0A0EDF2614C00EF015C00FF0EF
:10504E0054EC23F016C00EF017C00FF054EC23F002
:10505E00020E196EA00E186E920EE82EFED7182EA6
:10506E00FCD7192EFAD700D014C0D9FF15C0DAFF1D
:10507E00320EDF6045EF28F047EF28F053EF28F0AF
:10508E0016C0D9FF17C0DAFF310EDF6451EF28F0DA
:10509E0053EF28F017EF28F0120020EE01F0145015
:1050AE00D9261550DA22000EDF6E20EE01F01650D2
:1050BE00D9261750DA22010EDF6E8AEF28F014C0BF
:1050CE00D9FF15C0DAFF0A0EDF2616C0D9FF17C0AA
:1050DE00DAFF0A0EDF2614C00EF015C00FF054ECE6
:1050EE0023F016C00EF017C00FF054EC23F0020E92
:1050FE00196EA00E186E920EE82EFED7182EFCD743
:10510E00192EFAD700D014C0D9FF15C0DAFF320E0F
:10511E00DF6094EF28F096EF28F0A2EF28F016C08B
:10512E00D9FF17C0DAFF310EDF64A0EF28F0A2EF2F
:10513E0028F066EF28F0120020EE01F01450D92668
:10514E001550DA22000EDF6E20EE01F01650D92631
:10515E001750DA22000EDF6ED9EF28F014C0D9FFF7
:10516E0015C0DAFF0A0EDF2616C0D9FF17C0DAFF08
:10517E000A0EDF2614C00EF015C00FF054EC23F00B
:10518E0016C00EF017C00FF054EC23F0020E196E7D
:10519E00A00E186E920EE82EFED7182EFCD7192EE2
:1051AE00FAD700D014C0D9FF15C0DAFF320EDF6077
:1051BE00E3EF28F0E5EF28F0F1EF28F016C0D9FF65
:1051CE0017C0DAFF310EDF64EFEF28F0F1EF28F0B1
:1051DE00B5EF28F0120020EE01F01450D92615502C
:1051EE00DA22010EDF6E20EE01F01650D92617508E
:1051FE00DA22010EDF6E28EF29F014C0D9FF15C098
:10520E00DAFF0A0EDF2616C0D9FF17C0DAFF0A0E24
:10521E00DF2614C00EF015C00FF054EC23F016C0AC
:10522E000EF017C00FF054EC23F0020E196EA00E04
:10523E00186E920EE82EFED7182EFCD7192EFAD71E
:10524E0000D014C0D9FF15C0DAFF320EDF6032EF86
:10525E0029F034EF29F040EF29F016C0D9FF17C01E
:10526E00DAFF310EDF643EEF29F040EF29F004EF54
:10527E0029F01200050E0E01746F060E766F070EE2
:10528E00696F080E886F85948598839E879CBD50A4
:10529E008F0B3009BD6EE00EBE16BF50F00B01092C
:1052AE00BF6E01C0BCFFBD8E000EAA6E000EA66EB4
:1052BE00000E0F01256F000E216FFC0EAD16F30EC2
:1052CE00AD16CF0EAD163F0EAD16AB88AB50F00B34
:1052DE000C09AB6EAB8EA788A750F00B0C09A76E0E
:1052EE00A78E26892651F00B0C09266F268F228950
:1052FE002251F00B0C09226F228F1200ABEF29F016
:10530E0014C0D9FF15C0DAFF0A0EDF5E16C0D9FF32
:10531E0017C0DAFF0A0EDF5E14C00EF015C00FF0D4
:10532E0054EC23F016C00EF017C00FF054EC23F01F
:10533E00020E196EA00E186E920EE82EFED7182EC3
:10534E00FCD7192EFAD700D014C0D9FF15C0DAFF3A
:10535E00DF50D8A4B5EF29F0B7EF29F087EF29F089
:10536E0016C0D9FF17C0DAFFDF50D8A4C1EF29F05D
:10537E00C3EF29F087EF29F0120016BEC9EF29F00E
:10538E00CBEF29F0D1EF29F015C01AF016C01BF0A3
:10539E00D5EF29F0000E1B6E000E1A6E000E196E60
:1053AE00000E186EE7EF29F0000E026E200E016E51
:1053BE0011C003F012C004F040EC26F0184A192A6E
:1053CE001A50185C1950800A176E1B50800A175815
:1053DE00D8A0F4EF29F0F6EF29F0DBEF29F013C097
:1053EE000AF014C00BF011C00CF012C00DF0FAEC64
:1053FE002EF01200610E1A6E010E1B6E580E1C6EF0
:10540E00010E1D6EA4EC2BF0610E1A6E010E1B6EBA
:10541E00580E1C6E010E1D6E67EC2EF0610E1A6E8C
:10542E00010E1B6E580E1C6E010E1D6E67EC2EF0DB
:10543E00610E1A6E010E1B6E580E1C6E010E1D6E45
:10544E0067EC2EF0610E1A6E010E1B6E580E1C6E5E
:10545E00010E1D6E67EC2EF0610E1A6E010E1B6EA4
:10546E00580E1C6E010E1D6E77EC2BF01200000E06
:10547E000C6E000E0B6E09500A10D8B449EF2AF0CC
:10548E004BEF2AF073EF2AF0010E0D6E53EF2AF058
:10549E00D89009360A360D2A0AAE58EF2AF05AEF7E
:1054AE002AF04FEF2AF0D8900B360C360950075CD5
:1054BE000A500858D8A066EF2AF068EF2AF06DEF70
:1054CE002AF00950075E0A50085A0B80D8900A320B
:1054DE0009320D2E5AEF2AF00BC007F00CC008F05F
:1054EE001200680EF66E610EF76E000EF86E01EE8B
:1054FE00D8F010EE04F00900F5CFEEFFE550E150C4
:10550E00FAE1620EF66E610EF76E000EF86E00EEA8
:10551E00F2F010EE06F00900F5CFEEFFE550E15087
:10552E00FAE102EE00F0F00EEE6AE806FDE101EEA1
:10553E0000F0720EEE6AE806FDE100EED3F01F0EEB
:10554E00EE6AE806FDE15F905F92000172EF1AF0DD
:10555E00610E1A6E010E1B6E580E1C6E010E1D6E24
:10556E00A4EC2BF0610E146E010E156E580E166E15
:10557E00010E176E85EC29F020C014F021C015F035
:10558E0022C016F023C017F0F2EC28F0290E256E7B
:10559E00960E246E7F0EE82EFED7242EFCD7252ED7
:1055AE00FAD700F0610E146E010E156E580E166EBF
:1055BE00010E176E85EC29F0120004BEF3EF2AF0EF
:1055CE0004500310021006E10104D8B0F1EF2AF0E6
:1055DE00F3EF2AF00EEF2BF001C005F002C006F03B
:1055EE0003C007F004C008F0051E061E071E081EA5
:1055FE00052A000E06220722082205C001F006C069
:10560E0002F007C003F008C004F016EF2BF001C043
:10561E0001F002C002F003C003F004C004F0120057
:10562E00D3CF03F0046A0350D4CF01F0026A01C055
:10563E0002F0016A0110056E0250066E06BE31EFD1
:10564E002BF0850E055C030E0658D8A031EF2BF01B
:10565E0033EF2BF039EF2BF07C0E0524056EFC0E8C
:10566E000620066ED8900101DA35D96EDB35DA6E7A
:10567E003C0ED926020EDA2205C0DEFF06C0DDFF83
:10568E001200C7EC2DF00CC0D9FF0DC0DAFF05C01B
:10569E00DEFF06C0DDFF17EC2EF020EE04F00C50FE
:1056AE00D9260D50DA2205C0DEFF06C0DDFFEFEC75
:1056BE002DF020EE02F00C50D9260D50DA2205C046
:1056CE00DEFF06C0DDFF9FEC2DF020EE06F00C5045
:1056DE00D9260D50DA2205C0DEFF06C0DDFF12000E
:1056EE001AC014F01BC015F01CC016F01DC017F028
:1056FE00A3EC28F02B0E1F6E9D0E1E6EF90EE82EDB
:10570E00FED71E2EFCD71F2EFAD700F0610E146E98
:10571E00010E156E580E166E010E176E85EC29F0E1
:10572E00050E1F6E0F0E1E6EF10EE82EFED71E2EEC
:10573E00FCD71F2EFAD700F012001AC014F01BC0AF
:10574E0015F01CC016F01DC017F0A3EC28F0110EBA
:10575E001F6E3C0E1E6ECB0EE82EFED71E2EFCD7F5
:10576E001F2EFAD700F0610E146E010E156E580E34
:10577E00166E010E176E85EC29F0050E1F6E0F0EBC
:10578E001E6EF10EE82EFED71E2EFCD71F2EFAD758
:10579E0000F012001AC014F01BC015F01CC016F059
:1057AE001DC017F0F2EC28F02B0E1F6E9D0E1E6E14
:1057BE00F90EE82EFED71E2EFCD71F2EFAD700F0BC
:1057CE00610E146E010E156E580E166E010E176ECA
:1057DE0085EC29F0050E1F6E0F0E1E6EF10EE82ED3
:1057EE00FED71E2EFCD71F2EFAD700F012001AC0BD
:1057FE0014F01BC015F01CC016F01DC017F0F2EC13
:10580E0028F0560E1F6E3A0E1E6EF40EE82EFED7C0
:10581E001E2EFCD71F2EFAD7610E146E010E156EBA
:10582E00580E166E010E176E85EC29F0050E1F6EC2
:10583E000F0E1E6EF10EE82EFED71E2EFCD71F2E5B
:10584E00FAD700F012001AC014F01BC015F01CC0DD
:10585E0016F01DC017F0A3EC28F0560E1F6E3A0E70
:10586E001E6EF40EE82EFED71E2EFCD71F2EFAD774
:10587E00610E146E010E156E580E166E010E176E19
:10588E0085EC29F0050E1F6E0F0E1E6EF10EE82E22
:10589E00FED71E2EFCD71F2EFAD700F01200AAC07C
:1058AE00AEF0ABC0AFF06BEF2CF0A8C095F0A9C076
:1058BE0096F0AE0E0001976F000E986FACC099F087
:1058CE00ADC09AF0EFEC18F0AEC0F6FFAFC0F7FF28
:1058DE00000EF86E0800F5500009D8A479EF2CF0F0
:1058EE007BEF2CF05CEF2CF0000E0001A96F000E88
:1058FE00A86F1200B40E0001C46F000EC56FB0C0C9
:10590E00C6F0B1C0C7F0000ECA6F000EC96F000E10
:10591E00D06F000ECF6FC60EA86F000EA96FB2C06B
:10592E00AAF0B3C0ABF0C40EAC6F000EAD6F56EC68
:10593E002CF00001C951B025D96ECA51B121DA6ED1
:10594E00000EDF6E1200610E1A6E010E1B6E580EE7
:10595E001C6E010E1D6EA4EC2BF0610E1A6E010E64
:10596E001B6E580E1C6E010E1D6E67EC2EF0610E36
:10597E001A6E010E1B6E580E1C6E010E1D6E67EC1C
:10598E002EF0610E1A6E010E1B6E580E1C6E010E5D
:10599E001D6E67EC2EF01200610E1A6E010E1B6E5C
:1059AE00580E1C6E010E1D6EA4EC2BF0610E1A6EBD
:1059BE00010E1B6E580E1C6E010E1D6E8EEC2EF01F
:1059CE00610E1A6E010E1B6E580E1C6E010E1D6EB0
:1059DE008EEC2EF0610E1A6E010E1B6E580E1C6EA2
:1059EE00010E1D6E8EEC2EF01200610E1A6E010E5F
:1059FE001B6E580E1C6E010E1D6EA4EC2BF0610E6C
:105A0E001A6E010E1B6E580E1C6E010E1D6E2AECC8
:105A1E002CF0610E1A6E010E1B6E580E1C6E010ECE
:105A2E001D6E67EC2EF0610E1A6E010E1B6E580E77
:105A3E001C6E010E1D6E67EC2EF01200610E1A6EBA
:105A4E00010E1B6E580E1C6E010E1D6EA4EC2BF07B
:105A5E00610E1A6E010E1B6E580E1C6E010E1D6E1F
:105A6E002AEC2CF0610E1A6E010E1B6E580E1C6E77
:105A7E00010E1D6E8EEC2EF0610E1A6E010E1B6E57
:105A8E00580E1C6E010E1D6E8EEC2EF0120006ECE2
:105A9E0030F0010E036E000E55EC30F03F0E056E29
:105AAE00550EE82EFED7052EFCD700F0030E036E22
:105ABE00000E55EC30F0D50E036E010E55EC30F0A5
:105ACE00000E036E0F0E55EC30F087928198869E75
:105ADE00849684987F927E9E79987C967C9812000C
:105AEE0003C009F004C00AF001C007F002C008F0BC
:105AFE0091EF2DF009C0D9FF0AC0DAFFDF500B6E0F
:105B0E00094A0A2A07C0D9FF08C0DAFF0BC0DFFF17
:105B1E00074A082A0506D8A00606052806E1062823
:105B2E00D8A49CEF2DF09EEF2DF081EF2DF01200FA
:105B3E00ACEC30F0520E90EC30F0B40E90EC30F045
:105B4E00A2EC30F0530E90EC30F0010E1CEC2FF066
:105B5E00076E07500A6E0B6A000E1CEC2FF0076ED4
:105B6E000750096E086A0A5008100A6E0B50091089
:105B7E000B6EA7EC30F00AC005F00BC006F0120059
:105B8E00ACEC30F0520E90EC30F0B60E90EC30F0F3
:105B9E00A2EC30F0530E90EC30F0010E1CEC2FF016
:105BAE00076E07500A6E0B6A000E1CEC2FF0076E84
:105BBE000750096E086A0A5008100A6E0B50091039
:105BCE000B6EA7EC30F00AC005F00BC006F0120009
:105BDE00ACEC30F0520E90EC30F0B80E90EC30F0A1
:105BEE00A2EC30F0530E90EC30F0010E1CEC2FF0C6
:105BFE00076E07500A6E0B6A000E1CEC2FF0076E34
:105C0E000750096E086A0A5008100A6E0B500910E8
:105C1E000B6EA7EC30F00AC005F00BC006F01200B8
:105C2E00ACEC30F0520E90EC30F0BA0E90EC30F04E
:105C3E00A2EC30F0530E90EC30F0010E1CEC2FF075
:105C4E00076E07500A6E0B6A000E1CEC2FF0076EE3
:105C5E000750096E086A0A5008100A6E0B50091098
:105C6E000B6EA7EC30F00AC005F00BC006F0120068
:105C7E001AC014F01BC015F01CC016F01DC017F092
:105C8E00A3EC28F0D00E1E6ECA0EE82EFED71E2EE6
:105C9E00FCD7610E146E010E156E580E166E010EA7
:105CAE00176E85EC29F0050E1F6E0F0E1E6EF10E8F
:105CBE00E82EFED71E2EFCD71F2EFAD700F01200AC
:105CCE001AC014F01BC015F01CC016F01DC017F042
:105CDE0005EC28F0F4C001F0F5C002F0D3EC2FF083
:105CEE00610E146E010E156E580E166E010E176EA5
:105CFE0085EC29F0050E1F6E0F0E1E6EF10EE82EAE
:105D0E00FED71E2EFCD71F2EFAD700F012001AC097
:105D1E0014F01BC015F01CC016F01DC017F054EC8B
:105D2E0028F0F4C001F0F5C002F0D3EC2FF0610EB4
:105D3E00146E010E156E580E166E010E176E85EC52
:105D4E0029F0050E1F6E0F0E1E6EF10EE82EFED7F9
:105D5E001E2EFCD71F2EFAD700F01200000E2E1AA0
:105D6E00000E2F1A000E301A800E311A2AC001F0C2
:105D7E002BC002F02CC003F02DC004F02EC005F095
:105D8E002FC006F030C007F031C008F016EC11F04D
:105D9E0001C02AF002C02BF003C02CF004C02DF07D
:105DAE00120003C005F004C006F001C007F002C0E7
:105DBE0008F005C0F6FF06C0F7FF054A062A000EDA
:105DCE00F86E07C0D9FF08C0DAFF074A082A080094
:105DDE00F5CFDFFFDF50D8A4F7EF2EF0F9EF2EF05E
:105DEE00E0EF2EF01200000E106E000E0F6E0BEF95
:105DFE002FF00EC001F0026A0CC003F00DC004F0CB
:105E0E0040EC26F00F4A102A0F500A24D96E10507B
:105E1E000B20DA6EDF500E6E0E50D8A419EF2FF055
:105E2E001BEF2FF000EF2FF01200036E1BEC30F083
:105E3E000E01DA871BEC30F0D5CE04F01BEC30F0FF
:105E4E000350D8B42DEF2FF031EF2FF0026A022A53
:105E5E0032EF2FF0026A023A02460E01DA510218B0
:105E6E00DF0B0218DA6FDA890450120014BE4AEF03
:105E7E002FF0145006E11304D8B048EF2FF04AEF7C
:105E8E002FF058EF2FF013C015F014C016F0151E9A
:105E9E00161E154A162A15C013F016C014F05CEF24
:105EAE002FF013C013F014C014F01200610E1A6E0E
:105EBE00010E1B6E580E1C6E010E1D6EA4EC2BF007
:105ECE00610E1A6E010E1B6E580E1C6E010E1D6EAB
:105EDE0067EC2EF0610E1A6E010E1B6E580E1C6EC4
:105EEE00010E1D6E67EC2EF01200610E1A6E010E81
:105EFE001B6E580E1C6E010E1D6EA4EC2BF0610E67
:105F0E001A6E010E1B6E580E1C6E010E1D6E8EEC5F
:105F1E002EF0610E1A6E010E1B6E580E1C6E010EC7
:105F2E001D6E8EEC2EF012000150021003100410A4
:105F3E00D8B4A4EF2FF0A6EF2FF0AEEF2FF0000E97
:105F4E00011A000E021A000E031A800E041A01C066
:105F5E0001F002C002F003C003F004C004F012000E
:105F6E00000E056E000E046EC7EF2FF00B0E036EC3
:105F7E00620EE82EFED7032EFCD700D0044A052A67
:105F8E000150045C02500558D8A0D0EF2FF0D2EF8C
:105F9E002FF0BDEF2FF01200E0EF2FF0150E036E75
:105FAE00C60EE82EFED7032EFCD700D00106D8A0D1
:105FBE00020602BEEDEF2FF0025006E10104D8B04A
:105FCE00EBEF2FF0EDEF2FF0D5EF2FF01200F9EFF2
:105FDE002FF002C0D9FF03C0DAFFDF5084EC30F09F
:105FEE00024A032A02C0D9FF03C0DAFFDF50D8A449
:105FFE0003EF30F005EF30F0F0EF2FF012000E014E
:10600E00D951F00B0809D96FD98B9F0ED66F848AA0
:10601E00848CA79BA79D1D0E1D6F1E0E1C6F1C0E44
:10602E006F6F1B0E706F12000E01D8B521EF30F09E
:10603E0023EF30F01BEF30F0DACE01F01F0E011619
:10604E00D8A42CEF30F02EEF30F01BEF30F0120012
:10605E0087928198869E7F8279887E8E7C9E849E92
:10606E0080968896809088907E9086907C98849872
:10607E007C968496120001500302F3CF05F0F4CF04
:10608E0006F001500402F350062602500302F350AC
:10609E00062605C001F006C002F01200046EACEC3C
:1060AE0030F0520E90EC30F00450800990EC30F04D
:1060BE00035090EC30F0A7EC30F01200D6501F0BCE
:1060CE004009D66ED688D650F00B0D09D66ED588FF
:1060DE00000ED46E000ED36ED59E1200120E0E015F
:1060EE00626F110E156FE997E895330EE56F000E8E
:1060FE00E66FE789E88BE78F1200016E0E0137A578
:10610E008BEF30F08DEF30F085EF30F001C0E4FE14
:10611E001200026E1BEC30F002C0D5FE1200F29A95
:10612E00F29CF28E0E01298B120086840E01B4951C
:10613E008686B49712001BEC30F00E01DA83120043
:10614E001BEC30F00E01DA8512001BEC30F00E0164
:10615E00DA8112001A043C0032000100FFFF120027
:020000040020DA
:10000000FF0FFF0FFF0FFF0FFF0FFF0FFF0FFF0F80
:020000040030CA
:0C000000AAFFFFFF9FFFFFFFFFFFFFFFB5
:00000001FF
