:0400000007EF00F016
:0A0008005F825F9211006BEF2DF094
:100E0000007265643D256420677265656E3D2564EA
:100E100020626C75653D25642074696D65723D25A1
:100E200064200D0A007265643D2566206772656561
:100E30006E3D256620626C75653D2566206C756D7E
:100E40003D256420200D0A00696E66006E616E000B
:010E500000A1
:100E5200000E0001726F000E736F000E746F000EB1
:100E6200756F000E766F500E776FC30E786F470E58
:100E7200796F000E656F040E646F20EE66F00B0E44
:100E8200DE6AE806FDE24BC0D9FF4CC0DAFFDECFD6
:100E920001F0DDCF02F0000E02BEFF0E036E046E03
:100EA200010E2FEC21F001C066F002C067F003C012
:100EB20068F004C069F020EE02F04B50D9264C5085
:100EC200DA22DECF01F0DDCF02F0000E02BEFF0E0D
:100ED200036E046E010E2FEC21F001C06AF002C015
:100EE2006BF003C06CF004C06DF020EE04F04B50C8
:100EF200D9264C50DA22DECF01F0DDCF02F0000E0F
:100F020002BEFF0E036E046E010E2FEC21F001C033
:100F12006EF002C06FF003C070F004C071F0000EFA
:100F220000017B6F000E7A6F72C02AF073C02BF043
:100F320074C02CF075C02DF0660E4F6E000E506E10
:100F4200D8907A35D96E7B35DA6ED890D936DA36C2
:100F52004F50D9265050DA22DECF2EF0DECF2FF0BE
:100F6200DECF30F0DECF31F0B8EC24F0D8B0BCEFF9
:100F720007F0BEEF07F0DBEF07F0660E4F6E000ED4
:100F8200506ED89000017A35D96E7B35DA6ED890E2
:100F9200D936DA364F50D9265050DA22DECF72F0E7
:100FA200DECF73F0DECF74F0DECF75F07AC064F07E
:100FB2007BC065F0660E4F6E000E506ED890000139
:100FC2007A35D96E7B35DA6ED890D936DA364F500B
:100FD200D9265050DA22DECF2AF0DECF2BF0DECF38
:100FE2002CF0DECF2DF076C02EF077C02FF078C037
:100FF20030F079C031F0B8EC24F0D8B003EF08F04B
:1010020005EF08F01EEF08F0660E4F6E000E506EF0
:10101200D89000017A35D96E7B35DA6ED890D93600
:10102200DA364F50D9265050DA22DECF76F0DECFB4
:1010320077F0DECF78F0DECF79F000017A4B7B2BB0
:101042007BBF2DEF08F07B5109E1030E7A5DD8A03A
:101052002DEF08F02FEF08F095EF07F076C02EF095
:1010620077C02FF078C030F079C031F072C02AF02A
:1010720073C02BF074C02CF075C02DF092EC2DF0E3
:101082002AC032F02BC033F02CC034F02DC035F022
:10109200000E366E000E376E000E386E000E396E80
:1010A20029EC27F0D8A058EF08F05AEF08F060EFCB
:1010B20008F0000E4C6E000E4B6E96EF0CF0000125
:1010C20064516511D8A468EF08F06AEF08F0DEEF0A
:1010D20008F076C02EF077C02FF078C030F079C0DB
:1010E20031F072C02AF073C02BF074C02CF075C0BE
:1010F2002DF092EC2DF02AC036F02BC037F02CC028
:1011020038F02DC039F06EC02EF06FC02FF070C0D5
:1011120030F071C031F06AC02AF06BC02BF06CC0A5
:101122002CF06DC02DF092EC2DF02AC032F02BC0C5
:1011320033F02CC034F02DC035F0AAEC18F032C0D8
:1011420011F033C012F034C013F035C014F0000EA9
:10115200156E000E166E700E176E420E186E95EC1E
:1011620016F011C07CF012C07DF013C07EF014C0E6
:101172007FF000017FBFC2EF08F0C0EF08F0BDEFC3
:1011820009F07CC001F07DC002F07EC003F07FC098
:1011920004F0000E056E000E066EB40E076E430ECE
:1011A200086E35EC14F001C07CF002C07DF003C083
:1011B2007EF004C07FF0BDEF09F064056511D8A48C
:1011C200E5EF08F0E7EF08F053EF09F076C02EF0F4
:1011D20077C02FF078C030F079C031F072C02AF0B9
:1011E20073C02BF074C02CF075C02DF092EC2DF072
:1011F2002AC036F02BC037F02CC038F02DC039F0A1
:1012020066C02EF067C02FF068C030F069C031F0C0
:101212006EC02AF06FC02BF070C02CF071C02DF0A0
:1012220092EC2DF02AC032F02BC033F02CC034F0F7
:101232002DC035F0AAEC18F032C060F033C061F076
:1012420034C062F035C063F0000E056E000E066E0B
:10125200000E076E400E086E60C001F061C002F021
:1012620062C003F063C004F035EC14F001C011F069
:1012720002C012F003C013F004C014F0000E156E89
:10128200000E166E700E176E420E186E95EC16F06A
:1012920011C07CF012C07DF013C07EF014C07FF04C
:1012A200BDEF09F076C02EF077C02FF078C030F095
:1012B20079C031F072C02AF073C02BF074C02CF0E8
:1012C20075C02DF092EC2DF02AC036F02BC037F00D
:1012D2002CC038F02DC039F06AC02EF06BC02FF050
:1012E2006CC030F06DC031F066C02AF067C02BF0E0
:1012F20068C02CF069C02DF092EC2DF02AC032F0BB
:101302002BC033F02CC034F02DC035F0AAEC18F00D
:1013120032C060F033C061F034C062F035C063F0B7
:10132200000E056E000E066E800E076E400E086EF1
:1013320060C001F061C002F062C003F063C004F05B
:1013420035EC14F001C011F002C012F003C013F02A
:1013520004C014F0000E156E000E166E700E176E9D
:10136200420E186E95EC16F011C07CF012C07DF0A2
:1013720013C07EF014C07FF07CC02AF07DC02BF039
:101382007EC02CF07FC02DF0000E2E6E000E2F6E50
:10139200A50E306E430E316EB8EC24F0D8A0D4EF17
:1013A20009F0D6EF09F0F5EF09F0000E2A6E000EF3
:1013B2002B6EB40E2C6E430E2D6E7CC02EF07DC0B3
:1013C2002FF07EC030F07FC031F0B8EC24F0D8A00E
:1013D200EDEF09F0EFEF09F0F5EF09F0000E4C6EBA
:1013E200010E4B6E96EF0CF07CC02AF07DC02BF004
:1013F2007EC02CF07FC02DF0000E2E6E000E2F6EE0
:10140200A00E306E400E316EB8EC24F0D8A00CEF76
:101412000AF00EEF0AF02DEF0AF0000E2A6E000E0F
:101422002B6E400E2C6E410E2D6E7CC02EF07DC0B8
:101432002FF07EC030F07FC031F0B8EC24F0D8A09D
:1014420025EF0AF027EF0AF02DEF0AF0000E4C6E9E
:10145200020E4B6E96EF0CF07CC02AF07DC02BF092
:101462007EC02CF07FC02DF0000E2E6E000E2F6E6F
:10147200A00E306E410E316EB8EC24F0D8A044EFCD
:101482000AF046EF0AF0C6EF0AF0000E2A6E000ECE
:101492002B6EE80E2C6E410E2D6E7CC02EF07DC0A0
:1014A2002FF07EC030F07FC031F0B8EC24F0D8A02D
:1014B2005DEF0AF05FEF0AF0C6EF0AF04DC0D9FF08
:1014C2004EC0DAFFDECF2AF0DECF2BF0DECF2CF0DB
:1014D200DECF2DF0CD0E2E6ECC0E2F6E4C0E306E5A
:1014E2003E0E316EB8EC24F0D8A07AEF0AF07CEF11
:1014F2000AF09BEF0AF0000E2A6E000E2B6E800E91
:101502002C6E3E0E2D6E4DC0D9FF4EC0DAFFDECFDF
:101512002EF0DECF2FF0DECF30F0DECF31F0B8ECA0
:1015220024F0D8A097EF0AF099EF0AF09BEF0AF0A7
:101532005AEF08F020EE08F04D50D9264E50DA222C
:10154200DECF2AF0DECF2BF0DECF2CF0DECF2DF077
:10155200290E2E6E5C0E2F6E0F0E306E3E0E316E09
:10156200B8EC24F0D8A0B8EF0AF0BAEF0AF0C0EF56
:101572000AF0000E4C6E040E4B6E96EF0CF0000E4D
:101582004C6E030E4B6E96EF0CF07CC02AF07DC0C1
:101592002BF07EC02CF07FC02DF0000E2E6E000EC0
:1015A2002F6E340E306E420E316EB8EC24F0D8A09D
:1015B200DDEF0AF0DFEF0AF044EF0BF0000E2A6EC7
:1015C200000E2B6EA00E2C6E420E2D6E7CC02EF0E5
:1015D2007DC02FF07EC030F07FC031F0B8EC24F037
:1015E200D8A0F6EF0AF0F8EF0AF044EF0BF020EE85
:1015F20008F04D50D9264E50DA22DECF2AF0DECF47
:101602002BF0DECF2CF0DECF2DF09A0E2E6E990E3F
:101612002F6E190E306E3E0E316EB8EC24F0D8A04B
:1016220015EF0BF017EF0BF019EF0BF0BAEF0AF012
:1016320020EE08F04D50D9264E50DA22DECF2AF0A5
:10164200DECF2BF0DECF2CF0DECF2DF08F0E2E6E04
:10165200C20E2F6EF50E306E3D0E316EB8EC24F0D8
:10166200D8A036EF0BF038EF0BF03EEF0BF0000E88
:101672004C6E060E4B6E96EF0CF0000E4C6E050E85
:101682004B6E96EF0CF07CC02AF07DC02BF07EC032
:101692002CF07FC02DF0000E2E6E000E2F6EA20ECB
:1016A200306E420E316EB8EC24F0D8A05BEF0BF036
:1016B2005DEF0BF097EF0BF0000E2A6E000E2B6E13
:1016C200E60E2C6E420E2D6E7CC02EF07DC02FF0E9
:1016D2007EC030F07FC031F0B8EC24F0D8A074EFB7
:1016E2000BF076EF0BF097EF0BF020EE08F04D5079
:1016F200D9264E50DA22DECF2AF0DECF2BF0DECF13
:101702002CF0DECF2DF09A0E2E6E990E2F6E190E42
:10171200306E3E0E316EB8EC24F0D8A093EF0BF091
:1017220095EF0BF038EF0BF0BAEF0AF07CC02AF01D
:101732007DC02BF07EC02CF07FC02DF0000E2E6EEF
:10174200000E2F6EF00E306E410E316EB8EC24F0AA
:10175200D8A0AEEF0BF0B0EF0BF0C9EF0BF0000E1C
:101762002A6E000E2B6E680E2C6E420E2D6E7CC001
:101772002EF07DC02FF07EC030F07FC031F0B8EC8B
:1017820024F0D8B0C7EF0BF0C9EF0BF0BAEF0AF0B4
:101792007CC02AF07DC02BF07EC02CF07FC02DF0E3
:1017A200000E2E6E000E2F6EF00E306E420E316E57
:1017B200B8EC24F0D8A0E0EF0BF0E2EF0BF0FDEF75
:1017C2000BF0000E2A6E000E2B6E5C0E2C6E430E7A
:1017D2002D6E7CC02EF07DC02FF07EC030F07FC019
:1017E20031F0B8EC24F0D8A0F9EF0BF0FBEF0BF0DE
:1017F200FDEF0BF0BAEF0AF07CC02AF07DC02BF0AF
:101802007EC02CF07FC02DF0000E2E6E000E2F6ECB
:10181200600E306E410E316EB8EC24F0D8A014EF99
:101822000CF016EF0CF092EF0CF0000E2A6E000E88
:101832002B6E980E2C6E410E2D6E7CC02EF07DC04C
:101842002FF07EC030F07FC031F0B8EC24F0D8A089
:101852002DEF0CF02FEF0CF092EF0CF04DC0D9FFF2
:101862004EC0DAFFDECF2AF0DECF2BF0DECF2CF037
:10187200DECF2DF0CD0E2E6ECC0E2F6E4C0E306EB6
:101882003E0E316EB8EC24F0D8A04AEF0CF04CEFCB
:101892000CF06BEF0CF01F0E2A6E850E2B6E6B0E8A
:1018A2002C6E3E0E2D6E4DC0D9FF4EC0DAFFDECF3C
:1018B2002EF0DECF2FF0DECF30F0DECF31F0B8ECFD
:1018C20024F0D8A067EF0CF069EF0CF06BEF0CF08E
:1018D2005AEF08F020EE08F04D50D9264E50DA2289
:1018E200DECF2AF0DECF2BF0DECF2CF0DECF2DF0D4
:1018F2009A0E2E6E990E2F6E190E306E3E0E316EAE
:10190200B8EC24F0D8A088EF0CF08AEF0CF08CEF42
:101912000CF0BAEF0AF0000E4C6E070E4B6E96EF0B
:101922000CF0000E4C6E0A0E4B6E1200000E0001FF
:101932008A6F62C08DF063C08EF064C08FF065C0A4
:1019420090F090BFA9EF0CF0A7EF0CF0BDEF0CF0F8
:10195200010E8A6F8DC001F08EC002F08FC003F0BD
:1019620090C004F078EC2EF001C08DF002C08EF031
:1019720003C08FF004C090F0000E00018C6F000EC7
:101982008B6FE5C07AF0E6C07BF08A51D8B4CCEF19
:101992000CF0CEEF0CF0E2EF0CF08A51D8A4D4EFA9
:1019A2000CF0D6EF0CF0DCEF0CF0000E706F2B0E8B
:1019B2006F6FE0EF0CF0000E706F2D0E6F6F6FC047
:1019C2008AF08DC001F08EC002F08FC003F090C08B
:1019D20004F03AEC25F001040210D8A4F3EF0CF065
:1019E200F5EF0CF028EF0DF000018A51D8B4FCEFAE
:1019F2000CF0FEEF0CF007EF0DF08AC016F17A073B
:101A0200D8A07B07000E8C6F010E8B6F160E8B25F4
:101A1200016E010E8C21026E480E036E0E0E046ED4
:101A2200B5EC2DF00001FD0E7A27FF0E7B2360C07E
:101A320011F061C012F0160E136E010E146E7AC010
:101A420015F07BC016F03DEC29F093EF11F08DC03C
:101A520001F08EC002F08FC003F090C004F03AECA7
:101A620025F001500210D8A439EF0DF03BEF0DF034
:101A72005BEF0DF000018A51D8B442EF0DF044EF54
:101A82000DF04DEF0DF08AC016F17A07D8A07B0752
:101A9200000E8C6F010E8B6F160E8B25016E010EE0
:101AA2008C21026E4C0E036E0E0E046EB5EC2DF000
:101AB20013EF0DF0000E0001916F000E926F800E79
:101AC200936F3F0E946F000E796F000E786F8DC08A
:101AD20032F08EC033F08FC034F090C035F0000E7B
:101AE200366E000E376E000E386E000E396E29EC1F
:101AF20027F0D8B07FEF0DF081EF0DF060EF0EF020
:101B02008EEF0DF07CC091F07DC092F07EC093F01C
:101B12007FC094F00001784B792B91C011F092C0F4
:101B220012F093C013F094C014F0000E156E000E64
:101B3200166E200E176E410E186E95EC16F011C03F
:101B42007CF012C07DF013C07EF014C07FF0000163
:101B52007C518D5D016E7D518E59026E7E518F5981
:101B6200036E7F519059046EB4EC29F004BEC5EFA8
:101B72000DF004500310021009E1020E015CD8A01E
:101B8200C5EF0DF0C7EF0DF083EF0DF07CC02AF02A
:101B92007DC02BF07EC02CF07FC02DF08DC02EF0CA
:101BA2008EC02FF08FC030F090C031F0B8EC24F02E
:101BB200D8A0DEEF0DF0E0EF0DF083EF0DF00001A5
:101BC20091518D5D016E92518E59026E93518F59D2
:101BD200036E94519059046EB4EC29F004BEFFEFE9
:101BE2000DF004500310021007E1020E015CD8B0A0
:101BF200FDEF0DF0FFEF0DF047EF0EF091C08DF00D
:101C020092C08EF093C08FF094C090F060EF0EF00F
:101C120091C032F092C033F093C034F094C035F0EA
:101C2200000E366E000E376E200E386E410E396E83
:101C3200AAEC18F032C091F033C092F034C093F0A5
:101C420035C094F000017807D8A0790791518D5DD5
:101C5200016E92518E59026E93518F59036E9451B7
:101C62009059046EB4EC29F004BE45EF0EF0045016
:101C72000310021007E1020E015CD8B043EF0EF030
:101C820045EF0EF047EF0EF0FFEF0DF08DC02AF09A
:101C92008EC02BF08FC02CF090C02DF091C02EF092
:101CA20092C02FF093C030F094C031F0B8EC24F021
:101CB200D8A05EEF0EF060EF0EF009EF0EF066C0F6
:101CC20072F072C073F00001E8BF6AEF0EF06CEFC1
:101CD2000EF072EF0EF0E7C06BF0E8C06CF076EF3A
:101CE2000EF0000E6C6F060E6B6F6BC076F06CC060
:101CF20077F0764B772B660E7319D8A483EF0EF02C
:101D020085EF0EF0A5EF0EF079BF8CEF0EF08AEFA3
:101D12000EF098EF0EF0000E916F000E926F800E93
:101D2200936F3F0E946F000E796F000E786F670EFF
:101D32007219D8B49FEF0EF0A1EF0EF0A5EF0EF0DE
:101D42007851762779517723000E816F000E806FCC
:101D52008DC082F08EC083F08FC084F090C085F079
:101D620091C07CF092C07DF093C07EF094C07FF071
:101D720036EF0FF082C032F083C033F084C034F00B
:101D820085C035F091C036F092C037F093C038F07C
:101D920094C039F0AAEC18F032C04BF033C04CF0CA
:101DA20034C04DF035C04EF026EC20F04BC086F02A
:101DB2004CC087F04DC088F04EC089F086C001F05B
:101DC20087C002F088C003F089C004F035EC24F02B
:101DD20001C074F002C075F082C02AF083C02BF0FB
:101DE20084C02CF085C02DF086C015F087C016F097
:101DF20088C017F089C018F091C011F092C012F09B
:101E020093C013F094C014F095EC16F011C02EF0AC
:101E120012C02FF013C030F014C031F092EC2DF04C
:101E22002AC082F02BC083F02CC084F02DC085F034
:101E320091C032F092C033F093C034F094C035F0C8
:101E4200000E366E000E376E200E386E410E396E61
:101E5200AAEC18F032C091F033C092F034C093F083
:101E620035C094F00001804B812B7651805D815109
:101E7200800A676F7751800A6759D8A043EF0FF045
:101E820045EF0FF0BBEF0EF091C011F092C012F0CF
:101E920093C013F094C014F0000E156E000E166E6F
:101EA200A00E176E400E186E95EC16F011C086F05B
:101EB20012C087F013C088F014C089F082C02AF0E3
:101EC20083C02BF084C02CF085C02DF086C02EF08C
:101ED20087C02FF088C030F089C031F0B8EC24F010
:101EE200D8B076EF0FF078EF0FF083EF0FF0000E1F
:101EF2000001866F000E876F000E886F000E896FDB
:101F0200ACEF0FF082C032F083C033F084C034F003
:101F120085C035F086C036F087C037F088C038F00B
:101F220089C039F029EC27F0D8A09AEF0FF09CEF86
:101F32000FF0ACEF0FF0000174B1A2EF0FF0A4EFBD
:101F42000FF0ACEF0FF0000E866F000E876F000EE1
:101F5200886F000E896F8DC001F08EC002F08FC0B5
:101F620003F090C004F086C005F087C006F088C078
:101F720007F089C008F035EC14F001C082F002C00D
:101F820083F003C084F004C085F082C02AF083C0CD
:101F92002BF084C02CF085C02DF0000E156E000EC3
:101FA200166E200E176E410E186E7CC011F07DC0A9
:101FB20012F07EC013F07FC014F095EC16F011C041
:101FC2002EF012C02FF013C030F014C031F0B8EC74
:101FD20024F0D8A0EFEF0FF0F1EF0FF01AEF10F0AE
:101FE2000001784B792B7CC011F07DC012F07EC0CD
:101FF20013F07FC014F0000E156E000E166E200E48
:10200200176E410E186E95EC16F011C07CF012C0DE
:102012007DF013C07EF014C07FF0660E00017319CC
:10202200D8A416EF10F018EF10F01AEF10F0764B5C
:10203200772B7CC091F07DC092F07EC093F07FC080
:1020420094F078C069F079C06AF0000E0001716FF7
:10205200000E6E6F000E6D6F000E816F000E806FAE
:1020620018EF11F082C032F083C033F084C034F034
:1020720085C035F091C036F092C037F093C038F089
:1020820094C039F0AAEC18F032C04BF033C04CF0D7
:1020920034C04DF035C04EF026EC20F04BC086F037
:1020A2004CC087F04DC088F04EC089F086C001F068
:1020B20087C002F088C003F089C004F035EC24F038
:1020C20002BE6FEF10F0025007E10A0E015CD8B0B9
:1020D2006DEF10F06FEF10F07FEF10F086C001F09F
:1020E20087C002F088C003F089C004F035EC24F008
:1020F20001C074F002C075F084EF10F0000E000110
:10210200756F090E746F00017151D8A48BEF10F036
:102112008DEF10F0B5EF10F06ABF94EF10F092EF70
:1021220010F0B5EF10F0160E8B25D96E010E8C2132
:10213200DA6E2E0EDF6E8B4B8C2B7A07D8A07B07C4
:10214200010E716FB5EF10F0160E8B25D96E010ED0
:102152008C21DA6E300EDF6E8B4B8C2B7A07D8A077
:102162007B076D07D8A06E076D516E11D8A4BCEF26
:1021720010F0BEEF10F0A5EF10F0160E8B25D96E01
:10218200010E8C21DA6E7451300FDF6E8B4B8C2B6B
:102192007A07D8A07B0782C02AF083C02BF084C0C4
:1021A2002CF085C02DF086C015F087C016F088C0CF
:1021B20017F089C018F091C011F092C012F093C0CC
:1021C20013F094C014F095EC16F011C02EF012C06A
:1021D2002FF013C030F014C031F092EC2DF02AC071
:1021E20082F02BC083F02CC084F02DC085F091C00A
:1021F20032F092C033F093C034F094C035F0000E48
:10220200366E000E376E200E386E410E396EAAEC15
:1022120018F032C091F033C092F034C093F035C060
:1022220094F000016907D8A06A07804B812B765190
:10223200805D8151800A676F7751800A6759D8B0F3
:1022420025EF11F027EF11F035EF11F08CBF33EFCE
:1022520011F08C5109E14B0E8B5DD8A033EF11F0D8
:1022620035EF11F033EF10F0000E816F4F0E806FDB
:10227200160E8025D96E010E8121DA6E000EDF6EF8
:10228200160E676F010E686F8B51675F8C51685B2A
:1022920080516725016E81516821026E160E036E10
:1022A200010E046E8BC005F08CC006F0A3EC2CF07E
:1022B20000018B51805D8B6F8C5181598C6F8A51DB
:1022C200D8A466EF11F069EF11F0010E6AEF11F078
:1022D200000E806F816B8A51D8B472EF11F074EFE7
:1022E20011F07FEF11F08B07D8A08C07160E8B250B
:1022F200D96E010E8C21DA6E8AC0DFFF80517A5FBF
:1023020081517B5B60C011F061C012F0160E8B250B
:10231200136E010E8C21146E7AC015F07BC016F07C
:102322003DEC29F012004CEC2FF082EC2FF028EC5F
:102332002CF0C8EC2EF03CEC2FF0000E026EC80E12
:10234200016EBAEC28F087928198869E86840E01EF
:10235200B4957F8279887E8E000E01017B6F010E1B
:102362007C6F010E7D6FAA0E806F0F0E816FA60E1D
:10237200826F0F0E836F000E7F6FC80E7E6F000E8E
:10238200726F010E736F010E746F250E776F0F0E51
:10239200786F210E796F0F0E7A6F000E766FC80E6E
:1023A200756F000EF76F000EF66F000EFB6F000EDA
:1023B200FA6F000EF56F010EF46F146915698EB491
:1023C200E5EF11F0E7EF11F0E0EF11F0520E00012E
:1023D200D06F2B0ECF6F000EE82EFED7CF2FFCD77B
:1023E200D02FFAD700F0000ED46E000ED36E29EF74
:1023F20014F07B0E146E010E156E720E166E010E27
:10240200176ECDEC27F0840E0C6E010E0D6E1AECD9
:102412002AF0840E4B6E010E4C6E660E4D6E010E4E
:102422004E6E77EC1AF001018BBF21EF12F0F40E21
:102432008A5D010E8B59D8A021EF12F023EF12F022
:10244200EEEF13F0144B152B06EC2FF07B0E1A6EE9
:10245200010E1B6E720E1C6E010E1D6E76EC2AF0C2
:102462007B0E146E010E156E720E166E010E176E35
:10247200FEEC28F0110E0001D06F3C0ECF6FCB0E98
:10248200E82EFED7CF2FFCD7D02FFAD77CEF12F051
:10249200840E4B6E010E4C6E660E4D6E010E4E6E2C
:1024A20029EC07F04BC0F8F14CC0F9F10101FA51E7
:1024B200F81907E1FB51F919D8A462EF12F064EFA1
:1024C20012F068EF12F0F64BF72B6CEF12F0000EE1
:1024D200F76F000EF66FF8C1FAF1F9C1FBF1050EC4
:1024E2000001D06F0F0ECF6FF10EE82EFED7CF2F67
:1024F200FCD7D02FFAD70101F7BF89EF12F0F751BD
:1025020009E1140EF65DD8A089EF12F08BEF12F0FC
:1025120049EF12F0000EF76F000EF66FD3CFF0F115
:10252200F16B8C0E0001B06F010EB16F010EB26F34
:102532000E0EB36F84C1B4F085C1B5F086C1B6F09A
:1025420087C1B7F088C1B8F089C1B9F0D4CFBAF069
:10255200BB6BADEC2BF08C0E026E010E036EB0EC79
:102562002EF00101FA05FB11D8A4BAEF12F0BCEF6C
:1025720012F0D5EF12F07B0E206E010E216E720E5C
:10258200226E010E236E3AEC2EF0000ED46E000E77
:10259200D36EA00E01011425D96E020E1521DA6E3A
:1025A200010EDF6E29EF14F0020EFA19FB11D8A406
:1025B200DDEF12F0DFEF12F0F8EF12F07B0E206E7B
:1025C200010E216E720E226E010E236ED6EC2BF0DE
:1025D200000ED46E000ED36EA00E01011425D96E2A
:1025E200020E1521DA6E020EDF6E29EF14F0030ED1
:1025F200FA19FB11D8A400EF13F002EF13F01BEF4E
:1026020013F07B0E206E010E216E720E226E010EF1
:10261200236E51EC2CF0000ED46E000ED36EA00E81
:1026220001011425D96E020E1521DA6E030EDF6E3A
:1026320029EF14F0040EFA19FB11D8A423EF13F0BA
:1026420025EF13F03EEF13F07B0E206E010E216E8C
:10265200720E226E010E236EE7EC29F0000ED46E8C
:10266200000ED36EA00E01011425D96E020E1521A3
:10267200DA6E040EDF6E29EF14F0050EFA19FB1163
:10268200D8A446EF13F048EF13F061EF13F07B0E7E
:10269200206E010E216E720E226E010E236E59EC17
:1026A2002EF0000ED46E000ED36EA00E0101142582
:1026B200D96E020E1521DA6E050EDF6E29EF14F0C7
:1026C200060EFA19FB11D8A469EF13F06BEF13F0A1
:1026D20084EF13F07B0E206E010E216E720E226EBD
:1026E200010E236EFFEC2BF0000ED46E000ED36EA3
:1026F200A00E01011425D96E020E1521DA6E060E06
:10270200DF6E29EF14F0070EFA19FB11D8A48CEF33
:1027120013F08EEF13F0A7EF13F07B0E206E010E75
:10272200216E720E226E010E236E7AEC2CF0000ED8
:10273200D46E000ED36EA00E01011425D96E020EC6
:102742001521DA6E070EDF6E29EF14F00A0EFA1960
:10275200FB11D8A4AFEF13F0B1EF13F0BDEF13F0FC
:102762007B0E206E010E216E720E226E010E236E02
:10277200DDEC2EF029EF14F0FA51FB11D8A4C4EFCE
:1027820013F0C6EF13F0ECEF13F07B0E206E010E88
:10279200216E720E226E010E236EE7EC29F0D59E99
:1027A200A00E246E020E256E3C0E266E020E276EC1
:1027B20091EC1DF07B0E146E010E156E720E166EEC
:1027C200010E176EFEEC28F0000E0101F56F000EEF
:1027D200F46F29EF14F029EF14F0840E4B6E010E02
:1027E2004C6E660E4D6E010E4E6E29EC07F04BC01C
:1027F200F2F14CC0F3F18C0E0001B06F010EB16F1B
:10280200250EB26F0E0EB36F66C1B4F067C1B5F09C
:1028120068C1B6F069C1B7F06AC1B8F06BC1B9F06E
:102822006CC1BAF06DC1BBF06EC1BCF06FC1BDF03E
:1028320070C1BEF071C1BFF08AC1C0F08BC1C1F0DE
:10284200ADEC2BF08C0E026E010E036EB0EC2EF08E
:102852000101F451F511D8A431EF14F033EF14F063
:10286200FAEF11F007EF00F00450800B0D6E0450E8
:1028720004240F6E03AE40EF14F042EF14F043EF66
:1028820014F00F800F50D8B449EF14F04BEF14F04E
:1028920060EF14F00F28D8A451EF14F053EF14F0A6
:1028A2005BEF14F0000E016E000E026E000E036E5E
:1028B200000E046E038E000E046E68EF14F0000E1C
:1028C200016E000E026E000E036E000E046E0850C2
:1028D200800B0E6E0D500E18D8B472EF14F074EF18
:1028E20014F075EF14F00D8C085008240E6E07AE2C
:1028F2007DEF14F07FEF14F080EF14F00E800E5095
:10290200D8B486EF14F088EF14F09DEF14F00E287F
:10291200D8A48EEF14F090EF14F098EF14F0000E9C
:10292200056E000E066E000E076E000E086E078E14
:10293200000E086EA5EF14F0000E056E000E066E76
:10294200000E076E000E086E0F500E5CD8B0ACEF92
:1029520014F0AEEF14F0D5EF14F00DACB3EF14F0A9
:10296200B5EF14F0B7EF14F0800E0D1A0FC010F08F
:102972000EC00FF010C00EF001C010F005C001F043
:1029820010C005F002C010F006C002F010C006F040
:1029920003C010F007C003F010C007F004C010F02D
:1029A20008C004F010C008F0000E106E0F500EC0E8
:1029B20009F00A6A095E000E0A5A0ABEEAEF14F02A
:1029C2000A5009E11A0E095CD8A0EAEF14F0ECEF04
:1029D20014F023EF15F00150021003100410D8A4D4
:1029E200F5EF14F0F8EF14F0010EF9EF14F0000E09
:1029F200106E000E016E000E026E000E036E000ECF
:102A0200046E0EC00FF02CEF15F010A00BEF15F0B6
:102A12000DEF15F013EF15F0D89010300109106E7C
:102A220015EF15F0D890103201A01AEF15F01CEF37
:102A320015F01DEF15F0108E043404320332023209
:102A420001320F2A0E500F5CD8A02AEF15F02CEF9E
:102A520015F006EF15F00DBC31EF15F033EF15F060
:102A620073EF15F00F50D8A439EF15F03BEF15F0C6
:102A720045EF15F0000E016E000E026E000E036EA1
:102A8200000E046E94EF16F0055001260650022245
:102A9200075003220850042204A052EF15F054EF0D
:102AA20015F000EF16F010A059EF15F05BEF15F0DE
:102AB20061EF15F0D89010300109106E63EF15F038
:102AC200D890103201A068EF15F06AEF15F06BEFA5
:102AD20015F0108E043404320332023201320F2A0E
:102AE20000EF16F00550015C0650025807500358DB
:102AF2000450800A096E0850800A0958D8B084EF41
:102B020015F086EF15F0B1EF15F00150055C096E76
:102B1200025006580A6E035007580B6E04500858AC
:102B22000C6EFF0E0924016EFF0E0A20026EFF0ECC
:102B32000B20036EFF0E0C20046E800E0D1A106C1B
:102B42001050D8A4A7EF15F0A9EF15F0B9EF15F0C2
:102B5200010E0126000E022203220422B9EF15F013
:102B62000550015E0650025A0750035A0850045A93
:102B72000150021003100410D8A4C2EF15F0C4EFE4
:102B820015F0F9EF15F01050D8A4CAEF15F0CCEFFC
:102B920015F0F9EF15F0000E016E000E026E000E38
:102BA200036E000E046E94EF16F0D89001360236D2
:102BB2000336043610AEE0EF15F0E2EF15F0E3EF66
:102BC20015F0018010A0E8EF15F0EAEF15F0EEEF36
:102BD20015F0D8801036F0EF15F0D89010360F505F
:102BE200D8B4F6EF15F0F8EF15F0F9EF15F00F067F
:102BF20003AEFEEF15F000EF16F0D6EF15F0000E63
:102C02000E6E10AE07EF16F009EF16F021EF16F078
:102C120010C009F07F0E0916D8B412EF16F014EFA7
:102C220016F018EF16F0010E0E6E21EF16F001A04D
:102C32001DEF16F01FEF16F021EF16F014EF16F04D
:102C42000E50D8B427EF16F029EF16F054EF16F015
:102C5200010E0126000E02220322042204A034EFF8
:102C620016F036EF16F054EF16F001C009F002C06C
:102C72000AF003C00BF004C00CF00C340C320B321F
:102C82000A32093209C001F00AC002F00BC003F097
:102C92000CC004F00F28D8B451EF16F053EF16F021
:102CA20054EF16F00F2A0F28D8B45AEF16F05CEF43
:102CB20016F064EF16F00F50D8A462EF16F064EF2E
:102CC20016F076EF16F0000E016E000E026E000E88
:102CD200036E000E046E0F50D8A472EF16F074EF5C
:102CE20016F076EF16F0000E0D6E0FA07BEF16F0C9
:102CF2007DEF16F080EF16F0038E81EF16F0039E43
:102D0200D8900F30046E0DAE89EF16F08BEF16F0EF
:102D12008CEF16F0048E01C001F002C002F003C075
:102D220003F004C004F012001450800B1D6E145006
:102D32001424236E13AEA0EF16F0A2EF16F0A3EF49
:102D420016F023802350D8B4A9EF16F0ABEF16F09B
:102D5200BEEF16F02328D8A4B1EF16F0B3EF16F0A9
:102D6200BBEF16F0000E116E000E126E000E136E07
:102D7200000E146E138EC6EF16F0000E116E000ECA
:102D8200126E000E136E000E146E1850800B1D1A78
:102D920018501824226E17AED1EF16F0D3EF16F0AA
:102DA200D4EF16F022802250D8B4DAEF16F0DCEF1E
:102DB20016F0EFEF16F02228D8A4E2EF16F0E4EFB7
:102DC20016F0ECEF16F0000E156E000E166E000EE9
:102DD200176E000E186E178EF7EF16F0000E156EB6
:102DE200000E166E000E176E000E186E2250D8B42A
:102DF200FDEF16F0FFEF16F007EF17F02350D8A4FF
:102E020005EF17F007EF17F011EF17F0000E116E34
:102E1200000E126E000E136E000E146EA9EF18F063
:102E220017501102F3CF28F0F4CF29F028501E6E6C
:102E32001F6A206A216A2950246E256A266A276A37
:102E420016501202F3CF28F0F4CF29F028501E2694
:102E5200000E1F222022212229502426000E252284
:102E62002622272215501302F3CF28F0F4CF29F09F
:102E720028501E26000E1F222022212229502426FD
:102E8200000E25222622272220C021F01FC020F07A
:102E92001EC01FF01E6A15501202F3CF28F0F4CFA5
:102EA20029F028501E2629501F22000E2022000E33
:102EB200212216501102F3CF28F0F4CF29F0285026
:102EC2001E2629501F22000E2022000E212220C081
:102ED20021F01FC020F01EC01FF01E6A1550110203
:102EE200F3CF28F0F4CF29F028501E2629501F22B4
:102EF200000E2022000E212217501202F3CF28F0DA
:102F0200F4CF29F02850242629502522000E26220B
:102F1200000E272216501302F3CF28F0F4CF29F027
:102F22002850242629502522000E2622000E272270
:102F320017501302F3CF28F0F4CF29F02850196E5E
:102F420029501A6E1B6A1C6A1BC01CF01AC01BF0A7
:102F520019C01AF0196A195024261A5025221B503A
:102F620026221C5027221EC019F01FC01AF020C0B2
:102F72001BF021C01CF0190EC4EF17F0D8901C32C0
:102F82001B321A321932E82EBFEF17F019502426DD
:102F92001A5025221B5026221C50272220C021F025
:102FA2001FC020F01EC01FF01E6A225023C019F05D
:102FB2001A6A1926000E1A22820E1924286EFF0E92
:102FC2001A20296EFAEF17F0D890243625362636C5
:102FD200273621AEEFEF17F0F1EF17F0F2EF17F00F
:102FE2002480D8901E361F36203621362806D8A0D7
:102FF200290626AEFFEF17F001EF18F0E5EF17F004
:10300200000E226E21AE08EF18F00AEF18F02EEF34
:1030120018F0FF0E1E14196EFF0E1F141A6EFF0E0B
:1030220020141B6E7F0E21141C6E19501A101B10D7
:103032001C10D8B41FEF18F021EF18F025EF18F08C
:10304200010E226E2EEF18F024A02AEF18F02CEFBA
:1030520018F02EEF18F021EF18F02250D8B434EF08
:1030620018F036EF18F05AEF18F0010E2426000E71
:1030720025222622272227A041EF18F043EF18F03D
:103082005AEF18F024C019F025C01AF026C01BF020
:1030920027C01CF01C341C321B321A32193219C0E0
:1030A20024F01AC025F01BC026F01CC027F0284AC5
:1030B200292A29BE65EF18F0295008E12828D8A04E
:1030C20065EF18F067EF18F071EF18F0000E246E3C
:1030D200000E256E800E266E7F0E276E9FEF18F073
:1030E20029BE7EEF18F0295006E12804D8B07CEF03
:1030F20018F07EEF18F08AEF18F0000E246E000E22
:10310200256E000E266E000E276E000E1D6E9FEFBE
:1031120018F028C023F0FF0E2416FF0E25167F0E8E
:103122002616000E271623A099EF18F09BEF18F031
:103132009CEF18F0268ED8902330276E1D50271250
:1031420024C011F025C012F026C013F027C014F0DD
:1031520012003550800B426E35503524496E34AE24
:10316200B5EF18F0B7EF18F0B8EF18F049804950F2
:10317200D8B4BEEF18F0C0EF18F0D5EF18F0492818
:10318200D8A4C6EF18F0C8EF18F0D0EF18F0000E70
:10319200326E000E336E000E346E000E356E348EBB
:1031A200000E356EDDEF18F0000E326E000E336E3B
:1031B200000E346E000E356E3950800B421A3950B3
:1031C20039244A6E38AEE8EF18F0EAEF18F0EBEF68
:1031D20018F04A804A50D8B4F1EF18F0F3EF18F023
:1031E20008EF19F04A28D8A4F9EF18F0FBEF18F00D
:1031F20003EF19F0000E366E000E376E000E386EB9
:10320200000E396E388E000E396E10EF19F0000E76
:10321200366E000E376E000E386E000E396E365066
:10322200371038103910D8A419EF19F01BEF19F024
:1032320033EF19F0000E326E000E336E000E346E54
:10324200000E356E800E34127F0E3512425035124A
:1032520032C032F033C033F034C034F035C035F010
:1032620076EF1AF04950D8A439EF19F03BEF19F074
:1032720045EF19F0000E326E000E336E000E346E02
:10328200000E356E76EF1AF04A5049C03AF03B6AAA
:103292003A5E000E3B5A7F0E3A24436E000E3B20EC
:1032A200446E32C03EF033C03FF034C040F035C00F
:1032B20041F0000E326E000E336E000E346E000EC0
:1032C200356E000E456E000E466E000E476E000E05
:1032D200486E000E4A6EA6EF19F04A50D8B474EF49
:1032E20019F076EF19F08DEF19F0D8903E363F368F
:1032F20040364136D890323633363436353648AEDB
:1033020085EF19F087EF19F088EF19F03280D89025
:10331200453646364736483636503E5C37503F587B
:103322003850405839504158D8A09AEF19F09CEFC4
:1033320019F0A5EF19F0488C36503E5E37503F5ACF
:103342003850405A3950415A4A2A190E4A64ACEF51
:1033520019F0AEEF19F06EEF19F03E503F10401029
:103362004110D8B4B7EF19F0B9EF19F0D1EF19F055
:103372004580D1EF19F0D8903236333634363536AF
:1033820048AEC6EF19F0C8EF19F0C9EF19F0328054
:10339200D89045364636473648364306D8A04406C6
:1033A20034AED6EF19F0D8EF19F0BCEF19F0000ED9
:1033B2004A6E48AEDFEF19F0E1EF19F005EF1AF0AF
:1033C200FF0E45143A6EFF0E46143B6EFF0E471475
:1033D2003C6E7F0E48143D6E3A503B103C103D103F
:1033E200D8B4F6EF19F0F8EF19F0FCEF19F0010E6E
:1033F2004A6E05EF1AF032A001EF1AF003EF1AF04D
:1034020005EF1AF0F8EF19F04A50D8B40BEF1AF0A2
:103412000DEF1AF031EF1AF0010E3226000E3322B0
:103422003422352235A018EF1AF01AEF1AF031EFD4
:103432001AF032C03AF033C03BF034C03CF035C031
:103442003DF03D343D323C323B323A323AC032F00A
:103452003BC033F03CC034F03DC035F0434A442A0F
:1034620044BE3CEF1AF0445008E14328D8A03CEF98
:103472001AF03EEF1AF049EF1AF0000E446E43685C
:10348200000E326E000E336E000E346E000E356E7C
:1034920044BE56EF1AF0445006E14304D8B054EF4C
:1034A2001AF056EF1AF064EF1AF0000E446E000E96
:1034B200436E000E326E000E336E000E346E000E3E
:1034C200356E000E426E43C049F049A06BEF1AF010
:1034D2006DEF1AF070EF1AF0348E71EF1AF0349E1D
:1034E200D8904930356E27EF19F012004BC0D9FF42
:1034F2004CC0DAFFDECF01F0DDCF02F0000E02BEDB
:10350200FF0E036E046E010E2FEC21F001C06CF071
:1035120002C06DF003C06EF004C06FF020EE02F046
:103522004B50D9264C50DA22DECF01F0DDCF02F02B
:10353200000E02BEFF0E036E046E010E2FEC21F090
:1035420001C070F002C071F003C072F004C073F0E9
:1035520020EE04F04B50D9264C50DA22DECF01F097
:10356200DDCF02F0000E02BEFF0E036E046E010EEE
:103572002FEC21F001C074F002C075F003C076F0A8
:1035820004C077F020EE06F04B50D9264C50DA22D8
:10359200DECF01F0DDCF02F0000E02BEFF0E036EA1
:1035A200046E010E2FEC21F001C060F002C061F048
:1035B20003C062F004C063F070C005F071C006F091
:1035C20072C007F073C008F06CC001F06DC002F069
:1035D2006EC003F06FC004F035EC14F001C064F06B
:1035E20002C065F003C066F004C067F074C005F065
:1035F20075C006F076C007F077C008F064C001F02D
:1036020065C002F066C003F067C004F035EC14F048
:1036120001C068F002C069F003C06AF004C06BF038
:103622006CC032F06DC033F06EC034F06FC035F054
:1036320060C005F061C006F062C007F063C008F028
:1036420068C001F069C002F06AC003F06BC004F008
:1036520035EC14F001C036F002C037F003C038F088
:1036620004C039F0AAEC18F04DC0D9FF4EC0DAFF01
:1036720032C0DEFF33C0DEFF34C0DEFF35C0DEFF06
:1036820070C005F071C006F072C007F073C008F098
:103692006CC001F06DC002F06EC003F06FC004F0A8
:1036A20035EC14F001C064F002C065F003C066F0AE
:1036B20004C067F074C005F075C006F076C007F06C
:1036C20077C008F064C001F065C002F066C003F084
:1036D20067C004F035EC14F001C068F002C069F074
:1036E20003C06AF004C06BF074C032F075C033F0EE
:1036F20076C034F077C035F060C005F061C006F0E6
:1037020062C007F063C008F068C001F069C002F04F
:103712006AC003F06BC004F035EC14F001C036F05F
:1037220002C037F003C038F004C039F0AAEC18F038
:1037320020EE08F04D50D9264E50DA2232C0DEFF7C
:1037420033C0DEFF34C0DEFF35C0DEFF70C005F0DF
:1037520071C006F072C007F073C008F06CC001F0CF
:103762006DC002F06EC003F06FC004F035EC14F0CF
:1037720001C064F002C065F003C066F004C067F0E7
:1037820074C005F075C006F076C007F077C008F087
:1037920064C001F065C002F066C003F067C004F0C7
:1037A20035EC14F001C068F002C069F003C06AF0A1
:1037B20004C06BF070C032F071C033F072C034F0EC
:1037C20073C035F060C005F061C006F062C007F05A
:1037D20063C008F068C001F069C002F06AC003F07B
:1037E2006BC004F035EC14F001C036F002C037F0C3
:1037F20003C038F004C039F0AAEC18F020EE04F04F
:103802004D50D9264E50DA2232C0DEFF33C0DEFFE1
:1038120034C0DEFF35C0DEFF120097C0D9FF98C06A
:10382200DAFFDECFF6FFDDCFF7FF000EF86E0800FD
:10383200F550250AD8A420EF1CF022EF1CF07AEFF5
:103842001DF097C0D9FF98C0DAFFDE2A000EDD22F4
:10385200000E0001E66F000EE56FE5C0EBF0E769D0
:10386200E86997C0D9FF98C0DAFFDECFA6F0DDCFB6
:10387200A7F0A6C0F6FFA7C0F7FF000EF86E08007B
:10388200F550640AD8B448EF1CF04AEF1CF05AEF26
:103892001CF0A6C0F6FFA7C0F7FF000EF86E0800E6
:1038A200F550690AD8A458EF1CF05AEF1CF09DEFAE
:1038B2001CF099C0D9FF9AC0DAFFDFCF9BF0020E4D
:1038C200DE26DFCF9CF0000EDD229BC0D9FF9CC01C
:1038D200DAFFDECF9DF0DDCF9EF0000E9EBFFF0E21
:1038E2009F6FA06FA16FA26FA36FA46F010EA62599
:1038F2009B6F000EA7219C6F97C0D9FF98C0DAFF7B
:103902009BC0DEFF9CC0DDFF95C01CF096C01DF081
:103912009DC01EF09EC01FF09FC020F0A0C021F0ED
:10392200A1C022F0A2C023F0A3C024F0A4C025F0BD
:10393200E7EC1EF090EF1DF097C0D9FF98C0DAFFB8
:10394200DECFA6F0DDCFA7F0A6C0F6FFA7C0F7FF37
:10395200000EF86E0800F5CFA5F0BCEF1CF0A64BE8
:10396200A72BD5EF1CF06C0EA56FD5EF1CF0000E47
:10397200A56FD5EF1CF0A5519B6F9C6B9C51000A63
:10398200D8B4C6EF1CF0B8EF1CF09B514C0AD8B467
:10399200B0EF1CF02A0AD8B4B4EF1CF00A0AD8B46B
:1039A200B0EF1CF0B8EF1CF0A6C0F6FFA7C0F7FFFF
:1039B200000EF86E0800F550660AD8A4E3EF1CF07A
:1039C200E5EF1CF071EF1DF01BEF1DF099C0D9FF60
:1039D2009AC0DAFFDFCF9BF0040EDE26DFCF9CF029
:1039E200000EDD229BC0D9FF9CC0DAFFDECF9DF026
:1039F200DECF9EF0DECF9FF0DECFA0F030EF1DF0E5
:103A020099C0D9FF9AC0DAFFDFCF9BF0040EDE2601
:103A1200DFCF9CF0000EDD229BC0D9FF9CC0DAFFF5
:103A2200DECF9DF0DECF9EF0DECF9FF0DECFA0F0A6
:103A320030EF1DF0A5519B6F9C6B9C51000AD8B4CE
:103A420025EF1DF030EF1DF09B514C0AD8B401EF69
:103A52001DF0200AD8B4E7EF1CF030EF1DF0010E84
:103A6200A6259B6F000EA7219C6F97C0D9FF98C017
:103A7200DAFF9BC0DEFF9CC0DDFF59EF1DF095C051
:103A820060F096C061F09DC062F09EC063F09FC07E
:103A920064F0A0C065F0A6C0F6FFA7C0F7FF000E55
:103AA200F86E0800F5CF66F097EC0CF090EF1DF081
:103AB200A6C0F6FFA7C0F7FF000EF86E0800F5508B
:103AC2009B6F9C6B9C51000AD8B46AEF1DF071EF9A
:103AD2001DF09B51660AD8B440EF1DF071EF1DF046
:103AE20097C0D9FF98C0DAFFDE2A000EDD2290EFE0
:103AF2001DF097C0D9FF98C0DAFFDECFF6FFDDCF09
:103B0200F7FF000EF86E0800F550016E026A95C0CC
:103B120003F096C004F0B9EC25F071EF1DF012002D
:103B220014C12BF015C12CF02CBE9CEF1DF09AEFA6
:103B32001DF09EEF1DF0E6EF1EF07B0E146E010EDF
:103B4200156E720E166E010E176ED8902B34D96E4A
:103B52002C34DA6E2650D9262750DA22DECF18F01E
:103B6200DDCF19F0D4EC26F02B502424286E2C50F3
:103B72002520296EFF0E2824D96EFF0E2920DA6E29
:103B8200DE04D8A4C7EF1DF0C9EF1DF0DFEF1DF072
:103B92007B0E1A6E010E1B6E720E1C6E010E1D6ED6
:103BA200FDEC2AF07B0E206E010E216E720E226E4B
:103BB200010E236E59EC2EF0E1EF1EF02B5024245F
:103BC200286E2C502520296EFF0E2824D96EFF0E58
:103BD2002920DA6E020EDE18D8A4F2EF1DF0F4EFFF
:103BE2001DF00AEF1EF07B0E1A6E010E1B6E720E96
:103BF2001C6E010E1D6EFDEC2AF07B0E206E010E76
:103C0200216E720E226E010E236EFFEC2BF0E1EF9D
:103C12001EF02B502424286E2C502520296EFF0ED6
:103C22002824D96EFF0E2920DA6E030EDE18D8A4DE
:103C32001DEF1EF01FEF1EF035EF1EF07B0E1A6E09
:103C4200010E1B6E720E1C6E010E1D6EFDEC2AF033
:103C52007B0E206E010E216E720E226E010E236EFD
:103C62001EEC26F0E1EF1EF02B502424286E2C507F
:103C72002520296EFF0E2824D96EFF0E2920DA6E28
:103C8200040EDE18D8A448EF1EF04AEF1EF060EFD3
:103C92001EF07B0E1A6E010E1B6E720E1C6E010E52
:103CA2001D6EFDEC2AF07B0E206E010E216E720E4F
:103CB200226E010E236EE7EC29F0E1EF1EF02B508D
:103CC2002424286E2C502520296EFF0E2824D96E1C
:103CD200FF0E2920DA6E050EDE18D8A473EF1EF04F
:103CE20075EF1EF08BEF1EF07B0E1A6E010E1B6E2F
:103CF200720E1C6E010E1D6EFDEC2AF07B0E206E04
:103D0200010E216E720E226E010E236E3AEC2EF01F
:103D1200E1EF1EF02B502424286E2C502520296E12
:103D2200FF0E2824D96EFF0E2920DA6E060EDE1849
:103D3200D8A49EEF1EF0A0EF1EF0B6EF1EF07B0E91
:103D42001A6E010E1B6E720E1C6E010E1D6EFDECC4
:103D52002AF07B0E206E010E216E720E226E010E73
:103D6200236ED6EC2BF0E1EF1EF02B502424286EAC
:103D72002C502520296EFF0E2824D96EFF0E2920F3
:103D8200DA6E070EDE18D8A4C9EF1EF0CBEF1EF0D4
:103D9200E1EF1EF07B0E1A6E010E1B6E720E1C6E90
:103DA200010E1D6EFDEC2AF07B0E206E010E216EBF
:103DB200720E226E010E236E79EC26F0E1EF1EF0F8
:103DC2002B06D8A02C0695EF1DF012001EC034F071
:103DD2001FC035F020C036F021C037F022C038F0C5
:103DE20023C039F024C03AF025C03BF03BBEFCEFC3
:103DF2001EF0FFEF1EF0010E00EF1FF0000E3E6EF0
:103E02003E50D8B407EF1FF009EF1FF019EF1FF073
:103E12003B1E3A1E391E381E371E361E351E346CA6
:103E2200000E352236223722382239223A223B220C
:103E32000001E8BF27EF1FF0E85106E1E705D8B01F
:103E420025EF1FF027EF1FF02DEF1FF0000E316E50
:103E5200010E306E31EF1FF0E7C030F0E8C031F0F4
:103E6200E5C032F0E6C033F03E50D8B43BEF1FF06D
:103E72003DEF1FF054EF1FF03206D8A033063E503C
:103E8200D8A446EF1FF048EF1FF04EEF1FF0000ED0
:103E92002F6E2B0E2E6E52EF1FF0000E2F6E2D0E78
:103EA2002E6E2EC03EF0000E3D6E4F0E3C6E000E8A
:103EB2000101656FD9EF1FF03C06D8A03D06160E32
:103EC2003C24D96E010E3D20DA6E34C001F035C0BB
:103ED20002F036C003F037C004F038C005F039C034
:103EE20006F03AC007F03BC008F00A0E096E000E59
:103EF2000A6E000E0B6E000E0C6E000E0D6E000EA2
:103F02000E6E000E0F6E000E106E83EC23F001C0D9
:103F120026F002C027F003C028F004C029F005C033
:103F22002AF006C02BF007C02CF008C02DF026C0E6
:103F320013F027C014F01AEC2EF01350300FDF6E7E
:103F42003006D8A031063206D8A0330634C001F0BC
:103F520035C002F036C003F037C004F038C005F0B7
:103F620039C006F03AC007F03BC008F00A0E096EED
:103F7200000E0A6E000E0B6E000E0C6E000E0D6E21
:103F8200000E0E6E000E0F6E000E106E09EC22F087
:103F920001C034F002C035F003C036F004C037F07F
:103FA20005C038F006C039F007C03AF008C03BF04F
:103FB2003DBEE4EF1FF03D5008E13C04D8A0E4EF21
:103FC2001FF0E6EF1FF002EF20F0345035103610EC
:103FD2003710381039103A103B10D8A4F3EF1FF005
:103FE200F5EF1FF05DEF1FF031BE02EF20F0315010
:103FF20006E13004D8B000EF20F002EF20F05DEFD0
:104002001FF03E50D8B408EF20F00AEF20F015EF71
:1040120020F03C06D8A03D06160E3C24D96E010EB7
:104022003D20DA6E3EC0DFFF1CC011F01DC012F051
:10403200160E3C24136E010E3D20146E32C015F094
:1040420033C016F03DEC29F01200DDC05BF0DEC09B
:104052005CF0DFC05DF0E0C05EF04BC05BF04CC0D6
:104062005CF04DC05DF04EC05EF0810E4F6EFF0EF3
:10407200506E5BC051F05CC052F05DC053F05EC048
:1040820054F0180E4AEF20F0D89054325332523284
:104092005132E82E45EF20F051504F24596E000E58
:1040A20050205A6E5ABE5FEF20F05A5009E1170EA7
:1040B200595CD8A05FEF20F061EF20F06BEF20F0A9
:1040C2004BC04BF04CC04CF04DC04DF04EC04EF0CA
:1040D2002EEF21F05ABE70EF20F072EF20F0E2EFE7
:1040E20020F059C04FF0FF0E506EFF0E516E7F0E42
:1040F200526E000E536E4F6681EF20F089EF20F072
:10410200533453325232513250324F2E7CEF20F020
:1041120050C055F051C056F052C057F053C058F03D
:1041220055505B144F6E56505C14506E57505D14D0
:10413200516E58505E14526E4F5050105110521022
:10414200D8A4A6EF20F0A8EF20F0AAEF20F061EFAC
:1041520020F05BC04FF05CC050F05DC051F05EC01B
:1041620052F0200EBAEF20F0D89052325132503233
:104172004F32E82EB5EF20F04F5050105110521030
:10418200D8B4C6EF20F0C8EF20F0D0EF20F05550A1
:104192005B2656505C2257505D2258505E22551CB9
:1041A2004F6E561C506E571C516E581C526E4F501B
:1041B2005B1650505C1651505D1652505E1626EF3B
:1041C20021F05BC04FF05CC050F05DC051F05EC0AA
:1041D20052F0200EF2EF20F0D8905232513250328B
:1041E2004F32E82EEDEF20F04F5050105110521088
:1041F200D8A4FEEF20F000EF21F00AEF21F0000E2C
:104202005B6E000E5C6E000E5D6E000E5E6E26EF43
:1042120021F0D8905B344F6E5C34506E5D34516E39
:104222005E34526E4F50501051105210D8B41CEFE1
:1042320021F01EEF21F026EF21F0000E5B6E000E42
:104242005C6E800E5D6EBF0E5E6E5BC04BF05CC03E
:104252004CF05DC04DF05EC04EF01200096E095088
:10426200D8B436EF21F038EF21F05AEF21F004BE36
:104272003FEF21F03DEF21F05AEF21F001C005F0B0
:1042820002C006F003C007F004C008F0051E061EB7
:10429200071E081E052A000E06220722082205C054
:1042A2000BF006C00CF007C00DF008C00EF062EF74
:1042B20021F001C00BF002C00CF003C00DF004C0ED
:1042C2000EF00150021003100410D8A46BEF21F07D
:1042D2006DEF21F077EF21F0000E016E000E026EFD
:1042E200000E036E000E046E08EF22F0960E0A6EA8
:1042F20081EF21F00A2AD8900E320D320C320B32A5
:10430200000E0B14056E000E0C14066E000E0D143A
:10431200076EFE0E0E14086E0550061007100810E8
:10432200D8A496EF21F098EF21F07BEF21F0A6EFD1
:1043320021F00A2A010E0B26000E0C220D220E225B
:10434200D8900E320D320C320B32000E0B14056E69
:10435200000E0C14066E000E0D14076EFF0E0E14E6
:10436200086E0550061007100810D8A4BBEF21F004
:10437200BDEF21F09AEF21F0C5EF21F00A06D890A7
:104382000B360C360D360E360DBECAEF21F0CCEFD1
:1043920021F0D4EF21F0020E0A60D2EF21F0D4EF27
:1043A20021F0BFEF21F00AB0D9EF21F0DBEF21F0CD
:1043B200DCEF21F00D9ED8900A320AC005F0066AA1
:1043C200076A086A05C008F0076A066A056A0550A6
:1043D2000B1206500C1207500D1208500E12095003
:1043E200D8B4F6EF21F0F8EF21F000EF22F004BE8E
:1043F200FFEF21F0FDEF21F000EF22F00E8E0BC057
:1044020001F00CC002F00DC003F00EC004F0120067
:10441200000E126E10BE12EF22F010EF22F024EF07
:1044220022F0101E0F1E0E1E0D1E0C1E0B1E0A1E4B
:10443200096C000E0A220B220C220D220E220F22E0
:104442001022010E126E08BE2BEF22F029EF22F08D
:104452003DEF22F0081E071E061E051E041E031E47
:10446200021E016C000E02220322042205220622F1
:1044720007220822010E121A20EE13F0070EDE6A3E
:10448200E806FDE209500A100B100C100D100E1078
:104492000F101010D8B450EF22F052EF22F0A4EF18
:1044A20022F0010E116E60EF22F0D89009360A3622
:1044B2000B360C360D360E360F361036112A10AE6C
:1044C20065EF22F067EF22F056EF22F0D890133614
:1044D2001436153616361736183619361A36095066
:1044E200015C0A5002580B5003580C5004580D50EE
:1044F20005580E5006580F50075810500858D8A0AB
:1045020085EF22F087EF22F098EF22F00950015E4A
:104512000A50025A0B50035A0C50045A0D50055AB5
:104522000E50065A0F50075A1050085A1380D8904E
:1045320010320F320E320D320C320B320A32093285
:10454200112E67EF22F01250D8B4AAEF22F0ACEF8E
:1045520022F0BCEF22F01A1E191E181E171E161E7C
:10456200151E141E136C000E142215221622172279
:10457200182219221A2213C001F014C002F015C029
:1045820003F016C004F017C005F018C006F019C0F9
:1045920007F01AC008F0120020EE02F00E50D926E1
:1045A2000F50DA22DF50D8B4D9EF22F0DBEF22F03D
:1045B2000FEF23F00EC0D9FF0FC0DAFFDF50106EED
:1045C2001050016E026A20EE03F00E50D9260F50F1
:1045D200DA22DECF03F0DDCF04F019EC2FF001C0B8
:1045E20007F002C008F0000E0A6E640E096E7AEC43
:1045F20029F020EE03F00E50D9260F50DA22DF50B8
:10460200116E0750115C126E20EE03F00E50D92687
:104612000F50DA22DF50136E32EF23F0000E126ECB
:104622000EC0D9FF0FC0DAFFDF50106E1050016EBE
:10463200026A20EE03F00E50D9260F50DA22DECFA6
:1046420003F0DDCF04F019EC2FF001C007F002C037
:1046520008F0000E0A6E640E096E7AEC29F007501B
:10466200136E20EE01F00E50D9260F50DA22DF50E1
:10467200D8B43EEF23F040EF23F062EF23F020EEB8
:1046820005F00E50D9260F50DA22DECF10F0DDCF22
:1046920011F010C0D9FF11C0DAFF12C0DFFF20EE07
:1046A20007F00E50D9260F50DA22DECF10F0DDCF00
:1046B20011F010C0D9FF11C0DAFF13C0DFFF82EF83
:1046C20023F020EE05F00E50D9260F50DA22DECF6D
:1046D20010F0DDCF11F010C0D9FF11C0DAFF13C006
:1046E200DFFF20EE07F00E50D9260F50DA22DECF80
:1046F20010F0DDCF11F010C0D9FF11C0DAFF12C0E7
:10470200DFFF1200000E126E08BE8CEF23F08AEF5C
:1047120023F09EEF23F0081E071E061E051E041E30
:10472200031E021E016C000E022203220422052235
:10473200062207220822010E126E10BEA5EF23F0F8
:10474200A3EF23F0B5EF23F0101E0F1E0E1E0D1E59
:104752000C1E0B1E0A1E096C000E0A220B220C22D2
:104762000D220E220F22102209500A100B100C10DB
:104772000D100E100F101010D8B4C2EF23F0C4EFBA
:1047820023F00CEF24F0010E116ED2EF23F0D8903B
:1047920009360A360B360C360D360E360F36103603
:1047A200112A10AED7EF23F0D9EF23F0C8EF23F090
:1047B2000950015C0A5002580B5003580C5004581F
:1047C2000D5005580E5006580F50075810500858F3
:1047D200D8A0EEEF23F0F0EF23F000EF24F0095021
:1047E200015E0A50025A0B50035A0C50045A0D50E3
:1047F200055A0E50065A0F50075A1050085AD890B0
:1048020010320F320E320D320C320B320A320932B2
:10481200112ED9EF23F01250D8B412EF24F014EF76
:1048220024F024EF24F0081E071E061E051E041E97
:10483200031E021E016C000E022203220422052224
:1048420006220722082201C001F002C002F003C0C2
:1048520003F004C004F005C005F006C006F007C06E
:1048620007F008C008F01200033404340A6E0A503C
:10487200D8A43EEF24F040EF24F04AEF24F0000EDB
:10488200016E000E026E000E036E000E046EB7EF94
:1048920024F001C005F002C006F003C007F004C016
:1048A20008F0200E5AEF24F0D89008320732063270
:1048B2000532E82E55EF24F00550096E038EFF0EE7
:1048C2000116FF0E0216FF0E0316000E0416960EB8
:1048D2000A5E0ABE71EF24F06FEF24F087EF24F036
:1048E2000A50800A970FD8B079EF24F07BEF24F0BA
:1048F2007DEF24F040EF24F0D890043203320232EC
:1049020001320A3E7DEF24F09FEF24F01F0E0A646D
:104912008DEF24F08FEF24F097EF24F040EF24F096
:10492200D89001360236033604360A060A50D8A455
:104932009DEF24F09FEF24F091EF24F00950D8B4BA
:10494200A5EF24F0A7EF24F0AFEF24F0041E031E1E
:10495200021E016C000E02220322042201C001F099
:1049620002C002F003C003F004C004F01200000E03
:104972002A14326E000E2B14336E800E2C14346EF9
:104982007F0E2D14356E3250331034103510D8A4EA
:10499200CDEF24F0CFEF24F0D7EF24F0000E2A6EF3
:1049A200000E2B6E000E2C6E000E2D6E000E2E14BD
:1049B200326E000E2F14336E800E3014346E7F0E62
:1049C2003114356E3250331034103510D8A4ECEF58
:1049D20024F0EEEF24F0F6EF24F0000E2E6E000E1F
:1049E2002F6E000E306E000E316E2DAEFBEF24F0F6
:1049F200FDEF24F006EF25F02A6C2B1ED8B02B2AEF
:104A02002C1ED8B02C2A800E2D5631AE0BEF25F07D
:104A12000DEF25F016EF25F02E6C2F1ED8B02F2AA1
:104A2200301ED8B0302A800E3156000E2A1A000EDF
:104A32002B1A000E2C1A800E2D1A000E2E1A000EA2
:104A42002F1A000E301A800E311A2E502A5C2F5067
:104A52002B5830502C5831502D58D8B033EF25F008
:104A620035EF25F038EF25F0D89039EF25F0D880D2
:104A72001200E1C00BF0E2C00CF0E3C00DF0E4C0A4
:104A82000EF001C00BF002C00CF003C00DF004C028
:104A92000EF00BC005F00CC006F00DC007F00EC002
:104AA20008F0180E5AEF25F0D89008320732063275
:104AB2000532E82E55EF25F00550096E0A6A0950B5
:104AC2000A10D8A467EF25F069EF25F089EF25F0E9
:104AD200D8900B34056E0C34066E0D34076E0E340E
:104AE200086E0550061007100810D8A47BEF25F0B9
:104AF2007DEF25F083EF25F0000E026E020E016EAF
:104B0200B8EF25F0000E026E030E016EB8EF25F02D
:104B120009280A10D8A490EF25F092EF25F0B4EFFF
:104B220025F00BC005F00CC006F00DC007F00EC05A
:104B320008F0090ED8900536063607360836E82EF4
:104B42009BEF25F00550061007100810D8B4ACEF03
:104B520025F0AFEF25F0010EB0EF25F0000E016E4B
:104B6200026AB8EF25F0000E026E040E016E12000A
:104B720003500410D8B4C0EF25F0C2EF25F0CBEFFC
:104B820025F003500410D8A4C9EF25F0CBEF25F08F
:104B9200D0EF25F0015081EC2FF01DEF26F020EE32
:104BA20009F00350D9260450DA22DE50DE10D8B4C0
:104BB200DDEF25F0DFEF25F0FAEF25F020EE09F02A
:104BC2000350D9260450DA2210EE03F00350E126F6
:104BD2000450E222DE50E65CE650800A096EDE50A6
:104BE200800A0958D8B0F8EF25F0FAEF25F01DEF4A
:104BF20026F020EE03F00350D9260450DA22DECF4D
:104C020005F0DDCF06F003C0D9FF04C0DAFFDECF26
:104C120007F0DDCF08F005500724D96E06500820B2
:104C2200DA6E01C0DFFF20EE03F00350D9260450F4
:104C3200DA22DE2A000EDD2212007B0E1A6E010E2F
:104C42001B6E720E1C6E010E1D6EFDEC2AF07B0EA9
:104C52001A6E010E1B6E720E1C6E010E1D6E2AEC78
:104C62002BF07B0E1A6E010E1B6E720E1C6E010E65
:104C72001D6E2AEC2BF07B0E1A6E010E1B6E720E4D
:104C82001C6E010E1D6E49EC2AF07B0E1A6E010E8F
:104C92001B6E720E1C6E010E1D6EFDEC2AF07B0E59
:104CA2001A6E010E1B6E720E1C6E010E1D6E2AEC28
:104CB2002BF07B0E1A6E010E1B6E720E1C6E010E15
:104CC2001D6E2AEC2BF07B0E1A6E010E1B6E720EFD
:104CD2001C6E010E1D6E2AEC2BF07B0E1A6E010E5D
:104CE2001B6E720E1C6E010E1D6E2AEC2BF0120052
:104CF2007B0E1A6E010E1B6E720E1C6E010E1D6E65
:104D0200FDEC2AF07B0E1A6E010E1B6E720E1C6EEB
:104D1200010E1D6E56EC2BF07B0E1A6E010E1B6EF1
:104D2200720E1C6E010E1D6E56EC2BF07B0E1A6E6F
:104D3200010E1B6E720E1C6E010E1D6E49EC2AF0E6
:104D42007B0E1A6E010E1B6E720E1C6E010E1D6E14
:104D5200FDEC2AF07B0E1A6E010E1B6E720E1C6E9B
:104D6200010E1D6E56EC2BF07B0E1A6E010E1B6EA1
:104D7200720E1C6E010E1D6E56EC2BF07B0E1A6E1F
:104D8200010E1B6E720E1C6E010E1D6E56EC2BF088
:104D92007B0E1A6E010E1B6E720E1C6E010E1D6EC4
:104DA20056EC2BF0120020EE01F01450D9261550CB
:104DB200DA22010EDF6E20EE01F01650D9261750CE
:104DC200DA22010EDF6E0AEF27F014C0D9FF15C0F8
:104DD200DAFF0A0EDF2616C0D9FF17C0DAFF0A0E65
:104DE200DF2614C00EF015C00FF0CDEC22F016C075
:104DF2000EF017C00FF0CDEC22F0020E1B6EA00ECB
:104E02001A6E920EE82EFED71A2EFCD71B2EFAD758
:104E120000D014C0D9FF15C0DAFF1E0EDF6014EFF8
:104E220027F016EF27F022EF27F016C0D9FF17C0A0
:104E3200DAFF1D0EDF6420EF27F022EF27F0E6EF06
:104E420026F018C001F019C002F094EC2EF0120006
:104E5200000E32143A6E000E33143B6E800E341480
:104E62003C6E7F0E35143D6E3A503B103C103D10A7
:104E7200D8A43EEF27F040EF27F048EF27F0000ECE
:104E8200326E000E336E000E346E000E356E000E62
:104E920036143A6E000E37143B6E800E38143C6E98
:104EA2007F0E39143D6E3A503B103C103D10D8A491
:104EB2005DEF27F05FEF27F067EF27F0000E366E09
:104EC200000E376E000E386E000E396E36503218F4
:104ED2000FE1375033180CE13850341809E13950DA
:104EE2003518D8B477EF27F079EF27F07CEF27F069
:104EF200D8907DEF27F0D880120020EE01F01450F8
:104F0200D9261550DA22010EDF6E20EE01F016507E
:104F1200D9261750DA22000EDF6EB4EF27F014C044
:104F2200D9FF15C0DAFF0A0EDF2616C0D9FF17C057
:104F3200DAFF0A0EDF2614C00EF015C00FF0CDEC1A
:104F420022F016C00EF017C00FF0CDEC22F0020EC8
:104F5200196EA00E186E920EE82EFED7182EFCD7F0
:104F6200192EFAD700D014C0D9FF15C0DAFF1E0ED1
:104F7200DF60BEEF27F0C0EF27F0CCEF27F016C0BE
:104F8200D9FF17C0DAFF1D0EDF64CAEF27F0CCEF9E
:104F920027F090EF27F0120020EE01F01450D926EE
:104FA2001550DA22010EDF6E20EE01F01650D926DE
:104FB2001750DA22010EDF6E03EF28F014C0D9FF7A
:104FC20015C0DAFF0A0EDF2616C0D9FF17C0DAFFB6
:104FD2000A0EDF2614C00EF015C00FF0CDEC22F041
:104FE20016C00EF017C00FF0CDEC22F0020E196EB3
:104FF200A00E186E920EE82EFED7182EFCD7192E90
:10500200FAD700D014C0D9FF15C0DAFF1E0EDF6038
:105012000DEF28F00FEF28F01BEF28F016C0D9FF94
:1050220017C0DAFF1D0EDF6419EF28F01BEF28F01E
:10503200DFEF27F0120020EE01F01450D9261550B0
:10504200DA22000EDF6E20EE01F01650D92617503C
:10505200DA22010EDF6E52EF28F014C0D9FF15C01C
:10506200DAFF0A0EDF2616C0D9FF17C0DAFF0A0ED2
:10507200DF2614C00EF015C00FF0CDEC22F016C0E2
:105082000EF017C00FF0CDEC22F0020E196EA00E3A
:10509200186E920EE82EFED7182EFCD7192EFAD7CC
:1050A20000D014C0D9FF15C0DAFF1E0EDF605CEF1E
:1050B20028F05EEF28F06AEF28F016C0D9FF17C07B
:1050C200DAFF1D0EDF6468EF28F06AEF28F02EEF9A
:1050D20028F0120020EE01F01450D9261550DA22E1
:1050E200000EDF6E20EE01F01650D9261750DA229C
:1050F200000EDF6EA1EF28F014C0D9FF15C0DAFF51
:105102000A0EDF2616C0D9FF17C0DAFF0A0EDF2605
:1051120014C00EF015C00FF0CDEC22F016C00EF048
:1051220017C00FF0CDEC22F0020E196EA00E186E11
:10513200920EE82EFED7182EFCD7192EFAD700D0E1
:1051420014C0D9FF15C0DAFF1E0EDF60ABEF28F0E6
:10515200ADEF28F0B9EF28F016C0D9FF17C0DAFF7B
:105162001D0EDF64B7EF28F0B9EF28F07DEF28F0CD
:105172001200050E0E01746F060E766F070E696F30
:10518200080E886F85948598839E879CBD508F0BEF
:105192003009BD6EE00EBE16BF50F00B0109BF6EA6
:1051A20001C0BCFFBD8E000EAA6E000EA66E000EE0
:1051B2000F01256F000E216FFC0EAD16F30EAD161A
:1051C200CF0EAD163F0EAD16AB88AB50F00B0C09EF
:1051D200AB6EAB8EA788A750F00B0C09A76EA78EFB
:1051E20026892651F00B0C09266F268F228922511F
:1051F200F00B0C09226F228F120024EF29F014C049
:10520200D9FF15C0DAFF0A0EDF5E16C0D9FF17C03C
:10521200DAFF0A0EDF5E14C00EF015C00FF0CDECFF
:1052220022F016C00EF017C00FF0CDEC22F0020EE5
:10523200196EA00E186E920EE82EFED7182EFCD70D
:10524200192EFAD700D014C0D9FF15C0DAFFDF50EB
:10525200D8A42EEF29F030EF29F000EF29F016C084
:10526200D9FF17C0DAFFDF50D8A43AEF29F03CEF9C
:1052720029F000EF29F0120016BE42EF29F044EFA8
:1052820029F04AEF29F015C01AF016C01BF04EEFB4
:1052920029F0000E1B6E000E1A6E000E196E000E23
:1052A200186E60EF29F0000E026E200E016E11C022
:1052B20003F012C004F0B9EC25F0184A192A1A506A
:1052C200185C1950800A176E1B50800A1758D8A014
:1052D2006DEF29F06FEF29F054EF29F013C00AF0B7
:1052E20014C00BF011C00CF012C00DF0D7EC2DF071
:1052F2001200000E0C6E000E0B6E09500A10D8B48C
:1053020085EF29F087EF29F0AFEF29F0010E0D6E3E
:105312008FEF29F0D89009360A360D2A0AAE94EF9B
:1053220029F096EF29F08BEF29F0D8900B360C3646
:105332000950075C0A500858D8A0A2EF29F0A4EF40
:1053420029F0A9EF29F00950075E0A50085A0B808C
:10535200D8900A3209320D2E96EF29F00BC007F0D1
:105362000CC008F0120004BEC3EF29F00450031071
:10537200021006E10104D8B0C1EF29F0C3EF29F011
:10538200DEEF29F001C005F002C006F003C007F00D
:1053920004C008F0051E061E071E081E052A000E80
:1053A20006220722082205C001F006C002F007C04B
:1053B20003F008C004F0E6EF29F001C001F002C0DA
:1053C20002F003C003F004C004F012007B0E1A6E58
:1053D200010E1B6E720E1C6E010E1D6EFDEC2AF08C
:1053E2007B0E1A6E010E1B6E720E1C6E010E1D6E6E
:1053F2002AEC2BF07B0E1A6E010E1B6E720E1C6EC7
:10540200010E1D6E2AEC2BF07B0E1A6E010E1B6E26
:10541200720E1C6E010E1D6E2AEC2BF07B0E1A6EA4
:10542200010E1B6E720E1C6E010E1D6E2AEC2BF00D
:105432001200F3EC2CF00CC0D9FF0DC0DAFF05C04E
:10544200DEFF06C0DDFF43EC2DF020EE04F00C5031
:10545200D9260D50DA2205C0DEFF06C0DDFF1BECA7
:105462002DF020EE02F00C50D9260D50DA2205C0A4
:10547200DEFF06C0DDFFCBEC2CF020EE06F00C5078
:10548200D9260D50DA2205C0DEFF06C0DDFF12006C
:105492001AC014F01BC015F01CC016F01DC017F086
:1054A200CDEC27F0A30E1F6E570E1E6E020EE82ED5
:1054B200FED71E2EFCD71F2EFAD700D07B0E146EFD
:1054C200010E156E720E166E010E176EFEEC28F0AE
:1054D200050E1F6E0F0E1E6EF10EE82EFED71E2E4B
:1054E200FCD71F2EFAD700F012001AC014F01BC00E
:1054F20015F01CC016F01DC017F0CDEC27F0520EAF
:105502001F6E2B0E1E6E000EE82EFED71E2EFCD72F
:105512001F2EFAD700D07B0E146E010E156E720E7E
:10552200166E010E176EFEEC28F0050E1F6E0F0EA2
:105532001E6EF10EE82EFED71E2EFCD71F2EFAD7B6
:1055420000F012001AC014F01BC015F01CC016F0B7
:105552001DC017F06BEC28F0520E1F6E2B0E1E6E44
:10556200000EE82EFED71E2EFCD71F2EFAD700D033
:105572007B0E146E010E156E720E166E010E176EF4
:10558200FEEC28F0050E1F6E0F0E1E6EF10EE82EB9
:10559200FED71E2EFCD71F2EFAD700F012001AC01B
:1055A20014F01BC015F01CC016F01DC017F06BECF8
:1055B20028F0A30E1F6E570E1E6E020EE82EFED7A7
:1055C2001E2EFCD71F2EFAD700D07B0E146E010EB2
:1055D200156E720E166E010E176EFEEC28F0050E99
:1055E2001F6E0F0E1E6EF10EE82EFED71E2EFCD77A
:1055F2001F2EFAD700F012001AC014F01BC015F0CB
:105602001CC016F01DC017F06BEC28F0110E1F6EB7
:105612003C0E1E6ECB0EE82EFED71E2EFCD71F2E82
:10562200FAD700F07B0E146E010E156E720E166E16
:10563200010E176EFEEC28F0050E1F6E0F0E1E6E89
:10564200F10EE82EFED71E2EFCD71F2EFAD700F041
:1056520012001AC014F01BC015F01CC016F01DC0B9
:1056620017F07EEC27F0120E1F6EDC0E1E6E600E1F
:10567200E82EFED71E2EFCD71F2EFAD77B0E146EF5
:10568200010E156E720E166E010E176EFEEC28F0EC
:10569200050E1F6E0F0E1E6EF10EE82EFED71E2E89
:1056A200FCD71F2EFAD700F012001AC014F01BC04C
:1056B20015F01CC016F01DC017F01CEC28F0120EDD
:1056C2001F6EDC0E1E6E600EE82EFED71E2EFCD75D
:1056D2001F2EFAD77B0E146E010E156E720E166E09
:1056E200010E176EFEEC28F0050E1F6E0F0E1E6ED9
:1056F200F10EE82EFED71E2EFCD71F2EFAD700F091
:105702001200AAC0AEF0ABC0AFF097EF2BF0A8C06A
:1057120095F0A9C096F0AE0E0001976F000E986F3B
:10572200ACC099F0ADC09AF00EEC1CF0AEC0F6FF22
:10573200AFC0F7FF000EF86E0800F5500009D8A4BC
:10574200A5EF2BF0A7EF2BF088EF2BF0000E000156
:10575200A96F000EA86F1200B40E0001C26F000EF6
:10576200C36FB0C0C4F0B1C0C5F0000EC86F000E68
:10577200C76F000ECE6F000ECD6FC40EA86F000E65
:10578200A96FB2C0AAF0B3C0ABF0C20EAC6F000EEC
:10579200AD6F82EC2BF00001C751B025D96EC85114
:1057A200B121DA6E000EDF6E12007B0E1A6E010E50
:1057B2001B6E720E1C6E010E1D6EFDEC2AF07B0E2E
:1057C2001A6E010E1B6E720E1C6E010E1D6E2AECFD
:1057D2002BF07B0E1A6E010E1B6E720E1C6E010EEA
:1057E2001D6E2AEC2BF07B0E1A6E010E1B6E720ED2
:1057F2001C6E010E1D6E2AEC2BF012007B0E1A6E2F
:10580200010E1B6E720E1C6E010E1D6EFDEC2AF057
:105812007B0E1A6E010E1B6E720E1C6E010E1D6E39
:1058220056EC2BF07B0E1A6E010E1B6E720E1C6E66
:10583200010E1D6E56EC2BF07B0E1A6E010E1B6EC6
:10584200720E1C6E010E1D6E56EC2BF01200C8EC8F
:105852002EF0010E036E000E2CEC2FF03F0E056EA3
:10586200550EE82EFED7052EFCD700F0030E036E70
:10587200000E2CEC2FF0D50E036E010E2CEC2FF047
:10588200000E036E0F0E2CEC2FF087928198869EED
:10589200849684987F927E9E79987C967C9812005A
:1058A2007B0E1A6E010E1B6E720E1C6E010E1D6EA9
:1058B200FDEC2AF07B0E1A6E010E1B6E720E1C6E30
:1058C200010E1D6ED0EC2AF07B0E1A6E010E1B6EBD
:1058D200720E1C6E010E1D6E2AEC2BF07B0E1A6EE0
:1058E200010E1B6E720E1C6E010E1D6E2AEC2BF049
:1058F20012007B0E1A6E010E1B6E720E1C6E010ED2
:105902001D6EFDEC2AF07B0E1A6E010E1B6E720EDE
:105912001C6E010E1D6ED0EC2AF07B0E1A6E010E6B
:105922001B6E720E1C6E010E1D6E56EC2BF07B0E62
:105932001A6E010E1B6E720E1C6E010E1D6E56EC5F
:105942002BF0120003C009F004C00AF001C007F0F6
:1059520002C008F0BDEF2CF009C0D9FF0AC0DAFF7F
:10596200DF500B6E094A0A2A07C0D9FF08C0DAFFC6
:105972000BC0DFFF074A082A0506D8A0060605283D
:1059820006E10628D8A4C8EF2CF0CAEF2CF0ADEF40
:105992002CF0120077EC2FF0520E67EC2FF0B40EC1
:1059A20067EC2FF06DEC2FF0530E67EC2FF0010E29
:1059B200F9EC2DF0076E07500A6E0B6A000EF9EC37
:1059C2002DF0076E0750096E086A0A5008100A6E19
:1059D2000B5009100B6E72EC2FF00AC005F00BC0D1
:1059E20006F0120077EC2FF0520E67EC2FF0B60E95
:1059F20067EC2FF06DEC2FF0530E67EC2FF0010ED9
:105A0200F9EC2DF0076E07500A6E0B6A000EF9ECE6
:105A12002DF0076E0750096E086A0A5008100A6EC8
:105A22000B5009100B6E72EC2FF00AC005F00BC080
:105A320006F0120077EC2FF0520E67EC2FF0B80E42
:105A420067EC2FF06DEC2FF0530E67EC2FF0010E88
:105A5200F9EC2DF0076E07500A6E0B6A000EF9EC96
:105A62002DF0076E0750096E086A0A5008100A6E78
:105A72000B5009100B6E72EC2FF00AC005F00BC030
:105A820006F0120077EC2FF0520E67EC2FF0BA0EF0
:105A920067EC2FF06DEC2FF0530E67EC2FF0010E38
:105AA200F9EC2DF0076E07500A6E0B6A000EF9EC46
:105AB2002DF0076E0750096E086A0A5008100A6E28
:105AC2000B5009100B6E72EC2FF00AC005F00BC0E0
:105AD20006F01200F80EF66E5E0EF76E000EF86E0D
:105AE20000EEF0F010EE09F00900F5CFEEFFE55000
:105AF200E150FAE102EE00F0D20EEE6AE806FDE1B4
:105B020001EE00F08C0EEE6AE806FDE100EED1F047
:105B12001F0EEE6AE806FDE15F905F92000194EFCE
:105B220011F0000E2E1A000E2F1A000E301A800EDF
:105B3200311A2AC001F02BC002F02CC003F02DC094
:105B420004F02EC005F02FC006F030C007F031C0BF
:105B520008F035EC14F001C02AF002C02BF003C0AB
:105B62002CF004C02DF0120003C005F004C006F0B2
:105B720001C007F002C008F005C0F6FF06C0F7FF3B
:105B8200054A062A000EF86E07C0D9FF08C0DAFFE0
:105B9200074A082A0800F5CFDFFFDF50D8A4D4EF68
:105BA2002DF0D6EF2DF0BDEF2DF01200000E106E8D
:105BB200000E0F6EE8EF2DF00EC001F0026A0CC06D
:105BC20003F00DC004F0B9EC25F00F4A102A0F5073
:105BD2000A24D96E10500B20DA6EDF500E6E0E5072
:105BE200D8A4F6EF2DF0F8EF2DF0DDEF2DF0120036
:105BF200036EF2EC2EF00E01DA87F2EC2EF0D5CE27
:105C020004F0F2EC2EF00350D8B40AEF2EF00EEFAF
:105C12002EF0026A022A0FEF2EF0026A023A0246C0
:105C22000E01DA510218DF0B0218DA6FDA8904501A
:105C3200120014BE27EF2EF0145006E11304D8B060
:105C420025EF2EF027EF2EF035EF2EF013C015F0D2
:105C520014C016F0151E161E154A162A15C013F08A
:105C620016C014F039EF2EF013C013F014C014F064
:105C720012007B0E1A6E010E1B6E720E1C6E010E4E
:105C82001D6EFDEC2AF07B0E1A6E010E1B6E720E5B
:105C92001C6E010E1D6E2AEC2BF07B0E1A6E010E8D
:105CA2001B6E720E1C6E010E1D6E2AEC2BF0120082
:105CB2007B0E1A6E010E1B6E720E1C6E010E1D6E95
:105CC200FDEC2AF07B0E1A6E010E1B6E720E1C6E1C
:105CD200010E1D6E56EC2BF07B0E1A6E010E1B6E22
:105CE200720E1C6E010E1D6E56EC2BF0120001504E
:105CF200021003100410D8B481EF2EF083EF2EF0BF
:105D02008BEF2EF0000E011A000E021A000E031A7B
:105D1200800E041A01C001F002C002F003C003F0B9
:105D220004C004F01200000E056E000E046EA4EF13
:105D32002EF0150E036EC60EE82EFED7032EFCD7EC
:105D420000D0044A052A0150045C02500558D8A02C
:105D5200ADEF2EF0AFEF2EF09AEF2EF01200BBEF68
:105D62002EF002C0D9FF03C0DAFFDF505BEC2FF048
:105D7200024A032A02C0D9FF03C0DAFFDF50D8A4C7
:105D8200C5EF2EF0C7EF2EF0B2EF2EF012000E018B
:105D9200D951F00B0809D96FD98B9F0ED66F848A1F
:105DA200848CA79BA79D1D0E1D6F1E0E1C6F1C0EC3
:105DB2006F6F1B0E706F12007B0E1A6E010E1B6E40
:105DC200720E1C6E010E1D6EA3EC2AF07B0E1A6E73
:105DD200010E1B6E720E1C6E010E1D6E76EC2AF009
:105DE20012000E01D8B5F8EF2EF0FAEF2EF0F2EF16
:105DF2002EF0DACE01F01F0E0116D8A403EF2FF019
:105E020005EF2FF0F2EF2EF01200D350D450026EB5
:105E1200016AD89001011435D96E1535DA6E3C0E3F
:105E2200D926020EDA2201C0DEFF02C0DDFF120017
:105E320001500302F3CF05F0F4CF06F00150040243
:105E4200F350062602500302F350062605C001F065
:105E520006C002F01200046E77EC2FF0520E67ECCF
:105E62002FF00450800967EC2FF0035067EC2FF0FD
:105E720072EC2FF01200D6501F0B4009D66ED68856
:105E8200D650F00B0E09D66ED588000ED46E000ED9
:105E9200D36ED58E1200120E0E01626F110E156FA7
:105EA200E997E895330EE56F000EE66FE789E88B18
:105EB200E78F1200016E0E0137A562EF2FF064EF3B
:105EC2002FF05CEF2FF001C0E4FE1200026EF2EC44
:105ED2002EF002C0D5FE1200F2EC2EF00E01DA8393
:105EE2001200F2EC2EF00E01DA851200F2EC2EF026
:0F5EF2000E01DA811200E803D007DC001E000168
:045F02001200120077
:020000040020DA
:10000000FF0FFF0FFF0FFF0FFF0FFF0FFF0FFF0F80
:020000040030CA
:0C000000AAFFFFFF9FFFFFFFFFFFFFFFB5
:00000001FF
