:04000000A1EF2BF051
:100E0000007265643D256420677265656E3D2564EA
:100E100020626C75653D256420636F6C6F75723D53
:100E20002564200D0A007265643D256620677265A1
:100E3000656E3D256620626C75653D2566206C7586
:100E40006D3D256420200D0A00696E66006E616E9E
:100E50000000000E0001726F000E736F000E746FC1
:100E6000000E756F000E766F500E776FC30E786FA1
:100E7000470E796F000E656F040E646F20EE66F00A
:100E80000B0EDE6AE806FDE24BC0D9FF4CC0DAFF6C
:100E9000DECF01F0DDCF02F0000E02BEFF0E036ECA
:100EA000046E010E75EC22F001C066F002C067F01E
:100EB00003C068F004C069F020EE02F04B50D92660
:100EC0004C50DA22DECF01F0DDCF02F0000E02BE80
:100ED000FF0E036E046E010E75EC22F001C06AF085
:100EE00002C06BF003C06CF004C06DF020EE04F0A3
:100EF0004B50D9264C50DA22DECF01F0DDCF02F084
:100F0000000E02BEFF0E036E046E010E75EC22F0A1
:100F100001C06EF002C06FF003C070F004C071F049
:100F2000000E00017B6F000E7A6F72C02AF073C052
:100F30002BF074C02CF075C02DF0660E4F6E000EB5
:100F4000506ED8907A35D96E7B35DA6ED890D93616
:100F5000DA364F50D9265050DA22DECF2EF0DECFCF
:100F60002FF0DECF30F0DECF31F0FEEC25F0D8B040
:100F7000BCEF07F0BEEF07F0DBEF07F0660E4F6E39
:100F8000000E506ED89000017A35D96E7B35DA6E3E
:100F9000D890D936DA364F50D9265050DA22DECFE3
:100FA00072F0DECF73F0DECF74F0DECF75F07AC072
:100FB00064F07BC065F0660E4F6E000E506ED890E8
:100FC00000017A35D96E7B35DA6ED890D936DA36AB
:100FD0004F50D9265050DA22DECF2AF0DECF2BF048
:100FE000DECF2CF0DECF2DF076C02EF077C02FF0C4
:100FF00078C030F079C031F0FEEC25F0D8B003EFC6
:1010000008F005EF08F01EEF08F0660E4F6E000EB8
:10101000506ED89000017A35D96E7B35DA6ED89053
:10102000D936DA364F50D9265050DA22DECF76F054
:10103000DECF77F0DECF78F0DECF79F000017A4BAB
:101040007B2B7BBF2DEF08F07B5109E1030E7A5D0E
:10105000D8A02DEF08F02FEF08F095EF07F076C03D
:101060002EF077C02FF078C030F079C031F072C028
:101070002AF073C02BF074C02CF075C02DF0EDEC8D
:101080002EF02AC032F02BC033F02CC034F02DC02B
:1010900035F0000E366E000E376E000E386E000E04
:1010A000396E6FEC28F0D8A058EF08F05AEF08F02E
:1010B00060EF08F0000E4C6E000E4B6E96EF0CF0D9
:1010C000000164516511D8A468EF08F06AEF08F0D8
:1010D000DEEF08F076C02EF077C02FF078C030F049
:1010E00079C031F072C02AF073C02BF074C02CF0BC
:1010F00075C02DF0EDEC2EF02AC036F02BC037F085
:101100002CC038F02DC039F06EC02EF06FC02FF01B
:1011100070C030F071C031F06AC02AF06BC02BF0A3
:101120006CC02CF06DC02DF0EDEC2EF02AC032F02A
:101130002BC033F02CC034F02DC035F000EC19F08A
:1011400032C011F033C012F034C013F035C014F0C7
:10115000000E156E000E166E700E176E420E186E93
:10116000EBEC16F011C07CF012C07DF013C07EF0E5
:1011700014C07FF000017FBFC2EF08F0C0EF08F09D
:10118000BDEF09F07CC001F07DC002F07EC003F02D
:101190007FC004F0000E056E000E066EB40E076EE2
:1011A000430E086E8BEC14F001C07CF002C07DF0A1
:1011B00003C07EF004C07FF0BDEF09F06405651147
:1011C000D8A4E5EF08F0E7EF08F053EF09F076C098
:1011D0002EF077C02FF078C030F079C031F072C0B7
:1011E0002AF073C02BF074C02CF075C02DF0EDEC1C
:1011F0002EF02AC036F02BC037F02CC038F02DC0AE
:1012000039F066C02EF067C02FF068C030F069C0BA
:1012100031F06EC02AF06FC02BF070C02CF071C09E
:101220002DF0EDEC2EF02AC032F02BC033F02CC0A4
:1012300034F02DC035F000EC19F032C060F033C04E
:1012400061F034C062F035C063F0000E056E000E30
:10125000066E000E076E400E086E60C001F061C0A1
:1012600002F062C003F063C004F08BEC14F001C024
:1012700011F002C012F003C013F004C014F0000E0D
:10128000156E000E166E700E176E420E186EEBEC99
:1012900016F011C07CF012C07DF013C07EF014C0B7
:1012A0007FF0BDEF09F076C02EF077C02FF078C048
:1012B00030F079C031F072C02AF073C02BF074C0E6
:1012C0002CF075C02DF0EDEC2EF02AC036F02BC0BE
:1012D00037F02CC038F02DC039F06AC02EF06BC04A
:1012E0002FF06CC030F06DC031F066C02AF067C0DE
:1012F0002BF068C02CF069C02DF0EDEC2EF02AC068
:1013000032F02BC033F02CC034F02DC035F000EC9F
:1013100019F032C060F033C061F034C062F035C003
:1013200063F0000E056E000E066E800E076E400E16
:10133000086E60C001F061C002F062C003F063C0DB
:1013400004F08BEC14F001C011F002C012F003C0E5
:1013500013F004C014F0000E156E000E166E700E21
:10136000176E420E186EEBEC16F011C07CF012C036
:101370007DF013C07EF014C07FF07CC02AF07DC0E9
:101380002BF07EC02CF07FC02DF0000E2E6E000ED4
:101390002F6EA50E306E430E316EFEEC25F0D8A0F8
:1013A000D4EF09F0D6EF09F0F5EF09F0000E2A6E40
:1013B000000E2B6EB40E2C6E430E2D6E7CC02EF0E4
:1013C0007DC02FF07EC030F07FC031F0FEEC25F004
:1013D000D8A0EDEF09F0EFEF09F0F5EF09F0000EFE
:1013E0004C6E010E4B6E96EF0CF07CC02AF07DC067
:1013F0002BF07EC02CF07FC02DF0000E2E6E000E64
:101400002F6EA00E306E400E316EFEEC25F0D8A08F
:101410000CEF0AF00EEF0AF02DEF0AF0000E2A6E24
:10142000000E2B6E400E2C6E410E2D6E7CC02EF0E9
:101430007DC02FF07EC030F07FC031F0FEEC25F093
:10144000D8A025EF0AF027EF0AF02DEF0AF0000EE2
:101450004C6E020E4B6E96EF0CF07CC02AF07DC0F5
:101460002BF07EC02CF07FC02DF0000E2E6E000EF3
:101470002F6EA00E306E410E316EFEEC25F0D8A01E
:1014800044EF0AF046EF0AF0C6EF0AF0000E2A6EAB
:10149000000E2B6EE80E2C6E410E2D6E7CC02EF0D1
:1014A0007DC02FF07EC030F07FC031F0FEEC25F023
:1014B000D8A05DEF0AF05FEF0AF0C6EF0AF04DC06A
:1014C000D9FF4EC0DAFFDECF2AF0DECF2BF0DECF21
:1014D0002CF0DECF2DF0CD0E2E6ECC0E2F6E4C0EDE
:1014E000306E3E0E316EFEEC25F0D8A07AEF0AF099
:1014F0007CEF0AF09BEF0AF0000E2A6E000E2B6EB6
:10150000800E2C6E3E0E2D6E4DC0D9FF4EC0DAFF00
:10151000DECF2EF0DECF2FF0DECF30F0DECF31F099
:10152000FEEC25F0D8A097EF0AF099EF0AF09BEFB8
:101530000AF05AEF08F020EE08F04D50D9264E5030
:10154000DA22DECF2AF0DECF2BF0DECF2CF0DECF9A
:101550002DF0290E2E6E5C0E2F6E0F0E306E3E0E8D
:10156000316EFEEC25F0D8A0B8EF0AF0BAEF0AF021
:10157000C0EF0AF0000E4C6E040E4B6E96EF0CF0AE
:10158000000E4C6E030E4B6E96EF0CF07CC02AF0F2
:101590007DC02BF07EC02CF07FC02DF0000E2E6E93
:1015A000000E2F6E340E306E420E316EFEEC25F0C2
:1015B000D8A0DDEF0AF0DFEF0AF044EF0BF0000EE9
:1015C0002A6E000E2B6EA00E2C6E420E2D6E7CC06D
:1015D0002EF07DC02FF07EC030F07FC031F0FEECE9
:1015E00025F0D8A0F6EF0AF0F8EF0AF044EF0BF080
:1015F00020EE08F04D50D9264E50DA22DECF2AF0E8
:10160000DECF2BF0DECF2CF0DECF2DF09A0E2E6E3B
:10161000990E2F6E190E306E3E0E316EFEEC25F0D7
:10162000D8A015EF0BF017EF0BF019EF0BF0BAEF96
:101630000AF020EE08F04D50D9264E50DA22DECFC7
:101640002AF0DECF2BF0DECF2CF0DECF2DF08F0E88
:101650002E6EC20E2F6EF50E306E3D0E316EFEEC0C
:1016600025F0D8A036EF0BF038EF0BF03EEF0BF083
:10167000000E4C6E060E4B6E96EF0CF0000E4C6E8C
:10168000050E4B6E96EF0CF07CC02AF07DC02BF05F
:101690007EC02CF07FC02DF0000E2E6E000E2F6E3F
:1016A000A20E306E420E316EFEEC25F0D8A05BEF3C
:1016B0000BF05DEF0BF097EF0BF0000E2A6E000EB3
:1016C0002B6EE60E2C6E420E2D6E7CC02EF07DC071
:1016D0002FF07EC030F07FC031F0FEEC25F0D8A0B6
:1016E00074EF0BF076EF0BF097EF0BF020EE08F0B5
:1016F0004D50D9264E50DA22DECF2AF0DECF2BF025
:10170000DECF2CF0DECF2DF09A0E2E6E990E2F6EBE
:10171000190E306E3E0E316EFEEC25F0D8A093EF20
:101720000BF095EF0BF038EF0BF0BAEF0AF07CC03E
:101730002AF07DC02BF07EC02CF07FC02DF0000E73
:101740002E6E000E2F6EF00E306E410E316EFEECDE
:1017500025F0D8A0AEEF0BF0B0EF0BF0C9EF0BF017
:10176000000E2A6E000E2B6E680E2C6E420E2D6E31
:101770007CC02EF07DC02FF07EC030F07FC031F0F5
:10178000FEEC25F0D8B0C7EF0BF0C9EF0BF0BAEFC5
:101790000AF07CC02AF07DC02BF07EC02CF07FC008
:1017A0002DF0000E2E6E000E2F6EF00E306E420EDB
:1017B000316EFEEC25F0D8A0E0EF0BF0E2EF0BF07D
:1017C000FDEF0BF0000E2A6E000E2B6E5C0E2C6EE1
:1017D000430E2D6E7CC02EF07DC02FF07EC030F009
:1017E0007FC031F0FEEC25F0D8A0F9EF0BF0FBEF55
:1017F0000BF0FDEF0BF0BAEF0AF07CC02AF07DC0D1
:101800002BF07EC02CF07FC02DF0000E2E6E000E4F
:101810002F6E600E306E410E316EFEEC25F0D8A0BA
:1018200014EF0CF016EF0CF092EF0CF0000E2A6E95
:10183000000E2B6E980E2C6E410E2D6E7CC02EF07D
:101840007DC02FF07EC030F07FC031F0FEEC25F07F
:10185000D8A02DEF0CF02FEF0CF092EF0CF04DC054
:10186000D9FF4EC0DAFFDECF2AF0DECF2BF0DECF7D
:101870002CF0DECF2DF0CD0E2E6ECC0E2F6E4C0E3A
:10188000306E3E0E316EFEEC25F0D8A04AEF0CF023
:101890004CEF0CF06BEF0CF01F0E2A6E850E2B6ECA
:1018A0006B0E2C6E3E0E2D6E4DC0D9FF4EC0DAFF72
:1018B000DECF2EF0DECF2FF0DECF30F0DECF31F0F6
:1018C000FEEC25F0D8A067EF0CF069EF0CF06BEFA1
:1018D0000CF05AEF08F020EE08F04D50D9264E508B
:1018E000DA22DECF2AF0DECF2BF0DECF2CF0DECFF7
:1018F0002DF09A0E2E6E990E2F6E190E306E3E0E32
:10190000316EFEEC25F0D8A088EF0CF08AEF0CF0D9
:101910008CEF0CF0BAEF0AF0000E4C6E070E4B6E17
:1019200096EF0CF0000E4C6E0A0E4B6E1200000E7D
:1019300000018A6F62C08DF063C08EF064C08FF0CA
:1019400065C090F090BFA9EF0CF0A7EF0CF0BDEFD1
:101950000CF0010E8A6F8DC001F08EC002F08FC0B6
:1019600003F090C004F0D3EC2FF001C08DF002C062
:101970008EF003C08FF004C090F0000E00018C6F59
:10198000000E8B6FEDC07AF0EEC07BF08A51D8B4B8
:10199000CCEF0CF0CEEF0CF0E2EF0CF08A51D8A4B3
:1019A000D4EF0CF0D6EF0CF0DCEF0CF0000E706F03
:1019B0002B0E6F6FE0EF0CF0000E706F2D0E6F6F3F
:1019C0006FC08AF08DC001F08EC002F08FC003F0AE
:1019D00090C004F080EC26F001040210D8A4F3EFCC
:1019E0000CF0F5EF0CF028EF0DF000018A51D8B49F
:1019F000FCEF0CF0FEEF0CF007EF0DF08AC0A0F248
:101A00007A07D8A07B07000E8C6F010E8B6FA00E9B
:101A10008B25016E020E8C21026E490E036E0E0E96
:101A2000046E10EC2FF00001FD0E7A27FF0E7B23D1
:101A300060C011F061C012F0A00E136E020E146EA1
:101A40007AC015F07BC016F0C4EC2AF093EF11F0C9
:101A50008DC001F08EC002F08FC003F090C004F082
:101A600080EC26F001500210D8A439EF0DF03BEFC6
:101A70000DF05BEF0DF000018A51D8B442EF0DF08C
:101A800044EF0DF04DEF0DF08AC0A0F27A07D8A018
:101A90007B07000E8C6F010E8B6FA00E8B25016EE5
:101AA000020E8C21026E4D0E036E0E0E046E10ECB3
:101AB0002FF013EF0DF0000E0001916F000E926FEA
:101AC000800E936F3F0E946F000E796F000E786F4B
:101AD0008DC032F08EC033F08FC034F090C035F03E
:101AE000000E366E000E376E000E386E000E396E28
:101AF0006FEC28F0D8B07FEF0DF081EF0DF060EFC4
:101B00000EF08EEF0DF07CC091F07DC092F07EC0A3
:101B100093F07FC094F00001784B792B91C011F0C5
:101B200092C012F093C013F094C014F0000E156E22
:101B3000000E166E200E176E410E186EEBEC16F0AE
:101B400011C07CF012C07DF013C07EF014C07FF095
:101B500000017C518D5D016E7D518E59026E7E516A
:101B60008F59036E7F519059046E3BEC2BF004BEED
:101B7000C5EF0DF004500310021009E1020E015CE4
:101B8000D8A0C5EF0DF0C7EF0DF083EF0DF07CC0CE
:101B90002AF07DC02BF07EC02CF07FC02DF08DC0D0
:101BA0002EF08EC02FF08FC030F090C031F0FEECE0
:101BB00025F0D8A0DEEF0DF0E0EF0DF083EF0DF093
:101BC000000191518D5D016E92518E59026E9351BB
:101BD0008F59036E94519059046E3BEC2BF004BE68
:101BE000FFEF0DF004500310021007E1020E015C3C
:101BF000D8B0FDEF0DF0FFEF0DF047EF0EF091C004
:101C00008DF092C08EF093C08FF094C090F060EF92
:101C10000EF091C032F092C033F093C034F094C013
:101C200035F0000E366E000E376E200E386E410E07
:101C3000396E00EC19F032C091F033C092F034C02C
:101C400093F035C094F000017807D8A0790791513E
:101C50008D5D016E92518E59026E93518F59036EB4
:101C600094519059046E3BEC2BF004BE45EF0EF0FE
:101C700004500310021007E1020E015CD8B043EFDC
:101C80000EF045EF0EF047EF0EF0FFEF0DF08DC0B8
:101C90002AF08EC02BF08FC02CF090C02DF091C098
:101CA0002EF092C02FF093C030F094C031F0FEECD3
:101CB00025F0D8A05EEF0EF060EF0EF009EF0EF009
:101CC00066C072F072C073F00001F0BF6AEF0EF0F0
:101CD0006CEF0EF072EF0EF0EFC06BF0F0C06CF036
:101CE00076EF0EF0000E6C6F060E6B6F6BC076F029
:101CF0006CC077F0764B772B660E7319D8A483EF00
:101D00000EF085EF0EF0A5EF0EF079BF8CEF0EF020
:101D10008AEF0EF098EF0EF0000E916F000E926FAA
:101D2000800E936F3F0E946F000E796F000E786FE8
:101D3000670E7219D8B49FEF0EF0A1EF0EF0A5EF69
:101D40000EF07851762779517723000E816F000EBF
:101D5000806F8DC082F08EC083F08FC084F090C001
:101D600085F091C07CF092C07DF093C07EF094C06D
:101D70007FF036EF0FF082C032F083C033F084C0C2
:101D800034F085C035F091C036F092C037F093C082
:101D900038F094C039F000EC19F032C04BF033C089
:101DA0004CF034C04DF035C04EF07CEC20F04BC010
:101DB00086F04CC087F04DC088F04EC089F086C0D8
:101DC00001F087C002F088C003F089C004F07BEC0A
:101DD00025F001C074F002C075F082C02AF083C003
:101DE0002BF084C02CF085C02DF086C015F087C084
:101DF00016F088C017F089C018F091C011F092C099
:101E000012F093C013F094C014F0EBEC16F011C074
:101E10002EF012C02FF013C030F014C031F0EDECF2
:101E20002EF02AC082F02BC083F02CC084F02DC08D
:101E300085F091C032F092C033F093C034F094C07A
:101E400035F0000E366E000E376E200E386E410EE5
:101E5000396E00EC19F032C091F033C092F034C00A
:101E600093F035C094F00001804B812B7651805D5A
:101E70008151800A676F7751800A6759D8A043EF74
:101E80000FF045EF0FF0BBEF0EF091C011F092C0D4
:101E900012F093C013F094C014F0000E156E000EF3
:101EA000166EA00E176E400E186EEBEC16F011C0F9
:101EB00086F012C087F013C088F014C089F082C089
:101EC0002AF083C02BF084C02CF085C02DF086C092
:101ED0002EF087C02FF088C030F089C031F0FEECC2
:101EE00025F0D8B076EF0FF078EF0FF083EF0FF01A
:101EF000000E0001866F000E876F000E886F000EC7
:101F0000896FACEF0FF082C032F083C033F084C031
:101F100034F085C035F086C036F087C037F088C011
:101F200038F089C039F06FEC28F0D8A09AEF0FF0A4
:101F30009CEF0FF0ACEF0FF0000174B1A2EF0FF0C7
:101F4000A4EF0FF0ACEF0FF0000E866F000E876F5E
:101F5000000E886F000E896F8DC001F08EC002F0F8
:101F60008FC003F090C004F086C005F087C006F073
:101F700088C007F089C008F08BEC14F001C082F033
:101F800002C083F003C084F004C085F082C02AF050
:101F900083C02BF084C02CF085C02DF0000E156E90
:101FA000000E166E200E176E410E186E7CC011F0DA
:101FB0007DC012F07EC013F07FC014F0EBEC16F081
:101FC00011C02EF012C02FF013C030F014C031F049
:101FD000FEEC25F0D8A0EFEF0FF0F1EF0FF01AEFC5
:101FE00010F00001784B792B7CC011F07DC012F00D
:101FF0007EC013F07FC014F0000E156E000E166E3A
:10200000200E176E410E186EEBEC16F011C07CF02E
:1020100012C07DF013C07EF014C07FF0660E000188
:102020007319D8A416EF10F018EF10F01AEF10F093
:10203000764B772B7CC091F07DC092F07EC093F000
:102040007FC094F078C069F079C06AF0000E00019A
:10205000716F000E6E6F000E6D6F000E816F000EBF
:10206000806F18EF11F082C032F083C033F084C06B
:1020700034F085C035F091C036F092C037F093C08F
:1020800038F094C039F000EC19F032C04BF033C096
:102090004CF034C04DF035C04EF07CEC20F04BC01D
:1020A00086F04CC087F04DC088F04EC089F086C0E5
:1020B00001F087C002F088C003F089C004F07BEC17
:1020C00025F002BE6FEF10F0025007E10A0E015C2E
:1020D000D8B06DEF10F06FEF10F07FEF10F086C00A
:1020E00001F087C002F088C003F089C004F07BECE7
:1020F00025F001C074F002C075F084EF10F0000EFE
:102100000001756F090E746F00017151D8A48BEF37
:1021100010F08DEF10F0B5EF10F06ABF94EF10F0F3
:1021200092EF10F0B5EF10F0A00E8B25D96E020ED5
:102130008C21DA6E2E0EDF6E8B4B8C2B7A07D8A09B
:102140007B07010E716FB5EF10F0A00E8B25D96ED5
:10215000020E8C21DA6E300EDF6E8B4B8C2B7A07E1
:10216000D8A07B076D07D8A06E076D516E11D8A45B
:10217000BCEF10F0BEEF10F0A5EF10F0A00E8B2515
:10218000D96E020E8C21DA6E7451300FDF6E8B4BDC
:102190008C2B7A07D8A07B0782C02AF083C02BF053
:1021A00084C02CF085C02DF086C015F087C016F0D5
:1021B00088C017F089C018F091C011F092C012F0D9
:1021C00093C013F094C014F0EBEC16F011C02EF095
:1021D00012C02FF013C030F014C031F0EDEC2EF02F
:1021E0002AC082F02BC083F02CC084F02DC085F073
:1021F00091C032F092C033F093C034F094C035F007
:10220000000E366E000E376E200E386E410E396E9F
:1022100000EC19F032C091F033C092F034C093F06A
:1022200035C094F000016907D8A06A07804B812B64
:102230007651805D8151800A676F7751800A6759B6
:10224000D8B025EF11F027EF11F035EF11F08CBF6A
:1022500033EF11F08C5109E14B0E8B5DD8A033EFB9
:1022600011F035EF11F033EF10F0000E816F4F0ECB
:10227000806FA00E8025D96E020E8121DA6E000ECD
:10228000DF6EA00E676F020E686F8B51675F8C5117
:10229000685B80516725016E81516821026EA00E36
:1022A000036E020E046E8BC005F08CC006F0D7ECF6
:1022B0002DF000018B51805D8B6F8C5181598C6F9B
:1022C0008A51D8A466EF11F069EF11F0010E6AEFA0
:1022D00011F0000E806F816B8A51D8B472EF11F04B
:1022E00074EF11F07FEF11F08B07D8A08C07A00ED0
:1022F0008B25D96E020E8C21DA6E8AC0DFFF8051E9
:102300007A5F81517B5B60C011F061C012F0A00E5A
:102310008B25136E020E8C21146E7AC015F07BC0D3
:1023200016F0C4EC2AF01200ADEC30F0E3EC30F023
:102330005CEC2DF03EEC30F0000E026EC80E016E2B
:1023400000EC2AF087928198869E86840E01B495CF
:102350008686B4977F8279887E8E7C9E849E8096C6
:102360008896809088907E9086907C9884987C96C1
:102370008496000E0101C56F010EC66F010EC76F76
:10238000AA0ECA6F0F0ECB6FA60ECC6F0F0ECD6FBD
:10239000000EC96FC80EC86F000EBC6F010EBD6F76
:1023A000010EBE6F250EC16F0F0EC26F210EC36FDF
:1023B0000F0EC46F000EC06FC80EBF6F000E6B6FA4
:1023C000000E6A6F000E6F6F000E6E6F7C697D6984
:1023D000C50E206E010E216EBC0E226E010E236E04
:1023E00085EC21F07E90520E0001D06F2B0ECF6F46
:1023F000000EE82EFED7CF2FFCD7D02FFAD700F053
:102400008EB405EF12F007EF12F000EF12F0520E4B
:102410000001D06F2B0ECF6F000EE82EFED7CF2F0E
:10242000FCD7D02FFAD700F09DEC30F07FEF14F0FE
:10243000000ED46E000ED36E000E696F000E686F32
:10244000C50E146E010E156EBC0E166E010E176EC3
:10245000B1EC29F0CE0E0C6E010E0D6ED3EC2BF00C
:10246000CE0E4B6E010E4C6EB00E4D6E010E4E6ECA
:10247000CDEC1AF00101D5BF47EF12F0F40ED45D98
:10248000010ED559D8A047EF12F049EF12F044EFF2
:1024900014F07C4B7D2B67EC30F0C50E1A6E010EEC
:1024A0001B6EBC0E1C6E010E1D6E89EC2CF0C50E51
:1024B000146E010E156EBC0E166E010E176E85ECB5
:1024C0002AF0110E0001D06F3C0ECF6FCB0EE82E1C
:1024D000FED7CF2FFCD7D02FFAD7A2EF12F0CE0E17
:1024E0004B6E010E4C6EB00E4D6E010E4E6E29EC11
:1024F00007F04BC06CF14CC06DF101016E516C19CD
:1025000007E16F516D19D8A488EF12F08AEF12F02D
:102510008EEF12F06A4B6B2B92EF12F0000E6B6F86
:10252000000E6A6F6CC16EF16DC16FF1050E000196
:10253000D06F0F0ECF6FF10EE82EFED7CF2FFCD746
:10254000D02FFAD701016BBFAFEF12F06B5109E149
:10255000140E6A5DD8A0AFEF12F0B1EF12F06FEF7A
:1025600012F0000E6B6F000E6A6FD3CF64F1656BD3
:10257000000E0001B06F010EB16F010EB26F0E0EB2
:10258000B36FCEC1B4F0CFC1B5F0D0C1B6F0D1C1F8
:10259000B7F0D2C1B8F0D3C1B9F0D4CFBAF0BB6BA9
:1025A000E1EC2CF0000E026E010E036E26EC30F012
:1025B00001016E056F11D8A4E0EF12F0E2EF12F006
:1025C000FBEF12F0C50E206E010E216EBC0E226EC6
:1025D000010E236E95EC2FF0000ED46E000ED36E1C
:1025E0007E0E01017C25D96E010E7D21DA6E010E71
:1025F000DF6E7FEF14F0020E6E196F11D8A403EF97
:1026000013F005EF13F01EEF13F0C50E206E010E50
:10261000216EBC0E226E010E236E0AEC2DF0000E10
:10262000D46E000ED36E7E0E01017C25D96E010E94
:102630007D21DA6E020EDF6E7FEF14F0030E6E194D
:102640006F11D8A426EF13F028EF13F041EF13F029
:10265000C50E206E010E216EBC0E226E010E236E81
:1026600085EC2DF0000ED46E000ED36E7E0E0101AF
:102670007C25D96E010E7D21DA6E030EDF6E7FEFB1
:1026800014F0040E6E196F11D8A449EF13F04BEF3C
:1026900013F064EF13F0C50E206E010E216EBC0E18
:1026A000226E010E236E6EEC2BF0000ED46E000E27
:1026B000D36E7E0E01017C25D96E010E7D21DA6E6E
:1026C000040EDF6E7FEF14F0050E6E196F11D8A4A3
:1026D0006CEF13F06EEF13F087EF13F0C50E206E62
:1026E000010E216EBC0E226E010E236EB4EC2FF093
:1026F000000ED46E000ED36E7E0E01017C25D96EC5
:10270000010E7D21DA6E050EDF6E7FEF14F0060EEE
:102710006E196F11D8A48FEF13F091EF13F0AAEF99
:1027200013F0C50E206E010E216EBC0E226E010E3E
:10273000236E33EC2DF0000ED46E000ED36E7E0EA1
:1027400001017C25D96E010E7D21DA6E060EDF6E49
:102750007FEF14F0070E6E196F11D8A4B2EF13F0CB
:10276000B4EF13F0CDEF13F0C50E206E010E216E05
:10277000BC0E226E010E236EAEEC2DF0000ED46E58
:10278000000ED36E7E0E01017C25D96E010E7D21D7
:10279000DA6E070EDF6E7FEF14F00A0E6E196F11FE
:1027A000D8A4D5EF13F0D7EF13F013EF14F0684B64
:1027B000692B040E68196911D8A4E1EF13F0E3EF57
:1027C00013F007EF14F0C50E206E010E216EBC0E43
:1027D000226E010E236E6EEC2BF0D59E7E0E246EC3
:1027E000010E256E3C0E266E020E276EE7EC1DF0E4
:1027F000C50E146E010E156EBC0E166E010E176E10
:1028000085EC2AF0000E0101D76F000ED66FC50EC1
:102810001A6E010E1B6EBC0E1C6E010E1D6E44EC7A
:102820002AF07FEF14F06E516F11D8A41AEF14F054
:102830001CEF14F042EF14F0C50E206E010E216E55
:10284000BC0E226E010E236E6EEC2BF0D59E7E0E1A
:10285000246E010E256E3C0E266E020E276EE7ECEE
:102860001DF0C50E146E010E156EBC0E166E010E17
:10287000176E85EC2AF0000E0101D76F000ED66F9F
:102880007FEF14F07FEF14F0CE0E4B6E010E4C6E06
:10289000B00E4D6E010E4E6E29EC07F04BC066F186
:1028A0004CC067F1000E0001B06F010EB16F260E33
:1028B000B26F0E0EB36FB0C1B4F0B1C1B5F0B2C11A
:1028C000B6F0B3C1B7F0B4C1B8F0B5C1B9F0B6C194
:1028D000BAF0B7C1BBF0B8C1BCF0B9C1BDF0BAC164
:1028E000BEF0BBC1BFF0D4C1C0F0D5C1C1F0E1ECB6
:1028F0002CF0000E026E010E036E26EC30F001018A
:10290000D651D711D8A487EF14F089EF14F018EF3F
:1029100012F000EF00F00450800B0D6E0450042400
:102920000F6E03AE96EF14F098EF14F099EF14F0D9
:102930000F800F50D8B49FEF14F0A1EF14F0B6EF52
:1029400014F00F28D8A4A7EF14F0A9EF14F0B1EFFA
:1029500014F0000E016E000E026E000E036E000EEB
:10296000046E038E000E046EBEEF14F0000E016EB6
:10297000000E026E000E036E000E046E0850800BF7
:102980000E6E0D500E18D8B4C8EF14F0CAEF14F044
:10299000CBEF14F00D8C085008240E6E07AED3EF69
:1029A00014F0D5EF14F0D6EF14F00E800E50D8B41A
:1029B000DCEF14F0DEEF14F0F3EF14F00E28D8A4DF
:1029C000E4EF14F0E6EF14F0EEEF14F0000E056EF5
:1029D000000E066E000E076E000E086E078E000ECB
:1029E000086EFBEF14F0000E056E000E066E000E72
:1029F000076E000E086E0F500E5CD8B002EF15F097
:102A000004EF15F02BEF15F00DAC09EF15F00BEFFF
:102A100015F00DEF15F0800E0D1A0FC010F00EC05E
:102A20000FF010C00EF001C010F005C001F010C092
:102A300005F002C010F006C002F010C006F003C09E
:102A400010F007C003F010C007F004C010F008C079
:102A500004F010C008F0000E106E0F500EC009F008
:102A60000A6A095E000E0A5A0ABE40EF15F00A50C3
:102A700009E11A0E095CD8A040EF15F042EF15F0FD
:102A800079EF15F00150021003100410D8A44BEF99
:102A900015F04EEF15F0010E4FEF15F0000E106E11
:102AA000000E016E000E026E000E036E000E046E2C
:102AB0000EC00FF082EF15F010A061EF15F063EF7C
:102AC00015F069EF15F0D89010300109106E6BEF1A
:102AD00015F0D890103201A070EF15F072EF15F0DC
:102AE00073EF15F0108E04340432033202320132D7
:102AF0000F2A0E500F5CD8A080EF15F082EF15F072
:102B00005CEF15F00DBC87EF15F089EF15F0C9EFFC
:102B100015F00F50D8A48FEF15F091EF15F09BEF43
:102B200015F0000E016E000E026E000E036E000E18
:102B3000046EEAEF16F005500126065002220750F7
:102B400003220850042204A0A8EF15F0AAEF15F004
:102B500056EF16F010A0AFEF15F0B1EF15F0B7EF8C
:102B600015F0D89010300109106EB9EF15F0D8901B
:102B7000103201A0BEEF15F0C0EF15F0C1EF15F057
:102B8000108E043404320332023201320F2A56EF1F
:102B900016F00550015C06500258075003580450C7
:102BA000800A096E0850800A0958D8B0DAEF15F08B
:102BB000DCEF15F007EF16F00150055C096E0250CE
:102BC00006580A6E035007580B6E045008580C6ED6
:102BD000FF0E0924016EFF0E0A20026EFF0E0B206D
:102BE000036EFF0E0C20046E800E0D1A106C105038
:102BF000D8A4FDEF15F0FFEF15F00FEF16F0010E62
:102C00000126000E0222032204220FEF16F00550C7
:102C1000015E0650025A0750035A0850045A0150E8
:102C2000021003100410D8A418EF16F01AEF16F0D3
:102C30004FEF16F01050D8A420EF16F022EF16F048
:102C40004FEF16F0000E016E000E026E000E036EC6
:102C5000000E046EEAEF16F0D89001360236033605
:102C6000043610AE36EF16F038EF16F039EF16F0E6
:102C7000018010A03EEF16F040EF16F044EF16F082
:102C8000D880103646EF16F0D89010360F50D8B4D2
:102C90004CEF16F04EEF16F04FEF16F00F0603AEA6
:102CA00054EF16F056EF16F02CEF16F0000E0E6EE5
:102CB00010AE5DEF16F05FEF16F077EF16F010C074
:102CC00009F07F0E0916D8B468EF16F06AEF16F017
:102CD0006EEF16F0010E0E6E77EF16F001A073EF97
:102CE00016F075EF16F077EF16F06AEF16F00E504B
:102CF000D8B47DEF16F07FEF16F0AAEF16F0010EB4
:102D00000126000E02220322042204A08AEF16F0FC
:102D10008CEF16F0AAEF16F001C009F002C00AF01D
:102D200003C00BF004C00CF00C340C320B320A322E
:102D3000093209C001F00AC002F00BC003F00CC058
:102D400004F00F28D8B4A7EF16F0A9EF16F0AAEFF9
:102D500016F00F2A0F28D8B4B0EF16F0B2EF16F025
:102D6000BAEF16F00F50D8A4B8EF16F0BAEF16F07D
:102D7000CCEF16F0000E016E000E026E000E036E18
:102D8000000E046E0F50D8A4C8EF16F0CAEF16F06C
:102D9000CCEF16F0000E0D6E0FA0D1EF16F0D3EFB2
:102DA00016F0D6EF16F0038ED7EF16F0039ED890EC
:102DB0000F30046E0DAEDFEF16F0E1EF16F0E2EF2C
:102DC00016F0048E01C001F002C002F003C003F04F
:102DD00004C004F012001450800B1D6E1450142413
:102DE000236E13AEF6EF16F0F8EF16F0F9EF16F0CB
:102DF00023802350D8B4FFEF16F001EF17F014EF43
:102E000017F02328D8A407EF17F009EF17F011EFF8
:102E100017F0000E116E000E126E000E136E000EF3
:102E2000146E138E1CEF17F0000E116E000E126E52
:102E3000000E136E000E146E1850800B1D1A1850E1
:102E40001824226E17AE27EF17F029EF17F02AEF9C
:102E500017F022802250D8B430EF17F032EF17F07D
:102E600045EF17F02228D8A438EF17F03AEF17F003
:102E700042EF17F0000E156E000E166E000E176E64
:102E8000000E186E178E4DEF17F0000E156E000E27
:102E9000166E000E176E000E186E2250D8B453EF47
:102EA00017F055EF17F05DEF17F02350D8A45BEF44
:102EB00017F05DEF17F067EF17F0000E116E000EC0
:102EC000126E000E136E000E146EFFEF18F0175006
:102ED0001102F3CF28F0F4CF29F028501E6E1F6A9C
:102EE000206A216A2950246E256A266A276A1650AC
:102EF0001202F3CF28F0F4CF29F028501E26000E3E
:102F00001F222022212229502426000E252226229B
:102F1000272215501302F3CF28F0F4CF29F02850C0
:102F20001E26000E1F222022212229502426000EB8
:102F300025222622272220C021F01FC020F01EC0FB
:102F40001FF01E6A15501202F3CF28F0F4CF29F0BB
:102F500028501E2629501F22000E2022000E21225A
:102F600016501102F3CF28F0F4CF29F028501E2676
:102F700029501F22000E2022000E212220C021F005
:102F80001FC020F01EC01FF01E6A15501102F3CFA3
:102F900028F0F4CF29F028501E2629501F22000EB9
:102FA0002022000E212217501202F3CF28F0F4CF76
:102FB00029F02850242629502522000E2622000E12
:102FC000272216501302F3CF28F0F4CF29F028500F
:102FD000242629502522000E2622000E27221750D3
:102FE0001302F3CF28F0F4CF29F02850196E29509E
:102FF0001A6E1B6A1C6A1BC01CF01AC01BF019C099
:103000001AF0196A195024261A5025221B5026221C
:103010001C5027221EC019F01FC01AF020C01BF040
:1030200021C01CF0190E1AEF18F0D8901C321B3278
:103030001A321932E82E15EF18F0195024261A50BA
:1030400025221B5026221C50272220C021F01FC001
:1030500020F01EC01FF01E6A225023C019F01A6A09
:103060001926000E1A22820E1924286EFF0E1A202D
:10307000296E50EF18F0D89024362536263627369C
:1030800021AE45EF18F047EF18F048EF18F0248014
:10309000D8901E361F36203621362806D8A029069D
:1030A00026AE55EF18F057EF18F03BEF18F0000E72
:1030B000226E21AE5EEF18F060EF18F084EF18F08A
:1030C000FF0E1E14196EFF0E1F141A6EFF0E201431
:1030D0001B6E7F0E21141C6E19501A101B101C1031
:1030E000D8B475EF18F077EF18F07BEF18F0010EF9
:1030F000226E84EF18F024A080EF18F082EF18F011
:1031000084EF18F077EF18F02250D8B48AEF18F057
:103110008CEF18F0B0EF18F0010E2426000E2522D7
:103120002622272227A097EF18F099EF18F0B0EF8A
:1031300018F024C019F025C01AF026C01BF027C0D3
:103140001CF01C341C321B321A32193219C024F004
:103150001AC025F01BC026F01CC027F0284A292AD7
:1031600029BEBBEF18F0295008E12828D8A0BBEFF2
:1031700018F0BDEF18F0C7EF18F0000E246E000E27
:10318000256E800E266E7F0E276EF5EF18F029BE95
:10319000D4EF18F0295006E12804D8B0D2EF18F087
:1031A000D4EF18F0E0EF18F0000E246E000E256E3C
:1031B000000E266E000E276E000E1D6EF5EF18F045
:1031C00028C023F0FF0E2416FF0E25167F0E2616AC
:1031D000000E271623A0EFEF18F0F1EF18F0F2EF32
:1031E00018F0268ED8902330276E1D50271224C049
:1031F00011F025C012F026C013F027C014F0120001
:103200003550800B426E35503524496E34AE0BEF8D
:1032100019F00DEF19F00EEF19F049804950D8B4AC
:1032200014EF19F016EF19F02BEF19F04928D8A474
:103230001CEF19F01EEF19F026EF19F0000E326E98
:10324000000E336E000E346E000E356E348E000E9E
:10325000356E33EF19F0000E326E000E336E000E35
:10326000346E000E356E3950800B421A39503924B5
:103270004A6E38AE3EEF19F040EF19F041EF19F009
:103280004A804A50D8B447EF19F049EF19F05EEF81
:1032900019F04A28D8A44FEF19F051EF19F059EF5F
:1032A00019F0000E366E000E376E000E386E000EEE
:1032B000396E388E000E396E66EF19F0000E366EDC
:1032C000000E376E000E386E000E396E3650371015
:1032D00038103910D8A46FEF19F071EF19F089EF99
:1032E00019F0000E326E000E336E000E346E000EBA
:1032F000356E800E34127F0E35124250351232C0B8
:1033000032F033C033F034C034F035C035F0CCEF98
:103310001AF04950D8A48FEF19F091EF19F09BEFF4
:1033200019F0000E326E000E336E000E346E000E79
:10333000356ECCEF1AF04A5049C03AF03B6A3A5E1B
:10334000000E3B5A7F0E3A24436E000E3B20446E23
:1033500032C03EF033C03FF034C040F035C041F0E1
:10336000000E326E000E336E000E346E000E356E9F
:10337000000E456E000E466E000E476E000E486E43
:10338000000E4A6EFCEF19F04A50D8B4CAEF19F09B
:10339000CCEF19F0E3EF19F0D8903E363F364036C7
:1033A0004136D890323633363436353648AEDBEFD8
:1033B00019F0DDEF19F0DEEF19F03280D8904536C4
:1033C00046364736483636503E5C37503F583850C0
:1033D000405839504158D8A0F0EF19F0F2EF19F0E9
:1033E000FBEF19F0488C36503E5E37503F5A38504C
:1033F000405A3950415A4A2A190E4A6402EF1AF0CB
:1034000004EF1AF0C4EF19F03E503F104010411085
:10341000D8B40DEF1AF00FEF1AF027EF1AF045802D
:1034200027EF1AF0D890323633363436353648AE78
:103430001CEF1AF01EEF1AF01FEF1AF03280D8902E
:1034400045364636473648364306D8A0440634AE9D
:103450002CEF1AF02EEF1AF012EF1AF0000E4A6E4F
:1034600048AE35EF1AF037EF1AF05BEF1AF0FF0EA7
:1034700045143A6EFF0E46143B6EFF0E47143C6E29
:103480007F0E48143D6E3A503B103C103D10D8B4AE
:103490004CEF1AF04EEF1AF052EF1AF0010E4A6E8E
:1034A0005BEF1AF032A057EF1AF059EF1AF05BEF0A
:1034B0001AF04EEF1AF04A50D8B461EF1AF063EFE9
:1034C0001AF087EF1AF0010E3226000E3322342252
:1034D000352235A06EEF1AF070EF1AF087EF1AF070
:1034E00032C03AF033C03BF034C03CF035C03DF060
:1034F0003D343D323C323B323A323AC032F03BC08E
:1035000033F03CC034F03DC035F0434A442A44BE59
:1035100092EF1AF0445008E14328D8A092EF1AF035
:1035200094EF1AF09FEF1AF0000E446E4368000EFD
:10353000326E000E336E000E346E000E356E44BED9
:10354000ACEF1AF0445006E14304D8B0AAEF1AF0E9
:10355000ACEF1AF0BAEF1AF0000E446E000E436E94
:10356000000E326E000E336E000E346E000E356E9D
:10357000000E426E43C049F049A0C1EF1AF0C3EFFC
:103580001AF0C6EF1AF0348EC7EF1AF0349ED890B6
:103590004930356E7DEF19F012004BC0D9FF4CC099
:1035A000DAFFDECF01F0DDCF02F0000E02BEFF0E2B
:1035B000036E046E010E75EC22F001C06CF002C0C7
:1035C0006DF003C06EF004C06FF020EE02F04B50BF
:1035D000D9264C50DA22DECF01F0DDCF02F0000E0A
:1035E00002BEFF0E036E046E010E75EC22F001C0E8
:1035F00070F002C071F003C072F004C073F020EEEE
:1036000004F04B50D9264C50DA22DECF01F0DDCF4A
:1036100002F0000E02BEFF0E036E046E010E75EC8A
:1036200022F001C074F002C075F003C076F004C04F
:1036300077F020EE06F04B50D9264C50DA22DECF40
:1036400001F0DDCF02F0000E02BEFF0E036E046E2D
:10365000010E75EC22F001C060F002C061F003C001
:1036600062F004C063F070C005F071C006F072C073
:1036700007F073C008F06CC001F06DC002F06EC0BE
:1036800003F06FC004F08BEC14F001C064F002C0D2
:1036900065F003C066F004C067F074C005F075C043
:1036A00006F076C007F077C008F064C001F065C08E
:1036B00002F066C003F067C004F08BEC14F001C0A8
:1036C00068F002C069F003C06AF004C06BF06CC01F
:1036D00032F06DC033F06EC034F06FC035F060C0B2
:1036E00005F061C006F062C007F063C008F068C072
:1036F00001F069C002F06AC003F06BC004F08BEC0B
:1037000014F001C036F002C037F003C038F004C036
:1037100039F000EC19F04DC0D9FF4EC0DAFF32C0CD
:10372000DEFF33C0DEFF34C0DEFF35C0DEFF70C019
:1037300005F071C006F072C007F073C008F06CC0ED
:1037400001F06DC002F06EC003F06FC004F08BECAE
:1037500014F001C064F002C065F003C066F004C05C
:1037600067F074C005F075C006F076C007F077C04A
:1037700008F064C001F065C002F066C003F067C0E5
:1037800004F08BEC14F001C068F002C069F003C0D3
:103790006AF004C06BF074C032F075C033F076C0CC
:1037A00034F077C035F060C005F061C006F062C04B
:1037B00007F063C008F068C001F069C002F06AC099
:1037C00003F06BC004F08BEC14F001C036F002C0C3
:1037D00037F003C038F004C039F000EC19F020EEE7
:1037E00008F04D50D9264E50DA2232C0DEFF33C0E9
:1037F000DEFF34C0DEFF35C0DEFF70C005F071C0F3
:1038000006F072C007F073C008F06CC001F06DC024
:1038100002F06EC003F06FC004F08BEC14F001C036
:1038200064F002C065F003C066F004C067F074C0C5
:1038300005F075C006F076C007F077C008F064C0E8
:1038400001F065C002F066C003F067C004F08BECC5
:1038500014F001C068F002C069F003C06AF004C04F
:103860006BF070C032F071C033F072C034F073C0CE
:1038700035F060C005F061C006F062C007F063C0BB
:1038800008F068C001F069C002F06AC003F06BC0C4
:1038900004F08BEC14F001C036F002C037F003C026
:1038A00038F004C039F000EC19F020EE04F04D506F
:1038B000D9264E50DA2232C0DEFF33C0DEFF34C0DC
:1038C000DEFF35C0DEFF120097C0D9FF98C0DAFFD7
:1038D000DECFF6FFDDCFF7FF000EF86E0800F550E3
:1038E000250AD8A476EF1CF078EF1CF0D0EF1DF07D
:1038F00097C0D9FF98C0DAFFDE2A000EDD22000E45
:103900000001EE6F000EED6FEDC0F3F0EF69F069AE
:1039100097C0D9FF98C0DAFFDECFA6F0DDCFA7F0C1
:10392000A6C0F6FFA7C0F7FF000EF86E0800F5501E
:10393000640AD8B49EEF1CF0A0EF1CF0B0EF1CF0AE
:10394000A6C0F6FFA7C0F7FF000EF86E0800F550FE
:10395000690AD8A4AEEF1CF0B0EF1CF0F3EF1CF036
:1039600099C0D9FF9AC0DAFFDFCF9BF0020EDE26A6
:10397000DFCF9CF0000EDD229BC0D9FF9CC0DAFF98
:10398000DECF9DF0DDCF9EF0000E9EBFFF0E9F6F3D
:10399000A06FA16FA26FA36FA46F010EA6259B6FEE
:1039A000000EA7219C6F97C0D9FF98C0DAFF9BC07B
:1039B000DEFF9CC0DDFF95C01CF096C01DF09DC0D1
:1039C0001EF09EC01FF09FC020F0A0C021F0A1C03B
:1039D00022F0A2C023F0A3C024F0A4C025F03DEC47
:1039E0001FF0E6EF1DF097C0D9FF98C0DAFFDECFD9
:1039F000A6F0DDCFA7F0A6C0F6FFA7C0F7FF000E28
:103A0000F86E0800F5CFA5F012EF1DF0A64BA72B1E
:103A10002BEF1DF06C0EA56F2BEF1DF0000EA56FA8
:103A20002BEF1DF0A5519B6F9C6B9C51000AD8B4E5
:103A30001CEF1DF00EEF1DF09B514C0AD8B406EFA1
:103A40001DF02A0AD8B40AEF1DF00A0AD8B406EF0E
:103A50001DF00EEF1DF0A6C0F6FFA7C0F7FF000E89
:103A6000F86E0800F550660AD8A439EF1DF03BEF58
:103A70001DF0C7EF1DF071EF1DF099C0D9FF9AC07E
:103A8000DAFFDFCF9BF0040EDE26DFCF9CF0000EC6
:103A9000DD229BC0D9FF9CC0DAFFDECF9DF0DECFD8
:103AA0009EF0DECF9FF0DECFA0F086EF1DF099C034
:103AB000D9FF9AC0DAFFDFCF9BF0040EDE26DFCFFE
:103AC0009CF0000EDD229BC0D9FF9CC0DAFFDECF48
:103AD0009DF0DECF9EF0DECF9FF0DECFA0F086EF30
:103AE0001DF0A5519B6F9C6B9C51000AD8B47BEFD5
:103AF0001DF086EF1DF09B514C0AD8B457EF1DF016
:103B0000200AD8B43DEF1DF086EF1DF0010EA6256A
:103B10009B6F000EA7219C6F97C0D9FF98C0DAFF5A
:103B20009BC0DEFF9CC0DDFFAFEF1DF095C060F0D5
:103B300096C061F09DC062F09EC063F09FC064F0CB
:103B4000A0C065F0A6C0F6FFA7C0F7FF000EF86E94
:103B50000800F5CF66F097EC0CF0E6EF1DF0A6C07C
:103B6000F6FFA7C0F7FF000EF86E0800F5509B6F38
:103B70009C6B9C51000AD8B4C0EF1DF0C7EF1DF03C
:103B80009B51660AD8B496EF1DF0C7EF1DF097C0A1
:103B9000D9FF98C0DAFFDE2A000EDD22E6EF1DF025
:103BA00097C0D9FF98C0DAFFDECFF6FFDDCFF7FF71
:103BB000000EF86E0800F550016E026A95C003F021
:103BC00096C004F0FFEC26F0C7EF1DF012007CC198
:103BD0002BF07DC12CF02CBEF2EF1DF0F0EF1DF0AC
:103BE000F4EF1DF03CEF1FF0C50E146E010E156EC4
:103BF000BC0E166E010E176ED8902B34D96E2C3475
:103C0000DA6E2650D9262750DA22DECF18F0DDCF23
:103C100019F01AEC28F02B502424286E2C50252063
:103C2000296EFF0E2824D96EFF0E2920DA6EDE04DD
:103C3000D8A41DEF1EF01FEF1EF035EF1EF0C50ECD
:103C40001A6E010E1B6EBC0E1C6E010E1D6E5CEC1E
:103C50002CF0C50E206E010E216EBC0E226E010EE0
:103C6000236EB4EC2FF037EF1FF02B502424286E76
:103C70002C502520296EFF0E2824D96EFF0E2920F6
:103C8000DA6E020EDE18D8A448EF1EF04AEF1EF0DE
:103C900060EF1EF0C50E1A6E010E1B6EBC0E1C6E80
:103CA000010E1D6E5CEC2CF0C50E206E010E216E17
:103CB000BC0E226E010E236E33EC2DF037EF1FF099
:103CC0002B502424286E2C502520296EFF0E2824EA
:103CD000D96EFF0E2920DA6E030EDE18D8A473EF1A
:103CE0001EF075EF1EF08BEF1EF0C50E1A6E010E62
:103CF0001B6EBC0E1C6E010E1D6E5CEC2CF0C50E16
:103D0000206E010E216EBC0E226E010E236E64EC3D
:103D100027F037EF1FF02B502424286E2C5025203D
:103D2000296EFF0E2824D96EFF0E2920DA6E040EAC
:103D3000DE18D8A49EEF1EF0A0EF1EF0B6EF1EF026
:103D4000C50E1A6E010E1B6EBC0E1C6E010E1D6E92
:103D50005CEC2CF0C50E206E010E216EBC0E226EA6
:103D6000010E236E6EEC2BF037EF1FF02B50242446
:103D7000286E2C502520296EFF0E2824D96EFF0EA8
:103D80002920DA6E050EDE18D8A4C9EF1EF0CBEF9D
:103D90001EF0E1EF1EF0C50E1A6E010E1B6EBC0E7A
:103DA0001C6E010E1D6E5CEC2CF0C50E206E010E1B
:103DB000216EBC0E226E010E236E95EC2FF037EFB4
:103DC0001FF02B502424286E2C502520296EFF0E26
:103DD0002824D96EFF0E2920DA6E060EDE18D8A42C
:103DE000F4EF1EF0F6EF1EF00CEF1FF0C50E1A6E8A
:103DF000010E1B6EBC0E1C6E010E1D6E5CEC2CF0D9
:103E0000C50E206E010E216EBC0E226E010E236EB9
:103E10000AEC2DF037EF1FF02B502424286E2C5085
:103E20002520296EFF0E2824D96EFF0E2920DA6E78
:103E3000070EDE18D8A41FEF1FF021EF1FF037EF99
:103E40001FF0C50E1A6E010E1B6EBC0E1C6E010E0D
:103E50001D6E5CEC2CF0C50E206E010E216EBC0EAA
:103E6000226E010E236EBFEC27F037EF1FF02B06FA
:103E7000D8A02C06EBEF1DF012001EC034F01FC0BE
:103E800035F020C036F021C037F022C038F023C012
:103E900039F024C03AF025C03BF03BBE52EF1FF092
:103EA00055EF1FF0010E56EF1FF0000E3E6E3E5014
:103EB000D8B45DEF1FF05FEF1FF06FEF1FF03B1EF8
:103EC0003A1E391E381E371E361E351E346C000E43
:103ED000352236223722382239223A223B2200016B
:103EE000F0BF7DEF1FF0F05106E1EF05D8B07BEF9A
:103EF0001FF07DEF1FF083EF1FF0000E316E010EFB
:103F0000306E87EF1FF0EFC030F0F0C031F0EDC041
:103F100032F0EEC033F03E50D8B491EF1FF093EF83
:103F20001FF0AAEF1FF03206D8A033063E50D8A4E7
:103F30009CEF1FF09EEF1FF0A4EF1FF0000E2F6EFE
:103F40002B0E2E6EA8EF1FF0000E2F6E2D0E2E6E74
:103F50002EC03EF0000E3D6E4F0E3C6E000E020174
:103F6000EF6F2FEF20F03C06D8A03D06A00E3C24BA
:103F7000D96E020E3D20DA6E34C001F035C002F079
:103F800036C003F037C004F038C005F039C006F081
:103F90003AC007F03BC008F00A0E096E000E0A6E28
:103FA000000E0B6E000E0C6E000E0D6E000E0E6EEF
:103FB000000E0F6E000E106EC9EC24F001C026F04A
:103FC00002C027F003C028F004C029F005C02AF081
:103FD00006C02BF007C02CF008C02DF026C013F04F
:103FE00027C014F075EC2FF01350300FDF6E300641
:103FF000D8A031063206D8A0330634C001F035C04F
:1040000002F036C003F037C004F038C005F039C004
:1040100006F03AC007F03BC008F00A0E096E000E29
:104020000A6E000E0B6E000E0C6E000E0D6E000E72
:104030000E6E000E0F6E000E106E4FEC23F001C0DE
:1040400034F002C035F003C036F004C037F005C0CC
:1040500038F006C039F007C03AF008C03BF03DBE6A
:104060003AEF20F03D5008E13C04D8A03AEF20F0B0
:104070003CEF20F058EF20F0345035103610371058
:10408000381039103A103B10D8A449EF20F04BEF0C
:1040900020F0B3EF1FF031BE58EF20F0315006E1B1
:1040A0003004D8B056EF20F058EF20F0B3EF1FF0F7
:1040B0003E50D8B45EEF20F060EF20F06BEF20F0C0
:1040C0003C06D8A03D06A00E3C24D96E020E3D2031
:1040D000DA6E3EC0DFFF1CC011F01DC012F0A00E52
:1040E0003C24136E020E3D20146E32C015F033C016
:1040F00016F0C4EC2AF01200E5C05BF0E6C05CF0FC
:10410000E7C05DF0E8C05EF04BC05BF04CC05CF017
:104110004DC05DF04EC05EF0810E4F6EFF0E506ED2
:104120005BC051F05CC052F05DC053F05EC054F013
:10413000180EA0EF20F0D890543253325232513240
:10414000E82E9BEF20F051504F24596E000E502066
:104150005A6E5ABEB5EF20F05A5009E1170E595C5D
:10416000D8A0B5EF20F0B7EF20F0C1EF20F04BC0A2
:104170004BF04CC04CF04DC04DF04EC04EF084EFB3
:1041800021F05ABEC6EF20F0C8EF20F038EF21F042
:1041900059C04FF0FF0E506EFF0E516E7F0E526EE3
:1041A000000E536E4F66D7EF20F0DFEF20F0533450
:1041B00053325232513250324F2ED2EF20F050C093
:1041C00055F051C056F052C057F053C058F05550FA
:1041D0005B144F6E56505C14506E57505D14516E08
:1041E00058505E14526E4F50501051105210D8A4B7
:1041F000FCEF20F0FEEF20F000EF21F0B7EF20F011
:104200005BC04FF05CC050F05DC051F05EC052F03A
:10421000200E10EF21F0D8905232513250324F32EE
:10422000E82E0BEF21F04F50501051105210D8B41F
:104230001CEF21F01EEF21F026EF21F055505B26F8
:1042400056505C2257505D2258505E22551C4F6ECE
:10425000561C506E571C516E581C526E4F505B16B8
:1042600050505C1651505D1652505E167CEF21F096
:104270005BC04FF05CC050F05DC051F05EC052F0CA
:10428000200E48EF21F0D8905232513250324F3246
:10429000E82E43EF21F04F50501051105210D8A487
:1042A00054EF21F056EF21F060EF21F0000E5B6E2D
:1042B000000E5C6E000E5D6E000E5E6E7CEF21F0F7
:1042C000D8905B344F6E5C34506E5D34516E5E340A
:1042D000526E4F50501051105210D8B472EF21F05E
:1042E00074EF21F07CEF21F0000E5B6E000E5C6E2F
:1042F000800E5D6EBF0E5E6E5BC04BF05CC04CF01E
:104300005DC04DF05EC04EF012007E80520E256EF4
:104310002B0E246E000EE82EFED7242EFCD7252E61
:10432000FAD700D04CEF22F07C86C50E1A6E010E33
:104330001B6EBC0E1C6E010E1D6EC6EC2EF0C50E63
:104340001A6E010E1B6EBC0E1C6E010E1D6EC6ECAD
:104350002EF0C50E1A6E010E1B6EBC0E1C6E010EE9
:104360001D6EC6EC2EF0C50E1A6E010E1B6EBC0E35
:104370001C6E010E1D6EC6EC2EF031EF22F07C8813
:10438000A30E256E570E246E020EE82EFED7242EA5
:10439000FCD7252EFAD700D08EA4D1EF21F0D4EF90
:1043A00021F0010ED5EF21F0000E246E8EA6DBEF7A
:1043B00021F0DEEF21F0010EDFEF21F0000E2414DA
:1043C000E8A0E5EF21F0E7EF21F0F9EF21F080869A
:1043D0007C8E520E256E2B0E246E000EE82EFED71C
:1043E000242EFCD7252EFAD700D080967C9E31EF64
:1043F00022F08EB6FEEF21F000EF22F015EF22F052
:104400000A0E0001F927000EFA238086520E256E4F
:104410002B0E246E000EE82EFED7242EFCD7252E60
:10442000FAD700D0809631EF22F08EB41AEF22F046
:104430001CEF22F031EF22F00001F60EF927FF0EFB
:10444000FA237C8E520E256E2B0E246E000EE82E63
:10445000FED7242EFCD7252EFAD700D07C9E31EF34
:1044600022F08EA436EF22F038EF22F03FEF22F058
:104470008EB63DEF22F03FEF22F0BFEF21F07C98A7
:10448000A30E256E570E246E020EE82EFED7242EA4
:10449000FCD7252EFAD700D08EA651EF22F054EF8C
:1044A00022F0010E55EF22F0000E246E8EA45BEF79
:1044B00022F05EEF22F0010E5FEF22F0000E2414D6
:1044C000E8A065EF22F067EF22F094EF21F07C96F0
:1044D000A30E256E570E246E020EE82EFED7242E54
:1044E000FCD7252EFAD700D01200096E0950D8B497
:1044F0007CEF22F07EEF22F0A0EF22F004BE85EFE9
:1045000022F083EF22F0A0EF22F001C005F002C0FC
:1045100006F003C007F004C008F0051E061E071EC3
:10452000081E052A000E06220722082205C00BF0ED
:1045300006C00CF007C00DF008C00EF0A8EF22F086
:1045400001C00BF002C00CF003C00DF004C00EF06F
:104550000150021003100410D8A4B1EF22F0B3EF01
:1045600022F0BDEF22F0000E016E000E026E000E72
:10457000036E000E046E4EEF23F0960E0A6EC7EF28
:1045800022F00A2AD8900E320D320C320B32000E75
:104590000B14056E000E0C14066E000E0D14076E43
:1045A000FE0E0E14086E0550061007100810D8A451
:1045B000DCEF22F0DEEF22F0C1EF22F0ECEF22F090
:1045C0000A2A010E0B26000E0C220D220E22D89074
:1045D0000E320D320C320B32000E0B14056E000E33
:1045E0000C14066E000E0D14076EFF0E0E14086EEE
:1045F0000550061007100810D8A401EF23F003EFB0
:1046000023F0E0EF22F00BEF23F00A06D8900B36F0
:104610000C360D360E360DBE10EF23F012EF23F0E0
:104620001AEF23F0020E0A6018EF23F01AEF23F0BE
:1046300005EF23F00AB01FEF23F021EF23F022EF64
:1046400023F00D9ED8900A320AC005F0066A076A68
:10465000086A05C008F0076A066A056A05500B1269
:1046600006500C1207500D1208500E120950D8B403
:104670003CEF23F03EEF23F046EF23F004BE45EF7E
:1046800023F043EF23F046EF23F00E8E0BC001F032
:104690000CC002F00DC003F00EC004F01200000EBA
:1046A000126E10BE58EF23F056EF23F06AEF23F09E
:1046B000101E0F1E0E1E0D1E0C1E0B1E0A1E096C58
:1046C000000E0A220B220C220D220E220F22102293
:1046D000010E126E08BE71EF23F06FEF23F083EF2F
:1046E00023F0081E071E061E051E041E031E021EC2
:1046F000016C000E02220322042205220622072258
:104700000822010E121A20EE13F0070EDE6AE806E8
:10471000FDE209500A100B100C100D100E100F10B6
:104720001010D8B496EF23F098EF23F0EAEF23F0BF
:10473000010E116EA6EF23F0D89009360A360B361B
:104740000C360D360E360F361036112A10AEABEF82
:1047500023F0ADEF23F09CEF23F0D89013361436FE
:10476000153616361736183619361A360950015CC2
:104770000A5002580B5003580C5004580D5005585D
:104780000E5006580F50075810500858D8A0CBEFBD
:1047900023F0CDEF23F0DEEF23F00950015E0A5045
:1047A000025A0B50035A0C50045A0D50055A0E5021
:1047B000065A0F50075A1050085A1380D8901032DA
:1047C0000F320E320D320C320B320A320932112EF8
:1047D000ADEF23F01250D8B4F0EF23F0F2EF23F056
:1047E00002EF24F01A1E191E181E171E161E151E83
:1047F000141E136C000E14221522162217221822E2
:1048000019221A2213C001F014C002F015C003F0DF
:1048100016C004F017C005F018C006F019C007F064
:104820001AC008F0120020EE02F00E50D9260F50E8
:10483000DA22DF50D8B41FEF24F021EF24F055EF37
:1048400024F00EC0D9FF0FC0DAFFDF50106E1050F9
:10485000016E026A20EE03F00E50D9260F50DA22C4
:10486000DECF03F0DDCF04F07AEC30F001C007F0CA
:1048700002C008F0000E0A6E640E096E01EC2BF007
:1048800020EE03F00E50D9260F50DA22DF50116EC1
:104890000750115C126E20EE03F00E50D9260F5017
:1048A000DA22DF50136E78EF24F0000E126E0EC085
:1048B000D9FF0FC0DAFFDF50106E1050016E026A90
:1048C00020EE03F00E50D9260F50DA22DECF03F08F
:1048D000DDCF04F07AEC30F001C007F002C008F040
:1048E000000E0A6E640E096E01EC2BF00750136E79
:1048F00020EE01F00E50D9260F50DA22DF50D8B446
:1049000084EF24F086EF24F0A8EF24F020EE05F0E9
:104910000E50D9260F50DA22DECF10F0DDCF11F085
:1049200010C0D9FF11C0DAFF12C0DFFF20EE07F080
:104930000E50D9260F50DA22DECF10F0DDCF11F065
:1049400010C0D9FF11C0DAFF13C0DFFFC8EF24F099
:1049500020EE05F00E50D9260F50DA22DECF10F0EF
:10496000DDCF11F010C0D9FF11C0DAFF13C0DFFF97
:1049700020EE07F00E50D9260F50DA22DECF10F0CD
:10498000DDCF11F010C0D9FF11C0DAFF12C0DFFF78
:104990001200000E126E08BED2EF24F0D0EF24F009
:1049A000E4EF24F0081E071E061E051E041E031E4B
:1049B000021E016C000E022203220422052206229E
:1049C00007220822010E126E10BEEBEF24F0E9EF71
:1049D00024F0FBEF24F0101E0F1E0E1E0D1E0C1EE9
:1049E0000B1E0A1E096C000E0A220B220C220D223D
:1049F0000E220F22102209500A100B100C100D105D
:104A00000E100F101010D8B408EF25F00AEF25F0A3
:104A100052EF25F0010E116E18EF25F0D8900936EF
:104A20000A360B360C360D360E360F361036112A76
:104A300010AE1DEF25F01FEF25F00EEF25F0095009
:104A4000015C0A5002580B5003580C5004580D508A
:104A500005580E5006580F50075810500858D8A047
:104A600034EF25F036EF25F046EF25F00950015ED2
:104A70000A50025A0B50035A0C50045A0D50055A52
:104A80000E50065A0F50075A1050085AD89010323C
:104A90000F320E320D320C320B320A320932112E25
:104AA0001FEF25F01250D8B458EF25F05AEF25F03B
:104AB0006AEF25F0081E071E061E051E041E031EB3
:104AC000021E016C000E022203220422052206228D
:104AD0000722082201C001F002C002F003C003F067
:104AE00004C004F005C005F006C006F007C007F0DA
:104AF00008C008F01200033404340A6E0A50D8A427
:104B000084EF25F086EF25F090EF25F0000E016E82
:104B1000000E026E000E036E000E046EFDEF25F017
:104B200001C005F002C006F003C007F004C008F0A1
:104B3000200EA0EF25F0D890083207320632053259
:104B4000E82E9BEF25F00550096E038EFF0E01162F
:104B5000FF0E0216FF0E0316000E0416960E0A5ED6
:104B60000ABEB7EF25F0B5EF25F0CDEF25F00A50DE
:104B7000800A970FD8B0BFEF25F0C1EF25F0C3EF43
:104B800025F086EF25F0D89004320332023201324C
:104B90000A3EC3EF25F0E5EF25F01F0E0A64D3EFC0
:104BA00025F0D5EF25F0DDEF25F086EF25F0D89044
:104BB00001360236033604360A060A50D8A4E3EF5B
:104BC00025F0E5EF25F0D7EF25F00950D8B4EBEF4D
:104BD00025F0EDEF25F0F5EF25F0041E031E021E73
:104BE000016C000E02220322042201C001F002C067
:104BF00002F003C003F004C004F01200000E2A14F7
:104C0000326E000E2B14336E800E2C14346E7F0E19
:104C10002D14356E3250331034103510D8A413EFE4
:104C200026F015EF26F01DEF26F0000E2A6E000E7E
:104C30002B6E000E2C6E000E2D6E000E2E14326E9A
:104C4000000E2F14336E800E3014346E7F0E31142C
:104C5000356E3250331034103510D8A432EF26F0B0
:104C600034EF26F03CEF26F0000E2E6E000E2F6E75
:104C7000000E306E000E316E2DAE41EF26F043EF88
:104C800026F04CEF26F02A6C2B1ED8B02B2A2C1EB7
:104C9000D8B02C2A800E2D5631AE51EF26F053EFAE
:104CA00026F05CEF26F02E6C2F1ED8B02F2A301E77
:104CB000D8B0302A800E3156000E2A1A000E2B1A58
:104CC000000E2C1A800E2D1A000E2E1A000E2F1A0E
:104CD000000E301A800E311A2E502A5C2F502B589D
:104CE00030502C5831502D58D8B079EF26F07BEF4A
:104CF00026F07EEF26F0D8907FEF26F0D8801200C5
:104D0000E9C00BF0EAC00CF0EBC00DF0ECC00EF007
:104D100001C00BF002C00CF003C00DF004C00EF097
:104D20000BC005F00CC006F00DC007F00EC008F077
:104D3000180EA0EF26F0D89008320732063205325E
:104D4000E82E9BEF26F00550096E0A6A09500A10FA
:104D5000D8A4ADEF26F0AFEF26F0CFEF26F0D89035
:104D60000B34056E0C34066E0D34076E0E34086E6F
:104D70000550061007100810D8A4C1EF26F0C3EFA5
:104D800026F0C9EF26F0000E026E020E016EFEEF55
:104D900026F0000E026E030E016EFEEF26F00928CB
:104DA0000A10D8A4D6EF26F0D8EF26F0FAEF26F0B6
:104DB0000BC005F00CC006F00DC007F00EC008F0E7
:104DC000090ED8900536063607360836E82EE1EF8C
:104DD00026F00550061007100810D8B4F2EF26F0A0
:104DE000F5EF26F0010EF6EF26F0000E016E026AD6
:104DF000FEEF26F0000E026E040E016E120003504C
:104E00000410D8B406EF27F008EF27F011EF27F0D1
:104E100003500410D8A40FEF27F011EF27F016EF7E
:104E200027F00150E2EC30F063EF27F020EE09F0BC
:104E30000350D9260450DA22DE50DE10D8B423EF16
:104E400027F025EF27F040EF27F020EE09F0035080
:104E5000D9260450DA2210EE03F00350E126045064
:104E6000E222DE50E65CE650800A096EDE50800ADF
:104E70000958D8B03EEF27F040EF27F063EF27F056
:104E800020EE03F00350D9260450DA22DECF05F0DD
:104E9000DDCF06F003C0D9FF04C0DAFFDECF07F094
:104EA000DDCF08F005500724D96E06500820DA6ED1
:104EB00001C0DFFF20EE03F00350D9260450DA22B0
:104EC000DE2A000EDD221200C50E1A6E010E1B6EC8
:104ED000BC0E1C6E010E1D6E5CEC2CF0C50E1A6E25
:104EE000010E1B6EBC0E1C6E010E1D6E9FEC2EF093
:104EF000C50E1A6E010E1B6EBC0E1C6E010E1D6ED1
:104F00009FEC2EF0C50E1A6E010E1B6EBC0E1C6EB1
:104F1000010E1D6E02EC2CF0C50E1A6E010E1B6EFA
:104F2000BC0E1C6E010E1D6E5CEC2CF0C50E1A6ED4
:104F3000010E1B6EBC0E1C6E010E1D6E9FEC2EF042
:104F4000C50E1A6E010E1B6EBC0E1C6E010E1D6E80
:104F50009FEC2EF0C50E1A6E010E1B6EBC0E1C6E61
:104F6000010E1D6E9FEC2EF0C50E1A6E010E1B6E0B
:104F7000BC0E1C6E010E1D6E9FEC2EF01200C50EB5
:104F80001A6E010E1B6EBC0E1C6E010E1D6E5CECCB
:104F90002CF0C50E1A6E010E1B6EBC0E1C6E010E9F
:104FA0001D6EC6EC2EF0C50E1A6E010E1B6EBC0EE9
:104FB0001C6E010E1D6EC6EC2EF0C50E1A6E010E93
:104FC0001B6EBC0E1C6E010E1D6E02EC2CF0C50E8D
:104FD0001A6E010E1B6EBC0E1C6E010E1D6E5CEC7B
:104FE0002CF0C50E1A6E010E1B6EBC0E1C6E010E4F
:104FF0001D6EC6EC2EF0C50E1A6E010E1B6EBC0E99
:105000001C6E010E1D6EC6EC2EF0C50E1A6E010E42
:105010001B6EBC0E1C6E010E1D6EC6EC2EF0C50E76
:105020001A6E010E1B6EBC0E1C6E010E1D6EC6ECC0
:105030002EF0120020EE01F01450D9261550DA227D
:10504000010EDF6E20EE01F01650D9261750DA223D
:10505000010EDF6E50EF28F014C0D9FF15C0DAFF43
:105060000A0EDF2616C0D9FF17C0DAFF0A0EDF26A8
:1050700014C00EF015C00FF013EC24F016C00EF0A3
:1050800017C00FF013EC24F0020E1B6EA00E1A6E68
:10509000920EE82EFED71A2EFCD71B2EFAD700D080
:1050A00014C0D9FF15C0DAFF1E0EDF605AEF28F0DA
:1050B0005CEF28F068EF28F016C0D9FF17C0DAFFC0
:1050C0001D0EDF6466EF28F068EF28F02CEF28F063
:1050D00018C001F019C002F0EFEC2FF01200000E22
:1050E00032143A6E000E33143B6E800E34143C6E54
:1050F0007F0E35143D6E3A503B103C103D10D8A445
:1051000084EF28F086EF28F08EEF28F0000E326E44
:10511000000E336E000E346E000E356E000E361427
:105120003A6E000E37143B6E800E38143C6E7F0EC4
:1051300039143D6E3A503B103C103D10D8A4A3EFFB
:1051400028F0A5EF28F0ADEF28F0000E366E000E27
:10515000376E000E386E000E396E365032180FE181
:10516000375033180CE13850341809E139503518EC
:10517000D8B4BDEF28F0BFEF28F0C2EF28F0D890E8
:10518000C3EF28F0D880120020EE01F01450D92689
:105190001550DA22010EDF6E20EE01F01650D926EE
:1051A0001750DA22000EDF6EFAEF28F014C0D9FF94
:1051B00015C0DAFF0A0EDF2616C0D9FF17C0DAFFC6
:1051C0000A0EDF2614C00EF015C00FF013EC24F009
:1051D00016C00EF017C00FF013EC24F0020E196E7B
:1051E000A00E186E920EE82EFED7182EFCD7192EA0
:1051F000FAD700D014C0D9FF15C0DAFF1E0EDF6049
:1052000004EF29F006EF29F012EF29F016C0D9FFBC
:1052100017C0DAFF1D0EDF6410EF29F012EF29F03E
:10522000D6EF28F0120020EE01F01450D9261550C8
:10523000DA22000EDF6E20EE01F01650D92617504C
:10524000DA22010EDF6E49EF29F014C0D9FF15C034
:10525000DAFF0A0EDF2616C0D9FF17C0DAFF0A0EE2
:10526000DF2614C00EF015C00FF013EC24F016C0AA
:105270000EF017C00FF013EC24F0020E196EA00E02
:10528000186E920EE82EFED7182EFCD7192EFAD7DC
:1052900000D014C0D9FF15C0DAFF1E0EDF6053EF37
:1052A00029F055EF29F061EF29F016C0D9FF17C09A
:1052B000DAFF1D0EDF645FEF29F061EF29F025EFC3
:1052C00029F0120020EE01F01450D9261550DA22F0
:1052D000000EDF6E20EE01F01650D9261750DA22AC
:1052E000000EDF6E98EF29F014C0D9FF15C0DAFF69
:1052F0000A0EDF2616C0D9FF17C0DAFF0A0EDF2616
:1053000014C00EF015C00FF013EC24F016C00EF010
:1053100017C00FF013EC24F0020E196EA00E186ED9
:10532000920EE82EFED7182EFCD7192EFAD700D0F1
:1053300014C0D9FF15C0DAFF1E0EDF60A2EF29F0FE
:10534000A4EF29F0B0EF29F016C0D9FF17C0DAFF9B
:105350001D0EDF64AEEF29F0B0EF29F074EF29F0F5
:10536000120020EE01F01450D9261550DA22010E59
:10537000DF6E20EE01F01650D9261750DA22010E0A
:10538000DF6EE7EF29F014C0D9FF15C0DAFF0A0E6F
:10539000DF2616C0D9FF17C0DAFF0A0EDF2614C0B9
:1053A0000EF015C00FF013EC24F016C00EF017C06D
:1053B0000FF013EC24F0020E196EA00E186E920E70
:1053C000E82EFED7182EFCD7192EFAD700D014C01D
:1053D000D9FF15C0DAFF1E0EDF60F1EF29F0F3EF01
:1053E00029F0FFEF29F016C0D9FF17C0DAFF1D0E14
:1053F000DF64FDEF29F0FFEF29F0C3EF29F0120081
:10540000050E0E01746F060E766F070E696F080E9B
:10541000886F85948598839E879CBD508F0B30093B
:10542000BD6EE00EBE16BF50F00B0109BF6E01C08D
:10543000BCFFBD8E000EAA6E000EA66E000E0F0100
:10544000256F000E216FFC0EAD16F30EAD16CF0EBC
:10545000AD163F0EAD16AB88AB50F00B0C09AB6E22
:10546000AB8EA788A750F00B0C09A76EA78E2689D4
:105470002651F00B0C09266F268F22892251F00B42
:105480000C09226F228F12001AC014F01BC015F0F5
:105490001CC016F01DC017F062EC29F0290E1F6E1B
:1054A000960E1E6E7F0EE82EFED71E2EFCD71F2EE8
:1054B000FAD700F0C50E146E010E156EBC0E166EF6
:1054C000010E176E85EC2AF01AC014F01BC015F0FF
:1054D0001CC016F01DC017F0B1EC29F0290E1F6E8C
:1054E000960E1E6E7F0EE82EFED71E2EFCD71F2EA8
:1054F000FAD700F0C50E146E010E156EBC0E166EB6
:10550000010E176E85EC2AF01200ABEF2AF014C0E2
:10551000D9FF15C0DAFF0A0EDF5E16C0D9FF17C02B
:10552000DAFF0A0EDF5E14C00EF015C00FF013ECA8
:1055300024F016C00EF017C00FF013EC24F0020E8A
:10554000196EA00E186E920EE82EFED7182EFCD7FC
:10555000192EFAD700D014C0D9FF15C0DAFFDF50DA
:10556000D8A4B5EF2AF0B7EF2AF087EF2AF016C0DB
:10557000D9FF17C0DAFFDF50D8A4C1EF2AF0C3EF7C
:105580002AF087EF2AF0120016BEC9EF2AF0CBEFFF
:105590002AF0D1EF2AF015C01AF016C01BF0D5EF93
:1055A0002AF0000E1B6E000E1A6E000E196E000E11
:1055B000186EE7EF2AF0000E026E200E016E11C089
:1055C00003F012C004F0FFEC26F0184A192A1A5012
:1055D000185C1950800A176E1B50800A1758D8A003
:1055E000F4EF2AF0F6EF2AF0DBEF2AF013C00AF00E
:1055F00014C00BF011C00CF012C00DF032EC2FF003
:105600001200000E0C6E000E0B6E09500A10D8B47A
:105610000CEF2BF00EEF2BF036EF2BF0010E0D6E92
:1056200016EF2BF0D89009360A360D2A0AAE1BEF7A
:105630002BF01DEF2BF012EF2BF0D8900B360C3621
:105640000950075C0A500858D8A029EF2BF02BEF1F
:105650002BF030EF2BF00950075E0A50085A0B80F0
:10566000D8900A3209320D2E1DEF2BF00BC007F037
:105670000CC008F0120004BE4AEF2BF004500310D7
:10568000021006E10104D8B048EF2BF04AEF2BF0EE
:1056900065EF2BF001C005F002C006F003C007F073
:1056A00004C008F0051E061E071E081E052A000E6F
:1056B00006220722082205C001F006C002F007C03A
:1056C00003F008C004F06DEF2BF001C001F002C040
:1056D00002F003C003F004C004F01200C50E1A6EFD
:1056E000010E1B6EBC0E1C6E010E1D6E5CEC2CF0D0
:1056F000C50E1A6E010E1B6EBC0E1C6E010E1D6EC9
:105700009FEC2EF0C50E1A6E010E1B6EBC0E1C6EA9
:10571000010E1D6E9FEC2EF0C50E1A6E010E1B6E53
:10572000BC0E1C6E010E1D6E9FEC2EF0C50E1A6E87
:10573000010E1B6EBC0E1C6E010E1D6E9FEC2EF03A
:105740001200C10EF66E610EF76E000EF86E0900C3
:10575000F5CFD6F10900F5CFD7F1BA0EF66E610E8E
:10576000F76E000EF86E00EEF7F010EE07F009008D
:10577000F5CFEEFFE550E150FAE102EE00F0F00E59
:10578000EE6AE806FDE101EE70F0660EEE6AE806EC
:10579000FDE100EED1F0260EEE6AE806FDE15F6A5B
:1057A000000194EF11F027EC2EF00CC0D9FF0DC0D2
:1057B000DAFF05C0DEFF06C0DDFF77EC2EF020EE3D
:1057C00004F00C50D9260D50DA2205C0DEFF06C0C9
:1057D000DDFF4FEC2EF020EE02F00C50D9260D50DC
:1057E000DA2205C0DEFF06C0DDFFFFEC2DF020EE63
:1057F00006F00C50D9260D50DA2205C0DEFF06C097
:10580000DDFF12001AC014F01BC015F01CC016F00A
:105810001DC017F0B1EC29F0A30E1F6E570E1E6EBF
:10582000020EE82EFED71E2EFCD71F2EFAD700D070
:10583000C50E146E010E156EBC0E166E010E176E9F
:1058400085EC2AF0050E1F6E0F0E1E6EF10EE82E6F
:10585000FED71E2EFCD71F2EFAD700F012001AC05A
:1058600014F01BC015F01CC016F01DC017F062EC40
:1058700029F0A30E1F6E570E1E6E020EE82EFED7E5
:105880001E2EFCD71F2EFAD700D0C50E146E010EA7
:10589000156EBC0E166E010E176E85EC2AF0050E05
:1058A0001F6E0F0E1E6EF10EE82EFED71E2EFCD7B9
:1058B0001F2EFAD700F012001AC014F01BC015F00A
:1058C0001CC016F01DC017F062EC29F0110E1F6EFF
:1058D0003C0E1E6ECB0EE82EFED71E2EFCD71F2EC2
:1058E000FAD700F0C50E146E010E156EBC0E166EC2
:1058F000010E176E85EC2AF0050E1F6E0F0E1E6E40
:10590000F10EE82EFED71E2EFCD71F2EFAD700F080
:1059100012001AC014F01BC015F01CC016F01DC0F8
:1059200017F0B1EC29F0520E1F6E2B0E1E6E000EFA
:10593000E82EFED71E2EFCD71F2EFAD700D0C50E9C
:10594000146E010E156EBC0E166E010E176E85ECF0
:105950002AF0050E1F6E0F0E1E6EF10EE82EFED7FA
:105960001E2EFCD71F2EFAD700F01200AAC0AEF0F0
:10597000ABC0AFF0CBEF2CF0A8C095F0A9C096F06B
:10598000AE0E0001976F000E986FACC099F0ADC0DD
:105990009AF064EC1CF0AEC0F6FFAFC0F7FF000E4B
:1059A000F86E0800F5500009D8A4D9EF2CF0DBEF11
:1059B0002CF0BCEF2CF0000E0001A96F000EA86FB8
:1059C0001200B40E0001C26F000EC36FB0C0C4F06D
:1059D000B1C0C5F0000EC86F000EC76F000ECE6FCD
:1059E000000ECD6FC40EA86F000EA96FB2C0AAF052
:1059F000B3C0ABF0C20EAC6F000EAD6FB6EC2CF0C6
:105A00000001C751B025D96EC851B121DA6E000E20
:105A1000DF6E1200C50E1A6E010E1B6EBC0E1C6EE0
:105A2000010E1D6E5CEC2CF0C50E1A6E010E1B6E85
:105A3000BC0E1C6E010E1D6E9FEC2EF0C50E1A6E74
:105A4000010E1B6EBC0E1C6E010E1D6E9FEC2EF027
:105A5000C50E1A6E010E1B6EBC0E1C6E010E1D6E65
:105A60009FEC2EF01200C50E1A6E010E1B6EBC0EBE
:105A70001C6E010E1D6E5CEC2CF0C50E1A6E010E34
:105A80001B6EBC0E1C6E010E1D6EC6EC2EF0C50EFC
:105A90001A6E010E1B6EBC0E1C6E010E1D6EC6EC46
:105AA0002EF0C50E1A6E010E1B6EBC0E1C6E010E82
:105AB0001D6EC6EC2EF012003EEC30F0010E036EAF
:105AC000000E8DEC30F03F0E056E550EE82EFED721
:105AD000052EFCD700F0030E036E000E8DEC30F0A7
:105AE000D50E036E010E8DEC30F0000E036E0F0E1E
:105AF0008DEC30F087928198869E849684987F9270
:105B00007E9E79987C967C981200C50E1A6E010EC6
:105B10001B6EBC0E1C6E010E1D6E5CEC2CF0C50ED7
:105B20001A6E010E1B6EBC0E1C6E010E1D6E2FEC4C
:105B30002CF0C50E1A6E010E1B6EBC0E1C6E010EF3
:105B40001D6E9FEC2EF0C50E1A6E010E1B6EBC0E64
:105B50001C6E010E1D6E9FEC2EF01200C50E1A6E0B
:105B6000010E1B6EBC0E1C6E010E1D6E5CEC2CF04B
:105B7000C50E1A6E010E1B6EBC0E1C6E010E1D6E44
:105B80002FEC2CF0C50E1A6E010E1B6EBC0E1C6E97
:105B9000010E1D6EC6EC2EF0C50E1A6E010E1B6EA8
:105BA000BC0E1C6E010E1D6EC6EC2EF0120003C062
:105BB00009F004C00AF001C007F002C008F0F1EFDC
:105BC0002DF009C0D9FF0AC0DAFFDF500B6E094A79
:105BD0000A2A07C0D9FF08C0DAFF0BC0DFFF074A57
:105BE000082A0506D8A00606052806E10628D8A436
:105BF000FCEF2DF0FEEF2DF0E1EF2DF01200D8ECD0
:105C000030F0520EC8EC30F0B40EC8EC30F0CEECF0
:105C100030F0530EC8EC30F0010E54EC2FF0076E4C
:105C200007500A6E0B6A000E54EC2FF0076E0750F7
:105C3000096E086A0A5008100A6E0B5009100B6EA4
:105C4000D3EC30F00AC005F00BC006F01200D8EC1F
:105C500030F0520EC8EC30F0B60EC8EC30F0CEEC9E
:105C600030F0530EC8EC30F0010E54EC2FF0076EFC
:105C700007500A6E0B6A000E54EC2FF0076E0750A7
:105C8000096E086A0A5008100A6E0B5009100B6E54
:105C9000D3EC30F00AC005F00BC006F01200D8ECCF
:105CA00030F0520EC8EC30F0B80EC8EC30F0CEEC4C
:105CB00030F0530EC8EC30F0010E54EC2FF0076EAC
:105CC00007500A6E0B6A000E54EC2FF0076E075057
:105CD000096E086A0A5008100A6E0B5009100B6E04
:105CE000D3EC30F00AC005F00BC006F01200D8EC7F
:105CF00030F0520EC8EC30F0BA0EC8EC30F0CEECFA
:105D000030F0530EC8EC30F0010E54EC2FF0076E5B
:105D100007500A6E0B6A000E54EC2FF0076E075006
:105D2000096E086A0A5008100A6E0B5009100B6EB3
:105D3000D3EC30F00AC005F00BC006F012001AC018
:105D400014F01BC015F01CC016F01DC017F0C4ECF9
:105D500028F0F9C001F0FAC002F00BEC30F0C50EEB
:105D6000146E010E156EBC0E166E010E176E85ECCC
:105D70002AF0050E1F6E0F0E1E6EF10EE82EFED7D6
:105D80001E2EFCD71F2EFAD700F012001AC014F0F6
:105D90001BC015F01CC016F01DC017F013EC29F045
:105DA000F9C001F0FAC002F00BEC30F0C50E146E31
:105DB000010E156EBC0E166E010E176E85EC2AF0E4
:105DC000050E1F6E0F0E1E6EF10EE82EFED71E2E54
:105DD000FCD71F2EFAD700F01200000E2E1A000E6C
:105DE0002F1A000E301A800E311A2AC001F02BC073
:105DF00002F02CC003F02DC004F02EC005F02FC01F
:105E000006F030C007F031C008F08BEC14F001C090
:105E10002AF002C02BF003C02CF004C02DF01200B9
:105E200003C005F004C006F001C007F002C008F08E
:105E300005C0F6FF06C0F7FF054A062A000EF86EF9
:105E400007C0D9FF08C0DAFF074A082A0800F5CFC3
:105E5000DFFFDF50D8A42FEF2FF031EF2FF018EF36
:105E60002FF01200000E106E000E0F6E43EF2FF099
:105E70000EC001F0026A0CC003F00DC004F0FFEC8C
:105E800026F00F4A102A0F500A24D96E10500B200A
:105E9000DA6EDF500E6E0E50D8A451EF2FF053EF94
:105EA0002FF038EF2FF01200036E53EC30F00E019C
:105EB000DA8753EC30F0D5CE04F053EC30F00350D9
:105EC000D8B465EF2FF069EF2FF0026A022A6AEF6B
:105ED0002FF0026A023A02460E01DA510218DF0B75
:105EE0000218DA6FDA890450120014BE82EF2FF024
:105EF000145006E11304D8B080EF2FF082EF2FF09A
:105F000090EF2FF013C015F014C016F0151E161EDA
:105F1000154A162A15C013F016C014F094EF2FF08E
:105F200013C013F014C014F01200C50E1A6E010E47
:105F30001B6EBC0E1C6E010E1D6E5CEC2CF0C50EB3
:105F40001A6E010E1B6EBC0E1C6E010E1D6E9FECB8
:105F50002EF0C50E1A6E010E1B6EBC0E1C6E010ECD
:105F60001D6E9FEC2EF01200C50E1A6E010E1B6EF8
:105F7000BC0E1C6E010E1D6E5CEC2CF0C50E1A6E74
:105F8000010E1B6EBC0E1C6E010E1D6EC6EC2EF0BB
:105F9000C50E1A6E010E1B6EBC0E1C6E010E1D6E20
:105FA000C6EC2EF012000150021003100410D8B4F9
:105FB000DCEF2FF0DEEF2FF0E6EF2FF0000E011AEE
:105FC000000E021A000E031A800E041A01C001F01E
:105FD00002C002F003C003F004C004F01200000E7F
:105FE000056E000E046EFFEF2FF0150E036EC60E49
:105FF000E82EFED7032EFCD700D0044A052A015014
:10600000045C02500558D8A008EF30F00AEF30F0D9
:10601000F5EF2FF0120018EF30F0150E036EC60EDC
:10602000E82EFED7032EFCD700D00106D8A002062A
:1060300002BE25EF30F0025006E10104D8B023EF94
:1060400030F025EF30F00DEF30F0120031EF30F08E
:1060500002C0D9FF03C0DAFFDF50BCEC30F0024AC7
:10606000032A02C0D9FF03C0DAFFDF50D8A43BEFF8
:1060700030F03DEF30F028EF30F012000E01D95132
:10608000F00B0809D96FD98B9F0ED66F848A848C48
:10609000A79BA79D1D0E1D6F1E0E1C6F1C0E6F6F04
:1060A0001B0E706F12000E01D8B559EF30F05BEF88
:1060B00030F053EF30F0DACE01F01F0E0116D8A405
:1060C00064EF30F066EF30F053EF30F01200D35051
:1060D000D450026E016AD89001017C35D96E7D35AD
:1060E000DA6E3C0ED926020EDA2201C0DEFF02C0B3
:1060F000DDFF120001500302F3CF05F0F4CF06F0EC
:1061000001500402F350062602500302F350062603
:1061100005C001F006C002F01200046ED8EC30F0A9
:10612000520EC8EC30F004508009C8EC30F0035037
:10613000C8EC30F0D3EC30F01200D6501F0B400901
:10614000D66ED688D650F00B0E09D66ED588000EC6
:10615000D46E000ED36ED58E1200120E0E01626F39
:10616000110E156FE997E895330EE56F000EE66F97
:10617000E789E88BE78F1200016E0E0137A5C3EFA8
:1061800030F0C5EF30F0BDEF30F001C0E4FE12009A
:10619000026E53EC30F002C0D5FE120053EC30F02A
:1061A0000E01DA83120053EC30F00E01DA85120092
:1061B00053EC30F00E01DA811200D007DC001E0033
:0361C000010100DA
:0461C40012001200B3
:020000040020DA
:10000000FF0FFF0FFF0FFF0FFF0FFF0FFF0FFF0F80
:020000040030CA
:0C000000AAFFFFFF9FFFFFFFFFFFFFFFB5
:00000001FF
