:0400000007EF00F016
:0A0008005F825F92110072EF21F099
:100E0000007265643D256420677265656E3D2564EA
:100E100020626C75653D25642074696D65723D25A1
:100E200064200D0A0000000E0001726F000E736F47
:100E3000000E746F000E756F000E766F500E776F98
:100E4000C30E786F470E796F000E656F040E646FE6
:100E500020EE66F00B0EDE6AE806FDE24BC0D9FF1D
:100E60004CC0DAFFDECF01F0DDCF02F0000E02BE93
:100E7000FF0E036E046E010E34EC1AF001C066F032
:100E800002C067F003C068F004C069F020EE02F011
:100E90004B50D9264C50DA22DECF01F0DDCF02F0E4
:100EA000000E02BEFF0E036E046E010E34EC1AF04B
:100EB00001C06AF002C06BF003C06CF004C06DF0BA
:100EC00020EE04F04B50D9264C50DA22DECF01F050
:100ED000DDCF02F0000E02BEFF0E036E046E010EA7
:100EE00034EC1AF001C06EF002C06FF003C070F075
:100EF00004C071F0000E00017B6F000E7A6F72C0AB
:100F000001F073C002F074C003F075C004F0660E07
:100F10004F6E000E506ED8907A35D96E7B35DA6EF2
:100F2000D890D936DA364F50D9265050DA22DECF53
:100F300005F0DECF06F0DECF07F0DECF08F0E1EC03
:100F40001DF0D8B0A6EF07F0A8EF07F0C5EF07F047
:100F5000660E4F6E000E506ED89000017A35D96E35
:100F60007B35DA6ED890D936DA364F50D9265050C4
:100F7000DA22DECF72F0DECF73F0DECF74F0DECF98
:100F800075F07AC064F07BC065F0660E4F6E000E9F
:100F9000506ED89000017A35D96E7B35DA6ED890D4
:100FA000D936DA364F50D9265050DA22DECF01F04A
:100FB000DECF02F0DECF03F0DECF04F076C005F026
:100FC00077C006F078C007F079C008F0E1EC1DF0BA
:100FD000D8B0EDEF07F0EFEF07F008EF08F0660E7E
:100FE0004F6E000E506ED89000017A35D96E7B3569
:100FF000DA6ED890D936DA364F50D9265050DA22E8
:10100000DECF76F0DECF77F0DECF78F0DECF79F08E
:1010100000017A4B7B2B7BBF17EF08F07B5109E176
:10102000030E7A5DD8A017EF08F019EF08F07FEFF4
:1010300007F076C015F077C016F078C017F079C0C9
:1010400018F072C011F073C012F074C013F075C0C4
:1010500014F048EC25F011C019F012C01AF013C0BA
:101060001BF014C01CF0000E1D6E000E1E6E000E54
:101070001F6E000E206E1DEC1FF0D8A042EF08F08E
:1010800044EF08F04AEF08F0000E4C6E000E4B6E75
:1010900080EF0CF0000164516511D8A452EF08F004
:1010A00054EF08F0C8EF08F076C015F077C016F0DE
:1010B00078C017F079C018F072C011F073C012F048
:1010C00074C013F075C014F048EC25F011C01DF089
:1010D00012C01EF013C01FF014C020F06EC015F037
:1010E0006FC016F070C017F071C018F06AC011F030
:1010F0006BC012F06CC013F06DC014F048EC25F01A
:1011000011C019F012C01AF013C01BF014C01CF06B
:1011100098EC13F019C032F01AC033F01BC034F051
:101120001CC035F0000E366E000E376E700E386E35
:10113000420E396E83EC11F032C07CF033C07DF08A
:1011400034C07EF035C07FF000017FBFACEF08F007
:10115000AAEF08F0A7EF09F07CC001F07DC002F013
:101160007EC003F07FC004F0000E056E000E066E18
:10117000B40E076E430E086E23EC0FF001C07CF036
:1011800002C07DF003C07EF004C07FF0A7EF09F03D
:1011900064056511D8A4CFEF08F0D1EF08F03DEF5A
:1011A00009F076C015F077C016F078C017F079C056
:1011B00018F072C011F073C012F074C013F075C053
:1011C00014F048EC25F011C01DF012C01EF013C041
:1011D0001FF014C020F066C015F067C016F068C09C
:1011E00017F069C018F06EC011F06FC012F070C037
:1011F00013F071C014F048EC25F011C019F012C0C2
:101200001AF013C01BF014C01CF098EC13F019C0B6
:1012100060F01AC061F01BC062F01CC063F0000EE9
:10122000056E000E066E000E076E400E086E60C062
:1012300001F061C002F062C003F063C004F023EC6F
:101240000FF001C032F002C033F003C034F004C02C
:1012500035F0000E366E000E376E700E386E420E90
:10126000396E83EC11F032C07CF033C07DF034C0B5
:101270007EF035C07FF0A7EF09F076C015F077C09B
:1012800016F078C017F079C018F072C011F073C072
:1012900012F074C013F075C014F048EC25F011C0C2
:1012A0001DF012C01EF013C01FF014C020F06AC061
:1012B00015F06BC016F06CC017F06DC018F066C06A
:1012C00011F067C012F068C013F069C014F048EC68
:1012D00025F011C019F012C01AF013C01BF014C091
:1012E0001CF098EC13F019C060F01AC061F01BC03C
:1012F00062F01CC063F0000E056E000E066E800EDC
:10130000076E400E086E60C001F061C002F062C05E
:1013100003F063C004F023EC0FF001C032F002C010
:1013200033F003C034F004C035F0000E366E000E0A
:10133000376E700E386E420E396E83EC11F032C08B
:101340007CF033C07DF034C07EF035C07FF07CC0CF
:1013500001F07DC002F07EC003F07FC004F0000EFB
:10136000056E000E066EA50E076E430E086EE1ECCC
:101370001DF0D8A0BEEF09F0C0EF09F0DFEF09F0D3
:10138000000E016E000E026EB40E036E430E046E6C
:101390007CC005F07DC006F07EC007F07FC008F07D
:1013A000E1EC1DF0D8A0D7EF09F0D9EF09F0DFEF9D
:1013B00009F0000E4C6E010E4B6E80EF0CF07CC0FD
:1013C00001F07DC002F07EC003F07FC004F0000E8B
:1013D000056E000E066EA00E076E400E086EE1EC64
:1013E0001DF0D8A0F6EF09F0F8EF09F017EF0AF0BA
:1013F000000E016E000E026E400E036E410E046E72
:101400007CC005F07DC006F07EC007F07FC008F00C
:10141000E1EC1DF0D8A00FEF0AF011EF0AF017EF82
:101420000AF0000E4C6E020E4B6E80EF0CF07CC08A
:1014300001F07DC002F07EC003F07FC004F0000E1A
:10144000056E000E066EA00E076E410E086EE1ECF2
:101450001DF0D8A02EEF0AF030EF0AF0B0EF0AF03E
:10146000000E016E000E026EE80E036E410E046E59
:101470007CC005F07DC006F07EC007F07FC008F09C
:10148000E1EC1DF0D8A047EF0AF049EF0AF0B0EF09
:101490000AF04DC0D9FF4EC0DAFFDECF01F0DECF3B
:1014A00002F0DECF03F0DECF04F0CD0E056ECC0EE1
:1014B000066E4C0E076E3E0E086EE1EC1DF0D8A0D5
:1014C00064EF0AF066EF0AF085EF0AF0000E016E95
:1014D000000E026E800E036E3E0E046E4DC0D9FFEC
:1014E0004EC0DAFFDECF05F0DECF06F0DECF07F02C
:1014F000DECF08F0E1EC1DF0D8A081EF0AF083EF19
:101500000AF085EF0AF044EF08F020EE08F04D50A5
:10151000D9264E50DA22DECF01F0DECF02F0DECF48
:1015200003F0DECF04F0290E056E5C0E066E0F0E82
:10153000076E3E0E086EE1EC1DF0D8A0A2EF0AF097
:10154000A4EF0AF0AAEF0AF0000E4C6E040E4B6EE8
:1015500080EF0CF0000E4C6E030E4B6E80EF0CF023
:101560007CC001F07DC002F07EC003F07FC004F0BB
:10157000000E056E000E066E340E076E420E086EEB
:10158000E1EC1DF0D8A0C7EF0AF0C9EF0AF02EEF8A
:101590000BF0000E016E000E026EA00E036E420EE6
:1015A000046E7CC005F07DC006F07EC007F07FC0F1
:1015B00008F0E1EC1DF0D8A0E0EF0AF0E2EF0AF04D
:1015C0002EEF0BF020EE08F04D50D9264E50DA22C7
:1015D000DECF01F0DECF02F0DECF03F0DECF04F08D
:1015E0009A0E056E990E066E190E076E3E0E086E67
:1015F000E1EC1DF0D8A0FFEF0AF001EF0BF003EFD4
:101600000BF0A4EF0AF020EE08F04D50D9264E5012
:10161000DA22DECF01F0DECF02F0DECF03F0DECF44
:1016200004F08F0E056EC20E066EF50E076E3D0EAF
:10163000086EE1EC1DF0D8A020EF0BF022EF0BF0CC
:1016400028EF0BF0000E4C6E060E4B6E80EF0CF088
:10165000000E4C6E050E4B6E80EF0CF07CC001F05E
:101660007DC002F07EC003F07FC004F0000E056E66
:10167000000E066EA20E076E420E086EE1EC1DF023
:10168000D8A045EF0BF047EF0BF081EF0BF0000E09
:10169000016E000E026EE60E036E420E046E7CC0FA
:1016A00005F07DC006F07EC007F07FC008F0E1ECD9
:1016B0001DF0D8A05EEF0BF060EF0BF081EF0BF0A8
:1016C00020EE08F04D50D9264E50DA22DECF01F040
:1016D000DECF02F0DECF03F0DECF04F09A0E056E0F
:1016E000990E066E190E076E3E0E086EE1EC1DF0A7
:1016F000D8A07DEF0BF07FEF0BF022EF0BF0A4EF03
:101700000AF07CC001F07DC002F07EC003F07FC013
:1017100004F0000E056E000E066EF00E076E410E10
:10172000086EE1EC1DF0D8A098EF0BF09AEF0BF0EB
:10173000B3EF0BF0000E016E000E026E680E036E2A
:10174000420E046E7CC005F07DC006F07EC007F03E
:101750007FC008F0E1EC1DF0D8B0B1EF0BF0B3EFB3
:101760000BF0A4EF0AF07CC001F07DC002F07EC057
:1017700003F07FC004F0000E056E000E066EF00E42
:10178000076E420E086EE1EC1DF0D8A0CAEF0BF018
:10179000CCEF0BF0E7EF0BF0000E016E000E026EC7
:1017A0005C0E036E430E046E7CC005F07DC006F037
:1017B0007EC007F07FC008F0E1EC1DF0D8A0E3EF99
:1017C0000BF0E5EF0BF0E7EF0BF0A4EF0AF07CC0B5
:1017D00001F07DC002F07EC003F07FC004F0000E77
:1017E000056E000E066E600E076E410E086EE1EC8F
:1017F0001DF0D8A0FEEF0BF000EF0CF07CEF0CF02A
:10180000000E016E000E026E980E036E410E046E05
:101810007CC005F07DC006F07EC007F07FC008F0F8
:10182000E1EC1DF0D8A017EF0CF019EF0CF07CEFF5
:101830000CF04DC0D9FF4EC0DAFFDECF01F0DECF95
:1018400002F0DECF03F0DECF04F0CD0E056ECC0E3D
:10185000066E4C0E076E3E0E086EE1EC1DF0D8A031
:1018600034EF0CF036EF0CF055EF0CF01F0E016E5C
:10187000850E026E6B0E036E3E0E046E4DC0D9FFD8
:101880004EC0DAFFDECF05F0DECF06F0DECF07F088
:10189000DECF08F0E1EC1DF0D8A051EF0CF053EFD3
:1018A0000CF055EF0CF044EF08F020EE08F04D502E
:1018B000D9264E50DA22DECF01F0DECF02F0DECFA5
:1018C00003F0DECF04F09A0E056E990E066E190E27
:1018D000076E3E0E086EE1EC1DF0D8A072EF0CF022
:1018E00074EF0CF076EF0CF0A4EF0AF0000E4C6EE3
:1018F000070E4B6E80EF0CF0000E4C6E0A0E4B6E16
:10190000120008EC27F03EEC27F0B8EC23F099EC3D
:1019100026F0F8EC26F0000E026EC80E016EAEEC5A
:1019200020F087928198869E86840E01B4958686E3
:10193000B4977F8279887E8E7C9E849E80968896DE
:10194000808088907E8086907C8884987C9684961F
:10195000000E0001F36F010EF46F010EF56FAA0E79
:10196000F86F0F0EF96FA60EFA6F0F0EFB6F000ED9
:10197000F76FC80EF66F000E0101C06F010EC16F48
:10198000010EC26F250EC56F0F0EC66F210EC76FF9
:101990000F0EC86F000EC46FC80EC36F000E00019B
:1019A000EB6F000EEA6F000EEF6F000EEE6F000E91
:1019B000E96F010EE86FF069F169F30E206E000E19
:1019C000216EC00E226E010E236E4AEC19F08EA419
:1019D000ECEF0CF0EEEF0CF0E7EF0CF0520E5A6E5D
:1019E0002B0E596E000EE82EFED7592EFCD75A2E1C
:1019F000FAD700D0000ED46E000ED36E17EF0FF0A2
:101A0000F30E146E000E156EC00E166E010E176EDC
:101A10005FEC20F0C90E0C6E010E0D6E5AEC22F038
:101A2000C90E326E010E336EB40E346E010E356E79
:101A300065EC15F00101D0BF27EF0DF0F40ECF5D7E
:101A4000010ED059D8A027EF0DF029EF0DF0F4EFDB
:101A50000EF00001F04BF12BC2EC26F0F30E1A6EE3
:101A6000000E1B6EC00E1C6E010E1D6E10EC23F0DE
:101A7000F30E146E000E156EC00E166E010E176E6C
:101A800033EC21F0110E5A6E3C0E596ECB0EE82E3F
:101A9000FED7592EFCD75A2EFAD700F083EF0DF05F
:101AA000C90E4B6E010E4C6EB40E4D6E010E4E6E95
:101AB00013EC07F04BC0ECF04CC0EDF00001EE5120
:101AC000EC1907E1EF51ED19D8A469EF0DF06BEFB8
:101AD0000DF06FEF0DF0EA4BEB2B73EF0DF0000EF6
:101AE000EB6F000EEA6FECC0EEF0EDC0EFF0050E0C
:101AF0005A6E0F0E596EF10EE82EFED7592EFCD7F6
:101B00005A2EFAD700F00001EBBF90EF0DF0EB5129
:101B100009E1140EEA5DD8A090EF0DF092EF0DF000
:101B200050EF0DF0000EEB6F000EEA6FD3CFE4F034
:101B3000E56B800E606F000E616F010E626F0E0E1E
:101B4000636FC9C164F0CAC165F0CBC166F0CCC196
:101B500067F0CDC168F0CEC169F0D4CF6AF06B6B8D
:101B60003DEC23F0800E026E000E036E81EC26F039
:101B70000001EE05EF11D8A4C0EF0DF0C2EF0DF09B
:101B8000DBEF0DF0F30E206E000E216EC00E226E04
:101B9000010E236E0CEC26F0000ED46E000ED36EF8
:101BA000620E0001F025D96E010EF121DA6E010EF0
:101BB000DF6E17EF0FF0020EEE19EF11D8A4E3EF6E
:101BC0000DF0E5EF0DF0FEEF0DF0F30E206E000EC0
:101BD000216EC00E226E010E236E66EC23F0000E05
:101BE000D46E000ED36E620E0001F025D96E010E88
:101BF000F121DA6E020EDF6E17EF0FF0030EEE1911
:101C0000EF11D8A406EF0EF008EF0EF021EF0EF062
:101C1000F30E206E000E216EC00E226E010E236E9A
:101C2000E1EC23F0000ED46E000ED36E620E0001C4
:101C3000F025D96E010EF121DA6E030EDF6E17EF7B
:101C40000FF0040EEE19EF11D8A429EF0EF02BEFD0
:101C50000EF044EF0EF0F30E206E000E216EC00E5B
:101C6000226E010E236E27EC22F0000ED46E000EC1
:101C7000D36E620E0001F025D96E010EF121DA6EED
:101C8000040EDF6E17EF0FF0050EEE19EF11D8A45A
:101C90004CEF0EF04EEF0EF067EF0EF0F30E206EED
:101CA000000E216EC00E226E010E236E2BEC26F06C
:101CB000000ED46E000ED36E620E0001F025D96EB8
:101CC000010EF121DA6E050EDF6E17EF0FF0060E32
:101CD000EE19EF11D8A46FEF0EF071EF0EF08AEF4E
:101CE0000EF0F30E206E000E216EC00E226E010E5D
:101CF000236E8FEC23F0000ED46E000ED36E620EB6
:101D00000001F025D96E010EF121DA6E060EDF6EAC
:101D100017EF0FF0070EEE19EF11D8A492EF0EF0A7
:101D200094EF0EF0ADEF0EF0F30E206E000E216E6C
:101D3000C00E226E010E236E0AEC24F0000ED46E4B
:101D4000000ED36E620E0001F025D96E010EF12156
:101D5000DA6E070EDF6E17EF0FF00A0EEE19EF11B5
:101D6000D8A4B5EF0EF0B7EF0EF0C3EF0EF0F30E00
:101D70001A6E000E1B6EC00E1C6E010E1D6EF2EC74
:101D800020F017EF0FF0EE51EF11D8A4CAEF0EF0CC
:101D9000CCEF0EF0F2EF0EF0F30E206E000E216E7F
:101DA000C00E226E010E236E27EC22F0D59E620E2D
:101DB000246E010E256E000E266E020E276E3AEC82
:101DC00018F0F30E146E000E156EC00E166E010E96
:101DD000176E33EC21F0000E0001E96F000EE86F82
:101DE00017EF0FF017EF0FF0D3CFE6F00001E76B1E
:101DF000800E606F000E616F010E626F0E0E636FDA
:101E0000C9C164F0CAC165F0CBC166F0CCC167F04E
:101E1000CDC168F0CEC169F0D4CF6AF06B6B3DECF8
:101E200023F0800E026E000E036E81EC26F000019E
:101E3000E851E911D8A41FEF0FF021EF0FF000EFE8
:101E40000DF007EF00F00450800B0D6E04500424D9
:101E50000F6E03AE2EEF0FF030EF0FF031EF0FF0FB
:101E60000F800F50D8B437EF0FF039EF0FF04EEF6F
:101E70000FF00F28D8A43FEF0FF041EF0FF049EF1C
:101E80000FF0000E016E000E026E000E036E000ECB
:101E9000046E038E000E046E56EF0FF0000E016EFE
:101EA000000E026E000E036E000E046E0850800BD2
:101EB0000E6E0D500E18D8B460EF0FF062EF0FF0F9
:101EC00063EF0FF00D8C085008240E6E07AE6BEF19
:101ED0000FF06DEF0FF06EEF0FF00E800E50D8B4D4
:101EE00074EF0FF076EF0FF08BEF0FF00E28D8A401
:101EF0007CEF0FF07EEF0FF086EF0FF0000E056E17
:101F0000000E066E000E076E000E086E078E000EA5
:101F1000086E93EF0FF0000E056E000E066E000EB9
:101F2000076E000E086E0F500E5CD8B09AEF0FF0DF
:101F30009CEF0FF0C3EF0FF00DACA1EF0FF0A3EF8C
:101F40000FF0A5EF0FF0800E0D1A0FC010F00EC0AD
:101F50000FF010C00EF001C010F005C001F010C06D
:101F600005F002C010F006C002F010C006F003C079
:101F700010F007C003F010C007F004C010F008C054
:101F800004F010C008F0000E106E0F500EC009F0E3
:101F90000A6A095E000E0A5A0ABED8EF0FF00A500C
:101FA00009E11A0E095CD8A0D8EF0FF0DAEF0FF0B4
:101FB00011EF10F00150021003100410D8A4E3EF49
:101FC0000FF0E6EF0FF0010EE7EF0FF0000E106ECE
:101FD000000E016E000E026E000E036E000E046E07
:101FE0000EC00FF01AEF10F010A0F9EF0FF0FBEF9A
:101FF0000FF001EF10F0D89010300109106E03EFD0
:1020000010F0D890103201A008EF10F00AEF10F095
:102010000BEF10F0108E043404320332023201321E
:102020000F2A0E500F5CD8A018EF10F01AEF10F026
:10203000F4EF0FF00DBC1FEF10F021EF10F061EF87
:1020400010F00F50D8A427EF10F029EF10F033EF65
:1020500010F0000E016E000E026E000E036E000EF8
:10206000046E82EF11F0055001260650022207503F
:1020700003220850042204A040EF10F042EF10F0B9
:10208000EEEF10F010A047EF10F049EF10F04FEF17
:1020900010F0D89010300109106E51EF10F0D89068
:1020A000103201A056EF10F058EF10F059EF10F079
:1020B000108E043404320332023201320F2AEEEF62
:1020C00010F00550015C06500258075003580450A8
:1020D000800A096E0850800A0958D8B072EF10F0D3
:1020E00074EF10F09FEF10F00150055C096E025084
:1020F00006580A6E035007580B6E045008580C6EB1
:10210000FF0E0924016EFF0E0A20026EFF0E0B2047
:10211000036EFF0E0C20046E800E0D1A106C105012
:10212000D8A495EF10F097EF10F0A7EF10F0010E84
:102130000126000E022203220422A7EF10F0055010
:10214000015E0650025A0750035A0850045A0150C3
:10215000021003100410D8A4B0EF10F0B2EF10F08A
:10216000E7EF10F01050D8A4B8EF10F0BAEF10F06D
:10217000E7EF10F0000E016E000E026E000E036E0F
:10218000000E046E82EF11F0D8900136023603364D
:10219000043610AECEEF10F0D0EF10F0D1EF10F00B
:1021A000018010A0D6EF10F0D8EF10F0DCEF10F0A7
:1021B000D8801036DEEF10F0D89010360F50D8B41B
:1021C000E4EF10F0E6EF10F0E7EF10F00F0603AECB
:1021D000ECEF10F0EEEF10F0C4EF10F0000E0E6E0A
:1021E00010AEF5EF10F0F7EF10F00FEF11F010C098
:1021F00009F07F0E0916D8B400EF11F002EF11F0CC
:1022000006EF11F0010E0E6E0FEF11F001A00BEFB3
:1022100011F00DEF11F00FEF11F002EF11F00E5071
:10222000D8B415EF11F017EF11F042EF11F0010ED5
:102230000126000E02220322042204A022EF11F044
:1022400024EF11F042EF11F001C009F002C00AF0D2
:1022500003C00BF004C00CF00C340C320B320A3209
:10226000093209C001F00AC002F00BC003F00CC033
:1022700004F00F28D8B43FEF11F041EF11F042EF16
:1022800011F00F2A0F28D8B448EF11F04AEF11F0DF
:1022900052EF11F00F50D8A450EF11F052EF11F09F
:1022A00064EF11F0000E016E000E026E000E036E60
:1022B000000E046E0F50D8A460EF11F062EF11F021
:1022C00064EF11F0000E0D6E0FA069EF11F06BEFCF
:1022D00011F06EEF11F0038E6FEF11F0039ED890A6
:1022E0000F30046E0DAE77EF11F079EF11F07AEF49
:1022F00011F0048E01C001F002C002F003C003F02F
:1023000004C004F012003550800B3E6E3550352469
:10231000446E34AE8EEF11F090EF11F091EF11F0AA
:1023200044804450D8B497EF11F099EF11F0ACEF1E
:1023300011F04428D8A49FEF11F0A1EF11F0A9EFFC
:1023400011F0000E326E000E336E000E346E000E71
:10235000356E348EB4EF11F0000E326E000E336E17
:10236000000E346E000E356E3950800B3E1A395017
:102370003924436E38AEBFEF11F0C1EF11F0C2EF58
:1023800011F043804350D8B4C8EF11F0CAEF11F0F8
:10239000DDEF11F04328D8A4D0EF11F0D2EF11F007
:1023A000DAEF11F0000E366E000E376E000E386E4A
:1023B000000E396E388EE5EF11F0000E366E000E0D
:1023C000376E000E386E000E396E4350D8B4EBEF06
:1023D00011F0EDEF11F0F5EF11F04450D8A4F3EF48
:1023E00011F0F5EF11F0FFEF11F0000E326E000E5C
:1023F000336E000E346E000E356E97EF13F03850CA
:102400003202F3CF49F0F4CF4AF049503F6E406AB0
:10241000416A426A4A50456E466A476A486A37507E
:102420003302F3CF49F0F4CF4AF049503F26000E73
:102430004022412242224A504526000E462247228F
:10244000482236503402F3CF49F0F4CF4AF04950D5
:102450003F26000E4022412242224A504526000ECD
:1024600046224722482241C042F040C041F03FC0CE
:1024700040F03F6A36503302F3CF49F0F4CF4AF0D0
:1024800049503F264A504022000E4122000E42226F
:1024900037503202F3CF49F0F4CF4AF049503F268B
:1024A0004A504022000E4122000E422241C042F01A
:1024B00040C041F03FC040F03F6A36503202F3CF97
:1024C00049F0F4CF4AF049503F264A504022000ECE
:1024D0004122000E422238503302F3CF49F0F4CFAC
:1024E0004AF0495045264A504622000E4722000E27
:1024F000482237503402F3CF49F0F4CF4AF0495024
:1025000045264A504622000E4722000E48223850E7
:102510003402F3CF49F0F4CF4AF049503A6E4A50B2
:102520003B6E3C6A3D6A3CC03DF03BC03CF03AC06B
:102530003BF03A6A3A5045263B5046223C504722EF
:102540003D5048223FC03AF040C03BF041C03CF013
:1025500042C03DF0190EB2EF12F0D8903D323C323D
:102560003B323A32E82EADEF12F03A5045263B505E
:1025700046223C5047223D50482241C042F040C0D4
:1025800041F03FC040F03F6A435044C03AF03B6ADC
:102590003A26000E3B22820E3A24496EFF0E3B2063
:1025A0004A6EE8EF12F0D890453646364736483640
:1025B00042AEDDEF12F0DFEF12F0E0EF12F04580F7
:1025C000D8903F364036413642364906D8A04A06B2
:1025D00047AEEDEF12F0EFEF12F0D3EF12F0000E76
:1025E000436E42AEF6EF12F0F8EF12F01CEF13F06C
:1025F000FF0E3F143A6EFF0E40143B6EFF0E411467
:102600003C6E7F0E42143D6E3A503B103C103D1024
:10261000D8B40DEF13F00FEF13F013EF13F0010E1A
:10262000436E1CEF13F045A018EF13F01AEF13F0F0
:102630001CEF13F00FEF13F04350D8B422EF13F058
:1026400024EF13F048EF13F0010E4526000E46224A
:102650004722482248A02FEF13F031EF13F048EF44
:1026600013F045C03AF046C03BF047C03CF048C0CC
:102670003DF03D343D323C323B323A323AC045F0D7
:102680003BC046F03CC047F03DC048F0494A4A2AAA
:102690004ABE53EF13F04A5008E14928D8A053EF3F
:1026A00013F055EF13F05FEF13F0000E456E000EC0
:1026B000466E800E476E7F0E486E8DEF13F04ABE59
:1026C0006CEF13F04A5006E14904D8B06AEF13F0FA
:1026D0006CEF13F078EF13F0000E456E000E466EAF
:1026E000000E476E000E486E000E3E6E8DEF13F02A
:1026F00049C044F0FF0E4516FF0E46167F0E4716E2
:10270000000E481644A087EF13F089EF13F08AEF0C
:1027100013F0478ED8904430486E3E50481245C062
:1027200032F046C033F047C034F048C035F01200F4
:102730001C50800B296E1C501C24306E1BAEA3EF66
:1027400013F0A5EF13F0A6EF13F030803050D8B49B
:10275000ACEF13F0AEEF13F0C3EF13F03028D8A4B2
:10276000B4EF13F0B6EF13F0BEEF13F0000E196ED6
:10277000000E1A6E000E1B6E000E1C6E1B8E000EDD
:102780001C6ECBEF13F0000E196E000E1A6E000EC9
:102790001B6E000E1C6E2050800B291A2050202426
:1027A000316E1FAED6EF13F0D8EF13F0D9EF13F060
:1027B00031803150D8B4DFEF13F0E1EF13F0F6EFD2
:1027C00013F03128D8A4E7EF13F0E9EF13F0F1EF9D
:1027D00013F0000E1D6E000E1E6E000E1F6E000E1A
:1027E000206E1F8E000E206EFEEF13F0000E1D6E89
:1027F000000E1E6E000E1F6E000E206E1D501E106D
:102800001F102010D8A407EF14F009EF14F021EFE7
:1028100014F0000E196E000E1A6E000E1B6E000EE4
:102820001C6E800E1B127F0E1C1229501C1219C028
:1028300019F01AC01AF01BC01BF01CC01CF064EF8A
:1028400015F03050D8A427EF14F029EF14F033EF2F
:1028500014F0000E196E000E1A6E000E1B6E000EA4
:102860001C6E64EF15F0315030C021F0226A215EF9
:10287000000E225A7F0E21242A6E000E22202B6E7B
:1028800019C025F01AC026F01BC027F01CC028F084
:10289000000E196E000E1A6E000E1B6E000E1C6EDE
:1028A000000E2C6E000E2D6E000E2E6E000E2F6E82
:1028B000000E316E94EF14F03150D8B462EF14F082
:1028C00064EF14F07BEF14F0D890253626362736C7
:1028D0002836D89019361A361B361C362FAE73EFB1
:1028E00014F075EF14F076EF14F01980D8902C36B0
:1028F0002D362E362F361D50255C1E5026581F5063
:10290000275820502858D8A088EF14F08AEF14F0E8
:1029100093EF14F02F8C1D50255E1E50265A1F5029
:10292000275A2050285A312A190E31649AEF14F090
:102930009CEF14F05CEF14F025502610271028109F
:10294000D8B4A5EF14F0A7EF14F0BFEF14F02C806B
:10295000BFEF14F0D89019361A361B361C362FAE3E
:10296000B4EF14F0B6EF14F0B7EF14F01980D8906C
:102970002C362D362E362F362A06D8A02B061BAE27
:10298000C4EF14F0C6EF14F0AAEF14F0000E316E8D
:102990002FAECDEF14F0CFEF14F0F3EF14F0FF0EE5
:1029A0002C14216EFF0E2D14226EFF0E2E14236E9A
:1029B0007F0E2F14246E2150221023102410D8B41F
:1029C000E4EF14F0E6EF14F0EAEF14F0010E316ECC
:1029D000F3EF14F019A0EFEF14F0F1EF14F0F3EFB0
:1029E00014F0E6EF14F03150D8B4F9EF14F0FBEF27
:1029F00014F01FEF15F0010E1926000E1A221B22EB
:102A00001C221CA006EF15F008EF15F01FEF15F0C3
:102A100019C021F01AC022F01BC023F01CC024F002
:102A20002434243223322232213221C019F022C030
:102A30001AF023C01BF024C01CF02A4A2B2A2BBEFC
:102A40002AEF15F02B5008E12A28D8A02AEF15F01C
:102A50002CEF15F037EF15F0000E2B6E2A68000EE4
:102A6000196E000E1A6E000E1B6E000E1C6E2BBE31
:102A700044EF15F02B5006E12A04D8B042EF15F0D0
:102A800044EF15F052EF15F0000E2B6E000E2A6E7B
:102A9000000E196E000E1A6E000E1B6E000E1C6EDC
:102AA000000E296E2AC030F030A059EF15F05BEF10
:102AB00015F05EEF15F01B8E5FEF15F01B9ED890A2
:102AC00030301C6E15EF14F0120032C0D9FF33C045
:102AD000DAFFDECF01F0DDCF02F0000E02BEFF0E06
:102AE000036E046E010E34EC1AF001C042F002C015
:102AF00043F003C044F004C045F020EE02F0325031
:102B0000D9263350DA22DECF01F0DDCF02F0000EFD
:102B100002BEFF0E036E046E010E34EC1AF001C00B
:102B200046F002C047F003C048F004C049F020EE70
:102B300004F03250D9263350DA22DECF01F0DDCF57
:102B400002F0000E02BEFF0E036E046E010E34ECA6
:102B50001AF001C04AF002C04BF003C04CF004C0B0
:102B60004DF020EE06F03250D9263350DA22DECF77
:102B700001F0DDCF02F0000E02BEFF0E036E046E08
:102B8000010E34EC1AF001C036F002C037F003C079
:102B900038F004C039F046C005F047C006F048C020
:102BA00007F049C008F042C001F043C002F044C041
:102BB00003F045C004F023EC0FF001C03AF002C06E
:102BC0003BF003C03CF004C03DF04AC005F04BC0F0
:102BD00006F04CC007F04DC008F03AC001F03BC011
:102BE00002F03CC003F03DC004F023EC0FF001C044
:102BF0003EF002C03FF003C040F004C041F042C0CC
:102C000019F043C01AF044C01BF045C01CF036C098
:102C100005F037C006F038C007F039C008F03EC0F4
:102C200001F03FC002F040C003F041C004F023ECCB
:102C30000FF001C01DF002C01EF003C01FF004C061
:102C400020F098EC13F034C0D9FF35C0DAFF19C07A
:102C5000DEFF1AC0DEFF1BC0DEFF1CC0DEFF46C069
:102C600005F047C006F048C007F049C008F042C070
:102C700001F043C002F044C003F045C004F023EC6F
:102C80000FF001C03AF002C03BF003C03CF004C0BA
:102C90003DF04AC005F04BC006F04CC007F04DC0F7
:102CA00008F03AC001F03BC002F03CC003F03DC068
:102CB00004F023EC0FF001C03EF002C03FF003C06F
:102CC00040F004C041F04AC019F04BC01AF04CC0AB
:102CD0001BF04DC01CF036C005F037C006F038C000
:102CE00007F039C008F03EC001F03FC002F040C01C
:102CF00003F041C004F023EC0FF001C01DF002C04E
:102D00001EF003C01FF004C020F098EC13F020EE7A
:102D100008F03450D9263550DA2219C0DEFF1AC027
:102D2000DEFF1BC0DEFF1CC0DEFF46C005F047C053
:102D300006F048C007F049C008F042C001F043C0A7
:102D400002F044C003F045C004F023EC0FF001C0D2
:102D50003AF002C03BF003C03CF004C03DF04AC072
:102D600005F04BC006F04CC007F04DC008F03AC06B
:102D700001F03BC002F03CC003F03DC004F023EC86
:102D80000FF001C03EF002C03FF003C040F004C0AD
:102D900041F046C019F047C01AF048C01BF049C0C6
:102DA0001CF036C005F037C006F038C007F039C057
:102DB00008F03EC001F03FC002F040C003F041C047
:102DC00004F023EC0FF001C01DF002C01EF003C0A0
:102DD0001FF004C020F098EC13F020EE04F0345003
:102DE000D9263550DA2219C0DEFF1AC0DEFF1BC01B
:102DF000DEFF1CC0DEFF12001EC034F01FC035F025
:102E000020C036F021C037F022C038F023C039F09E
:102E100024C03AF025C03BF03BBE11EF17F014EF91
:102E200017F0010E15EF17F0000E3E6E3E50D8B4AD
:102E30001CEF17F01EEF17F02EEF17F03B1E3A1E97
:102E4000391E381E371E361E351E346C000E3522D4
:102E500036223722382239223A223B2201015FBF33
:102E60003CEF17F05F5106E15E05D8B03AEF17F07E
:102E70003CEF17F042EF17F0000E316E010E306E8E
:102E800046EF17F05EC130F05FC131F05CC132F047
:102E90005DC133F03E50D8B450EF17F052EF17F049
:102EA00069EF17F03206D8A033063E50D8A45BEF86
:102EB00017F05DEF17F063EF17F0000E2F6E2B0E7B
:102EC0002E6E67EF17F0000E2F6E2D0E2E6E2EC099
:102ED0003EF0000E3D6E1F0E3C6E000EB36FEDEF28
:102EE00017F03C06D8A03D06940E3C24D96E010E86
:102EF0003D20DA6E34C001F035C002F036C003F078
:102F000037C004F038C005F039C006F03AC007F009
:102F10003BC008F00A0E096E000E0A6E000E0B6E22
:102F2000000E0C6E000E0D6E000E0E6E000E0F6E7B
:102F3000000E106E88EC1CF001C026F002C027F0D5
:102F400003C028F004C029F005C02AF006C02BF009
:102F500007C02CF008C02DF026C013F027C014F0D5
:102F6000AEEC25F01350300FDF6E3006D8A03106DE
:102F70003206D8A0330634C001F035C002F036C0A6
:102F800003F037C004F038C005F039C006F03AC08D
:102F900007F03BC008F00A0E096E000E0A6E000E24
:102FA0000B6E000E0C6E000E0D6E000E0E6E000EFF
:102FB0000F6E000E106E0EEC1BF001C034F002C05C
:102FC00035F003C036F004C037F005C038F006C055
:102FD00039F007C03AF008C03BF03DBEF8EF17F0FB
:102FE0003D5008E13C04D8A0F8EF17F0FAEF17F0D5
:102FF00016EF18F0345035103610371038103910DD
:103000003A103B10D8A407EF18F009EF18F071EF51
:1030100017F031BE16EF18F0315006E13004D8B089
:1030200014EF18F016EF18F071EF17F03E50D8B407
:103030001CEF18F01EEF18F029EF18F03C06D8A08E
:103040003D06940E3C24D96E010E3D20DA6E3EC042
:10305000DFFF1CC011F01DC012F0940E3C24136E53
:10306000010E3D20146E32C015F033C016F0B0ECE6
:1030700021F01200F0C02BF0F1C02CF02CBE45EF77
:1030800018F043EF18F047EF18F049EF19F0F30E7E
:10309000146E000E156EC00E166E010E176ED890CF
:1030A0002B34D96E2C34DA6E2650D9262750DA22EA
:1030B000DECF18F0DDCF19F0C8EC1EF02B50242421
:1030C000286E2C502520296EFF0E2824D96EFF0E65
:1030D0002920DA6EDE04D8A470EF18F072EF18F031
:1030E0007EEF18F0F30E206E000E216EC00E226EE1
:1030F000010E236E2BEC26F044EF19F02B50242404
:10310000286E2C502520296EFF0E2824D96EFF0E24
:103110002920DA6E020EDE18D8A491EF18F093EF92
:1031200018F09FEF18F0F30E206E000E216EC00E07
:10313000226E010E236E8FEC23F044EF19F02B501A
:103140002424286E2C502520296EFF0E2824D96EA9
:10315000FF0E2920DA6E030EDE18D8A4B2EF18F0A5
:10316000B4EF18F0C0EF18F0F30E206E000E216ED1
:10317000C00E226E010E236ECEEC25F044EF19F046
:103180002B502424286E2C502520296EFF0E282435
:10319000D96EFF0E2920DA6E040EDE18D8A4D3EF04
:1031A00018F0D5EF18F0E1EF18F0F30E206E000ED6
:1031B000216EC00E226E010E236E27EC22F044EF2A
:1031C00019F02B502424286E2C502520296EFF0E38
:1031D0002824D96EFF0E2920DA6E050EDE18D8A439
:1031E000F4EF18F0F6EF18F002EF19F0F30E206E7E
:1031F000000E216EC00E226E010E236E0CEC26F026
:1032000044EF19F02B502424286E2C502520296ED1
:10321000FF0E2824D96EFF0E2920DA6E060EDE1866
:10322000D8A415EF19F017EF19F023EF19F0F30EEA
:10323000206E000E216EC00E226E010E236E66EC13
:1032400023F044EF19F02B502424286E2C50252015
:10325000296EFF0E2824D96EFF0E2920DA6E070E84
:10326000DE18D8A436EF19F038EF19F044EF19F052
:10327000F30E206E000E216EC00E226E010E236E24
:10328000EDEC25F044EF19F02B06D8A02C063EEF0C
:1032900018F012007C86520E256E2B0E246E000E46
:1032A000E82EFED7242EFCD7252EFAD700D07C9608
:1032B000520E256E2B0E246E000EE82EFED7242E05
:1032C000FCD7252EFAD700D018EF1AF07C86F30E23
:1032D0001A6E000E1B6EC00E1C6E010E1D6E21ECD0
:1032E00025F0F30E1A6E000E1B6EC00E1C6E010E42
:1032F0001D6E21EC25F0F30E1A6E000E1B6EC00E33
:103300001C6E010E1D6E21EC25F0F30E1A6E000EE0
:103310001B6EC00E1C6E010E1D6E21EC25F0FEEF23
:1033200019F0A30E256E570E246E020EE82EFED75E
:10333000242EFCD7252EFAD700D08EA4A2EF19F0A8
:10334000A5EF19F0010EA6EF19F0000E246E8EA65F
:10335000ACEF19F0AFEF19F0010EB0EF19F0000E5D
:103360002414E8A0B6EF19F0B8EF19F0C8EF19F07F
:1033700080867C8E520E256E2B0E246E000EE82E5B
:10338000FED7242EFCD7252EFAD700D080867C9E2F
:103390008EB6CDEF19F0CFEF19F0E4EF19F00A0E69
:1033A0000001FC27000EFD238086520E256E2B0E99
:1033B000246E000EE82EFED7242EFCD7252EFAD739
:1033C00000D08096FEEF19F08EB4E9EF19F0EBEF24
:1033D00019F0FEEF19F00001F60EFC27FF0EFD2399
:1033E0007C8E520E256E2B0E246E000EE82EFED71C
:1033F000242EFCD7252EFAD700D07C9E8EA403EF76
:103400001AF005EF1AF00CEF1AF08EB60AEF1AF068
:103410000CEF1AF091EF19F0A30E256E570E246EE3
:10342000020EE82EFED7242EFCD7252EFAD700D088
:103430008EA61DEF1AF020EF1AF0010E21EF1AF000
:10344000000E246E8EA427EF1AF02AEF1AF0010E58
:103450002BEF1AF0000E2414E8A031EF1AF033EF2E
:103460001AF066EF19F01200096E0950D8B43BEF5C
:103470001AF03DEF1AF05FEF1AF004BE44EF1AF0B5
:1034800042EF1AF05FEF1AF001C005F002C006F03B
:1034900003C007F004C008F0051E061E071E081E24
:1034A000052A000E06220722082205C00BF006C0DE
:1034B0000CF007C00DF008C00EF067EF1AF001C065
:1034C0000BF002C00CF003C00DF004C00EF0015070
:1034D000021003100410D8A470EF1AF072EF1AF063
:1034E0007CEF1AF0000E016E000E026E000E036EED
:1034F000000E046E0DEF1BF0960E0A6E86EF1AF0AA
:103500000A2AD8900E320D320C320B32000E0B14F8
:10351000056E000E0C14066E000E0D14076EFE0EE6
:103520000E14086E0550061007100810D8A49BEF63
:103530001AF09DEF1AF080EF1AF0ABEF1AF00A2A9A
:10354000010E0B26000E0C220D220E22D8900E32F8
:103550000D320C320B32000E0B14056E000E0C14E3
:10356000066E000E0D14076EFF0E0E14086E055049
:10357000061007100810D8A4C0EF1AF0C2EF1AF016
:103580009FEF1AF0CAEF1AF00A06D8900B360C36E5
:103590000D360E360DBECFEF1AF0D1EF1AF0D9EF7F
:1035A0001AF0020E0A60D7EF1AF0D9EF1AF0C4EF42
:1035B0001AF00AB0DEEF1AF0E0EF1AF0E1EF1AF0BD
:1035C0000D9ED8900A320AC005F0066A076A086A9A
:1035D00005C008F0076A066A056A05500B12065016
:1035E0000C1207500D1208500E120950D8B4FBEF00
:1035F0001AF0FDEF1AF005EF1BF004BE04EF1BF00C
:1036000002EF1BF005EF1BF00E8E0BC001F00CC09B
:1036100002F00DC003F00EC004F01200000E126E96
:1036200010BE17EF1BF015EF1BF029EF1BF0101E5B
:103630000F1E0E1E0D1E0C1E0B1E0A1E096C000E08
:103640000A220B220C220D220E220F221022010E22
:10365000126E08BE30EF1BF02EEF1BF042EF1BF096
:10366000081E071E061E051E041E031E021E016CF8
:10367000000E02220322042205220622072208222B
:10368000010E121A20EE13F0070EDE6AE806FDE2C4
:1036900009500A100B100C100D100E100F10101006
:1036A000D8B455EF1BF057EF1BF0A9EF1BF0010E3C
:1036B000116E65EF1BF0D89009360A360B360C36C2
:1036C0000D360E360F361036112A10AE6AEF1BF08B
:1036D0006CEF1BF05BEF1BF0D890133614361536E9
:1036E00016361736183619361A360950015C0A5044
:1036F00002580B5003580C5004580D5005580E50EA
:1037000006580F50075810500858D8A08AEF1BF0E1
:103710008CEF1BF09DEF1BF00950015E0A50025A1E
:103720000B50035A0C50045A0D50055A0E50065AAD
:103730000F50075A1050085A1380D89010320F3289
:103740000E320D320C320B320A320932112E6CEF6E
:103750001BF01250D8B4AFEF1BF0B1EF1BF0C1EF6C
:103760001BF01A1E191E181E171E161E151E141EDB
:10377000136C000E14221522162217221822192269
:103780001A2213C001F014C002F015C003F016C0D5
:1037900004F017C005F018C006F019C007F01AC0F1
:1037A00008F0120020EE02F00E50D9260F50DA2257
:1037B000DF50D8B4DEEF1BF0E0EF1BF014EF1CF08D
:1037C0000EC0D9FF0FC0DAFFDF50106E1050016E2F
:1037D000026A20EE03F00E50D9260F50DA22DECF17
:1037E00003F0DDCF04F0D5EC26F001C007F002C0F5
:1037F00008F0000E0A6E640E096EEDEC21F020EE6A
:1038000003F00E50D9260F50DA22DF50116E075008
:10381000115C126E20EE03F00E50D9260F50DA2202
:10382000DF50136E37EF1CF0000E126E0EC0D9FF82
:103830000FC0DAFFDF50106E1050016E026A20EEEA
:1038400003F00E50D9260F50DA22DECF03F0DDCF81
:1038500004F0D5EC26F001C007F002C008F0000E1D
:103860000A6E640E096EEDEC21F00750136E20EE27
:1038700001F00E50D9260F50DA22DF50D8B443EFB2
:103880001CF045EF1CF067EF1CF020EE05F00E5029
:10389000D9260F50DA22DECF10F0DDCF11F010C0A4
:1038A000D9FF11C0DAFF12C0DFFF20EE07F00E5083
:1038B000D9260F50DA22DECF10F0DDCF11F010C084
:1038C000D9FF11C0DAFF13C0DFFF87EF1CF020EE35
:1038D00005F00E50D9260F50DA22DECF10F0DDCFE2
:1038E00011F010C0D9FF11C0DAFF13C0DFFF20EEC6
:1038F00007F00E50D9260F50DA22DECF10F0DDCFC0
:1039000011F010C0D9FF11C0DAFF12C0DFFF1200A2
:10391000000E126E08BE91EF1CF08FEF1CF0A3EFAB
:103920001CF0081E071E061E051E041E031E021E96
:10393000016C000E02220322042205220622072225
:103940000822010E126E10BEAAEF1CF0A8EF1CF0A8
:10395000BAEF1CF0101E0F1E0E1E0D1E0C1E0B1EAD
:103960000A1E096C000E0A220B220C220D220E22C6
:103970000F22102209500A100B100C100D100E10FF
:103980000F101010D8B4C7EF1CF0C9EF1CF011EFE6
:103990001DF0010E116ED7EF1CF0D89009360A36D3
:1039A0000B360C360D360E360F361036112A10AE89
:1039B000DCEF1CF0DEEF1CF0CDEF1CF00950015CD9
:1039C0000A5002580B5003580C5004580D5005581B
:1039D0000E5006580F50075810500858D8A0F3EF53
:1039E0001CF0F5EF1CF005EF1DF00950015E0A50C8
:1039F000025A0B50035A0C50045A0D50055A0E50DF
:103A0000065A0F50075A1050085AD89010320F32E9
:103A10000E320D320C320B320A320932112EDEEF29
:103A20001CF01250D8B417EF1DF019EF1DF029EF5C
:103A30001DF0081E071E061E051E041E031E021E84
:103A4000016C000E02220322042205220622072214
:103A5000082201C001F002C002F003C003F004C05C
:103A600004F005C005F006C006F007C007F008C066
:103A700008F0120041C0D9FF42C0DAFFDECFF6FFE6
:103A8000DDCFF7FF0800F550250AD8A44AEF1DF056
:103A90004CEF1DF0CCEF1DF041C0D9FF42C0DAFF62
:103AA000DE2A000EDD22000E01015D6F000E5C6F4C
:103AB0005CC1F2F05E695F6941C0D9FF42C0DAFFC4
:103AC000DECF4FF0DDCF50F04FC0F6FF50C0F7FF14
:103AD0000800F550640AD8B470EF1DF072EF1DF0C5
:103AE00080EF1DF04FC0F6FF50C0F7FF0800F55003
:103AF000690AD8A47EEF1DF080EF1DF0C3EF1DF022
:103B000043C0D9FF44C0DAFFDFCF45F0020EDE2606
:103B1000DFCF46F0000EDD2245C0D9FF46C0DAFFF8
:103B2000DECF47F0DDCF48F0000E48BEFF0E496EF5
:103B30004A6E4B6E4C6E4D6E4E6E010E4F24456EAE
:103B4000000E5020466E41C0D9FF42C0DAFF45C08A
:103B5000DEFF46C0DDFF3FC01CF040C01DF047C087
:103B60001EF048C01FF049C020F04AC021F04BC0F1
:103B700022F04CC023F04DC024F04EC025F0FCECE8
:103B800016F0E0EF1DF041C0D9FF42C0DAFFDE2A97
:103B9000000EDD22E0EF1DF041C0D9FF42C0DAFF88
:103BA000DECFF6FFDDCFF7FF0800F550016E026AA9
:103BB0003FC003F040C004F063EC1EF0C3EF1DF003
:103BC0001200000E0114096E000E02140A6E800E1F
:103BD00003140B6E7F0E04140C6E09500A100B10A8
:103BE0000C10D8A4F6EF1DF0F8EF1DF000EF1EF05A
:103BF000000E016E000E026E000E036E000E046ECB
:103C0000000E0514096E000E06140A6E800E0714CD
:103C10000B6E7F0E08140C6E09500A100B100C105E
:103C2000D8A415EF1EF017EF1EF01FEF1EF0000EC8
:103C3000056E000E066E000E076E000E086E04AED6
:103C400024EF1EF026EF1EF02FEF1EF0016C021E77
:103C5000D8B0022A031ED8B0032A800E045608AE3C
:103C600034EF1EF036EF1EF03FEF1EF0056C061E1F
:103C7000D8B0062A071ED8B0072A800E0856000EB4
:103C8000011A000E021A000E031A800E041A000E0A
:103C9000051A000E061A000E071A800E081A0550A3
:103CA000015C065002580750035808500458D8B019
:103CB0005CEF1EF05EEF1EF061EF1EF0D89062EF39
:103CC0001EF0D880120003500410D8B46AEF1EF022
:103CD0006CEF1EF075EF1EF003500410D8A473EFC4
:103CE0001EF075EF1EF07AEF1EF001503DEC27F04C
:103CF000C7EF1EF020EE09F00350D9260450DA2257
:103D0000DE50DE10D8B487EF1EF089EF1EF0A4EF6E
:103D10001EF020EE09F00350D9260450DA2210EEEE
:103D200003F00350E1260450E222DE50E65CE65048
:103D3000800A096EDE50800A0958D8B0A2EF1EF042
:103D4000A4EF1EF0C7EF1EF020EE03F00350D926BB
:103D50000450DA22DECF05F0DDCF06F003C0D9FF34
:103D600004C0DAFFDECF07F0DDCF08F005500724EE
:103D7000D96E06500820DA6E01C0DFFF20EE03F096
:103D80000350D9260450DA22DE2A000EDD2212006A
:103D900020EE01F01450D9261550DA22010EDF6E04
:103DA00020EE01F01650D9261750DA22010EDF6EF0
:103DB000FEEF1EF014C0D9FF15C0DAFF0A0EDF2691
:103DC00016C0D9FF17C0DAFF0A0EDF2614C00EF0A6
:103DD00015C00FF0D2EC1BF016C00EF017C00FF09C
:103DE000D2EC1BF0020E1B6EA00E1A6E920EE82E85
:103DF000FED71A2EFCD71B2EFAD700D014C0D9FF3D
:103E000015C0DAFF1E0EDF6008EF1FF00AEF1FF08B
:103E100016EF1FF016C0D9FF17C0DAFF1D0EDF64C2
:103E200014EF1FF016EF1FF0DAEF1EF018C001F0CC
:103E300019C002F04AEC26F01200000E1914216E8F
:103E4000000E1A14226E800E1B14236E7F0E1C149B
:103E5000246E2150221023102410D8A432EF1FF01A
:103E600034EF1FF03CEF1FF0000E196E000E1A6EBB
:103E7000000E1B6E000E1C6E000E1D14216E000E37
:103E80001E14226E800E1F14236E7F0E2014246ECB
:103E90002150221023102410D8A451EF1FF053EF0B
:103EA0001FF05BEF1FF0000E1D6E000E1E6E000E69
:103EB0001F6E000E206E1D5019180FE11E501A18AB
:103EC0000CE11F501B1809E120501C18D8B46BEFEF
:103ED0001FF06DEF1FF070EF1FF0D89071EF1FF023
:103EE000D880120020EE01F01450D9261550DA22A5
:103EF000010EDF6E20EE01F01650D9261750DA229F
:103F0000000EDF6EA8EF1FF014C0D9FF15C0DAFF56
:103F10000A0EDF2616C0D9FF17C0DAFF0A0EDF2609
:103F200014C00EF015C00FF0D2EC1BF016C00EF04E
:103F300017C00FF0D2EC1BF0020E196EA00E186E17
:103F4000920EE82EFED7182EFCD7192EFAD700D0E5
:103F500014C0D9FF15C0DAFF1E0EDF60B2EF1FF0EC
:103F6000B4EF1FF0C0EF1FF016C0D9FF17C0DAFF83
:103F70001D0EDF64BEEF1FF0C0EF1FF084EF1FF0D7
:103F8000120020EE01F01450D9261550DA22000E4E
:103F9000DF6E20EE01F01650D9261750DA22010EFE
:103FA000DF6EF7EF1FF014C0D9FF15C0DAFF0A0E5D
:103FB000DF2616C0D9FF17C0DAFF0A0EDF2614C0AD
:103FC0000EF015C00FF0D2EC1BF016C00EF017C0AB
:103FD0000FF0D2EC1BF0020E196EA00E186E920EAE
:103FE000E82EFED7182EFCD7192EFAD700D014C011
:103FF000D9FF15C0DAFF1E0EDF6001EF20F003EFDE
:1040000020F00FEF20F016C0D9FF17C0DAFF1D0E09
:10401000DF640DEF20F00FEF20F0D3EF1FF0120060
:1040200020EE01F01450D9261550DA22000EDF6E72
:1040300020EE01F01650D9261750DA22000EDF6E5E
:1040400046EF20F014C0D9FF15C0DAFF0A0EDF26B4
:1040500016C0D9FF17C0DAFF0A0EDF2614C00EF013
:1040600015C00FF0D2EC1BF016C00EF017C00FF009
:10407000D2EC1BF0020E196EA00E186E920EE82EF6
:10408000FED7182EFCD7192EFAD700D014C0D9FFAE
:1040900015C0DAFF1E0EDF6050EF20F052EF20F067
:1040A0005EEF20F016C0D9FF17C0DAFF1D0EDF64E7
:1040B0005CEF20F05EEF20F022EF20F0120020EE07
:1040C00001F01450D9261550DA22010EDF6E20EED1
:1040D00001F01650D9261750DA22010EDF6E95EF47
:1040E00020F014C0D9FF15C0DAFF0A0EDF2616C073
:1040F000D9FF17C0DAFF0A0EDF2614C00EF015C074
:104100000FF0D2EC1BF016C00EF017C00FF0D2EC7F
:104110001BF0020E196EA00E186E920EE82EFED73E
:10412000182EFCD7192EFAD700D014C0D9FF15C00D
:10413000DAFF1E0EDF609FEF20F0A1EF20F0ADEF61
:1041400020F016C0D9FF17C0DAFF1D0EDF64ABEFF9
:1041500020F0ADEF20F071EF20F01200050E0E01FF
:10416000746F060E766F070E696F080E886F859460
:104170008598839E879CBD508F0B3009BD6EE00EE5
:10418000BE16BF50F00B0109BF6E01C0BCFFBD8E53
:10419000000EAA6E000EA66E000E0F01256F000E17
:1041A000216FFC0EAD16F30EAD16CF0EAD163F0E01
:1041B000AD16AB88AB50F00B0C09AB6EAB8EA7887D
:1041C000A750F00B0C09A76EA78E26892651F00B7D
:1041D0000C09266F268F22892251F00B0C09226FC1
:1041E000228F12001AC014F01BC015F01CC016F06C
:1041F0001DC017F010EC20F0290E1F6E960E1E6EDB
:104200007F0EE82EFED71E2EFCD71F2EFAD700F009
:10421000F30E146E000E156EC00E166E010E176EA4
:1042200033EC21F01AC014F01BC015F01CC016F0BE
:104230001DC017F05FEC20F0290E1F6E960E1E6E4B
:104240007F0EE82EFED71E2EFCD71F2EFAD700F0C9
:10425000F30E146E000E156EC00E166E010E176E64
:1042600033EC21F0120059EF21F014C0D9FF15C032
:10427000DAFF0A0EDF5E16C0D9FF17C0DAFF0A0E9A
:10428000DF5E14C00EF015C00FF0D2EC1BF016C0AC
:104290000EF017C00FF0D2EC1BF0020E196EA00E3C
:1042A000186E920EE82EFED7182EFCD7192EFAD7CC
:1042B00000D014C0D9FF15C0DAFFDF50D8A463EFD7
:1042C00021F065EF21F035EF21F016C0D9FF17C0BE
:1042D000DAFFDF50D8A46FEF21F071EF21F035EF56
:1042E00021F01200700EF66E4E0EF76E000EF86E94
:1042F00001EED1F010EE06F00900F5CFEEFFE5502B
:10430000E150FAE1760EF66E4E0EF76E000EF86E84
:104310000900F5CFFCF00900F5CFFDF00900F5CF5D
:10432000FEF002EE00F0640EEE6AE806FDE101EE3A
:1043300000F0D10EEE6AE806FDE100EEF0F00C0EA2
:10434000EE6AE806FDE15E6A5D6A5C6A5B6A5F9040
:104350005F92000EF86E0E0EF76E000181EF0CF00A
:1043600016BEB5EF21F0B7EF21F0BDEF21F015C07B
:104370001AF016C01BF0C1EF21F0000E1B6E000EEC
:104380001A6E000E196E000E186ED3EF21F0000E9B
:10439000026E200E016E11C003F012C004F063EC37
:1043A0001EF0184A192A1A50185C1950800A176E04
:1043B0001B50800A1758D8A0E0EF21F0E2EF21F05F
:1043C000C7EF21F013C00AF014C00BF011C00CF0BD
:1043D00012C00DF06BEC25F01200000E0C6E000EFA
:1043E0000B6E09500A10D8B4F8EF21F0FAEF21F063
:1043F00022EF22F0010E0D6E02EF22F0D890093666
:104400000A360D2A0AAE07EF22F009EF22F0FEEF7E
:1044100021F0D8900B360C360950075C0A5008582A
:10442000D8A015EF22F017EF22F01CEF22F0095070
:10443000075E0A50085A0B80D8900A3209320D2EB6
:1044400009EF22F00BC007F00CC008F01200F30EC9
:104450001A6E000E1B6EC00E1C6E010E1D6EE3EC7C
:1044600022F0F30E1A6E000E1B6EC00E1C6E010EB3
:104470001D6EFAEC24F0F30E1A6E000E1B6EC00EC9
:104480001C6E010E1D6EFAEC24F0F30E1A6E000E77
:104490001B6EC00E1C6E010E1D6EFAEC24F0F30EA6
:1044A0001A6E000E1B6EC00E1C6E010E1D6EFAEC15
:1044B00024F012005BEC24F00CC0D9FF0DC0DAFF31
:1044C00005C0DEFF06C0DDFFABEC24F020EE04F0FB
:1044D0000C50D9260D50DA2205C0DEFF06C0DDFFE4
:1044E00083EC24F020EE02F00C50D9260D50DA2295
:1044F00005C0DEFF06C0DDFF33EC24F020EE06F041
:104500000C50D9260D50DA2205C0DEFF06C0DDFFB3
:1045100012001AC014F01BC015F01CC016F01DC00C
:1045200017F05FEC20F0A30E1F6E570E1E6E020EEA
:10453000E82EFED71E2EFCD71F2EFAD700D0F30E82
:10454000146E000E156EC00E166E010E176E33EC53
:1045500021F0520E1F6E2B0E1E6E000EE82EFED79F
:104560001E2EFCD71F2EFAD700D012001AC014F04E
:104570001BC015F01CC016F01DC017F010EC20F089
:10458000A30E1F6E570E1E6E020EE82EFED71E2EB5
:10459000FCD71F2EFAD700D0F30E146E000E156E46
:1045A000C00E166E010E176E33EC21F0520E1F6E08
:1045B0002B0E1E6E000EE82EFED71E2EFCD71F2ED1
:1045C000FAD700D012001AC014F01BC015F01CC09E
:1045D00016F01DC017F010EC20F0110E1F6E3C0EEF
:1045E0001E6ECB0EE82EFED71E2EFCD71F2EFAD73E
:1045F00000F0F30E146E000E156EC00E166E010E56
:10460000176E33EC21F0520E1F6E2B0E1E6E000E35
:10461000E82EFED71E2EFCD71F2EFAD700D0120090
:104620001AC014F01BC015F01CC016F01DC017F006
:104630005FEC20F0520E1F6E2B0E1E6E000EE82E49
:10464000FED71E2EFCD71F2EFAD700D0F30E146E05
:10465000000E156EC00E166E010E176E33EC21F0B3
:10466000520E1F6E2B0E1E6E000EE82EFED71E2E53
:10467000FCD71F2EFAD700D01200640E00016C6F19
:10468000000E6D6F60C06EF061C06FF0000E726F53
:10469000000E716F000E786F000E776F6E0E516E08
:1046A000000E526E62C053F063C054F06C0E556E33
:1046B000000E566ED3EC24F0000171516025D96EC6
:1046C00072516121DA6E000EDF6E1200F30E1A6E67
:1046D000000E1B6EC00E1C6E010E1D6EE3EC22F070
:1046E000F30E1A6E000E1B6EC00E1C6E010E1D6EB8
:1046F000FAEC24F0F30E1A6E000E1B6EC00E1C6E48
:10470000010E1D6EFAEC24F0F30E1A6E000E1B6EF5
:10471000C00E1C6E010E1D6EFAEC24F01200F30E9A
:104720001A6E000E1B6EC00E1C6E010E1D6EE3ECA9
:1047300022F0F30E1A6E000E1B6EC00E1C6E010EE0
:104740001D6E21EC25F0F30E1A6E000E1B6EC00ECE
:104750001C6E010E1D6E21EC25F0F30E1A6E000E7C
:104760001B6EC00E1C6E010E1D6E21EC25F012009A
:1047700099EC26F0010E036E000EE8EC26F03F0ED9
:10478000056E550EE82EFED7052EFCD700F0030E61
:10479000036E000EE8EC26F0D50E036E010EE8EC79
:1047A00026F0000E036E0F0EE8EC26F0879281983B
:1047B000869E849684987F927E9E79987C967C983B
:1047C0001200F30E1A6E000E1B6EC00E1C6E010E50
:1047D0001D6EE3EC22F0F30E1A6E000E1B6EC00E7F
:1047E0001C6E010E1D6EB6EC22F0F30E1A6E000E5A
:1047F0001B6EC00E1C6E010E1D6EFAEC24F0F30E43
:104800001A6E000E1B6EC00E1C6E010E1D6EFAECB1
:1048100024F01200F30E1A6E000E1B6EC00E1C6EFA
:10482000010E1D6EE3EC22F0F30E1A6E000E1B6EED
:10483000C00E1C6E010E1D6EB6EC22F0F30E1A6E49
:10484000000E1B6EC00E1C6E010E1D6E21EC25F0BD
:10485000F30E1A6E000E1B6EC00E1C6E010E1D6E46
:1048600021EC25F0120033EC27F0520E23EC27F058
:10487000B40E23EC27F029EC27F0530E23EC27F09D
:10488000010E8DEC25F0076E07500A6E0B6A000EC4
:104890008DEC25F0076E0750096E086A0A50081063
:1048A0000A6E0B5009100B6E2EEC27F00AC005F0B3
:1048B0000BC006F0120033EC27F0520E23EC27F069
:1048C000B60E23EC27F029EC27F0530E23EC27F04B
:1048D000010E8DEC25F0076E07500A6E0B6A000E74
:1048E0008DEC25F0076E0750096E086A0A50081013
:1048F0000A6E0B5009100B6E2EEC27F00AC005F063
:104900000BC006F0120033EC27F0520E23EC27F018
:10491000B80E23EC27F029EC27F0530E23EC27F0F8
:10492000010E8DEC25F0076E07500A6E0B6A000E23
:104930008DEC25F0076E0750096E086A0A500810C2
:104940000A6E0B5009100B6E2EEC27F00AC005F012
:104950000BC006F0120033EC27F0520E23EC27F0C8
:10496000BA0E23EC27F029EC27F0530E23EC27F0A6
:10497000010E8DEC25F0076E07500A6E0B6A000ED3
:104980008DEC25F0076E0750096E086A0A50081072
:104990000A6E0B5009100B6E2EEC27F00AC005F0C2
:1049A0000BC006F0120053C057F054C058F0E7EFA8
:1049B00024F051C03FF052C040F0570E416E000E3F
:1049C000426E55C043F056C044F03AEC1DF057C05B
:1049D000F6FF58C0F7FF0800F5500009D8A4F3EF20
:1049E00024F0F5EF24F0D9EF24F0000E526E000E03
:1049F000516E12001AC014F01BC015F01CC016F046
:104A00001DC017F072EC1FF0FCC001F0FDC002F0F9
:104A100066EC26F0F30E146E000E156EC00E166EC8
:104A2000010E176E33EC21F0520E1F6E2B0E1E6E10
:104A3000000EE82EFED71E2EFCD71F2EFAD700D070
:104A400012001AC014F01BC015F01CC016F01DC0D7
:104A500017F0C1EC1FF0FCC001F0FDC002F066ECE5
:104A600026F0F30E146E000E156EC00E166E010EBB
:104A7000176E33EC21F0520E1F6E2B0E1E6E000EC1
:104A8000E82EFED71E2EFCD71F2EFAD700D012001C
:104A9000000E151A000E161A000E171A800E181A9C
:104AA00011C001F012C002F013C003F014C004F0F2
:104AB00015C005F016C006F017C007F018C008F0C2
:104AC00023EC0FF001C011F002C012F003C013F08C
:104AD00004C014F01200000E106E000E0F6E7CEF7A
:104AE00025F00EC001F0026A0CC003F00DC004F006
:104AF00063EC1EF00F4A102A0F500A24D96E105092
:104B00000B20DA6EDF500E6E0E50D8A48AEF25F01F
:104B10008CEF25F071EF25F01200036EAEEC26F05D
:104B20000E01DA87AEEC26F0D5CE04F0AEEC26F01E
:104B30000350D8B49EEF25F0A2EF25F0026A022AB6
:104B4000A3EF25F0026A023A02460E01DA5102187A
:104B5000DF0B0218DA6FDA890450120014BEBBEFC3
:104B600025F0145006E11304D8B0B9EF25F0BBEFDF
:104B700025F0C9EF25F013C015F014C016F0151E6E
:104B8000161E154A162A15C013F016C014F0CDEFE4
:104B900025F013C013F014C014F01200F30E1A6EB7
:104BA000000E1B6EC00E1C6E010E1D6E21EC25F05A
:104BB000F30E1A6E000E1B6EC00E1C6E010E1D6EE3
:104BC00021EC25F0F30E1A6E000E1B6EC00E1C6E4B
:104BD000010E1D6E89EC22F01200F30E1A6E000E0B
:104BE0001B6EC00E1C6E010E1D6EFAEC24F0F30E4F
:104BF0001A6E000E1B6EC00E1C6E010E1D6EFAECBE
:104C000024F0F30E1A6E000E1B6EC00E1C6E010E09
:104C10001D6E89EC22F01200F30E1A6E000E1B6E50
:104C2000C00E1C6E010E1D6EE3EC22F0F30E1A6E28
:104C3000000E1B6EC00E1C6E010E1D6EFAEC24F0F1
:104C4000F30E1A6E000E1B6EC00E1C6E010E1D6E52
:104C5000FAEC24F01200F30E1A6E000E1B6EC00E5A
:104C60001C6E010E1D6EE3EC22F0F30E1A6E000EA8
:104C70001B6EC00E1C6E010E1D6E21EC25F0F30E96
:104C80001A6E000E1B6EC00E1C6E010E1D6E21EC06
:104C900025F01200000E056E000E046E5AEF26F08D
:104CA000150E036EC60EE82EFED7032EFCD700D0DD
:104CB000044A052A0150045C02500558D8A063EF4D
:104CC00026F065EF26F050EF26F0120073EF26F085
:104CD000150E036EC60EE82EFED7032EFCD700D0AD
:104CE0000106D8A0020602BE80EF26F0025006E1BF
:104CF0000104D8B07EEF26F080EF26F068EF26F0B2
:104D000012008CEF26F002C0D9FF03C0DAFFDF509B
:104D100017EC27F0024A032A02C0D9FF03C0DAFFCA
:104D2000DF50D8A496EF26F098EF26F083EF26F018
:104D300012000E01D951F00B0809D96FD98B9F0EC3
:104D4000D66F848A848CA79BA79D1D0E1D6F1E0E97
:104D50001C6F1C0E6F6F1B0E706F12000E01D8B50A
:104D6000B4EF26F0B6EF26F0AEEF26F0DACE01F083
:104D70001F0E0116D8A4BFEF26F0C1EF26F0AEEF4C
:104D800026F01200D350D450026E016AD890000170
:104D9000F035D96EF135DA6E000ED926020EDA2220
:104DA00001C0DEFF02C0DDFF120001500302F3CF9D
:104DB00005F0F4CF06F001500402F350062602502D
:104DC0000302F350062605C001F006C002F01200EF
:104DD000046E33EC27F0520E23EC27F004508009C8
:104DE00023EC27F0035023EC27F02EEC27F01200E1
:104DF000D6501F0B4009D66ED688D650F00B0E0940
:104E0000D66ED588000ED46E000ED36ED58E1200ED
:104E1000120E0E01626F110E156FE997E895330EB1
:104E2000E56F000EE66FE789E88BE78F1200016EF1
:104E30000E0137A51EEF27F020EF27F018EF27F01F
:104E400001C0E4FE1200026EAEEC26F002C0D5FEF8
:104E50001200AEEC26F00E01DA831200AEEC26F062
:104E60000E01DA851200AEEC26F00E01DA81120096
:094E7000E803D0071E00DC00017C
:044E7A001200120010
:020000040020DA
:10000000FF0FFF0FFF0FFF0FFF0FFF0FFF0FFF0F80
:020000040030CA
:0C000000AAFFFFFF9FFFFFFFFFFFFFFFB5
:00000001FF
