:040000001AEF00F003
:100008005F820E0133AB0BEF00F00DEF00F018EF3D
:1000180000F0000ED46E000ED36E000E0101196FB1
:10002800010E186F0E01339B5F921100F4EF2DF053
:100E0000007265643D256620677265656E3D2566E6
:100E100020626C75653D2566206C756D3D256420EE
:100E200061637475616C5F636F6C6F75723D25648F
:0D0E3000200D0A00696E66006E616E000004
:100E3E00000E0001726F000E736F000E746F000EC5
:100E4E00756F000E766F500E776FC30E786F470E6C
:100E5E00796F000E656F040E646F20EE66F00B0E58
:100E6E00DE6AE806FDE24BC0D9FF4CC0DAFFDECFEA
:100E7E0001F0DDCF02F0000E02BEFF0E036E046E17
:100E8E00010E03EC21F001C066F002C067F003C052
:100E9E0068F004C069F020EE02F04B50D9264C5099
:100EAE00DA22DECF01F0DDCF02F0000E02BEFF0E21
:100EBE00036E046E010E03EC21F001C06AF002C055
:100ECE006BF003C06CF004C06DF020EE04F04B50DC
:100EDE00D9264C50DA22DECF01F0DDCF02F0000E23
:100EEE0002BEFF0E036E046E010E03EC21F001C074
:100EFE006EF002C06FF003C070F004C071F0000E0F
:100F0E0000017B6F000E7A6F72C02AF073C02BF057
:100F1E0074C02CF075C02DF0660E4F6E000E506E24
:100F2E00D8907A35D96E7B35DA6ED890D936DA36D6
:100F3E004F50D9265050DA22DECF2EF0DECF2FF0D2
:100F4E00DECF30F0DECF31F062EC25F0D8B0B2EF6C
:100F5E0007F0B4EF07F0D1EF07F0660E4F6E000EFC
:100F6E00506ED89000017A35D96E7B35DA6ED890F6
:100F7E00D936DA364F50D9265050DA22DECF72F0FB
:100F8E00DECF73F0DECF74F0DECF75F07AC064F092
:100F9E007BC065F0660E4F6E000E506ED89000014D
:100FAE007A35D96E7B35DA6ED890D936DA364F501F
:100FBE00D9265050DA22DECF2AF0DECF2BF0DECF4C
:100FCE002CF0DECF2DF076C02EF077C02FF078C04B
:100FDE0030F079C031F062EC25F0D8B0F9EF07F0BF
:100FEE00FBEF07F014EF08F0660E4F6E000E506E1A
:100FFE00D89000017A35D96E7B35DA6ED890D93615
:10100E00DA364F50D9265050DA22DECF76F0DECFC8
:10101E0077F0DECF78F0DECF79F000017A4B7B2BC4
:10102E007BBF23EF08F07B5109E1030E7A5DD8A058
:10103E0023EF08F025EF08F08BEF07F076C02EF0C7
:10104E0077C02FF078C030F079C031F072C02AF03E
:10105E0073C02BF074C02CF075C02DF069EC2EF01F
:10106E002AC032F02BC033F02CC034F02DC035F036
:10107E00000E366E000E376E000E386E000E396E94
:10108E00D3EC27F0D8A04EEF08F050EF08F056EF53
:10109E0008F0000E4C6E000E4B6E4EEF0CF0000181
:1010AE0064516511D8A45EEF08F060EF08F0D4EF3C
:1010BE0008F076C02EF077C02FF078C030F079C0EF
:1010CE0031F072C02AF073C02BF074C02CF075C0D2
:1010DE002DF069EC2EF02AC036F02BC037F02CC064
:1010EE0038F02DC039F06EC02EF06FC02FF070C0EA
:1010FE0030F071C031F06AC02AF06BC02BF06CC0BA
:10110E002CF06DC02DF069EC2EF02AC032F02BC001
:10111E0033F02CC034F02DC035F064EC18F032C032
:10112E0011F033C012F034C013F035C014F0000EBD
:10113E00156E000E166E700E176E420E186E4FEC78
:10114E0016F011C07CF012C07DF013C07EF014C0FA
:10115E007FF000017FBFB8EF08F0B6EF08F0B3EFF5
:10116E0009F07CC001F07DC002F07EC003F07FC0AC
:10117E0004F0000E056E000E066EB40E076E430EE2
:10118E00086EEFEC13F001C07CF002C07DF003C0DE
:10119E007EF004C07FF0B3EF09F064056511D8A4AA
:1011AE00DBEF08F0DDEF08F049EF09F076C02EF026
:1011BE0077C02FF078C030F079C031F072C02AF0CD
:1011CE0073C02BF074C02CF075C02DF069EC2EF0AE
:1011DE002AC036F02BC037F02CC038F02DC039F0B5
:1011EE0066C02EF067C02FF068C030F069C031F0D5
:1011FE006EC02AF06FC02BF070C02CF071C02DF0B5
:10120E0069EC2EF02AC032F02BC033F02CC034F033
:10121E002DC035F064EC18F032C060F033C061F0D0
:10122E0034C062F035C063F0000E056E000E066E1F
:10123E00000E076E400E086E60C001F061C002F035
:10124E0062C003F063C004F0EFEC13F001C011F0C4
:10125E0002C012F003C013F004C014F0000E156E9D
:10126E00000E166E700E176E420E186E4FEC16F0C4
:10127E0011C07CF012C07DF013C07EF014C07FF060
:10128E00B3EF09F076C02EF077C02FF078C030F0B3
:10129E0079C031F072C02AF073C02BF074C02CF0FC
:1012AE0075C02DF069EC2EF02AC036F02BC037F049
:1012BE002CC038F02DC039F06AC02EF06BC02FF064
:1012CE006CC030F06DC031F066C02AF067C02BF0F4
:1012DE0068C02CF069C02DF069EC2EF02AC032F0F7
:1012EE002BC033F02CC034F02DC035F064EC18F068
:1012FE0032C060F033C061F034C062F035C063F0CC
:10130E00000E056E000E066E800E076E400E086E05
:10131E0060C001F061C002F062C003F063C004F06F
:10132E00EFEC13F001C011F002C012F003C013F085
:10133E0004C014F0000E156E000E166E700E176EB1
:10134E00420E186E4FEC16F011C07CF012C07DF0FC
:10135E0013C07EF014C07FF07CC02AF07DC02BF04D
:10136E007EC02CF07FC02DF0000E2E6E000E2F6E64
:10137E00A50E306E430E316E62EC25F0D8A0CAEF8A
:10138E0009F0CCEF09F0EBEF09F0000E2A6E000E1B
:10139E002B6EB40E2C6E430E2D6E7CC02EF07DC0C7
:1013AE002FF07EC030F07FC031F062EC25F0D8A077
:1013BE00E3EF09F0E5EF09F0EBEF09F0000E4C6EEC
:1013CE00010E4B6E4EEF0CF07CC02AF07DC02BF060
:1013DE007EC02CF07FC02DF0000E2E6E000E2F6EF4
:1013EE00A00E306E400E316E62EC25F0D8A002EFEA
:1013FE000AF004EF0AF023EF0AF0000E2A6E000E38
:10140E002B6E300E2C6E410E2D6E7CC02EF07DC0DC
:10141E002FF07EC030F07FC031F062EC25F0D8A006
:10142E001BEF0AF01DEF0AF023EF0AF0000E4C6ED0
:10143E00020E4B6E4EEF0CF07CC02AF07DC02BF0EE
:10144E007EC02CF07FC02DF0000E2E6E000E2F6E83
:10145E00900E306E410E316E62EC25F0D8A03AEF50
:10146E000AF03CEF0AF0F0EF0AF0000E2A6E000EC2
:10147E002B6EC80E2C6E410E2D6E7CC02EF07DC0D4
:10148E002FF07EC030F07FC031F062EC25F0D8A096
:10149E0053EF0AF055EF0AF0F0EF0AF0B80E2A6E8D
:1014AE001E0E2B6E850E2C6E3E0E2D6E4DC0D9FF70
:1014BE004EC0DAFFDECF2EF0DECF2FF0DECF30F0D3
:1014CE00DECF31F062EC25F0D8A070EF0AF072EFAB
:1014DE000AF0A8EF0AF0CD0E2A6ECC0E2B6ECC0EB3
:1014EE002C6E3D0E2D6E20EE08F04D50D9264E502E
:1014FE00DA22DECF2EF0DECF2FF0DECF30F0DECFD1
:10150E0031F062EC25F0D8B08FEF0AF091EF0AF0CF
:10151E00A8EF0AF020EE06F04B50D9264C50DA22F6
:10152E00010EDBBEA4EF0AF0E90EDE5C030EDE5800
:10153E00D8A0A4EF0AF0A6EF0AF0A8EF0AF050EF39
:10154E0008F04DC0D9FF4EC0DAFFDECF2AF0DECF55
:10155E002BF0DECF2CF0DECF2DF0B80E2E6E1E0E41
:10156E002F6E850E306E3E0E316E62EC25F0D8A0D9
:10157E00C3EF0AF0C5EF0AF0EAEF0AF020EE08F02A
:10158E004D50D9264E50DA22DECF2AF0DECF2BF088
:10159E00DECF2CF0DECF2DF0CD0E2E6ECC0E2F6EBC
:1015AE00CC0E306E3D0E316E62EC25F0D8B0E2EF0F
:1015BE000AF0E4EF0AF0EAEF0AF0000E4C6E030EAA
:1015CE004B6E4EEF0CF0000E4C6E0A0E4B6E4EEF45
:1015DE000CF07CC02AF07DC02BF07EC02CF07FC0BA
:1015EE002DF0000E2E6E000E2F6EAA0E306E420ED5
:1015FE00316E62EC25F0D8A007EF0BF009EF0BF07F
:10160E0028EF0BF0000E2A6E000E2B6E200E2C6EA5
:10161E00430E2D6E7CC02EF07DC02FF07EC030F0BC
:10162E007FC031F062EC25F0D8A020EF0BF022EF56
:10163E000BF028EF0BF0000E4C6E040E4B6E4EEFBF
:10164E000CF07CC02AF07DC02BF07EC02CF07FC049
:10165E002DF0000E2E6E000E2F6E700E306E420E9E
:10166E00316E62EC25F0D8A03FEF0BF041EF0BF09E
:10167E00E2EF0BF0000E2A6E000E2B6E9A0E2C6E01
:10168E00420E2D6E7CC02EF07DC02FF07EC030F04D
:10169E007FC031F062EC25F0D8A058EF0BF05AEF76
:1016AE000BF0E2EF0BF020EE08F04D50D9264E5025
:1016BE00DA22DECF2AF0DECF2BF0DECF2CF0DECF1B
:1016CE002DF08F0E2E6EC20E2F6EF50E306E3D0E5D
:1016DE00316E62EC25F0D8A077EF0BF079EF0BF0BE
:1016EE009EEF0BF020EE04F04D50D9264E50DA222C
:1016FE00DECF2AF0DECF2BF0DECF2CF0DECF2DF0BA
:10170E003D0E2E6E0A0E2F6E570E306E3E0E316E41
:10171E0062EC25F0D8B096EF0BF098EF0BF09EEF41
:10172E000BF0000E4C6E060E4B6E4EEF0CF020EED4
:10173E0008F04D50D9264E50DA22DECF2AF0DECFF9
:10174E002BF0DECF2CF0DECF2DF08F0E2E6EC20ED4
:10175E002F6EF50E306E3D0E316E62EC25F0D8B068
:10176E00BBEF0BF0BDEF0BF0EAEF0AF03D0E2A6E69
:10177E000A0E2B6E570E2C6E3E0E2D6E20EE04F0C2
:10178E004D50D9264E50DA22DECF2EF0DECF2FF07E
:10179E00DECF30F0DECF31F062EC25F0D8B0DAEFEC
:1017AE000BF0DCEF0BF0EAEF0AF0000E4C6E050EBC
:1017BE004B6E4EEF0CF07CC02AF07DC02BF07EC03D
:1017CE002CF07FC02DF0000E2E6E000E2F6E400EF0
:1017DE00306E410E316E62EC25F0D8A0F9EF0BF0B1
:1017EE00FBEF0BF01AEF0CF0000E2A6E000E2B6EB4
:1017FE00880E2C6E410E2D6E7CC02EF07DC02FF00B
:10180E007EC030F07FC031F062EC25F0D8A012EF30
:10181E000CF014EF0CF01AEF0CF0000E4C6E070EDD
:10182E004B6E4EEF0CF07CC02AF07DC02BF07EC0CC
:10183E002CF07FC02DF0000E2E6E000E2F6EB00E0F
:10184E00306E410E316E62EC25F0D8A031EF0CF007
:10185E0033EF0CF0EAEF0AF0000E2A6E000E2B6E3C
:10186E00C00E2C6E410E2D6E7CC02EF07DC02FF062
:10187E007EC030F07FC031F062EC25F0D8A04AEF88
:10188E000CF04CEF0CF0EAEF0AF050EF08F01200FB
:10189E00000E00018A6F62C08DF063C08EF064C0CE
:1018AE008FF065C090F090BF61EF0CF05FEF0CF021
:1018BE0075EF0CF0010E8A6F8DC001F08EC002F034
:1018CE008FC003F090C004F04FEC2FF001C08DF0EC
:1018DE0002C08EF003C08FF004C090F0000E000125
:1018EE008C6F000E8B6FE7C07AF0E8C07BF08A51E8
:1018FE00D8B484EF0CF086EF0CF09AEF0CF08A510E
:10190E00D8A48CEF0CF08EEF0CF094EF0CF0000ED0
:10191E00706F2B0E6F6F98EF0CF0000E706F2D0E18
:10192E006F6F6FC08AF08DC001F08EC002F08FC055
:10193E0003F090C004F0E4EC25F001040210D8A4EA
:10194E00ABEF0CF0ADEF0CF0E0EF0CF000018A51B4
:10195E00D8B4B4EF0CF0B6EF0CF0BFEF0CF08AC0B9
:10196E00A0F27A07D8A07B07000E8C6F010E8B6F4A
:10197E00A00E8B25016E020E8C21026E340E036EAC
:10198E000E0E046E8CEC2EF00001FD0E7A27FF0E6B
:10199E007B2360C011F061C012F0A00E136E020E18
:1019AE00146E7AC015F07BC016F0E7EC29F04BEF01
:1019BE0011F08DC001F08EC002F08FC003F090C008
:1019CE0004F0E4EC25F001500210D8A4F1EF0CF075
:1019DE00F3EF0CF013EF0DF000018A51D8B4FAEFCB
:1019EE000CF0FCEF0CF005EF0DF08AC0A0F27A07B8
:1019FE00D8A07B07000E8C6F010E8B6FA00E8B256F
:101A0E00016E020E8C21026E380E036E0E0E046EE7
:101A1E008CEC2EF0CBEF0CF0000E0001916F000E4F
:101A2E00926F800E936F3F0E946F000E796F000EC3
:101A3E00786F8DC032F08EC033F08FC034F090C00E
:101A4E0035F0000E366E000E376E000E386E000E3C
:101A5E00396ED3EC27F0D8B037EF0DF039EF0DF02B
:101A6E0018EF0EF046EF0DF07CC091F07DC092F0B5
:101A7E007EC093F07FC094F00001784B792B91C01B
:101A8E0011F092C012F093C013F094C014F0000E37
:101A9E00156E000E166E200E176E410E186E4FEC60
:101AAE0016F011C07CF012C07DF013C07EF014C091
:101ABE007FF000017C518D5D016E7D518E59026E5D
:101ACE007E518F59036E7F519059046E93EC2AF01C
:101ADE0004BE7DEF0DF004500310021009E1020E5A
:101AEE00015CD8A07DEF0DF07FEF0DF03BEF0DF018
:101AFE007CC02AF07DC02BF07EC02CF07FC02DF074
:101B0E008DC02EF08EC02FF08FC030F090C031F00F
:101B1E0062EC25F0D8A096EF0DF098EF0DF03BEFAC
:101B2E000DF0000191518D5D016E92518E59026E34
:101B3E0093518F59036E94519059046E93EC2AF081
:101B4E0004BEB7EF0DF004500310021007E1020EB1
:101B5E00015CD8B0B5EF0DF0B7EF0DF0FFEF0DF063
:101B6E0091C08DF092C08EF093C08FF094C090F023
:101B7E0018EF0EF091C032F092C033F093C034F0F3
:101B8E0094C035F0000E366E000E376E200E386E95
:101B9E00410E396E64EC18F032C091F033C092F001
:101BAE0034C093F035C094F000017807D8A07907BF
:101BBE0091518D5D016E92518E59026E93518F59D6
:101BCE00036E94519059046E93EC2AF004BEFDEF0F
:101BDE000DF004500310021007E1020E015CD8B0A4
:101BEE00FBEF0DF0FDEF0DF0FFEF0DF0B7EF0DF089
:101BFE008DC02AF08EC02BF08FC02CF090C02DF02F
:101C0E0091C02EF092C02FF093C030F094C031F0FE
:101C1E0062EC25F0D8A016EF0EF018EF0EF0C1EF23
:101C2E000DF066C072F072C073F00001EABF22EFD1
:101C3E000EF024EF0EF02AEF0EF0E9C06BF0EAC0C2
:101C4E006CF02EEF0EF0000E6C6F060E6B6F6BC00D
:101C5E0076F06CC077F0764B772B660E7319D8A49E
:101C6E003BEF0EF03DEF0EF05DEF0EF079BF44EF5F
:101C7E000EF042EF0EF050EF0EF0000E916F000ED0
:101C8E00926F800E936F3F0E946F000E796F000E61
:101C9E00786F670E7219D8B457EF0EF059EF0EF039
:101CAE005DEF0EF07851762779517723000E816F14
:101CBE00000E806F8DC082F08EC083F08FC084F0D6
:101CCE0090C085F091C07CF092C07DF093C07EF004
:101CDE0094C07FF0EEEF0EF082C032F083C033F08E
:101CEE0084C034F085C035F091C036F092C037F024
:101CFE0093C038F094C039F064EC18F032C04BF059
:101D0E0033C04CF034C04DF035C04EF0FAEC1FF03D
:101D1E004BC086F04CC087F04DC088F04EC089F0A5
:101D2E0086C001F087C002F088C003F089C004F0BD
:101D3E00DFEC24F001C074F002C075F082C02AF00E
:101D4E0083C02BF084C02CF085C02DF086C015F01A
:101D5E0087C016F088C017F089C018F091C011F036
:101D6E0092C012F093C013F094C014F04FEC16F022
:101D7E0011C02EF012C02FF013C030F014C031F08D
:101D8E0069EC2EF02AC082F02BC083F02CC084F0B8
:101D9E002DC085F091C032F092C033F093C034F074
:101DAE0094C035F0000E366E000E376E200E386E73
:101DBE00410E396E64EC18F032C091F033C092F0DF
:101DCE0034C093F035C094F00001804B812B7651D6
:101DDE00805D8151800A676F7751800A6759D8A05C
:101DEE00FBEF0EF0FDEF0EF073EF0EF091C011F061
:101DFE0092C012F093C013F094C014F0000E156E42
:101E0E00000E166EA00E176E400E186E4FEC16F0EA
:101E1E0011C086F012C087F013C088F014C089F08C
:101E2E0082C02AF083C02BF084C02CF085C02DF028
:101E3E0086C02EF087C02FF088C030F089C031F0F8
:101E4E0062EC25F0D8B02EEF0FF030EF0FF03BEF35
:101E5E000FF0000E0001866F000E876F000E886F68
:101E6E00000E896F64EF0FF082C032F083C033F042
:101E7E0084C034F085C035F086C036F087C037F0A8
:101E8E0088C038F089C039F0D3EC27F0D8A052EFD3
:101E9E000FF054EF0FF064EF0FF0000174B15AEF32
:101EAE000FF05CEF0FF064EF0FF0000E866F000E78
:101EBE00876F000E886F000E896F8DC001F08EC087
:101ECE0002F08FC003F090C004F086C005F087C00A
:101EDE0006F088C007F089C008F0EFEC13F001C0DF
:101EEE0082F002C083F003C084F004C085F082C08B
:101EFE002AF083C02BF084C02CF085C02DF0000E8C
:101F0E00156E000E166E200E176E410E186E7CC0EA
:101F1E0011F07DC012F07EC013F07FC014F04FECB4
:101F2E0016F011C02EF012C02FF013C030F014C0F6
:101F3E0031F062EC25F0D8A0A7EF0FF0A9EF0FF06B
:101F4E00D2EF0FF00001784B792B7CC011F07DC0E1
:101F5E0012F07EC013F07FC014F0000E156E000E4E
:101F6E00166E200E176E410E186E4FEC16F011C045
:101F7E007CF012C07DF013C07EF014C07FF0660EB0
:101F8E0000017319D8A4CEEF0FF0D0EF0FF0D2EFFF
:101F9E000FF0764B772B7CC091F07DC092F07EC017
:101FAE0093F07FC094F078C069F079C06AF0000EAB
:101FBE000001716F000E6E6F000E6D6F000E816F5F
:101FCE00000E806FD0EF10F082C032F083C033F07D
:101FDE0084C034F085C035F091C036F092C037F031
:101FEE0093C038F094C039F064EC18F032C04BF066
:101FFE0033C04CF034C04DF035C04EF0FAEC1FF04B
:10200E004BC086F04CC087F04DC088F04EC089F0B2
:10201E0086C001F087C002F088C003F089C004F0CA
:10202E00DFEC24F002BE27EF10F0025007E10A0E9B
:10203E00015CD8B025EF10F027EF10F037EF10F05D
:10204E0086C001F087C002F088C003F089C004F09A
:10205E00DFEC24F001C074F002C075F03CEF10F01C
:10206E00000E0001756F090E746F00017151D8A436
:10207E0043EF10F045EF10F06DEF10F06ABF4CEF2C
:10208E0010F04AEF10F06DEF10F0A00E8B25D96E08
:10209E00020E8C21DA6E2E0EDF6E8B4B8C2B7A0796
:1020AE00D8A07B07010E716F6DEF10F0A00E8B257F
:1020BE00D96E020E8C21DA6E300EDF6E8B4B8C2BAE
:1020CE007A07D8A07B076D07D8A06E076D516E11E9
:1020DE00D8A474EF10F076EF10F05DEF10F0A00EB4
:1020EE008B25D96E020E8C21DA6E7451300FDF6E95
:1020FE008B4B8C2B7A07D8A07B0782C02AF083C02B
:10210E002BF084C02CF085C02DF086C015F087C052
:10211E0016F088C017F089C018F091C011F092C067
:10212E0012F093C013F094C014F04FEC16F011C0DF
:10213E002EF012C02FF013C030F014C031F069EC45
:10214E002EF02AC082F02BC083F02CC084F02DC05C
:10215E0085F091C032F092C033F093C034F094C049
:10216E0035F0000E366E000E376E200E386E410EB4
:10217E00396E64EC18F032C091F033C092F034C076
:10218E0093F035C094F000016907D8A06A07804B20
:10219E00812B7651805D8151800A676F7751800A5D
:1021AE006759D8B0DDEF10F0DFEF10F0EDEF10F063
:1021BE008CBFEBEF10F08C5109E14B0E8B5DD8A06C
:1021CE00EBEF10F0EDEF10F0EBEF0FF0000E816F74
:1021DE004F0E806FA00E8025D96E020E8121DA6E11
:1021EE00000EDF6EA00E676F020E686F8B51675F79
:1021FE008C51685B80516725016E81516821026E9A
:10220E00A00E036E020E046E8BC005F08CC006F09D
:10221E002CEC2DF000018B51805D8B6F8C51815910
:10222E008C6F8A51D8A41EEF11F021EF11F0010E20
:10223E0022EF11F0000E806F816B8A51D8B42AEF15
:10224E0011F02CEF11F037EF11F08B07D8A08C079F
:10225E00A00E8B25D96E020E8C21DA6E8AC0DFFF9E
:10226E0080517A5F81517B5B60C011F061C012F0CA
:10227E00A00E8B25136E020E8C21146E7AC015F0F3
:10228E007BC016F0E7EC29F0120029EC30F04AEC96
:10229E0030F0B1EC2CF0BAEC2FF0E3EC2FF050EC68
:1022AE0030F0000E026EC80E016E64EC29F019ECCF
:1022BE0030F0000E0101616F010E626F010E636F4F
:1022CE00AA0E666F0F0E676FA60E686F0F0E696F00
:1022DE00000E656FC80E646F000E586F010E596FB9
:1022EE00010E5A6F250E5D6F0F0E5E6F210E5F6F22
:1022FE000F0E606F000E5C6FC80E5B6F000EDD6F11
:10230E00000EDC6F000E176F010E166F1469156943
:10231E00000EDB6F000EDA6F610E206E010E216E65
:10232E00580E226E010E236EDDEC21F07E90520EC1
:10233E000001D26F2B0ED16F000EE82EFED7D12FDB
:10234E00FCD7D22FFAD700F08EB4B0EF11F0B2EF67
:10235E0011F0ABEF11F0520E0001D26F2B0ED16FB8
:10236E00000EE82EFED7D12FFCD7D22FFAD700F0D1
:10237E00D58EE3EF13F0000ED76F000ED66F610E01
:10238E00146E010E156E580E166E010E176E15ECAC
:10239E0029F06A0E0C6E010E0D6E2AEC2BF06A0EF1
:1023AE004B6E010E4C6E4C0E4D6E010E4E6E31ECA0
:1023BE001AF0010171BFEDEF11F0F40E705D010E18
:1023CE007159D8A0EDEF11F0EFEF11F0C9EF13F046
:1023DE00144B152BF9EC2AF0610E1A6E010E1B6EC2
:1023EE00580E1C6E010E1D6E86EC2BF0610E146ED7
:1023FE00010E156E580E166E010E176EA8EC29F012
:10240E004DEF12F0090E0001D26F1E0ED16FE40EC9
:10241E00E82EFED7D12FFCD7D22FFAD700F06A0EB6
:10242E000C6E010E0D6E2AEC2BF06A0E4B6E010E29
:10243E004C6E4C0E4D6E010E4E6E31EC1AF06A0E55
:10244E004B6E010E4C6E4C0E4D6E010E4E6E1FEC11
:10245E0007F04BC0D8F14CC0D9F10101DC51D819AD
:10246E0007E1DD51D919D8A43FEF12F041EF12F078
:10247E0045EF12F0D64BD72B49EF12F0000ED76F67
:10248E00000ED66FD8C1DCF1D9C1DDF10101D7BF85
:10249E005AEF12F0D75109E1140ED65DD8A05AEFBB
:1024AE0012F05CEF12F009EF12F0720E0001B06F35
:1024BE00010EB16F010EB26F0E0EB36F4CC1B4F0C0
:1024CE004DC1B5F04EC1B6F04FC1B7F050C1B8F026
:1024DE0051C1B9F052C1BAF053C1BBF054C1BCF0F6
:1024EE0055C1BDF056C1BEF057C1BFF070C1C0F0AE
:1024FE0071C1C1F0DCC1C2F0DDC1C3F036EC2CF00D
:10250E00720E026E010E036EA2EC2FF00101DC05BD
:10251E00DD11D8A495EF12F097EF12F0B4EF12F090
:10252E00610E206E010E216E580E226E010E236E6C
:10253E0011EC2FF0000ED46E000ED36E1A0E0101A8
:10254E001425D96E010E1521DA6E010EDF6E000E06
:10255E00DB6F000EDA6FE3EF13F0020EDC19DD1104
:10256E00D8A4BCEF12F0BEEF12F0D7EF12F0610E4E
:10257E00206E010E216E580E226E010E236E5FEC40
:10258E002CF0000ED46E000ED36E1A0E010114251F
:10259E00D96E010E1521DA6E020EDF6EAEEF12F05D
:1025AE00030EDC19DD11D8A4DFEF12F0E1EF12F00B
:1025BE00FAEF12F0610E206E010E216E580E226E91
:1025CE00010E236EDAEC2CF0000ED46E000ED36EDC
:1025DE001A0E01011425D96E010E1521DA6E030EA5
:1025EE00DF6EAEEF12F0040EDC19DD11D8A402EF8F
:1025FE0013F004EF13F01DEF13F0610E206E010EB9
:10260E00216E580E226E010E236EC6EC2AF0000EBD
:10261E00D46E000ED36E1A0E01011425D96E010E62
:10262E001521DA6E040EDF6EAEEF12F0050EDC1918
:10263E00DD11D8A425EF13F027EF13F040EF13F0C0
:10264E00610E206E010E216E580E226E010E236E4B
:10265E0030EC2FF0000ED46E000ED36E1A0E010168
:10266E001425D96E010E1521DA6E050EDF6EAEEF52
:10267E0012F0060EDC19DD11D8A448EF13F04AEF64
:10268E0013F063EF13F0610E206E010E216E580EE3
:10269E00226E010E236E88EC2CF0000ED46E000E0E
:1026AE00D36E1A0E01011425D96E010E1521DA6EA4
:1026BE00060EDF6EAEEF12F0070EDC19DD11D8A498
:1026CE006BEF13F06DEF13F086EF13F0610E206ECB
:1026DE00010E216E580E226E010E236E03EC2DF0AC
:1026EE00000ED46E000ED36E1A0E01011425D96E93
:1026FE00010E1521DA6E070EDF6EAEEF12F00A0E26
:10270E00DC19DD11D8A48EEF13F090EF13F0BCEFAF
:10271E0013F0DA4BDB2BDBBF9EEF13F0DB5109E13D
:10272E00030EDA5DD8A09EEF13F0A0EF13F0ACEF1E
:10273E0013F01A0E246E010E256E3C0E266E020E3E
:10274E00276E4BEC1DF0E3EF13F0610E206E010EC1
:10275E00216E580E226E010E236E5EEC2AF0000ED4
:10276E00D46E000ED36EE3EF13F0DC51DD11D8A45E
:10277E00C3EF13F0C5EF13F0C7EF13F0A0EF13F094
:10278E00E3EF13F018511911D8B4D0EF13F0D2EFC4
:10279E0013F0E3EF13F0144B152BD8901435D96EBC
:1027AE001535DA6E3C0ED926020EDA22FF0EDE6EDB
:1027BE00FF0EDD6EA0EF13F0010116511711D8A414
:1027CE00EBEF13F0EDEF13F0C2EF11F01AEF00F094
:1027DE000450800B0D6E045004240F6E03AEFAEFFE
:1027EE0013F0FCEF13F0FDEF13F00F800F50D8B481
:1027FE0003EF14F005EF14F01AEF14F00F28D8A41D
:10280E000BEF14F00DEF14F015EF14F0000E016E37
:10281E00000E026E000E036E000E046E038E000E8E
:10282E00046E22EF14F0000E016E000E026E000E0A
:10283E00036E000E046E0850800B0E6E0D500E18B7
:10284E00D8B42CEF14F02EEF14F02FEF14F00D8CF3
:10285E00085008240E6E07AE37EF14F039EF14F05F
:10286E003AEF14F00E800E50D8B440EF14F042EF51
:10287E0014F057EF14F00E28D8A448EF14F04AEFD6
:10288E0014F052EF14F0000E056E000E066E000EE0
:10289E00076E000E086E078E000E086E5FEF14F0C6
:1028AE00000E056E000E066E000E076E000E086E10
:1028BE000F500E5CD8B066EF14F068EF14F08FEF87
:1028CE0014F00DAC6DEF14F06FEF14F071EF14F017
:1028DE00800E0D1A0FC010F00EC00FF010C00EF0CB
:1028EE0001C010F005C001F010C005F002C010F0DC
:1028FE0006C002F010C006F003C010F007C003F0CF
:10290E0010C007F004C010F008C004F010C008F0AA
:10291E00000E106E0F500EC009F00A6A095E000E0E
:10292E000A5A0ABEA4EF14F00A5009E11A0E095C05
:10293E00D8A0A4EF14F0A6EF14F0DDEF14F00150C0
:10294E00021003100410D8A4AFEF14F0B2EF14F07D
:10295E00010EB3EF14F0000E106E000E016E000E9D
:10296E00026E000E036E000E046E0EC00FF0E6EF48
:10297E0014F010A0C5EF14F0C7EF14F0CDEF14F063
:10298E00D89010300109106ECFEF14F0D89010329D
:10299E0001A0D4EF14F0D6EF14F0D7EF14F0108E90
:1029AE00043404320332023201320F2A0E500F5C0D
:1029BE00D8A0E4EF14F0E6EF14F0C0EF14F00DBC65
:1029CE00EBEF14F0EDEF14F02DEF15F00F50D8A43F
:1029DE00F3EF14F0F5EF14F0FFEF14F0000E016EAC
:1029EE00000E026E000E036E000E046E4EEF16F019
:1029FE0005500126065002220750032208500422D9
:102A0E0004A00CEF15F00EEF15F0BAEF15F010A0B4
:102A1E0013EF15F015EF15F01BEF15F0D8901030E1
:102A2E000109106E1DEF15F0D890103201A022EFA3
:102A3E0015F024EF15F025EF15F0108E0434043246
:102A4E000332023201320F2ABAEF15F00550015C43
:102A5E0006500258075003580450800A096E085059
:102A6E00800A0958D8B03EEF15F040EF15F06BEF25
:102A7E0015F00150055C096E025006580A6E03509F
:102A8E0007580B6E045008580C6EFF0E0924016E89
:102A9E00FF0E0A20026EFF0E0B20036EFF0E0C209F
:102AAE00046E800E0D1A106C1050D8A461EF15F044
:102ABE0063EF15F073EF15F0010E0126000E0222E2
:102ACE000322042273EF15F00550015E0650025AE0
:102ADE000750035A0850045A0150021003100410F4
:102AEE00D8A47CEF15F07EEF15F0B3EF15F0105073
:102AFE00D8A484EF15F086EF15F0B3EF15F0000EA5
:102B0E00016E000E026E000E036E000E046E4EEF8E
:102B1E0016F0D890013602360336043610AE9AEF10
:102B2E0015F09CEF15F09DEF15F0018010A0A2EFAF
:102B3E0015F0A4EF15F0A8EF15F0D8801036AAEF17
:102B4E0015F0D89010360F50D8B4B0EF15F0B2EF94
:102B5E0015F0B3EF15F00F0603AEB8EF15F0BAEFA0
:102B6E0015F090EF15F0000E0E6E10AEC1EF15F0D1
:102B7E00C3EF15F0DBEF15F010C009F07F0E09164C
:102B8E00D8B4CCEF15F0CEEF15F0D2EF15F0010E54
:102B9E000E6EDBEF15F001A0D7EF15F0D9EF15F0A3
:102BAE00DBEF15F0CEEF15F00E50D8B4E1EF15F0C7
:102BBE00E3EF15F00EEF16F0010E0126000E0222C5
:102BCE000322042204A0EEEF15F0F0EF15F00EEF45
:102BDE0016F001C009F002C00AF003C00BF004C0E9
:102BEE000CF00C340C320B320A32093209C001F0EF
:102BFE000AC002F00BC003F00CC004F00F28D8B4CA
:102C0E000BEF16F00DEF16F00EEF16F00F2A0F2841
:102C1E00D8B414EF16F016EF16F01EEF16F00F5094
:102C2E00D8A41CEF16F01EEF16F030EF16F0000EC3
:102C3E00016E000E026E000E036E000E046E0F503B
:102C4E00D8A42CEF16F02EEF16F030EF16F0000E83
:102C5E000D6E0FA035EF16F037EF16F03AEF16F0B7
:102C6E00038E3BEF16F0039ED8900F30046E0DAE20
:102C7E0043EF16F045EF16F046EF16F0048E01C046
:102C8E0001F002C002F003C003F004C004F0120011
:102C9E001450800B1D6E14501424236E13AE5AEF75
:102CAE0016F05CEF16F05DEF16F023802350D8B4CB
:102CBE0063EF16F065EF16F078EF16F02328D8A420
:102CCE006BEF16F06DEF16F075EF16F0000E116E3D
:102CDE00000E126E000E136E000E146E138E80EF29
:102CEE0016F0000E116E000E126E000E136E000E18
:102CFE00146E1850800B1D1A18501824226E17AE21
:102D0E008BEF16F08DEF16F08EEF16F0228022501C
:102D1E00D8B494EF16F096EF16F0A9EF16F022281D
:102D2E00D8A49CEF16F09EEF16F0A6EF16F0000E4C
:102D3E00156E000E166E000E176E000E186E178EA4
:102D4E00B1EF16F0000E156E000E166E000E176E19
:102D5E00000E186E2250D8B4B7EF16F0B9EF16F079
:102D6E00C1EF16F02350D8A4BFEF16F0C1EF16F046
:102D7E00CBEF16F0000E116E000E126E000E136EDB
:102D8E00000E146E63EF18F017501102F3CF28F0F7
:102D9E00F4CF29F028501E6E1F6A206A216A29502E
:102DAE00246E256A266A276A16501202F3CF28F07F
:102DBE00F4CF29F028501E26000E1F222022212299
:102DCE0029502426000E25222622272215501302D2
:102DDE00F3CF28F0F4CF29F028501E26000E1F2224
:102DEE002022212229502426000E252226222722A7
:102DFE0020C021F01FC020F01EC01FF01E6A15500B
:102E0E001202F3CF28F0F4CF29F028501E262950B5
:102E1E001F22000E2022000E212216501102F3CF87
:102E2E0028F0F4CF29F028501E2629501F22000E1C
:102E3E002022000E212220C021F01FC020F01EC033
:102E4E001FF01E6A15501102F3CF28F0F4CF29F0AF
:102E5E0028501E2629501F22000E2022000E21224D
:102E6E0017501202F3CF28F0F4CF29F02850242661
:102E7E0029502522000E2622000E2722165013025C
:102E8E00F3CF28F0F4CF29F02850242629502522FC
:102E9E00000E2622000E272217501302F3CF28F021
:102EAE00F4CF29F02850196E29501A6E1B6A1C6A2D
:102EBE001BC01CF01AC01BF019C01AF0196A195069
:102ECE0024261A5025221B5026221C5027221EC0B3
:102EDE0019F01FC01AF020C01BF021C01CF0190EF3
:102EEE007EEF17F0D8901C321B321A321932E82EB0
:102EFE0079EF17F0195024261A5025221B5026223E
:102F0E001C50272220C021F01FC020F01EC01FF031
:102F1E001E6A225023C019F01A6A1926000E1A22B0
:102F2E00820E1924286EFF0E1A20296EB4EF17F0A8
:102F3E00D890243625362636273621AEA9EF17F03F
:102F4E00ABEF17F0ACEF17F02480D8901E361F367B
:102F5E00203621362806D8A0290626AEB9EF17F05E
:102F6E00BBEF17F09FEF17F0000E226E21AEC2EFEF
:102F7E0017F0C4EF17F0E8EF17F0FF0E1E14196EDE
:102F8E00FF0E1F141A6EFF0E20141B6E7F0E2114DF
:102F9E001C6E19501A101B101C10D8B4D9EF17F054
:102FAE00DBEF17F0DFEF17F0010E226EE8EF17F0F0
:102FBE0024A0E4EF17F0E6EF17F0E8EF17F0DBEFE1
:102FCE0017F02250D8B4EEEF17F0F0EF17F014EF21
:102FDE0018F0010E2426000E25222622272227A0D5
:102FEE00FBEF17F0FDEF17F014EF18F024C019F0F7
:102FFE0025C01AF026C01BF027C01CF01C341C3252
:10300E001B321A32193219C024F01AC025F01BC017
:10301E0026F01CC027F0284A292A29BE1FEF18F0D7
:10302E00295008E12828D8A01FEF18F021EF18F03A
:10303E002BEF18F0000E246E000E256E800E266EFD
:10304E007F0E276E59EF18F029BE38EF18F0295071
:10305E0006E12804D8B036EF18F038EF18F044EF38
:10306E0018F0000E246E000E256E000E266E000E59
:10307E00276E000E1D6E59EF18F028C023F0FF0EBC
:10308E002416FF0E25167F0E2616000E271623A0D9
:10309E0053EF18F055EF18F056EF18F0268ED89023
:1030AE002330276E1D50271224C011F025C012F0B8
:1030BE0026C013F027C014F012003550800B426E5C
:1030CE0035503524496E34AE6FEF18F071EF18F0AD
:1030DE0072EF18F049804950D8B478EF18F07AEFB3
:1030EE0018F08FEF18F04928D8A480EF18F082EF6F
:1030FE0018F08AEF18F0000E326E000E336E000ECE
:10310E00346E000E356E348E000E356E97EF18F05D
:10311E00000E326E000E336E000E346E000E356EE3
:10312E003950800B421A395039244A6E38AEA2EF0C
:10313E0018F0A4EF18F0A5EF18F04A804A50D8B452
:10314E00ABEF18F0ADEF18F0C2EF18F04A28D8A484
:10315E00B3EF18F0B5EF18F0BDEF18F0000E366EA5
:10316E00000E376E000E386E000E396E388E000E61
:10317E00396ECAEF18F0000E366E000E376E000E66
:10318E00386E000E396E3650371038103910D8A4FC
:10319E00D3EF18F0D5EF18F0EDEF18F0000E326EF9
:1031AE00000E336E000E346E000E356E800E34122D
:1031BE007F0E35124250351232C032F033C033F02A
:1031CE0034C034F035C035F030EF1AF04950D8A481
:1031DE00F3EF18F0F5EF18F0FFEF18F0000E326E67
:1031EE00000E336E000E346E000E356E30EF1AF098
:1031FE004A5049C03AF03B6A3A5E000E3B5A7F0E87
:10320E003A24436E000E3B20446E32C03EF033C073
:10321E003FF034C040F035C041F0000E326E000E6B
:10322E00336E000E346E000E356E000E456E000EBF
:10323E00466E000E476E000E486E000E4A6E60EF30
:10324E0019F04A50D8B42EEF19F030EF19F047EFBD
:10325E0019F0D8903E363F3640364136D890323649
:10326E0033363436353648AE3FEF19F041EF19F0AC
:10327E0042EF19F03280D8904536463647364836FA
:10328E0036503E5C37503F583850405839504158B0
:10329E00D8A054EF19F056EF19F05FEF19F0488CE3
:1032AE0036503E5E37503F5A3850405A3950415A88
:1032BE004A2A190E4A6466EF19F068EF19F028EFE2
:1032CE0019F03E503F1040104110D8B471EF19F074
:1032DE0073EF19F08BEF19F045808BEF19F0D89042
:1032EE00323633363436353648AE80EF19F082EF4B
:1032FE0019F083EF19F03280D890453646364736AE
:10330E0048364306D8A0440634AE90EF19F092EF3B
:10331E0019F076EF19F0000E4A6E48AE99EF19F0DB
:10332E009BEF19F0BFEF19F0FF0E45143A6EFF0E2A
:10333E0046143B6EFF0E47143C6E7F0E48143D6ED6
:10334E003A503B103C103D10D8B4B0EF19F0B2EF2C
:10335E0019F0B6EF19F0010E4A6EBFEF19F032A058
:10336E00BBEF19F0BDEF19F0BFEF19F0B2EF19F086
:10337E004A50D8B4C5EF19F0C7EF19F0EBEF19F0BA
:10338E00010E3226000E33223422352235A0D2EF22
:10339E0019F0D4EF19F0EBEF19F032C03AF033C058
:1033AE003BF034C03CF035C03DF03D343D323C3254
:1033BE003B323A323AC032F03BC033F03CC034F0CC
:1033CE003DC035F0434A442A44BEF6EF19F044504E
:1033DE0008E14328D8A0F6EF19F0F8EF19F003EF43
:1033EE001AF0000E446E4368000E326E000E336EFD
:1033FE00000E346E000E356E44BE10EF1AF04450BF
:10340E0006E14304D8B00EEF1AF010EF1AF01EEFDB
:10341E001AF0000E446E000E436E000E326E000E59
:10342E00336E000E346E000E356E000E426E43C0CB
:10343E0049F049A025EF1AF027EF1AF02AEF1AF0FB
:10344E00348E2BEF1AF0349ED8904930356EE1EF62
:10345E0018F012004BC0D9FF4CC0DAFFDECF01F0DE
:10346E00DDCF02F0000E02BEFF0E036E046E010EE3
:10347E0003EC21F001C06CF002C06DF003C06EF0E1
:10348E0004C06FF020EE02F04B50D9264C50DA22D9
:10349E00DECF01F0DDCF02F0000E02BEFF0E036E96
:1034AE00046E010E03EC21F001C070F002C071F049
:1034BE0003C072F004C073F020EE04F04B50D92616
:1034CE004C50DA22DECF01F0DDCF02F0000E02BE4C
:1034DE00FF0E036E046E010E03EC21F001C074F0BA
:1034EE0002C075F003C076F004C077F020EE06F04F
:1034FE004B50D9264C50DA22DECF01F0DDCF02F050
:10350E00000E02BEFF0E036E046E010E03EC21F0E0
:10351E0001C060F002C061F003C062F004C063F04D
:10352E0070C005F071C006F072C007F073C008F0ED
:10353E006CC001F06DC002F06EC003F06FC004F0FD
:10354E00EFEC13F001C064F002C065F003C066F04A
:10355E0004C067F074C005F075C006F076C007F0C1
:10356E0077C008F064C001F065C002F066C003F0D9
:10357E0067C004F0EFEC13F001C068F002C069F010
:10358E0003C06AF004C06BF06CC032F06DC033F053
:10359E006EC034F06FC035F060C005F061C006F04B
:1035AE0062C007F063C008F068C001F069C002F0A5
:1035BE006AC003F06BC004F0EFEC13F001C036F0FC
:1035CE0002C037F003C038F004C039F064EC18F0D4
:1035DE004DC0D9FF4EC0DAFF32C0DEFF33C0DEFF72
:1035EE0034C0DEFF35C0DEFF70C005F071C006F0DE
:1035FE0072C007F073C008F06CC001F06DC002F02D
:10360E006EC003F06FC004F0EFEC13F001C064F075
:10361E0002C065F003C066F004C067F074C005F028
:10362E0075C006F076C007F077C008F064C001F0F0
:10363E0065C002F066C003F067C004F0EFEC13F053
:10364E0001C068F002C069F003C06AF004C06BF0FC
:10365E0074C032F075C033F076C034F077C035F0F8
:10366E0060C005F061C006F062C007F063C008F0EC
:10367E0068C001F069C002F06AC003F06BC004F0CC
:10368E00EFEC13F001C036F002C037F003C038F093
:10369E0004C039F064EC18F020EE08F04D50D92635
:1036AE004E50DA2232C0DEFF33C0DEFF34C0DEFF02
:1036BE0035C0DEFF70C005F071C006F072C007F0B5
:1036CE0073C008F06CC001F06DC002F06EC003F064
:1036DE006FC004F0EFEC13F001C064F002C065F0AF
:1036EE0003C066F004C067F074C005F075C006F044
:1036FE0076C007F077C008F064C001F065C002F034
:10370E0066C003F067C004F0EFEC13F001C068F080
:10371E0002C069F003C06AF004C06BF070C032F0F2
:10372E0071C033F072C034F073C035F060C005F074
:10373E0061C006F062C007F063C008F068C001F017
:10374E0069C002F06AC003F06BC004F0EFEC13F036
:10375E0001C036F002C037F003C038F004C039F0B3
:10376E0064EC18F020EE04F04D50D9264E50DA22BB
:10377E0032C0DEFF33C0DEFF34C0DEFF35C0DEFFF9
:10378E00120097C0D9FF98C0DAFFDECFF6FFDDCF6B
:10379E00F7FF000EF86E0800F550250AD8A4DAEFF0
:1037AE001BF0DCEF1BF034EF1DF097C0D9FF98C073
:1037BE00DAFFDE2A000EDD22000E0001E86F000E99
:1037CE00E76FE7C0EBF0E969EA6997C0D9FF98C0E7
:1037DE00DAFFDECFA6F0DDCFA7F0A6C0F6FFA7C0BA
:1037EE00F7FF000EF86E0800F550640AD8B402EF29
:1037FE001CF004EF1CF014EF1CF0A6C0F6FFA7C0DF
:10380E00F7FF000EF86E0800F550690AD8A412EF03
:10381E001CF014EF1CF057EF1CF099C0D9FF9AC0A2
:10382E00DAFFDFCF9BF0020EDE26DFCF9CF0000E1C
:10383E00DD229BC0D9FF9CC0DAFFDECF9DF0DDCF2D
:10384E009EF0000E9EBFFF0E9F6FA06FA16FA26F26
:10385E00A36FA46F010EA6259B6F000EA7219C6F70
:10386E0097C0D9FF98C0DAFF9BC0DEFF9CC0DDFF7A
:10387E0095C01CF096C01DF09DC01EF09EC01FF09E
:10388E009FC020F0A0C021F0A1C022F0A2C023F062
:10389E00A3C024F0A4C025F0BBEC1EF04AEF1DF02F
:1038AE0097C0D9FF98C0DAFFDECFA6F0DDCFA7F024
:1038BE00A6C0F6FFA7C0F7FF000EF86E0800F5CF02
:1038CE00A5F076EF1CF0A64BA72B8FEF1CF06C0E1D
:1038DE00A56F8FEF1CF0000EA56F8FEF1CF0A5519A
:1038EE009B6F9C6B9C51000AD8B480EF1CF072EF5A
:1038FE001CF09B514C0AD8B46AEF1CF02A0AD8B4BB
:10390E006EEF1CF00A0AD8B46AEF1CF072EF1CF0CE
:10391E00A6C0F6FFA7C0F7FF000EF86E0800F55020
:10392E00660AD8A49DEF1CF09FEF1CF02BEF1DF044
:10393E00D5EF1CF099C0D9FF9AC0DAFFDFCF9BF00C
:10394E00040EDE26DFCF9CF0000EDD229BC0D9FFD9
:10395E009CC0DAFFDECF9DF0DECF9EF0DECF9FF073
:10396E00DECFA0F0EAEF1CF099C0D9FF9AC0DAFFC3
:10397E00DFCF9BF0040EDE26DFCF9CF0000EDD22A3
:10398E009BC0D9FF9CC0DAFFDECF9DF0DECF9EF04C
:10399E00DECF9FF0DECFA0F0EAEF1CF0A5519B6FBB
:1039AE009C6B9C51000AD8B4DFEF1CF0EAEF1CF0C0
:1039BE009B514C0AD8B4BBEF1CF0200AD8B4A1EF2F
:1039CE001CF0EAEF1CF0010EA6259B6F000EA7213E
:1039DE009C6F97C0D9FF98C0DAFF9BC0DEFF9CC0DA
:1039EE00DDFF13EF1DF095C060F096C061F09DC035
:1039FE0062F09EC063F09FC064F0A0C065F0A6C0E8
:103A0E00F6FFA7C0F7FF000EF86E0800F5CF66F0C0
:103A1E004FEC0CF04AEF1DF0A6C0F6FFA7C0F7FF63
:103A2E00000EF86E0800F5509B6F9C6B9C51000ABF
:103A3E00D8B424EF1DF02BEF1DF09B51660AD8B4BD
:103A4E00FAEF1CF02BEF1DF097C0D9FF98C0DAFFEC
:103A5E00DE2A000EDD224AEF1DF097C0D9FF98C076
:103A6E00DAFFDECFF6FFDDCFF7FF000EF86E0800AF
:103A7E00F550016E026A95C003F096C004F063EC37
:103A8E0026F02BEF1DF01200610E206E010E216E3E
:103A9E00580E226E010E236EC6EC2AF0D59E14C16E
:103AAE002BF015C12CF02CBE61EF1DF05FEF1DF059
:103ABE0063EF1DF0BAEF1EF0610E146E010E156E5F
:103ACE00580E166E010E176ED8902B34D96E2C34FC
:103ADE00DA6E2650D9262750DA22DECF18F0DDCF47
:103AEE0019F07EEC27F02B502424286E2C50252024
:103AFE00296EFF0E2824D96EFF0E2920DA6EDE0401
:103B0E00D8A48CEF1DF08EEF1DF0A4EF1DF0610E0A
:103B1E001A6E010E1B6E580E1C6E010E1D6E59ECA8
:103B2E002BF0610E206E010E216E580E226E010ECC
:103B3E00236E30EC2FF0A6EF1EF02B502424286EAF
:103B4E002C502520296EFF0E2824D96EFF0E292019
:103B5E00DA6E020EDE18D8A4B7EF1DF0B9EF1DF025
:103B6E00CFEF1DF0610E1A6E010E1B6E580E1C6EFD
:103B7E00010E1D6E59EC2BF0610E206E010E216EA2
:103B8E00580E226E010E236E88EC2CF0A6EF1EF05E
:103B9E002B502424286E2C502520296EFF0E28240D
:103BAE00D96EFF0E2920DA6E030EDE18D8A4E2EFCE
:103BBE001DF0E4EF1DF0FAEF1DF0610E1A6E010E0E
:103BCE001B6E580E1C6E010E1D6E59EC2BF0610E05
:103BDE00206E010E216E580E226E010E236EC8EC61
:103BEE0026F0A6EF1EF02B502424286E2C502520F4
:103BFE00296EFF0E2824D96EFF0E2920DA6E040ED0
:103C0E00DE18D8A40DEF1EF00FEF1EF025EF1EF0FC
:103C1E00610E1A6E010E1B6E580E1C6E010E1D6E7D
:103C2E0059EC2BF0610E206E010E216E580E226E95
:103C3E00010E236EC6EC2AF0A6EF1EF02B502424A4
:103C4E00286E2C502520296EFF0E2824D96EFF0ECB
:103C5E002920DA6E050EDE18D8A438EF1EF03AEFE2
:103C6E001EF050EF1EF0610E1A6E010E1B6E580EF6
:103C7E001C6E010E1D6E59EC2BF0610E206E010EA6
:103C8E00216E580E226E010E236E11EC2FF0A6EF50
:103C9E001EF02B502424286E2C502520296EFF0E4A
:103CAE002824D96EFF0E2920DA6E060EDE18D8A44F
:103CBE0063EF1EF065EF1EF07BEF1EF0610E1A6EC5
:103CCE00010E1B6E580E1C6E010E1D6E59EC2BF064
:103CDE00610E206E010E216E580E226E010E236EA5
:103CEE005FEC2CF0A6EF1EF02B502424286E2C50E7
:103CFE002520296EFF0E2824D96EFF0E2920DA6E9C
:103D0E00070EDE18D8A48EEF1EF090EF1EF0A6EF71
:103D1E001EF0610E1A6E010E1B6E580E1C6E010EF9
:103D2E001D6E59EC2BF0610E206E010E216E580E99
:103D3E00226E010E236E23EC27F0A6EF1EF0610E0D
:103D4E00146E010E156E580E166E010E176EA8EC3F
:103D5E0029F0000E0101176F000E166F2B06D8A06A
:103D6E002C065AEF1DF012001EC034F01FC035F0A5
:103D7E0020C036F021C037F022C038F023C039F011
:103D8E0024C03AF025C03BF03BBED0EF1EF0D3EF7F
:103D9E001EF0010ED4EF1EF0000E3E6E3E50D8B453
:103DAE00DBEF1EF0DDEF1EF0EDEF1EF03B1E3A1EB8
:103DBE00391E381E371E361E351E346C000E352247
:103DCE0036223722382239223A223B220001EABF1C
:103DDE00FBEF1EF0EA5106E1E905D8B0F9EF1EF04F
:103DEE00FBEF1EF001EF1FF0000E316E010E306E74
:103DFE0005EF1FF0E9C030F0EAC031F0E7C032F055
:103E0E00E8C033F03E50D8B40FEF1FF011EF1FF0A3
:103E1E0028EF1FF03206D8A033063E50D8A41AEF72
:103E2E001FF01CEF1FF022EF1FF0000E2F6E2B0E57
:103E3E002E6E26EF1FF0000E2F6E2D0E2E6E2EC044
:103E4E003EF0000E3D6E4F0E3C6E000E0201EF6F07
:103E5E00ADEF1FF03C06D8A03D06A00E3C24D96E57
:103E6E00020E3D20DA6E34C001F035C002F036C0CD
:103E7E0003F037C004F038C005F039C006F03AC080
:103E8E0007F03BC008F00A0E096E000E0A6E000E17
:103E9E000B6E000E0C6E000E0D6E000E0E6E000EF2
:103EAE000F6E000E106E2DEC24F001C026F002C035
:103EBE0027F003C028F004C029F005C02AF006C080
:103ECE002BF007C02CF008C02DF026C013F027C031
:103EDE0014F0F1EC2EF01350300FDF6E3006D8A038
:103EEE0031063206D8A0330634C001F035C002F0D8
:103EFE0036C003F037C004F038C005F039C006F004
:103F0E003AC007F03BC008F00A0E096E000E0A6EAA
:103F1E00000E0B6E000E0C6E000E0D6E000E0E6E71
:103F2E00000E0F6E000E106EB3EC22F001C034F0D6
:103F3E0002C035F003C036F004C037F005C038F0CB
:103F4E0006C039F007C03AF008C03BF03DBEB8EFEE
:103F5E001FF03D5008E13C04D8A0B8EF1FF0BAEFB7
:103F6E001FF0D6EF1FF034503510361037103810C2
:103F7E0039103A103B10D8A4C7EF1FF0C9EF1FF04D
:103F8E0031EF1FF031BED6EF1FF0315006E1300495
:103F9E00D8B0D4EF1FF0D6EF1FF031EF1FF03E5028
:103FAE00D8B4DCEF1FF0DEEF1FF0E9EF1FF03C0698
:103FBE00D8A03D06A00E3C24D96E020E3D20DA6E2E
:103FCE003EC0DFFF1CC011F01DC012F0A00E3C243D
:103FDE00136E020E3D20146E32C015F033C016F073
:103FEE00E7EC29F01200DFC05BF0E0C05CF0E1C04E
:103FFE005DF0E2C05EF04BC05BF04CC05CF04DC0BB
:10400E005DF04EC05EF0810E4F6EFF0E506E5BC0C7
:10401E0051F05CC052F05DC053F05EC054F0180E0B
:10402E001EEF20F0D8905432533252325132E82ED5
:10403E0019EF20F051504F24596E000E50205A6E39
:10404E005ABE33EF20F05A5009E1170E595CD8A032
:10405E0033EF20F035EF20F03FEF20F04BC04BF068
:10406E004CC04CF04DC04DF04EC04EF002EF21F062
:10407E005ABE44EF20F046EF20F0B6EF20F059C0C4
:10408E004FF0FF0E506EFF0E516E7F0E526E000EF1
:10409E00536E4F6655EF20F05DEF20F053345332E0
:1040AE005232513250324F2E50EF20F050C055F058
:1040BE0051C056F052C057F053C058F055505B14D3
:1040CE004F6E56505C14506E57505D14516E5850D2
:1040DE005E14526E4F50501051105210D8A47AEFF9
:1040EE0020F07CEF20F07EEF20F035EF20F05BC06B
:1040FE004FF05CC050F05DC051F05EC052F0200E2B
:10410E008EEF20F0D8905232513250324F32E82E8C
:10411E0089EF20F04F50501051105210D8B49AEF32
:10412E0020F09CEF20F0A4EF20F055505B26565067
:10413E005C2257505D2258505E22551C4F6E561C05
:10414E00506E571C516E581C526E4F505B1650508D
:10415E005C1651505D1652505E16FAEF20F05BC0A1
:10416E004FF05CC050F05DC051F05EC052F0200EBA
:10417E00C6EF20F0D8905232513250324F32E82EE4
:10418E00C1EF20F04F50501051105210D8A4D2EF62
:10419E0020F0D4EF20F0DEEF20F0000E5B6E000E6C
:1041AE005C6E000E5D6E000E5E6EFAEF20F0D89023
:1041BE005B344F6E5C34506E5D34516E5E34526EB5
:1041CE004F50501051105210D8B4F0EF20F0F2EFC3
:1041DE0020F0FAEF20F0000E5B6E000E5C6E800E8B
:1041EE005D6EBF0E5E6E5BC04BF05CC04CF05DC092
:1041FE004DF05EC04EF01200096E0950D8B40AEFB1
:10420E0021F00CEF21F02EEF21F004BE13EF21F080
:10421E0011EF21F02EEF21F001C005F002C006F0E3
:10422E0003C007F004C008F0051E061E071E081E78
:10423E00052A000E06220722082205C00BF006C032
:10424E000CF007C00DF008C00EF036EF21F001C0E3
:10425E000BF002C00CF003C00DF004C00EF00150C4
:10426E00021003100410D8A43FEF21F041EF21F00B
:10427E004BEF21F0000E016E000E026E000E036E6B
:10428E00000E046EDCEF21F0960E0A6E55EF21F053
:10429E000A2AD8900E320D320C320B32000E0B144D
:1042AE00056E000E0C14066E000E0D14076EFE0E3B
:1042BE000E14086E0550061007100810D8A46AEFE9
:1042CE0021F06CEF21F04FEF21F07AEF21F00A2A66
:1042DE00010E0B26000E0C220D220E22D8900E324D
:1042EE000D320C320B32000E0B14056E000E0C1438
:1042FE00066E000E0D14076EFF0E0E14086E05509E
:10430E00061007100810D8A48FEF21F091EF21F0BE
:10431E006EEF21F099EF21F00A06D8900B360C368D
:10432E000D360E360DBE9EEF21F0A0EF21F0A8EF58
:10433E0021F0020E0A60A6EF21F0A8EF21F093EF14
:10434E0021F00AB0ADEF21F0AFEF21F0B0EF21F088
:10435E000D9ED8900A320AC005F0066A076A086AEE
:10436E0005C008F0076A066A056A05500B1206506A
:10437E000C1207500D1208500E120950D8B4CAEF85
:10438E0021F0CCEF21F0D4EF21F004BED3EF21F0D9
:10439E00D1EF21F0D4EF21F00E8E0BC001F00CC046
:1043AE0002F00DC003F00EC004F012007E80520E1B
:1043BE00256E2B0E246E000EE82EFED7242EFCD773
:1043CE00252EFAD700D097EF22F07C86610E1A6E5A
:1043DE00010E1B6E580E1C6E010E1D6E42EC2EF061
:1043EE00610E1A6E010E1B6E580E1C6E010E1D6EA6
:1043FE0042EC2EF0610E1A6E010E1B6E580E1C6EE4
:10440E00010E1D6E42EC2EF0610E1A6E010E1B6E29
:10441E00580E1C6E010E1D6E42EC2EF07CEF22F03B
:10442E007C88A30E256E570E246E020EE82EFED744
:10443E00242EFCD7252EFAD700D08EB629EF22F0E7
:10444E002BEF22F044EF22F08EB430EF22F032EF59
:10445E0022F044EF22F080867C8E520E256E2B0EBB
:10446E00246E000EE82EFED7242EFCD7252EFAD76A
:10447E0000D080967C9E7CEF22F08EB649EF22F023
:10448E004BEF22F060EF22F00A0E0001F227000E31
:10449E00F3238086520E256E2B0E246E000EE82E10
:1044AE00FED7242EFCD7252EFAD700D080967CEF8F
:1044BE0022F08EB465EF22F067EF22F07CEF22F04F
:1044CE000001F60EF227FF0EF3237C8E520E256EA0
:1044DE002B0E246E000EE82EFED7242EFCD7252E92
:1044EE00FAD700D07C9E7CEF22F08EA481EF22F0D2
:1044FE0083EF22F08AEF22F08EB688EF22F08AEF59
:10450E0022F017EF22F07C98A30E256E570E246E24
:10451E00020EE82EFED7242EFCD7252EFAD700D079
:10452E008EB49CEF22F09EEF22F0ECEF21F08EB6CF
:10453E00A3EF22F0A5EF22F0ECEF21F07C96A30E74
:10454E00256E570E246E020EE82EFED7242EFCD7B3
:10455E00252EFAD700D01200000E126E10BEBCEF40
:10456E0022F0BAEF22F0CEEF22F0101E0F1E0E1E1A
:10457E000D1E0C1E0B1E0A1E096C000E0A220B22AB
:10458E000C220D220E220F221022010E126E08BED8
:10459E00D5EF22F0D3EF22F0E7EF22F0081E071E30
:1045AE00061E051E041E031E021E016C000E0222B4
:1045BE00032204220522062207220822010E121AC5
:1045CE0020EE13F0070EDE6AE806FDE209500A102F
:1045DE000B100C100D100E100F101010D8B4FAEFA7
:1045EE0022F0FCEF22F04EEF23F0010E116E0AEFD7
:1045FE0023F0D89009360A360B360C360D360E36A9
:10460E000F361036112A10AE0FEF23F011EF23F0F4
:10461E0000EF23F0D89013361436153616361736AB
:10462E00183619361A360950015C0A5002580B50CA
:10463E0003580C5004580D5005580E5006580F5084
:10464E00075810500858D8A02FEF23F031EF23F061
:10465E0042EF23F00950015E0A50025A0B50035AE2
:10466E000C50045A0D50055A0E50065A0F50075A48
:10467E001050085A1380D89010320F320E320D326D
:10468E000C320B320A320932112E11EF23F0125076
:10469E00D8B454EF23F056EF23F066EF23F01A1E32
:1046AE00191E181E171E161E151E141E136C000E34
:1046BE001422152216221722182219221A2213C08A
:1046CE0001F014C002F015C003F016C004F017C0BC
:1046DE0005F018C006F019C007F01AC008F0120055
:1046EE0020EE02F00E50D9260F50DA22DF50D8B449
:1046FE0083EF23F085EF23F0B9EF23F00EC0D9FF3F
:10470E000FC0DAFFDF50106E1050016E026A20EEFD
:10471E0003F00E50D9260F50DA22DECF03F0DDCF94
:10472E0004F0F6EC2FF001C007F002C008F0000E06
:10473E000A6E640E096E24EC2AF020EE03F00E5081
:10474E00D9260F50DA22DF50116E0750115C126E0F
:10475E0020EE03F00E50D9260F50DA22DF50136EE2
:10476E00DCEF23F0000E126E0EC0D9FF0FC0DAFF81
:10477E00DF50106E1050016E026A20EE03F00E50E4
:10478E00D9260F50DA22DECF03F0DDCF04F0F6EC9F
:10479E002FF001C007F002C008F0000E0A6E640E82
:1047AE00096E24EC2AF00750136E20EE01F00E5025
:1047BE00D9260F50DA22DF50D8B4E8EF23F0EAEF13
:1047CE0023F00CEF24F020EE05F00E50D9260F50FA
:1047DE00DA22DECF10F0DDCF11F010C0D9FF11C0FC
:1047EE00DAFF12C0DFFF20EE07F00E50D9260F5071
:1047FE00DA22DECF10F0DDCF11F010C0D9FF11C0DC
:10480E00DAFF13C0DFFF2CEF24F020EE05F00E5080
:10481E00D9260F50DA22DECF10F0DDCF11F010C006
:10482E00D9FF11C0DAFF13C0DFFF20EE07F00E50E4
:10483E00D9260F50DA22DECF10F0DDCF11F010C0E6
:10484E00D9FF11C0DAFF12C0DFFF1200000E126E88
:10485E0008BE36EF24F034EF24F048EF24F0081EA3
:10486E00071E061E051E041E031E021E016C000EF0
:10487E000222032204220522062207220822010E0A
:10488E00126E10BE4FEF24F04DEF24F05FEF24F0C8
:10489E00101E0F1E0E1E0D1E0C1E0B1E0A1E096C68
:1048AE00000E0A220B220C220D220E220F221022A3
:1048BE0009500A100B100C100D100E100F101010C6
:1048CE00D8B46CEF24F06EEF24F0B6EF24F0010EA6
:1048DE00116E7CEF24F0D89009360A360B360C3662
:1048EE000D360E360F361036112A10AE81EF24F02B
:1048FE0083EF24F072EF24F00950015C0A50025845
:10490E000B5003580C5004580D5005580E500658B5
:10491E000F50075810500858D8A098EF24F09AEF6F
:10492E0024F0AAEF24F00950015E0A50025A0B50EF
:10493E00035A0C50045A0D50055A0E50065A0F5079
:10494E00075A1050085AD89010320F320E320D32CC
:10495E000C320B320A320932112E83EF24F0125030
:10496E00D8B4BCEF24F0BEEF24F0CEEF24F0081E36
:10497E00071E061E051E041E031E021E016C000EDF
:10498E00022203220422052206220722082201C047
:10499E0001F002C002F003C003F004C004F005C031
:1049AE0005F006C006F007C007F008C008F01200B8
:1049BE00033404340A6E0A50D8A4E8EF24F0EAEF68
:1049CE0024F0F4EF24F0000E016E000E026E000EC5
:1049DE00036E000E046E61EF25F001C005F002C0FB
:1049EE0006F003C007F004C008F0200E04EF25F017
:1049FE00D8900832073206320532E82EFFEF24F047
:104A0E000550096E038EFF0E0116FF0E0216FF0EE5
:104A1E000316000E0416960E0A5E0ABE1BEF25F054
:104A2E0019EF25F031EF25F00A50800A970FD8B014
:104A3E0023EF25F025EF25F027EF25F0EAEF24F000
:104A4E00D89004320332023201320A3E27EF25F0AB
:104A5E0049EF25F01F0E0A6437EF25F039EF25F0E8
:104A6E0041EF25F0EAEF24F0D890013602360336F6
:104A7E0004360A060A50D8A447EF25F049EF25F070
:104A8E003BEF25F00950D8B44FEF25F051EF25F04C
:104A9E0059EF25F0041E031E021E016C000E0222A9
:104AAE000322042201C001F002C002F003C003F091
:104ABE0004C004F01200000E2A14326E000E2B14E5
:104ACE00336E800E2C14346E7F0E2D14356E3250D4
:104ADE00331034103510D8A477EF25F079EF25F088
:104AEE0081EF25F0000E2A6E000E2B6E000E2C6E3E
:104AFE00000E2D6E000E2E14326E000E2F14336E1D
:104B0E00800E3014346E7F0E3114356E32503310E9
:104B1E0034103510D8A496EF25F098EF25F0A0EFBD
:104B2E0025F0000E2E6E000E2F6E000E306E000E53
:104B3E00316E2DAEA5EF25F0A7EF25F0B0EF25F0E5
:104B4E002A6C2B1ED8B02B2A2C1ED8B02C2A800EE5
:104B5E002D5631AEB5EF25F0B7EF25F0C0EF25F0AD
:104B6E002E6C2F1ED8B02F2A301ED8B0302A800EB1
:104B7E003156000E2A1A000E2B1A000E2C1A800E19
:104B8E002D1A000E2E1A000E2F1A000E301A800E3D
:104B9E00311A2E502A5C2F502B5830502C58315031
:104BAE002D58D8B0DDEF25F0DFEF25F0E2EF25F040
:104BBE00D890E3EF25F0D8801200E3C00BF0E4C0EC
:104BCE000CF0E5C00DF0E6C00EF001C00BF002C017
:104BDE000CF003C00DF004C00EF00BC005F00CC0BD
:104BEE0006F00DC007F00EC008F0180E04EF26F008
:104BFE00D8900832073206320532E82EFFEF25F044
:104C0E000550096E0A6A09500A10D8A411EF26F051
:104C1E0013EF26F033EF26F0D8900B34056E0C34DC
:104C2E00066E0D34076E0E34086E05500610071012
:104C3E000810D8A425EF26F027EF26F02DEF26F04A
:104C4E00000E026E020E016E62EF26F0000E026E74
:104C5E00030E016E62EF26F009280A10D8A43AEF6F
:104C6E0026F03CEF26F05EEF26F00BC005F00CC0F0
:104C7E0006F00DC007F00EC008F0090ED8900536EC
:104C8E00063607360836E82E45EF26F00550061094
:104C9E0007100810D8B456EF26F059EF26F0010E83
:104CAE005AEF26F0000E016E026A62EF26F0000E39
:104CBE00026E040E016E120003500410D8B46AEF97
:104CCE0026F06CEF26F075EF26F003500410D8A4F2
:104CDE0073EF26F075EF26F07AEF26F0015068ECB0
:104CEE0030F0C7EF26F020EE09F00350D92604501D
:104CFE00DA22DE50DE10D8B487EF26F089EF26F0E8
:104D0E00A4EF26F020EE09F00350D9260450DA2243
:104D1E0010EE03F00350E1260450E222DE50E65C72
:104D2E00E650800A096EDE50800A0958D8B0A2EF0C
:104D3E0026F0A4EF26F0C7EF26F020EE03F0035086
:104D4E00D9260450DA22DECF05F0DDCF06F003C0FF
:104D5E00D9FF04C0DAFFDECF07F0DDCF08F0055033
:104D6E000724D96E06500820DA6E01C0DFFF20EE50
:104D7E0003F00350D9260450DA22DE2A000EDD227B
:104D8E001200610E1A6E010E1B6E580E1C6E010E75
:104D9E001D6E59EC2BF0610E1A6E010E1B6E580E25
:104DAE001C6E010E1D6E1BEC2EF0610E1A6E010EA6
:104DBE001B6E580E1C6E010E1D6E1BEC2EF0610E3E
:104DCE001A6E010E1B6E580E1C6E010E1D6EB3EC8C
:104DDE002BF0610E1A6E010E1B6E580E1C6E010E1C
:104DEE001D6E59EC2BF0610E1A6E010E1B6E580ED5
:104DFE001C6E010E1D6E1BEC2EF0610E1A6E010E56
:104E0E001B6E580E1C6E010E1D6E1BEC2EF0610EED
:104E1E001A6E010E1B6E580E1C6E010E1D6E1BECD3
:104E2E002EF0610E1A6E010E1B6E580E1C6E010EC8
:104E3E001D6E1BEC2EF01200610E1A6E010E1B6E13
:104E4E00580E1C6E010E1D6E59EC2BF0610E1A6E73
:104E5E00010E1B6E580E1C6E010E1D6E42EC2EF0D6
:104E6E00610E1A6E010E1B6E580E1C6E010E1D6E1B
:104E7E0042EC2EF0610E1A6E010E1B6E580E1C6E59
:104E8E00010E1D6EB3EC2BF0610E1A6E010E1B6E31
:104E9E00580E1C6E010E1D6E59EC2BF0610E1A6E23
:104EAE00010E1B6E580E1C6E010E1D6E42EC2EF086
:104EBE00610E1A6E010E1B6E580E1C6E010E1D6ECB
:104ECE0042EC2EF0610E1A6E010E1B6E580E1C6E09
:104EDE00010E1D6E42EC2EF0610E1A6E010E1B6E4F
:104EEE00580E1C6E010E1D6E42EC2EF0120020EEBE
:104EFE0001F01450D9261550DA22010EDF6E20EE85
:104F0E0001F01650D9261750DA22010EDF6EB4EFDB
:104F1E0027F014C0D9FF15C0DAFF0A0EDF2616C01F
:104F2E00D9FF17C0DAFF0A0EDF2614C00EF015C027
:104F3E000FF077EC23F016C00EF017C00FF077ECE1
:104F4E0023F0020E1B6EA00E1A6E920EE82EFED7E6
:104F5E001A2EFCD71B2EFAD700D014C0D9FF15C0BD
:104F6E00DAFF320EDF60BEEF27F0C0EF27F0CCEF96
:104F7E0027F016C0D9FF17C0DAFF310EDF64CAEF73
:104F8E0027F0CCEF27F090EF27F018C001F019C0F2
:104F9E0002F06BEC2FF01200000E32143A6E000E7F
:104FAE0033143B6E800E34143C6E7F0E35143D6E02
:104FBE003A503B103C103D10D8A4E8EF27F0EAEF32
:104FCE0027F0F2EF27F0000E326E000E336E000E59
:104FDE00346E000E356E000E36143A6E000E371417
:104FEE003B6E800E38143C6E7F0E39143D6E3A5077
:104FFE003B103C103D10D8A407EF28F009EF28F025
:10500E0011EF28F0000E366E000E376E000E386E61
:10501E00000E396E365032180FE1375033180CE14E
:10502E003850341809E139503518D8B421EF28F02A
:10503E0023EF28F026EF28F0D89027EF28F0D8801D
:10504E00120020EE01F01450D9261550DA22010E6E
:10505E00DF6E20EE01F01650D9261750DA22000E20
:10506E00DF6E5EEF28F014C0D9FF15C0DAFF0A0E0E
:10507E00DF2616C0D9FF17C0DAFF0A0EDF2614C0CE
:10508E000EF015C00FF077EC23F016C00EF017C01F
:10509E000FF077EC23F0020E196EA00E186E920E22
:1050AE00E82EFED7182EFCD7192EFAD700D014C032
:1050BE00D9FF15C0DAFF320EDF6068EF28F06AEF15
:1050CE0028F076EF28F016C0D9FF17C0DAFF310EA0
:1050DE00DF6474EF28F076EF28F03AEF28F0120034
:1050EE0020EE01F01450D9261550DA22000EDF6E94
:1050FE0020EE01F01650D9261750DA22010EDF6E7F
:10510E00ADEF28F014C0D9FF15C0DAFF0A0EDF2666
:10511E0016C0D9FF17C0DAFF0A0EDF2614C00EF034
:10512E0015C00FF077EC23F016C00EF017C00FF07D
:10513E0077EC23F0020E196EA00E186E920EE82E6A
:10514E00FED7182EFCD7192EFAD700D014C0D9FFCF
:10515E0015C0DAFF320EDF60B7EF28F0B9EF28F096
:10516E00C5EF28F016C0D9FF17C0DAFF310EDF6485
:10517E00C3EF28F0C5EF28F089EF28F0120020EEDB
:10518E0001F01450D9261550DA22000EDF6E20EEF3
:10519E0001F01650D9261750DA22000EDF6EFCEF02
:1051AE0028F014C0D9FF15C0DAFF0A0EDF2616C08C
:1051BE00D9FF17C0DAFF0A0EDF2614C00EF015C095
:1051CE000FF077EC23F016C00EF017C00FF077EC4F
:1051DE0023F0020E196EA00E186E920EE82EFED758
:1051EE00182EFCD7192EFAD700D014C0D9FF15C02F
:1051FE00DAFF320EDF6006EF29F008EF29F014EF28
:10520E0029F016C0D9FF17C0DAFF310EDF6412EF96
:10521E0029F014EF29F0D8EF28F0120020EE01F05B
:10522E001450D9261550DA22010EDF6E20EE01F051
:10523E001650D9261750DA22010EDF6E4BEF29F0E9
:10524E0014C0D9FF15C0DAFF0A0EDF2616C0D9FF2B
:10525E0017C0DAFF0A0EDF2614C00EF015C00FF0CD
:10526E0077EC23F016C00EF017C00FF077EC23F09A
:10527E00020E196EA00E186E920EE82EFED7182E84
:10528E00FCD7192EFAD700D014C0D9FF15C0DAFFFB
:10529E00320EDF6055EF29F057EF29F063EF29F05A
:1052AE0016C0D9FF17C0DAFF310EDF6461EF29F0A7
:1052BE0063EF29F027EF29F01200050E0E01746F2F
:1052CE00060E766F070E696F080E886F85948598A7
:1052DE00839E879CBD508F0B3009BD6EE00EBE16AF
:1052EE00BF50F00B0109BF6E01C0BCFFBD8E000E9A
:1052FE00AA6E000EA66E000E0F01256F000E216F16
:10530E00FC0EAD16F30EAD16CF0EAD163F0EAD164E
:10531E00AB88AB50F00B0C09AB6EAB8EA788A750C9
:10532E00F00B0C09A76EA78E26892651F00B0C09DF
:10533E00266F268F22892251F00B0C09226F228FA5
:10534E001200CEEF29F014C0D9FF15C0DAFF0A0EF5
:10535E00DF5E16C0D9FF17C0DAFF0A0EDF5E14C07B
:10536E000EF015C00FF077EC23F016C00EF017C03C
:10537E000FF077EC23F0020E196EA00E186E920E3F
:10538E00E82EFED7182EFCD7192EFAD700D014C04F
:10539E00D9FF15C0DAFFDF50D8A4D8EF29F0DAEF25
:1053AE0029F0AAEF29F016C0D9FF17C0DAFFDF5097
:1053BE00D8A4E4EF29F0E6EF29F0AAEF29F01200C5
:1053CE0016BEECEF29F0EEEF29F0F4EF29F015C040
:1053DE001AF016C01BF0F8EF29F0000E1B6E000E2F
:1053EE001A6E000E196E000E186E0AEF2AF0000EDD
:1053FE00026E200E016E11C003F012C004F063ECB9
:10540E0026F0184A192A1A50185C1950800A176E7D
:10541E001B50800A1758D8A017EF2AF019EF2AF060
:10542E00FEEF29F013C00AF014C00BF011C00CF0FF
:10543E0012C00DF0AEEC2EF01200000E0C6E000E2F
:10544E000B6E09500A10D8B42FEF2AF031EF2AF064
:10545E0059EF2AF0010E0D6E39EF2AF0D890093669
:10546E000A360D2A0AAE3EEF2AF040EF2AF035EF4B
:10547E002AF0D8900B360C360950075C0A500858A3
:10548E00D8A04CEF2AF04EEF2AF053EF2AF0095035
:10549E00075E0A50085A0B80D8900A3209320D2E38
:1054AE0040EF2AF00BC007F00CC008F01200610E9E
:1054BE001A6E010E1B6E580E1C6E010E1D6E59ECEF
:1054CE002BF0610E146E010E156E580E166E010E37
:1054DE00176EA8EC29F020C014F021C015F022C0E0
:1054EE0016F023C017F015EC29F0290E256E960E36
:1054FE00246E7F0EE82EFED7242EFCD7252EFAD74B
:10550E0000F0610E146E010E156E580E166E010E21
:10551E00176EA8EC29F0120004BEA2EF2AF0045078
:10552E000310021006E10104D8B0A0EF2AF0A2EF9A
:10553E002AF0BDEF2AF001C005F002C006F003C04C
:10554E0007F004C008F0051E061E071E081E052AD9
:10555E00000E06220722082205C001F006C002F046
:10556E0007C003F008C004F0C5EF2AF001C001F037
:10557E0002C002F003C003F004C004F01200610E7A
:10558E001A6E010E1B6E580E1C6E010E1D6E59EC1E
:10559E002BF0610E1A6E010E1B6E580E1C6E010E54
:1055AE001D6E1BEC2EF0610E1A6E010E1B6E580E48
:1055BE001C6E010E1D6E1BEC2EF0610E1A6E010E8E
:1055CE001B6E580E1C6E010E1D6E1BEC2EF0610E26
:1055DE001A6E010E1B6E580E1C6E010E1D6E1BEC0C
:1055EE002EF01200D3CF03F0046A0350D4CF01F093
:1055FE00026A01C002F0016A0110056E0250066EC9
:10560E0006BE13EF2BF0BD0E055C020E0658D8A099
:10561E0013EF2BF015EF2BF01BEF2BF0440E0524A0
:10562E00056EFD0E0620066ED89001011435D96E5A
:10563E001535DA6E3C0ED926020EDA2205C0DEFFD3
:10564E0006C0DDFF12007CEC2DF00CC0D9FF0DC0A2
:10565E00DAFF05C0DEFF06C0DDFFCCEC2DF020EE3C
:10566E0004F00C50D9260D50DA2205C0DEFF06C01C
:10567E00DDFFA4EC2DF020EE02F00C50D9260D50DB
:10568E00DA2205C0DEFF06C0DDFF54EC2DF020EE61
:10569E0006F00C50D9260D50DA2205C0DEFF06C0EA
:1056AE00DDFF12001AC014F01BC015F01CC016F05E
:1056BE001DC017F0C6EC28F0110E1F6E3C0E1E6EAC
:1056CE00CB0EE82EFED71E2EFCD71F2EFAD700F0DB
:1056DE00610E146E010E156E580E166E010E176EBB
:1056EE00A8EC29F0050E1F6E0F0E1E6EF10EE82EA1
:1056FE00FED71E2EFCD71F2EFAD700F012001AC0AE
:10570E0014F01BC015F01CC016F01DC017F015ECE0
:10571E0029F02B0E1F6E9D0E1E6EF90EE82EFED773
:10572E001E2EFCD71F2EFAD700F0610E146E010E3E
:10573E00156E580E166E010E176EA8EC29F0050E9A
:10574E001F6E0F0E1E6EF10EE82EFED71E2EFCD70C
:10575E001F2EFAD700F012001AC014F01BC015F05D
:10576E001CC016F01DC017F015EC29F0560E1F6E5A
:10577E003A0E1E6EF40EE82EFED71E2EFCD71F2EEE
:10578E00FAD7610E146E010E156E580E166E010EBE
:10579E00176EA8EC29F0050E1F6E0F0E1E6EF10E81
:1057AE00E82EFED71E2EFCD71F2EFAD700F01200C1
:1057BE001AC014F01BC015F01CC016F01DC017F057
:1057CE00C6EC28F0560E1F6E3A0E1E6EF40EE82E24
:1057DE00FED71E2EFCD71F2EFAD7610E146E010EA9
:1057EE00156E580E166E010E176EA8EC29F0050EEA
:1057FE001F6E0F0E1E6EF10EE82EFED71E2EFCD75C
:10580E001F2EFAD700F01200AAC0AEF0ABC0AFF058
:10581E0020EF2CF0A8C095F0A9C096F0AE0E0001B6
:10582E00976F000E986FACC099F0ADC09AF0C8ECAF
:10583E001BF0AEC0F6FFAFC0F7FF000EF86E08000B
:10584E00F5500009D8A42EEF2CF030EF2CF011EF0C
:10585E002CF0000E0001A96F000EA86F1200B40EFE
:10586E000001C46F000EC56FB0C0C6F0B1C0C7F066
:10587E00000ECA6F000EC96F000ED06F000ECF6FF4
:10588E00C60EA86F000EA96FB2C0AAF0B3C0ABF0DF
:10589E00C40EAC6F000EAD6F0BEC2CF00001C951B5
:1058AE00B025D96ECA51B121DA6E000EDF6E12002C
:1058BE00610E1A6E010E1B6E580E1C6E010E1D6EC1
:1058CE0059EC2BF0610E1A6E010E1B6E580E1C6EEB
:1058DE00010E1D6E1BEC2EF0610E1A6E010E1B6E6C
:1058EE00580E1C6E010E1D6E1BEC2EF0610E1A6E04
:1058FE00010E1B6E580E1C6E010E1D6E1BEC2EF053
:10590E001200610E1A6E010E1B6E580E1C6E010EE9
:10591E001D6E59EC2BF0610E1A6E010E1B6E580E99
:10592E001C6E010E1D6E42EC2EF0610E1A6E010EF3
:10593E001B6E580E1C6E010E1D6E42EC2EF0610E8B
:10594E001A6E010E1B6E580E1C6E010E1D6E42EC71
:10595E002EF01200BAEC2FF0010E036E000E09ECC1
:10596E0030F03F0E056E550EE82EFED7052EFCD7F5
:10597E0000F0030E036E000E09EC30F0D50E036E30
:10598E00010E09EC30F0000E036E0F0E09EC30F034
:10599E0087928198869E849684987F927E9E79982F
:1059AE007C967C981200610E1A6E010E1B6E580EBC
:1059BE001C6E010E1D6E59EC2BF0610E1A6E010E4F
:1059CE001B6E580E1C6E010E1D6EDFEC2BF0610E61
:1059DE001A6E010E1B6E580E1C6E010E1D6E1BEC08
:1059EE002EF0610E1A6E010E1B6E580E1C6E010EFD
:1059FE001D6E1BEC2EF01200610E1A6E010E1B6E48
:105A0E00580E1C6E010E1D6E59EC2BF0610E1A6EA7
:105A1E00010E1B6E580E1C6E010E1D6EDFEC2BF070
:105A2E00610E1A6E010E1B6E580E1C6E010E1D6E4F
:105A3E0042EC2EF0610E1A6E010E1B6E580E1C6E8D
:105A4E00010E1D6E42EC2EF0120003C009F004C0D0
:105A5E000AF001C007F002C008F046EF2DF009C0B1
:105A6E00D9FF0AC0DAFFDF500B6E094A0A2A07C0B7
:105A7E00D9FF08C0DAFF0BC0DFFF074A082A050668
:105A8E00D8A00606052806E10628D8A451EF2DF069
:105A9E0053EF2DF036EF2DF0120060EC30F0520E79
:105AAE0044EC30F0B40E44EC30F056EC30F0530EC3
:105ABE0044EC30F0010ED0EC2EF0076E07500A6E5B
:105ACE000B6A000ED0EC2EF0076E0750096E086AB6
:105ADE000A5008100A6E0B5009100B6E5BEC30F07A
:105AEE000AC005F00BC006F0120060EC30F0520E4A
:105AFE0044EC30F0B60E44EC30F056EC30F0530E71
:105B0E0044EC30F0010ED0EC2EF0076E07500A6E0A
:105B1E000B6A000ED0EC2EF0076E0750096E086A65
:105B2E000A5008100A6E0B5009100B6E5BEC30F029
:105B3E000AC005F00BC006F0120060EC30F0520EF9
:105B4E0044EC30F0B80E44EC30F056EC30F0530E1E
:105B5E0044EC30F0010ED0EC2EF0076E07500A6EBA
:105B6E000B6A000ED0EC2EF0076E0750096E086A15
:105B7E000A5008100A6E0B5009100B6E5BEC30F0D9
:105B8E000AC005F00BC006F0120060EC30F0520EA9
:105B9E0044EC30F0BA0E44EC30F056EC30F0530ECC
:105BAE0044EC30F0010ED0EC2EF0076E07500A6E6A
:105BBE000B6A000ED0EC2EF0076E0750096E086AC5
:105BCE000A5008100A6E0B5009100B6E5BEC30F089
:105BDE000AC005F00BC006F01200CA0EF66E600E7B
:105BEE00F76E000EF86E00EEF0F010EE06F0090003
:105BFE00F5CFEEFFE550E150FAE102EE00F0F00EC7
:105C0E00EE6AE806FDE101EE00F0720EEE6AE806BD
:105C1E00FDE100EED3F01D0EEE6AE806FDE15F90A9
:105C2E005F9200014CEF11F01AC014F01BC015F07A
:105C3E001CC016F01DC017F028EC28F0F2C001F0C1
:105C4E00F3C002F087EC2FF0610E146E010E156E8C
:105C5E00580E166E010E176EA8EC29F0050E1F6E6B
:105C6E000F0E1E6EF10EE82EFED71E2EFCD71F2E27
:105C7E00FAD700F012001AC014F01BC015F01CC0A9
:105C8E0016F01DC017F077EC28F0F2C001F0F3C04B
:105C9E0002F087EC2FF0610E146E010E156E580E89
:105CAE00166E010E176EA8EC29F0050E1F6E0F0E64
:105CBE001E6EF10EE82EFED71E2EFCD71F2EFAD723
:105CCE0000F01200000E2E1A000E2F1A000E301ABF
:105CDE00800E311A2AC001F02BC002F02CC003F046
:105CEE002DC004F02EC005F02FC006F030C007F016
:105CFE0031C008F0EFEC13F001C02AF002C02BF017
:105D0E0003C02CF004C02DF0120003C005F004C037
:105D1E0006F001C007F002C008F005C0F6FF06C08D
:105D2E00F7FF054A062A000EF86E07C0D9FF08C015
:105D3E00DAFF074A082A0800F5CFDFFFDF50D8A4A4
:105D4E00ABEF2EF0ADEF2EF094EF2EF01200000E12
:105D5E00106E000E0F6EBFEF2EF00EC001F0026A35
:105D6E000CC003F00DC004F063EC26F00F4A102AAD
:105D7E000F500A24D96E10500B20DA6EDF500E6EC3
:105D8E000E50D8A4CDEF2EF0CFEF2EF0B4EF2EF0B4
:105D9E001200036ECFEC2FF00E01DA87CFEC2FF04E
:105DAE00D5CE04F0CFEC2FF00350D8B4E1EF2EF0A7
:105DBE00E5EF2EF0026A022AE6EF2EF0026A023AB0
:105DCE0002460E01DA510218DF0B0218DA6FDA8979
:105DDE000450120014BEFEEF2EF0145006E1130410
:105DEE00D8B0FCEF2EF0FEEF2EF00CEF2FF013C01C
:105DFE0015F014C016F0151E161E154A162A15C0DB
:105E0E0013F016C014F010EF2FF013C013F014C0DF
:105E1E0014F01200610E1A6E010E1B6E580E1C6EDF
:105E2E00010E1D6E59EC2BF0610E1A6E010E1B6EDB
:105E3E00580E1C6E010E1D6E1BEC2EF0610E1A6EAE
:105E4E00010E1B6E580E1C6E010E1D6E1BEC2EF0FD
:105E5E001200610E1A6E010E1B6E580E1C6E010E94
:105E6E001D6E59EC2BF0610E1A6E010E1B6E580E44
:105E7E001C6E010E1D6E42EC2EF0610E1A6E010E9E
:105E8E001B6E580E1C6E010E1D6E42EC2EF0120093
:105E9E000150021003100410D8B458EF2FF05AEF2F
:105EAE002FF062EF2FF0000E011A000E021A000EF4
:105EBE00031A800E041A01C001F002C002F003C0E2
:105ECE0003F004C004F01200000E056E000E046E06
:105EDE007BEF2FF00B0E036E620EE82EFED7032E15
:105EEE00FCD700D0044A052A0150045C0250055824
:105EFE00D8A084EF2FF086EF2FF071EF2FF0120065
:105F0E0094EF2FF0150E036EC60EE82EFED7032E5D
:105F1E00FCD700D00106D8A0020602BEA1EF2FF0DA
:105F2E00025006E10104D8B09FEF2FF0A1EF2FF041
:105F3E0089EF2FF01200ADEF2FF002C0D9FF03C092
:105F4E00DAFFDF5038EC30F0024A032A02C0D9FFE4
:105F5E0003C0DAFFDF50D8A4B7EF2FF0B9EF2FF060
:105F6E00A4EF2FF012000E01D951F00B0809D96FD2
:105F7E00D98B9F0ED66F848A848CA79BA79D1D0EEE
:105F8E001D6F1E0E1C6F1C0E6F6F1B0E706F12009E
:105F9E000E01D8B5D5EF2FF0D7EF2FF0CFEF2FF0B2
:105FAE00DACE01F01F0E0116D8A4E0EF2FF0E2EFCB
:105FBE002FF0CFEF2FF0120087928198869E7F826E
:105FCE0079887E8E7C9E849E80968896809088901E
:105FDE007E9086907C9884987C96849612000150D0
:105FEE000302F3CF05F0F4CF06F001500402F35094
:105FFE00062602500302F350062605C001F006C025
:10600E0002F01200046E60EC30F0520E44EC30F0F0
:10601E000450800944EC30F0035044EC30F05BEC5B
:10602E0030F01200D6501F0B4009D66ED688D650CF
:10603E00F00B0D09D66ED588000ED46E000ED36E01
:10604E00D59E1200120E0E01626F110E156FE9979A
:10605E00E895330EE56F000EE66FE789E88BE78F64
:10606E001200016E0E0137A53FEF30F041EF30F018
:10607E0039EF30F001C0E4FE1200026ECFEC2FF0CB
:10608E0002C0D5FE1200F29AF29CF28E0E01298BFE
:10609E00120086840E01B4958686B4971200CFEC5A
:1060AE002FF00E01DA831200CFEC2FF00E01DA85FD
:1060BE001200CFEC2FF00E01DA8112001A043C0010
:0460CE00320012008A
:020000040020DA
:10000000FF0FFF0FFF0FFF0FFF0FFF0FFF0FFF0F80
:020000040030CA
:0C000000AAFFFFFF9FFFFFFFFFFFFFFFB5
:00000001FF
