:0400000025EF00F0F8
:100008005482D9CF03F0DACF04F00E0137A50FEFF1
:1000180000F011EF00F015EF00F0A5EC1EF00E0156
:10002800E46F37A71AEF00F01CEF00F01FEF00F0A5
:10003800E351FAEC1EF004C0DAFF03C0D9FF549272
:06004800110017EF1EF08D
:100E0000007265643D256620677265656E3D2566E6
:100E100020626C75653D2566206C756D3D25640D01
:0B0E20000A00696E66006E616E000043
:100E2C00000E0001816F34C082F035C083F036C0F3
:100E3C0084F037C085F085BF28EF07F026EF07F068
:100E4C003CEF07F0010E816F82C005F083C006F005
:100E5C0084C007F085C008F057EC1EF005C082F086
:100E6C0006C083F007C084F008C085F0000E0001B6
:100E7C00876F000E866FC4C071F0C5C072F08151CF
:100E8C00D8B44BEF07F04DEF07F061EF07F081514D
:100E9C00D8A453EF07F055EF07F05BEF07F0000E07
:100EAC00676F2B0E666F5FEF07F0000E676F2D0EEE
:100EBC00666F66C081F082C005F083C006F084C006
:100ECC0007F085C008F03AEC1AF005040610D8A417
:100EDC0072EF07F074EF07F0A7EF07F000018151F4
:100EEC00D8B47BEF07F07DEF07F086EF07F081C0F9
:100EFC0050F17107D8A07207000E876F010E866F34
:100F0C00500E8625056E010E8721066E220E076E89
:100F1C000E0E086EB2EC1DF00001FD0E7127FF0ED7
:100F2C00722332C015F033C016F0500E176E010E3E
:100F3C00186E71C019F072C01AF0D5EC1BF013EFDB
:100F4C000CF082C005F083C006F084C007F085C0A9
:100F5C0008F03AEC1AF005500610D8A4B8EF07F0D8
:100F6C00BAEF07F0DAEF07F000018151D8B4C1EF06
:100F7C0007F0C3EF07F0CCEF07F081C050F1710719
:100F8C00D8A07207000E876F010E866F500E862553
:100F9C00056E010E8721066E260E076E0E0E086E6C
:100FAC00B2EC1DF092EF07F0000E0001886F000EFE
:100FBC00896F800E8A6F3F0E8B6F000E706F000E64
:100FCC006F6F82C005F083C006F084C007F085C047
:100FDC0008F0000E096E000E0A6E000E0B6E000E6D
:100FEC000C6E80EC1BF0D8B0FEEF07F000EF08F0B1
:100FFC00DFEF08F00DEF08F073C088F074C089F0D3
:10100C0075C08AF076C08BF000016F4B702B88C0D6
:10101C0005F089C006F08AC007F08BC008F0000EFE
:10102C00096E000E0A6E200E0B6E410E0C6E74ECE7
:10103C000EF005C073F006C074F007C075F008C060
:10104C0076F000017351825D056E74518359066E02
:10105C0075518459076E76518559086E12EC1CF047
:10106C0008BE44EF08F008500710061009E1020E04
:10107C00055CD8A044EF08F046EF08F002EF08F04A
:10108C0073C01EF074C01FF075C020F076C021F044
:10109C0082C022F083C023F084C024F085C025F0E8
:1010AC00B8EC19F0D8A05DEF08F05FEF08F002EF94
:1010BC0008F000018851825D056E89518359066ED6
:1010CC008A518459076E8B518559086E12EC1CF0AD
:1010DC0008BE7EEF08F008500710061007E1020E5C
:1010EC00055CD8B07CEF08F07EEF08F0C6EF08F096
:1010FC0088C082F089C083F08AC084F08BC085F0F0
:10110C00DFEF08F088C005F089C006F08AC007F050
:10111C008BC008F0000E096E000E0A6E200E0B6ECE
:10112C00410E0C6E89EC10F005C088F006C089F0F9
:10113C0007C08AF008C08BF000016F07D8A07007B9
:10114C008851825D056E89518359066E8A51845986
:10115C00076E8B518559086E12EC1CF008BEC4EF5B
:10116C0008F008500710061007E1020E055CD8B015
:10117C00C2EF08F0C4EF08F0C6EF08F07EEF08F0FD
:10118C0082C01EF083C01FF084C020F085C021F007
:10119C0088C022F089C023F08AC024F08BC025F0CF
:1011AC00B8EC19F0D8A0DDEF08F0DFEF08F088EF0D
:1011BC0008F038C069F069C06AF04EBEE8EF08F07C
:1011CC00EAEF08F0F0EF08F04DC062F04EC063F0AB
:1011DC00F5EF08F0000E0001636F060E626F62C03F
:1011EC006DF063C06EF000016D4B6E2B660E6A19CC
:1011FC00D8A403EF09F005EF09F025EF09F070BF53
:10120C000CEF09F00AEF09F018EF09F0000E886FE7
:10121C00000E896F800E8A6F3F0E8B6F000E706F01
:10122C00000E6F6F670E6919D8B41FEF09F021EF2C
:10123C0009F025EF09F06F516D2770516E23000EE8
:10124C00786F000E776F82C079F083C07AF084C01B
:10125C007BF085C07CF088C073F089C074F08AC0C4
:10126C0075F08BC076F0B6EF09F079C005F07AC056
:10127C0006F07BC007F07CC008F088C009F089C07C
:10128C000AF08AC00BF08BC00CF089EC10F005C092
:10129C001EF006C01FF007C020F008C021F017ECAC
:1012AC0015F01EC07DF01FC07EF020C07FF021C065
:1012BC0080F07DC005F07EC006F07FC007F080C0D6
:1012CC0008F035EC19F005C06BF006C06CF079C075
:1012DC001EF07AC01FF07BC020F07CC021F07DC0D6
:1012EC0009F07EC00AF07FC00BF080C00CF088C003
:1012FC0005F089C006F08AC007F08BC008F074ECCA
:10130C000EF005C022F006C023F007C024F008C080
:10131C0025F08FEC1DF01EC079F01FC07AF020C0B4
:10132C007BF021C07CF088C005F089C006F08AC033
:10133C0007F08BC008F0000E096E000E0A6E200E2E
:10134C000B6E410E0C6E89EC10F005C088F006C0D7
:10135C0089F007C08AF008C08BF00001774B782B1E
:10136C006D51775D7851800A396E6E51800A39580B
:10137C00D8A0C3EF09F0C5EF09F03BEF09F088C026
:10138C0005F089C006F08AC007F08BC008F0000E8B
:10139C00096E000E0A6EA00E0B6E400E0C6E74ECF5
:1013AC000EF005C07DF006C07EF007C07FF008C0CF
:1013BC0080F079C01EF07AC01FF07BC020F07CC09A
:1013CC0021F07DC022F07EC023F07FC024F080C0CD
:1013DC0025F0B8EC19F0D8B0F6EF09F0F8EF09F0F9
:1013EC0003EF0AF0000E00017D6F000E7E6F000E01
:1013FC007F6F000E806F2CEF0AF079C005F07AC079
:10140C0006F07BC007F07CC008F07DC009F07EC000
:10141C000AF07FC00BF080C00CF080EC1BF0D8A061
:10142C001AEF0AF01CEF0AF02CEF0AF000016BB176
:10143C0022EF0AF024EF0AF02CEF0AF0000E7D6F79
:10144C00000E7E6F000E7F6F000E806F82C005F065
:10145C0083C006F084C007F085C008F07DC009F099
:10146C007EC00AF07FC00BF080C00CF014EC0CF0C6
:10147C0005C079F006C07AF007C07BF008C07CF09C
:10148C0079C01EF07AC01FF07BC020F07CC021F028
:10149C00000E096E000E0A6E200E0B6E410E0C6EC5
:1014AC0073C005F074C006F075C007F076C008F084
:1014BC0074EC0EF005C022F006C023F007C024F037
:1014CC0008C025F0B8EC19F0D8A06FEF0AF071EF56
:1014DC000AF09AEF0AF000016F4B702B73C005F005
:1014EC0074C006F075C007F076C008F0000E096EE7
:1014FC00000E0A6E200E0B6E410E0C6E74EC0EF08C
:10150C0005C073F006C074F007C075F008C076F023
:10151C00660E00016A19D8A496EF0AF098EF0AF04B
:10152C009AEF0AF06D4B6E2B73C088F074C089F083
:10153C0075C08AF076C08BF06FC060F070C061F03F
:10154C00000E0001686F000E656F000E646F000ED8
:10155C00786F000E776F98EF0BF079C005F07AC0BA
:10156C0006F07BC007F07CC008F088C009F089C089
:10157C000AF08AC00BF08BC00CF089EC10F005C09F
:10158C001EF006C01FF007C020F008C021F017ECB9
:10159C0015F01EC07DF01FC07EF020C07FF021C072
:1015AC0080F07DC005F07EC006F07FC007F080C0E3
:1015BC0008F035EC19F006BEEFEF0AF0065007E123
:1015CC000A0E055CD8B0EDEF0AF0EFEF0AF0FFEF72
:1015DC000AF07DC005F07EC006F07FC007F080C029
:1015EC0008F035EC19F005C06BF006C06CF004EF98
:1015FC000BF0000E00016C6F090E6B6F000168514F
:10160C00D8A40BEF0BF00DEF0BF035EF0BF061BF27
:10161C0014EF0BF012EF0BF035EF0BF0500E86259C
:10162C00D96E010E8721DA6E2E0EDF6E864B872B5C
:10163C007107D8A07207010E686F35EF0BF0500ED2
:10164C008625D96E010E8721DA6E300EDF6E864B41
:10165C00872B7107D8A072076407D8A0650764515F
:10166C006511D8A43CEF0BF03EEF0BF025EF0BF01F
:10167C00500E8625D96E010E8721DA6E6B51300F14
:10168C00DF6E864B872B7107D8A0720779C01EF0CE
:10169C007AC01FF07BC020F07CC021F07DC009F027
:1016AC007EC00AF07FC00BF080C00CF088C005F043
:1016BC0089C006F08AC007F08BC008F074EC0EF0FD
:1016CC0005C022F006C023F007C024F008C025F0A6
:1016DC008FEC1DF01EC079F01FC07AF020C07BF09B
:1016EC0021C07CF088C005F089C006F08AC007F0E4
:1016FC008BC008F0000E096E000E0A6E200E0B6EE9
:10170C00410E0C6E89EC10F005C088F006C089F013
:10171C0007C08AF008C08BF000016007D8A06107F1
:10172C00774B782B6D51775D7851800A396E6E51FD
:10173C00800A3958D8B0A5EF0BF0A7EF0BF0B5EF36
:10174C000BF087BFB3EF0BF0875109E14B0E865DB1
:10175C00D8A0B3EF0BF0B5EF0BF0B3EF0AF0000E1F
:10176C00786F4F0E776F500E7725D96E010E78215A
:10177C00DA6E000EDF6E500E396E010E3A6E865127
:10178C00395E87513A5A77513924056E78513A208F
:10179C00066E500E076E010E086E86C009F087C0EB
:1017AC000AF0C7EC1CF000018651775D866F8751FB
:1017BC007859876F8151D8A4E6EF0BF0E9EF0BF065
:1017CC00010EEAEF0BF0000E776F786B8151D8B4F5
:1017DC00F2EF0BF0F4EF0BF0FFEF0BF08607D8A055
:1017EC008707500E8625D96E010E8721DA6E81C0CF
:1017FC00DFFF7751715F7851725B32C015F033C0E7
:10180C0016F0500E8625176E010E8721186E71C0CA
:10181C0019F072C01AF0D5EC1BF012000850800BB6
:10182C00116E08500824136E07AE1FEF0CF021EF59
:10183C000CF022EF0CF013801350D8B428EF0CF0FE
:10184C002AEF0CF03FEF0CF01328D8A430EF0CF07B
:10185C0032EF0CF03AEF0CF0000E056E000E066E37
:10186C00000E076E000E086E078E000E086E47EF16
:10187C000CF0000E056E000E066E000E076E000ECC
:10188C00086E0C50800B126E11501218D8B451EF18
:10189C000CF053EF0CF054EF0CF0118C0C500C249A
:1018AC00126E0BAE5CEF0CF05EEF0CF05FEF0CF019
:1018BC0012801250D8B465EF0CF067EF0CF07CEF8F
:1018CC000CF01228D8A46DEF0CF06FEF0CF077EF42
:1018DC000CF0000E096E000E0A6E000E0B6E000E60
:1018EC000C6E0B8E000E0C6E84EF0CF0000E096E5D
:1018FC00000E0A6E000E0B6E000E0C6E1350125C76
:10190C00D8B08BEF0CF08DEF0CF0B4EF0CF011ACF9
:10191C0092EF0CF094EF0CF096EF0CF0800E111A85
:10192C0013C014F012C013F014C012F005C014F060
:10193C0009C005F014C009F006C014F00AC006F086
:10194C0014C00AF007C014F00BC007F014C00BF061
:10195C0008C014F00CC008F014C00CF0000E146E8B
:10196C00135012C00DF00E6A0D5E000E0E5A0EBE14
:10197C00C9EF0CF00E5009E11A0E0D5CD8A0C9EF9E
:10198C000CF0CBEF0CF002EF0DF005500610071029
:10199C000810D8A4D4EF0CF0D7EF0CF0010ED8EF50
:1019AC000CF0000E146E000E056E000E066E000E8E
:1019BC00076E000E086E12C013F00BEF0DF014A0A2
:1019CC00EAEF0CF0ECEF0CF0F2EF0CF0D8901430D6
:1019DC000109146EF4EF0CF0D890143205A0F9EF55
:1019EC000CF0FBEF0CF0FCEF0CF0148E083408320A
:1019FC00073206320532132A1250135CD8A009EFB5
:101A0C000DF00BEF0DF0E5EF0CF011BC10EF0DF03D
:101A1C0012EF0DF052EF0DF01350D8A418EF0DF09B
:101A2C001AEF0DF024EF0DF0000E056E000E066E91
:101A3C00000E076E000E086E73EF0EF009500526AF
:101A4C000A5006220B5007220C50082208A031EF36
:101A5C000DF033EF0DF0DFEF0DF014A038EF0DF0BB
:101A6C003AEF0DF040EF0DF0D89014300109146EE0
:101A7C0042EF0DF0D890143205A047EF0DF049EF6E
:101A8C000DF04AEF0DF0148E08340832073206328E
:101A9C000532132ADFEF0DF00950055C0A50065889
:101AAC000B5007580850800A0D6E0C50800A0D58C8
:101ABC00D8B063EF0DF065EF0DF090EF0DF0055021
:101ACC00095C0D6E06500A580E6E07500B580F6EBF
:101ADC0008500C58106EFF0E0D24056EFF0E0E20D4
:101AEC00066EFF0E0F20076EFF0E1020086E800E84
:101AFC00111A146C1450D8A486EF0DF088EF0DF069
:101B0C0098EF0DF0010E0526000E06220722082282
:101B1C0098EF0DF00950055E0A50065A0B50075A03
:101B2C000C50085A0550061007100810D8A4A1EF45
:101B3C000DF0A3EF0DF0D8EF0DF01450D8A4A9EFD1
:101B4C000DF0ABEF0DF0D8EF0DF0000E056E000EA2
:101B5C00066E000E076E000E086E73EF0EF0D89036
:101B6C00053606360736083614AEBFEF0DF0C1EF5A
:101B7C000DF0C2EF0DF0058014A0C7EF0DF0C9EF0A
:101B8C000DF0CDEF0DF0D8801436CFEF0DF0D890CE
:101B9C0014361350D8B4D5EF0DF0D7EF0DF0D8EFB5
:101BAC000DF0130607AEDDEF0DF0DFEF0DF0B5EF26
:101BBC000DF0000E126E14AEE6EF0DF0E8EF0DF026
:101BCC0000EF0EF014C00DF07F0E0D16D8B4F1EF2F
:101BDC000DF0F3EF0DF0F7EF0DF0010E126E00EFBC
:101BEC000EF005A0FCEF0DF0FEEF0DF000EF0EF087
:101BFC00F3EF0DF01250D8B406EF0EF008EF0EF024
:101C0C0033EF0EF0010E0526000E062207220822E5
:101C1C0008A013EF0EF015EF0EF033EF0EF005C029
:101C2C000DF006C00EF007C00FF008C010F0103415
:101C3C0010320F320E320D320DC005F00EC006F010
:101C4C000FC007F010C008F01328D8B430EF0EF016
:101C5C0032EF0EF033EF0EF0132A1328D8B439EF0D
:101C6C000EF03BEF0EF043EF0EF01350D8A441EF03
:101C7C000EF043EF0EF055EF0EF0000E056E000E59
:101C8C00066E000E076E000E086E1350D8A451EFAE
:101C9C000EF053EF0EF055EF0EF0000E116E13A078
:101CAC005AEF0EF05CEF0EF05FEF0EF0078E60EF68
:101CBC000EF0079ED8901330086E11AE68EF0EF040
:101CCC006AEF0EF06BEF0EF0088E05C005F006C043
:101CDC0006F007C007F008C008F012000850800B8F
:101CEC00116E08500824176E07AE7FEF0EF081EFCF
:101CFC000EF082EF0EF017801750D8B488EF0EF06C
:101D0C008AEF0EF09DEF0EF01728D8A490EF0EF08E
:101D1C0092EF0EF09AEF0EF0000E056E000E066EAE
:101D2C00000E076E000E086E078EA5EF0EF0000E6B
:101D3C00056E000E066E000E076E000E086E0C503F
:101D4C00800B111A0C500C24126E0BAEB0EF0EF06F
:101D5C00B2EF0EF0B3EF0EF012801250D8B4B9EF10
:101D6C000EF0BBEF0EF0CEEF0EF01228D8A4C1EFA0
:101D7C000EF0C3EF0EF0CBEF0EF0000E096E000E5E
:101D8C000A6E000E0B6E000E0C6E0B8ED6EF0EF064
:101D9C00000E096E000E0A6E000E0B6E000E0C6E1D
:101DAC001250D8B4DCEF0EF0DEEF0EF0E6EF0EF0D2
:101DBC001750D8A4E4EF0EF0E6EF0EF0F0EF0EF0B3
:101DCC00000E056E000E066E000E076E000E086EFD
:101DDC0088EF10F00B500502F3CF1CF0F4CF1DF080
:101DEC001C50136E146A156A166A1D50186E196A07
:101DFC001A6A1B6A0A500602F3CF1CF0F4CF1DF0CE
:101E0C001C501326000E1422152216221D501826C3
:101E1C00000E19221A221B2209500702F3CF1CF0C4
:101E2C00F4CF1DF01C501326000E1422152216227E
:101E3C001D501826000E19221A221B2215C016F04E
:101E4C0014C015F013C014F0136A09500602F3CF36
:101E5C001CF0F4CF1DF01C5013261D501422000E44
:101E6C001522000E16220A500502F3CF1CF0F4CFF7
:101E7C001DF01C5013261D501422000E1522000EAE
:101E8C00162215C016F014C015F013C014F0136A06
:101E9C0009500502F3CF1CF0F4CF1DF01C50132693
:101EAC001D501422000E1522000E16220B50060295
:101EBC00F3CF1CF0F4CF1DF01C5018261D50192226
:101ECC00000E1A22000E1B220A500702F3CF1CF040
:101EDC00F4CF1DF01C5018261D501922000E1A228A
:101EEC00000E1B220B500702F3CF1CF0F4CF1DF099
:101EFC001C500D6E1D500E6E0F6A106A0FC010F044
:101F0C000EC00FF00DC00EF00D6A0D5018260E50BD
:101F1C0019220F501A2210501B2213C00DF014C09E
:101F2C000EF015C00FF016C010F0190EA3EF0FF045
:101F3C00D89010320F320E320D32E82E9EEF0FF089
:101F4C000D5018260E5019220F501A2210501B2219
:101F5C0015C016F014C015F013C014F0136A12500B
:101F6C0017C00DF00E6A0D26000E0E22820E0D24E7
:101F7C001C6EFF0E0E201D6ED9EF0FF0D890183688
:101F8C0019361A361B3616AECEEF0FF0D0EF0FF017
:101F9C00D1EF0FF01880D89013361436153616364C
:101FAC001C06D8A01D061AAEDEEF0FF0E0EF0FF006
:101FBC00C4EF0FF0000E126E16AEE7EF0FF0E9EF64
:101FCC000FF00DEF10F0FF0E13140D6EFF0E141426
:101FDC000E6EFF0E15140F6E7F0E1614106E0D5034
:101FEC000E100F101010D8B4FEEF0FF000EF10F021
:101FFC0004EF10F0010E126E0DEF10F018A009EFA7
:10200C0010F00BEF10F00DEF10F000EF10F012507D
:10201C00D8B413EF10F015EF10F039EF10F0010EEB
:10202C001826000E19221A221B221BA020EF10F0DA
:10203C0022EF10F039EF10F018C00DF019C00EF0AF
:10204C001AC00FF01BC010F0103410320F320E32C9
:10205C000D320DC018F00EC019F00FC01AF010C0E0
:10206C001BF01C4A1D2A1DBE44EF10F01D5008E148
:10207C001C28D8A044EF10F046EF10F050EF10F0F1
:10208C00000E186E000E196E800E1A6E7F0E1B6EEF
:10209C007EEF10F01DBE5DEF10F01D5006E11C042C
:1020AC00D8B05BEF10F05DEF10F069EF10F0000EA0
:1020BC00186E000E196E000E1A6E000E1B6E000EBE
:1020CC00116E7EEF10F01CC017F0FF0E1816FF0EED
:1020DC0019167F0E1A16000E1B1617A078EF10F0AB
:1020EC007AEF10F07BEF10F01A8ED89017301B6E31
:1020FC0011501B1218C005F019C006F01AC007F0D9
:10210C001BC008F012000850800B156E08500824F4
:10211C001C6E07AE94EF10F096EF10F097EF10F0E6
:10212C001C801C50D8B49DEF10F09FEF10F0B4EF52
:10213C0010F01C28D8A4A5EF10F0A7EF10F0AFEF0B
:10214C0010F0000E056E000E066E000E076E000EEF
:10215C00086E078E000E086EBCEF10F0000E056EB8
:10216C00000E066E000E076E000E086E0C50800BF3
:10217C00151A0C500C241D6E0BAEC7EF10F0C9EFE6
:10218C0010F0CAEF10F01D801D50D8B4D0EF10F035
:10219C00D2EF10F0E7EF10F01D28D8A4D8EF10F014
:1021AC00DAEF10F0E2EF10F0000E096E000E0A6E7E
:1021BC00000E0B6E000E0C6E0B8E000E0C6EEFEF05
:1021CC0010F0000E096E000E0A6E000E0B6E000E63
:1021DC000C6E09500A100B100C10D8A4F8EF10F06C
:1021EC00FAEF10F012EF11F0000E056E000E066EF5
:1021FC00000E076E000E086E800E07127F0E08127E
:10220C001550081205C005F006C006F007C007F00F
:10221C0008C008F055EF12F01C50D8A418EF11F0BC
:10222C001AEF11F024EF11F0000E056E000E066E81
:10223C00000E076E000E086E55EF12F01D501CC0FC
:10224C000DF00E6A0D5E000E0E5A7F0E0D24166EEA
:10225C00000E0E20176E05C011F006C012F007C05C
:10226C0013F008C014F0000E056E000E066E000E82
:10227C00076E000E086E000E186E000E196E000E22
:10228C001A6E000E1B6E000E1D6E85EF11F01D50A8
:10229C00D8B453EF11F055EF11F06CEF11F0D8905A
:1022AC001136123613361436D890053606360736E4
:1022BC0008361BAE64EF11F066EF11F067EF11F00A
:1022CC000580D890183619361A361B360950115C11
:1022DC000A5012580B5013580C501458D8A079EFC0
:1022EC0011F07BEF11F084EF11F01B8C0950115E93
:1022FC000A50125A0B50135A0C50145A1D2A190E0C
:10230C001D648BEF11F08DEF11F04DEF11F01150AA
:10231C00121013101410D8B496EF11F098EF11F0AE
:10232C00B0EF11F01880B0EF11F0D89005360636EA
:10233C00073608361BAEA5EF11F0A7EF11F0A8EF8A
:10234C0011F00580D890183619361A361B36160639
:10235C00D8A0170607AEB5EF11F0B7EF11F09BEF51
:10236C0011F0000E1D6E1BAEBEEF11F0C0EF11F0A0
:10237C00E4EF11F0FF0E18140D6EFF0E19140E6E13
:10238C00FF0E1A140F6E7F0E1B14106E0D500E10D4
:10239C000F101010D8B4D5EF11F0D7EF11F0DBEF10
:1023AC0011F0010E1D6EE4EF11F005A0E0EF11F03D
:1023BC00E2EF11F0E4EF11F0D7EF11F01D50D8B4AB
:1023CC00EAEF11F0ECEF11F010EF12F0010E052610
:1023DC00000E06220722082208A0F7EF11F0F9EFF1
:1023EC0011F010EF12F005C00DF006C00EF007C092
:1023FC000FF008C010F0103410320F320E320D32C4
:10240C000DC005F00EC006F00FC007F010C008F0AC
:10241C00164A172A17BE1BEF12F0175008E11628A0
:10242C00D8A01BEF12F01DEF12F028EF12F0000EE7
:10243C00176E1668000E056E000E066E000E076E07
:10244C00000E086E17BE35EF12F0175006E1160499
:10245C00D8B033EF12F035EF12F043EF12F0000E5C
:10246C00176E000E166E000E056E000E066E000E38
:10247C00076E000E086E000E156E16C01CF01CA028
:10248C004AEF12F04CEF12F04FEF12F0078E50EFB4
:10249C0012F0079ED8901C30086E06EF11F0120057
:1024AC0045C0D9FF46C0DAFFDECFF6FFDDCFF7FF20
:1024BC00000EF86E0800F550250AD8A468EF12F04B
:1024CC006AEF12F0C2EF13F045C0D9FF46C0DAFF35
:1024DC00DE2A000EDD22000E0001C56F000EC46F57
:1024EC00C4C04FF04D684E6845C0D9FF46C0DAFFF6
:1024FC00DECF95F0DDCF96F095C0F6FF96C0F7FFD6
:10250C00000EF86E0800F550640AD8B490EF12F083
:10251C0092EF12F0A2EF12F095C0F6FF96C0F7FF03
:10252C00000EF86E0800F550690AD8A4A0EF12F05E
:10253C00A2EF12F0E5EF12F047C0D9FF48C0DAFF66
:10254C00DFCF49F0020EDE26DFCF4AF0000EDD228F
:10255C0049C0D9FF4AC0DAFFDECF8CF0DDCF8DF059
:10256C00000E8DBFFF0E8E6F8F6F906F916F926FFD
:10257C00936F010E9525496E000E96214A6E45C04B
:10258C00D9FF46C0DAFF49C0DEFF4AC0DDFF43C0B9
:10259C0020F044C021F08CC022F08DC023F08EC0FE
:1025AC0024F08FC025F090C026F091C027F092C087
:1025BC0028F093C029F0D9EC13F0D8EF13F045C0F4
:1025CC00D9FF46C0DAFFDECF95F0DDCF96F095C08F
:1025DC00F6FF96C0F7FF000EF86E0800F5CF94F0EA
:1025EC0004EF13F0954B962B1DEF13F06C0E946FBC
:1025FC001DEF13F0000E946F1DEF13F09451496E04
:10260C004A6A4A50000AD8B40EEF13F000EF13F0E8
:10261C0049504C0AD8B4F8EF12F02A0AD8B4FCEF9F
:10262C0012F00A0AD8B4F8EF12F000EF13F095C0CC
:10263C00F6FF96C0F7FF000EF86E0800F550660A1C
:10264C00D8A42BEF13F02DEF13F0B9EF13F063EFC9
:10265C0013F047C0D9FF48C0DAFFDFCF49F0040EB2
:10266C00DE26DFCF4AF0000EDD2249C0D9FF4AC07A
:10267C00DAFFDECF8CF0DECF8DF0DECF8EF0DECF4A
:10268C008FF078EF13F047C0D9FF48C0DAFFDFCFE7
:10269C0049F0040EDE26DFCF4AF0000EDD2249C0E1
:1026AC00D9FF4AC0DAFFDECF8CF0DECF8DF0DECF63
:1026BC008EF0DECF8FF078EF13F09451496E4A6AAA
:1026CC004A50000AD8B46DEF13F078EF13F049506C
:1026DC004C0AD8B449EF13F0200AD8B42FEF13F0FA
:1026EC0078EF13F0010E9525496E000E96214A6E77
:1026FC0045C0D9FF46C0DAFF49C0DEFF4AC0DDFF46
:10270C00A1EF13F043C032F044C033F08CC034F06E
:10271C008DC035F08EC036F08FC037F095C0F6FF07
:10272C0096C0F7FF000EF86E0800F5CF38F016ECE7
:10273C0007F0D8EF13F095C0F6FF96C0F7FF000E28
:10274C00F86E0800F550496E4A6A4A50000AD8B42F
:10275C00B2EF13F0B9EF13F04950660AD8B488EF12
:10276C0013F0B9EF13F045C0D9FF46C0DAFFDE2AEB
:10277C00000EDD22D8EF13F045C0D9FF46C0DAFFBA
:10278C00DECFF6FFDDCFF7FF000EF86E0800F55038
:10279C00056E066A43C007F044C008F0B9EC1AF0A5
:1027AC00B9EF13F0120022C038F023C039F024C066
:1027BC003AF025C03BF026C03CF027C03DF028C0C5
:1027CC003EF029C03FF03FBEEEEF13F0F1EF13F0F7
:1027DC00010EF2EF13F0000E406E4050D8B4F9EF3A
:1027EC0013F0FBEF13F00BEF14F03F1E3E1E3D1EDB
:1027FC003C1E3B1E3A1E391E386C000E39223A2202
:10280C003B223C223D223E223F224EBE18EF14F0CA
:10281C004E5006E14D04D8B016EF14F018EF14F03A
:10282C001EEF14F0000E356E010E346E22EF14F014
:10283C004DC034F04EC035F0C4C036F0C5C037F0D2
:10284C004050D8B42CEF14F02EEF14F045EF14F0E8
:10285C003606D8A037064050D8A437EF14F039EF1D
:10286C0014F03FEF14F0000E336E2B0E326E43EF6C
:10287C0014F0000E336E2D0E326E32C040F0000E8E
:10288C00426E4F0E416E000E01019F6FCAEF14F0A5
:10289C004106D8A04206500E4124D96E010E4220AA
:1028AC00DA6E38C005F039C006F03AC007F03BC00C
:1028BC0008F03CC009F03DC00AF03EC00BF03FC030
:1028CC000CF00A0E0D6E000E0E6E000E0F6E000E4A
:1028DC00106E000E116E000E126E000E136E000EB6
:1028EC00146E83EC18F005C02AF006C02BF007C05C
:1028FC002CF008C02DF009C02EF00AC02FF00BC030
:10290C0030F00CC031F02AC017F02BC018F037ECA7
:10291C001EF01750300FDF6E3406D8A03506360681
:10292C00D8A0370638C005F039C006F03AC007F019
:10293C003BC008F03CC009F03DC00AF03EC00BF0B3
:10294C003FC00CF00A0E0D6E000E0E6E000E0F6ED8
:10295C00000E106E000E116E000E126E000E136E35
:10296C00000E146EBFEC17F005C038F006C039F03D
:10297C0007C03AF008C03BF009C03CF00AC03DF07B
:10298C000BC03EF00CC03FF042BED5EF14F04250ED
:10299C0008E14104D8A0D5EF14F0D7EF14F0F3EF11
:1029AC0014F0385039103A103B103C103D103E10CA
:1029BC003F10D8A4E4EF14F0E6EF14F04EEF14F04F
:1029CC0035BEF3EF14F0355006E13404D8B0F1EF16
:1029DC0014F0F3EF14F04EEF14F04050D8B4F9EFBC
:1029EC0014F0FBEF14F006EF15F04106D8A04206E8
:1029FC00500E4124D96E010E4220DA6E40C0DFFF2A
:102A0C0020C015F021C016F0500E4124176E010E97
:102A1C004220186E36C019F037C01AF0D5EC1BF0F6
:102A2C001200BCC02EF0BDC02FF0BEC030F0BFC035
:102A3C0031F01EC02EF01FC02FF020C030F021C08E
:102A4C0031F0810E226EFF0E236E2EC024F02FC0AB
:102A5C0025F030C026F031C027F0180E3BEF15F0F2
:102A6C00D8902732263225322432E82E36EF15F054
:102A7C00245022242C6E000E23202D6E2DBE50EFE0
:102A8C0015F02D5009E1170E2C5CD8A050EF15F065
:102A9C0052EF15F05CEF15F01EC01EF01FC01FF0BA
:102AAC0020C020F021C021F01FEF16F02DBE61EFE9
:102ABC0015F063EF15F0D3EF15F02CC022F0FF0EDC
:102ACC00236EFF0E246E7F0E256E000E266E226680
:102ADC0072EF15F07AEF15F02634263225322432B7
:102AEC002332222E6DEF15F023C028F024C029F0DC
:102AFC0025C02AF026C02BF028502E14226E295007
:102B0C002F14236E2A503014246E2B503114256E42
:102B1C002250231024102510D8A497EF15F099EF0C
:102B2C0015F09BEF15F052EF15F02EC022F02FC0D0
:102B3C0023F030C024F031C025F0200EABEF15F09F
:102B4C00D8902532243223322232E82EA6EF15F00B
:102B5C002250231024102510D8B4B7EF15F0B9EF7C
:102B6C0015F0C1EF15F028502E2629502F222A508F
:102B7C0030222B503122281C226E291C236E2A1C39
:102B8C00246E2B1C256E22502E1623502F162450EB
:102B9C0030162550311617EF16F02EC022F02FC02C
:102BAC0023F030C024F031C025F0200EE3EF15F0F7
:102BBC00D8902532243223322232E82EDEEF15F063
:102BCC002250231024102510D8A4EFEF15F0F1EFAC
:102BDC0015F0FBEF15F0000E2E6E000E2F6E000E92
:102BEC00306E000E316E17EF16F0D8902E34226E28
:102BFC002F34236E3034246E3134256E2250231042
:102C0C0024102510D8B40DEF16F00FEF16F017EFB7
:102C1C0016F0000E2E6E000E2F6E800E306EBF0E54
:102C2C00316E2EC01EF02FC01FF030C020F031C00E
:102C3C0021F012000D6E0D50D8B427EF16F029EFCD
:102C4C0016F04BEF16F008BE30EF16F02EEF16F024
:102C5C004BEF16F005C009F006C00AF007C00BF0E8
:102C6C0008C00CF0091E0A1E0B1E0C1E092A000EB1
:102C7C000A220B220C2209C00FF00AC010F00BC064
:102C8C0011F00CC012F053EF16F005C00FF006C097
:102C9C0010F007C011F008C012F005500610071014
:102CAC000810D8A45CEF16F05EEF16F068EF16F083
:102CBC00000E056E000E066E000E076E000E086EFE
:102CCC00F9EF16F0960E0E6E72EF16F00E2AD890E3
:102CDC001232113210320F32000E0F14096E000E28
:102CEC0010140A6E000E11140B6EFE0E12140C6EE4
:102CFC0009500A100B100C10D8A487EF16F089EFAE
:102D0C0016F06CEF16F097EF16F00E2A010E0F2648
:102D1C00000E102211221222D890123211321032CF
:102D2C000F32000E0F14096E000E10140A6E000EF6
:102D3C0011140B6EFF0E12140C6E09500A100B10AE
:102D4C000C10D8A4ACEF16F0AEEF16F08BEF16F01B
:102D5C00B6EF16F00E06D8900F3610361136123626
:102D6C0011BEBBEF16F0BDEF16F0C5EF16F0020E5C
:102D7C000E60C3EF16F0C5EF16F0B0EF16F00EB004
:102D8C00CAEF16F0CCEF16F0CDEF16F0119ED890DE
:102D9C000E320EC009F00A6A0B6A0C6A09C00CF0FC
:102DAC000B6A0A6A096A09500F120A5010120B506A
:102DBC0011120C5012120D50D8B4E7EF16F0E9EFC7
:102DCC0016F0F1EF16F008BEF0EF16F0EEEF16F07D
:102DDC00F1EF16F0128E0FC005F010C006F011C006
:102DEC0007F012C008F012001EC0D9FF1FC0DAFF96
:102DFC00DECF05F0DDCF06F0000E06BEFF0E076E2F
:102E0C00086E010E20EC16F005C022F006C023F06F
:102E1C0007C024F008C025F020EE02F01E50D92681
:102E2C001F50DA22DECF05F0DDCF06F0000E06BE15
:102E3C00FF0E076E086E010E20EC16F005C026F092
:102E4C0006C027F007C028F008C029F020EE04F0D7
:102E5C001E50D9261F50DA22DECF05F0DDCF06F04A
:102E6C00000E06BEFF0E076E086E010E20EC16F06B
:102E7C0005C02AF006C02BF007C02CF008C02DF0BE
:102E8C0020EE06F01E50D9261F50DA22DECF05F0B8
:102E9C00DDCF06F0000E06BEFF0E076E086E010EAB
:102EAC0020EC16F005C02EF006C02FF007C030F055
:102EBC0008C031F022C005F023C006F024C007F092
:102ECC0025C008F02EC009F02FC00AF030C00BF05E
:102EDC0031C00CF089EC10F020C0D9FF21C0DAFF12
:102EEC0005C0DEFF06C0DEFF07C0DEFF08C0DEFF48
:102EFC002AC005F02BC006F02CC007F02DC008F03E
:102F0C002EC009F02FC00AF030C00BF031C00CF00D
:102F1C0089EC10F020EE08F02050D9262150DA224E
:102F2C0005C0DEFF06C0DEFF07C0DEFF08C0DEFF07
:102F3C0026C005F027C006F028C007F029C008F00D
:102F4C002EC009F02FC00AF030C00BF031C00CF0CD
:102F5C0089EC10F020EE04F02050D9262150DA2212
:102F6C0005C0DEFF06C0DEFF07C0DEFF08C0DEFFC7
:102F7C001200000E166E14BEC8EF17F0C6EF17F055
:102F8C00DAEF17F0141E131E121E111E101E0F1E48
:102F9C000E1E0D6C000E0E220F2210221122122278
:102FAC0013221422010E166E0CBEE1EF17F0DFEFA8
:102FBC0017F0F3EF17F00C1E0B1E0A1E091E081E4D
:102FCC00071E061E056C000E062207220822092287
:102FDC000A220B220C22010E161A20EE17F0070EF5
:102FEC00DE6AE806FDE20D500E100F1010101110E5
:102FFC00121013101410D8B406EF18F008EF18F0D4
:10300C005AEF18F0010E156E16EF18F0D8900D3619
:10301C000E360F3610361136123613361436152A74
:10302C0014AE1BEF18F01DEF18F00CEF18F0D89041
:10303C001736183619361A361B361C361D361E3600
:10304C000D50055C0E5006580F500758105008587C
:10305C001150095812500A5813500B5814500C5850
:10306C00D8A03BEF18F03DEF18F04EEF18F00D50D4
:10307C00055E0E50065A0F50075A1050085A115040
:10308C00095A12500A5A13500B5A14500C5A1780E2
:10309C00D890143213321232113210320F320E32E7
:1030AC000D32152E1DEF18F01650D8B460EF18F035
:1030BC0062EF18F072EF18F01E1E1D1E1C1E1B1E58
:1030CC001A1E191E181E176C000E182219221A220D
:1030DC001B221C221D221E2217C005F018C006F050
:1030EC0019C007F01AC008F01BC009F01CC00AF088
:1030FC001DC00BF01EC00CF01200000E166E0CBEA4
:10310C008CEF18F08AEF18F09EEF18F00C1E0B1EC7
:10311C000A1E091E081E071E061E056C000E06223E
:10312C000722082209220A220B220C22010E166EFB
:10313C0014BEA5EF18F0A3EF18F0B5EF18F0141E9D
:10314C00131E121E111E101E0F1E0E1E0D6C000ED5
:10315C000E220F22102211221222132214220D50A1
:10316C000E100F1010101110121013101410D8B4E0
:10317C00C2EF18F0C4EF18F00CEF19F0010E156E39
:10318C00D2EF18F0D8900D360E360F3610361136A9
:10319C00123613361436152A14AED7EF18F0D9EFB1
:1031AC0018F0C8EF18F00D50055C0E5006580F5073
:1031BC000758105008581150095812500A581350FB
:1031CC000B5814500C58D8A0EEEF18F0F0EF18F084
:1031DC0000EF19F00D50055E0E50065A0F50075AAD
:1031EC001050085A1150095A12500A5A13500B5ABF
:1031FC0014500C5AD890143213321232113210323D
:10320C000F320E320D32152ED9EF18F01650D8B4ED
:10321C0012EF19F014EF19F024EF19F00C1E0B1E1D
:10322C000A1E091E081E071E061E056C000E06222D
:10323C000722082209220A220B220C2205C005F0C3
:10324C0006C006F007C007F008C008F009C009F076
:10325C000AC00AF00BC00BF00CC00CF012000734C3
:10326C0008340E6E0E50D8A43EEF19F040EF19F052
:10327C004AEF19F0000E056E000E066E000E076E7A
:10328C00000E086EB7EF19F005C009F006C00AF081
:10329C0007C00BF008C00CF0200E5AEF19F0D890B4
:1032AC000C320B320A320932E82E55EF19F0095064
:1032BC000D6E078EFF0E0516FF0E0616FF0E071677
:1032CC00000E0816960E0E5E0EBE71EF19F06FEF23
:1032DC0019F087EF19F00E50800A970FD8B079EFDC
:1032EC0019F07BEF19F07DEF19F040EF19F0D89041
:1032FC0008320732063205320E3E7DEF19F09FEF91
:10330C0019F01F0E0E648DEF19F08FEF19F097EF77
:10331C0019F040EF19F0D890053606360736083606
:10332C000E060E50D8A49DEF19F09FEF19F091EFF7
:10333C0019F00D50D8B4A5EF19F0A7EF19F0AFEFB5
:10334C0019F0081E071E061E056C000E0622072229
:10335C00082205C005F006C006F007C007F008C03B
:10336C0008F01200000E1E14266E000E1F14276E9D
:10337C00800E2014286E7F0E2114296E26502710E3
:10338C0028102910D8A4CDEF19F0CFEF19F0D7EFF2
:10339C0019F0000E1E6E000E1F6E000E206E000E39
:1033AC00216E000E2214266E000E2314276E800E42
:1033BC002414286E7F0E2514296E265027102810F1
:1033CC002910D8A4ECEF19F0EEEF19F0F6EF19F084
:1033DC00000E226E000E236E000E246E000E256E63
:1033EC0021AEFBEF19F0FDEF19F006EF1AF01E6C91
:1033FC001F1ED8B01F2A201ED8B0202A800E21569E
:10340C0025AE0BEF1AF00DEF1AF016EF1AF0226C36
:10341C00231ED8B0232A241ED8B0242A800E255669
:10342C00000E1E1A000E1F1A000E201A800E211AF2
:10343C00000E221A000E231A000E241A800E251AD2
:10344C0022501E5C23501F582450205825502158C0
:10345C00D8B033EF1AF035EF1AF038EF1AF0D890E5
:10346C0039EF1AF0D8801200C0C00FF0C1C010F0B4
:10347C00C2C011F0C3C012F005C00FF006C010F0AE
:10348C0007C011F008C012F00FC009F010C00AF00C
:10349C0011C00BF012C00CF0180E5AEF1AF0D890A5
:1034AC000C320B320A320932E82E55EF1AF0095061
:1034BC000D6E0E6A0D500E10D8A467EF1AF069EF5E
:1034CC001AF089EF1AF0D8900F34096E10340A6E86
:1034DC0011340B6E12340C6E09500A100B100C10B8
:1034EC00D8A47BEF1AF07DEF1AF083EF1AF0000EE0
:1034FC00066E020E056EB8EF1AF0000E066E030E85
:10350C00056EB8EF1AF00D280E10D8A490EF1AF033
:10351C0092EF1AF0B4EF1AF00FC009F010C00AF0D5
:10352C0011C00BF012C00CF0090ED89009360A36F7
:10353C000B360C36E82E9BEF1AF009500A100B10C4
:10354C000C10D8B4ACEF1AF0AFEF1AF0010EB0EFCC
:10355C001AF0000E056E066AB8EF1AF0000E066E31
:10356C00040E056E120007500810D8B4C0EF1AF004
:10357C00C2EF1AF0CBEF1AF007500810D8A4C9EF1D
:10358C001AF0CBEF1AF0D0EF1AF005506AEC1FF0DE
:10359C001DEF1BF020EE09F00750D9260850DA2257
:1035AC00DE50DE10D8B4DDEF1AF0DFEF1AF0FAEFD0
:1035BC001AF020EE09F00750D9260850DA2210EE46
:1035CC0003F00750E1260850E222DE50E65CE6509C
:1035DC00800A0D6EDE50800A0D58D8B0F8EF1AF044
:1035EC00FAEF1AF01DEF1BF020EE03F00750D9266E
:1035FC000850DA22DECF09F0DDCF0AF007C0D9FF80
:10360C0008C0DAFFDECF0BF0DDCF0CF009500B2435
:10361C00D96E0A500C20DA6E05C0DFFF20EE03F0E5
:10362C000750D9260850DA22DE2A000EDD221200BD
:10363C0033EC1FF04EEC1FF073EC1EF0D0EC1EF0D0
:10364C00010E076E000E23EC1FF087928198869E68
:10365C00849E7F8279887C8EC60E106E000E116E51
:10366C0045EC1CF0C60E1E6E000E1F6EA00E206EDA
:10367C00010E216EFAEC16F0B00E00019D6F010EDA
:10368C009E6F010E9F6F0E0EA06FA0C1A1F0A1C185
:10369C00A2F0A2C1A3F0A3C1A4F0A4C1A5F0A5C13E
:1036AC00A6F0A6C1A7F0A7C1A8F0A8C1A9F0A9C10E
:1036BC00AAF0AAC1ABF0ABC1ACF0CCC0ADF0CDC0A0
:1036CC00AEF09EEC1CF0B00E066E010E076E8DEC8B
:1036DC001EF073EF1BF0BBEC1EF00001CE51D8A412
:1036EC007AEF1BF07CEF1BF071EF1BF032EF1BF04D
:1036FC0025EF00F0000E05140D6E000E06140E6E74
:10370C00800E07140F6E7F0E0814106E0D500E10E5
:10371C000F101010D8A495EF1BF097EF1BF09FEF34
:10372C001BF0000E056E000E066E000E076E000EEE
:10373C00086E000E09140D6E000E0A140E6E800E2B
:10374C000B140F6E7F0E0C14106E0D500E100F100C
:10375C001010D8A4B4EF1BF0B6EF1BF0BEEF1BF0AB
:10376C00000E096E000E0A6E000E0B6E000E0C6E33
:10377C00095005180FE10A5006180CE10B500718F8
:10378C0009E10C500818D8B4CEEF1BF0D0EF1BF0A9
:10379C00D3EF1BF0D890D4EF1BF0D88012001ABED8
:1037AC00DAEF1BF0DCEF1BF0E2EF1BF019C01EF0A0
:1037BC001AC01FF0E6EF1BF0000E1F6E000E1E6EFF
:1037CC00000E1D6E000E1C6EF8EF1BF0000E066E48
:1037DC00200E056E15C007F016C008F0B9EC1AF0F3
:1037EC001C4A1D2A1E501C5C1D50800A1B6E1F504B
:1037FC00800A1B58D8A005EF1CF007EF1CF0ECEF6B
:10380C001BF017C00EF018C00FF015C010F016C04A
:10381C0011F0D4EC1DF0120008BE21EF1CF0085082
:10382C000710061006E10504D8B01FEF1CF021EFBD
:10383C001CF03CEF1CF005C009F006C00AF007C0F4
:10384C000BF008C00CF0091E0A1E0B1E0C1E092AD8
:10385C00000E0A220B220C2209C005F00AC006F049
:10386C000BC007F00CC008F044EF1CF005C005F0CD
:10387C0006C006F007C007F008C008F0120017ECED
:10388C001DF010C0D9FF11C0DAFF09C0DEFF0AC05D
:10389C00DDFF67EC1DF020EE04F01050D92611501E
:1038AC00DA2209C0DEFF0AC0DDFF3FEC1DF020EE7E
:1038BC0002F01050D9261150DA2209C0DEFF0AC0DE
:1038CC00DDFFEFEC1CF020EE06F01050D926115065
:1038DC00DA2209C0DEFF0AC0DDFF120099C04BF0EE
:1038EC009AC04CF088EF1CF097C043F098C044F09D
:1038FC004B0E456E000E466E9BC047F09CC048F0C8
:10390C0056EC12F04BC0F6FF4CC0F7FF000EF86EF1
:10391C000800F5500009D8A496EF1CF098EF1CF0A5
:10392C007AEF1CF0000E0001986F000E976F1200DA
:10393C00A10E0001AF6F000EB06F9DC0B1F09EC024
:10394C00B2F0000EB56F000EB46F000EBB6F000E20
:10395C00BA6FB10E976F000E986F9FC099F0A0C010
:10396C009AF0AF0E9B6F000E9C6F74EC1CF0000174
:10397C00B4519D25D96EB5519E21DA6E000EDF6EC5
:10398C00120007C00EF008C00FF005C00CF006C006
:10399C000DF0E1EF1CF00EC0D9FF0FC0DAFFDF50C5
:1039AC000B6E0E4A0F2A0CC0D9FF0DC0DAFF0BC0EC
:1039BC00DFFF0C4A0D2A0906D8A00A06092806E1E1
:1039CC000A28D8A4ECEF1CF0EEEF1CF0D1EF1CF0A1
:1039DC00120065EC1FF0520E55EC1FF0B40E55ECB6
:1039EC001FF05BEC1FF0530E55EC1FF0010EF6ECC4
:1039FC001DF00B6E0B500E6E0F6A000EF6EC1DF0E8
:103A0C000B6E0B500D6E0C6A0E500C100E6E0F5090
:103A1C000D100F6E60EC1FF00EC009F00FC00AF015
:103A2C00120065EC1FF0520E55EC1FF0B60E55EC63
:103A3C001FF05BEC1FF0530E55EC1FF0010EF6EC73
:103A4C001DF00B6E0B500E6E0F6A000EF6EC1DF097
:103A5C000B6E0B500D6E0C6A0E500C100E6E0F5040
:103A6C000D100F6E60EC1FF00EC009F00FC00AF0C5
:103A7C00120065EC1FF0520E55EC1FF0B60E55EC13
:103A8C001FF05BEC1FF0530E55EC1FF0010EF6EC23
:103A9C001DF00B6E0B500E6E0F6A000EF6EC1DF047
:103AAC000B6E0B500D6E0C6A0E500C100E6E0F50F0
:103ABC000D100F6E60EC1FF00EC009F00FC00AF075
:103ACC00120065EC1FF0520E55EC1FF0BA0E55ECBF
:103ADC001FF05BEC1FF0530E55EC1FF0010EF6ECD3
:103AEC001DF00B6E0B500E6E0F6A000EF6EC1DF0F7
:103AFC000B6E0B500D6E0C6A0E500C100E6E0F50A0
:103B0C000D100F6E60EC1FF00EC009F00FC00AF024
:103B1C001200000E221A000E231A000E241A800E18
:103B2C00251A1EC005F01FC006F020C007F021C0EA
:103B3C0008F022C009F023C00AF024C00BF025C005
:103B4C000CF014EC0CF005C01EF006C01FF007C002
:103B5C0020F008C021F0120007C009F008C00AF0DC
:103B6C0005C00BF006C00CF009C0F6FF0AC0F7FF49
:103B7C00094A0A2A000EF86E0BC0D9FF0CC0DAFFF6
:103B8C000B4A0C2A0800F5CFDFFFDF50D8A4D1EF89
:103B9C001DF0D3EF1DF0BAEF1DF01200000E146EE5
:103BAC00000E136EE5EF1DF012C005F0066A10C092
:103BBC0007F011C008F0B9EC1AF0134A142A13508C
:103BCC000E24D96E14500F20DA6EDF50126E125084
:103BDC00D8A4F3EF1DF0F5EF1DF0DAEF1DF0120095
:103BEC00076E0FEC1FF00E01DA870FEC1FF0D5CE2D
:103BFC0008F00FEC1FF00750D8B407EF1EF00BEFD6
:103C0C001EF0066A062A0CEF1EF0066A063A0646F5
:103C1C000E01DA510618DF0B0618DA6FDA89085034
:103C2C001200D60EF66E3E0EF76E000EF86E090000
:103C3C00F5CFCEF001EE00F0B00EEE6AE806FDE135
:103C4C0000EEBCF0120EEE6AE806FDE100EE4DF05F
:103C5C00070EEE6AE806FDE15490549200011EEF47
:103C6C001BF018BE44EF1EF0185006E11704D8B034
:103C7C0042EF1EF044EF1EF052EF1EF017C019F089
:103C8C0018C01AF0191E1A1E194A1A2A19C017F050
:103C9C001AC018F056EF1EF017C017F018C018F025
:103CAC0012000550061007100810D8B460EF1EF073
:103CBC0062EF1EF06AEF1EF0000E051A000E061AD7
:103CCC00000E071A800E081A05C005F006C006F093
:103CDC0007C007F008C008F01200D0EC1EF0010E6F
:103CEC00076E000E23EC1FF03F0E096E550EE82EEA
:103CFC00FED7092EFCD700F0030E076E000E23EC46
:103D0C001FF0D50E076E010E23EC1FF0120098EF7A
:103D1C001EF006C0D9FF07C0DAFFDF50E5EC1EF03D
:103D2C00064A072A06C0D9FF07C0DAFFDF50D8A41D
:103D3C00A2EF1EF0A4EF1EF08FEF1EF012003B0E50
:103D4C005064ABEF1EF0ADEF1EF0AFEF1EF0000EA7
:103D5C00506E502A5004016E026A000E0124D96E76
:103D6C00010E0220DA6EDF50120042EC1FF0000947
:103D7C00D8B4C3EF1EF0C5EF1EF0CCEF1EF00E0151
:103D8C002D85010E0001CE6FCFEF1EF0000E00014D
:103D9C00CE6F12000E01D951F00B0809D96FD98BD7
:103DAC009F0ED66F848A848CA79BA79D1D0E1D6FBA
:103DBC001E0E1C6F1C0E6F6F1B0E706F1200056EAB
:103DCC003B0E5164ECEF1EF0EEEF1EF0F0EF1EF028
:103DDC00000E516E000E5124D96EDA6A010EDA22F1
:103DEC0005C0DFFF512A1200016E130E536401EF60
:103DFC001FF003EF1FF005EF1FF0000E536E3C0E8B
:103E0C005324D96EDA6A010EDA2201C0DFFF532A7D
:103E1C0012000E01D8B515EF1FF017EF1FF00FEFC2
:103E2C001FF0DACE05F01F0E0516D8A420EF1FF0F8
:103E3C0022EF1FF00FEF1FF01200086E65EC1FF061
:103E4C00520E55EC1FF00850800955EC1FF007502E
:103E5C0055EC1FF060EC1FF01200120E0E01626F99
:103E6C00110E156FE997E895330EE56F000EE66FAE
:103E7C00E789E88BE78F120050505118D8A449EF0E
:103E8C001FF04CEF1FF0010E4DEF1FF0000E120053
:103E9C00F29A0E012B81F28CF28E2D871200066E97
:103EAC000FEC1FF006C0D5FE12000FEC1FF00E0138
:103EBC00DA8312000FEC1FF00E01DA8512000FEC02
:0B3ECC001FF00E01DA8112001200014D
:020000040020DA
:10000000FF0FFF0FFF0FFF0FFF0FFF0FFF0FFF0F80
:020000040030CA
:0C000000AAFFFFFF9FFFFFFFFFFFFFFFB5
:00000001FF
