:040000003AEF00F0E3
:100008005B82D9CF2EF0DACF2FF0F3CF30F0F4CFD8
:1000180031F00E0133AB13EF00F015EF00F030EFC5
:1000280000F04E4A4F2AD8904E34D96E4F34DA6ECB
:10003800000ED926030EDA22FF0EDE6EFF0EDD6EED
:10004800339B299B8C0E256E020E266E000E276EA2
:10005800030E286E3FEC1FF031C0F4FF30C0F3FFF1
:100068002FC0DAFF2EC0D9FF5B9211001FEF31F0CD
:100E0000007265643D256620677265656E3D2566E6
:100E100020626C75653D2566206C756D3D256420EE
:100E2000636F6C6F7572313D2564200D0A00696E29
:070E300066006E616E000018
:100E3800000E0001C26F000EC36F000EC46F000EDB
:100E4800C56F000EC66F500EC76FC30EC86F470E32
:100E5800C96F000EB56F040EB46F20EEB6F00B0E1E
:100E6800DE6AE806FDE2AAC0D9FFABC0DAFFDECF32
:100E780060F0DDCF61F0000E61BFFF0E626F636F3F
:100E8800010EF8EC23F060C0B6F061C0B7F062C0A4
:100E9800B8F063C0B9F0000120EE02F0AA51D926DB
:100EA800AB51DA22DECF60F0DDCF61F0000E61BF1A
:100EB800FF0E626F636F010EF8EC23F060C0BAF0AA
:100EC80061C0BBF062C0BCF063C0BDF0000120EEA1
:100ED80004F0AA51D926AB51DA22DECF60F0DDCF7B
:100EE80061F0000E61BFFF0E626F636F010EF8ECD8
:100EF80023F060C0BEF061C0BFF062C0C0F063C044
:100F0800C1F0000E0001CB6F000ECA6FC2C089F09D
:100F1800C3C08AF0C4C08BF0C5C08CF0B60EAE6FEB
:100F2800000EAF6FD890CA35D96ECB35DA6ED8902F
:100F3800D936DA36AE51D926AF51DA22DECF8DF066
:100F4800DECF8EF0DECF8FF0DECF90F041EC28F0D0
:100F58000001D8B0B2EF07F0B4EF07F0D0EF07F018
:100F6800B60EAE6F000EAF6FD890CA35D96ECB35BE
:100F7800DA6ED890D936DA36AE51D926AF51DA22A0
:100F8800DECFC2F0DECFC3F0DECFC4F0DECFC5F0D7
:100F9800CAC0B4F0CBC0B5F0B60EAE6F000EAF6FDE
:100FA800D890CA35D96ECB35DA6ED890D936DA36BC
:100FB800AE51D926AF51DA22DECF89F0DECF8AF0E2
:100FC800DECF8BF0DECF8CF0C6C08DF0C7C08EF0C0
:100FD800C8C08FF0C9C090F041EC28F00001D8B02B
:100FE800F8EF07F0FAEF07F012EF08F0B60EAE6F61
:100FF800000EAF6FD890CA35D96ECB35DA6ED8905F
:10100800D936DA36AE51D926AF51DA22DECFC6F05C
:10101800DECFC7F0DECFC8F0DECFC9F0CA4BCB2B8E
:10102800CBBF20EF08F0CB5109E1030ECA5DD8A071
:1010380020EF08F022EF08F08AEF07F0C6C08DF025
:10104800C7C08EF0C8C08FF0C9C090F0C2C089F088
:10105800C3C08AF0C4C08BF0C5C08CF0E7EC36F092
:1010680089C091F08AC092F08BC093F08CC094F044
:10107800000E0001956F000E966F000E976F000E20
:10108800986F84EC2FF00001D8A04DEF08F04FEFD7
:1010980008F055EF08F0000EAB6F000EAA6FA9EF2D
:1010A8000CF0B451B511D8A45CEF08F05EEF08F06D
:1010B800D3EF08F0C6C08DF0C7C08EF0C8C08FF05F
:1010C800C9C090F0C2C089F0C3C08AF0C4C08BF018
:1010D800C5C08CF0E7EC36F089C095F08AC096F070
:1010E8008BC097F08CC098F0BEC08DF0BFC08EF05A
:1010F800C0C08FF0C1C090F0BAC089F0BBC08AF000
:10110800BCC08BF0BDC08CF0E7EC36F089C091F024
:101118008AC092F08BC093F08CC094F0C8EC18F0A1
:1011280091C070F092C071F093C072F094C073F0E7
:10113800000E0001746F000E756F700E766F420E10
:10114800776FB2EC16F070C0CCF071C0CDF072C001
:10115800CEF073C0CFF00001CFBFB7EF08F0B5EF06
:1011680008F0B6EF09F0CCC060F0CDC061F0CEC099
:1011780062F0CFC063F0000E646F000E656FB40EAE
:10118800666F430E676F51EC14F060C0CCF061C01D
:10119800CDF062C0CEF063C0CFF0B6EF09F0B40571
:1011A800B511D8A4DAEF08F0DCEF08F04AEF09F03F
:1011B800C6C08DF0C7C08EF0C8C08FF0C9C090F00F
:1011C800C2C089F0C3C08AF0C4C08BF0C5C08CF01F
:1011D800E7EC36F089C095F08AC096F08BC097F09E
:1011E8008CC098F0B6C08DF0B7C08EF0B8C08FF044
:1011F800B9C090F0BEC089F0BFC08AF0C0C08BF003
:10120800C1C08CF0E7EC36F089C091F08AC092F04A
:101218008BC093F08CC094F0C8EC18F091C0B0F07B
:1012280092C0B1F093C0B2F094C0B3F0000E0001C8
:10123800646F000E656F000E666F400E676FB0C07A
:1012480060F0B1C061F0B2C062F0B3C063F051ECBD
:1012580014F060C070F061C071F062C072F063C0D9
:1012680073F0000E0001746F000E756F700E766FCC
:10127800420E776FB2EC16F070C0CCF071C0CDF0B2
:1012880072C0CEF073C0CFF0B6EF09F0C6C08DF0D3
:10129800C7C08EF0C8C08FF0C9C090F0C2C089F036
:1012A800C3C08AF0C4C08BF0C5C08CF0E7EC36F040
:1012B80089C095F08AC096F08BC097F08CC098F0E2
:1012C800BAC08DF0BBC08EF0BCC08FF0BDC090F02E
:1012D800B6C089F0B7C08AF0B8C08BF0B9C08CF03E
:1012E800E7EC36F089C091F08AC092F08BC093F099
:1012F8008CC094F0C8EC18F091C0B0F092C0B1F076
:1013080093C0B2F094C0B3F0000E0001646F000EF9
:10131800656F800E666F400E676FB0C060F0B1C039
:1013280061F0B2C062F0B3C063F051EC14F060C079
:1013380070F061C071F062C072F063C073F0000EAB
:101348000001746F000E756F700E766F420E776F26
:10135800B2EC16F070C0CCF071C0CDF072C0CEF017
:1013680073C0CFF0CCC089F0CDC08AF0CEC08BF06E
:10137800CFC08CF0000E00018D6F000E8E6FA50E91
:101388008F6F430E906F41EC28F00001D8A0CFEF8B
:1013980009F0D1EF09F0F1EF09F0000E896F000EA6
:1013A8008A6FB40E8B6F430E8C6FCCC08DF0CDC09E
:1013B8008EF0CEC08FF0CFC090F041EC28F0000145
:1013C800D8A0E9EF09F0EBEF09F0F1EF09F0000E12
:1013D800AB6F010EAA6FA9EF0CF0CCC089F0CDC09D
:1013E8008AF0CEC08BF0CFC08CF0000E8D6F000E4F
:1013F8008E6FA00E8F6F400E906F41EC28F00001A9
:10140800D8A009EF0AF00BEF0AF02BEF0AF0000E54
:10141800896F000E8A6F400E8B6F410E8C6FCCC0A7
:101428008DF0CDC08EF0CEC08FF0CFC090F041ECE3
:1014380028F00001D8A023EF0AF025EF0AF02BEFDF
:101448000AF0000EAB6F020EAA6FA9EF0CF0CCC029
:1014580089F0CDC08AF0CEC08BF0CFC08CF0000EE2
:101468008D6F000E8E6FA00E8F6F410E906F41EC46
:1014780028F00001D8A043EF0AF045EF0AF0C9EFC1
:101488000AF0000E896F000E8A6FE80E8B6F410E0E
:101498008C6FCCC08DF0CDC08EF0CEC08FF0CFC099
:1014A80090F041EC28F00001D8A05DEF0AF05FEF62
:1014B8000AF0C9EF0AF0ACC0D9FFADC0DAFFDECF41
:1014C80089F0DECF8AF0DECF8BF0DECF8CF0CD0E48
:1014D8008D6FCC0E8E6F4C0E8F6F3E0E906F41EC61
:1014E80028F00001D8A07BEF0AF07DEF0AF09DEF0D
:1014F8000AF0000E896F000E8A6F800E8B6F3E0E09
:101508008C6FACC0D9FFADC0DAFFDECF8DF0DECF77
:101518008EF0DECF8FF0DECF90F041EC28F00001A6
:10152800D8A099EF0AF09BEF0AF09DEF0AF04FEF71
:1015380008F020EE08F0AC51D926AD51DA22DECF02
:1015480089F0DECF8AF0DECF8BF0DECF8CF0290E6B
:101558008D6F5C0E8E6F0F0E8F6F3E0E906F41EC8D
:1015680028F00001D8A0BBEF0AF0BDEF0AF0C3EFE6
:101578000AF0000EAB6F040EAA6FA9EF0CF0000E74
:10158800AB6F030EAA6FA9EF0CF0CCC089F0CDC0E9
:101598008AF0CEC08BF0CFC08CF0000E8D6F000E9D
:1015A8008E6F340E8F6F420E906F41EC28F0000161
:1015B800D8A0E1EF0AF0E3EF0AF04BEF0BF0000ED2
:1015C800896F000E8A6FA00E8B6F420E8C6FCCC095
:1015D8008DF0CDC08EF0CEC08FF0CFC090F041EC32
:1015E80028F00001D8A0FBEF0AF0FDEF0AF04BEF5E
:1015F8000BF020EE08F0AC51D926AD51DA22DECF3F
:1016080089F0DECF8AF0DECF8BF0DECF8CF09A0E39
:101618008D6F990E8E6F190E8F6F3E0E906F41EC85
:1016280028F00001D8A01BEF0BF01DEF0BF01FEF07
:101638000BF0BDEF0AF020EE08F0AC51D926AD5101
:10164800DA22DECF89F0DECF8AF0DECF8BF0DECF74
:101658008CF08F0E8D6FC20E8E6FF50E8F6F3D0E54
:10166800906F41EC28F00001D8A03DEF0BF03FEF60
:101678000BF045EF0BF0000EAB6F060EAA6FA9EF4B
:101688000CF0000EAB6F050EAA6FA9EF0CF0CCC0E2
:1016980089F0CDC08AF0CEC08BF0CFC08CF0000EA0
:1016A8008D6F000E8E6FA20E8F6F420E906F41EC01
:1016B80028F00001D8A063EF0BF065EF0BF0A1EF65
:1016C8000BF0000E896F000E8A6FE60E8B6F420ECC
:1016D8008C6FCCC08DF0CDC08EF0CEC08FF0CFC057
:1016E80090F041EC28F00001D8A07DEF0BF07FEFDF
:1016F8000BF0A1EF0BF020EE08F0AC51D926AD515C
:10170800DA22DECF89F0DECF8AF0DECF8BF0DECFB3
:101718008CF09A0E8D6F990E8E6F190E8F6F3E0E8C
:10172800906F41EC28F00001D8A09DEF0BF09FEFDF
:101738000BF03FEF0BF0BDEF0AF0CCC089F0CDC045
:101748008AF0CEC08BF0CFC08CF0000E8D6F000EEB
:101758008E6FF00E8F6F410E906F41EC28F00001F4
:10176800D8A0B9EF0BF0BBEF0BF0D5EF0BF0000EE4
:10177800896F000E8A6F680E8B6F420E8C6FCCC01B
:101788008DF0CDC08EF0CEC08FF0CFC090F041EC80
:1017980028F00001D8B0D3EF0BF0D5EF0BF0BDEF78
:1017A8000AF0CCC089F0CDC08AF0CEC08BF0CFC093
:1017B8008CF0000E8D6F000E8E6FF00E8F6F420E44
:1017C800906F41EC28F00001D8A0EDEF0BF0EFEF9F
:1017D8000BF00BEF0CF0000E896F000E8A6F5C0E99
:1017E8008B6F430E8C6FCCC08DF0CDC08EF0CEC009
:1017F8008FF0CFC090F041EC28F00001D8A007EF9F
:101808000CF009EF0CF00BEF0CF0BDEF0AF0CCC0B8
:1018180089F0CDC08AF0CEC08BF0CFC08CF0000E1E
:101828008D6F000E8E6F600E8F6F410E906F41ECC2
:1018380028F00001D8A023EF0CF025EF0CF0A5EF5D
:101848000CF0000E896F000E8A6F980E8B6F410E98
:101858008C6FCCC08DF0CDC08EF0CEC08FF0CFC0D5
:1018680090F041EC28F00001D8A03DEF0CF03FEFDC
:101878000CF0A5EF0CF0ACC0D9FFADC0DAFFDECF9D
:1018880089F0DECF8AF0DECF8BF0DECF8CF0CD0E84
:101898008D6FCC0E8E6F4C0E8F6F3E0E906F41EC9D
:1018A80028F00001D8A05BEF0CF05DEF0CF07DEFA5
:1018B8000CF01F0E896F850E8A6F6B0E8B6F3E0EB4
:1018C8008C6FACC0D9FFADC0DAFFDECF8DF0DECFB4
:1018D8008EF0DECF8FF0DECF90F041EC28F00001E3
:1018E800D8A079EF0CF07BEF0CF07DEF0CF04FEF08
:1018F80008F020EE08F0AC51D926AD51DA22DECF3F
:1019080089F0DECF8AF0DECF8BF0DECF8CF09A0E36
:101918008D6F990E8E6F190E8F6F3E0E906F41EC82
:1019280028F00001D8A09BEF0CF09DEF0CF09FEF82
:101938000CF0BDEF0AF0000EAB6F070EAA6FA9EF0F
:101948000CF0000EAB6F0A0EAA6F1200000E000119
:10195800E86FC0C0EBF0C1C0ECF0C2C0EDF0C3C08E
:10196800EEF0EEBFBCEF0CF0BAEF0CF0D0EF0CF0DD
:10197800010EE86FEBC060F0ECC061F0EDC062F002
:10198800EEC063F00EEC38F060C0EBF061C0ECF034
:1019980062C0EDF063C0EEF0000E0001EA6F000EC9
:1019A800E96FAAC1D8F0ABC1D9F0E851D8B4DFEFDC
:1019B8000CF0E1EF0CF0F5EF0CF0E851D8A4E7EFEC
:1019C8000CF0E9EF0CF0EFEF0CF0000ECE6F2B0EE1
:1019D800CD6FF3EF0CF0000ECE6F2D0ECD6FCDC096
:1019E800E8F0EBC060F0ECC061F0EDC062F0EEC072
:1019F80063F0C4EC28F0000160056111D8A407EF7A
:101A08000DF009EF0DF03BEF0DF0E851D8B40FEFF2
:101A18000DF011EF0DF01AEF0DF0E8C03CF2D80709
:101A2800D8A0D907000EEA6F010EE96F3C0EE92530
:101A3800606F020EEA21616F2E0E626F0E0E636FE9
:101A48000BEC37F00001FD0ED827FF0ED923BEC0DE
:101A580070F0BFC071F03C0E726F020E736FD8C089
:101A680074F0D9C075F0A1EC30F0ADEF11F0EBC017
:101A780060F0ECC061F0EDC062F0EEC063F0C4EC61
:101A880028F0000160516111D8A44DEF0DF04FEF1F
:101A98000DF06EEF0DF0E851D8B455EF0DF057EF9B
:101AA8000DF060EF0DF0E8C03CF2D807D8A0D907D8
:101AB800000EEA6F010EE96F3C0EE925606F020E19
:101AC800EA21616F320E626F0E0E636F0BEC37F016
:101AD80026EF0DF0000EEF6F000EF06F800EF16F25
:101AE8003F0EF26F000ED76F000ED66FEBC091F06D
:101AF800ECC092F0EDC093F0EEC094F0000E956F3C
:101B0800000E966F000E976F000E986F84EC2FF002
:101B18000001D8B092EF0DF094EF0DF076EF0EF0D3
:101B2800A0EF0DF0DAC0EFF0DBC0F0F0DCC0F1F0B0
:101B3800DDC0F2F0D64BD72BEFC070F0F0C071F0DB
:101B4800F1C072F0F2C073F0000E746F000E756F82
:101B5800200E766F410E776FB2EC16F070C0DAF097
:101B680071C0DBF072C0DCF073C0DDF00001DA5147
:101B7800EB5D606FDB51EC59616FDC51ED59626FC1
:101B8800DD51EE59636F07EC32F0000163BFD8EF07
:101B98000DF063516211611109E1020E605DD8A078
:101BA800D8EF0DF0DAEF0DF096EF0DF0DAC089F00E
:101BB800DBC08AF0DCC08BF0DDC08CF0EBC08DF0B0
:101BC800ECC08EF0EDC08FF0EEC090F041EC28F044
:101BD8000001D8A0F2EF0DF0F4EF0DF096EF0DF044
:101BE800EF51EB5D606FF051EC59616FF151ED59B8
:101BF800626FF251EE59636F07EC32F0000163BF78
:101C080013EF0EF063516211611107E1020E605D7E
:101C1800D8B011EF0EF013EF0EF05CEF0EF0EFC03E
:101C2800EBF0F0C0ECF0F1C0EDF0F2C0EEF076EFC2
:101C38000EF0EFC091F0F0C092F0F1C093F0F2C056
:101C480094F0000E956F000E966F200E976F410E60
:101C5800986FC8EC18F091C0EFF092C0F0F093C004
:101C6800F1F094C0F2F00001D607D8A0D707EF51E1
:101C7800EB5D606FF051EC59616FF151ED59626F96
:101C8800F251EE59636F07EC32F0000163BF5AEF6F
:101C98000EF063516211611107E1020E605DD8B068
:101CA80058EF0EF05AEF0EF05CEF0EF013EF0EF057
:101CB800EBC089F0ECC08AF0EDC08BF0EEC08CF080
:101CC800EFC08DF0F0C08EF0F1C08FF0F2C090F050
:101CD80041EC28F00001D8A074EF0EF076EF0EF07A
:101CE8001DEF0EF0C4C0D0F0D0C0D1F00101ADBFDF
:101CF80080EF0EF082EF0EF088EF0EF0ACC1C9F065
:101D0800ADC1CAF08DEF0EF0000E0001CA6F060ECD
:101D1800C96FC9C0D4F0CAC0D5F00001D44BD52BC7
:101D2800660ED119D8A49BEF0EF09DEF0EF0BDEF13
:101D38000EF0D7BFA4EF0EF0A2EF0EF0B0EF0EF04A
:101D4800000EEF6F000EF06F800EF16F3F0EF26F16
:101D5800000ED76F000ED66F670ED019D8B4B7EF44
:101D68000EF0B9EF0EF0BDEF0EF0D651D427D751D3
:101D7800D523000EDF6F000EDE6FEBC0E0F0ECC085
:101D8800E1F0EDC0E2F0EEC0E3F0EFC0DAF0F0C051
:101D9800DBF0F1C0DCF0F2C0DDF04FEF0FF0E0C097
:101DA80091F0E1C092F0E2C093F0E3C094F0EFC08C
:101DB80095F0F0C096F0F1C097F0F2C098F0C8EC3A
:101DC80018F091C0AAF092C0ABF093C0ACF094C0E8
:101DD800ADF0F3EC21F0AAC0E4F0ABC0E5F0ACC084
:101DE800E6F0ADC0E7F0E4C060F0E5C061F0E6C041
:101DF80062F0E7C063F0BDEC27F060C0D2F061C0CC
:101E0800D3F0E0C089F0E1C08AF0E2C08BF0E3C013
:101E18008CF0E4C074F0E5C075F0E6C076F0E7C079
:101E280077F0EFC070F0F0C071F0F1C072F0F2C05E
:101E380073F0B2EC16F070C08DF071C08EF072C005
:101E48008FF073C090F0E7EC36F089C0E0F08AC0FC
:101E5800E1F08BC0E2F08CC0E3F0EFC091F0F0C08D
:101E680092F0F1C093F0F2C094F0000E0001956F6B
:101E7800000E966F200E976F410E986FC8EC18F001
:101E880091C0EFF092C0F0F093C0F1F094C0F2F07E
:101E98000001DE4BDF2BD451DE5DDF51800AC56FB8
:101EA800D551800AC559D8A05CEF0FF05EEF0FF04E
:101EB800D3EF0EF0EFC070F0F0C071F0F1C072F027
:101EC800F2C073F0000E746F000E756FA00E766F7F
:101ED800400E776FB2EC16F070C0E4F071C0E5F018
:101EE80072C0E6F073C0E7F0E0C089F0E1C08AF0A4
:101EF800E2C08BF0E3C08CF0E4C08DF0E5C08EF05A
:101F0800E6C08FF0E7C090F041EC28F00001D8B0AF
:101F180090EF0FF092EF0FF09CEF0FF0000EE46FD0
:101F2800000EE56F000EE66F000EE76FC5EF0FF0CD
:101F3800E0C091F0E1C092F0E2C093F0E3C094F009
:101F4800E4C095F0E5C096F0E6C097F0E7C098F0D9
:101F580084EC2FF00001D8A0B4EF0FF0B6EF0FF02B
:101F6800C5EF0FF0D2B1BBEF0FF0BDEF0FF0C5EF2B
:101F78000FF0000EE46F000EE56F000EE66F000E26
:101F8800E76FEBC060F0ECC061F0EDC062F0EEC04E
:101F980063F0E4C064F0E5C065F0E6C066F0E7C051
:101FA80067F051EC14F060C0E0F061C0E1F062C08D
:101FB800E2F063C0E3F0E0C089F0E1C08AF0E2C07B
:101FC8008BF0E3C08CF0000E0001746F000E756F8B
:101FD800200E766F410E776FDAC070F0DBC071F0BB
:101FE800DCC072F0DDC073F0B2EC16F070C08DF09A
:101FF80071C08EF072C08FF073C090F041EC28F081
:102008000001D8A00AEF10F00CEF10F034EF10F038
:10201800D64BD72BDAC070F0DBC071F0DCC072F0A1
:10202800DDC073F0000E746F000E756F200E766FB2
:10203800410E776FB2EC16F070C0DAF071C0DBF0C9
:1020480072C0DCF073C0DDF0660E0001D119D8A4AF
:1020580030EF10F032EF10F034EF10F0D44BD52BF6
:10206800DAC0EFF0DBC0F0F0DCC0F1F0DDC0F2F078
:10207800D6C0C7F0D7C0C8F0000ECF6F000ECC6F27
:10208800000ECB6F000EDF6F000EDE6F32EF11F027
:10209800E0C091F0E1C092F0E2C093F0E3C094F0A8
:1020A800EFC095F0F0C096F0F1C097F0F2C098F04C
:1020B800C8EC18F091C0AAF092C0ABF093C0ACF095
:1020C80094C0ADF0F3EC21F0AAC0E4F0ABC0E5F0A9
:1020D800ACC0E6F0ADC0E7F0E4C060F0E5C061F088
:1020E800E6C062F0E7C063F0BDEC27F0000161BF15
:1020F80089EF10F0615107E10A0E605DD8B087EFF3
:1021080010F089EF10F099EF10F0E4C060F0E5C02E
:1021180061F0E6C062F0E7C063F0BDEC27F060C094
:10212800D2F061C0D3F09DEF10F0000ED36F090E0E
:10213800D26F0001CF51D8A4A4EF10F0A6EF10F091
:10214800CEEF10F0C8BFADEF10F0ABEF10F0CEEF50
:1021580010F03C0EE925D96E020EEA21DA6E2E0E39
:10216800DF6EE94BEA2BD807D8A0D907010ECF6F4D
:10217800CEEF10F03C0EE925D96E020EEA21DA6E98
:10218800300EDF6EE94BEA2BD807D8A0D907CB076A
:10219800D8A0CC07CB51CC11D8A4D5EF10F0D7EFED
:1021A80010F0BEEF10F03C0EE925D96E020EEA21C0
:1021B800DA6ED251300FDF6EE94BEA2BD807D8A080
:1021C800D907E0C089F0E1C08AF0E2C08BF0E3C033
:1021D8008CF0E4C074F0E5C075F0E6C076F0E7C0B6
:1021E80077F0EFC070F0F0C071F0F1C072F0F2C09B
:1021F80073F0B2EC16F070C08DF071C08EF072C042
:102208008FF073C090F0E7EC36F089C0E0F08AC038
:10221800E1F08BC0E2F08CC0E3F0EFC091F0F0C0C9
:1022280092F0F1C093F0F2C094F0000E0001956FA7
:10223800000E966F200E976F410E986FC8EC18F03D
:1022480091C0EFF092C0F0F093C0F1F094C0F2F0BA
:102258000001C707D8A0C807DE4BDF2BD451DE5DCD
:10226800DF51800AC56FD551800AC559D8B03FEFF4
:1022780011F041EF11F04FEF11F0EABF4DEF11F0FF
:10228800EA5109E14B0EE95DD8A04DEF11F04FEF8F
:1022980011F04CEF10F0000EDF6F4F0EDE6F3C0EAA
:1022A800DE25D96E020EDF21DA6E000EDF6E3C0EDF
:1022B800C56F020EC66FE951C55FEA51C65BDE51B4
:1022C800C525606FDF51C621616F3C0E626F020E3B
:1022D800636FE9C064F0EAC065F00CEC35F000010A
:1022E800E951DE5DE96FEA51DF59EA6FE851D8A498
:1022F80080EF11F083EF11F0010E84EF11F0000E62
:10230800DE6FDF6BE851D8B48CEF11F08EEF11F06F
:1023180099EF11F0E907D8A0EA073C0EE925D96E34
:10232800020EEA21DA6EE8C0DFFFDE51D85FDF5126
:10233800D95BBEC070F0BFC071F03C0EE925726F6A
:10234800020EEA21736FD8C074F0D9C075F0A1EC01
:1023580030F0120002EC39F025EC39F05CEC33F087
:1023680090EC38F0000E0001616FC80E606FDAEC77
:102378002FF087928198869E86840E01B495868672
:10238800B4977F8279887E8E7C9E849E809688967C
:10239800809088907E9086907C9884987C9684968D
:1023A800000E0101C36F010EC46F010EC56FAA0EA6
:1023B800C86F0F0EC96FA60ECA6F0F0ECB6F000E37
:1023C800C76FC80EC66F000EBA6F010EBB6F010E45
:1023D800BC6F250EBF6F0F0EC06F210EC16F0F0EA1
:1023E800C26F000EBE6FC80EBD6F000E996F000E53
:1023F800986F000E9D6F000E9C6F4E684F68C30E5D
:102408000001806F010E816FBA0E826F010E836F1B
:10241800FEEC22F07E90520E0001FE6F2B0EFD6F37
:10242800000EE82EFED7FD2FFCD7FE2FFAD700F0BE
:102438008EB421EF12F023EF12F01CEF12F0520EBF
:102448000001FE6F2B0EFD6F000EE82EFED7FD2F4C
:10245800FCD7FE2FFAD700F0F2EC38F045EF14F075
:10246800000ED46E000ED36E000E976F000E966F9E
:10247800C30E0001736F010E746FBA0E756F010EF3
:10248800766FB1EC2BF0CC0E00016B6F010E6C6F08
:102498003BEC32F0CC0E0001AA6F010EAB6FAE0E12
:1024A800AC6F010EAD6F96EC1AF00101D3BF66EF69
:1024B80012F0F40ED25D010ED359D8A066EF12F0D7
:1024C80068EF12F045EF14F04E4A4F2AB9EC38F095
:1024D800C30E00017A6F010E7B6FBA0E7C6F010E7E
:1024E8007D6F6EEC32F0C30E0001736F010E746FD6
:1024F800BA0E756F010E766F61EC30F0110E0001A7
:10250800FE6F3C0EFD6FCB0EE82EFED7FD2FFCD7DD
:10251800FE2FFAD7C4EF12F0CC0E0001AA6F010EFD
:10252800AB6FAE0EAC6F010EAD6F1CEC07F0AAC01E
:102538009AF1ABC09BF101019C519A1907E19D5199
:102548009B19D8A4AAEF12F0ACEF12F0B0EF12F07A
:10255800984B992BB4EF12F0000E996F000E986FFC
:102568009AC19CF19BC19DF1050E0001FE6F0F0EF3
:10257800FD6FF10EE82EFED7FD2FFCD7FE2FFAD700
:10258800010199BFD1EF12F0995109E1140E985D3C
:10259800D8A0D1EF12F0D3EF12F090EF12F0000EA6
:1025A800996F000E986F320E116F010E126F010EA7
:1025B800136F0E0E146FAEC115F1AFC116F1B0C195
:1025C80017F1B1C118F1B2C119F1B3C11AF1B4C10F
:1025D8001BF1B5C11CF1B6C11DF1B7C11EF1B8C1DF
:1025E8001FF1B9C120F1D2C121F1D3C122F19CC19F
:1025F80023F19DC124F1E3EC34F0320E0001616F48
:10260800010E626F62EC38F001019C059D11D8A49F
:1026180010EF13F012EF13F02BEF13F0C30E0001BD
:10262800806F010E816FBA0E826F010E836F2EECE0
:1026380037F0000ED46E000ED36E8C0E4E24D96E79
:10264800020E4F20DA6E010EDF6E45EF14F0020E17
:102658009C199D11D8A433EF13F035EF13F04EEF0A
:1026680013F0C30E0001806F010E816FBA0E826FE6
:10267800010E836F02EC33F0000ED46E000ED36EA1
:102688008C0E4E24D96E020E4F20DA6E020EDF6ECB
:1026980045EF14F0030E9C199D11D8A456EF13F0C2
:1026A80058EF13F071EF13F0C30E0001806F010EA5
:1026B800816FBA0E826F010E836F89EC33F0000EC2
:1026C800D46E000ED36E8C0E4E24D96E020E4F209F
:1026D800DA6E030EDF6E45EF14F0040E9C199D119F
:1026E800D8A479EF13F07BEF13F094EF13F0C30E37
:1026F8000001806F010E816FBA0E826F010E836F29
:10270800CFEC31F0000ED46E000ED36E8C0E4E243A
:10271800D96E020E4F20DA6E040EDF6E45EF14F00C
:10272800050E9C199D11D8A49CEF13F09EEF13F091
:10273800B7EF13F0C30E0001806F010E816FBA0E60
:10274800826F010E836F50EC37F0000ED46E000ECE
:10275800D36E8C0E4E24D96E020E4F20DA6E050E03
:10276800DF6E45EF14F0060E9C199D11D8A4BFEF3B
:1027780013F0C1EF13F0DAEF13F0C30E0001806F0E
:10278800010E816FBA0E826F010E836F2FEC33F04A
:10279800000ED46E000ED36E8C0E4E24D96E020E2F
:1027A8004F20DA6E060EDF6E45EF14F0070E9C1907
:1027B8009D11D8A4E2EF13F0E4EF13F0FDEF13F04E
:1027C800C30E0001806F010E816FBA0E826F010E79
:1027D800836FB6EC33F0000ED46E000ED36E8C0E01
:1027E8004E24D96E020E4F20DA6E070EDF6E45EFCB
:1027F80014F00A0E9C199D11D8A405EF14F007EFE8
:1028080014F02DEF14F0964B972B040E9619971190
:10281800D8A411EF14F013EF14F020EF14F00E0108
:10282800299B8C0E0001846F020E856F000E866F47
:10283800030E876FC4EC1DF0C30E00017A6F010E02
:102848007B6FBA0E7C6F010E7D6F1EEC30F045EF8A
:1028580014F09C519D11D8A434EF14F036EF14F005
:1028680045EF14F00E01299B8C0E0001846F020EB7
:10287800856F000E866F030E876FC4EC1DF045EF61
:1028880014F00101D451D511D8A44DEF14F04FEF35
:1028980014F034EF12F03AEF00F000016351800BAE
:1028A8006C6F635163256E6F62AF5DEF14F05FEF7D
:1028B80014F060EF14F06E816E51D8B466EF14F026
:1028C80068EF14F07DEF14F06E29D8A46EEF14F0C1
:1028D80070EF14F078EF14F0000E606F000E616F67
:1028E800000E626F000E636F628F000E636F85EFDC
:1028F80014F0000E606F000E616F000E626F000E24
:10290800636F6751800B6D6F6C516D19D8B48FEF81
:1029180014F091EF14F092EF14F06C8D6751672565
:102928006D6F66AF9AEF14F09CEF14F09DEF14F002
:102938006D816D51D8B4A3EF14F0A5EF14F0BAEF80
:1029480014F06D29D8A4ABEF14F0ADEF14F0B5EF87
:1029580014F0000E646F000E656F000E666F000EB7
:10296800676F668F000E676FC2EF14F0000E646F1A
:10297800000E656F000E666F000E676F6E516D5D1D
:10298800D8B0C9EF14F0CBEF14F0F2EF14F06CAD3F
:10299800D0EF14F0D2EF14F0D4EF14F0800E6C1BCB
:1029A8006EC06FF06DC06EF06FC06DF060C06FF0FC
:1029B80064C060F06FC064F061C06FF065C061F022
:1029C8006FC065F062C06FF066C062F06FC066F0FD
:1029D80063C06FF067C063F06FC067F0000E6F6F81
:1029E8006E516DC068F0696B685F000E695B69BF06
:1029F80007EF15F0695109E11A0E685DD8A007EFD5
:102A080015F009EF15F040EF15F0605161116211F2
:102A18006311D8A412EF15F015EF15F0010E16EF9B
:102A280015F0000E6F6F000E606F000E616F000EE4
:102A3800626F000E636F6DC06EF049EF15F06FA105
:102A480028EF15F02AEF15F030EF15F0D8906F3118
:102A580001096F6F32EF15F0D8906F3360A137EF2F
:102A680015F039EF15F03AEF15F06F8F63356333D2
:102A78006233613360336E2B6D516E5DD8A047EFC2
:102A880015F049EF15F023EF15F06CBD4EEF15F07A
:102A980050EF15F090EF15F06E51D8A456EF15F0E1
:102AA80058EF15F062EF15F0000E606F000E616FC1
:102AB800000E626F000E636FB1EF16F0645160276D
:102AC80065516123665162236751632363A16FEFE8
:102AD80015F071EF15F01DEF16F06FA176EF15F0F8
:102AE80078EF15F07EEF15F0D8906F3101096F6F10
:102AF80080EF15F0D8906F3360A185EF15F087EF60
:102B080015F088EF15F06F8F6335633362336133E7
:102B180060336E2B1DEF16F06451605D655161598D
:102B2800665162596351800A686F6751800A685913
:102B3800D8B0A1EF15F0A3EF15F0CEEF15F0605166
:102B4800645D686F61516559696F625166596A6F52
:102B5800635167596B6FFF0E6825606FFF0E69211F
:102B6800616FFF0E6A21626FFF0E6B21636F800E2B
:102B78006C1B6F6D6F51D8A4C4EF15F0C6EF15F03C
:102B8800D6EF15F0010E6027000E61236223632340
:102B9800D6EF15F06451605F6551615B6651625B09
:102BA8006751635B6051611162116311D8A4DFEF53
:102BB80015F0E1EF15F016EF16F06F51D8A4E7EF16
:102BC80015F0E9EF15F016EF16F0000E606F000E25
:102BD800616F000E626F000E636FB1EF16F0D89050
:102BE80060376137623763376FAFFDEF15F0FFEF7E
:102BF80015F000EF16F060816FA105EF16F007EFF2
:102C080016F00BEF16F0D8806F370DEF16F0D8904E
:102C18006F376E51D8B413EF16F015EF16F016EFA4
:102C280016F06E0762AF1BEF16F01DEF16F0F3EF0C
:102C380015F0000E6D6F6FAF24EF16F026EF16F04B
:102C48003EEF16F06FC068F07F0E6817D8B42FEF0C
:102C580016F031EF16F035EF16F0010E6D6F3EEFFE
:102C680016F060A13AEF16F03CEF16F03EEF16F0C2
:102C780031EF16F06D51D8B444EF16F046EF16F068
:102C880071EF16F0010E6027000E612362236323A3
:102C980063A151EF16F053EF16F071EF16F060C014
:102CA80068F061C069F062C06AF063C06BF06B35B0
:102CB8006B336A336933683368C060F069C061F0A8
:102CC8006AC062F06BC063F06E29D8B46EEF16F07C
:102CD80070EF16F071EF16F06E2B6E29D8B477EFFF
:102CE80016F079EF16F081EF16F06E51D8A47FEF49
:102CF80016F081EF16F093EF16F0000E606F000EDD
:102D0800616F000E626F000E636F6E51D8A48FEF73
:102D180016F091EF16F093EF16F0000E6C6F6EA19F
:102D280098EF16F09AEF16F09DEF16F0628F9EEF6F
:102D380016F0629FD8906E31636F6CAFA6EF16F0F5
:102D4800A8EF16F0A9EF16F0638F60C060F061C0BD
:102D580061F062C062F063C063F012000001735159
:102D6800800B7C6F73517325826F72AFBEEF16F0C4
:102D7800C0EF16F0C1EF16F082818251D8B4C7EFC8
:102D880016F0C9EF16F0DCEF16F08229D8A4CFEFC1
:102D980016F0D1EF16F0D9EF16F0000E706F000E96
:102DA800716F000E726F000E736F728FE4EF16F082
:102DB800000E706F000E716F000E726F000E736F51
:102DC8007751800B7C1B77517725816F76AFEFEFBA
:102DD80016F0F1EF16F0F2EF16F081818151D8B4B8
:102DE800F8EF16F0FAEF16F00DEF17F08129D8A4D6
:102DF80000EF17F002EF17F00AEF17F0000E746FEC
:102E0800000E756F000E766F000E776F768F15EFD8
:102E180017F0000E746F000E756F000E766F000EBF
:102E2800776F8151D8B41BEF17F01DEF17F025EF1E
:102E380017F08251D8A423EF17F025EF17F02FEFE2
:102E480017F0000E706F000E716F000E726F000E9B
:102E5800736FC7EF18F076517003F3CF87F0F4CF94
:102E680088F087517D6F7E6B7F6B806B8851836F95
:102E7800846B856B866B75517103F3CF87F0F4CF44
:102E880088F087517D27000E7E237F238023885179
:102E98008327000E84238523862374517203F3CF7E
:102EA80087F0F4CF88F087517D27000E7E237F239B
:102EB800802388518327000E8423852386237FC09F
:102EC80080F07EC07FF07DC07EF07D6B7451710311
:102ED800F3CF87F0F4CF88F087517D2788517E2380
:102EE800000E7F23000E802375517003F3CF87F007
:102EF800F4CF88F087517D2788517E23000E7F23E9
:102F0800000E80237FC080F07EC07FF07DC07EF001
:102F18007D6B74517003F3CF87F0F4CF88F087513D
:102F28007D2788517E23000E7F23000E8023765153
:102F38007103F3CF87F0F4CF88F087518327885146
:102F48008423000E8523000E862375517203F3CF68
:102F580087F0F4CF88F08751832788518423000EA7
:102F68008523000E862376517203F3CF87F0F4CFC2
:102F780088F08751786F8851796F7A6B7B6B7AC04C
:102F88007BF079C07AF078C079F0786B7851832734
:102F9800795184237A5185237B5186237DC078F02B
:102FA8007EC079F07FC07AF080C07BF0190EE2EF26
:102FB80017F0D8907B337A3379337833E82EDDEF06
:102FC80017F078518327795184237A5185237B51CF
:102FD80086237FC080F07EC07FF07DC07EF07D6B51
:102FE800815182C078F0796B7827000E7923820EA0
:102FF8007825876FFF0E7921886F18EF18F0D89021
:10300800833784378537863780AF0DEF18F00FEF99
:1030180018F010EF18F08381D8907D377E377F370E
:1030280080378707D8A0880785AF1DEF18F01FEFF6
:1030380018F003EF18F0000E816F80AF26EF18F03C
:1030480028EF18F04CEF18F0FF0E7D15786FFF0E83
:103058007E15796FFF0E7F157A6F7F0E80157B6F57
:10306800785179117A117B11D8B43DEF18F03FEF00
:1030780018F043EF18F0010E816F4CEF18F083A1A0
:1030880048EF18F04AEF18F04CEF18F03FEF18F03F
:103098008151D8B452EF18F054EF18F078EF18F0C7
:1030A800010E8327000E84238523862386A15FEFE4
:1030B80018F061EF18F078EF18F083C078F084C04A
:1030C80079F085C07AF086C07BF07B357B337A3324
:1030D8007933783378C083F079C084F07AC085F08A
:1030E8007BC086F0874B882B88BF83EF18F0885108
:1030F80008E18729D8A083EF18F085EF18F08FEF43
:1031080018F0000E836F000E846F800E856F7F0E9F
:10311800866FBDEF18F088BF9CEF18F0885106E164
:103128008705D8B09AEF18F09CEF18F0A8EF18F0C0
:10313800000E836F000E846F000E856F000E866F81
:10314800000E7C6FBDEF18F087C082F0FF0E83176A
:10315800FF0E84177F0E8517000E861782A1B7EF22
:1031680018F0B9EF18F0BAEF18F0858FD8908231BF
:10317800866F7C51861383C070F084C071F085C05F
:1031880072F086C073F0120000019451800BA16F99
:1031980094519425A86F93AFD4EF18F0D6EF18F098
:1031A800D7EF18F0A881A851D8B4DDEF18F0DFEFF9
:1031B80018F0F4EF18F0A829D8A4E5EF18F0E7EF15
:1031C80018F0EFEF18F0000E916F000E926F000EDE
:1031D800936F000E946F938F000E946FFCEF18F0AE
:1031E800000E916F000E926F000E936F000E946F99
:1031F8009851800BA11B98519825A96F97AF07EF9D
:1032080019F009EF19F00AEF19F0A981A951D8B4FA
:1032180010EF19F012EF19F027EF19F0A929D8A427
:1032280018EF19F01AEF19F022EF19F0000E956F48
:10323800000E966F000E976F000E986F978F000E16
:10324800986F2FEF19F0000E956F000E966F000E15
:10325800976F000E986F9551961197119811D8A4F1
:1032680038EF19F03AEF19F052EF19F0000E916F9C
:10327800000E926F000E936F000E946F800E9313E2
:103288007F0E9413A151941391C091F092C092F0C3
:1032980093C093F094C094F095EF1AF0A851D8A475
:1032A80058EF19F05AEF19F064EF19F0000E916F0A
:1032B800000E926F000E936F000E946F95EF1AF048
:1032C800A951A8C099F09A6B995F000E9A5B7F0E7E
:1032D8009925A26F000E9A21A36F91C09DF092C00C
:1032E8009EF093C09FF094C0A0F0000E916F000E66
:1032F800926F000E936F000E946F000EA46F000E75
:10330800A56F000EA66F000EA76F000EA96FC5EF80
:1033180019F0A951D8B493EF19F095EF19F0ACEF63
:1033280019F0D8909D379E379F37A037D89091379E
:10333800923793379437A7AFA4EF19F0A6EF19F097
:10334800A7EF19F09181D890A437A537A637A737EA
:1033580095519D5D96519E5997519F599851A059E5
:10336800D8A0B9EF19F0BBEF19F0C4EF19F0A78D89
:1033780095519D5F96519E5B97519F5B9851A05BBD
:10338800A92B190EA965CBEF19F0CDEF19F08DEF28
:1033980019F09D519E119F11A011D8B4D6EF19F0C4
:1033A800D8EF19F0F0EF19F0A481F0EF19F0D890E8
:1033B8009137923793379437A7AFE5EF19F0E7EFD6
:1033C80019F0E8EF19F09181D890A437A537A637FE
:1033D800A737A207D8A0A30793AFF5EF19F0F7EF27
:1033E80019F0DBEF19F0000EA96FA7AFFEEF19F087
:1033F80000EF1AF024EF1AF0FF0EA415996FFF0ED4
:10340800A5159A6FFF0EA6159B6F7F0EA7159C6FCB
:1034180099519A119B119C11D8B415EF1AF017EF16
:103428001AF01BEF1AF0010EA96F24EF1AF091A100
:1034380020EF1AF022EF1AF024EF1AF017EF1AF023
:10344800A951D8B42AEF1AF02CEF1AF050EF1AF05D
:10345800010E9127000E92239323942394A137EF12
:103468001AF039EF1AF050EF1AF091C099F092C0A3
:103478009AF093C09BF094C09CF09C359C339B338E
:103488009A33993399C091F09AC092F09BC093F007
:103498009CC094F0A24BA32BA3BF5BEF1AF0A351DF
:1034A80008E1A229D8A05BEF1AF05DEF1AF068EFE7
:1034B8001AF0000EA36FA269000E916F000E926FB2
:1034C800000E936F000E946FA3BF75EF1AF0A3510F
:1034D80006E1A205D8B073EF1AF075EF1AF083EF82
:1034E8001AF0000EA36F000EA26F000E916F000E6F
:1034F800926F000E936F000E946F000EA16FA2C022
:10350800A8F0A8A18AEF1AF08CEF1AF08FEF1AF042
:10351800938F90EF1AF0939FD890A831946F46EF4D
:1035280019F01200AAC0D9FFABC0DAFFDECF60F0F5
:10353800DDCF61F00001000E61BFFF0E626F636FA7
:10354800010EF8EC23F060C0BAF061C0BBF062C0B5
:10355800BCF063C0BDF0000120EE02F0AA51D926EC
:10356800AB51DA22DECF60F0DDCF61F0000E61BF33
:10357800FF0E626F636F010EF8EC23F060C0BEF0BF
:1035880061C0BFF062C0C0F063C0C1F0000120EEAE
:1035980004F0AA51D926AB51DA22DECF60F0DDCF94
:1035A80061F0000E61BFFF0E626F636F010EF8ECF1
:1035B80023F060C0C2F061C0C3F062C0C4F063C051
:1035C800C5F0000120EE06F0AA51D926AB51DA2247
:1035D800DECF60F0DDCF61F0000E61BFFF0E626FDD
:1035E800636F010EF8EC23F060C0AEF061C0AFF07D
:1035F80062C0B0F063C0B1F0BEC064F0BFC065F097
:10360800C0C066F0C1C067F0BAC060F0BBC061F06E
:10361800BCC062F0BDC063F051EC14F060C0B2F001
:1036280061C0B3F062C0B4F063C0B5F0C2C064F06A
:10363800C3C065F0C4C066F0C5C067F0B2C060F032
:10364800B3C061F0B4C062F0B5C063F051EC14F0DF
:1036580060C0B6F061C0B7F062C0B8F063C0B9F03E
:10366800BAC091F0BBC092F0BCC093F0BDC094F05A
:10367800AEC064F0AFC065F0B0C066F0B1C067F02E
:10368800B6C060F0B7C061F0B8C062F0B9C063F00E
:1036980051EC14F060C095F061C096F062C097F0EC
:1036A80063C098F0C8EC18F0ACC0D9FFADC0DAFF21
:1036B800000191C0DEFF92C0DEFF93C0DEFF94C020
:1036C800DEFFBEC064F0BFC065F0C0C066F0C1C018
:1036D80067F0BAC060F0BBC061F0BCC062F0BDC0AA
:1036E80063F051EC14F060C0B2F061C0B3F062C096
:1036F800B4F063C0B5F0C2C064F0C3C065F0C4C024
:1037080066F0C5C067F0B2C060F0B3C061F0B4C085
:1037180062F0B5C063F051EC14F060C0B6F061C05F
:10372800B7F062C0B8F063C0B9F0C2C091F0C3C0CE
:1037380092F0C4C093F0C5C094F0AEC064F0AFC0BE
:1037480065F0B0C066F0B1C067F0B6C060F0B7C051
:1037580061F0B8C062F0B9C063F051EC14F060C019
:1037680095F061C096F062C097F063C098F0C8EC1D
:1037780018F0000120EE08F0AC51D926AD51DA223C
:1037880091C0DEFF92C0DEFF93C0DEFF94C0DEFF73
:10379800BEC064F0BFC065F0C0C066F0C1C067F0CD
:1037A800BAC060F0BBC061F0BCC062F0BDC063F0DD
:1037B80051EC14F060C0B2F061C0B3F062C0B4F074
:1037C80063C0B5F0C2C064F0C3C065F0C4C066F0A1
:1037D800C5C067F0B2C060F0B3C061F0B4C062F0B9
:1037E800B5C063F051EC14F060C0B6F061C0B7F03A
:1037F80062C0B8F063C0B9F0BEC091F0BFC092F02B
:10380800C0C093F0C1C094F0AEC064F0AFC065F022
:10381800B0C066F0B1C067F0B6C060F0B7C061F084
:10382800B8C062F0B9C063F051EC14F060C095F014
:1038380061C096F062C097F063C098F0C8EC18F0C9
:10384800000120EE04F0AC51D926AD51DA2291C026
:10385800DEFF92C0DEFF93C0DEFF94C0DEFF1200E1
:10386800F5C0D9FFF6C0DAFFDECFF6FFDDCFF7FFF0
:10387800000EF86E0800F550250AD8A446EF1CF093
:1038880048EF1CF0ACEF1DF0F5C0D9FFF6C0DAFF29
:10389800DE2A000EDD22000E0101AB6F000EAA6FBA
:1038A800AAC1FFF0AC69AD69F5C0D9FFF6C0DAFF6F
:1038B800DECF09F1DDCF0AF109C1F6FF0AC1F7FF32
:1038C800000EF86E0800F550640AD8B46EEF1CF0CC
:1038D80070EF1CF080EF1CF009C1F6FF0AC1F7FF7A
:1038E800000EF86E0800F550690AD8A47EEF1CF0A7
:1038F80080EF1CF0C6EF1CF0F7C0D9FFF8C0DAFF64
:10390800DFCFF9F0020EDE26DFCFFAF0000EDD225F
:10391800F9C0D9FFFAC0DAFFDECF00F1DDCF01F13F
:10392800000E01BFFF0E026F036F046F056F066F75
:10393800076F010E09250001F96F000E01010A2128
:103948000001FA6FF5C0D9FFF6C0DAFFF9C0DEFF53
:10395800FAC0DDFFF3C07BF0F4C07CF000C17DF05D
:1039680001C17EF002C17FF003C180F004C181F083
:1039780005C182F006C183F007C184F0AFEC20F0E6
:10398800C3EF1DF0F5C0D9FFF6C0DAFFDECF09F1AD
:10399800DDCF0AF109C1F6FF0AC1F7FF000EF86E84
:1039A8000800F5CF08F1E8EF1CF00101094B0A2BDC
:1039B80002EF1DF06C0E0101086F02EF1DF0000E02
:1039C8000101086F02EF1DF008510001F96FFA6B51
:1039D800FA51000AD8B4F3EF1CF0E3EF1CF0F951E8
:1039E8004C0AD8B4D9EF1CF02A0AD8B4DEEF1CF080
:1039F8000A0AD8B4D9EF1CF0E3EF1CF009C1F6FFAE
:103A08000AC1F7FF000EF86E0800F550660AD8A440
:103A180010EF1DF012EF1DF0A3EF1DF048EF1DF0A1
:103A2800F7C0D9FFF8C0DAFFDFCFF9F0040EDE26C1
:103A3800DFCFFAF0000EDD22F9C0D9FFFAC0DAFFB5
:103A4800DECF00F1DECF01F1DECF02F1DECF03F1F0
:103A58005EEF1DF0F7C0D9FFF8C0DAFFDFCFF9F04D
:103A6800040EDE26DFCFFAF0000EDD22F9C0D9FF02
:103A7800FAC0DAFFDECF00F1DECF01F1DECF02F1CE
:103A8800DECF03F15EEF1DF008510001F96FFA6B0C
:103A9800FA51000AD8B453EF1DF05EEF1DF0F9514A
:103AA8004C0AD8B42EEF1DF0200AD8B414EF1DF03C
:103AB8005EEF1DF0010E010109250001F96F000EEE
:103AC80001010A210001FA6FF5C0D9FFF6C0DAFF3B
:103AD800F9C0DEFFFAC0DDFF8BEF1DF0F3C0BEF0CA
:103AE800F4C0BFF000C1C0F001C1C1F002C1C2F012
:103AF80003C1C3F009C1F6FF0AC1F7FF000EF86E53
:103B08000800F5CFC4F0AAEC0CF0C3EF1DF009C112
:103B1800F6FF0AC1F7FF000EF86E0800F550F96FBE
:103B2800FA6BFA51000AD8B49CEF1DF0A3EF1DF010
:103B3800F951660AD8B472EF1DF0A3EF1DF0F5C075
:103B4800D9FFF6C0DAFFDE2A000EDD22C3EF1DF032
:103B5800F5C0D9FFF6C0DAFFDECFF6FFDDCFF7FFFD
:103B6800000EF86E0800F5500001606F616BF3C03D
:103B780062F0F4C063F019EC2AF0A3EF1DF0120014
:103B8800C30E0001806F010E816FBA0E826F010EA5
:103B9800836FCFEC31F0D59E4EC08BF04FC08CF0C8
:103BA80000018CBFDCEF1DF0DAEF1DF0DEEF1DF039
:103BB8002FEF1FF0C30E736F010E746FBA0E756F7F
:103BC800010E766FD8908B35D96E8C35DA6E8651AA
:103BD800D9268751DA22DECF77F0DDCF78F044ECB2
:103BE80029F000018B518425886F8C518521896FBC
:103BF800FF0E8825D96EFF0E8921DA6EDE04D8A45F
:103C080008EF1EF00AEF1EF021EF1EF0C30E7A6FC8
:103C1800010E7B6FBA0E7C6F010E7D6FD4EC32F013
:103C2800C30E0001806F010E816FBA0E826F010E04
:103C3800836F50EC37F029EF1FF08B518425886F84
:103C48008C518521896FFF0E8825D96EFF0E892139
:103C5800DA6E020EDE18D8A434EF1EF036EF1EF02E
:103C68004DEF1EF0C30E7A6F010E7B6FBA0E7C6F9C
:103C7800010E7D6FD4EC32F0C30E0001806F010E8F
:103C8800816FBA0E826F010E836F2FEC33F029EF2C
:103C98001FF08B518425886F8C518521896FFF0E09
:103CA8008825D96EFF0E8921DA6E030EDE18D8A496
:103CB80060EF1EF062EF1EF079EF1EF0C30E7A6F10
:103CC800010E7B6FBA0E7C6F010E7D6FD4EC32F063
:103CD800C30E0001806F010E816FBA0E826F010E54
:103CE800836F17EC2CF029EF1FF08B518425886F18
:103CF8008C518521896FFF0E8825D96EFF0E892189
:103D0800DA6E040EDE18D8A48CEF1EF08EEF1EF0CB
:103D1800A5EF1EF0C30E7A6F010E7B6FBA0E7C6F93
:103D2800010E7D6FD4EC32F0C30E0001806F010EDE
:103D3800816FBA0E826F010E836FCFEC31F029EFDD
:103D48001FF08B518425886F8C518521896FFF0E58
:103D58008825D96EFF0E8921DA6E050EDE18D8A4E3
:103D6800B8EF1EF0BAEF1EF0D1EF1EF0C30E7A6F57
:103D7800010E7B6FBA0E7C6F010E7D6FD4EC32F0B2
:103D8800C30E0001806F010E816FBA0E826F010EA3
:103D9800836F2EEC37F029EF1FF08B518425886F45
:103DA8008C518521896FFF0E8825D96EFF0E8921D8
:103DB800DA6E060EDE18D8A4E4EF1EF0E6EF1EF069
:103DC800FDEF1EF0C30E7A6F010E7B6FBA0E7C6F8B
:103DD800010E7D6FD4EC32F0C30E0001806F010E2E
:103DE800816FBA0E826F010E836F02EC33F029EFF8
:103DF8001FF08B518425886F8C518521896FFF0EA8
:103E08008825D96EFF0E8921DA6E070EDE18D8A430
:103E180010EF1FF012EF1FF029EF1FF0C30E7A6F9B
:103E2800010E7B6FBA0E7C6F010E7D6FD4EC32F001
:103E3800C30E0001806F010E816FBA0E826F010EF2
:103E4800836F7BEC2CF029EF1FF000018B07D8A0C3
:103E58008C07D4EF1DF0C30E736F010E746FBA0E8A
:103E6800756F010E766F61EC30F0000E0101D56FB1
:103E7800000ED46F1200C30E216E010E226EBA0E10
:103E8800236E010E246EA1EC32F0D59E4EC02CF0AC
:103E98004FC02DF02DBE55EF1FF053EF1FF057EF19
:103EA8001FF09FEF20F0C30E146E010E156EBA0EB0
:103EB800166E010E176ED8902C34D96E2D34DA6E2A
:103EC8002750D9262850DA22DECF18F0DDCF19F096
:103ED800B0EC29F02C502524296E2D5026202A6E6E
:103EE800FF0E2924D96EFF0E2A20DA6EDE04D8A42C
:103EF80080EF1FF082EF1FF098EF1FF0C30E1B6ECC
:103F0800010E1C6EBA0E1D6E010E1E6EE3EC33F030
:103F1800C30E216E010E226EBA0E236E010E246EA0
:103F2800D1EC37F09AEF20F02C502524296E2D5033
:103F380026202A6EFF0E2924D96EFF0E2A20DA6E5B
:103F4800020EDE18D8A4ABEF1FF0ADEF1FF0C3EFE1
:103F58001FF0C30E1B6E010E1C6EBA0E1D6E010EF5
:103F68001E6EE3EC33F0C30E216E010E226EBA0E04
:103F7800236E010E246E5EEC35F09AEF20F02C5083
:103F88002524296E2D5026202A6EFF0E2924D96E4D
:103F9800FF0E2A20DA6E030EDE18D8A4D6EF1FF023
:103FA800D8EF1FF0EEEF1FF0C30E1B6E010E1C6E54
:103FB800BA0E1D6E010E1E6EE3EC33F0C30E216EB9
:103FC800010E226EBA0E236E010E246ECEEC2EF078
:103FD8009AEF20F02C502524296E2D5026202A6E89
:103FE800FF0E2924D96EFF0E2A20DA6E040EDE1881
:103FF800D8A401EF20F003EF20F019EF20F0C30E52
:104008001B6E010E1C6EBA0E1D6E010E1E6EE3ECC9
:1040180033F0C30E216E010E226EBA0E236E010E0E
:10402800246EA1EC32F09AEF20F02C502524296E52
:104038002D5026202A6EFF0E2924D96EFF0E2A2025
:10404800DA6E050EDE18D8A42CEF20F02EEF20F043
:1040580044EF20F0C30E1B6E010E1C6EBA0E1D6ECF
:10406800010E1E6EE3EC33F0C30E216E010E226EBC
:10407800BA0E236E010E246EB2EC37F09AEF20F0E0
:104088002C502524296E2D5026202A6EFF0E292417
:10409800D96EFF0E2A20DA6E060EDE18D8A457EF66
:1040A80020F059EF20F06FEF20F0C30E1B6E010EC9
:1040B8001C6EBA0E1D6E010E1E6EE3EC33F0C30EBD
:1040C800216E010E226EBA0E236E010E246E35EC9F
:1040D80035F09AEF20F02C502524296E2D502620FB
:1040E8002A6EFF0E2924D96EFF0E2A20DA6E070EDB
:1040F800DE18D8A482EF20F084EF20F09AEF20F0A9
:10410800C30E1B6E010E1C6EBA0E1D6E010E1E6EC6
:10411800E3EC33F0C30E216E010E226EBA0E236E4D
:10412800010E246E29EC2FF09AEF20F02C06D8A06F
:104138002D064EEF1FF0C30E146E010E156EBA0E4B
:10414800166E010E176EE0EC30F0000E0101D56F0F
:10415800000ED46F12007DC093F07EC094F07FC033
:1041680095F080C096F081C097F082C098F083C027
:1041780099F084C09AF000019ABFC5EF20F0C8EF0B
:1041880020F0010EC9EF20F0000E9D6F9D51D8B4AC
:10419800D0EF20F0D2EF20F0E2EF20F09A1F991F25
:1041A800981F971F961F951F941F936D000E9423B9
:1041B800952396239723982399239A230101ADBF2A
:1041C800F0EF20F0AD5106E1AC05D8B0EEEF20F0ED
:1041D800F0EF20F0F7EF20F0000E0001906F010ED5
:1041E8008F6FFBEF20F0ACC18FF0ADC190F0AAC18A
:1041F80091F0ABC192F000019D51D8B406EF21F0C7
:1042080008EF21F01FEF21F09107D8A092079D51E8
:10421800D8A411EF21F013EF21F019EF21F0000ECF
:104228008E6F2B0E8D6F1DEF21F0000E8E6F2D0EF1
:104238008D6F8DC09DF0000E9C6F4F0E9B6F000E12
:1042480002018B6FA5EF21F09B07D8A09C073C0EBD
:104258009B25D96E020E9C21DA6E93C060F094C043
:1042680061F095C062F096C063F097C064F098C0A2
:1042780065F099C066F09AC067F00A0E686F000E84
:10428800696F000E6A6F000E6B6F000E6C6F000E88
:104298006D6F000E6E6F000E6F6F0AEC27F060C036
:1042A80085F061C086F062C087F063C088F064C0A2
:1042B80089F065C08AF066C08BF067C08CF085C055
:1042C80072F086C073F072EC37F000017251300F53
:1042D800DF6E8F07D8A090079107D8A0920793C0E8
:1042E80060F094C061F095C062F096C063F097C02A
:1042F80064F098C065F099C066F09AC067F00A0E3D
:10430800686F000E696F000E6A6F000E6B6F000E0B
:104318006C6F000E6D6F000E6E6F000E6F6FD4EC39
:1043280024F060C093F061C094F062C095F063C05F
:1043380096F064C097F065C098F066C099F067C0C1
:104348009AF000019CBFB1EF21F09C5108E19B0558
:10435800D8A0B1EF21F0B3EF21F0CFEF21F09351C6
:104368009411951196119711981199119A11D8A431
:10437800C0EF21F0C2EF21F028EF21F090BFCFEF7E
:1043880021F0905106E18F05D8B0CDEF21F0CFEFA5
:1043980021F028EF21F09D51D8B4D5EF21F0D7EFC7
:1043A80021F0E2EF21F09B07D8A09C073C0E9B254B
:1043B800D96E020E9C21DA6E9DC0DFFF7BC070F0C3
:1043C8007CC071F03C0E9B25726F020E9C21736FAE
:1043D80091C074F092C075F0A1EC30F0120046C0A4
:1043E800BAF047C0BBF048C0BCF049C0BDF0AAC095
:1043F800BAF0ABC0BBF0ACC0BCF0ADC0BDF0810E34
:104408000001AE6FFF0EAF6FBAC0B0F0BBC0B1F025
:10441800BCC0B2F0BDC0B3F0180E18EF22F0D890AF
:10442800B333B233B133B033E82E13EF22F0B051C7
:10443800AE25B86F000EAF21B96FB9BF2DEF22F0CE
:10444800B95109E1170EB85DD8A02DEF22F02FEF72
:1044580022F039EF22F0AAC0AAF0ABC0ABF0ACC092
:10446800ACF0ADC0ADF0FDEF22F0B9BF3EEF22F0E9
:1044780040EF22F0B1EF22F0B8C0AEF0FF0EAF6F00
:10448800FF0EB06F7F0EB16F000EB26FAE674FEFC9
:1044980022F057EF22F0B235B233B133B033AF3335
:1044A800AE2F4AEF22F0AFC0B4F0B0C0B5F0B1C043
:1044B800B6F0B2C0B7F00001B451BA15AE6FB5513D
:1044C800BB15AF6FB651BC15B06FB751BD15B16F05
:1044D800AE51AF11B011B111D8A475EF22F077EF3A
:1044E80022F079EF22F02FEF22F0BAC0AEF0BBC075
:1044F800AFF0BCC0B0F0BDC0B1F0200E89EF22F023
:10450800D890B133B033AF33AE33E82E84EF22F016
:10451800AE51AF11B011B111D8B495EF22F097EFA9
:1045280022F09FEF22F0B451BA27B551BB23B65100
:10453800BC23B751BD23B41DAE6FB51DAF6FB61DFB
:10454800B06FB71DB16FAE51BA17AF51BB17B051AD
:10455800BC17B151BD17F5EF22F0BAC0AEF0BBC021
:10456800AFF0BCC0B0F0BDC0B1F0200EC1EF22F07A
:10457800D890B133B033AF33AE33E82EBCEF22F06E
:10458800AE51AF11B011B111D8A4CDEF22F0CFEFD9
:1045980022F0D9EF22F0000EBA6F000EBB6F000EAA
:1045A800BC6F000EBD6FF5EF22F0D890BA35AE6F34
:1045B800BB35AF6FBC35B06FBD35B16FAE51AF1104
:1045C800B011B111D8B4EBEF22F0EDEF22F0F5EF16
:1045D80022F0000EBA6F000EBB6F800EBC6FBF0ECC
:1045E800BD6FBAC0AAF0BBC0ABF0BCC0ACF0BDC0D8
:1045F800ADF012007E80520E0001856F2B0E846F85
:10460800000EE82EFED7842FFCD7852FFAD700F0AE
:10461800CDEF23F07C86C30E7A6F010E7B6FBA0E46
:104628007C6F010E7D6FD7EC35F0C30E00017A6FF9
:10463800010E7B6FBA0E7C6F010E7D6FD7EC35F0E3
:10464800C30E00017A6F010E7B6FBA0E7C6F010EEC
:104658007D6FD7EC35F0C30E00017A6F010E7B6FCA
:10466800BA0E7C6F010E7D6FD7EC35F0B1EF23F0F9
:104678007C88A30E0001856F570E846F020EE82E0A
:10468800FED7842FFCD7852FFAD700F08EA44FEFE2
:1046980023F052EF23F0010E53EF23F0000E000138
:1046A800846F8EA65AEF23F05DEF23F0010E5EEFC4
:1046B80023F0000E8415E8A064EF23F066EF23F0E2
:1046C80079EF23F080867C8E520E0001856F2B0EC9
:1046D800846F000EE82EFED7842FFCD7852FFAD7DB
:1046E80000F080967C9EB1EF23F08EB67EEF23F02B
:1046F80080EF23F095EF23F00A0E5626000E57227E
:104708008086520E0001856F2B0E846F000EE82EF6
:10471800FED7842FFCD7852FFAD700F08096B1EF0B
:1047280023F08EB49AEF23F09CEF23F0B1EF23F03F
:10473800F60E5626FF0E57227C8E520E0001856F0C
:104748002B0E846F000EE82EFED7842FFCD7852F02
:10475800FAD700F07C9EB1EF23F08EA4B6EF23F0D9
:10476800B8EF23F0BFEF23F08EB6BDEF23F0BFEF15
:1047780023F03CEF23F07C98A30E0001856F570EC1
:10478800846F020EE82EFED7842FFCD7852FFAD728
:1047980000F08EA6D2EF23F0D5EF23F0010ED6EF6E
:1047A80023F0000E0001846F8EA4DDEF23F0E0EF0C
:1047B80023F0010EE1EF23F0000E8415E8A0E7EFE7
:1047C80023F0E9EF23F00EEF23F07C96A30E00010F
:1047D800856F570E846F020EE82EFED7842FFCD704
:1047E800852FFAD700F012000001686F00016851A8
:1047F800D8B401EF24F003EF24F025EF24F063BFD1
:104808000AEF24F008EF24F025EF24F060C064F0EC
:1048180061C065F062C066F063C067F0641F651F21
:10482800661F671F642B000E65236623672364C019
:104838006AF065C06BF066C06CF067C06DF02DEF74
:1048480024F060C06AF061C06BF062C06CF063C0B5
:104858006DF06051611162116311D8A436EF24F034
:1048680038EF24F042EF24F0000E606F000E616F05
:10487800000E626F000E636FD3EF24F0960E696F1F
:104888004CEF24F0692BD8906D336C336B336A335B
:10489800000E6A15646F000E6B15656F000E6C15BF
:1048A800666FFE0E6D15676F6451651166116711AD
:1048B800D8A461EF24F063EF24F046EF24F071EF01
:1048C80024F0692B010E6A27000E6B236C236D23DD
:1048D800D8906D336C336B336A33000E6A15646F8E
:1048E800000E6B15656F000E6C15666FFF0E6D156B
:1048F800676F6451651166116711D8A486EF24F0BB
:1049080088EF24F065EF24F090EF24F06907D89041
:104918006A376B376C376D376CBF95EF24F097EFBC
:1049280024F09FEF24F0020E69619DEF24F09FEFC1
:1049380024F08AEF24F069B1A4EF24F0A6EF24F064
:10494800A7EF24F06C9FD890693369C064F0656B59
:10495800666B676B64C067F0666B656B646B64510C
:104968006A1365516B1366516C1367516D13685167
:10497800D8B4C1EF24F0C3EF24F0CBEF24F063BF29
:10498800CAEF24F0C8EF24F0CBEF24F06D8F6AC093
:1049980060F06BC061F06CC062F06DC063F0120033
:1049A800000E0001716F6FBFDEEF24F0DCEF24F022
:1049B800F0EF24F06F1F6E1F6D1F6C1F6B1F6A1FB7
:1049C800691F686D000E69236A236B236C236D23AE
:1049D8006E236F23010E716F67BFF7EF24F0F5EFB9
:1049E80024F009EF25F0671F661F651F641F631F0A
:1049F800621F611F606D000E6123622363236423BD
:104A0800652366236723010E711B20EE72F0070EE3
:104A1800DE6AE806FDE2685169116A116B116C11D2
:104A28006D116E116F11D8B41CEF25F01EEF25F033
:104A380070EF25F0010E706F2CEF25F0D8906837D5
:104A480069376A376B376C376D376E376F37702B4E
:104A58006FAF31EF25F033EF25F022EF25F0D89036
:104A680072377337743775377637773778377937DA
:104A78006851605D695161596A5162596B51635956
:104A88006C5164596D5165596E5166596F5167592A
:104A9800D8A051EF25F053EF25F064EF25F06851C9
:104AA800605F6951615B6A51625B6B51635B6C511A
:104AB800645B6D51655B6E51665B6F51675B7281BC
:104AC800D8906F336E336D336C336B336A3369331D
:104AD8006833702F33EF25F07151D8B476EF25F095
:104AE80078EF25F088EF25F0791F781F771F761F5C
:104AF800751F741F731F726D000E73237423752343
:104B0800762377237823792372C060F073C061F02D
:104B180074C062F075C063F076C064F077C065F069
:104B280078C066F079C067F01200000120EE02F04C
:104B38006D51D9266E51DA22DF50D8B4A6EF25F090
:104B4800A8EF25F0DEEF25F06DC0D9FF6EC0DAFFC3
:104B5800DF506F6F6F51606F616B20EE03F06D5126
:104B6800D9266E51DA22DECF62F0DDCF63F0A5ECF4
:104B780038F060C066F061C067F0000E0001696F30
:104B8800640E686F5AEC31F0000120EE03F06D51AD
:104B9800D9266E51DA22DF50706F6651705D716FE1
:104BA80020EE03F06D51D9266E51DA22DF50726F74
:104BB80003EF26F0000E716F6DC0D9FF6EC0DAFFEB
:104BC800DF506F6F6F51606F616B20EE03F06D51B6
:104BD800D9266E51DA22DECF62F0DDCF63F0A5EC84
:104BE80038F060C066F061C067F0000E0001696FC0
:104BF800640E686F5AEC31F000016651726F20EE56
:104C080001F06D51D9266E51DA22DF50D8B40FEF7A
:104C180026F011EF26F033EF26F020EE05F06D5167
:104C2800D9266E51DA22DECF6FF0DDCF70F06FC07B
:104C3800D9FF70C0DAFF71C0DFFF20EE07F06D51B9
:104C4800D9266E51DA22DECF6FF0DDCF70F06FC05B
:104C5800D9FF70C0DAFF72C0DFFF53EF26F020EEF5
:104C680005F06D51D9266E51DA22DECF6FF0DDCF17
:104C780070F06FC0D9FF70C0DAFF72C0DFFF20EE9E
:104C880007F06D51D9266E51DA22DECF6FF0DDCFF5
:104C980070F06FC0D9FF70C0DAFF71C0DFFF12007B
:104CA80020EE02F00E50D9260F50DA22DF50D8B489
:104CB80060EF26F062EF26F096EF26F00EC0D9FFDF
:104CC8000FC0DAFFDF50106E1050016E026A20EE3E
:104CD80003F00E50D9260F50DA22DECF03F0DDCFD5
:104CE80004F0DFEC38F001C007F002C008F0000E55
:104CF8000A6E640E096E95EC31F020EE03F00E504A
:104D0800D9260F50DA22DF50116E0750115C126E4F
:104D180020EE03F00E50D9260F50DA22DF50136E22
:104D2800B9EF26F0000E126E0EC0D9FF0FC0DAFFE1
:104D3800DF50106E1050016E026A20EE03F00E5024
:104D4800D9260F50DA22DECF03F0DDCF04F0DFECF6
:104D580038F001C007F002C008F0000E0A6E640EB9
:104D6800096E95EC31F00750136E20EE01F00E50ED
:104D7800D9260F50DA22DF50D8B4C5EF26F0C7EF96
:104D880026F0E9EF26F020EE05F00E50D9260F5058
:104D9800DA22DECF10F0DDCF11F010C0D9FF11C03C
:104DA800DAFF12C0DFFF20EE07F00E50D9260F50B1
:104DB800DA22DECF10F0DDCF11F010C0D9FF11C01C
:104DC800DAFF13C0DFFF09EF27F020EE05F00E50E1
:104DD800D9260F50DA22DECF10F0DDCF11F010C047
:104DE800D9FF11C0DAFF13C0DFFF20EE07F00E5025
:104DF800D9260F50DA22DECF10F0DDCF11F010C027
:104E0800D9FF11C0DAFF12C0DFFF1200000E000147
:104E1800716F67BF14EF27F012EF27F026EF27F026
:104E2800671F661F651F641F631F621F611F606D18
:104E3800000E6123622363236423652366236723AB
:104E4800010E716F6FBF2DEF27F02BEF27F03DEFAD
:104E580027F06F1F6E1F6D1F6C1F6B1F6A1F691F66
:104E6800686D000E69236A236B236C236D236E2300
:104E78006F23685169116A116B116C116D116E11F4
:104E88006F11D8B44AEF27F04CEF27F094EF27F0D2
:104E9800010E706F5AEF27F0D890683769376A3774
:104EA8006B376C376D376E376F37702B6FAF5FEFBF
:104EB80027F061EF27F050EF27F06851605D6951E6
:104EC80061596A5162596B5163596C5164596D51FA
:104ED80065596E5166596F516759D8A076EF27F01A
:104EE80078EF27F088EF27F06851605F6951615BC0
:104EF8006A51625B6B51635B6C51645B6D51655BBE
:104F08006E51665B6F51675BD8906F336E336D334C
:104F18006C336B336A3369336833702F61EF27F072
:104F28007151D8B49AEF27F09CEF27F0ACEF27F037
:104F3800671F661F651F641F631F621F611F606D07
:104F4800000E61236223632364236523662367239A
:104F580060C060F061C061F062C062F063C063F07D
:104F680064C064F065C065F066C066F067C067F04D
:104F78001200000162356335696F6951D8A4C7EF23
:104F880027F0C9EF27F0D3EF27F0000E606F000E6F
:104F9800616F000E626F000E636F40EF28F060C013
:104FA80064F061C065F062C066F063C067F0200E0F
:104FB800E3EF27F0D8906733663365336433E82E20
:104FC800DEEF27F06451686F628FFF0E6017FF0EE7
:104FD8006117FF0E6217000E6317960E695F69BFAF
:104FE800FAEF27F0F8EF27F010EF28F06951800A60
:104FF800970FD8B002EF28F004EF28F006EF28F05A
:10500800C9EF27F0D8906333623361336033693F67
:1050180006EF28F028EF28F01F0E696516EF28F034
:1050280018EF28F020EF28F0C9EF27F0D890603764
:1050380061376237633769076951D8A426EF28F0CA
:1050480028EF28F01AEF28F06851D8B42EEF28F08E
:1050580030EF28F038EF28F0631F621F611F606D82
:10506800000E61236223632360C060F061C061F0B9
:1050780062C062F063C063F01200000E000189157F
:10508800916F000E8A15926F800E8B15936F7F0EAD
:105098008C15946F9151921193119411D8A457EFD4
:1050A80028F059EF28F061EF28F0000E896F000E04
:1050B8008A6F000E8B6F000E8C6F000E8D15916F2E
:1050C800000E8E15926F800E8F15936F7F0E9015C0
:1050D800946F9151921193119411D8A476EF28F0FE
:1050E80078EF28F080EF28F0000E8D6F000E8E6F9D
:1050F800000E8F6F000E906F8CAF85EF28F087EF52
:1051080028F090EF28F0896D8A1FD8B08A2B8B1F62
:10511800D8B08B2B800E8C5790AF95EF28F097EF77
:1051280028F0A0EF28F08D6D8E1FD8B08E2B8F1F22
:10513800D8B08F2B800E9057000E891B000E8A1B4B
:10514800000E8B1B800E8C1B000E8D1B000E8E1B01
:10515800000E8F1B800E901B8D51895D8E518A59D0
:105168008F518B5990518C59D8B0BDEF28F0BFEFB3
:1051780028F0C2EF28F0D890C3EF28F0D8801200AA
:105188004AC06AF04BC06BF04CC06CF04DC06DF07B
:1051980060C06AF061C06BF062C06CF063C06DF013
:1051A8006AC064F06BC065F06CC066F06DC067F0F3
:1051B800180EE5EF28F00001D890673366336533A1
:1051C8006433E82EDFEF28F06451686F696B68512B
:1051D8006911D8A4F2EF28F0F4EF28F014EF29F0C1
:1051E800D8906A35646F6B35656F6C35666F6D3551
:1051F800676F6451651166116711D8A406EF29F02D
:1052080008EF29F00EEF29F0000E616F020E606FB3
:1052180043EF29F0000E616F030E606F43EF29F032
:1052280068296911D8A41BEF29F01DEF29F03FEF79
:1052380029F06AC064F06BC065F06CC066F06DC0A0
:1052480067F0090ED8906437653766376737E82EF8
:1052580026EF29F06451651166116711D8B437EF4C
:1052680029F03AEF29F0010E3BEF29F0000E606FAC
:10527800616B43EF29F0000E616F040E606F12003E
:10528800000120EE01F07351D9267451DA22010E83
:10529800DF6E20EE01F07551D9267651DA22010E23
:1052A800DF6E7CEF29F073C0D9FF74C0DAFF0A0EF5
:1052B800DF2675C0D9FF76C0DAFF0A0EDF2673C075
:1052C8006DF074C06EF099EC25F075C06DF076C085
:1052D8006EF099EC25F0020E00017A6FA00E796F3E
:1052E800920EE82EFED7792FFCD77A2FFAD700F046
:1052F80073C0D9FF74C0DAFFDF500001796F7A6B91
:105308005850795D7A51800A7B6F5950800A7B59D1
:10531800D8B091EF29F093EF29F0A9EF29F075C0E3
:10532800D9FF76C0DAFFDF50796F7A6B5850795D14
:105338007A51800A7B6F5950800A7B59D8A0A7EF11
:1053480029F0A9EF29F057EF29F077C068F078C065
:1053580069F093EC37F0120020EE01F01450D926D2
:105368001550DA22010EDF6E20EE01F01650D92614
:105378001750DA22010EDF6EE6EF29F014C0D9FFCC
:1053880015C0DAFF0A0EDF2616C0D9FF17C0DAFFEC
:105398000A0EDF2614C00EF015C00FF054EC26F0EC
:1053A80016C00EF017C00FF054EC26F0020E1B6E5C
:1053B800A00E1A6E920EE82EFED71A2EFCD71B2EC0
:1053C800FAD700D014C0D9FF15C0DAFFDF501A6E23
:1053D8001B6A58501A5C1B50800A1C6E5950800A70
:1053E8001C58D8B0FAEF29F0FCEF29F012EF2AF098
:1053F80016C0D9FF17C0DAFFDF501A6E1B6A585063
:105408001A5C1B50800A1C6E5950800A1C58D8A080
:1054180010EF2AF012EF2AF0C2EF29F018C001F0BD
:1054280019C002F02BEC38F0120000016251631130
:10543800D8B421EF2AF023EF2AF02CEF2AF062519A
:105448006311D8A42AEF2AF02CEF2AF031EF2AF0C2
:10545800605140EC39F07EEF2AF020EE09F06251FD
:10546800D9266351DA22DE50DE10D8B43EEF2AF096
:1054780040EF2AF05BEF2AF020EE09F06251D926BE
:105488006351DA2210EE03F06251E1266351E22201
:10549800DE50E65CE650800A686FDE50800A685984
:1054A800D8B059EF2AF05BEF2AF07EEF2AF020EE11
:1054B80003F06251D9266351DA22DECF64F0DDCFE2
:1054C80065F062C0D9FF63C0DAFFDECF66F0DDCFDA
:1054D80067F064516625D96E65516721DA6E60C040
:1054E800DFFF20EE03F06251D9266351DA22DE2A6B
:1054F800000EDD221200000120EE01F07351D926C2
:105508007451DA22010EDF6E20EE01F07551D926B2
:105518007651DA22000EDF6EB7EF2AF073C0D9FF9A
:1055280074C0DAFF0A0EDF2675C0D9FF76C0DAFF2D
:105538000A0EDF2673C06DF074C06EF099EC25F08A
:1055480075C06DF076C06EF099EC25F0020E000182
:10555800786FA00E776F920EE82EFED7772FFCD7C4
:10556800782FFAD700F073C0D9FF74C0DAFFDF5084
:105578000001776F786B5850775D7851800A796FA2
:105588005950800A7959D8B0CCEF2AF0CEEF2AF0DA
:10559800E4EF2AF075C0D9FF76C0DAFFDF50776FE5
:1055A800786B5850775D7851800A796F5950800A26
:1055B8007959D8A0E2EF2AF0E4EF2AF092EF2AF026
:1055C8001200000120EE01F07351D9267451DA223D
:1055D800000EDF6E20EE01F07551D9267651DA22E1
:1055E800010EDF6E1DEF2BF073C0D9FF74C0DAFF18
:1055F8000A0EDF2675C0D9FF76C0DAFF0A0EDF264D
:1056080073C06DF074C06EF099EC25F075C06DF044
:1056180076C06EF099EC25F0020E0001786FA00EAE
:10562800776F920EE82EFED7772FFCD7782FFAD710
:1056380000F073C0D9FF74C0DAFFDF500001776F44
:10564800786B5850775D7851800A796F5950800A85
:105658007959D8B032EF2BF034EF2BF04AEF2BF01A
:1056680075C0D9FF76C0DAFFDF50776F786B585076
:10567800775D7851800A796F5950800A7959D8A096
:1056880048EF2BF04AEF2BF0F8EF2AF01200000158
:1056980020EE01F07351D9267451DA22000EDF6E24
:1056A80020EE01F07551D9267651DA22000EDF6E10
:1056B80083EF2BF073C0D9FF74C0DAFF0A0EDF2620
:1056C80075C0D9FF76C0DAFF0A0EDF2673C06DF009
:1056D80074C06EF099EC25F075C06DF076C06EF070
:1056E80099EC25F0020E0001786FA00E776F920EEC
:1056F800E82EFED7772FFCD7782FFAD700F073C0A3
:10570800D9FF74C0DAFFDF500001776F786B58500B
:10571800775D7851800A796F5950800A7959D8B0E5
:1057280098EF2BF09AEF2BF0B0EF2BF075C0D9FF64
:1057380076C0DAFFDF50776F786B5850775D785115
:10574800800A796F5950800A7959D8A0AEEF2BF0AA
:10575800B0EF2BF05EEF2BF01200000120EE01F00D
:105768007351D9267451DA22010EDF6E20EE01F052
:105778007551D9267651DA22010EDF6EE9EF2BF04A
:1057880073C0D9FF74C0DAFF0A0EDF2675C0D9FFCF
:1057980076C0DAFF0A0EDF2673C06DF074C06EF0B3
:1057A80099EC25F075C06DF076C06EF099EC25F097
:1057B800020E0001786FA00E776F920EE82EFED7CA
:1057C800772FFCD7782FFAD700F073C0D9FF74C0B1
:1057D800DAFFDF500001776F786B5850775D7851AA
:1057E800800A796F5950800A7959D8B0FEEF2BF0AA
:1057F80000EF2CF016EF2CF075C0D9FF76C0DAFF59
:10580800DF50776F786B5850775D7851800A796FE1
:105818005950800A7959D8A014EF2CF016EF2CF0C3
:10582800C4EF2BF01200C30E00017A6F010E7B6FDC
:10583800BA0E7C6F010E7D6FD4EC32F0C30E0001FE
:105848007A6F010E7B6FBA0E7C6F010E7D6FAFEC25
:1058580035F0C30E00017A6F010E7B6FBA0E7C6FB4
:10586800010E7D6FAFEC35F0C30E00017A6F010EAB
:105878007B6FBA0E7C6F010E7D6F87EC35F0C30E1F
:1058880000017A6F010E7B6FBA0E7C6F010E7D6F7F
:10589800D4EC32F0C30E00017A6F010E7B6FBA0EA2
:1058A8007C6F010E7D6FAFEC35F0C30E00017A6F8F
:1058B800010E7B6FBA0E7C6F010E7D6FAFEC35F079
:1058C800C30E00017A6F010E7B6FBA0E7C6F010E5A
:1058D8007D6FAFEC35F0C30E00017A6F010E7B6F60
:1058E800BA0E7C6F010E7D6FAFEC35F01200C30E5F
:1058F80000017A6F010E7B6FBA0E7C6F010E7D6F0F
:10590800D4EC32F0C30E00017A6F010E7B6FBA0E31
:105918007C6F010E7D6FD7EC35F0C30E00017A6FF6
:10592800010E7B6FBA0E7C6F010E7D6FD7EC35F0E0
:10593800C30E00017A6F010E7B6FBA0E7C6F010EE9
:105948007D6F87EC35F0C30E00017A6F010E7B6F17
:10595800BA0E7C6F010E7D6FD4EC32F0C30E0001DD
:105968007A6F010E7B6FBA0E7C6F010E7D6FD7ECDC
:1059780035F0C30E00017A6F010E7B6FBA0E7C6F93
:10598800010E7D6FD7EC35F0C30E00017A6F010E62
:105998007B6FBA0E7C6F010E7D6FD7EC35F0C30EAE
:1059A80000017A6F010E7B6FBA0E7C6F010E7D6F5E
:1059B800D7EC35F01200000E0001656F63BFE9EF08
:1059C8002CF0E7EF2CF0EFEF2CF0626D631FD8B0EE
:1059D800632B010E656F61BFF6EF2CF0F4EF2CF02E
:1059E800FCEF2CF0606D611FD8B0612B010E651BB8
:1059F800000E676F000E666F62516311D8B407EF2F
:105A08002DF009EF2DF031EF2DF0010E646F11EF3D
:105A18002DF0D89062376337642B63AF16EF2DF003
:105A280018EF2DF00DEF2DF0D890663767376251DB
:105A3800605D63516159D8A024EF2DF026EF2DF059
:105A48002BEF2DF06251605F6351615B6681D890E6
:105A580063336233642F18EF2DF06551D8B437EFF4
:105A68002DF039EF2DF03DEF2DF0666D671FD8B0A2
:105A7800672B66C060F067C061F0120020EE01F08D
:105A88001450D9261550DA22010EDF6E20EE01F0EF
:105A98001650D9261750DA22010EDF6E78EF2DF056
:105AA80014C0D9FF15C0DAFF0A0EDF2616C0D9FFC9
:105AB80017C0DAFF0A0EDF2614C00EF015C00FF06B
:105AC80054EC26F016C00EF017C00FF054EC26F078
:105AD800020E196EA00E186E920EE82EFED7182E22
:105AE800FCD7192EFAD700D014C0D9FF15C0DAFF99
:105AF800DF50186E196A5850185C1950800A1A6ECF
:105B08005950800A1A58D8B08CEF2DF08EEF2DF02E
:105B1800A4EF2DF016C0D9FF17C0DAFFDF50186EBA
:105B2800196A5850185C1950800A1A6E5950800A20
:105B38001A58D8A0A2EF2DF0A4EF2DF054EF2DF0B5
:105B4800120020EE01F01450D9261550DA22000E6A
:105B5800DF6E20EE01F01650D9261750DA22010E1A
:105B6800DF6EDBEF2DF014C0D9FF15C0DAFF0A0E87
:105B7800DF2616C0D9FF17C0DAFF0A0EDF2614C0C9
:105B88000EF015C00FF054EC26F016C00EF017C03A
:105B98000FF054EC26F0020E196EA00E186E920E3D
:105BA800E82EFED7182EFCD7192EFAD700D014C02D
:105BB800D9FF15C0DAFFDF50186E196A5850185C03
:105BC8001950800A1A6E5950800A1A58D8B0EFEF47
:105BD8002DF0F1EF2DF007EF2EF016C0D9FF17C00A
:105BE800DAFFDF50186E196A5850185C1950800A8D
:105BF8001A6E5950800A1A58D8A005EF2EF007EFF0
:105C08002EF0B7EF2DF0120020EE01F01450D92637
:105C18001550DA22010EDF6E20EE01F01650D9265B
:105C28001750DA22000EDF6E3EEF2EF014C0D9FFB7
:105C380015C0DAFF0A0EDF2616C0D9FF17C0DAFF33
:105C48000A0EDF2614C00EF015C00FF054EC26F033
:105C580016C00EF017C00FF054EC26F0020E196EA5
:105C6800A00E186E920EE82EFED7182EFCD7192E0D
:105C7800FAD700D014C0D9FF15C0DAFFDF50186E6C
:105C8800196A5850185C1950800A1A6E5950800ABF
:105C98001A58D8B052EF2EF054EF2EF06AEF2EF0CB
:105CA80016C0D9FF17C0DAFFDF50186E196A5850AE
:105CB800185C1950800A1A6E5950800A1A58D8A0D0
:105CC80068EF2EF06AEF2EF01AEF2EF0120020EE99
:105CD80001F01450D9261550DA22000EDF6E20EE9E
:105CE80001F01650D9261750DA22000EDF6EA1EF08
:105CF8002EF014C0D9FF15C0DAFF0A0EDF2616C031
:105D0800D9FF17C0DAFF0A0EDF2614C00EF015C03F
:105D18000FF054EC26F016C00EF017C00FF054EC3C
:105D280026F0020E196EA00E186E920EE82EFED7FF
:105D3800182EFCD7192EFAD700D014C0D9FF15C0D9
:105D4800DAFFDF50186E196A5850185C1950800A2B
:105D58001A6E5950800A1A58D8B0B5EF2EF0B7EF1E
:105D68002EF0CDEF2EF016C0D9FF17C0DAFFDF50A6
:105D7800186E196A5850185C1950800A1A6E5950D2
:105D8800800A1A58D8A0CBEF2EF0CDEF2EF07DEF79
:105D98002EF01200C30E1B6E010E1C6EBA0E1D6E85
:105DA800010E1E6EE3EC33F0C30E1B6E010E1C6E6B
:105DB800BA0E1D6E010E1E6E9CEC36F0C30E1B6EE5
:105DC800010E1C6EBA0E1D6E010E1E6E9CEC36F096
:105DD800C30E1B6E010E1C6EBA0E1D6E010E1E6EDA
:105DE8004EEC36F0C30E1B6E010E1C6EBA0E1D6E05
:105DF800010E1E6EE3EC33F0C30E1B6E010E1C6E1B
:105E0800BA0E1D6E010E1E6E9CEC36F0C30E1B6E94
:105E1800010E1C6EBA0E1D6E010E1E6E9CEC36F045
:105E2800C30E1B6E010E1C6EBA0E1D6E010E1E6E89
:105E38009CEC36F0C30E1B6E010E1C6EBA0E1D6E66
:105E4800010E1E6E9CEC36F01200C30E1B6E010E86
:105E58001C6EBA0E1D6E010E1E6EE3EC33F0C30EFF
:105E68001B6E010E1C6EBA0E1D6E010E1E6E75ECB9
:105E780036F0C30E1B6E010E1C6EBA0E1D6E010E9F
:105E88001E6E75EC36F0C30E1B6E010E1C6EBA0E3C
:105E98001D6E010E1E6E4EEC36F0C30E1B6E010E0B
:105EA8001C6EBA0E1D6E010E1E6EE3EC33F0C30EAF
:105EB8001B6E010E1C6EBA0E1D6E010E1E6E75EC69
:105EC80036F0C30E1B6E010E1C6EBA0E1D6E010E4F
:105ED8001E6E75EC36F0C30E1B6E010E1C6EBA0EEC
:105EE8001D6E010E1E6E75EC36F0C30E1B6E010E94
:105EF8001C6EBA0E1D6E010E1E6E75EC36F0120089
:105F0800000E00019115996F000E92159A6F800E80
:105F180093159B6F7F0E94159C6F99519A119B1145
:105F28009C11D8A49AEF2FF09CEF2FF0A4EF2FF03C
:105F3800000E916F000E926F000E936F000E946F1B
:105F4800000E9515996F000E96159A6F800E97158D
:105F58009B6F7F0E98159C6F99519A119B119C11FC
:105F6800D8A4B9EF2FF0BBEF2FF0C3EF2FF0000E3E
:105F7800956F000E966F000E976F000E986F9551F3
:105F880091190FE1965192190CE19751931909E172
:105F980098519419D8B4D3EF2FF0D5EF2FF0D8EF4C
:105FA8002FF0D890D9EF2FF0D8801200050E0E01EF
:105FB800746F060E766F070E696F080E886F8594EA
:105FC8008598839E879CBD508F0B3009BD6EE00E6F
:105FD800BE16BF50F00B0109BF6E60C0BCFFBD8E7E
:105FE800000EAA6E000EA66E000E0F01256F000EA1
:105FF800216FFC0EAD16F30EAD16CF0EAD163F0E8B
:10600800AD16AB88AB50F00B0C09AB6EAB8EA78806
:10601800A750F00B0C09A76EA78E26892651F00B06
:106028000C09266F268F22892251F00B0C09226F4A
:10603800228F12007AC073F07BC074F07CC075F0B8
:106048007DC076F04BEC2BF0290E00017F6F960E89
:106058007E6F7F0EE82EFED77E2FFCD77F2FFAD7D4
:10606800C30E0001736F010E746FBA0E756F010EC7
:10607800766F61EC30F07AC073F07BC074F07CC04E
:1060880075F07DC076F0B1EC2BF0290E00017F6F22
:10609800960E7E6F7F0EE82EFED77E2FFCD77F2FC1
:1060A800FAD7C30E0001736F010E746FBA0E756FC5
:1060B800010E766F61EC30F0120088EF30F073C09B
:1060C800D9FF74C0DAFF0A0EDF5E75C0D9FF76C04B
:1060D800DAFF0A0EDF5E73C06DF074C06EF099ECE3
:1060E80025F075C06DF076C06EF099EC25F0020EC3
:1060F8000001786FA00E776F920EE82EFED7772FEB
:10610800FCD7782FFAD700F073C0D9FF74C0DAFF34
:10611800DF50D8A492EF30F094EF30F063EF30F016
:1061280075C0D9FF76C0DAFFDF50D8A49EEF30F0F3
:10613800A0EF30F063EF30F01200000175BFA7EF59
:1061480030F0A9EF30F0AFEF30F074C079F075C0DF
:106158007AF0B3EF30F0000E7A6F000E796F000E10
:10616800786F000E776FC6EF30F0000E616F200E6B
:10617800606F70C062F071C063F019EC2AF0000122
:10618800774B782B7951775D7851800A766F7A5101
:10619800800A7659D8A0D3EF30F0D5EF30F0B9EFB8
:1061A80030F072C069F073C06AF070C06BF071C0F3
:1061B8006CF0C3EC36F0120006EF31F014C0D9FFD2
:1061C80015C0DAFF0A0EDF5E16C0D9FF17C0DAFF66
:1061D8000A0EDF5E14C00EF015C00FF054EC26F066
:1061E80016C00EF017C00FF054EC26F0020E196E10
:1061F800A00E186E920EE82EFED7182EFCD7192E78
:10620800FAD700D014C0D9FF15C0DAFFDF50D8A4E0
:1062180010EF31F012EF31F0E2EF30F016C0D9FF95
:1062280017C0DAFFDF50D8A41CEF31F01EEF31F0B1
:10623800E2EF30F012007D0EF66E720EF76E000E71
:10624800F86E0900F5CFD4F10900F5CFD5F1760E37
:10625800F66E720EF76E000EF86E00EE54F010EE49
:1062680007F00900F5CFEEFFE550E150FAE103EE43
:1062780000F0640EEE6AE806FDE102EE00F0BE0EE4
:10628800EE6AE806FDE101EE9EF0360EEE6AE806DB
:10629800FDE10001FF6B00EE32F0220EEE6AE80627
:1062A800FDE15B905B920001AEEF11F0000E000182
:1062B8006B6F000E6A6F68516911D8B466EF31F0E0
:1062C80068EF31F090EF31F0010E6C6F70EF31F044
:1062D800D890683769376C2B69AF75EF31F077EF75
:1062E80031F06CEF31F0D8906A376B376851665DE2
:1062F80069516759D8A083EF31F085EF31F08AEF03
:1063080031F06851665F6951675B6A81D89069337B
:1063180068336C2F77EF31F06AC066F06BC067F0B6
:106328001200000E0C6E000E0B6E09500A10D8B445
:10633800A0EF31F0A2EF31F0CAEF31F0010E0D6E8F
:10634800AAEF31F0D89009360A360D2A0AAEAFEF17
:1063580031F0B1EF31F0A6EF31F0D8900B360C36B2
:106368000950075C0A500858D8A0BDEF31F0BFEFBC
:1063780031F0C4EF31F00950075E0A50085A0B801B
:10638800D8900A3209320D2EB1EF31F00BC007F068
:106398000CC008F01200C30E00017A6F010E7B6F6B
:1063A800BA0E7C6F010E7D6FD4EC32F0C30E000183
:1063B8007A6F010E7B6FBA0E7C6F010E7D6FAFECAA
:1063C80035F0C30E00017A6F010E7B6FBA0E7C6F39
:1063D800010E7D6FAFEC35F0C30E00017A6F010E30
:1063E8007B6FBA0E7C6F010E7D6FAFEC35F0C30E7C
:1063F80000017A6F010E7B6FBA0E7C6F010E7D6F04
:10640800AFEC35F01200000163BF17EF32F06351B3
:106418006211611106E16005D8B015EF32F017EF8F
:1064280032F032EF32F060C064F061C065F062C0F3
:1064380066F063C067F0641F651F661F671F642BE3
:10644800000E65236623672364C060F065C061F0B1
:1064580066C062F067C063F03AEF32F060C060F087
:1064680061C061F062C062F063C063F0120065EC65
:1064780034F06BC0D9FF6CC0DAFF000164C0DEFFE6
:1064880065C0DDFFB9EC34F0000120EE04F06B517B
:10649800D9266C51DA2264C0DEFF65C0DDFF8FECBF
:1064A80034F0000120EE02F06B51D9266C51DA224B
:1064B80064C0DEFF65C0DDFF3BEC34F0000120EE78
:1064C80006F06B51D9266C51DA2264C0DEFF65C034
:1064D800DDFF12007AC073F07BC074F07CC075F0E9
:1064E8007DC076F0B1EC2BF054C060F055C061F07F
:1064F800000E0001636F020E626FDFEC2CF060C0CB
:1065080068F061C069F093EC37F0C30E0001736F57
:10651800010E746FBA0E756F010E766F61EC30F074
:10652800050E00017F6F0F0E7E6FF10EE82EFED76D
:106538007E2FFCD77F2FFAD71200C30E1B6E010ED9
:106548001C6EBA0E1D6E010E1E6EE3EC33F0C30E08
:106558001B6E010E1C6EBA0E1D6E010E1E6E9CEC9B
:1065680036F0C30E1B6E010E1C6EBA0E1D6E010EA8
:106578001E6E9CEC36F0C30E1B6E010E1C6EBA0E1E
:106588001D6E010E1E6E9CEC36F0C30E1B6E010EC6
:106598001C6EBA0E1D6E010E1E6E9CEC36F01200BB
:1065A8007AC073F07BC074F07CC075F07DC076F063
:1065B8004BEC2BF0110E00017F6F3C0E7E6FCB0E63
:1065C800E82EFED77E2FFCD77F2FFAD7C30E000107
:1065D800736F010E746FBA0E756F010E766F61ECF2
:1065E80030F0050E00017F6F0F0E7E6FF10EE82E62
:1065F800FED77E2FFCD77F2FFAD71200C30E0001DB
:106608007A6F010E7B6FBA0E7C6F010E7D6FD4EC32
:1066180032F0C30E00017A6F010E7B6FBA0E7C6FE9
:10662800010E7D6FAFEC35F0C30E00017A6F010EDD
:106638007B6FBA0E7C6F010E7D6FAFEC35F0C30E29
:1066480000017A6F010E7B6FBA0E7C6F010E7D6FB1
:10665800AFEC35F01200C30E00017A6F010E7B6FAC
:10666800BA0E7C6F010E7D6FD4EC32F0C30E0001C0
:106678007A6F010E7B6FBA0E7C6F010E7D6FD7ECBF
:1066880035F0C30E00017A6F010E7B6FBA0E7C6F76
:10669800010E7D6FD7EC35F0C30E00017A6F010E45
:1066A8007B6FBA0E7C6F010E7D6FD7EC35F0120050
:1066B80090EC38F0010E0001626F000ECCEC38F05F
:1066C8003F0E0001646F550EE82EFED7642FFCD7ED
:1066D800030E0001626F000ECCEC38F0D50E0001FD
:1066E800626F010ECCEC38F0000E0001626F0F0EE5
:1066F800CCEC38F087928198869E849684987F9215
:106708007E9E79987C967C981200C30E00017A6F61
:10671800010E7B6FBA0E7C6F010E7D6FD4EC32F0E8
:10672800C30E00017A6F010E7B6FBA0E7C6F010EEB
:106738007D6FFFEC35F0C30E00017A6F010E7B6FA1
:10674800BA0E7C6F010E7D6FAFEC35F0C30E000101
:106758007A6F010E7B6FBA0E7C6F010E7D6FAFEC06
:1067680035F01200C30E00017A6F010E7B6FBA0E6E
:106778007C6F010E7D6FD4EC32F0C30E00017A6F8E
:10678800010E7B6FBA0E7C6F010E7D6FFFEC35F04A
:10679800C30E00017A6F010E7B6FBA0E7C6F010E7B
:1067A8007D6FD7EC35F0C30E00017A6F010E7B6F59
:1067B800BA0E7C6F010E7D6FD7EC35F012001BC04E
:1067C80014F01CC015F01DC016F01EC017F06BECBD
:1067D8002EF0110E206E3C0E1F6ECB0EE82EFED74B
:1067E8001F2EFCD7202EFAD700F0C30E146E010E10
:1067F800156EBA0E166E010E176EE0EC30F0050E2F
:10680800206E0F0E1F6EF10EE82EFED71F2EFCD73E
:10681800202EFAD700F012000DC1FBF00EC1FCF0DB
:1068280025EF34F00BC1F3F00CC1F4F0FB0E0001BE
:10683800F56F000EF66F0FC1F7F010C1F8F034ECE9
:106848001CF0FBC0F6FFFCC0F7FF000EF86E080056
:10685800F5500009D8A433EF34F035EF34F016EFD3
