:0400000007EF00F016
:0A0008005F825F921100C8EF20F044
:100E0000007265643D256420677265656E3D2564EA
:100E100020626C75653D25642074696D65723D25A1
:100E200064200D0A0000000E0001726F000E736F47
:100E3000000E746F000E756F000E766F500E776F98
:100E4000C30E786F470E796F000E656F040E646FE6
:100E500020EE66F00B0EDE6AE806FDE24BC0D9FF1D
:100E60004CC0DAFFDECF01F0DDCF02F0000E02BE93
:100E7000FF0E036E046E010E67EC19F001C066F000
:100E800002C067F003C068F004C069F020EE02F011
:100E90004B50D9264C50DA22DECF01F0DDCF02F0E4
:100EA000000E02BEFF0E036E046E010E67EC19F019
:100EB00001C06AF002C06BF003C06CF004C06DF0BA
:100EC00020EE04F04B50D9264C50DA22DECF01F050
:100ED000DDCF02F0000E02BEFF0E036E046E010EA7
:100EE00067EC19F001C06EF002C06FF003C070F043
:100EF00004C071F0000E00017B6F000E7A6F72C0AB
:100F000001F073C002F074C003F075C004F0660E07
:100F10004F6E000E506ED8907A35D96E7B35DA6EF2
:100F2000D890D936DA364F50D9265050DA22DECF53
:100F300005F0DECF06F0DECF07F0DECF08F015ECCF
:100F40001DF0D8B0A6EF07F0A8EF07F0C5EF07F047
:100F5000660E4F6E000E506ED89000017A35D96E35
:100F60007B35DA6ED890D936DA364F50D9265050C4
:100F7000DA22DECF72F0DECF73F0DECF74F0DECF98
:100F800075F07AC064F07BC065F0660E4F6E000E9F
:100F9000506ED89000017A35D96E7B35DA6ED890D4
:100FA000D936DA364F50D9265050DA22DECF01F04A
:100FB000DECF02F0DECF03F0DECF04F076C005F026
:100FC00077C006F078C007F079C008F015EC1DF086
:100FD000D8B0EDEF07F0EFEF07F008EF08F0660E7E
:100FE0004F6E000E506ED89000017A35D96E7B3569
:100FF000DA6ED890D936DA364F50D9265050DA22E8
:10100000DECF76F0DECF77F0DECF78F0DECF79F08E
:1010100000017A4B7B2B7BBF17EF08F07B5109E176
:10102000030E7A5DD8A017EF08F019EF08F07FEFF4
:1010300007F076C015F077C016F078C017F079C0C9
:1010400018F072C011F073C012F074C013F075C0C4
:1010500014F02BEC24F011C019F012C01AF013C0D8
:101060001BF014C01CF0000E1D6E000E1E6E000E54
:101070001F6E000E206EFCEC1DF0D8A042EF08F0B1
:1010800044EF08F04AEF08F0000E4C6E000E4B6E75
:1010900080EF0CF0000164516511D8A452EF08F004
:1010A00054EF08F0C8EF08F076C015F077C016F0DE
:1010B00078C017F079C018F072C011F073C012F048
:1010C00074C013F075C014F02BEC24F011C01DF0A7
:1010D00012C01EF013C01FF014C020F06EC015F037
:1010E0006FC016F070C017F071C018F06AC011F030
:1010F0006BC012F06CC013F06DC014F02BEC24F038
:1011000011C019F012C01AF013C01BF014C01CF06B
:10111000ADEC13F019C032F01AC033F01BC034F03C
:101120001CC035F0000E366E000E376E700E386E35
:10113000420E396E98EC11F032C07CF033C07DF075
:1011400034C07EF035C07FF000017FBFACEF08F007
:10115000AAEF08F0A7EF09F07CC001F07DC002F013
:101160007EC003F07FC004F0000E056E000E066E18
:10117000B40E076E430E086E38EC0FF001C07CF021
:1011800002C07DF003C07EF004C07FF0A7EF09F03D
:1011900064056511D8A4CFEF08F0D1EF08F03DEF5A
:1011A00009F076C015F077C016F078C017F079C056
:1011B00018F072C011F073C012F074C013F075C053
:1011C00014F02BEC24F011C01DF012C01EF013C05F
:1011D0001FF014C020F066C015F067C016F068C09C
:1011E00017F069C018F06EC011F06FC012F070C037
:1011F00013F071C014F02BEC24F011C019F012C0E0
:101200001AF013C01BF014C01CF0ADEC13F019C0A1
:1012100060F01AC061F01BC062F01CC063F0000EE9
:10122000056E000E066E000E076E400E086E60C062
:1012300001F061C002F062C003F063C004F038EC5A
:101240000FF001C032F002C033F003C034F004C02C
:1012500035F0000E366E000E376E700E386E420E90
:10126000396E98EC11F032C07CF033C07DF034C0A0
:101270007EF035C07FF0A7EF09F076C015F077C09B
:1012800016F078C017F079C018F072C011F073C072
:1012900012F074C013F075C014F02BEC24F011C0E0
:1012A0001DF012C01EF013C01FF014C020F06AC061
:1012B00015F06BC016F06CC017F06DC018F066C06A
:1012C00011F067C012F068C013F069C014F02BEC85
:1012D00024F011C019F012C01AF013C01BF014C092
:1012E0001CF0ADEC13F019C060F01AC061F01BC027
:1012F00062F01CC063F0000E056E000E066E800EDC
:10130000076E400E086E60C001F061C002F062C05E
:1013100003F063C004F038EC0FF001C032F002C0FB
:1013200033F003C034F004C035F0000E366E000E0A
:10133000376E700E386E420E396E98EC11F032C076
:101340007CF033C07DF034C07EF035C07FF07CC0CF
:1013500001F07DC002F07EC003F07FC004F0000EFB
:10136000056E000E066EA50E076E430E086E15EC98
:101370001DF0D8A0BEEF09F0C0EF09F0DFEF09F0D3
:10138000000E016E000E026EB40E036E430E046E6C
:101390007CC005F07DC006F07EC007F07FC008F07D
:1013A00015EC1DF0D8A0D7EF09F0D9EF09F0DFEF69
:1013B00009F0000E4C6E010E4B6E80EF0CF07CC0FD
:1013C00001F07DC002F07EC003F07FC004F0000E8B
:1013D000056E000E066EA00E076E400E086E15EC30
:1013E0001DF0D8A0F6EF09F0F8EF09F017EF0AF0BA
:1013F000000E016E000E026E400E036E410E046E72
:101400007CC005F07DC006F07EC007F07FC008F00C
:1014100015EC1DF0D8A00FEF0AF011EF0AF017EF4E
:101420000AF0000E4C6E020E4B6E80EF0CF07CC08A
:1014300001F07DC002F07EC003F07FC004F0000E1A
:10144000056E000E066EA00E076E410E086E15ECBE
:101450001DF0D8A02EEF0AF030EF0AF0B0EF0AF03E
:10146000000E016E000E026EE80E036E410E046E59
:101470007CC005F07DC006F07EC007F07FC008F09C
:1014800015EC1DF0D8A047EF0AF049EF0AF0B0EFD5
:101490000AF04DC0D9FF4EC0DAFFDECF01F0DECF3B
:1014A00002F0DECF03F0DECF04F0CD0E056ECC0EE1
:1014B000066E4C0E076E3E0E086E15EC1DF0D8A0A1
:1014C00064EF0AF066EF0AF085EF0AF0000E016E95
:1014D000000E026E800E036E3E0E046E4DC0D9FFEC
:1014E0004EC0DAFFDECF05F0DECF06F0DECF07F02C
:1014F000DECF08F015EC1DF0D8A081EF0AF083EFE5
:101500000AF085EF0AF044EF08F020EE08F04D50A5
:10151000D9264E50DA22DECF01F0DECF02F0DECF48
:1015200003F0DECF04F0290E056E5C0E066E0F0E82
:10153000076E3E0E086E15EC1DF0D8A0A2EF0AF063
:10154000A4EF0AF0AAEF0AF0000E4C6E040E4B6EE8
:1015500080EF0CF0000E4C6E030E4B6E80EF0CF023
:101560007CC001F07DC002F07EC003F07FC004F0BB
:10157000000E056E000E066E340E076E420E086EEB
:1015800015EC1DF0D8A0C7EF0AF0C9EF0AF02EEF56
:101590000BF0000E016E000E026EA00E036E420EE6
:1015A000046E7CC005F07DC006F07EC007F07FC0F1
:1015B00008F015EC1DF0D8A0E0EF0AF0E2EF0AF019
:1015C0002EEF0BF020EE08F04D50D9264E50DA22C7
:1015D000DECF01F0DECF02F0DECF03F0DECF04F08D
:1015E0009A0E056E990E066E190E076E3E0E086E67
:1015F00015EC1DF0D8A0FFEF0AF001EF0BF003EFA0
:101600000BF0A4EF0AF020EE08F04D50D9264E5012
:10161000DA22DECF01F0DECF02F0DECF03F0DECF44
:1016200004F08F0E056EC20E066EF50E076E3D0EAF
:10163000086E15EC1DF0D8A020EF0BF022EF0BF098
:1016400028EF0BF0000E4C6E060E4B6E80EF0CF088
:10165000000E4C6E050E4B6E80EF0CF07CC001F05E
:101660007DC002F07EC003F07FC004F0000E056E66
:10167000000E066EA20E076E420E086E15EC1DF0EF
:10168000D8A045EF0BF047EF0BF081EF0BF0000E09
:10169000016E000E026EE60E036E420E046E7CC0FA
:1016A00005F07DC006F07EC007F07FC008F015ECA5
:1016B0001DF0D8A05EEF0BF060EF0BF081EF0BF0A8
:1016C00020EE08F04D50D9264E50DA22DECF01F040
:1016D000DECF02F0DECF03F0DECF04F09A0E056E0F
:1016E000990E066E190E076E3E0E086E15EC1DF073
:1016F000D8A07DEF0BF07FEF0BF022EF0BF0A4EF03
:101700000AF07CC001F07DC002F07EC003F07FC013
:1017100004F0000E056E000E066EF00E076E410E10
:10172000086E15EC1DF0D8A098EF0BF09AEF0BF0B7
:10173000B3EF0BF0000E016E000E026E680E036E2A
:10174000420E046E7CC005F07DC006F07EC007F03E
:101750007FC008F015EC1DF0D8B0B1EF0BF0B3EF7F
:101760000BF0A4EF0AF07CC001F07DC002F07EC057
:1017700003F07FC004F0000E056E000E066EF00E42
:10178000076E420E086E15EC1DF0D8A0CAEF0BF0E4
:10179000CCEF0BF0E7EF0BF0000E016E000E026EC7
:1017A0005C0E036E430E046E7CC005F07DC006F037
:1017B0007EC007F07FC008F015EC1DF0D8A0E3EF65
:1017C0000BF0E5EF0BF0E7EF0BF0A4EF0AF07CC0B5
:1017D00001F07DC002F07EC003F07FC004F0000E77
:1017E000056E000E066E600E076E410E086E15EC5B
:1017F0001DF0D8A0FEEF0BF000EF0CF07CEF0CF02A
:10180000000E016E000E026E980E036E410E046E05
:101810007CC005F07DC006F07EC007F07FC008F0F8
:1018200015EC1DF0D8A017EF0CF019EF0CF07CEFC1
:101830000CF04DC0D9FF4EC0DAFFDECF01F0DECF95
:1018400002F0DECF03F0DECF04F0CD0E056ECC0E3D
:10185000066E4C0E076E3E0E086E15EC1DF0D8A0FD
:1018600034EF0CF036EF0CF055EF0CF01F0E016E5C
:10187000850E026E6B0E036E3E0E046E4DC0D9FFD8
:101880004EC0DAFFDECF05F0DECF06F0DECF07F088
:10189000DECF08F015EC1DF0D8A051EF0CF053EF9F
:1018A0000CF055EF0CF044EF08F020EE08F04D502E
:1018B000D9264E50DA22DECF01F0DECF02F0DECFA5
:1018C00003F0DECF04F09A0E056E990E066E190E27
:1018D000076E3E0E086E15EC1DF0D8A072EF0CF0EE
:1018E00074EF0CF076EF0CF0A4EF0AF0000E4C6EE3
:1018F000070E4B6E80EF0CF0000E4C6E0A0E4B6E16
:101900001200A1EC25F0D5EC25F0E9EC22F045EC35
:1019100025F091EC25F0000E026EC80E016E8DECE4
:101920001FF087928198869E86840E01B4957F82EF
:1019300079887E8E000E0001F56F010EF66F010EA4
:10194000F76FAA0EFA6F0F0EFB6FA60EFC6F0F0E4D
:10195000FD6F000EF96FC80EF86F000E0101BE6F2B
:10196000010EBF6F010EC06F250EC36F0F0EC46F47
:10197000210EC56F0F0EC66F000EC26FC80EC16F6D
:10198000000E0001E96F000EE86F000EEF6F000E11
:10199000EE6F000EE76F010EE66FF269F3698EB429
:1019A000D4EF0CF0D6EF0CF0CFEF0CF0520E5A6ED5
:1019B0002B0E596E000EE82EFED7592EFCD75A2E4C
:1019C000FAD700D0000ED46E000ED36E2CEF0FF0BD
:1019D000F24BF32B000EED6F000EEC6F09EF0DF0E4
:1019E000F50E146E000E156EBE0E166E010E176EFD
:1019F000A0EC1EF0090E5A6E1E0E596EE40EE82E73
:101A0000FED7592EFCD75A2EFAD700D00001EC4B46
:101A1000ED2B0101CEBF16EF0DF0F50ECD5D010EE1
:101A2000CE59D8A016EF0DF018EF0DF0F0EF0CF036
:101A3000D8900001F235D96EF335DA6E000ED92652
:101A4000020EDA22ECC0DEFFEDC0DDFFC70E0C6E29
:101A5000010E0D6E33EC21F0C70E326E010E336EA7
:101A6000B20E346E010E356E7AEC15F00101CEBF68
:101A700043EF0DF0F40ECD5D010ECE59D8A043EF2B
:101A80000DF045EF0DF009EF0FF0F50E1A6E000E98
:101A90001B6EBE0E1C6E010E1D6E8FEC21F0F50E3E
:101AA000146E000E156EBE0E166E010E176E12EC41
:101AB00020F0110E5A6E3C0E596ECB0EE82EFED75A
:101AC000592EFCD75A2EFAD700F09AEF0DF0C70E18
:101AD0004B6E010E4C6EB20E4D6E010E4E6E13EC3F
:101AE00007F04BC0EAF04CC0EBF00001EE51EA19F0
:101AF00007E1EF51EB19D8A480EF0DF082EF0DF064
:101B000086EF0DF0E84BE92B8AEF0DF0000EE96F40
:101B1000000EE86FEAC0EEF0EBC0EFF0050E5A6E73
:101B20000F0E596EF10EE82EFED7592EFCD75A2E05
:101B3000FAD700F00001E9BFA7EF0DF0E95109E184
:101B4000140EE85DD8A0A7EF0DF0A9EF0DF067EF38
:101B50000DF0000EE96F000EE86F800E606F000E52
:101B6000616F010E626F0E0E636FC7C164F0C8C172
:101B700065F0C9C166F0CAC167F0CBC168F0CCC1DD
:101B800069F0ECC06AF0EDC06BF06EEC22F0800EF4
:101B9000026E000E036E2DEC25F00001EE05EF1134
:101BA000D8A4D5EF0DF0D7EF0DF0F0EF0DF0F50E56
:101BB000206E000E216EBE0E226E010E236EEFEC23
:101BC00024F0000ED46E000ED36E600E0001F225DC
:101BD000D96E010EF321DA6E010EDF6E2CEF0FF0DD
:101BE000020EEE19EF11D8A4F8EF0DF0FAEF0DF098
:101BF00013EF0EF0F50E206E000E216EBE0E226E5B
:101C0000010E236E97EC22F0000ED46E000ED36E00
:101C1000600E0001F225D96E010EF321DA6E020E7C
:101C2000DF6E2CEF0FF0030EEE19EF11D8A41BEFAF
:101C30000EF01DEF0EF036EF0EF0F50E206E000EDA
:101C4000216EBE0E226E010E236E12EC23F0000EEA
:101C5000D46E000ED36E600E0001F225D96E010E17
:101C6000F321DA6E030EDF6E2CEF0FF0040EEE1987
:101C7000EF11D8A43EEF0EF040EF0EF059EF0EF04A
:101C8000F50E206E000E216EBE0E226E010E236E2A
:101C900000EC21F0000ED46E000ED36E600E000139
:101CA000F225D96E010EF321DA6E040EDF6E2CEFF1
:101CB0000FF0050EEE19EF11D8A461EF0EF063EFEF
:101CC0000EF07CEF0EF0F50E206E000E216EBE0EB3
:101CD000226E010E236E0EEC25F0000ED46E000E67
:101CE000D36E600E0001F225D96E010EF321DA6E7B
:101CF000050EDF6E2CEF0FF0060EEE19EF11D8A4D3
:101D000084EF0EF086EF0EF09FEF0EF0F50E206ED2
:101D1000000E216EBE0E226E010E236EC0EC22F06C
:101D2000000ED46E000ED36E600E0001F225D96E47
:101D3000010EF321DA6E060EDF6E2CEF0FF0070EA8
:101D4000EE19EF11D8A4A7EF0EF0A9EF0EF0C2EF35
:101D50000EF0F50E206E000E216EBE0E226E010EEC
:101D6000236E3BEC23F0000ED46E000ED36E600E9B
:101D70000001F225D96E010EF321DA6E070EDF6E37
:101D80002CEF0FF00A0EEE19EF11D8A4CAEF0EF0E7
:101D9000CCEF0EF0D8EF0EF0F50E1A6E000E1B6EA3
:101DA000BE0E1C6E010E1D6ED1EC1FF02CEF0FF05D
:101DB000EE51EF11D8A4DFEF0EF0E1EF0EF007EFD8
:101DC0000FF0F50E206E000E216EBE0E226E010E7B
:101DD000236E00EC21F0D59E600E246E010E256E60
:101DE000000E266E020E276E50EC18F0F50E146EE3
:101DF000000E156EBE0E166E010E176E12EC20F060
:101E0000000E0001E76F000EE66F2CEF0FF02CEFD5
:101E10000FF0D3CFE4F00001E56B800E606F000E91
:101E2000616F010E626F0E0E636FC7C164F0C8C1AF
:101E300065F0C9C166F0CAC167F0CBC168F0CCC11A
:101E400069F0D4CF6AF06B6B6EEC22F0800E026EFC
:101E5000000E036E2DEC25F00001E651E711D8A429
:101E600034EF0FF036EF0FF0E8EF0CF007EF00F073
:101E70000450800B0D6E045004240F6E03AE43EF2C
:101E80000FF045EF0FF046EF0FF00F800F50D8B472
:101E90004CEF0FF04EEF0FF063EF0FF00F28D8A4C8
:101EA00054EF0FF056EF0FF05EEF0FF0000E016EE3
:101EB000000E026E000E036E000E046E038E000E06
:101EC000046E6BEF0FF0000E016E000E026E000E3E
:101ED000036E000E046E0850800B0E6E0D500E182F
:101EE000D8B475EF0FF077EF0FF078EF0FF00D8C9F
:101EF000085008240E6E07AE80EF0FF082EF0FF04F
:101F000083EF0FF00E800E50D8B489EF0FF08BEFF7
:101F10000FF0A0EF0FF00E28D8A491EF0FF093EF81
:101F20000FF09BEF0FF0000E056E000E066E000E18
:101F3000076E000E086E078E000E086EA8EF0FF0F9
:101F4000000E056E000E066E000E076E000E086E87
:101F50000F500E5CD8B0AFEF0FF0B1EF0FF0D8EF2D
:101F60000FF00DACB6EF0FF0B8EF0FF0BAEF0FF0C7
:101F7000800E0D1A0FC010F00EC00FF010C00EF042
:101F800001C010F005C001F010C005F002C010F053
:101F900006C002F010C006F003C010F007C003F046
:101FA00010C007F004C010F008C004F010C008F022
:101FB000000E106E0F500EC009F00A6A095E000E86
:101FC0000A5A0ABEEDEF0FF00A5009E11A0E095C39
:101FD000D8A0EDEF0FF0EFEF0FF026EF10F001506B
:101FE000021003100410D8A4F8EF0FF0FBEF0FF06D
:101FF000010EFCEF0FF0000E106E000E016E000ED1
:10200000026E000E036E000E046E0EC00FF02FEF76
:1020100010F010A00EEF10F010EF10F016EF10F00F
:10202000D89010300109106E18EF10F0D8901032CF
:1020300001A01DEF10F01FEF10F020EF10F0108E38
:10204000043404320332023201320F2A0E500F5C84
:10205000D8A02DEF10F02FEF10F009EF10F00DBC0D
:1020600034EF10F036EF10F076EF10F00F50D8A4E8
:102070003CEF10F03EEF10F048EF10F0000E016E54
:10208000000E026E000E036E000E046E97EF11F04C
:102090000550012606500222075003220850042250
:1020A00004A055EF10F057EF10F003EF11F010A05F
:1020B0005CEF10F05EEF10F064EF10F0D89010308D
:1020C0000109106E66EF10F0D890103201A06BEF8E
:1020D00010F06DEF10F06EEF10F0108E043404323B
:1020E0000332023201320F2A03EF11F00550015C76
:1020F00006500258075003580450800A096E0850D1
:10210000800A0958D8B087EF10F089EF10F0B4EFCB
:1021100010F00150055C096E025006580A6E03501B
:1021200007580B6E045008580C6EFF0E0924016E00
:10213000FF0E0A20026EFF0E0B20036EFF0E0C2016
:10214000046E800E0D1A106C1050D8A4AAEF10F077
:10215000ACEF10F0BCEF10F0010E0126000E0222D1
:1021600003220422BCEF10F00550015E0650025A13
:102170000750035A0850045A01500210031004106B
:10218000D8A4C5EF10F0C7EF10F0FCEF10F010501E
:10219000D8A4CDEF10F0CFEF10F0FCEF10F0000E50
:1021A000016E000E026E000E036E000E046E97EFBD
:1021B00011F0D890013602360336043610AEE3EF44
:1021C00010F0E5EF10F0E6EF10F0018010A0EBEF5B
:1021D00010F0EDEF10F0F1EF10F0D8801036F3EFC3
:1021E00010F0D89010360F50D8B4F9EF10F0FBEF84
:1021F00010F0FCEF10F00F0603AE01EF11F003EF4B
:1022000011F0D9EF10F0000E0E6E10AE0AEF11F0C3
:102210000CEF11F024EF11F010C009F07F0E091639
:10222000D8B415EF11F017EF11F01BEF11F0010EFC
:102230000E6E24EF11F001A020EF11F022EF11F04B
:1022400024EF11F017EF11F00E50D8B42AEF11F06F
:102250002CEF11F057EF11F0010E0126000E0222B3
:102260000322042204A037EF11F039EF11F057EFE9
:1022700011F001C009F002C00AF003C00BF004C065
:102280000CF00C340C320B320A32093209C001F066
:102290000AC002F00BC003F00CC004F00F28D8B441
:1022A00054EF11F056EF11F057EF11F00F2A0F28ED
:1022B000D8B45DEF11F05FEF11F067EF11F00F5040
:1022C000D8A465EF11F067EF11F079EF11F0000E6F
:1022D000016E000E026E000E036E000E046E0F50B3
:1022E000D8A475EF11F077EF11F079EF11F0000E2F
:1022F0000D6E0FA07EEF11F080EF11F083EF11F063
:10230000038E84EF11F0039ED8900F30046E0DAE53
:102310008CEF11F08EEF11F08FEF11F0048E01C0F1
:1023200001F002C002F003C003F004C004F0120088
:102330003550800B3E6E35503524446E34AEA3EFDD
:1023400011F0A5EF11F0A6EF11F044804450D8B47D
:10235000ACEF11F0AEEF11F0C1EF11F04428D8A4AA
:10236000B4EF11F0B6EF11F0BEEF11F0000E326EC7
:10237000000E336E000E346E000E356E348EC9EFD3
:1023800011F0000E326E000E336E000E346E000E31
:10239000356E3950800B3E1A39503924436E38AEB1
:1023A000D4EF11F0D6EF11F0D7EF11F04380435086
:1023B000D8B4DDEF11F0DFEF11F0F2EF11F04328A8
:1023C000D8A4E5EF11F0E7EF11F0EFEF11F0000EF8
:1023D000366E000E376E000E386E000E396E388E77
:1023E000FAEF11F0000E366E000E376E000E386EEA
:1023F000000E396E4350D8B400EF12F002EF12F025
:102400000AEF12F04450D8A408EF12F00AEF12F0CD
:1024100014EF12F0000E326E000E336E000E346EAA
:10242000000E356EACEF13F038503202F3CF49F0A6
:10243000F4CF4AF049503F6E406A416A426A4A50BE
:10244000456E466A476A486A37503302F3CF49F00F
:10245000F4CF4AF049503F26000E4022412242224A
:102460004A504526000E4622472248223650340262
:10247000F3CF49F0F4CF4AF049503F26000E4022F6
:10248000412242224A504526000E46224722482237
:1024900041C042F040C041F03FC040F03F6A36507A
:1024A0003302F3CF49F0F4CF4AF049503F264A5067
:1024B0004022000E4122000E422237503202F3CF5A
:1024C00049F0F4CF4AF049503F264A504022000ECE
:1024D0004122000E422241C042F040C041F03FC0C4
:1024E00040F03F6A36503202F3CF49F0F4CF4AF061
:1024F00049503F264A504022000E4122000E4222FF
:1025000038503302F3CF49F0F4CF4AF04950452612
:102510004A504622000E4722000E4822375034020D
:10252000F3CF49F0F4CF4AF0495045264A504622AD
:10253000000E4722000E482238503402F3CF49F0F3
:10254000F4CF4AF049503A6E4A503B6E3C6A3D6ABD
:102550003CC03DF03BC03CF03AC03BF03A6A3A50D8
:1025600045263B5046223C5047223D5048223FC022
:102570003AF040C03BF041C03CF042C03DF0190E83
:10258000C7EF12F0D8903D323C323B323A32E82E5F
:10259000C2EF12F03A5045263B5046223C504722AB
:1025A0003D50482241C042F040C041F03FC040F0A1
:1025B0003F6A435044C03AF03B6A3A26000E3B2241
:1025C000820E3A24496EFF0E3B204A6EFDEF12F058
:1025D000D890453646364736483642AEF2EF12F0CE
:1025E000F4EF12F0F5EF12F04580D8903F36403608
:1025F000413642364906D8A04A0647AE02EF13F0EC
:1026000004EF13F0E8EF12F0000E436E42AE0BEF52
:1026100013F00DEF13F031EF13F0FF0E3F143A6E8D
:10262000FF0E40143B6EFF0E41143C6E7F0E4214B1
:102630003D6E3A503B103C103D10D8B422EF13F0E1
:1026400024EF13F028EF13F0010E436E31EF13F077
:1026500045A02DEF13F02FEF13F031EF13F024EF1F
:1026600013F04350D8B437EF13F039EF13F05DEFA8
:1026700013F0010E4526000E46224722482248A0AC
:1026800044EF13F046EF13F05DEF13F045C03AF05E
:1026900046C03BF047C03CF048C03DF03D343D32C1
:1026A0003C323B323A323AC045F03BC046F03CC087
:1026B00047F03DC048F0494A4A2A4ABE68EF13F045
:1026C0004A5008E14928D8A068EF13F06AEF13F0E8
:1026D00074EF13F0000E456E000E466E800E476ECE
:1026E0007F0E486EA2EF13F04ABE81EF13F04A50FE
:1026F00006E14904D8B07FEF13F081EF13F08DEFBE
:1027000013F0000E456E000E466E000E476E000E72
:10271000486E000E3E6EA2EF13F049C044F0FF0E6B
:102720004516FF0E46167F0E4716000E481644A0AB
:102730009CEF13F09EEF13F09FEF13F0478ED890AD
:102740004430486E3E50481245C032F046C033F027
:1027500047C034F048C035F012001C50800B296E81
:102760001C501C24306E1BAEB8EF13F0BAEF13F000
:10277000BBEF13F030803050D8B4C1EF13F0C3EF8B
:1027800013F0D8EF13F03028D8A4C9EF13F0CBEF33
:1027900013F0D3EF13F0000E196E000E1A6E000E38
:1027A0001B6E000E1C6E1B8E000E1C6EE0EF13F0F5
:1027B000000E196E000E1A6E000E1B6E000E1C6EBF
:1027C0002050800B291A20502024316E1FAEEBEFD1
:1027D00013F0EDEF13F0EEEF13F031803150D8B479
:1027E000F4EF13F0F6EF13F00BEF14F03128D8A448
:1027F000FCEF13F0FEEF13F006EF14F0000E1D6E69
:10280000000E1E6E000E1F6E000E206E1F8E000E3C
:10281000206E13EF14F0000E1D6E000E1E6E000EE3
:102820001F6E000E206E1D501E101F102010D8A409
:102830001CEF14F01EEF14F036EF14F0000E196EBA
:10284000000E1A6E000E1B6E000E1C6E800E1B1208
:102850007F0E1C1229501C1219C019F01AC01AF050
:102860001BC01BF01CC01CF079EF15F03050D8A431
:102870003CEF14F03EEF14F048EF14F0000E196E28
:10288000000E1A6E000E1B6E000E1C6E79EF15F016
:10289000315030C021F0226A215E000E225A7F0E94
:1028A00021242A6E000E22202B6E19C025F01AC09A
:1028B00026F01BC027F01CC028F0000E196E000E79
:1028C0001A6E000E1B6E000E1C6E000E2C6E000E9B
:1028D0002D6E000E2E6E000E2F6E000E316EA9EFC3
:1028E00014F03150D8B477EF14F079EF14F090EF82
:1028F00014F0D8902536263627362836D890193643
:102900001A361B361C362FAE88EF14F08AEF14F0FF
:102910008BEF14F01980D8902C362D362E362F36AA
:102920001D50255C1E5026581F50275820502858EF
:10293000D8A09DEF14F09FEF14F0A8EF14F02F8CA7
:102940001D50255E1E50265A1F50275A2050285AC7
:10295000312A190E3164AFEF14F0B1EF14F071EFBA
:1029600014F02550261027102810D8B4BAEF14F010
:10297000BCEF14F0D4EF14F02C80D4EF14F0D89006
:1029800019361A361B361C362FAEC9EF14F0CBEFB2
:1029900014F0CCEF14F01980D8902C362D362E364A
:1029A0002F362A06D8A02B061BAED9EF14F0DBEF8A
:1029B00014F0BFEF14F0000E316E2FAEE2EF14F002
:1029C000E4EF14F008EF15F0FF0E2C14216EFF0E4B
:1029D0002D14226EFF0E2E14236E7F0E2F14246EE4
:1029E0002150221023102410D8B4F9EF14F0FBEF7B
:1029F00014F0FFEF14F0010E316E08EF15F019A07E
:102A000004EF15F006EF15F008EF15F0FBEF14F0EA
:102A10003150D8B40EEF15F010EF15F034EF15F07B
:102A2000010E1926000E1A221B221C221CA01BEFCD
:102A300015F01DEF15F034EF15F019C021F01AC094
:102A400022F01BC023F01CC024F024342432233293
:102A50002232213221C019F022C01AF023C01BF00B
:102A600024C01CF02A4A2B2A2BBE3FEF15F02B5016
:102A700008E12A28D8A03FEF15F041EF15F04CEF00
:102A800015F0000E2B6E2A68000E196E000E1A6EDD
:102A9000000E1B6E000E1C6E2BBE59EF15F02B5056
:102AA00006E12A04D8B057EF15F059EF15F067EF9B
:102AB00015F0000E2B6E000E2A6E000E196E000E21
:102AC0001A6E000E1B6E000E1C6E000E296E2AC0C0
:102AD00030F030A06EEF15F070EF15F073EF15F0D9
:102AE0001B8E74EF15F01B9ED89030301C6E2AEFB1
:102AF00014F0120032C0D9FF33C0DAFFDECF01F08C
:102B0000DDCF02F0000E02BEFF0E036E046E010E5A
:102B100067EC19F001C042F002C043F003C044F07A
:102B200004C045F020EE02F03250D9263350DA22AC
:102B3000DECF01F0DDCF02F0000E02BEFF0E036E0D
:102B4000046E010E67EC19F001C046F002C047F0B8
:102B500003C048F004C049F020EE04F03250D926FA
:102B60003350DA22DECF01F0DDCF02F0000E02BEDC
:102B7000FF0E036E046E010E67EC19F001C04AF0FF
:102B800002C04BF003C04CF004C04DF020EE06F044
:102B90003250D9263350DA22DECF01F0DDCF02F0F9
:102BA000000E02BEFF0E036E046E010E67EC19F0FC
:102BB00001C036F002C037F003C038F004C039F06D
:102BC00046C005F047C006F048C007F049C008F00D
:102BD00042C001F043C002F044C003F045C004F01D
:102BE00038EC0FF001C03AF002C03BF003C03CF0FB
:102BF00004C03DF04AC005F04BC006F04CC007F0E1
:102C00004DC008F03AC001F03BC002F03CC003F0F8
:102C10003DC004F038EC0FF001C03EF002C03FF0C0
:102C200003C040F004C041F042C019F043C01AF0A4
:102C300044C01BF045C01CF036C005F037C006F09C
:102C400038C007F039C008F03EC001F03FC002F0C4
:102C500040C003F041C004F038EC0FF001C01DF09B
:102C600002C01EF003C01FF004C020F0ADEC13F052
:102C700034C0D9FF35C0DAFF19C0DEFF1AC0DEFF4D
:102C80001BC0DEFF1CC0DEFF46C005F047C006F0DB
:102C900048C007F049C008F042C001F043C002F04C
:102CA00044C003F045C004F038EC0FF001C03AF026
:102CB00002C03BF003C03CF004C03DF04AC005F048
:102CC0004BC006F04CC007F04DC008F03AC001F010
:102CD0003BC002F03CC003F03DC004F038EC0FF004
:102CE00001C03EF002C03FF003C040F004C041F01C
:102CF0004AC019F04BC01AF04CC01BF04DC01CF07C
:102D000036C005F037C006F038C007F039C008F00B
:102D10003EC001F03FC002F040C003F041C004F0EB
:102D200038EC0FF001C01DF002C01EF003C01FF010
:102D300004C020F0ADEC13F020EE08F03450D9269A
:102D40003550DA2219C0DEFF1AC0DEFF1BC0DEFFDD
:102D50001CC0DEFF46C005F047C006F048C007F0C3
:102D600049C008F042C001F043C002F044C003F083
:102D700045C004F038EC0FF001C03AF002C03BF05F
:102D800003C03CF004C03DF04AC005F04BC006F063
:102D90004CC007F04DC008F03AC001F03BC002F053
:102DA0003CC003F03DC004F038EC0FF001C03EF031
:102DB00002C03FF003C040F004C041F046C019F02B
:102DC00047C01AF048C01BF049C01CF036C005F0DF
:102DD00037C006F038C007F039C008F03EC001F037
:102DE0003FC002F040C003F041C004F038EC0FF0E7
:102DF00001C01DF002C01EF003C01FF004C020F08F
:102E0000ADEC13F020EE04F03450D9263550DA2220
:102E100019C0DEFF1AC0DEFF1BC0DEFF1CC0DEFFD4
:102E200012001EC034F01FC035F020C036F021C0A3
:102E300037F022C038F023C039F024C03AF025C062
:102E40003BF03BBE26EF17F029EF17F0010E2AEFFB
:102E500017F0000E3E6E3E50D8B431EF17F033EF4E
:102E600017F043EF17F03B1E3A1E391E381E371E6F
:102E7000361E351E346C000E35223622372238229B
:102E800039223A223B220001F1BF51EF17F0F151F4
:102E900006E1F005D8B04FEF17F051EF17F057EFFC
:102EA00017F0000E316E010E306E5BEF17F0F0C0C0
:102EB00030F0F1C031F05CC132F05DC133F03E5012
:102EC000D8B465EF17F067EF17F07EEF17F0320612
:102ED000D8A033063E50D8A470EF17F072EF17F069
:102EE00078EF17F0000E2F6E2B0E2E6E7CEF17F082
:102EF000000E2F6E2D0E2E6E2EC03EF0000E3D6E7B
:102F00001F0E3C6E000E0101B16F03EF18F03C067E
:102F1000D8A03D06920E3C24D96E010E3D20DA6EFB
:102F200034C001F035C002F036C003F037C004F001
:102F300038C005F039C006F03AC007F03BC008F0D1
:102F40000A0E096E000E0A6E000E0B6E000E0C6E5D
:102F5000000E0D6E000E0E6E000E0F6E000E106E47
:102F6000BBEC1BF001C026F002C027F003C028F024
:102F700004C029F005C02AF006C02BF007C02CF0D1
:102F800008C02DF026C013F027C014F091EC24F0F7
:102F90001350300FDF6E3006D8A031063206D8A0AD
:102FA000330634C001F035C002F036C003F037C03C
:102FB00004F038C005F039C006F03AC007F03BC055
:102FC00008F00A0E096E000E0A6E000E0B6E000E5F
:102FD0000C6E000E0D6E000E0E6E000E0F6E000ECB
:102FE000106E41EC1AF001C034F002C035F003C09D
:102FF00036F004C037F005C038F006C039F007C01D
:103000003AF008C03BF03DBE0EEF18F03D5008E12D
:103010003C04D8A00EEF18F010EF18F02CEF18F0C9
:103020003450351036103710381039103A103B1024
:10303000D8A41DEF18F01FEF18F087EF17F031BE7E
:103040002CEF18F0315006E13004D8B02AEF18F018
:103050002CEF18F087EF17F03E50D8B432EF18F08D
:1030600034EF18F03FEF18F03C06D8A03D06920E62
:103070003C24D96E010E3D20DA6E3EC0DFFF1CC03D
:1030800011F01DC012F0920E3C24136E010E3D2073
:10309000146E32C015F033C016F051EC20F012005F
:1030A000F2C02DF0F3C02EF02EBE5BEF18F059EFFA
:1030B00018F05DEF18F066EF19F0000ED46E000EF8
:1030C000D36ED35070EF18F0F50E146E000E156E1F
:1030D000BE0E166E010E176EA0EC1EF061EF18F01A
:1030E000D8902D34D96E2E34DA6E2650D92627503A
:1030F000DA22D4502B6E2A6ADE502A5C2B50800ACA
:103100002C6EDE50800A2C58D8A089EF18F08BEF77
:1031100018F064EF18F02D502424D96E2E5025207D
:10312000DA6EDF50D8A497EF18F099EF18F0A5EFFA
:1031300018F0F50E1A6E000E1B6EBE0E1C6E010E00
:103140001D6E8FEC21F061EF19F02D502424D96E03
:103150002E502520DA6EDE04D8A4B1EF18F0B3EFBC
:1031600018F0BFEF18F0F50E206E000E216EBE0EA7
:10317000226E010E236E0EEC25F061EF19F02D503A
:103180002424D96E2E502520DA6E020EDE18D8A423
:10319000CCEF18F0CEEF18F0DAEF18F0F50E206E45
:1031A000000E216EBE0E226E010E236EC0EC22F0C8
:1031B00061EF19F02D502424D96E2E502520DA6E9F
:1031C000030EDE18D8A4E7EF18F0E9EF18F0F5EFDA
:1031D00018F0F50E206E000E216EBE0E226E010E4E
:1031E000236EB1EC24F061EF19F02D502424D96E38
:1031F0002E502520DA6E040EDE18D8A402EF19F046
:1032000004EF19F010EF19F0F50E206E000E216E8C
:10321000BE0E226E010E236E00EC21F061EF19F05C
:103220002D502424D96E2E502520DA6E050EDE187E
:10323000D8A41DEF19F01FEF19F02BEF19F0F50EC0
:10324000206E000E216EBE0E226E010E236EEFEC7C
:1032500024F061EF19F02D502424D96E2E50252032
:10326000DA6E060EDE18D8A438EF19F03AEF19F02E
:1032700046EF19F0F50E206E000E216EBE0E226E86
:10328000010E236E97EC22F061EF19F02D502424EB
:10329000D96E2E502520DA6E070EDE18D8A453EF13
:1032A00019F055EF19F061EF19F0F50E206E000ED0
:1032B000216EBE0E226E010E236ED0EC24F061EF63
:1032C00019F02D06D8A02E0654EF18F01200096E42
:1032D0000950D8B46EEF19F070EF19F092EF19F0B1
:1032E00004BE77EF19F075EF19F092EF19F001C0F5
:1032F00005F002C006F003C007F004C008F0051E88
:10330000061E071E081E052A000E06220722082296
:1033100005C00BF006C00CF007C00DF008C00EF0A1
:103320009AEF19F001C00BF002C00CF003C00DF0D1
:1033300004C00EF00150021003100410D8A4A3EF33
:1033400019F0A5EF19F0AFEF19F0000E016E000EA5
:10335000026E000E036E000E046E40EF1AF0960E21
:103360000A6EB9EF19F00A2AD8900E320D320C32DB
:103370000B32000E0B14056E000E0C14066E000EC0
:103380000D14076EFE0E0E14086E05500610071081
:103390000810D8A4CEEF19F0D0EF19F0B3EF19F060
:1033A000DEEF19F00A2A010E0B26000E0C220D2268
:1033B0000E22D8900E320D320C320B32000E0B144E
:1033C000056E000E0C14066E000E0D14076EFF0E37
:1033D0000E14086E0550061007100810D8A4F3EF5D
:1033E00019F0F5EF19F0D2EF19F0FDEF19F00A0618
:1033F000D8900B360C360D360E360DBE02EF1AF095
:1034000004EF1AF00CEF1AF0020E0A600AEF1AF03D
:103410000CEF1AF0F7EF19F00AB011EF1AF013EFF2
:103420001AF014EF1AF00D9ED8900A320AC005F077
:10343000066A076A086A05C008F0076A066A056A2C
:1034400005500B1206500C1207500D1208500E12A8
:103450000950D8B42EEF1AF030EF1AF038EF1AF006
:1034600004BE37EF1AF035EF1AF038EF1AF00E8E6F
:103470000BC001F00CC002F00DC003F00EC004F050
:103480001200000E126E10BE4AEF1AF048EF1AF04A
:103490005CEF1AF0101E0F1E0E1E0D1E0C1E0B1ED2
:1034A0000A1E096C000E0A220B220C220D220E228B
:1034B0000F221022010E126E08BE63EF1AF061EFA8
:1034C0001AF075EF1AF0081E071E061E051E041ED0
:1034D000031E021E016C000E02220322042205229A
:1034E000062207220822010E121A20EE13F0070E00
:1034F000DE6AE806FDE209500A100B100C100D10F0
:103500000E100F101010D8B488EF1AF08AEF1AF0CE
:10351000DCEF1AF0010E116E98EF1AF0D890093610
:103520000A360B360C360D360E360F361036112A8B
:1035300010AE9DEF1AF09FEF1AF08EEF1AF0D890B0
:1035400013361436153616361736183619361A3617
:103550000950015C0A5002580B5003580C50045893
:103560000D5005580E5006580F5007581050085867
:10357000D8A0BDEF1AF0BFEF1AF0D0EF1AF0095043
:10358000015E0A50025A0B50035A0C50045A0D5057
:10359000055A0E50065A0F50075A1050085A1380F9
:1035A000D89010320F320E320D320C320B320A32FA
:1035B0000932112E9FEF1AF01250D8B4E2EF1AF030
:1035C000E4EF1AF0F4EF1AF01A1E191E181E171E57
:1035D000161E151E141E136C000E14221522162220
:1035E0001722182219221A2213C001F014C002F067
:1035F00015C003F016C004F017C005F018C006F09F
:1036000019C007F01AC008F0120020EE02F00E50A8
:10361000D9260F50DA22DF50D8B411EF1BF013EF88
:103620001BF047EF1BF00EC0D9FF0FC0DAFFDF50D1
:10363000106E1050016E026A20EE03F00E50D92673
:103640000F50DA22DECF03F0DDCF04F06EEC25F070
:1036500001C007F002C008F0000E0A6E640E096E89
:103660008EEC20F020EE03F00E50D9260F50DA2217
:10367000DF50116E0750115C126E20EE03F00E50F9
:10368000D9260F50DA22DF50136E6AEF1BF0000EBE
:10369000126E0EC0D9FF0FC0DAFFDF50106E10504F
:1036A000016E026A20EE03F00E50D9260F50DA2286
:1036B000DECF03F0DDCF04F06EEC25F001C007F0A3
:1036C00002C008F0000E0A6E640E096E8EEC20F047
:1036D0000750136E20EE01F00E50D9260F50DA225B
:1036E000DF50D8B476EF1BF078EF1BF09AEF1BF0A9
:1036F00020EE05F00E50D9260F50DA22DECF10F062
:10370000DDCF11F010C0D9FF11C0DAFF13C0DFFF09
:1037100020EE07F00E50D9260F50DA22DECF10F03F
:10372000DDCF11F010C0D9FF11C0DAFF12C0DFFFEA
:10373000BAEF1BF020EE05F00E50D9260F50DA221A
:10374000DECF10F0DDCF11F010C0D9FF11C0DAFFCD
:1037500012C0DFFF20EE07F00E50D9260F50DA22FC
:10376000DECF10F0DDCF11F010C0D9FF11C0DAFFAD
:1037700013C0DFFF1200000E126E08BEC4EF1BF074
:10378000C2EF1BF0D6EF1BF0081E071E061E051E1B
:10379000041E031E021E016C000E022203220422DC
:1037A0000522062207220822010E126E10BEDDEF4E
:1037B0001BF0DBEF1BF0EDEF1BF0101E0F1E0E1EBB
:1037C0000D1E0C1E0B1E0A1E096C000E0A220B2277
:1037D0000C220D220E220F22102209500A100B106B
:1037E0000C100D100E100F101010D8B4FAEF1BF0C3
:1037F000FCEF1BF044EF1CF0010E116E0AEF1CF001
:10380000D89009360A360B360C360D360E360F3682
:103810001036112A10AE0FEF1CF011EF1CF000EF64
:103820001CF00950015C0A5002580B5003580C5010
:1038300004580D5005580E5006580F500758105098
:103840000858D8A026EF1CF028EF1CF038EF1CF029
:103850000950015E0A50025A0B50035A0C50045A88
:103860000D50055A0E50065A0F50075A1050085A5C
:10387000D89010320F320E320D320C320B320A3227
:103880000932112E11EF1CF01250D8B44AEF1CF07F
:103890004CEF1CF05CEF1CF0081E071E061E051EF8
:1038A000041E031E021E016C000E022203220422CB
:1038B000052206220722082201C001F002C002F000
:1038C00003C003F004C004F005C005F006C006F014
:1038D00007C007F008C008F0120041C0D9FF42C07D
:1038E000DAFFDECFF6FFDDCFF7FF0800F550250A3F
:1038F000D8A47DEF1CF07FEF1CF000EF1DF041C05D
:10390000D9FF42C0DAFFDE2A000EDD22000E0101DF
:103910005D6F000E5C6F5CC1F4F00001F069F1694D
:1039200041C0D9FF42C0DAFFDECF4FF0DDCF50F00B
:103930004FC0F6FF50C0F7FF0800F550640AD8B436
:10394000A4EF1CF0A6EF1CF0B4EF1CF04FC0F6FF84
:1039500050C0F7FF0800F550690AD8A4B2EF1CF078
:10396000B4EF1CF0F7EF1CF043C0D9FF44C0DAFFFE
:10397000DFCF45F0020EDE26DFCF46F0000EDD225F
:1039800045C0D9FF46C0DAFFDECF47F0DDCF48F0B3
:10399000000E48BEFF0E496E4A6E4B6E4C6E4D6E69
:1039A0004E6E010E4F24456E000E5020466E41C0F3
:1039B000D9FF42C0DAFF45C0DEFF46C0DDFF3FC091
:1039C0001CF040C01DF047C01EF048C01FF049C0A9
:1039D00020F04AC021F04BC022F04CC023F04DC073
:1039E00024F04EC025F011EC17F014EF1DF041C08B
:1039F000D9FF42C0DAFFDE2A000EDD2214EF1DF0EF
:103A000041C0D9FF42C0DAFFDECFF6FFDDCFF7FFBE
:103A10000800F550016E026A3FC003F040C004F098
:103A200097EC1DF0F7EF1CF01200000E0114096E68
:103A3000000E02140A6E800E03140B6E7F0E041427
:103A40000C6E09500A100B100C10D8A42AEF1DF0B0
:103A50002CEF1DF034EF1DF0000E016E000E026E13
:103A6000000E036E000E046E000E0514096E000EAB
:103A700006140A6E800E07140B6E7F0E08140C6E6F
:103A800009500A100B100C10D8A449EF1DF04BEF91
:103A90001DF053EF1DF0000E056E000E066E000EB9
:103AA000076E000E086E04AE58EF1DF05AEF1DF0C1
:103AB00063EF1DF0016C021ED8B0022A031ED8B0BD
:103AC000032A800E045608AE68EF1DF06AEF1DF061
:103AD00073EF1DF0056C061ED8B0062A071ED8B07D
:103AE000072A800E0856000E011A000E021A000E58
:103AF000031A800E041A000E051A000E061A000E94
:103B0000071A800E081A0550015C0650025807502B
:103B1000035808500458D8B090EF1DF092EF1DF0F4
:103B200095EF1DF0D89096EF1DF0D880120003504D
:103B30000410D8B49EEF1DF0A0EF1DF0A9EF1DF00A
:103B400003500410D8A4A7EF1DF0A9EF1DF0AEEFAD
:103B50001DF00150D4EC25F0FBEF1DF020EE09F034
:103B60000350D9260450DA22DE50DE10D8B4BBEF61
:103B70001DF0BDEF1DF0D8EF1DF020EE09F0035051
:103B8000D9260450DA2210EE03F00350E126045047
:103B9000E222DE50E65CE650800A096EDE50800AC2
:103BA0000958D8B0D6EF1DF0D8EF1DF0FBEF1DF08F
:103BB00020EE03F00350D9260450DA22DECF05F0C0
:103BC000DDCF06F003C0D9FF04C0DAFFDECF07F077
:103BD000DDCF08F005500724D96E06500820DA6EB4
:103BE00001C0DFFF20EE03F00350D9260450DA2293
:103BF000DE2A000EDD221200000E1914216E000EC6
:103C00001A14226E800E1B14236E7F0E1C14246E59
:103C10002150221023102410D8A411EF1EF013EF0E
:103C20001EF01BEF1EF0000E196E000E1A6E000E35
:103C30001B6E000E1C6E000E1D14216E000E1E1455
:103C4000226E800E1F14236E7F0E2014246E2150CE
:103C5000221023102410D8A430EF1EF032EF1EF0F3
:103C60003AEF1EF0000E1D6E000E1E6E000E1F6E4F
:103C7000000E206E1D5019180FE11E501A180CE18D
:103C80001F501B1809E120501C18D8B44AEF1EF031
:103C90004CEF1EF04FEF1EF0D89050EF1EF0D88082
:103CA000120020EE01F01450D9261550DA22010E30
:103CB000DF6E20EE01F01650D9261750DA22000EE2
:103CC000DF6E87EF1EF014C0D9FF15C0DAFF0A0EB1
:103CD000DF2616C0D9FF17C0DAFF0A0EDF2614C090
:103CE0000EF015C00FF005EC1BF016C00EF017C05B
:103CF0000FF005EC1BF0020E196EA00E186E920E5E
:103D0000E82EFED7182EFCD7192EFAD700D014C0F3
:103D1000D9FF15C0DAFF320EDF6091EF1EF093EF8E
:103D20001EF09FEF1EF016C0D9FF17C0DAFF310E4C
:103D3000DF649DEF1EF09FEF1EF063EF1EF0120098
:103D400020EE01F01450D9261550DA22010EDF6E54
:103D500020EE01F01650D9261750DA22010EDF6E40
:103D6000D6EF1EF014C0D9FF15C0DAFF0A0EDF2609
:103D700016C0D9FF17C0DAFF0A0EDF2614C00EF0F6
:103D800015C00FF005EC1BF016C00EF017C00FF0B9
:103D900005EC1BF0020E196EA00E186E920EE82EA6
:103DA000FED7182EFCD7192EFAD700D014C0D9FF91
:103DB00015C0DAFF320EDF60E0EF1EF0E2EF1EF01A
:103DC000EEEF1EF016C0D9FF17C0DAFF310EDF6428
:103DD000ECEF1EF0EEEF1EF0B2EF1EF0120020EE40
:103DE00001F01450D9261550DA22000EDF6E20EEB5
:103DF00001F01650D9261750DA22010EDF6E25EF9A
:103E00001FF014C0D9FF15C0DAFF0A0EDF2616C056
:103E1000D9FF17C0DAFF0A0EDF2614C00EF015C056
:103E20000FF005EC1BF016C00EF017C00FF005ECFC
:103E30001BF0020E196EA00E186E920EE82EFED721
:103E4000182EFCD7192EFAD700D014C0D9FF15C0F0
:103E5000DAFF320EDF602FEF1FF031EF1FF03DEF82
:103E60001FF016C0D9FF17C0DAFF310EDF643BEF39
:103E70001FF03DEF1FF001EF1FF0120020EE01F0E8
:103E80001450D9261550DA22000EDF6E20EE01F014
:103E90001650D9261750DA22000EDF6E74EF1FF08D
:103EA00014C0D9FF15C0DAFF0A0EDF2616C0D9FFED
:103EB00017C0DAFF0A0EDF2614C00EF015C00FF08F
:103EC00005EC1BF016C00EF017C00FF005EC1BF050
:103ED000020E196EA00E186E920EE82EFED7182E46
:103EE000FCD7192EFAD700D014C0D9FF15C0DAFFBD
:103EF000320EDF607EEF1FF080EF1FF08CEF1FF0BF
:103F000016C0D9FF17C0DAFF310EDF648AEF1FF049
:103F10008CEF1FF050EF1FF01200050E0E01746FB2
:103F2000060E766F070E696F080E886F8594859868
:103F3000839E879CBD508F0B3009BD6EE00EBE1670
:103F4000BF50F00B0109BF6E01C0BCFFBD8E000E5B
:103F5000AA6E000EA66E000E0F01256F000E216FD7
:103F6000FC0EAD16F30EAD16CF0EAD163F0EAD1610
:103F7000AB88AB50F00B0C09AB6EAB8EA788A7508B
:103F8000F00B0C09A76EA78E26892651F00B0C09A1
:103F9000266F268F22892251F00B0C09226F228F67
:103FA00012001AC014F01BC015F01CC016F01DC082
:103FB00017F03EEC1FF0290E1F6E960E1E6E7F0E40
:103FC000E82EFED71E2EFCD71F2EFAD700F0F50ED6
:103FD000146E000E156EBE0E166E010E176E12ECEC
:103FE00020F01AC014F01BC015F01CC016F01DC044
:103FF00017F0A0EC1EF0290E1F6E960E1E6E7F0E9F
:10400000E82EFED71E2EFCD71F2EFAD700F0F50E95
:10401000146E000E156EBE0E166E010E176E12ECAB
:1040200020F0120038EF20F014C0D9FF15C0DAFFDD
:104030000A0EDF5E16C0D9FF17C0DAFF0A0EDF5E78
:1040400014C00EF015C00FF005EC1BF016C00EF0FA
:1040500017C00FF005EC1BF0020E196EA00E186EC3
:10406000920EE82EFED7182EFCD7192EFAD700D0C4
:1040700014C0D9FF15C0DAFFDF50D8A442EF20F0FA
:1040800044EF20F014EF20F016C0D9FF17C0DAFF7C
:10409000DF50D8A44EEF20F050EF20F014EF20F0C6
:1040A000120016BE56EF20F058EF20F05EEF20F021
:1040B00015C01AF016C01BF062EF20F0000E1B6E48
:1040C000000E1A6E000E196E000E186E74EF20F0BE
:1040D000000E026E200E016E11C003F012C004F03B
:1040E00097EC1DF0184A192A1A50185C1950800ACA
:1040F000176E1B50800A1758D8A081EF20F083EF6D
:1041000020F068EF20F013C00AF014C00BF011C0CB
:104110000CF012C00DF04EEC24F01200000E0C6EEC
:10412000000E0B6E09500A10D8B499EF20F09BEFE7
:1041300020F0C3EF20F0010E0D6EA3EF20F0D89019
:1041400009360A360D2A0AAEA8EF20F0AAEF20F0B1
:104150009FEF20F0D8900B360C360950075C0A50C0
:104160000858D8A0B6EF20F0B8EF20F0BDEF20F04F
:104170000950075E0A50085A0B80D8900A3209325B
:104180000D2EAAEF20F00BC007F00CC008F01200B3
:10419000A20EF66E4B0EF76E000EF86E01EECFF02B
:1041A00010EE06F00900F5CFEEFFE550E150FAE120
:1041B000AC0EF66E4B0EF76E000EF86E0900F5CFE2
:1041C000FEF002EE00F0640EEE6AE806FDE101EE9C
:1041D00000F0CF0EEE6AE806FDE100EEF0F00E0E04
:1041E000EE6AE806FDE15E6A5D6A5C6A5B6A5F90A2
:1041F0005F92000EF86E0E0EF76E000181EF0CF06C
:10420000F50E1A6E000E1B6EBE0E1C6E010E1D6E9C
:10421000E9EC21F0F50E1A6E000E1B6EBE0E1C6E40
:10422000010E1D6E16EC22F0F50E1A6E000E1B6EBE
:10423000BE0E1C6E010E1D6E16EC22F0F50E1A6EEF
:10424000000E1B6EBE0E1C6E010E1D6E16EC22F0D3
:10425000F50E1A6E000E1B6EBE0E1C6E010E1D6E4C
:1042600016EC22F012008CEC23F00CC0D9FF0DC02C
:10427000DAFF05C0DEFF06C0DDFFDCEC23F020EE38
:1042800004F00C50D9260D50DA2205C0DEFF06C01E
:10429000DDFFB4EC23F020EE02F00C50D9260D50D7
:1042A000DA2205C0DEFF06C0DDFF64EC23F020EE5D
:1042B00006F00C50D9260D50DA2205C0DEFF06C0EC
:1042C000DDFF12001AC014F01BC015F01CC016F060
:1042D0001DC017F0A0EC1EF0520E1F6E2B0E1E6EAE
:1042E000000EE82EFED71E2EFCD71F2EFAD700D0C8
:1042F000F50E146E000E156EBE0E166E010E176EC4
:1043000012EC20F0520E1F6E2B0E1E6E000EE82EC9
:10431000FED71E2EFCD71F2EFAD700D012001AC0CF
:1043200014F01BC015F01CC016F01DC017F0A0EC57
:104330001EF0290E1F6E960E1E6E7F0EE82EFED703
:104340001E2EFCD71F2EFAD700F0F50E146E000EAD
:10435000156EBE0E166E010E176E12EC20F0520E88
:104360001F6E2B0E1E6E000EE82EFED71E2EFCD7E3
:104370001F2EFAD700D012001AC014F01BC015F07F
:104380001CC016F01DC017F03EEC1FF0520E1F6E41
:104390002B0E1E6E000EE82EFED71E2EFCD71F2EF3
:1043A000FAD700D0F50E146E000E156EBE0E166E06
:1043B000010E176E12EC20F0520E1F6E2B0E1E6EA9
:1043C000000EE82EFED71E2EFCD71F2EFAD700D0E7
:1043D00012001AC014F01BC015F01CC016F01DC04E
:1043E00017F03EEC1FF0110E1F6E3C0E1E6ECB0E32
:1043F000E82EFED71E2EFCD71F2EFAD700F0F50EA2
:10440000146E000E156EBE0E166E010E176E12ECB7
:1044100020F0520E1F6E2B0E1E6E000EE82EFED7E1
:104420001E2EFCD71F2EFAD700D012001AC014F08F
:104430001BC015F01CC016F01DC017F051EC1EF08B
:10444000120E1F6EDC0E1E6E600EE82EFED71E2EA4
:10445000FCD71F2EFAD7F50E146E000E156EBE0E89
:10446000166E010E176E12EC20F0520E1F6E2B0E00
:104470001E6E000EE82EFED71E2EFCD71F2EFAD77A
:1044800000D012001AC014F01BC015F01CC016F0AA
:104490001DC017F0EFEC1EF0120E1F6EDC0E1E6E2C
:1044A000600EE82EFED71E2EFCD71F2EFAD7F50E73
:1044B000146E000E156EBE0E166E010E176E12EC07
:1044C00020F0520E1F6E2B0E1E6E000EE82EFED731
:1044D0001E2EFCD71F2EFAD700D01200640E00014A
:1044E0006C6F000E6D6F60C06EF061C06FF0000EFB
:1044F000726F000E716F000E786F000E776F6E0E88
:10450000516E000E526E62C053F063C054F06C0ED8
:10451000556E000E566E04EC24F0000171516025BA
:10452000D96E72516121DA6E000EDF6E1200F50E47
:104530001A6E000E1B6EBE0E1C6E010E1D6EE9EC97
:1045400021F0F50E1A6E000E1B6EBE0E1C6E010ED3
:104550001D6E16EC22F0F50E1A6E000E1B6EBE0ECE
:104560001C6E010E1D6E16EC22F0F50E1A6E000E7A
:104570001B6EBE0E1C6E010E1D6E16EC22F012009C
:10458000F50E1A6E000E1B6EBE0E1C6E010E1D6E19
:10459000E9EC21F0F50E1A6E000E1B6EBE0E1C6EBD
:1045A000010E1D6E42EC22F0F50E1A6E000E1B6E0F
:1045B000BE0E1C6E010E1D6E42EC22F0F50E1A6E40
:1045C000000E1B6EBE0E1C6E010E1D6E42EC22F024
:1045D000120045EC25F0010E036E000E81EC25F073
:1045E0003F0E056E550EE82EFED7052EFCD700F0C7
:1045F000030E036E000E81EC25F0D50E036E010E46
:1046000081EC25F0000E036E0F0E81EC25F08792F1
:104610008198869E849684987F927E9E79987C96D7
:104620007C981200F50E1A6E000E1B6EBE0E1C6EEC
:10463000010E1D6EE9EC21F0F50E1A6E000E1B6ED8
:10464000BE0E1C6E010E1D6EBCEC21F0F50E1A6E36
:10465000000E1B6EBE0E1C6E010E1D6E16EC22F0BF
:10466000F50E1A6E000E1B6EBE0E1C6E010E1D6E38
:1046700016EC22F01200F50E1A6E000E1B6EBE0E26
:104680001C6E010E1D6EE9EC21F0F50E1A6E000E87
:104690001B6EBE0E1C6E010E1D6EBCEC21F0F50EE5
:1046A0001A6E000E1B6EBE0E1C6E010E1D6E42ECCD
:1046B00022F0F50E1A6E000E1B6EBE0E1C6E010E61
:1046C0001D6E42EC22F01200CCEC25F0520EBCEC38
:1046D00025F0B40EBCEC25F0C2EC25F0530EBCEC7A
:1046E00025F0010E70EC24F0076E07500A6E0B6A7D
:1046F000000E70EC24F0076E0750096E086A0A502D
:1047000008100A6E0B5009100B6EC7EC25F00AC09A
:1047100005F00BC006F01200CCEC25F0520EBCECFC
:1047200025F0B60EBCEC25F0C2EC25F0530EBCEC27
:1047300025F0010E70EC24F0076E07500A6E0B6A2C
:10474000000E70EC24F0076E0750096E086A0A50DC
:1047500008100A6E0B5009100B6EC7EC25F00AC04A
:1047600005F00BC006F01200CCEC25F0520EBCECAC
:1047700025F0B80EBCEC25F0C2EC25F0530EBCECD5
:1047800025F0010E70EC24F0076E07500A6E0B6ADC
:10479000000E70EC24F0076E0750096E086A0A508C
:1047A00008100A6E0B5009100B6EC7EC25F00AC0FA
:1047B00005F00BC006F01200CCEC25F0520EBCEC5C
:1047C00025F0BA0EBCEC25F0C2EC25F0530EBCEC83
:1047D00025F0010E70EC24F0076E07500A6E0B6A8C
:1047E000000E70EC24F0076E0750096E086A0A503C
:1047F00008100A6E0B5009100B6EC7EC25F00AC0AA
:1048000005F00BC006F0120053C057F054C058F02A
:1048100018EF24F051C03FF052C040F0570E416EE7
:10482000000E426E55C043F056C044F06DEC1CF0D3
:1048300057C0F6FF58C0F7FF0800F5500009D8A48C
:1048400024EF24F026EF24F00AEF24F0000E526E3D
:10485000000E516E1200000E151A000E161A000EF0
:10486000171A800E181A11C001F012C002F013C0FE
:1048700003F014C004F015C005F016C006F017C010
:1048800007F018C008F038EC0FF001C011F002C0BA
:1048900012F003C013F004C014F01200000E106EEA
:1048A000000E0F6E5FEF24F00EC001F0026A0CC024
:1048B00003F00DC004F097EC1DF00F4A102A0F50C2
:1048C0000A24D96E10500B20DA6EDF500E6E0E5097
:1048D000D8A46DEF24F06FEF24F054EF24F0120011
:1048E000036E5AEC25F00E01DA875AEC25F0D5CE8E
:1048F00004F05AEC25F00350D8B481EF24F085EF92
:1049000024F0026A022A86EF24F0026A023A024682
:104910000E01DA510218DF0B0218DA6FDA8904503F
:10492000120014BE9EEF24F0145006E11304D8B018
:104930009CEF24F09EEF24F0ACEF24F013C015F0B0
:1049400014C016F0151E161E154A162A15C013F0AF
:1049500016C014F0B0EF24F013C013F014C014F01C
:104960001200F50E1A6E000E1B6EBE0E1C6E010EAE
:104970001D6E42EC22F0F50E1A6E000E1B6EBE0E7E
:104980001C6E010E1D6E42EC22F0F50E1A6E000E2A
:104990001B6EBE0E1C6E010E1D6E62EC21F012002D
:1049A000F50E1A6E000E1B6EBE0E1C6E010E1D6EF5
:1049B00016EC22F0F50E1A6E000E1B6EBE0E1C6E6B
:1049C000010E1D6E16EC22F0F50E1A6E000E1B6E17
:1049D000BE0E1C6E010E1D6E62EC21F01200F50E73
:1049E0001A6E000E1B6EBE0E1C6E010E1D6EE9ECE3
:1049F00021F0F50E1A6E000E1B6EBE0E1C6E010E1F
:104A00001D6E16EC22F0F50E1A6E000E1B6EBE0E19
:104A10001C6E010E1D6E16EC22F01200F50E1A6EC1
:104A2000000E1B6EBE0E1C6E010E1D6EE9EC21F019
:104A3000F50E1A6E000E1B6EBE0E1C6E010E1D6E64
:104A400042EC22F0F50E1A6E000E1B6EBE0E1C6EAE
:104A5000010E1D6E42EC22F0120038EF25F002C06C
:104A6000D9FF03C0DAFFDF50B0EC25F0024A032A79
:104A700002C0D9FF03C0DAFFDF50D8A442EF25F00F
:104A800044EF25F02FEF25F012000E01D951F00B65
:104A90000809D96FD98B9F0ED66F848A848CA79B07
:104AA000A79D1D0E1D6F1E0E1C6F1C0E6F6F1B0E23
:104AB000706F12000E01D8B560EF25F062EF25F09F
:104AC0005AEF25F0DACE01F01F0E0116D8A46BEFD5
:104AD00025F06DEF25F05AEF25F01200015003028A
:104AE000F3CF05F0F4CF06F001500402F350062690
:104AF00002500302F350062605C001F006C002F082
:104B00001200046ECCEC25F0520EBCEC25F00450E3
:104B10008009BCEC25F00350BCEC25F0C7EC25F077
:104B20001200D6501F0B4009D66ED688D650F00B17
:104B30000E09D66ED588000ED46E000ED36ED58EBB
:104B40001200120E0E01626F110E156FE997E895B3
:104B5000330EE56F000EE66FE789E88BE78F1200F2
:104B6000016E0E0137A5B7EF25F0B9EF25F0B1EFD3
:104B700025F001C0E4FE1200026E5AEC25F002C0DE
:104B8000D5FE12005AEC25F00E01DA8312005AEC21
:104B900025F00E01DA8512005AEC25F00E01DA81BB
:0D4BA0001200E803DC0032001200120001D8
:020000040020DA
:10000000FF0FFF0FFF0FFF0FFF0FFF0FFF0FFF0F80
:020000040030CA
:0C000000AAFFFFFF9FFFFFFFFFFFFFFFB5
:00000001FF
