:0400000007EF00F016
:0A0008005F825F9211009BEF20F071
:100E0000007265643D256420677265656E3D2564EA
:100E100020626C75653D25642074696D65723D25A1
:100E200064200D0A0000000E0001726F000E736F47
:100E3000000E746F000E756F000E766F500E776F98
:100E4000C30E786F470E796F000E656F040E646FE6
:100E500020EE66F00B0EDE6AE806FDE24BC0D9FF1D
:100E60004CC0DAFFDECF01F0DDCF02F0000E02BE93
:100E7000FF0E036E046E010E3AEC19F001C066F02D
:100E800002C067F003C068F004C069F020EE02F011
:100E90004B50D9264C50DA22DECF01F0DDCF02F0E4
:100EA000000E02BEFF0E036E046E010E3AEC19F046
:100EB00001C06AF002C06BF003C06CF004C06DF0BA
:100EC00020EE04F04B50D9264C50DA22DECF01F050
:100ED000DDCF02F0000E02BEFF0E036E046E010EA7
:100EE0003AEC19F001C06EF002C06FF003C070F070
:100EF00004C071F0000E00017B6F000E7A6F72C0AB
:100F000001F073C002F074C003F075C004F0660E07
:100F10004F6E000E506ED8907A35D96E7B35DA6EF2
:100F2000D890D936DA364F50D9265050DA22DECF53
:100F300005F0DECF06F0DECF07F0DECF08F0E8ECFC
:100F40001CF0D8B0A6EF07F0A8EF07F0C5EF07F048
:100F5000660E4F6E000E506ED89000017A35D96E35
:100F60007B35DA6ED890D936DA364F50D9265050C4
:100F7000DA22DECF72F0DECF73F0DECF74F0DECF98
:100F800075F07AC064F07BC065F0660E4F6E000E9F
:100F9000506ED89000017A35D96E7B35DA6ED890D4
:100FA000D936DA364F50D9265050DA22DECF01F04A
:100FB000DECF02F0DECF03F0DECF04F076C005F026
:100FC00077C006F078C007F079C008F0E8EC1CF0B4
:100FD000D8B0EDEF07F0EFEF07F008EF08F0660E7E
:100FE0004F6E000E506ED89000017A35D96E7B3569
:100FF000DA6ED890D936DA364F50D9265050DA22E8
:10100000DECF76F0DECF77F0DECF78F0DECF79F08E
:1010100000017A4B7B2B7BBF17EF08F07B5109E176
:10102000030E7A5DD8A017EF08F019EF08F07FEFF4
:1010300007F076C015F077C016F078C017F079C0C9
:1010400018F072C011F073C012F074C013F075C0C4
:1010500014F0FEEC23F011C019F012C01AF013C006
:101060001BF014C01CF0000E1D6E000E1E6E000E54
:101070001F6E000E206ECFEC1DF0D8A042EF08F0DE
:1010800044EF08F04AEF08F0000E4C6E000E4B6E75
:1010900080EF0CF0000164516511D8A452EF08F004
:1010A00054EF08F0C8EF08F076C015F077C016F0DE
:1010B00078C017F079C018F072C011F073C012F048
:1010C00074C013F075C014F0FEEC23F011C01DF0D5
:1010D00012C01EF013C01FF014C020F06EC015F037
:1010E0006FC016F070C017F071C018F06AC011F030
:1010F0006BC012F06CC013F06DC014F0FEEC23F066
:1011000011C019F012C01AF013C01BF014C01CF06B
:1011100080EC13F019C032F01AC033F01BC034F069
:101120001CC035F0000E366E000E376E700E386E35
:10113000420E396E6BEC11F032C07CF033C07DF0A2
:1011400034C07EF035C07FF000017FBFACEF08F007
:10115000AAEF08F0A7EF09F07CC001F07DC002F013
:101160007EC003F07FC004F0000E056E000E066E18
:10117000B40E076E430E086E0BEC0FF001C07CF04E
:1011800002C07DF003C07EF004C07FF0A7EF09F03D
:1011900064056511D8A4CFEF08F0D1EF08F03DEF5A
:1011A00009F076C015F077C016F078C017F079C056
:1011B00018F072C011F073C012F074C013F075C053
:1011C00014F0FEEC23F011C01DF012C01EF013C08D
:1011D0001FF014C020F066C015F067C016F068C09C
:1011E00017F069C018F06EC011F06FC012F070C037
:1011F00013F071C014F0FEEC23F011C019F012C00E
:101200001AF013C01BF014C01CF080EC13F019C0CE
:1012100060F01AC061F01BC062F01CC063F0000EE9
:10122000056E000E066E000E076E400E086E60C062
:1012300001F061C002F062C003F063C004F00BEC87
:101240000FF001C032F002C033F003C034F004C02C
:1012500035F0000E366E000E376E700E386E420E90
:10126000396E6BEC11F032C07CF033C07DF034C0CD
:101270007EF035C07FF0A7EF09F076C015F077C09B
:1012800016F078C017F079C018F072C011F073C072
:1012900012F074C013F075C014F0FEEC23F011C00E
:1012A0001DF012C01EF013C01FF014C020F06AC061
:1012B00015F06BC016F06CC017F06DC018F066C06A
:1012C00011F067C012F068C013F069C014F0FEECB2
:1012D00023F011C019F012C01AF013C01BF014C093
:1012E0001CF080EC13F019C060F01AC061F01BC054
:1012F00062F01CC063F0000E056E000E066E800EDC
:10130000076E400E086E60C001F061C002F062C05E
:1013100003F063C004F00BEC0FF001C032F002C028
:1013200033F003C034F004C035F0000E366E000E0A
:10133000376E700E386E420E396E6BEC11F032C0A3
:101340007CF033C07DF034C07EF035C07FF07CC0CF
:1013500001F07DC002F07EC003F07FC004F0000EFB
:10136000056E000E066EA50E076E430E086EE8ECC5
:101370001CF0D8A0BEEF09F0C0EF09F0DFEF09F0D4
:10138000000E016E000E026EB40E036E430E046E6C
:101390007CC005F07DC006F07EC007F07FC008F07D
:1013A000E8EC1CF0D8A0D7EF09F0D9EF09F0DFEF97
:1013B00009F0000E4C6E010E4B6E80EF0CF07CC0FD
:1013C00001F07DC002F07EC003F07FC004F0000E8B
:1013D000056E000E066EA00E076E400E086EE8EC5D
:1013E0001CF0D8A0F6EF09F0F8EF09F017EF0AF0BB
:1013F000000E016E000E026E400E036E410E046E72
:101400007CC005F07DC006F07EC007F07FC008F00C
:10141000E8EC1CF0D8A00FEF0AF011EF0AF017EF7C
:101420000AF0000E4C6E020E4B6E80EF0CF07CC08A
:1014300001F07DC002F07EC003F07FC004F0000E1A
:10144000056E000E066EA00E076E410E086EE8ECEB
:101450001CF0D8A02EEF0AF030EF0AF0B0EF0AF03F
:10146000000E016E000E026EE80E036E410E046E59
:101470007CC005F07DC006F07EC007F07FC008F09C
:10148000E8EC1CF0D8A047EF0AF049EF0AF0B0EF03
:101490000AF04DC0D9FF4EC0DAFFDECF01F0DECF3B
:1014A00002F0DECF03F0DECF04F0CD0E056ECC0EE1
:1014B000066E4C0E076E3E0E086EE8EC1CF0D8A0CF
:1014C00064EF0AF066EF0AF085EF0AF0000E016E95
:1014D000000E026E800E036E3E0E046E4DC0D9FFEC
:1014E0004EC0DAFFDECF05F0DECF06F0DECF07F02C
:1014F000DECF08F0E8EC1CF0D8A081EF0AF083EF13
:101500000AF085EF0AF044EF08F020EE08F04D50A5
:10151000D9264E50DA22DECF01F0DECF02F0DECF48
:1015200003F0DECF04F0290E056E5C0E066E0F0E82
:10153000076E3E0E086EE8EC1CF0D8A0A2EF0AF091
:10154000A4EF0AF0AAEF0AF0000E4C6E040E4B6EE8
:1015500080EF0CF0000E4C6E030E4B6E80EF0CF023
:101560007CC001F07DC002F07EC003F07FC004F0BB
:10157000000E056E000E066E340E076E420E086EEB
:10158000E8EC1CF0D8A0C7EF0AF0C9EF0AF02EEF84
:101590000BF0000E016E000E026EA00E036E420EE6
:1015A000046E7CC005F07DC006F07EC007F07FC0F1
:1015B00008F0E8EC1CF0D8A0E0EF0AF0E2EF0AF047
:1015C0002EEF0BF020EE08F04D50D9264E50DA22C7
:1015D000DECF01F0DECF02F0DECF03F0DECF04F08D
:1015E0009A0E056E990E066E190E076E3E0E086E67
:1015F000E8EC1CF0D8A0FFEF0AF001EF0BF003EFCE
:101600000BF0A4EF0AF020EE08F04D50D9264E5012
:10161000DA22DECF01F0DECF02F0DECF03F0DECF44
:1016200004F08F0E056EC20E066EF50E076E3D0EAF
:10163000086EE8EC1CF0D8A020EF0BF022EF0BF0C6
:1016400028EF0BF0000E4C6E060E4B6E80EF0CF088
:10165000000E4C6E050E4B6E80EF0CF07CC001F05E
:101660007DC002F07EC003F07FC004F0000E056E66
:10167000000E066EA20E076E420E086EE8EC1CF01D
:10168000D8A045EF0BF047EF0BF081EF0BF0000E09
:10169000016E000E026EE60E036E420E046E7CC0FA
:1016A00005F07DC006F07EC007F07FC008F0E8ECD2
:1016B0001CF0D8A05EEF0BF060EF0BF081EF0BF0A9
:1016C00020EE08F04D50D9264E50DA22DECF01F040
:1016D000DECF02F0DECF03F0DECF04F09A0E056E0F
:1016E000990E066E190E076E3E0E086EE8EC1CF0A1
:1016F000D8A07DEF0BF07FEF0BF022EF0BF0A4EF03
:101700000AF07CC001F07DC002F07EC003F07FC013
:1017100004F0000E056E000E066EF00E076E410E10
:10172000086EE8EC1CF0D8A098EF0BF09AEF0BF0E5
:10173000B3EF0BF0000E016E000E026E680E036E2A
:10174000420E046E7CC005F07DC006F07EC007F03E
:101750007FC008F0E8EC1CF0D8B0B1EF0BF0B3EFAD
:101760000BF0A4EF0AF07CC001F07DC002F07EC057
:1017700003F07FC004F0000E056E000E066EF00E42
:10178000076E420E086EE8EC1CF0D8A0CAEF0BF012
:10179000CCEF0BF0E7EF0BF0000E016E000E026EC7
:1017A0005C0E036E430E046E7CC005F07DC006F037
:1017B0007EC007F07FC008F0E8EC1CF0D8A0E3EF93
:1017C0000BF0E5EF0BF0E7EF0BF0A4EF0AF07CC0B5
:1017D00001F07DC002F07EC003F07FC004F0000E77
:1017E000056E000E066E600E076E410E086EE8EC88
:1017F0001CF0D8A0FEEF0BF000EF0CF07CEF0CF02B
:10180000000E016E000E026E980E036E410E046E05
:101810007CC005F07DC006F07EC007F07FC008F0F8
:10182000E8EC1CF0D8A017EF0CF019EF0CF07CEFEF
:101830000CF04DC0D9FF4EC0DAFFDECF01F0DECF95
:1018400002F0DECF03F0DECF04F0CD0E056ECC0E3D
:10185000066E4C0E076E3E0E086EE8EC1CF0D8A02B
:1018600034EF0CF036EF0CF055EF0CF01F0E016E5C
:10187000850E026E6B0E036E3E0E046E4DC0D9FFD8
:101880004EC0DAFFDECF05F0DECF06F0DECF07F088
:10189000DECF08F0E8EC1CF0D8A051EF0CF053EFCD
:1018A0000CF055EF0CF044EF08F020EE08F04D502E
:1018B000D9264E50DA22DECF01F0DECF02F0DECFA5
:1018C00003F0DECF04F09A0E056E990E066E190E27
:1018D000076E3E0E086EE8EC1CF0D8A072EF0CF01C
:1018E00074EF0CF076EF0CF0A4EF0AF0000E4C6EE3
:1018F000070E4B6E80EF0CF0000E4C6E0A0E4B6E16
:10190000120087EC25F0BBEC25F0BCEC22F018ECC3
:1019100025F077EC25F0000E026EC80E016E60EC2B
:101920001FF087928198869E86840E01B4957F82EF
:1019300079887E8E000E0001F56F010EF66F010EA4
:10194000F76FAA0EFA6F0F0EFB6FA60EFC6F0F0E4D
:10195000FD6F000EF96FC80EF86F000E0101BE6F2B
:10196000010EBF6F010EC06F250EC36F0F0EC46F47
:10197000210EC56F0F0EC66F000EC26FC80EC16F6D
:10198000000E0001EB6F000EEA6F000EEF6F000E0D
:10199000EE6F000EE96F010EE86FF269F3698EB425
:1019A000D4EF0CF0D6EF0CF0CFEF0CF0520E5A6ED5
:1019B0002B0E596E000EE82EFED7592EFCD75A2E4C
:1019C000FAD700D0000ED46E000ED36EFFEF0EF0EB
:1019D000F50E146E000E156EBE0E166E010E176E0D
:1019E00073EC1EF0C70E0C6E010E0D6E06EC21F0AE
:1019F000C70E326E010E336EB20E346E010E356EAE
:101A00004DEC15F00101CEBF0FEF0DF0F40ECD5DE2
:101A1000010ECE59D8A00FEF0DF011EF0DF0DCEF55
:101A20000EF0F50E1A6E000E1B6EBE0E1C6E010E31
:101A30001D6E62EC21F0F50E146E000E156EBE0EDA
:101A4000166E010E176EE5EC1FF0110E5A6E3C0E6D
:101A5000596ECB0EE82EFED7592EFCD75A2EFAD748
:101A600000F00001F24BF32B41EC25F06BEF0DF091
:101A7000C70E4B6E010E4C6EB20E4D6E010E4E6EC9
:101A800013EC07F04BC0ECF04CC0EDF00001EE5150
:101A9000EC1907E1EF51ED19D8A451EF0DF053EF18
:101AA0000DF057EF0DF0EA4BEB2B5BEF0DF0000E56
:101AB000EB6F000EEA6FECC0EEF0EDC0EFF0050E3C
:101AC0005A6E0F0E596EF10EE82EFED7592EFCD726
:101AD0005A2EFAD700F00001EBBF78EF0DF0EB5172
:101AE00009E1140EEA5DD8A078EF0DF07AEF0DF061
:101AF00038EF0DF0000EEB6F000EEA6FD3CFE4F07D
:101B0000E56B800E606F000E616F010E626F0E0E4E
:101B1000636FC7C164F0C8C165F0C9C166F0CAC1CE
:101B200067F0CBC168F0CCC169F0D4CF6AF06B6BC1
:101B300041EC22F0800E026E000E036E00EC25F0E8
:101B40000001EE05EF11D8A4A8EF0DF0AAEF0DF0FB
:101B5000C3EF0DF0F50E206E000E216EBE0E226E4C
:101B6000010E236EC2EC24F0000ED46E000ED36E74
:101B7000600E0001F225D96E010EF321DA6E010E1E
:101B8000DF6EFFEF0EF0020EEE19EF11D8A4CBEFCF
:101B90000DF0CDEF0DF0E6EF0DF0F50E206E000E1E
:101BA000216EBE0E226E010E236E6AEC22F0000E34
:101BB000D46E000ED36E600E0001F225D96E010EB8
:101BC000F321DA6E020EDF6EFFEF0EF0030EEE1958
:101BD000EF11D8A4EEEF0DF0F0EF0DF009EF0EF0DD
:101BE000F50E206E000E216EBE0E226E010E236ECB
:101BF000E5EC22F0000ED46E000ED36E600E0001F4
:101C0000F225D96E010EF321DA6E030EDF6EFFEFBF
:101C10000EF0040EEE19EF11D8A411EF0EF013EF31
:101C20000EF02CEF0EF0F50E206E000E216EBE0EA3
:101C3000226E010E236ED3EC20F0000ED46E000E47
:101C4000D36E600E0001F225D96E010EF321DA6E1B
:101C5000040EDF6EFFEF0EF0050EEE19EF11D8A4A3
:101C600034EF0EF036EF0EF04FEF0EF0F50E206E63
:101C7000000E216EBE0E226E010E236EE1EC24F0EA
:101C8000000ED46E000ED36E600E0001F225D96EE8
:101C9000010EF321DA6E050EDF6EFFEF0EF0060E79
:101CA000EE19EF11D8A457EF0EF059EF0EF072EFC6
:101CB0000EF0F50E206E000E216EBE0E226E010E8D
:101CC000236E93EC22F0000ED46E000ED36E600EE5
:101CD0000001F225D96E010EF321DA6E060EDF6ED9
:101CE000FFEF0EF0070EEE19EF11D8A47AEF0EF009
:101CF0007CEF0EF095EF0EF0F50E206E000E216ECB
:101D0000BE0E226E010E236E0EEC23F0000ED46E7A
:101D1000000ED36E600E0001F225D96E010EF32184
:101D2000DA6E070EDF6EFFEF0EF00A0EEE19EF11FE
:101D3000D8A49DEF0EF09FEF0EF0ABEF0EF0F50E76
:101D40001A6E000E1B6EBE0E1C6E010E1D6EA4ECF4
:101D50001FF0FFEF0EF0EE51EF11D8A4B2EF0EF02E
:101D6000B4EF0EF0DAEF0EF0F50E206E000E216EDD
:101D7000BE0E226E010E236ED3EC20F0D59E600EB7
:101D8000246E010E256E000E266E020E276E23ECC9
:101D900018F0F50E146E000E156EBE0E166E010EC6
:101DA000176EE5EC1FF0000E0001E96F000EE86F02
:101DB000FFEF0EF0FFEF0EF0D3CFE6F00001E76B80
:101DC000800E606F000E616F010E626F0E0E636F0A
:101DD000C7C164F0C8C165F0C9C166F0CAC167F087
:101DE000CBC168F0CCC169F0D4CF6AF06B6B41EC29
:101DF00022F0800E026E000E036E00EC25F0000152
:101E0000E851E911D8A407EF0FF009EF0FF0E8EF60
:101E10000CF007EF00F00450800B0D6E045004240A
:101E20000F6E03AE16EF0FF018EF0FF019EF0FF073
:101E30000F800F50D8B41FEF0FF021EF0FF036EFE7
:101E40000FF00F28D8A427EF0FF029EF0FF031EF94
:101E50000FF0000E016E000E026E000E036E000EFB
:101E6000046E038E000E046E3EEF0FF0000E016E46
:101E7000000E026E000E036E000E046E0850800B02
:101E80000E6E0D500E18D8B448EF0FF04AEF0FF059
:101E90004BEF0FF00D8C085008240E6E07AE53EF79
:101EA0000FF055EF0FF056EF0FF00E800E50D8B434
:101EB0005CEF0FF05EEF0FF073EF0FF00E28D8A479
:101EC00064EF0FF066EF0FF06EEF0FF0000E056E8F
:101ED000000E066E000E076E000E086E078E000ED6
:101EE000086E7BEF0FF0000E056E000E066E000E02
:101EF000076E000E086E0F500E5CD8B082EF0FF028
:101F000084EF0FF0ABEF0FF00DAC89EF0FF08BEF1C
:101F10000FF08DEF0FF0800E0D1A0FC010F00EC0F5
:101F20000FF010C00EF001C010F005C001F010C09D
:101F300005F002C010F006C002F010C006F003C0A9
:101F400010F007C003F010C007F004C010F008C084
:101F500004F010C008F0000E106E0F500EC009F013
:101F60000A6A095E000E0A5A0ABEC0EF0FF00A5054
:101F700009E11A0E095CD8A0C0EF0FF0C2EF0FF014
:101F8000F9EF0FF00150021003100410D8A4CBEFAA
:101F90000FF0CEEF0FF0010ECFEF0FF0000E106E2E
:101FA000000E016E000E026E000E036E000E046E37
:101FB0000EC00FF002EF10F010A0E1EF0FF0E3EF12
:101FC0000FF0E9EF0FF0D89010300109106EEBEF31
:101FD0000FF0D890103201A0F0EF0FF0F2EF0FF0F9
:101FE000F3EF0FF0108E0434043203320232013268
:101FF0000F2A0E500F5CD8A000EF10F002EF10F087
:10200000DCEF0FF00DBC07EF10F009EF10F049EF17
:1020100010F00F50D8A40FEF10F011EF10F01BEFDD
:1020200010F0000E016E000E026E000E036E000E28
:10203000046E6AEF11F00550012606500222075087
:1020400003220850042204A028EF10F02AEF10F019
:10205000D6EF10F010A02FEF10F031EF10F037EFA7
:1020600010F0D89010300109106E39EF10F0D890B0
:10207000103201A03EEF10F040EF10F041EF10F0F1
:10208000108E043404320332023201320F2AD6EFAA
:1020900010F00550015C06500258075003580450D8
:1020A000800A096E0850800A0958D8B05AEF10F01B
:1020B0005CEF10F087EF10F00150055C096E0250E4
:1020C00006580A6E035007580B6E045008580C6EE1
:1020D000FF0E0924016EFF0E0A20026EFF0E0B2078
:1020E000036EFF0E0C20046E800E0D1A106C105043
:1020F000D8A47DEF10F07FEF10F08FEF10F0010EFD
:102100000126000E0222032204228FEF10F0055058
:10211000015E0650025A0750035A0850045A0150F3
:10212000021003100410D8A498EF10F09AEF10F0EA
:10213000CFEF10F01050D8A4A0EF10F0A2EF10F0E5
:10214000CFEF10F0000E016E000E026E000E036E57
:10215000000E046E6AEF11F0D89001360236033695
:10216000043610AEB6EF10F0B8EF10F0B9EF10F083
:10217000018010A0BEEF10F0C0EF10F0C4EF10F01F
:10218000D8801036C6EF10F0D89010360F50D8B463
:10219000CCEF10F0CEEF10F0CFEF10F00F0603AE43
:1021A000D4EF10F0D6EF10F0ACEF10F0000E0E6E82
:1021B00010AEDDEF10F0DFEF10F0F7EF10F010C011
:1021C00009F07F0E0916D8B4E8EF10F0EAEF10F02E
:1021D000EEEF10F0010E0E6EF7EF10F001A0F3EF2E
:1021E00010F0F5EF10F0F7EF10F0EAEF10F00E50EE
:1021F000D8B4FDEF10F0FFEF10F02AEF11F0010E50
:102200000126000E02220322042204A00AEF11F08C
:102210000CEF11F02AEF11F001C009F002C00AF032
:1022200003C00BF004C00CF00C340C320B320A3239
:10223000093209C001F00AC002F00BC003F00CC063
:1022400004F00F28D8B427EF11F029EF11F02AEF8E
:1022500011F00F2A0F28D8B430EF11F032EF11F03F
:102260003AEF11F00F50D8A438EF11F03AEF11F017
:102270004CEF11F0000E016E000E026E000E036EA8
:10228000000E046E0F50D8A448EF11F04AEF11F081
:102290004CEF11F0000E0D6E0FA051EF11F053EF47
:1022A00011F056EF11F0038E57EF11F0039ED89006
:1022B0000F30046E0DAE5FEF11F061EF11F062EFC1
:1022C00011F0048E01C001F002C002F003C003F05F
:1022D00004C004F012003550800B3E6E355035249A
:1022E000446E34AE76EF11F078EF11F079EF11F023
:1022F00044804450D8B47FEF11F081EF11F094EF97
:1023000011F04428D8A487EF11F089EF11F091EF74
:1023100011F0000E326E000E336E000E346E000EA1
:10232000356E348E9CEF11F0000E326E000E336E5F
:10233000000E346E000E356E3950800B3E1A395047
:102340003924436E38AEA7EF11F0A9EF11F0AAEFD0
:1023500011F043804350D8B4B0EF11F0B2EF11F058
:10236000C5EF11F04328D8A4B8EF11F0BAEF11F07F
:10237000C2EF11F0000E366E000E376E000E386E92
:10238000000E396E388ECDEF11F0000E366E000E55
:10239000376E000E386E000E396E4350D8B4D3EF4E
:1023A00011F0D5EF11F0DDEF11F04450D8A4DBEFC0
:1023B00011F0DDEF11F0E7EF11F0000E326E000EBC
:1023C000336E000E346E000E356E7FEF13F0385012
:1023D0003202F3CF49F0F4CF4AF049503F6E406AE1
:1023E000416A426A4A50456E466A476A486A3750AF
:1023F0003302F3CF49F0F4CF4AF049503F26000EA4
:102400004022412242224A504526000E46224722BF
:10241000482236503402F3CF49F0F4CF4AF0495005
:102420003F26000E4022412242224A504526000EFD
:1024300046224722482241C042F040C041F03FC0FE
:1024400040F03F6A36503302F3CF49F0F4CF4AF000
:1024500049503F264A504022000E4122000E42229F
:1024600037503202F3CF49F0F4CF4AF049503F26BB
:102470004A504022000E4122000E422241C042F04A
:1024800040C041F03FC040F03F6A36503202F3CFC7
:1024900049F0F4CF4AF049503F264A504022000EFE
:1024A0004122000E422238503302F3CF49F0F4CFDC
:1024B0004AF0495045264A504622000E4722000E57
:1024C000482237503402F3CF49F0F4CF4AF0495054
:1024D00045264A504622000E4722000E4822385018
:1024E0003402F3CF49F0F4CF4AF049503A6E4A50E3
:1024F0003B6E3C6A3D6A3CC03DF03BC03CF03AC09C
:102500003BF03A6A3A5045263B5046223C5047221F
:102510003D5048223FC03AF040C03BF041C03CF043
:1025200042C03DF0190E9AEF12F0D8903D323C3285
:102530003B323A32E82E95EF12F03A5045263B50A6
:1025400046223C5047223D50482241C042F040C004
:1025500041F03FC040F03F6A435044C03AF03B6A0C
:102560003A26000E3B22820E3A24496EFF0E3B2093
:102570004A6ED0EF12F0D890453646364736483688
:1025800042AEC5EF12F0C7EF12F0C8EF12F045806F
:10259000D8903F364036413642364906D8A04A06E2
:1025A00047AED5EF12F0D7EF12F0BBEF12F0000EEE
:1025B000436E42AEDEEF12F0E0EF12F004EF13F0E4
:1025C000FF0E3F143A6EFF0E40143B6EFF0E411497
:1025D0003C6E7F0E42143D6E3A503B103C103D1055
:1025E000D8B4F5EF12F0F7EF12F0FBEF12F0010E96
:1025F000436E04EF13F045A000EF13F002EF13F069
:1026000004EF13F0F7EF12F04350D8B40AEF13F0D1
:102610000CEF13F030EF13F0010E4526000E4622AA
:102620004722482248A017EF13F019EF13F030EFBC
:1026300013F045C03AF046C03BF047C03CF048C0FC
:102640003DF03D343D323C323B323A323AC045F007
:102650003BC046F03CC047F03DC048F0494A4A2ADA
:102660004ABE3BEF13F04A5008E14928D8A03BEF9F
:1026700013F03DEF13F047EF13F0000E456E000E20
:10268000466E800E476E7F0E486E75EF13F04ABEA1
:1026900054EF13F04A5006E14904D8B052EF13F05A
:1026A00054EF13F060EF13F0000E456E000E466E0F
:1026B000000E476E000E486E000E3E6E75EF13F072
:1026C00049C044F0FF0E4516FF0E46167F0E471612
:1026D000000E481644A06FEF13F071EF13F072EF85
:1026E00013F0478ED8904430486E3E50481245C093
:1026F00032F046C033F047C034F048C035F0120025
:102700001C50800B296E1C501C24306E1BAE8BEFAE
:1027100013F08DEF13F08EEF13F030803050D8B4FB
:1027200094EF13F096EF13F0ABEF13F03028D8A42A
:102730009CEF13F09EEF13F0A6EF13F0000E196E4E
:10274000000E1A6E000E1B6E000E1C6E1B8E000E0D
:102750001C6EB3EF13F0000E196E000E1A6E000E11
:102760001B6E000E1C6E2050800B291A2050202456
:10277000316E1FAEBEEF13F0C0EF13F0C1EF13F0D8
:1027800031803150D8B4C7EF13F0C9EF13F0DEEF4A
:1027900013F03128D8A4CFEF13F0D1EF13F0D9EF15
:1027A00013F0000E1D6E000E1E6E000E1F6E000E4A
:1027B000206E1F8E000E206EE6EF13F0000E1D6ED1
:1027C000000E1E6E000E1F6E000E206E1D501E109D
:1027D0001F102010D8A4EFEF13F0F1EF13F009EF62
:1027E00014F0000E196E000E1A6E000E1B6E000E15
:1027F0001C6E800E1B127F0E1C1229501C1219C059
:1028000019F01AC01AF01BC01BF01CC01CF04CEFD2
:1028100015F03050D8A40FEF14F011EF14F01BEFA7
:1028200014F0000E196E000E1A6E000E1B6E000ED4
:102830001C6E4CEF15F0315030C021F0226A215E41
:10284000000E225A7F0E21242A6E000E22202B6EAB
:1028500019C025F01AC026F01BC027F01CC028F0B4
:10286000000E196E000E1A6E000E1B6E000E1C6E0E
:10287000000E2C6E000E2D6E000E2E6E000E2F6EB2
:10288000000E316E7CEF14F03150D8B44AEF14F0E2
:102890004CEF14F063EF14F0D89025362636273627
:1028A0002836D89019361A361B361C362FAE5BEFF9
:1028B00014F05DEF14F05EEF14F01980D8902C3610
:1028C0002D362E362F361D50255C1E5026581F5093
:1028D000275820502858D8A070EF14F072EF14F049
:1028E0007BEF14F02F8C1D50255E1E50265A1F5072
:1028F000275A2050285A312A190E316482EF14F0D9
:1029000084EF14F044EF14F02550261027102810FF
:10291000D8B48DEF14F08FEF14F0A7EF14F02C80E3
:10292000A7EF14F0D89019361A361B361C362FAE86
:102930009CEF14F09EEF14F09FEF14F01980D890E4
:102940002C362D362E362F362A06D8A02B061BAE57
:10295000ACEF14F0AEEF14F092EF14F0000E316E05
:102960002FAEB5EF14F0B7EF14F0DBEF14F0FF0E5D
:102970002C14216EFF0E2D14226EFF0E2E14236ECA
:102980007F0E2F14246E2150221023102410D8B44F
:10299000CCEF14F0CEEF14F0D2EF14F0010E316E44
:1029A000DBEF14F019A0D7EF14F0D9EF14F0DBEF40
:1029B00014F0CEEF14F03150D8B4E1EF14F0E3EF9F
:1029C00014F007EF15F0010E1926000E1A221B2233
:1029D0001C221CA0EEEF14F0F0EF14F007EF15F03E
:1029E00019C021F01AC022F01BC023F01CC024F033
:1029F0002434243223322232213221C019F022C061
:102A00001AF023C01BF024C01CF02A4A2B2A2BBE2C
:102A100012EF15F02B5008E12A28D8A012EF15F07C
:102A200014EF15F01FEF15F0000E2B6E2A68000E44
:102A3000196E000E1A6E000E1B6E000E1C6E2BBE61
:102A40002CEF15F02B5006E12A04D8B02AEF15F030
:102A50002CEF15F03AEF15F0000E2B6E000E2A6EDB
:102A6000000E196E000E1A6E000E1B6E000E1C6E0C
:102A7000000E296E2AC030F030A041EF15F043EF70
:102A800015F046EF15F01B8E47EF15F01B9ED89002
:102A900030301C6EFDEF13F0120032C0D9FF33C08E
:102AA000DAFFDECF01F0DDCF02F0000E02BEFF0E36
:102AB000036E046E010E3AEC19F001C042F002C040
:102AC00043F003C044F004C045F020EE02F0325061
:102AD000D9263350DA22DECF01F0DDCF02F0000E2E
:102AE00002BEFF0E036E046E010E3AEC19F001C037
:102AF00046F002C047F003C048F004C049F020EEA1
:102B000004F03250D9263350DA22DECF01F0DDCF87
:102B100002F0000E02BEFF0E036E046E010E3AECD0
:102B200019F001C04AF002C04BF003C04CF004C0E1
:102B30004DF020EE06F03250D9263350DA22DECFA7
:102B400001F0DDCF02F0000E02BEFF0E036E046E38
:102B5000010E3AEC19F001C036F002C037F003C0A4
:102B600038F004C039F046C005F047C006F048C050
:102B700007F049C008F042C001F043C002F044C071
:102B800003F045C004F00BEC0FF001C03AF002C0B6
:102B90003BF003C03CF004C03DF04AC005F04BC020
:102BA00006F04CC007F04DC008F03AC001F03BC041
:102BB00002F03CC003F03DC004F00BEC0FF001C08C
:102BC0003EF002C03FF003C040F004C041F042C0FC
:102BD00019F043C01AF044C01BF045C01CF036C0C9
:102BE00005F037C006F038C007F039C008F03EC025
:102BF00001F03FC002F040C003F041C004F00BEC14
:102C00000FF001C01DF002C01EF003C01FF004C091
:102C100020F080EC13F034C0D9FF35C0DAFF19C0C2
:102C2000DEFF1AC0DEFF1BC0DEFF1CC0DEFF46C099
:102C300005F047C006F048C007F049C008F042C0A0
:102C400001F043C002F044C003F045C004F00BECB7
:102C50000FF001C03AF002C03BF003C03CF004C0EA
:102C60003DF04AC005F04BC006F04CC007F04DC027
:102C700008F03AC001F03BC002F03CC003F03DC098
:102C800004F00BEC0FF001C03EF002C03FF003C0B7
:102C900040F004C041F04AC019F04BC01AF04CC0DB
:102CA0001BF04DC01CF036C005F037C006F038C030
:102CB00007F039C008F03EC001F03FC002F040C04C
:102CC00003F041C004F00BEC0FF001C01DF002C096
:102CD0001EF003C01FF004C020F080EC13F020EEC3
:102CE00008F03450D9263550DA2219C0DEFF1AC058
:102CF000DEFF1BC0DEFF1CC0DEFF46C005F047C084
:102D000006F048C007F049C008F042C001F043C0D7
:102D100002F044C003F045C004F00BEC0FF001C01A
:102D20003AF002C03BF003C03CF004C03DF04AC0A2
:102D300005F04BC006F04CC007F04DC008F03AC09B
:102D400001F03BC002F03CC003F03DC004F00BECCE
:102D50000FF001C03EF002C03FF003C040F004C0DD
:102D600041F046C019F047C01AF048C01BF049C0F6
:102D70001CF036C005F037C006F038C007F039C087
:102D800008F03EC001F03FC002F040C003F041C077
:102D900004F00BEC0FF001C01DF002C01EF003C0E8
:102DA0001FF004C020F080EC13F020EE04F034504B
:102DB000D9263550DA2219C0DEFF1AC0DEFF1BC04B
:102DC000DEFF1CC0DEFF12001EC034F01FC035F055
:102DD00020C036F021C037F022C038F023C039F0CF
:102DE00024C03AF025C03BF03BBEF9EF16F0FCEFF3
:102DF00016F0010EFDEF16F0000E3E6E3E50D8B4F8
:102E000004EF17F006EF17F016EF17F03B1E3A1E0F
:102E1000391E381E371E361E351E346C000E352204
:102E200036223722382239223A223B220001F1BFD2
:102E300024EF17F0F15106E1F005D8B022EF17F0BA
:102E400024EF17F02AEF17F0000E316E010E306EEE
:102E50002EEF17F0F0C030F0F1C031F05CC132F06D
:102E60005DC133F03E50D8B438EF17F03AEF17F0A9
:102E700051EF17F03206D8A033063E50D8A443EFE6
:102E800017F045EF17F04BEF17F0000E2F6E2B0EDB
:102E90002E6E4FEF17F0000E2F6E2D0E2E6E2EC0E1
:102EA0003EF0000E3D6E1F0E3C6E000E0101B16F34
:102EB000D6EF17F03C06D8A03D06920E3C24D96E02
:102EC000010E3D20DA6E34C001F035C002F036C08C
:102ED00003F037C004F038C005F039C006F03AC03E
:102EE00007F03BC008F00A0E096E000E0A6E000ED5
:102EF0000B6E000E0C6E000E0D6E000E0E6E000EB0
:102F00000F6E000E106E8EEC1BF001C026F002C09A
:102F100027F003C028F004C029F005C02AF006C03D
:102F20002BF007C02CF008C02DF026C013F027C0EE
:102F300014F064EC24F01350300FDF6E3006D8A08C
:102F400031063206D8A0330634C001F035C002F095
:102F500036C003F037C004F038C005F039C006F0C1
:102F60003AC007F03BC008F00A0E096E000E0A6E68
:102F7000000E0B6E000E0C6E000E0D6E000E0E6E2F
:102F8000000E0F6E000E106E14EC1AF001C034F03B
:102F900002C035F003C036F004C037F005C038F089
:102FA00006C039F007C03AF008C03BF03DBEE1EF83
:102FB00017F03D5008E13C04D8A0E1EF17F0E3EF33
:102FC00017F0FFEF17F03450351036103710381067
:102FD00039103A103B10D8A4F0EF17F0F2EF17F0C9
:102FE0005AEF17F031BEFFEF17F0315006E1300411
:102FF000D8B0FDEF17F0FFEF17F05AEF17F03E5083
:10300000D8B405EF18F007EF18F012EF18F03C06EF
:10301000D8A03D06920E3C24D96E010E3D20DA6EFA
:103020003EC0DFFF1CC011F01DC012F0920E3C2408
:10303000136E010E3D20146E32C015F033C016F031
:1030400024EC20F01200F2C02DF0F3C02EF02EBEC2
:103050002EEF18F02CEF18F030EF18F039EF19F0D0
:10306000000ED46E000ED36ED35043EF18F0F50E61
:10307000146E000E156EBE0E166E010E176E73ECFA
:103080001EF034EF18F0D8902D34D96E2E34DA6E4D
:103090002650D9262750DA22D4502B6E2A6ADE50C9
:1030A0002A5C2B50800A2C6EDE50800A2C58D8A047
:1030B0005CEF18F05EEF18F037EF18F02D50242475
:1030C000D96E2E502520DA6EDF50D8A46AEF18F0A2
:1030D0006CEF18F078EF18F0F50E1A6E000E1B6EFC
:1030E000BE0E1C6E010E1D6E62EC21F034EF19F065
:1030F0002D502424D96E2E502520DA6EDE04D8A45B
:1031000084EF18F086EF18F092EF18F0F50E206EAD
:10311000000E216EBE0E226E010E236EE1EC24F035
:1031200034EF19F02D502424D96E2E502520DA6E5C
:10313000020EDE18D8A49FEF18F0A1EF18F0ADEF43
:1031400018F0F50E206E000E216EBE0E226E010EDE
:10315000236E93EC22F034EF19F02D502424D96E15
:103160002E502520DA6E030EDE18D8A4BAEF18F020
:10317000BCEF18F0C8EF18F0F50E206E000E216EAF
:10318000BE0E226E010E236E84EC24F034EF19F093
:103190002D502424D96E2E502520DA6E040EDE1810
:1031A000D8A4D5EF18F0D7EF18F0E3EF18F0F50E2C
:1031B000206E000E216EBE0E226E010E236ED3EC29
:1031C00020F034EF19F02D502424D96E2E502520F4
:1031D000DA6E050EDE18D8A4F0EF18F0F2EF18F052
:1031E000FEEF18F0F50E206E000E216EBE0E226E60
:1031F000010E236EC2EC24F034EF19F02D5024247C
:10320000D96E2E502520DA6E060EDE18D8A40BEFEC
:1032100019F00DEF19F019EF19F0F50E206E000EF0
:10322000216EBE0E226E010E236E6AEC22F034EF88
:1032300019F02D502424D96E2E502520DA6E070E59
:10324000DE18D8A426EF19F028EF19F034EF19F0A2
:10325000F50E206E000E216EBE0E226E010E236E44
:10326000A3EC24F034EF19F02D06D8A02E0627EF9A
:1032700018F01200096E0950D8B441EF19F043EF6D
:1032800019F065EF19F004BE4AEF19F048EF19F094
:1032900065EF19F001C005F002C006F003C007F0A9
:1032A00004C008F0051E061E071E081E052A000E93
:1032B00006220722082205C00BF006C00CF007C04A
:1032C0000DF008C00EF06DEF19F001C00BF002C058
:1032D0000CF003C00DF004C00EF0015002100310FA
:1032E0000410D8A476EF19F078EF19F082EF19F0F6
:1032F000000E016E000E026E000E036E000E046ED4
:1033000013EF1AF0960E0A6E8CEF19F00A2AD89075
:103310000E320D320C320B32000E0B14056E000E05
:103320000C14066E000E0D14076EFE0E0E14086EC1
:103330000550061007100810D8A4A1EF19F0A3EF4C
:1033400019F086EF19F0B1EF19F00A2A010E0B26D9
:10335000000E0C220D220E22D8900E320D320C32AD
:103360000B32000E0B14056E000E0C14066E000ED0
:103370000D14076EFF0E0E14086E05500610071090
:103380000810D8A4C6EF19F0C8EF19F0A5EF19F08E
:10339000D0EF19F00A06D8900B360C360D360E36E3
:1033A0000DBED5EF19F0D7EF19F0DFEF19F0020ECF
:1033B0000A60DDEF19F0DFEF19F0CAEF19F00AB07B
:1033C000E4EF19F0E6EF19F0E7EF19F00D9ED89051
:1033D0000A320AC005F0066A076A086A05C008F0E2
:1033E000076A066A056A05500B1206500C12075050
:1033F0000D1208500E120950D8B401EF1AF003EF65
:103400001AF00BEF1AF004BE0AEF1AF008EF1AF0E8
:103410000BEF1AF00E8E0BC001F00CC002F00DC0C5
:1034200003F00EC004F01200000E126E10BE1DEF6D
:103430001AF01BEF1AF02FEF1AF0101E0F1E0E1EBF
:103440000D1E0C1E0B1E0A1E096C000E0A220B22FA
:103450000C220D220E220F221022010E126E08BE27
:1034600036EF1AF034EF1AF048EF1AF0081E071E74
:10347000061E051E041E031E021E016C000E022203
:10348000032204220522062207220822010E121A14
:1034900020EE13F0070EDE6AE806FDE209500A107E
:1034A0000B100C100D100E100F101010D8B45BEF95
:1034B0001AF05DEF1AF0AFEF1AF0010E116E6BEF1C
:1034C0001AF0D89009360A360B360C360D360E3601
:1034D0000F361036112A10AE70EF1AF072EF1AF094
:1034E00061EF1AF0D89013361436153616361736A3
:1034F000183619361A360950015C0A5002580B501A
:1035000003580C5004580D5005580E5006580F50D3
:10351000075810500858D8A090EF1AF092EF1AF000
:10352000A3EF1AF00950015E0A50025A0B50035AD9
:103530000C50045A0D50055A0E50065A0F50075A97
:103540001050085A1380D89010320F320E320D32BC
:103550000C320B320A320932112E72EF1AF012506D
:10356000D8B4B5EF1AF0B7EF1AF0C7EF1AF01A1E79
:10357000191E181E171E161E151E141E136C000E83
:103580001422152216221722182219221A2213C0D9
:1035900001F014C002F015C003F016C004F017C00B
:1035A00005F018C006F019C007F01AC008F01200A4
:1035B00020EE02F00E50D9260F50DA22DF50D8B498
:1035C000E4EF1AF0E6EF1AF01AEF1BF00EC0D9FF85
:1035D0000FC0DAFFDF50106E1050016E026A20EE4D
:1035E00003F00E50D9260F50DA22DECF03F0DDCFE4
:1035F00004F054EC25F001C007F002C008F0000E02
:103600000A6E640E096E61EC20F020EE03F00E509D
:10361000D9260F50DA22DF50116E0750115C126E5E
:1036200020EE03F00E50D9260F50DA22DF50136E31
:103630003DEF1BF0000E126E0EC0D9FF0FC0DAFF77
:10364000DF50106E1050016E026A20EE03F00E5033
:10365000D9260F50DA22DECF03F0DDCF04F054EC90
:1036600025F001C007F002C008F0000E0A6E640EDB
:10367000096E61EC20F00750136E20EE01F00E5041
:10368000D9260F50DA22DF50D8B449EF1BF04BEFA8
:103690001BF06DEF1BF020EE05F00E50D9260F50F9
:1036A000DA22DECF10F0DDCF11F010C0D9FF11C04B
:1036B000DAFF12C0DFFF20EE07F00E50D9260F50C0
:1036C000DA22DECF10F0DDCF11F010C0D9FF11C02B
:1036D000DAFF13C0DFFF8DEF1BF020EE05F00E5078
:1036E000D9260F50DA22DECF10F0DDCF11F010C056
:1036F000D9FF11C0DAFF13C0DFFF20EE07F00E5034
:10370000D9260F50DA22DECF10F0DDCF11F010C035
:10371000D9FF11C0DAFF12C0DFFF1200000E126ED7
:1037200008BE97EF1BF095EF1BF0A9EF1BF0081EEA
:10373000071E061E051E041E031E021E016C000E3F
:103740000222032204220522062207220822010E59
:10375000126E10BEB0EF1BF0AEEF1BF0C0EF1BF00F
:10376000101E0F1E0E1E0D1E0C1E0B1E0A1E096CB7
:10377000000E0A220B220C220D220E220F221022F2
:1037800009500A100B100C100D100E100F10101015
:10379000D8B4CDEF1BF0CFEF1BF017EF1CF0010EEC
:1037A000116EDDEF1BF0D89009360A360B360C3659
:1037B0000D360E360F361036112A10AEE2EF1BF022
:1037C000E4EF1BF0D3EF1BF00950015C0A500258E4
:1037D0000B5003580C5004580D5005580E50065805
:1037E0000F50075810500858D8A0F9EF1BF0FBEF06
:1037F0001BF00BEF1CF00950015E0A50025A0B50EF
:10380000035A0C50045A0D50055A0E50065A0F50C8
:10381000075A1050085AD89010320F320E320D321B
:103820000C320B320A320932112EE4EF1BF0125027
:10383000D8B41DEF1CF01FEF1CF02FEF1CF0081E7A
:10384000071E061E051E041E031E021E016C000E2E
:10385000022203220422052206220722082201C096
:1038600001F002C002F003C003F004C004F005C080
:1038700005F006C006F007C007F008C008F0120007
:1038800041C0D9FF42C0DAFFDECFF6FFDDCFF7FF40
:103890000800F550250AD8A450EF1CF052EF1CF098
:1038A000D3EF1CF041C0D9FF42C0DAFFDE2A000E80
:1038B000DD22000E01015D6F000E5C6F5CC1F4F053
:1038C0000001F069F16941C0D9FF42C0DAFFDECFE3
:1038D0004FF0DDCF50F04FC0F6FF50C0F7FF0800AB
:1038E000F550640AD8B477EF1CF079EF1CF087EF3D
:1038F0001CF04FC0F6FF50C0F7FF0800F550690AF2
:10390000D8A485EF1CF087EF1CF0CAEF1CF043C071
:10391000D9FF44C0DAFFDFCF45F0020EDE26DFCF4D
:1039200046F0000EDD2245C0D9FF46C0DAFFDECFEB
:1039300047F0DDCF48F0000E48BEFF0E496E4A6EDC
:103940004B6E4C6E4D6E4E6E010E4F24456E000E4A
:103950005020466E41C0D9FF42C0DAFF45C0DEFFAD
:1039600046C0DDFF3FC01CF040C01DF047C01EF048
:1039700048C01FF049C020F04AC021F04BC022F0DF
:103980004CC023F04DC024F04EC025F0E4EC16F0FE
:10399000E7EF1CF041C0D9FF42C0DAFFDE2A000E7B
:1039A000DD22E7EF1CF041C0D9FF42C0DAFFDECFD5
:1039B000F6FFDDCFF7FF0800F550016E026A3FC049
:1039C00003F040C004F06AEC1DF0CAEF1CF01200D6
:1039D000000E0114096E000E02140A6E800E03140C
:1039E0000B6E7F0E04140C6E09500A100B100C1095
:1039F000D8A4FDEF1CF0FFEF1CF007EF1DF0000E48
:103A0000016E000E026E000E036E000E046E000EBC
:103A10000514096E000E06140A6E800E07140B6E54
:103A20007F0E08140C6E09500A100B100C10D8A44D
:103A30001CEF1DF01EEF1DF026EF1DF0000E056EB1
:103A4000000E066E000E076E000E086E04AE2BEF21
:103A50001DF02DEF1DF036EF1DF0016C021ED8B0E9
:103A6000022A031ED8B0032A800E045608AE3BEF8C
:103A70001DF03DEF1DF046EF1DF0056C061ED8B0A1
:103A8000062A071ED8B0072A800E0856000E011A13
:103A9000000E021A000E031A800E041A000E051AF8
:103AA000000E061A000E071A800E081A0550015C57
:103AB000065002580750035808500458D8B063EF16
:103AC0001DF065EF1DF068EF1DF0D89069EF1DF057
:103AD000D880120003500410D8B471EF1DF073EFBA
:103AE0001DF07CEF1DF003500410D8A47AEF1DF0F8
:103AF0007CEF1DF081EF1DF00150BAEC25F0CEEF08
:103B00001DF020EE09F00350D9260450DA22DE50D1
:103B1000DE10D8B48EEF1DF090EF1DF0ABEF1DF06E
:103B200020EE09F00350D9260450DA2210EE03F0FB
:103B30000350E1260450E222DE50E65CE650800AA3
:103B4000096EDE50800A0958D8B0A9EF1DF0ABEF1E
:103B50001DF0CEEF1DF020EE03F00350D9260450E7
:103B6000DA22DECF05F0DDCF06F003C0D9FF04C0B6
:103B7000DAFFDECF07F0DDCF08F005500724D96E5D
:103B800006500820DA6E01C0DFFF20EE03F003507C
:103B9000D9260450DA22DE2A000EDD221200000EA1
:103BA0001914216E000E1A14226E800E1B14236E3F
:103BB0007F0E1C14246E2150221023102410D8A430
:103BC000E4EF1DF0E6EF1DF0EEEF1DF0000E196EB4
:103BD000000E1A6E000E1B6E000E1C6E000E1D14E1
:103BE000216E000E1E14226E800E1F14236E7F0E97
:103BF0002014246E2150221023102410D8A403EF87
:103C00001EF005EF1EF00DEF1EF0000E1D6E000EF3
:103C10001E6E000E1F6E000E206E1D5019180FE153
:103C20001E501A180CE11F501B1809E120501C18D7
:103C3000D8B41DEF1EF01FEF1EF022EF1EF0D8903B
:103C400023EF1EF0D880120020EE01F01450D92688
:103C50001550DA22010EDF6E20EE01F01650D92643
:103C60001750DA22000EDF6E5AEF1EF014C0D9FF93
:103C700015C0DAFF0A0EDF2616C0D9FF17C0DAFF1B
:103C80000A0EDF2614C00EF015C00FF0D8EC1AF0A3
:103C900016C00EF017C00FF0D8EC1AF0020E196E15
:103CA000A00E186E920EE82EFED7182EFCD7192EF5
:103CB000FAD700D014C0D9FF15C0DAFF1E0EDF609E
:103CC00064EF1EF066EF1EF072EF1EF016C0D9FF13
:103CD00017C0DAFF1D0EDF6470EF1EF072EF1EF0EA
:103CE00036EF1EF0120020EE01F01450D9261550C8
:103CF000DA22010EDF6E20EE01F01650D9261750A1
:103D0000DA22010EDF6EA9EF1EF014C0D9FF15C034
:103D1000DAFF0A0EDF2616C0D9FF17C0DAFF0A0E37
:103D2000DF2614C00EF015C00FF0D8EC1AF016C044
:103D30000EF017C00FF0D8EC1AF0020E196EA00E9C
:103D4000186E920EE82EFED7182EFCD7192EFAD731
:103D500000D014C0D9FF15C0DAFF1E0EDF60B3EF2C
:103D60001EF0B5EF1EF0C1EF1EF016C0D9FF17C050
:103D7000DAFF1D0EDF64BFEF1EF0C1EF1EF085EF0E
:103D80001EF0120020EE01F01450D9261550DA2250
:103D9000000EDF6E20EE01F01650D9261750DA2201
:103DA000010EDF6EF8EF1EF014C0D9FF15C0DAFF68
:103DB0000A0EDF2616C0D9FF17C0DAFF0A0EDF266B
:103DC00014C00EF015C00FF0D8EC1AF016C00EF0AB
:103DD00017C00FF0D8EC1AF0020E196EA00E186E74
:103DE000920EE82EFED7182EFCD7192EFAD700D047
:103DF00014C0D9FF15C0DAFF1E0EDF6002EF1FF0FE
:103E000004EF1FF010EF1FF016C0D9FF17C0DAFF44
:103E10001D0EDF640EEF1FF010EF1FF0D4EF1EF049
:103E2000120020EE01F01450D9261550DA22000EAF
:103E3000DF6E20EE01F01650D9261750DA22000E60
:103E4000DF6E47EF1FF014C0D9FF15C0DAFF0A0E6E
:103E5000DF2616C0D9FF17C0DAFF0A0EDF2614C00E
:103E60000EF015C00FF0D8EC1AF016C00EF017C007
:103E70000FF0D8EC1AF0020E196EA00E186E920E0A
:103E8000E82EFED7182EFCD7192EFAD700D014C072
:103E9000D9FF15C0DAFF1E0EDF6051EF1FF053EFA0
:103EA0001FF05FEF1FF016C0D9FF17C0DAFF1D0E1D
:103EB000DF645DEF1FF05FEF1FF023EF1FF01200D4
:103EC000050E0E01746F060E766F070E696F080EF1
:103ED000886F85948598839E879CBD508F0B300991
:103EE000BD6EE00EBE16BF50F00B0109BF6E01C0E3
:103EF000BCFFBD8E000EAA6E000EA66E000E0F0156
:103F0000256F000E216FFC0EAD16F30EAD16CF0E11
:103F1000AD163F0EAD16AB88AB50F00B0C09AB6E77
:103F2000AB8EA788A750F00B0C09A76EA78E268929
:103F30002651F00B0C09266F268F22892251F00B97
:103F40000C09226F228F12001AC014F01BC015F04A
:103F50001CC016F01DC017F011EC1FF0290E1F6ECB
:103F6000960E1E6E7F0EE82EFED71E2EFCD71F2E3D
:103F7000FAD700F0F50E146E000E156EBE0E166E1A
:103F8000010E176EE5EC1FF01AC014F01BC015F0FF
:103F90001CC016F01DC017F073EC1EF0290E1F6E2A
:103FA000960E1E6E7F0EE82EFED71E2EFCD71F2EFD
:103FB000FAD700F0F50E146E000E156EBE0E166EDA
:103FC000010E176EE5EC1FF012000BEF20F014C08D
:103FD000D9FF15C0DAFF0A0EDF5E16C0D9FF17C081
:103FE000DAFF0A0EDF5E14C00EF015C00FF0D8EC39
:103FF0001AF016C00EF017C00FF0D8EC1AF0020E2F
:10400000196EA00E186E920EE82EFED7182EFCD751
:10401000192EFAD700D014C0D9FF15C0DAFFDF502F
:10402000D8A415EF20F017EF20F0E7EF1FF016C02F
:10403000D9FF17C0DAFFDF50D8A421EF20F023EF1B
:1040400020F0E7EF1FF0120016BE29EF20F02BEF53
:1040500020F031EF20F015C01AF016C01BF035EF3C
:1040600020F0000E1B6E000E1A6E000E196E000E70
:10407000186E47EF20F0000E026E200E016E11C088
:1040800003F012C004F06AEC1DF0184A192A1A5005
:10409000185C1950800A176E1B50800A1758D8A058
:1040A00054EF20F056EF20F03BEF20F013C00AF061
:1040B00014C00BF011C00CF012C00DF021EC24F074
:1040C0001200000E0C6E000E0B6E09500A10D8B4D0
:1040D0006CEF20F06EEF20F096EF20F0010E0D6EE9
:1040E00076EF20F0D89009360A360D2A0AAE7BEF1B
:1040F00020F07DEF20F072EF20F0D8900B360C36D8
:104100000950075C0A500858D8A089EF20F08BEFBF
:1041100020F090EF20F00950075E0A50085A0B80FB
:10412000D8900A3209320D2E7DEF20F00BC007F037
:104130000CC008F012006E0EF66E4B0EF76E000EFD
:10414000F86E01EECFF010EE06F00900F5CFEEFFAD
:10415000E550E150FAE1780EF66E4B0EF76E000E68
:10416000F86E0900F5CFFEF002EE00F0640EEE6A84
:10417000E806FDE101EE00F0CF0EEE6AE806FDE193
:1041800000EEF0F00E0EEE6AE806FDE15E6A5D6A92
:104190005C6A5B6A5F905F92000EF86E0E0EF76EBF
:1041A000000181EF0CF0F50E1A6E000E1B6EBE0EB4
:1041B0001C6E010E1D6EBCEC21F0F50E1A6E000E89
:1041C0001B6EBE0E1C6E010E1D6EE9EC21F0F50E8D
:1041D0001A6E000E1B6EBE0E1C6E010E1D6EE9ECFB
:1041E00021F0F50E1A6E000E1B6EBE0E1C6E010E37
:1041F0001D6EE9EC21F0F50E1A6E000E1B6EBE0E60
:104200001C6E010E1D6EE9EC21F012005FEC23F034
:104210000CC0D9FF0DC0DAFF05C0DEFF06C0DDFF10
:10422000AFEC23F020EE04F00C50D9260D50DA222A
:1042300005C0DEFF06C0DDFF87EC23F020EE02F0B4
:104240000C50D9260D50DA2205C0DEFF06C0DDFF76
:1042500037EC23F020EE06F00C50D9260D50DA2270
:1042600005C0DEFF06C0DDFF12001AC014F01BC03F
:1042700015F01CC016F01DC017F073EC1EF0520EA6
:104280001F6E2B0E1E6E000EE82EFED71E2EFCD7C4
:104290001F2EFAD700D0F50E146E000E156EBE0E4E
:1042A000166E010E176EE5EC1FF0520E1F6E2B0EF0
:1042B0001E6E000EE82EFED71E2EFCD71F2EFAD73C
:1042C00000D012001AC014F01BC015F01CC016F06C
:1042D0001DC017F073EC1EF0290E1F6E960E1E6E99
:1042E0007F0EE82EFED71E2EFCD71F2EFAD700F029
:1042F000F50E146E000E156EBE0E166E010E176EC4
:10430000E5EC1FF0520E1F6E2B0E1E6E000EE82EF7
:10431000FED71E2EFCD71F2EFAD700D012001AC0CF
:1043200014F01BC015F01CC016F01DC017F011ECE6
:104330001FF0520E1F6E2B0E1E6E000EE82EFED7C3
:104340001E2EFCD71F2EFAD700D0F50E146E000ECD
:10435000156EBE0E166E010E176EE5EC1FF0520EB6
:104360001F6E2B0E1E6E000EE82EFED71E2EFCD7E3
:104370001F2EFAD700D012001AC014F01BC015F07F
:104380001CC016F01DC017F011EC1FF0110E1F6EAF
:104390003C0E1E6ECB0EE82EFED71E2EFCD71F2E17
:1043A000FAD700F0F50E146E000E156EBE0E166EE6
:1043B000010E176EE5EC1FF0520E1F6E2B0E1E6ED7
:1043C000000EE82EFED71E2EFCD71F2EFAD700D0E7
:1043D00012001AC014F01BC015F01CC016F01DC04E
:1043E00017F024EC1EF0120E1F6EDC0E1E6E600E17
:1043F000E82EFED71E2EFCD71F2EFAD7F50E146E10
:10440000000E156EBE0E166E010E176EE5EC1FF057
:10441000520E1F6E2B0E1E6E000EE82EFED71E2EA5
:10442000FCD71F2EFAD700D012001AC014F01BC000
:1044300015F01CC016F01DC017F0C2EC1EF0120ED5
:104440001F6EDC0E1E6E600EE82EFED71E2EFCD7F1
:104450001F2EFAD7F50E146E000E156EBE0E166ED8
:10446000010E176EE5EC1FF0520E1F6E2B0E1E6E26
:10447000000EE82EFED71E2EFCD71F2EFAD700D036
:104480001200640E00016C6F000E6D6F60C06EF064
:1044900061C06FF0000E726F000E716F000E786FCA
:1044A000000E776F6E0E516E000E526E62C053F0AA
:1044B00063C054F06C0E556E000E566ED7EC23F0B0
:1044C000000171516025D96E72516121DA6E000EC2
:1044D000DF6E1200F50E1A6E000E1B6EBE0E1C6E05
:1044E000010E1D6EBCEC21F0F50E1A6E000E1B6E57
:1044F000BE0E1C6E010E1D6EE9EC21F0F50E1A6E5B
:10450000000E1B6EBE0E1C6E010E1D6EE9EC21F03E
:10451000F50E1A6E000E1B6EBE0E1C6E010E1D6E89
:10452000E9EC21F01200F50E1A6E000E1B6EBE0EA5
:104530001C6E010E1D6EBCEC21F0F50E1A6E000E05
:104540001B6EBE0E1C6E010E1D6E15EC22F0F50EDC
:104550001A6E000E1B6EBE0E1C6E010E1D6E15EC4B
:1045600022F0F50E1A6E000E1B6EBE0E1C6E010EB2
:104570001D6E15EC22F0120018EC25F0010E036EF2
:10458000000E67EC25F03F0E056E550EE82EFED7A7
:10459000052EFCD700F0030E036E000E67EC25F02D
:1045A000D50E036E010E67EC25F0000E036E0F0EA4
:1045B00067EC25F087928198869E849684987F92F6
:1045C0007E9E79987C967C981200F50E1A6E000EED
:1045D0001B6EBE0E1C6E010E1D6EBCEC21F0F50EA6
:1045E0001A6E000E1B6EBE0E1C6E010E1D6E8FEC41
:1045F00021F0F50E1A6E000E1B6EBE0E1C6E010E23
:104600001D6EE9EC21F0F50E1A6E000E1B6EBE0E4B
:104610001C6E010E1D6EE9EC21F01200F50E1A6EF3
:10462000000E1B6EBE0E1C6E010E1D6EBCEC21F04A
:10463000F50E1A6E000E1B6EBE0E1C6E010E1D6E68
:104640008FEC21F0F50E1A6E000E1B6EBE0E1C6E66
:10465000010E1D6E15EC22F0F50E1A6E000E1B6E8B
:10466000BE0E1C6E010E1D6E15EC22F01200B2EC97
:1046700025F0520EA2EC25F0B40EA2EC25F0A8EC29
:1046800025F0530EA2EC25F0010E43EC24F0076E4A
:1046900007500A6E0B6A000E43EC24F0076E0750B9
:1046A000096E086A0A5008100A6E0B5009100B6E4A
:1046B000ADEC25F00AC005F00BC006F01200B2EC1C
:1046C00025F0520EA2EC25F0B60EA2EC25F0A8ECD7
:1046D00025F0530EA2EC25F0010E43EC24F0076EFA
:1046E00007500A6E0B6A000E43EC24F0076E075069
:1046F000096E086A0A5008100A6E0B5009100B6EFA
:10470000ADEC25F00AC005F00BC006F01200B2ECCB
:1047100025F0520EA2EC25F0B80EA2EC25F0A8EC84
:1047200025F0530EA2EC25F0010E43EC24F0076EA9
:1047300007500A6E0B6A000E43EC24F0076E075018
:10474000096E086A0A5008100A6E0B5009100B6EA9
:10475000ADEC25F00AC005F00BC006F01200B2EC7B
:1047600025F0520EA2EC25F0BA0EA2EC25F0A8EC32
:1047700025F0530EA2EC25F0010E43EC24F0076E59
:1047800007500A6E0B6A000E43EC24F0076E0750C8
:10479000096E086A0A5008100A6E0B5009100B6E59
:1047A000ADEC25F00AC005F00BC006F0120053C0B6
:1047B00057F054C058F0EBEF23F051C03FF052C017
:1047C00040F0570E416E000E426E55C043F056C089
:1047D00044F040EC1CF057C0F6FF58C0F7FF08004B
:1047E000F5500009D8A4F7EF23F0F9EF23F0DDEF3F
:1047F00023F0000E526E000E516E1200000E151ABC
:10480000000E161A000E171A800E181A11C001F0A9
:1048100012C002F013C003F014C004F015C005F07C
:1048200016C006F017C007F018C008F00BEC0FF028
:1048300001C011F002C012F003C013F004C014F064
:104840001200000E106E000E0F6E32EF24F00EC03C
:1048500001F0026A0CC003F00DC004F06AEC1DF018
:104860000F4A102A0F500A24D96E10500B20DA6E0E
:10487000DF500E6E0E50D8A440EF24F042EF24F02B
:1048800027EF24F01200036E2DEC25F00E01DA87DD
:104890002DEC25F0D5CE04F02DEC25F00350D8B446
:1048A00054EF24F058EF24F0026A022A59EF24F062
:1048B000026A023A02460E01DA510218DF0B0218B0
:1048C000DA6FDA890450120014BE71EF24F014502C
:1048D00006E11304D8B06FEF24F071EF24F07FEFFE
:1048E00024F013C015F014C016F0151E161E154A3C
:1048F000162A15C013F016C014F083EF24F013C06D
:1049000013F014C014F01200F50E1A6E000E1B6E98
:10491000BE0E1C6E010E1D6E15EC22F0F50E1A6E09
:10492000000E1B6EBE0E1C6E010E1D6E15EC22F0ED
:10493000F50E1A6E000E1B6EBE0E1C6E010E1D6E65
:1049400035EC21F01200F50E1A6E000E1B6EBE0E35
:104950001C6E010E1D6EE9EC21F0F50E1A6E000EB4
:104960001B6EBE0E1C6E010E1D6EE9EC21F0F50EE5
:104970001A6E000E1B6EBE0E1C6E010E1D6E35EC07
:1049800021F01200F50E1A6E000E1B6EBE0E1C6E8C
:10499000010E1D6EBCEC21F0F50E1A6E000E1B6EA2
:1049A000BE0E1C6E010E1D6EE9EC21F0F50E1A6EA6
:1049B000000E1B6EBE0E1C6E010E1D6EE9EC21F08A
:1049C0001200F50E1A6E000E1B6EBE0E1C6E010E4E
:1049D0001D6EBCEC21F0F50E1A6E000E1B6EBE0EA5
:1049E0001C6E010E1D6E15EC22F0F50E1A6E000EF7
:1049F0001B6EBE0E1C6E010E1D6E15EC22F0120019
:104A00000BEF25F002C0D9FF03C0DAFFDF5096ECB0
:104A100025F0024A032A02C0D9FF03C0DAFFDF50A3
:104A2000D8A415EF25F017EF25F002EF25F01200BE
:104A30000E01D951F00B0809D96FD98B9F0ED66F93
:104A4000848A848CA79BA79D1D0E1D6F1E0E1C6F54
:104A50001C0E6F6F1B0E706F12000E01D8B533EF76
:104A600025F035EF25F02DEF25F0DACE01F01F0E01
:104A70000116D8A43EEF25F040EF25F02DEF25F0EC
:104A80001200D350D450026E016AD8900001F23562
:104A9000D96EF335DA6E000ED926020EDA2201C085
:104AA000DEFF02C0DDFF120001500302F3CF05F06C
:104AB000F4CF06F001500402F35006260250030220
:104AC000F350062605C001F006C002F01200046E85
:104AD000B2EC25F0520EA2EC25F004508009A2ECB5
:104AE00025F00350A2EC25F0ADEC25F01200D650D5
:104AF0001F0B4009D66ED688D650F00B0E09D66E25
:104B0000D588000ED46E000ED36ED58E1200120E14
:104B10000E01626F110E156FE997E895330EE56F80
:104B2000000EE66FE789E88BE78F1200016E0E0139
:104B300037A59DEF25F09FEF25F097EF25F001C0F9
:104B4000E4FE1200026E2DEC25F002C0D5FE12002C
:104B50002DEC25F00E01DA8312002DEC25F00E016C
:104B6000DA8512002DEC25F00E01DA811200E8033F
:094B7000DC001E0012001200011D
:020000040020DA
:10000000FF0FFF0FFF0FFF0FFF0FFF0FFF0FFF0F80
:020000040030CA
:0C000000AAFFFFFF9FFFFFFFFFFFFFFFB5
:00000001FF
